:10000000022936020006C2AFD2AF32022D3BC2AF88
:10001000D2AF3202000E120066C2B3123124C2B255
:10002000023129022C7353BEF72232023209120028
:1000300026E4FDEDC3940874809480501B12312493
:10004000EE25E0FE30B3054401FE8004EE54FEFED2
:10005000C2B21231290D80DBAF06221231B2023159
:1000600039222202002A43BE082222022B87E49072
:100070008088F0A3F075A78075AB80F5AE75AFE012
:10008000D2BD22022D9EAD07AC0690A474E024F8E8
:10009000603F2407705AED64107003EC64307020E8
:1000A0001200F1EF6401700790A4C47403F02212EF
:1000B00000F1EF90A4C470047404F0227401F022E3
:1000C000ED64207003EC6430702690A4C47406F0D4
:1000D00022ED64407003EC64146015ED644170031C
:1000E000EC6414600BE4B50507ECB4140312128839
:1000F0002290A230E0FF2222FFFF4457494E5435A0
:100100000204C1E86480F8E933E83360110460F068
:10011000ED33EC337009E8FCE9FDEAFEEBFF220465
:1001200060DED3EB9FEA9EE99DE8C2E78CF0C2F760
:1001300095F0400CE8CCF8E9CDF9EACEFAEBCFFB2C
:1001400012048C85D0F05804700320D5B3E80470F5
:10015000075002B2D50204CB92D5EC0460F7E4CC90
:10016000C0E0C398F8603B94186008400DD0E0FBF5
:100170000204A3E4FBFAC9FC8028E830E406E4C9E1
:10018000FBE4CAFCE830E305E4C9CACBFCE8540749
:100190006010F8C3E913F9EA13FAEB13FBEC13FC54
:1001A000D8F130F52FC3E49CFCEF9BFFEE9AFEEDF7
:1001B00099FDD0E0FBEF4E4D4C701222DB030204A0
:1001C000C8EC2CFCEF33FFEE33FEED33FDED30E7F2
:1001D000EB0204A3EF2BFFEE3AFEED39FDD0E0FB7E
:1001E00050130BBB00030204CBED13FDEE13FEEF27
:1001F00013FFEC13FC0204A3EC4D6011E8497017E7
:10020000ED33EC3304600DE4FCFFFEFD22E933E83E
:10021000330470F80204C112048C58046009E4CC61
:10022000248150062850090204CB2840030204C848
:10023000C0E0EB4A7044B98006D0E0FB0204B7EF9F
:100240004E701CBD8008EBFFEAFEE9FD80EBE98DF6
:10025000F0A4FEE5F00202E1E9CDF9EAFEEBFFEFE2
:1002600089F0A4FCE5F0CE89F0A42EFFE435F0CDB2
:1002700089F0A42DFEE435F08067EF4E7005BD8057
:10028000D780C3EF8BF0A4ACF0EE8BF0A42CFCE491
:1002900035F0F8EF8AF0A42CE5F038FCE433CB8D90
:1002A000F0A42CFCE5F03BF8EE8AF0A42CFCE5F081
:1002B00038F8E433CF89F0A42CFCE5F038CF3400D3
:1002C000CE89F0A42FFFE5F03EFEE433C98DF0A403
:1002D0002EFEE5F039CD8AF0A42FFFE5F03EFEE4D6
:1002E0003DFD33D0E0FB50070BBB000F0204CBEC0D
:1002F0002CFCEF33FFEE33FEED33FD0204A30204CA
:10030000CBEC5D046005E8590470030204C11204DB
:100310008C580460F6EC4860F2EC7004FDFEFF229D
:10032000C860DB2481C85009C398600250060204EB
:10033000C89850CAF582E9294B4A7005AB8202047D
:10034000B775F0007C1A7880C3EF9BEE9AED994068
:100350000DC3EF9BFFEE9AFEED99FDE842F0DC2322
:10036000ACF0D0E0FFD0E0FED0E0FDAB8220E710A3
:100370001BEB60BAEC2CFCEF33FFEE33FEED33FDEC
:100380000204A3E803F830E705C0F075F000EF2F92
:10039000FFEE33FEED33FD40B830E7C280AA74F8BB
:1003A000CC6480CCC86480C8F58204604FC3EB9FE6
:1003B000F5F0EA9E42F0E99D42F0E89C45F0603C91
:1003C000501DE5825FFFE582D313CB5BCBF42B5549
:1003D00082FB50280ABA002409B9002008801DE5D4
:1003E000825BFBE582D313CF5FCFF4C3132F55821B
:1003F000FF50090EBE00050DBD00010CC3EB9FF5BB
:10040000F0EA9E42F0E99D42F0E89C45F06007CC9E
:100410004820E701B3EC2275F020800E75F01080C3
:100420000575F0087D007E007F003392D530D5033E
:10043000120874EC334010EF33FFEE33FEED33FD62
:10044000EC33FCD5F0ED22E5F0247EA2D513CC925E
:10045000E7CDCEFF22EDD2E7CD33EC3392D5248128
:100460004006E4FFFEFDFC22FCE4CFCECDCC24E030
:10047000501174FF80EDC3CC13CCCD13CDCE13CE71
:10048000CF13CF0470F030D5DE020874E9D2E7C98B
:1004900033E833F892D5EDD2E7CD33EC33FC50029C
:1004A000B2D522EC30E7100FBF000C0EBE00080DD5
:1004B000BD00040BEB6014A2D5EB13FCED92E7FD3D
:1004C0002274FFFCFDFEFF22E480F8A2D574FF1326
:1004D000FC7D80E480EFED33EC33601004700FEDB1
:1004E000547F7005740292E0227404220422E422F4
:1004F000ED33EC33600A047003BD8004ECB2E7FC1A
:1005000022C0E0EFFBEEFAEDF9ECF81201F8D0E0D2
:10051000F5F0EFFBEEFAEDF9ECF81208A6A3A3A3B1
:10052000A3E8C0E0E9C0E0EAC0E0EBC0E0C0F01240
:1005300001F81208C2A3A3A3A3120107D0F0D0E0D0
:10054000FBD0E0FAD0E0F9D0E0F8D5F0D422E7090A
:10055000F608DFFA8046E709F208DFFA803E888273
:100560008C83E709F0A3DFFA8032E309F608DFFAAB
:100570008078E309F208DFFA807088828C83E309CF
:10058000F0A3DFFA806489828A83E0A3F608DFFAA9
:10059000805889828A83E0A3F208DFFA804C80D2F7
:1005A00080FA80C680D4806980F28033801080A673
:1005B00080EA809A80A880DA80E280CA80338982CB
:1005C0008A83ECFAE493A3C8C582C8CCC583CCF077
:1005D000A3C8C582C8CCC583CCDFE9DEE7800D891E
:1005E000828A83E493A3F608DFF9ECFAA9F0EDFB25
:1005F0002289828A83ECFAE0A3C8C582C8CCC5836D
:10060000CCF0A3C8C582C8CCC583CCDFEADEE880C5
:10061000DB89828A83E493A3F208DFF980CC88F037
:10062000EF60010E4E60C388F0ED2402B404005068
:10063000B9F582EB2402B4040050AF232345822392
:1006400090059E73BB010689828A83E0225002E7EF
:1006500022BBFE02E32289828A83E49322BB010C3F
:10066000E58229F582E5833AF583E0225006E92503
:1006700082F8E622BBFE06E92582F8E222E582291D
:10068000F582E5833AF583E49322BB010689828AE9
:1006900083F0225002F722BBFE01F322F8BB010DCA
:1006A000E58229F582E5833AF583E8F0225006E9F0
:1006B0002582C8F622BBFE05E92582C8F222EF8D0D
:1006C000F0A4A8F0CF8CF0A428CE8DF0A42EFE22AA
:1006D000BC000BBE0029EF8DF084FFADF022E4CC0E
:1006E000F875F008EF2FFFEE33FEEC33FCEE9DECD7
:1006F000984005FCEE9DFE0FD5F0E9E4CEFD22ED1D
:10070000F8F5F0EE8420D21CFEADF075F008EF2F66
:10071000FFED33FD4007985006D5F0F222C398FD57
:100720000FD5F0EA22C2D5EC30E709B2D5E4C39D7B
:10073000FDE49CFCEE30E715B2D5E4C39FFFE49ED8
:10074000FE1206D0C3E49DFDE49CFC80031206D09B
:1007500030D507C3E49FFFE49EFE22C5F0F8A3E076
:1007600028F0C5F0F8E582158270021583E038F0B4
:1007700022A3F8E0C5F025F0F0E58215827002159D
:1007800083E0C838F0E822BB010A89828A83F0E559
:10079000F0A3F0225006F709A7F01922BBFE06F3DA
:1007A000E5F009F3192275F008758200EF2FFFEECE
:1007B00033FECD33CDCC33CCC58233C5829BED9A8D
:1007C000EC99E58298400CF582EE9BFEED9AFDECEB
:1007D00099FC0FD5F0D6E4CEFBE4CDFAE4CCF9A831
:1007E0008222B800C1B90059BA002DEC8BF084CF39
:1007F000CECDFCE5F0CBF97818EF2FFFEE33FEED10
:1008000033FDEC33FCEB33FB10D703994004EB9939
:10081000FB0FD8E5E4F9FA227818EF2FFFEE33FE4C
:10082000ED33FDEC33FCC933C910D7059BE99A4081
:1008300007EC9BFCE99AF90FD8E0E4C9FAE4CCFB99
:100840002275F010EF2FFFEE33FEED33FDCC33CCED
:10085000C833C810D7079BEC9AE899400AED9BFD76
:10086000EC9AFCE899F80FD5F0DAE4CDFBE4CCFA89
:10087000E4C8F922C3E49FFFE49EFEE49DFDE49CEE
:10088000FC22EB9FF5F0EA9E42F0E99D42F0E89CE5
:1008900045F022E8600FEFC333FFEE33FEED33FD8A
:1008A000EC33FCD8F122E493FC740193FD740293C1
:1008B000FE740393FF22E0F8A3E0F9A3E0FAA3E0BB
:1008C000FB22E493F8740193F9740293FA7403938E
:1008D000FB22ECF0A3EDF0A3EEF0A3EFF022A88250
:1008E0008583F0D083D0821208F51208F51208F53E
:1008F0001208F5E473E493A3C583C5F0C583C8C5A6
:1009000082C8F0A3C583C5F0C583C8C582C822EFDD
:100910004E6012EF60010EEDBB010B89828A83F0FD
:10092000A3DFFCDEFA2289F05007F709DFFCA9F00B
:1009300022BBFEFCF309DFFCA9F022E490A42DF019
:10094000A3F0A3F0A3F0A3F0A3F0A3F0A3F0A304FB
:10095000F0A37480F0A3748AF0E4A3F0A3F0783AD3
:100960007CA47D017BFF7A327976FE7F0212061E1F
:10097000D3908083E09402908082E094007F0040D6
:10098000027F0190A433EFF090A433E07003020CD7
:10099000E090A4357401F0A37480F0A3748AF09001
:1009A000A435E0FBA3E0FAA3E0F9120644645A6020
:1009B0003A908082E0FEA3E0248AF974803EFA7BBC
:1009C00001C003C002C00190A435A3E0FAA3E0F97E
:1009D000C3D082D083D0E0E99582EA9583500C9011
:1009E000A436E475F00112075B80B4908082E0FECB
:1009F000A3E0248AF974803EFA7B01C003C002C0E0
:100A00000190A435E0FBA3E0FAA3E0F9D082D08303
:100A1000D0E06B7008E965827003EA658370079027
:100A20008082F0A3F02290A435A3E0FAA3E0C3945F
:100A30008AFFEA9480FEC3908083E09FFF908082CB
:100A4000E09E90A431F0A3EFF090A438E024FE6083
:100A50005524026003020B227E007FFF7D007B0194
:100A60007AA1792A12090FE490A439F090A434F005
:100A700090A42DF0A3F0A3F0A3F090A42FE0FEA388
:100A8000E0FFC39403EE9400501C743A2FF5827477
:100A9000A43EF583E4F090A430E004F070DC90A470
:100AA0002FE004F080D490A43F7401F0A374A1F06F
:100AB000A3742AF0A37401F0A374A4F0A3742DF01E
:100AC00090A431E0FFA3E090A445CFF0A3EFF09015
:100AD000A435E0FBA3E0FAA3E0F91227B390A43910
:100AE000EFF0A3F06401703A90A42DE0FCA3E0FDC8
:100AF00090A4417401F0A374A2F0A37429F07B01C7
:100B00007AA1792A123002EF7003020BC0122892E8
:100B10007E017F007D007B017AA2792912090F02F4
:100B20000BC090A43AE064036003020BC090A436AB
:100B3000804490A435E0FBA3E0FAA3E0F912064458
:100B4000645A603A908082E0FEA3E0248AF97480BF
:100B50003EFA7B01C003C002C00190A435A3E0FAB5
:100B6000A3E0F9C3D082D083D0E0E99582EA9583EF
:100B7000500C90A436E475F00112075B80B49080AD
:100B800082E0FEA3E0248AF974803EFA7B01C00370
:100B9000C002C00190A435E0FBA3E0FAA3E0F9D0C5
:100BA00082D083D0E06B7008E965827003EA6583C8
:100BB0007008908082F0A3F0800690A4347401F055
:100BC00090A439E06401600990A434E07003020C41
:100BD000D890A435A3E0FAA3E0C3948AFFEA9480F6
:100BE000FEC3908083E09FFF908082E09EFE90A4F1
:100BF0002DE0FCA3E0FDC3EF9DFFEE9CFE90A43131
:100C0000F0A3EFF0D39400EE94004068E490A42F9A
:100C1000F0A3F090A431E0FEA3E0FF90A42FE0FC4D
:100C2000A3E0FDC39FEC9E504390A435E0FBA3E0FE
:100C3000FAA3E0F990A42DE0FEA3E0FFE92FF9EA82
:100C40003EFAE92DF9EA3CFA120644FF748A2DF5C2
:100C50008274803CF583EFF0E412068A90A430E0C1
:100C600004F070AF90A42FE004F080A790A4337438
:100C700001F08052E490A42FF0A3F090A435A3E0FB
:100C8000FAA3E0C3948AFFEA9480FE90A42EE02F9A
:100C9000FF90A42DE03EFE90A42FE0FCA3E0FDC356
:100CA0009FEC9E501C748A2DF58274803CF583E481
:100CB000F090A430E004F070C290A42FE004F08023
:100CC000BAE490A433F090A431E0FFA3E0908082D6
:100CD000CFF0A3EFF0020988E490A433F002098872
:100CE0002290A4B9E0FEA3E0FF90A474E0FD1215E9
:100CF0002C7B017AA4798E90A469E4F0A37404F0AB
:100D00007F007E2612178890A4B9E0FCA3E0FDE4E2
:100D100012041CE4FBFA797A784412030190A49E31
:100D20001208D290A474E064016003020E1490A42F
:100D3000B9E0FCA3E0FDE412041CE4FBFA797A7844
:100D40004412030190A479E0F8A3E0F9A3E0FAA328
:100D5000E0FB12010790A4811208D2E4FFFEFD7CA3
:100D60004090A475E0F8A3E0F9A3E0FAA3E0FB1239
:100D700001F890A481E0F8A3E0F9A3E0FAA3E0FB76
:100D80001201F890A4921208D290A475E0FCA3E09E
:100D9000FDA3E0FEA3E0FF90A481E0F8A3E0F9A3A7
:100DA000E0FAA3E0FB1201F8C004C005C006C007CA
:100DB00090A43F1208DE40000000D007D006D00506
:100DC000D004121FA190A48AE0F8A3E0F9A3E0FAEE
:100DD000A3E0FB1201F890A49A1208D290A481E03B
:100DE000FCA3E0FDA3E0FEA3E0FF90A49AE0F8A33B
:100DF000E0F9A3E0FAA3E0FB1201F8E4FBFA794082
:100E0000784012030190A4A21208D27B017AA4793F
:100E1000A2020F9590A474E064026003020ED690C3
:100E2000A4B9E0FCA3E0FDE412041CE4FBFA797A27
:100E3000784412030190A479E0F8A3E0F9A3E0FA62
:100E4000A3E0FB12010790A4811208D2E4FFFEFD8B
:100E50007C4090A46BE0F8A3E0F9A3E0FAA3E0FBE8
:100E60001201F890A481E0F8A3E0F9A3E0FAA3E06E
:100E7000FB1201F890A4921208D290A46BE0FCA39C
:100E8000E0FDA3E0FEA3E0FF90A481E0F8A3E0F979
:100E9000A3E0FAA3E0FB1201F8C004C005C006C03D
:100EA0000790A43F1208DE40000000D007D006D013
:100EB00005D004121FA190A48AE0F8A3E0F9A3E0F2
:100EC000FAA3E0FB1201F890A49A1208D27B017AEF
:100ED000A4799A020F9590A474E064036003020F52
:100EE000A590A4B9E0FCA3E0FDE412041CE4FBFA25
:100EF000797A784412030190A479E0F8A3E0F9A389
:100F0000E0FAA3E0FB12010790A4811208D2E4FFEB
:100F1000FEFD7C4090A475E0F8A3E0F9A3E0FAA3FD
:100F2000E0FB1201F890A481E0F8A3E0F9A3E0FA55
:100F3000A3E0FB1201F890A4921208D290A475E0ED
:100F4000FCA3E0FDA3E0FEA3E0FF90A481E0F8A3F2
:100F5000E0F9A3E0FAA3E0FB1201F8C004C005C069
:100F600006C00790A43F1208DE40000000D007D062
:100F700006D005D004121FA190A48AE0F8A3E0F9DE
:100F8000A3E0FAA3E0FB1201F890A49A1208D27B26
:100F9000017AA4799A90A469E4F0A37404F07F50D4
:100FA0007E281217887B017AA4799E90A469E4F0C8
:100FB000A37404F07F007E251217887B017AA47940
:100FC0009290A469E4F0A37404F07F407E28021795
:100FD0008841808000428082000041808100428000
:100FE0008400004280860000428088000044A429DA
:100FF0000000000041A428006100A22900000000B8
:1010000000000000000000000000000000000000E0
:1010100000000000000000000000000000000000D0
:1010200000000000000000000000000000000000C0
:1010300000000000000000000000000000000000B0
:1010400000000000000000000000000000000000A0
:101050000000000000000000000000000000000090
:101060000000000000000000000000000000000080
:101070000000000000000000000000000000000070
:101080000000000000000000000000000000000060
:101090000000000000000000000000000000000050
:1010A0000000000000000000000000000000000040
:1010B0000000000000000000000000000000000030
:1010C0000000000000000000000000000000000020
:1010D0000000000000000000000000000000000010
:1010E0000000000000000000000000000000000000
:1010F00000000000000000000000000060FFA329C5
:1011000000000000000000000000000000000000DF
:1011100000000000000000000000000000000000CF
:1011200000000000000000000000000000000000BF
:1011300000000000000000000000000000000000AF
:10114000000000000000000000000000000000009F
:10115000000000000000000000000000000000008F
:10116000000000000000000000000000000000007F
:10117000000000000000000000000000000000006F
:10118000000000000000000000000000000000005F
:10119000000000000000000000000000000000004F
:1011A000000000000000000000000000000000003F
:1011B000000000000000000000000000000000002F
:1011C000000000000000000000000000000000001F
:1011D000000000000000000000000000000000000F
:1011E00000000000000000000000000000000000FF
:1011F00000000000000000000000000000000042AD
:10120000A4CC000041A4CB0142A4C55AA542A4A687
:10121000000042A473000044A49E0000000044A407
:10122000753EE9518344A48A40490E5644A46B3D5F
:1012300032D5D044A4793ECD37BE44A4810000000D
:101240000044A49A0000000044A49200000000445E
:10125000A4A20000000044A4960000000044A48E54
:101260000000000044A4850000000044A46F0000BA
:10127000000044A47D0000000044A4BF0000000062
:1012800044A4BB0000000000784B7CA47D017BFFE0
:101290007A3279787E007F0612061E7B017AA47965
:1012A0004390A469E4F0A37404F07F007E13121944
:1012B000D57B017AA4794790A469E4F0A37404F083
:1012C0007F057E131219D590A444E0FFE4FCFDFED7
:1012D0007810120893C004C005C006C00790A4434C
:1012E000E0FFE4FCFDFE7818120893D003D002D092
:1012F00001D000EF4BFFEE4AFEED49FDEC48FCC08B
:1013000004C005C006C00790A445E0FFE4FCFDFE54
:101310007808120893D003D002D001D000EF4BFB25
:10132000EE4AFAED49F9EC48F8A3E0FFEB4FFFEA8B
:10133000FEE9FDE8FC90A4511208D290A448E0FF19
:10134000E4FCFDFE7810120893C004C005C006C07E
:101350000790A447E0FFE4FCFDFE7818120893D044
:1013600003D002D001D000EF4BFFEE4AFEED49FD65
:10137000EC48FCC004C005C006C00790A449E0FFCB
:10138000E4FCFDFE7808120893D003D002D001D00F
:1013900000EF4BFBEE4AFAED49F9EC48F8A3E0FF09
:1013A000EB4FFFEAFEE9FDE8FC90A4C71208D2E487
:1013B0007B64FAF9F890A4C7E0FCA3E0FDA3E0FE8B
:1013C000A3E0FF1207E290A450EBF0E47B64FAF98B
:1013D000F890A4C7E0FCA3E0FDA3E0FEA3E0FF12A9
:1013E00007E2E47B64FAF9F81207E290A44FEBF00D
:1013F000E47B107A27F9F890A4C7E0FCA3E0FDA3F2
:10140000E0FEA3E0FF1207E2E47B64FAF9F81207BA
:10141000E290A44EEBF0E47B64FAF9F890A451E07A
:10142000FCA3E0FDA3E0FEA3E0FF1207E290A44DC1
:10143000EBF0E47B64FAF9F890A451E0FCA3E0FD42
:10144000A3E0FEA3E0FF1207E2E47B64FAF9F812DE
:1014500007E290A44CEBF0E47B107A27F9F890A413
:1014600051E0FCA3E0FDA3E0FEA3E0FF1207E2E4ED
:101470007B64FAF9F81207E290A44BEBF0A3E0FFCB
:10148000D3940074809480406ED3EF940C74809455
:10149000805064A3E0FF941F748094805054EF94B4
:1014A0000074809480404BA3E0D3941774809480A0
:1014B0005039C3748094804032A3E0D3943B74804D
:1014C00094805020C3748094804019A3E0D3943B4F
:1014D000748094805007C3748094805020E490A45A
:1014E00050F08019E490A44FF08012E490A44EF0E4
:1014F000800B90A44D800390A44C7401F07B017A82
:10150000A4794B90A469E4F0A37406F07F9D7E005B
:101510001217887B017AA479C590A469E4F0A374BA
:1015200002F07F9C7E00121788021DF190A42DED21
:10153000F0AB07AA06E4A3F0A31208DE0000000047
:1015400090A4371208DE00000000AE02AF037C005A
:101550007D0A1206D0AC06AD07E412041C90A43339
:101560001208D2E4FFFE7D207C4190A433E0F8A372
:10157000E0F9A3E0FAA3E0FB12039E60025023E42B
:10158000FFFE7DA07C4090A433E0F8A3E0F9A3E047
:10159000FAA3E0FB12039E400990A42E7401F0020E
:1015A0001669E4FFFE7DA07C4190A433E0F8A3E03F
:1015B000F9A3E0FAA3E0FB12039E60025025E4FFCA
:1015C000FE7D207C4190A433E0F8A3E0F9A3E0FA8B
:1015D000A3E0FB12039E600B400990A42E7402F05E
:1015E000021669E4FFFE7DC87C4290A433E0F8A3B4
:1015F000E0F9A3E0FAA3E0FB12039E60025024E4AA
:10160000FFFE7DA07C4190A433E0F8A3E0F9A3E0C5
:10161000FAA3E0FB12039E600A400890A42E740314
:10162000F08046E4FFFE7D967C4390A433E0F8A36F
:10163000E0F9A3E0FAA3E0FB12039E60025024E469
:10164000FFFE7DC87C4290A433E0F8A3E0F9A3E05C
:10165000FAA3E0FB12039E600A400890A42E7404D3
:10166000F0800690A42E7405F090A42EE024FE6075
:101670003914605F1470030216FE2403600302171E
:101680005490A43F1208DEBFCCCCCD90A433E0FC34
:10169000A3E0FDA3E0FEA3E0FF121FA190A4371278
:1016A00008D27FDC7EAF7D0E805090A43F1208DE12
:1016B000BFECCCCD90A433E0FCA3E0FDA3E0FEA3FF
:1016C000E0FF121FA190A4371208D27FB87E287DB8
:1016D00080802790A43F1208DEBFE7AE1490A433A9
:1016E000E0FCA3E0FDA3E0FEA3E0FF121FA190A495
:1016F000371208D27F407E167D617C47802990A4F6
:101700003F1208DEC000000090A433E0FCA3E0FD1F
:10171000A3E0FEA3E0FF121FA190A4371208D27F1E
:10172000047EF67D077C4890A437E0F8A3E0F9A397
:10173000E0FAA3E0FB1201F890A42F1208D290A4C3
:101740002FE0FCA3E0FDA3E0FEA3E0FF90A48E1237
:1017500008D2800690A42E740AF090A42DE0FF64B5
:10176000016005EF6403701F90A48EE0FCA3E0FD10
:10177000A3E0FEA3E0FF7B9A7A997919783F1201E2
:10178000F890A48E1208D22290A466EBF0A3EAF09F
:10179000A3E9F0AD07AC0690A466E0FBA3E0FAA3D2
:1017A000E04A4B70030219D4A3E0FEA3E0FF4E70A1
:1017B000030219D4EEC313FEEF132DFFEE3CFED34C
:1017C000EF94FEEE94FF40030219D4C2AFED540132
:1017D000FBECC313FCED13FDAE047810CEC313CEA7
:1017E00013D8F9F5F1ECF5F2AF058FF3E4F5F875E0
:1017F000F401D2FF30FCFDC2FDEB6401707C90A4CB
:1018000069E0FEA3E0FF64014E700AC2FBC2FAD297
:10181000F9C2F88008C2FBC2FAD2F9D2F8EF64012B
:101820004E90A466701AE0FBA3E475F001120771F4
:10183000A9F0FA120644F5FC90A46AE024FF802D7A
:10184000E0FBA3E475F001120771A9F0FA12064457
:10185000F5FC90A466E0FBA3E475F001120771A902
:10186000F0FA120644F5FD90A46AE024FEF090A47C
:1018700069E034FFF0D2FE20FEFD90A469E0FEA3F3
:10188000E0FF4E70030219CFC3EF9404EE940040C2
:101890000302195DEE7022EF14601614600D1470CF
:1018A00018D2FBD2FAD2F9C2F8800ED2FBD2FA805B
:1018B00004D2FBC2FAC2F9C2F890A469E0FEA3E028
:1018C000FFEE6003021956EF14607614604714604F
:1018D0000302195690A466E0FBA3E475F001120719
:1018E00071A9F0FA120644F5FA90A466E0FBA3E4AD
:1018F00075F001120771A9F0FA120644F5FB90A4E5
:1019000066E0FBA3E475F001120771A9F0FA120674
:1019100044F5FC804190A466E0FBA3E475F001125D
:101920000771A9F0FA120644F5FA90A466E0FBA349
:10193000E475F001120771A9F0FA120644F5FB8074
:101940001590A466E0FBA3E475F001120771A9F0FD
:10195000FA120644F5FAD2FE30FE7480FBD2FBD2B6
:10196000FAD2F9D2F890A466E0FBA3E475F0011274
:101970000771A9F0FA120644F5FA90A466E0FBA3F9
:10198000E475F001120771A9F0FA120644F5FB9014
:10199000A466E0FBA3E475F001120771A9F0FA1246
:1019A0000644F5FC90A466E0FBA3E475F001120781
:1019B00071A9F0FA120644F5FDD2FE20FEFD90A4B6
:1019C0006AE024FCF090A469E034FFF002187AE4A5
:1019D000F5F8D2AF2290A466EBF0A3EAF0A3E9F009
:1019E000AD07AC0690A466E0FBA3E0FAA3E04A4B87
:1019F0007003021C1CA3E0FEA3E0FF4E7003021C58
:101A00001CEEC313FEEF132DFFEE3CFED3EF94FE4E
:101A1000EE94FF4003021C1CC2AFED5401FBECC36B
:101A200013FCED13FDAE047810CEC313CE13D8F91A
:101A3000F5F1ECF5F2AF058FF3E4F5F875F401D2AA
:101A4000FF30FCFDD2FDEB6401707D90A469E07075
:101A500004A3E06401700AC2FBC2FAD2F9C2F880A2
:101A600008C2FBC2FAD2F9D2F8D2FE20FEFD90A441
:101A700069E07004A3E0640190A466701BE0FBA31E
:101A8000E475F001120771A9F0FAE5FC12068A90DC
:101A9000A46AE024FF021C0CE0FBA3E475F0011231
:101AA0000771A9F0FAE5FC12068A90A466E0FBA390
:101AB000E475F001120771A9F0FAE5FD12068A90AB
:101AC000A46AE024FE021C0C90A469E0FEA3E0FFDF
:101AD0004E7003021C17C3EF9404EE9400400302FF
:101AE0001BA5EE7022EF14601614600D147018D24E
:101AF000FBD2FAD2F9C2F8800ED2FBD2FA8004D21D
:101B0000FBC2FAC2F9C2F8D2FE20FEFD90A469E041
:101B1000FEA3E0FFEE6003021C17EF146070146078
:101B200044146003021C1790A466E0FBA3E475F064
:101B300001120771A9F0FAE5FA12068A90A466E08C
:101B4000FBA3E475F001120771A9F0FAE5FB120698
:101B50008A90A466E0FBA3E475F001120771A9F076
:101B6000FAE5FC803B90A466E0FBA3E475F001126B
:101B70000771A9F0FAE5FA12068A90A466E0FBA3C1
:101B8000E475F001120771A9F0FAE5FB801290A448
:101B900066E0FBA3E475F001120771A9F0FAE5FA1B
:101BA00012068A8072D2FBD2FAD2F9D2F8D2FE2083
:101BB000FEFD90A466E0FBA3E475F001120771A995
:101BC000F0FAE5FA12068A90A466E0FBA3E475F049
:101BD00001120771A9F0FAE5FB12068A90A466E0EB
:101BE000FBA3E475F001120771A9F0FAE5FC1206F7
:101BF0008A90A466E0FBA3E475F001120771A9F0D6
:101C0000FAE5FD12068A90A46AE024FCF090A4692B
:101C1000E034FFF0021AC8E4F5F8D2AF22E47B64A6
:101C2000FAF9F890A46FE0FCA3E0FDA3E0FEA3E0C6
:101C3000FF1207E2AC00AD01AE02AF03E4FBFAF91C
:101C4000F8C31208826003021DF090A485E0F8A397
:101C5000E0F9A3E0FAA3E0FBC000C001C002C003AA
:101C6000E4FBFA797A784490A48EE0FCA3E0FDA32B
:101C7000E0FEA3E0FF1203017BCD7ACC79CC783D66
:101C80001201F8D003D002D001D00012010790A4B5
:101C9000851208D2E47FE87E03FDFC90A46FE0F893
:101CA000A3E0F9A3E0FAA3E0FBC312088240479047
:101CB000A46F1208DE0000000090A47DE0FCA3E009
:101CC000FDA3E0FEA3E02401FFE43EFEE43DFDE4CD
:101CD0003CFC90A47D1208D290A4BFE0FCA3E0FDE0
:101CE000A3E0FEA3E0FFE4FBFA798078BF120107CE
:101CF00090A4BF1208D290A4B9E0FEA3E0FF122680
:101D0000C890A4BFE0FCA3E0FDA3E0FEA3E0FF12A7
:101D10000455AD07AC06ECC4F854F0C868FFEDC438
:101D2000540F4890A42FCFF0A3EFF0ED540FFF9085
:101D3000A42DE4F0A3EFF07B017AA4792F90A4699D
:101D4000E4F0A37402F07F007E281217887B017AEA
:101D5000A4792D90A469E4F0A37402F07F057E2895
:101D600012178890A47DE0FCA3E0FDA3E0FEA3E0B1
:101D7000FFE412041790A4BFE0F8A3E0F9A3E0FA8F
:101D8000A3E0FB120107120455AD07AC06ECC4F842
:101D900054F0C868FFEDC4540F4890A42FCFF0A3AF
:101DA000EFF0ED540FFF90A42DE4F0A3EFF07B01D2
:101DB0007AA4792D90A469E4F0A37402F07F257EC3
:101DC000281217887B017AA4792F90A469E4F0A3E4
:101DD0007402F07F207E281217887B017AA479850F
:101DE00090A469E4F0A37404F07F007E27121788A2
:101DF0002278577CA47D017BFF7A3279867E007F32
:101E00000212061E7B017AA4795590A469E4F0A31E
:101E10007402F07F9C7E001219D590A455E0645A9C
:101E20007004A3E064A56003021FA090A459F0A36E
:101E3000F0D200785B7CA47D017BFF7A327988FE4A
:101E40007F0712061E7B017AA4796290A469E4F0F0
:101E5000A37402F07F9D7E001219D590A462E0FC6D
:101E6000A3E0FDEC90A459F0E0FF75F00A84C4549F
:101E7000F0FEEF75F00A84EE25F090A45BF090A4DC
:101E800059EDF0E0FF75F00A84C454F0FEEF75F0F0
:101E90000A84EE25F090A45CF07B017AA47962902C
:101EA000A469E4F0A37402F07F9E7E001219D5901D
:101EB000A462E0FCA3E0FDEC90A459F0E0FF75F013
:101EC0000A84C454F0FEEF75F00A84EE25F090A465
:101ED0005DF090A459EDF0E0FF75F00A84C454F071
:101EE000FEEF75F00A84EE25F090A45FF07B017A96
:101EF000A4796290A469E4F0A37402F07F9F7E004D
:101F00001219D590A462E0FCA3E0FDEC90A459F076
:101F1000E0FF75F00A84C454F0FEEF75F00A84EE19
:101F200025F090A460F090A459EDF0E0FF75F00A60
:101F300084C454F0FEEF75F00A84EE25F090A4619D
:101F4000F07B017AA4795790A469E4F0A304F07FB0
:101F50009C7E00121788300047122C087F10122C2C
:101F60004690A461E0FF122C4690A460E0FF122C82
:101F70004690A45FE0FF122C4690A45EE0FF122C76
:101F80004690A45DE0FF122C4690A45CE0FF122C6A
:101F90004690A45BE0FF122C3B123076C20080B664
:101FA0002290A43B1208D2E4FFFE7D807C3F90A4E7
:101FB0003BE0F8A3E0F9A3E0FAA3E0FB12039E7074
:101FC0000690A43B0220FB90A43BE0FCA3E0FDA311
:101FD000E0FEA3E0FF1204D6FBA3E0FCA3E0FDA318
:101FE000E0FEA3E0FF1204D6FFB40108E4FFFE7D8B
:101FF000807C3F22EF64046029EB64046024EBB42E
:102000000130E4FFFEFDFC90A43FE0F8A3E0F9A35B
:10201000E0FAA3E0FB12039E60084006E4FFFEFD29
:10202000FC2290A43F1208DEFFFFFFFF90A43F02B6
:1020300020FBE490A443F0A3F0FFFEFDFC90A43B42
:10204000E0F8A3E0F9A3E0FAA3E0FB12039E505FDF
:1020500090A43FE0FCA3E0FDA3E0FEA3E0FF120498
:102060005590A443EEF0A3EFF0FDCCEECCEC1204BF
:102070001CC8ECC8C9EDC9CAEECACBEFCB90A43FCF
:10208000E0FCA3E0FDA3E0FEA3E0FF120103E4FBFC
:10209000FAF9F812039E708A90A43BE0FCA3E0FDDD
:1020A000A3E0FEA3E0FF1204F090A43B1208D2903C
:1020B000A43BE0FCA3E0FDA3E0FEA3E0FF1223CBE2
:1020C00090A43FE0F8A3E0F9A3E0FAA3E0FB12013B
:1020D000F8122A0F90A43F1208D290A444E030E0F6
:1020E0001790A43FE0FCA3E0FDA3E0FEA3E0FF12F5
:1020F00004F090A43F1208D290A43FE0FCA3E0FDBE
:10210000A3E0FEA3E0FF2290A438EBF090A437ED0B
:10211000F0EF24D0FEE4340790A43AF0A3CEF0ED23
:10212000FF64016005EF6402701590A437E0240C91
:10213000F090A43BE024FFF090A43AE034FFF0904C
:10214000A43AE0FEA3E0FFC394D8EE94064034BE68
:102150000610BFD80D90A437E0C394097480948012
:10216000402190A43AE064067004A3E064D870654E
:1021700090A437E06409705DA3E0C3940374809475
:1021800080505290A437E0FB2401FFE433FE7C0032
:102190007D031206BE7D05120725AD07EB75F00223
:1021A000A4FFA3E07A002FFFEA35F0CF2DCF3EFE4B
:1021B00090A43AE0FCA3E0FD2FFBEC3EFAAE04ED68
:1021C0007802CEC313CE13D8F92BFFEA3ECF2406F4
:1021D000CF3400807C90A437E02401FFE433FE7C00
:1021E000007D031206BE7D05120725AC06AD07A3D0
:1021F000E02401FBE433FA90A437E075F002A42B4D
:10220000FFE5F03ACF2DCF3CFE90A43AE0FCA3E0EE
:10221000FD2FFBEC3EFAAE04ED7802CEC313CE13D5
:10222000D8F92BFBEA3EFA90A43AE0FEA3E0FF7C4B
:10223000007D641206D0C3EB9FFBEA9EFA90A43A9D
:10224000E0FEA3E0FF7C017D901206D0EF2BFFEEB5
:102250003AFE7C007D071206D090A439EDF090A4E0
:1022600039E0FF22782F7CA47D017BFF7A32797ED2
:102270007E007F0812061E122C4112308012314D52
:102280007F65122C467C06ECD394007480948040C9
:102290001512002E742F2CF582E434A4F583EFF090
:1022A0001200161C80E112002E90A42FEFF01231C4
:1022B000EF123085E4FCECC39403748094805030BA
:1022C000742F2CF582E434A4F583E0FFC4540FFE90
:1022D00090A42DF0EF540FFFA3F0EE75F00AA42F99
:1022E000FF742F2CF582E434A4F583EFF00C80C644
:1022F0007C04ECC39407748094805030742F2CF5C8
:1023000082E434A4F583E0FFC4540FFE90A42DF0C2
:10231000EF540FFFA3F0EE75F00AA42FFF742F2CDB
:10232000F582E434A4F583EFF00C80C690A42FE08E
:10233000FFA3E0FDA3E0FB12210790A432EFF07BA6
:10234000017AA4792F90A469E4F0A37402F07F10BD
:102350007E001217887B017AA4793190A469E4F099
:10236000A37402F07F117E001217887B017AA47992
:102370003390A469E4F0A37402F07F127E00121778
:10238000887B017AA4793590A469E4F0A37402F003
:102390007F137E000217883E9248DA3ECCCCCD3FB8
:1023A0002AAAAB400000003F8000003F9837F03F72
:1023B000B504F33FD744FC3E3172173EB172173F6C
:1023C0000515913EDE5BD9D2008002C200EDD2E756
:1023D000F8CD33EC3304700BBD800592D50204CBED
:1023E0000204C140FBD31460F2F5F07C3FEE7A00AA
:1023F000C39496C8948B40230AC89469C8941A4021
:102400001A0AC89468C8941F40110AC8945AC894FC
:1024100025400805F07A00CDC2E7CDC0F090A44574
:102420001208D2EA2323C0E024A7F582E43423F57E
:10243000831208C2120107ECC0E0EDC0E0EEC0E07C
:10244000EFC0E01208A690A4451208B6120103D00E
:10245000E0FBD0E0FAD0E0F9D0E0B2E7F8120301F7
:1024600090A4451208D2902397740312050190A4FA
:10247000451208B61201F8D0E0600F24B3F582E4EB
:102480003423F5831208C212010790A4451208D222
:10249000D0E0C3947FFDE49400FC12041C7B187A06
:1024A000727931783F1201F890A4451208B61201F2
:1024B0000730000B7BD97A5B79DE783E1201F82277
:1024C0007B017AA4793190A469E4F0A37402F07FCF
:1024D000007E511219D590A431E0FEA3E0FFEE700A
:1024E0004CEF24FE601914602214602B1460342415
:1024F00004703A90A4BB1208DE43FA0000802E90CC
:10250000A4BB1208DE447A0000802290A4BB12080B
:10251000DE44BB8000801690A4BB1208DE451C4040
:1025200000800A90A4BB1208DE457A000090A4B98E
:10253000E0FEA3E0FF1226C890A4BFE0FCA3E0FDEC
:10254000A3E0FEA3E0FF120455AB07AA067C007DC2
:102550003C1206D090A42FEEF0A3EFF07C007D3C5F
:10256000AF03AE021206D090A42DECF0A3EDF07BE9
:10257000017AA4792F90A469E4F0A37402F07F207B
:102580007E281217887B017AA4792F90A469E4F041
:10259000A37402F07F007E281217887B017AA47949
:1025A0002D90A469E4F0A37402F07F057E28121731
:1025B000887B017AA4792D90A469E4F0A37402F0D9
:1025C0007F257E28021788AEAD90A4A6E0FCA3E08C
:1025D000FDEC704BED146020047044EE6457600312
:1025E0000226C774A92DF58274A43CF583EEF09001
:1025F000A4A6E4F0A304F022EE701C90A4A6E0FCD4
:10260000A3E024A9F58274A43CF583EEF090A4A67F
:10261000E4F0A37402F022E490A4A6F0A3F02290C8
:10262000A4A6E0FCA3E024A9F58274A43CF583EE03
:10263000F090A4A7E004F0700690A4A6E004F0D304
:1026400090A4A7E0940F90A4A6E094004079E4F051
:10265000A3F090A4AAE0FF90A4A9E02FFF90A4AB60
:10266000E02FFFA3E02FFFA3E02FFFA3E02FFFA3A6
:10267000E02FFFA3E02FFFA3E02FFFA3E02FFFA396
:10268000E0FD2FFFA3E0FE2FFFA3E02FFFA3E02F2D
:10269000FFA3E02FFFA3E0B5072DEE702A90A4B2B0
:1026A000E07B00FAED7E007810C333CE33CED8F94C
:1026B000FFEE4AFEEF4BFF90A4B1E0FDEF4DFF901F
:1026C000A4B9EEF0A3EFF022AD07AC06E412041CAF
:1026D000E4FBFA7920784112030190A4331208D266
:1026E000E4FFFE7DC87C4390A433E0F8A3E0F9A3A7
:1026F000E0FAA3E0FB12039E5024E4FFFE7DA07CE1
:102700004090A433E0F8A3E0F9A3E0FAA3E0FB12C1
:10271000039E600A400890A4C37401F0800690A450
:10272000C37405F090A4C4E06403602790A4C3E0E0
:1027300014701E90A48EE0F8A3E0F9A3E0FAA3E0E1
:10274000FB90A4BBE0FCA3E0FDA3E0FEA3E0FF80C0
:1027500052805990A4C3E0147052E4FFFE7D7A7C4D
:102760004490A485E0F8A3E0F9A3E0FAA3E0FB120B
:1027700001F8A804A905AA06AB0790A4BBE0FCA336
:10278000E0FDA3E0FEA3E0FF12010390A48EE0F8B9
:10279000A3E0F9A3E0FAA3E0FB120301E4FBFA795A
:1027A00020784112030190A4BF0208D290A4C37400
:1027B00006F02290A43CEBF0A3EAF0A3E9F0E49049
:1027C000A447F0A3F0A3F0A3F0C390A446E09407BD
:1027D00090A445E0940050037F022290A43CE0FBCB
:1027E000A3E0FAA3E0F9120644645A60037F0322CF
:1027F00090000112065D64A560037F032290000231
:1028000012065D2403FFE433FE90A447F0A3EFF02B
:10281000C390A446E09F90A445E09E4072E490A43B
:1028200049F0A3F090A447E0FEA3E0FFA3E0FCA3DF
:10283000E0FDC39FEC9E503C90A43CE0FBA3E0FA7B
:10284000A3E0F9120644FF90A43FE0FBA3E0FAA343
:10285000E0F98D828C83EF12069C90A43DE475F024
:102860000112075B90A44AE004F070B890A449E01C
:1028700004F080B090A447E0F9A3E0FF90A442E008
:10288000FBA3E0FAA3E0C98FF01207877F01227F44
:102890000222E490A43CF0A3F090A22DE0FEA3E07D
:1028A000FDEDFF90A43CEEF0A3EFF090A22CE064CD
:1028B00082703D7B017AA2792F90A22BE024FDFE4D
:1028C000E434FF90A469F0A3CEF090A43CE0FEA312
:1028D000E0FF12178890A22B7403F090A22D744F82
:1028E000F0A3744BF07B017AA2792990A22B803E51
:1028F00090A22CE06483703D7B017AA2793090A293
:102900002FE075F002A4FF90A469E5F0F0A3EFF0CA
:1029100090A43CE0FEA3E0FF1219D590A22FE02581
:10292000E0FF90A22BE02FF07B017AA27929E0242E
:1029300003FD122F0222759401759502758E0075A4
:10294000930075C87075C96075F800787FE4F6D893
:10295000FD758120022992023174E493A3F8E49377
:10296000A34003F68001F208DFF48029E493A3F882
:102970005407240CC8C333C4540F4420C8834004F4
:10298000F456800146F6DFE4800B010204081020B3
:102990004080900FD1E47E019360BCA3FF543F3090
:1029A000E509541FFEE493A360010ECF54C025E057
:1029B00060A840B8E493A3FAE493A3F8E493A3C80F
:1029C000C582C8CAC583CAF0A3C8C582C8CAC583A0
:1029D000CADFE9DEE780BE33DA929E35B160113797
:1029E0007FE5FE392184893AAEC3FF3C1D955B3DEE
:1029F0006358473E75FDF03F3172183F800000C2BA
:102A0000D50204CB0204C1BD80FA50F30204C8ED24
:102A100033EC330460F17B3B7AAA79B8783F12013A
:102A2000F8ED33EC3392D5247B5011A2D570DB50F6
:102A30000BED448024045004A2D580CEEFFBEEFAC7
:102A4000EDF9ECF8120455EFF582F404FC120421C0
:102A5000120107C0829029D77409120510ED33CCFA
:102A600033D0F092D525F0A2D57001C313CC13FD5D
:102A70002290A4D4EFF078D57CA47D017BFF7A323C
:102A8000795A7E007F0412061E7B017AA479D590C4
:102A9000A469E4F0A37404F07F807E001219D5903D
:102AA000A4D5745AF090A4D4E0FD3395E0FCED6415
:102AB000014C700990A4D8E054F7F0800DED640249
:102AC0004C703F90A4D8E04408F07B017AA479D5FB
:102AD00090A469E4F0A37404F07F807E001217884C
:102AE0007F057E001230977B017AA479D590A46986
:102AF000E4F0A304F07F807E001219D590A4D5E005
:102B000070DE22782D7CA47D017BFF7A3279667E8F
:102B1000007F1012061EE490A43DF0A3F0A3F0A3E2
:102B2000F0A3F0A3F090A42AE0FDFEA3E0FBF58261
:102B3000E582FF90A441EEF0A3EFF090A229745A31
:102B4000F0A374A5F090A42CE0FC25E0240390A24F
:102B50002BF0A37483F0A3EDF0A3EBF07B017AA23A
:102B6000792FEC75F002A4FF90A469E5F0F0A3EFD3
:102B7000F090A441E0FEA3E0FF1219D590A441E03B
:102B8000FEA3E0FF020086C0E0C0F0C083C082C0A8
:102B9000D075D000C000C001C002C003C004C00591
:102BA000C006C007E4FFC2AFE5AB54016401703B4F
:102BB0001225C7AFAD908088E0FCA3E02400F58229
:102BC00074803CF583EFF0908089E004F07006900B
:102BD0008088E004F053ABFEC3908089E09480903D
:102BE0008088E094004004E4F0A3F0D2AFD007D096
:102BF00006D005D004D003D002D001D000D0D0D070
:102C000082D083D0F0D0E03212314D7F64122C4656
:102C10007F30122C46E4FF122C4612308512314DC3
:102C20007F64122C467F1C122C467F48122C46E4EF
:102C3000FF122C467F40122C467F10122C46123079
:102C40008512314D7F64AE07120066E4FDEDC3943A
:102C500008748094805019EE30E704D2B38002C229
:102C6000B3EE25E0FE123124C2B21231290D80DD0F
:102C7000023053C0E0C083C082C0D075D000C00411
:102C8000C007C2AF309837AF99908082E0FCA3E0D4
:102C9000248AF58274803CF583EFF0908083E00411
:102CA000F07006908082E004F0C3908083E094A0EE
:102CB000908082E0941F4004E4F0A3F0C298309921
:102CC00007C299908080E4F0D2AFD007D004D0D072
:102CD000D082D083D0E03290A4CEEEF0A3EFF07893
:102CE000D07CA47D017BFF7A3279627E007F041262
:102CF000061E90A4CEE0FCA3E0FDEC90A4D2F0A3CD
:102D0000EDF07B017AA479D090A469E4F0A3740477
:102D1000F07F847E001217887F057E001230977B3B
:102D2000017AA479D090A469E4F0A304F07F847EB2
:102D3000001219D590A4D0E070DE22C0E0C0F0C02F
:102D400083C082C0D075D000C000C004C005C006DA
:102D5000C007C2AF758CBC758ACD90A4CDE004F0DD
:102D6000700690A4CCE004F090A46FE0FCA3E0FD1A
:102D7000A3E0FEA3E02401FFE43EFEE43DFDE43CCD
:102D8000FC90A46F1208D2D2AFD007D006D005D0E5
:102D900004D000D0D0D082D083D0F0D0E032C0E0D8
:102DA000C083C082C0D075D000C004C007C2AFE5E8
:102DB0009B30E028AF9C908084E0FCA3E0242AF5BF
:102DC0008274A03CF583EFF0908085E004F07006FB
:102DD000908084E004F0539BFE539BFEE59B30E122
:102DE0000B539BFD539BFD908081E4F043C901D2BE
:102DF000AFD007D004D0D0D082D083D0E03290A41E
:102E000074E0FF90A489E06F6008EFF090A4C474B0
:102E100001F090A4C4E0B407005040902E22F8289E
:102E20002873022E37022E3D022E46022E49022E14
:102E30004C022E4F022E5290A4C47401F090A4C4F0
:102E40007402F01200620224C002320C0200F70287
:102E5000006190A4C47401F012006A22122C417F18
:102E60001D122C4612308512314D7F65122C4612F0
:102E7000002EAC0712001612002E1231EF12308510
:102E8000EC54026402702E122C087F10122C46E4BF
:102E9000FF122C46E4FF122C46E4FF122C467F0161
:102EA000122C467F01122C467F01122C467F1712EE
:102EB0002C3B12307622782D7CA47D017BFF7A3268
:102EC000795E7E007F0412061E7B017AA479299028
:102ED000A469E4F0A37404F07F007E0F1219D5906A
:102EE000A429E0645A70187B017AA4792D90A46912
:102EF000F0A37404F07F007E0F1217887F01227FF9
:102F0000002290A43EEBF0A3EAF0A3E9F090A43EE7
:102F1000E0FBA3E0FAA3E04A4B6027ED6024AF0595
:102F20001DEF601E90A43EE0FBA3E0FAA3E0F912BF
:102F30000644FF12319690A43FE475F00112075B3E
:102F400080DC2290A4D9EBF0A3EAF0A3E9F090A4EE
:102F5000D9E0FBA3E0FAA3E04A4B6027ED6024AF81
:102F6000051DEF601E90A4D9E0FBA3E0FAA3E0F9F1
:102F7000120644FF1231A490A4DAE475F00112079E
:102F80005B80DC2290A4DCEBF0A3EAF0A3E9F090F4
:102F9000A4DCE0FBA3E0FAA3E04A4B6027ED602449
:102FA000AF051DEF601E90A4DCE0FBA3E0FAA3E0F8
:102FB000F9120644FF1231CC90A4DDE475F0011241
:102FC000075B80DC227B017AA4797390A469E4F02A
:102FD000A37402F07F147E001219D590A474E0FF50
:102FE0001460161460181460152403701490A489DA
:102FF000EFF090A4C47401F022122DFE8000120C98
:10300000E122E490A444F0A3F0A3F0A3F0AE04AF57
:1030100005C003C00290A441E0FBA3E0FAA3E0F8DE
:10302000AC02AD03D002D00312061E7F012243B7CB
:103030001043C940E4908080F0908082F0A3F07546
:10304000D88075985053877F75BA0375AAE4D29CCF
:10305000D2AC22120026123122E4FEEEC394327466
:10306000809480500930B3061231290E80EDC2B22F
:103070001231290200667F1E122C46E4FF122C46F4
:103080007F10122C46120066C2B3D2B2123129D27E
:10309000B3123129020026E4FDFCC3ED9FEC9E50E3
:1030A00015E4FBFA0BBB00010ABA1CF8BBE8F50DEE
:1030B000BD00010C80E42243B7C043C920E49080E6
:1030C00081F0908084F0A3F0759BD075BB03759D53
:1030D000C8759A012290A4DFEFF07B017AA479DF12
:1030E00090A469E4F0A304F07F827E00021788C3F5
:1030F00090A4CDE094F490A4CCE09401400A122274
:1031000064E490A4CCF0A3F02275F90175B7C375FF
:10311000BCA375BD2A75BE0CE4F580F590F5A0F54D
:10312000B022D2B3123129D2B2E4FFEFC39450746B
:1031300080948050030F80F32275C870E4F5CDF5BC
:10314000CC75CBBC75CACD43A820D2C8221200666C
:10315000D2B3D2B2123129C2B3123129C2B2023172
:1031600029E4908086F0A3F0759680759780F5D954
:1031700075E7E022123185122E5C1231D8122FC56C
:103180001230EF80F5C2AF1231C01231091231FA9C
:1031900012005BD2AF22908080E0640160F874017D
:1031A000F08F9922908081E0640160F87401F08FC3
:1031B0009C22438901758CBC758ACDD2A9D28C2200
:1031C000E4F5A8F5B8F59AF5A9F5B9228FACE5A70D
:1031D000540160FA53A7FE22122EB6EF6003122BA1
:1031E0000302093B7BFF7A32790F7D15022F021211
:1031F0000066123122C2B202312912302E12316120
:1032000002006EE490A4C4F022C2C632021C1D5516
:1032100061727432496E697420446F6E6521212198
:10322000313233005561727433496E697420446FD2
:103230006E65212121005561727434496E697420D4
:10324000446F6E65212121005561727435496E69A4
:103250007420446F6E6521212100000000000000F1
:1032600000005A0100000000000000000000000003
:10327000000000000000000000000000000000004E
:0F3280000000000000000000000000000000003F
:00000001FF
