:10000000023937020006C2AFD2AF32023234C2AF79
:10001000D2AF3202000E124687C2B3124594C2B26A
:10002000024599023EA4AE070245F802468B43B74B
:100030001043C940E4908080F0908082F0A3F07576
:10004000D88075985053877F75BA0375AAE4D29CFF
:10005000D2AC2202466D53BEF72222023FCCE4F519
:10006000A8F5B8F59AF5A9F5B92222023B88E490E3
:100070008088F0A3F075A78075AB80F5AE75AFE012
:10008000D2BD22023F6C90A482EBF0A3EAF0A3E978
:10009000F0C390A4F8E0940A90A4F7E09400401410
:1000A00012260490A482E0FBA3E0FAA3E0F9EE8F0D
:1000B000F012099C90A482E0FBA3E0FAA3E0F912FD
:1000C0000939FFAEF04E602BEFF47002EEF46023BE
:1000D000EF64FE7002EEF4601A123C8990A482E094
:1000E000FBA3E0FAA3E0F9900002EE8FF01209BB47
:1000F0007F01227F00222222FFFF4457494E5435C0
:100100000204C1E86480F8E933E83360110460F068
:10011000ED33EC337009E8FCE9FDEAFEEBFF220465
:1001200060DED3EB9FEA9EE99DE8C2E78CF0C2F760
:1001300095F0400CE8CCF8E9CDF9EACEFAEBCFFB2C
:1001400012048C85D0F05804700320D5B3E80470F5
:10015000075002B2D50204CB92D5EC0460F7E4CC90
:10016000C0E0C398F8603B94186008400DD0E0FBF5
:100170000204A3E4FBFAC9FC8028E830E406E4C9E1
:10018000FBE4CAFCE830E305E4C9CACBFCE8540749
:100190006010F8C3E913F9EA13FAEB13FBEC13FC54
:1001A000D8F130F52FC3E49CFCEF9BFFEE9AFEEDF7
:1001B00099FDD0E0FBEF4E4D4C701222DB030204A0
:1001C000C8EC2CFCEF33FFEE33FEED33FDED30E7F2
:1001D000EB0204A3EF2BFFEE3AFEED39FDD0E0FB7E
:1001E00050130BBB00030204CBED13FDEE13FEEF27
:1001F00013FFEC13FC0204A3EC4D6011E8497017E7
:10020000ED33EC3304600DE4FCFFFEFD22E933E83E
:10021000330470F80204C112048C58046009E4CC61
:10022000248150062850090204CB2840030204C848
:10023000C0E0EB4A7044B98006D0E0FB0204B7EF9F
:100240004E701CBD8008EBFFEAFEE9FD80EBE98DF6
:10025000F0A4FEE5F00202E1E9CDF9EAFEEBFFEFE2
:1002600089F0A4FCE5F0CE89F0A42EFFE435F0CDB2
:1002700089F0A42DFEE435F08067EF4E7005BD8057
:10028000D780C3EF8BF0A4ACF0EE8BF0A42CFCE491
:1002900035F0F8EF8AF0A42CE5F038FCE433CB8D90
:1002A000F0A42CFCE5F03BF8EE8AF0A42CFCE5F081
:1002B00038F8E433CF89F0A42CFCE5F038CF3400D3
:1002C000CE89F0A42FFFE5F03EFEE433C98DF0A403
:1002D0002EFEE5F039CD8AF0A42FFFE5F03EFEE4D6
:1002E0003DFD33D0E0FB50070BBB000F0204CBEC0D
:1002F0002CFCEF33FFEE33FEED33FD0204A30204CA
:10030000CBEC5D046005E8590470030204C11204DB
:100310008C580460F6EC4860F2EC7004FDFEFF229D
:10032000C860DB2481C85009C398600250060204EB
:10033000C89850CAF582E9294B4A7005AB8202047D
:10034000B775F0007C1A7880C3EF9BEE9AED994068
:100350000DC3EF9BFFEE9AFEED99FDE842F0DC2322
:10036000ACF0D0E0FFD0E0FED0E0FDAB8220E710A3
:100370001BEB60BAEC2CFCEF33FFEE33FEED33FDEC
:100380000204A3E803F830E705C0F075F000EF2F92
:10039000FFEE33FEED33FD40B830E7C280AA74F8BB
:1003A000CC6480CCC86480C8F58204604FC3EB9FE6
:1003B000F5F0EA9E42F0E99D42F0E89C45F0603C91
:1003C000501DE5825FFFE582D313CB5BCBF42B5549
:1003D00082FB50280ABA002409B9002008801DE5D4
:1003E000825BFBE582D313CF5FCFF4C3132F55821B
:1003F000FF50090EBE00050DBD00010CC3EB9FF5BB
:10040000F0EA9E42F0E99D42F0E89C45F06007CC9E
:100410004820E701B3EC2275F020800E75F01080C3
:100420000575F0087D007E007F003392D530D5033E
:10043000120AB6EC334010EF33FFEE33FEED33FD1E
:10044000EC33FCD5F0ED22E5F0247EA2D513CC925E
:10045000E7CDCEFF22EDD2E7CD33EC3392D5248128
:100460004006E4FFFEFDFC22FCE4CFCECDCC24E030
:10047000501174FF80EDC3CC13CCCD13CDCE13CE71
:10048000CF13CF0470F030D5DE020AB6E9D2E7C947
:1004900033E833F892D5EDD2E7CD33EC33FC50029C
:1004A000B2D522EC30E7100FBF000C0EBE00080DD5
:1004B000BD00040BEB6014A2D5EB13FCED92E7FD3D
:1004C0002274FFFCFDFEFF22E480F8A2D574FF1326
:1004D000FC7D80E480EFED33EC33601004700FEDB1
:1004E000547F7005740292E0227404220422E422F4
:1004F000ED33EC33600A047003BD8004ECB2E7FC1A
:1005000022F920E73624F950037907E4F42402FBAA
:10051000E582158270021583DBF6E024FB501BE9AF
:100520006014E4F0E582158270021583E004F0B4F3
:100530000A08E4F0D9EE7401F00A22C2D522ED33A4
:10054000EC3392D5FA602AB4FF33EDC2E77BFF604B
:10055000067A057963E4227A05796C20D5047A0558
:100560007967224E614E002B494E46002D494E467A
:1005700000E47A08F0A3DAFC7B00740722C083C091
:1005800082ECC0E0EDC0E0EEC0E0EFC0E0EA75F064
:1005900010A4CAABF075F04DA42BFBE435F0FCEAD7
:1005A0002410FAEB34C5FBEC34D9FCEDC2E7FF753F
:1005B000F056A4F42411C5F0F434C58FF0A42AE554
:1005C000F03BE43CF020E7141206C0D0E0FFD0E09E
:1005D000FED0E0FDD0E0FC1203018014F40412060A
:1005E000C0D0E0FFD0E0FED0E0FDD0E0FC1201F88A
:1005F000D082D083E0FAEDD2E7CD33EC332482FB16
:10060000E4C3CF33CFCE33CECD33CD33DBF37B0753
:1006100075F00A846004F0A31B0AE5F0F0A38FF0E4
:10062000740AA4FFACF08EF0740AA42CFEACF05057
:10063000010C8DF0740AA42CFDE435F0F0A3DBDE90
:10064000740722C0E0EFFBEEFAEDF9ECF81201F8C6
:10065000D0E0F5F0EFFBEEFAEDF9ECF8120AE8A3C2
:10066000A3A3A3E8C0E0E9C0E0EAC0E0EBC0E0C0BB
:10067000F01201F8120B04A3A3A3A3120107D0F0F8
:10068000D0E0FBD0E0FAD0E0F9D0E0F8D5F0D42209
:100690003F8000004120000042C80000447A000072
:1006A000461C400047C35000497424004B189680F4
:1006B0004CBEBC205A0E1BCA6753C21C749DC5AEEB
:1006C000FB60065407601C23231206EEEB543860CF
:1006D000091206DA1206E91201F8ECF8EDF9EEFA61
:1006E000EFCB22EB1206E980F1543803241C90066C
:1006F00090FE93FC0EEE93FD0EEE930ECE93FF2232
:10070000E709F608DFFA8046E709F208DFFA803EDB
:1007100088828C83E709F0A3DFFA8032E309F608C8
:10072000DFFA8078E309F208DFFA807088828C8330
:10073000E309F0A3DFFA806489828A83E0A3F608E4
:10074000DFFA805889828A83E0A3F208DFFA804CBE
:1007500080D280FA80C680D4806980F28033801095
:1007600080A680EA809A80A880DA80E280CA8033FE
:1007700089828A83ECFAE493A3C8C582C8CCC58376
:10078000CCF0A3C8C582C8CCC583CCDFE9DEE78046
:100790000D89828A83E493A3F608DFF9ECFAA9F0C5
:1007A000EDFB2289828A83ECFAE0A3C8C582C8CC1B
:1007B000C583CCF0A3C8C582C8CCC583CCDFEADE34
:1007C000E880DB89828A83E493A3F208DFF980CC96
:1007D00088F0EF60010E4E60C388F0ED2402B4048F
:1007E0000050B9F582EB2402B4040050AF23234536
:1007F000822390075073BB010689828A83E02250CE
:1008000002E722BBFE02E32289828A83E49322BBB1
:10081000010CE58229F582E5833AF583E022500652
:10082000E92582F8E622BBFE06E92582F8E222E508
:100830008229F582E5833AF583E49322BB01068998
:10084000828A83F0225002F722BBFE01F322F8BB1A
:10085000010DE58229F582E5833AF583E8F022501F
:1008600006E92582C8F622BBFE05E92582C8F222E8
:10087000EF8DF0A4A8F0CF8CF0A428CE8DF0A42E9C
:10088000FE22BC000BBE0029EF8DF084FFADF022EC
:10089000E4CCF875F008EF2FFFEE33FEEC33FCEEFE
:1008A0009DEC984005FCEE9DFE0FD5F0E9E4CEFDF1
:1008B00022EDF8F5F0EE8420D21CFEADF075F008C4
:1008C000EF2FFFED33FD4007985006D5F0F222C31D
:1008D00098FD0FD5F0EA22C2D5EC30E709B2D5E495
:1008E000C39DFDE49CFCEE30E715B2D5E4C39FFF49
:1008F000E49EFE120882C3E49DFDE49CFC8003128A
:10090000088230D507C3E49FFFE49EFE22C5F0F8BD
:10091000A3E028F0C5F0F8E582158270021583E0A7
:1009200038F022A3F8E0C5F025F0F0E582158270DA
:10093000021583E0C838F0E822BB010A89828A8365
:10094000E0F5F0A3E022500687F009E71922BBFE8C
:1009500007E3F5F009E3192289828A83E493F5F02D
:1009600074019322BB0110E58229F582E5833AF5F3
:1009700083E0F5F0A3E0225009E92582F886F0082B
:10098000E622BBFE0AE92582F8E2F5F008E222E55C
:10099000832AF583E993F5F0A3E99322BB010A8941
:1009A000828A83F0E5F0A3F0225006F709A7F01938
:1009B00022BBFE06F3E5F009F31922F8BB0111E5AD
:1009C0008229F582E5833AF583E8F0E5F0A3F02289
:1009D0005009E92582C8F608A6F022BBFE09E925E0
:1009E00082C8F2E5F008F22275F008758200EF2F58
:1009F000FFEE33FECD33CDCC33CCC58233C5829BE5
:100A0000ED9AEC99E58298400CF582EE9BFEED9A0A
:100A1000FDEC99FC0FD5F0D6E4CEFBE4CDFAE4CCA6
:100A2000F9A88222B800C1B90059BA002DEC8BF0A8
:100A300084CFCECDFCE5F0CBF97818EF2FFFEE3365
:100A4000FEED33FDEC33FCEB33FB10D70399400490
:100A5000EB99FB0FD8E5E4F9FA227818EF2FFFEEB7
:100A600033FEED33FDEC33FCC933C910D7059BE9E8
:100A70009A4007EC9BFCE99AF90FD8E0E4C9FAE444
:100A8000CCFB2275F010EF2FFFEE33FEED33FDCCE3
:100A900033CCC833C810D7079BEC9AE899400AEDCD
:100AA0009BFDEC9AFCE899F80FD5F0DAE4CDFBE475
:100AB000CCFAE4C8F922C3E49FFFE49EFEE49DFD66
:100AC000E49CFC22EB9FF5F0EA9E42F0E99D42F0A7
:100AD000E89C45F022E8600FEFC333FFEE33FEEDF4
:100AE00033FDEC33FCD8F122E493FC740193FD74E4
:100AF0000293FE740393FF22E0F8A3E0F9A3E0FA67
:100B0000A3E0FB22E493F8740193F9740293FA745E
:100B10000393FB22ECF0A3EDF0A3EEF0A3EFF022A1
:100B2000A8828583F0D083D082120B37120B371244
:100B30000B37120B37E473E493A3C583C5F0C58369
:100B4000C8C582C8F0A3C583C5F0C583C8C582C81F
:100B500022F8E0FBA3A3E0F925F0F0E5821582700E
:100B6000021583E0FA38F022EBF0A3EAF0A3E9F0F3
:100B700022D083D082F8E4937012740193700DA395
:100B8000A393F8740193F5828883E47374029368E5
:100B900060EFA3A3A380DF8A838982E473EF4E60B2
:100BA00012EF60010EEDBB010B89828A83F0A3DF97
:100BB000FCDEFA2289F05007F709DFFCA9F022BB1E
:100BC000FEFCF309DFFCA9F022E5082485F582E4A8
:100BD00034A4F583E005082290A48230070390A492
:100BE00085E475F001120B510207F62000E97F2E13
:100BF000D2008018EF540F2490D43440D4FF300436
:100C00000BEF24BFB41A0050032461FFE509600212
:100C10001509050CE50C7002050B30070E90A48237
:100C2000E475F001120B51EF02083C020026740338
:100C3000D2078003E4C207F50890A482120B68E48F
:100C4000F509F50BF50CE50960077F20120C0C8007
:100C5000F5750AFFC201C200C202C203C205C20684
:100C6000C208120BD8FF700D3007057F00120C1D53
:100C7000AF0CAE0B22B4255FC2D5C204120BD8FF55
:100C800024D0B40A00501A75F00A780930D5050846
:100C9000B6FF0106C6A426F620D5047002D2038052
:100CA000D924CFB41A00EF5004C2E5D204020F0FCA
:100CB000D20180C6D20080C0D20280BCD2D580BA18
:100CC000D20580B47F20120C0C2002077401B509F4
:100CD0000040F1120BC9FF120C0C020C46D208D2D4
:100CE000068095120BC9FB120BC9FA120BC9F94AFF
:100CF0004B7006790D7A107BFF20022EE509602AE1
:100D00007E008E8275830012080F60060EEE650A63
:100D100070F0C2D5EBC0E0EAC0E0E9C0E0EE120F2F
:100D200070D0E0F9D0E0FAD0E0FB1207F6FF60AA3D
:100D3000EBC0E0EAC0E0E9C0E0120C0CD0E0240116
:100D4000F9D0E03400FAD0E0FBE50A0460DCD50A13
:100D5000D98087D20280A2120F5260F7E50A700193
:100D600004120501A90A600DE50A600914F50A12CA
:100D70000FFAEF60F3EA30E702F404C3995079EA1E
:100D8000F4250A0430E701E404F50A800D120F523D
:100D900060C1EA050A250A120501EA90A4B1F03003
:100DA000E701E4250A04D50A0420050114120F7096
:100DB000E4C0E0120FFA90A4B1E0601320E707143A
:100DC000F0120BF4802204F0D0E014C0E07F001297
:100DD0000BF4E50A6007120BEB150A800B300503D4
:100DE000120BEBD0E0020C46D0E00480C4120F528C
:100DF000609EE50A0412050190A4B1EAF0E50A201C
:100E000005026001042404120F7074FF04C0E01294
:100E10000FFA120BF4E50A2005026003120BEBD067
:100E2000E0B50AE87F45120BFE90A4B1E07F2B30BD
:100E3000E7047F2DF404C0E0120C0CD0E075F00A3A
:100E400084C0F0120BF5D0E0120BF5020C467910BD
:100E500080027908C206C2088008D2D5790A8004C7
:100E6000790AC2D5E50A047002F50AE4FAFDFEFF2C
:100E7000120BC9FC7B08200113120BC9FD7B10303B
:100E8000000A120BC9FE120BC9FF7B20EC3382D57E
:100E900092D55013C3E43000069FFFE49EFEE42089
:100EA00001039DFDE49CFCE4CBF8C201EC700CCF87
:100EB000CECDCCE824F8F870F38017C3EF33FFEE03
:100EC00033FEED33FDEC33FCEB33FB994002FB0FBB
:100ED000D8E9EB300105F8D0E0C448B201C0E00A1F
:100EE000EC4D4E4F78207B0070C2EAB50A0040BC42
:100EF000C0E0120F72D0F0D0E0200104C4C0E0C402
:100F0000B201C0F0120BF5D0F0D5F0EB020C461296
:100F10000B710CE3530E4E580CB44C0CB0420E52F5
:100F20004F0E5A440E5A490CC9430E60550D8D465A
:100F30000DED450D5747102D500CB82D0CBC2E0C47
:100F4000DF2B0CC0230CDD2010162A0C7848000083
:100F50000CD7E50AB4FF03750A06120BC9FC120B85
:100F6000C9FD120BC9FE120BC9FF90A4AA02053ECF
:100F7000790AA2D5200314300509B910020404B976
:100F8000080104A2D5200602500104200268920242
:100F9000B509005034C0E07F203003197F30A20231
:100FA00072067205500F120FC9C202C206C205C2F4
:100FB000087F30800F300503E9C0E0120C0C3005CB
:100FC00003D0E0F9D0E0B509CC3005177F30B91077
:100FD0000C120C0C7F583004077F788003B908038B
:100FE000120C0C3002057F2D020C0C7F202008F81B
:100FF0007F2B2006F322920280CF7F00B40700509F
:101000000B24AAF582E434A4F583E0FF22286E7550
:101010006C6C2900D201120BC93001F8C2017809A9
:1010200030D50108F6020C782D50434958120BC9EF
:101030002403B405004001E490102893120BFD74C2
:101040003A120BFDD203750904020E4EE490A47E01
:10105000F0A3F0A3F0A3F0A3F0A3F0A3F0A3F0A3F8
:1010600004F0A37480F0A3748AF0E4A3F0A3F078F2
:101070008B7CA47D017BFF7A4679F5FE7F02120707
:10108000D0D3908083E09402908082E094007F002F
:1010900040027F0190A484EFF090A484E0700302EA
:1010A00013F190A4867401F0A37480F0A3748AF005
:1010B00090A486E0FBA3E0FAA3E0F91207F6645AD5
:1010C000603A908082E0FEA3E0248AF974803EFAC0
:1010D0007B01C003C002C00190A486A3E0FAA3E094
:1010E000F9C3D082D083D0E0E99582EA9583500C91
:1010F00090A487E475F00112090D80B4908082E01D
:10110000FEA3E0248AF974803EFA7B01C003C0028A
:10111000C00190A486E0FBA3E0FAA3E0F9D082D05E
:1011200083D0E06B7008E965827003EA658370071D
:10113000908082F0A3F02290A486A3E0FAA3E0C3FB
:10114000948AFFEA9480FEC3908083E09FFF9080A2
:1011500082E09E90A482F0A3EFF090A489E024FEA8
:101160006055240260030212337E007FFF7D007B06
:10117000017AA1792A120B9DE490A48AF090A485AB
:10118000F090A47EF0A3F0A3F0A3F090A480E0FE82
:10119000A3E0FFC39403EE9400501C748B2FF582E0
:1011A00074A43EF583E4F090A481E004F070DC9038
:1011B000A480E004F080D490A4907401F0A374A102
:1011C000F0A3742AF0A37401F0A374A4F0A3747EB6
:1011D000F090A482E0FFA3E090A496CFF0A3EFF0FC
:1011E00090A486E0FBA3E0FAA3E0F912331390A4E5
:1011F0008AEFF0A3F06401703A90A47EE0FCA3E0D3
:10120000FD90A4927401F0A374A2F0A37429F07B62
:10121000017AA1792A12441CEF70030212D112380C
:10122000937E017F007D007B017AA27929120B9DBC
:101230000212D190A48BE0640360030212D190A447
:1012400087804490A486E0FBA3E0FAA3E0F91207AC
:10125000F6645A603A908082E0FEA3E0248AF97432
:10126000803EFA7B01C003C002C00190A486A3E0C7
:10127000FAA3E0F9C3D082D083D0E0E99582EA9561
:1012800083500C90A487E475F00112090D80B4908E
:101290008082E0FEA3E0248AF974803EFA7B01C0DC
:1012A00003C002C00190A486E0FBA3E0FAA3E0F92A
:1012B000D082D083D0E06B7008E965827003EA6564
:1012C000837008908082F0A3F0800690A48574015A
:1012D000F090A48AE06401600990A485E0700302A4
:1012E00013E990A486A3E0FAA3E0C3948AFFEA94EA
:1012F00080FEC3908083E09FFF908082E09EFE90FE
:10130000A47EE0FCA3E0FDC3EF9DFFEE9CFE90A455
:1013100082F0A3EFF0D39400EE94004068E490A430
:1013200080F0A3F090A482E0FEA3E0FF90A480E010
:10133000FCA3E0FDC39FEC9E504390A486E0FBA37A
:10134000E0FAA3E0F990A47EE0FEA3E0FFE92FF924
:10135000EA3EFAE92DF9EA3CFA1207F6FF748A2D03
:10136000F58274803CF583EFF0E412083C90A48190
:10137000E004F070AF90A480E004F080A790A48413
:101380007401F08052E490A480F0A3F090A486A3AE
:10139000E0FAA3E0C3948AFFEA9480FE90A47FE081
:1013A0002FFF90A47EE03EFE90A480E0FCA3E0FD31
:1013B000C39FEC9E501C748A2DF58274803CF5838B
:1013C000E4F090A481E004F070C290A480E004F006
:1013D00080BAE490A484F090A482E0FFA3E090801F
:1013E00082CFF0A3EFF0021099E490A484F00210F1
:1013F0009922418080004280820000418081004229
:10140000808400004280860000428088000044A55D
:101410004F0000000044A4290000000041A428005F
:101420006100A22900000000000000000000000090
:1014300000000000000000000000000000000000AC
:10144000000000000000000000000000000000009C
:10145000000000000000000000000000000000008C
:10146000000000000000000000000000000000007C
:10147000000000000000000000000000000000006C
:10148000000000000000000000000000000000005C
:10149000000000000000000000000000000000004C
:1014A000000000000000000000000000000000003C
:1014B000000000000000000000000000000000002C
:1014C000000000000000000000000000000000001C
:1014D000000000000000000000000000000000000C
:1014E00000000000000000000000000000000000FC
:1014F00000000000000000000000000000000000EC
:1015000000000000000000000000000000000000DB
:1015100000000000000000000000000000000000CB
:101520000000000060FFA329000000000000000090
:1015300000000000000000000000000000000000AB
:10154000000000000000000000000000000000009B
:10155000000000000000000000000000000000008B
:10156000000000000000000000000000000000007B
:10157000000000000000000000000000000000006B
:10158000000000000000000000000000000000005B
:10159000000000000000000000000000000000004B
:1015A000000000000000000000000000000000003B
:1015B000000000000000000000000000000000002B
:1015C000000000000000000000000000000000001B
:1015D000000000000000000000000000000000000B
:1015E00000000000000000000000000000000000FB
:1015F00000000000000000000000000000000000EB
:1016000000000000000000000000000000000000DA
:1016100000000000000000000000000000000000CA
:101620000000000000000042A53C000041A53B0175
:1016300042A5355AA542A4F9000041A4EA0142A4FA
:10164000F7000041A4F50041A4C20041A4C3004238
:10165000A4C4000042A4C6B00542A4C8550541A4D4
:10166000F60041A5220144A51E0000000042A4414D
:10167000000044A4760000000044A4433EE95183E6
:1016800044A45C40490E5644A4313D32D5D044A414
:10169000473ECD37BE44A4510000000044A4720070
:1016A00000000044A4660000000044A47A0000008A
:1016B0000044A4620000000042A470000044A4554D
:1016C0000000000044A4350000000044A44D0000C8
:1016D000000044A42D0000000042A46C000042A4BD
:1016E0006E000042A44B000042A460000142A45AD4
:1016F00000B041A46A0B41A46B0544A5270000007B
:101700000048A52B000000010002000344A52300AF
:101710000000000090A50CE0FEA3E0FF90A442E0D2
:10172000FD121F137B017AA4796290A4BCE4F0A39C
:101730007404F07F007E2612216F90A50CE0FCA3BC
:10174000E0FDE412041CE4FBFA797A784412030108
:1017500090A476120B1490A442E064016003021876
:101760004790A50CE0FCA3E0FDE412041CE4FBFAA6
:10177000797A784412030190A447E0F8A3E0F9A332
:10178000E0FAA3E0FB12010790A451120B14E4FF4E
:10179000FEFD7C4090A443E0F8A3E0F9A3E0FAA3A7
:1017A000E0FB1201F890A451E0F8A3E0F9A3E0FAFD
:1017B000A3E0FB1201F890A466120B1490A443E07E
:1017C000FCA3E0FDA3E0FEA3E0FF90A451E0F8A39A
:1017D000E0F9A3E0FAA3E0FB1201F8C004C005C0E1
:1017E00006C00790A490120B2040000000D007D044
:1017F00006D005D0041229C190A45CE0F8A3E0F95A
:10180000A3E0FAA3E0FB1201F890A472120B14906B
:10181000A451E0FCA3E0FDA3E0FEA3E0FF90A472CE
:10182000E0F8A3E0F9A3E0FAA3E0FB1201F8E4FB7F
:10183000FA7940784012030190A47A120B147B01CC
:101840007AA4797A0219C890A442E0640260030283
:10185000190990A50CE0FCA3E0FDE412041CE4FBD4
:10186000FA797A784412030190A447E0F8A3E0F9EA
:10187000A3E0FAA3E0FB12010790A451120B14E4B9
:10188000FFFEFD7C4090A431E0F8A3E0F9A3E0FA6C
:10189000A3E0FB1201F890A451E0F8A3E0F9A3E063
:1018A000FAA3E0FB1201F890A466120B1490A43185
:1018B000E0FCA3E0FDA3E0FEA3E0FF90A451E0F86C
:1018C000A3E0F9A3E0FAA3E0FB1201F8C004C0050D
:1018D000C006C00790A490120B2040000000D00763
:1018E000D006D005D0041229C190A45CE0F8A3E092
:1018F000F9A3E0FAA3E0FB1201F890A472120B1412
:101900007B017AA479720219C890A442E064036052
:10191000030219D890A50CE0FCA3E0FDE412041C1E
:10192000E4FBFA797A784412030190A447E0F8A323
:10193000E0F9A3E0FAA3E0FB12010790A451120B17
:1019400014E4FFFEFD7C4090A443E0F8A3E0F9A37B
:10195000E0FAA3E0FB1201F890A451E0F8A3E0F94B
:10196000A3E0FAA3E0FB1201F890A466120B149016
:10197000A443E0FCA3E0FDA3E0FEA3E0FF90A4519C
:10198000E0F8A3E0F9A3E0FAA3E0FB1201F8C00439
:10199000C005C006C00790A490120B2040000000B4
:1019A000D007D006D005D0041229C190A45CE0F87D
:1019B000A3E0F9A3E0FAA3E0FB1201F890A47212ED
:1019C0000B147B017AA4797290A4BCE4F0A3740494
:1019D000F07F507E2812216F7B017AA4797690A443
:1019E000BCE4F0A37404F07F007E2512216F7B011C
:1019F0007AA4796690A4BCE4F0A37404F07F407EDE
:101A00002802216F789E7CA47D017BFF7A4679FDB8
:101A10007E007F061207D07B017AA4799690A4BC41
:101A2000E4F0A37404F07F007E131223BC7B017AE0
:101A3000A4799A90A4BCE4F0A37404F07F057E130B
:101A40001223BC90A497E0FFE4FCFDFE7810120A7C
:101A5000D5C004C005C006C00790A496E0FFE4FC12
:101A6000FDFE7818120AD5D003D002D001D000EFC5
:101A70004BFFEE4AFEED49FDEC48FCC004C005C03A
:101A800006C00790A498E0FFE4FCFDFE7808120A67
:101A9000D5D003D002D001D000EF4BFBEE4AFAEDD7
:101AA00049F9EC48F8A3E0FFEB4FFFEAFEE9FDE857
:101AB000FC90A4A4120B1490A49BE0FFE4FCFDFE98
:101AC0007810120AD5C004C005C006C00790A49AB9
:101AD000E0FFE4FCFDFE7818120AD5D003D002D056
:101AE00001D000EF4BFFEE4AFEED49FDEC48FCC093
:101AF00004C005C006C00790A49CE0FFE4FCFDFE06
:101B00007808120AD5D003D002D001D000EF4BFBE9
:101B1000EE4AFAED49F9EC48F8A3E0FFEB4FFFEA93
:101B2000FEE9FDE8FC90A537120B14E47B64FAF99A
:101B3000F890A537E0FCA3E0FDA3E0FEA3E0FF12D0
:101B40000A2490A4A3EBF0E47B64FAF9F890A5379B
:101B5000E0FCA3E0FDA3E0FEA3E0FF120A24E47B87
:101B600064FAF9F8120A2490A4A2EBF0E47B107A4C
:101B700027F9F890A537E0FCA3E0FDA3E0FEA3E081
:101B8000FF120A24E47B64FAF9F8120A2490A4A153
:101B9000EBF0E47B64FAF9F890A4A4E0FCA3E0FD88
:101BA000A3E0FEA3E0FF120A2490A4A0EBF0E47BE4
:101BB00064FAF9F890A4A4E0FCA3E0FDA3E0FEA37E
:101BC000E0FF120A24E47B64FAF9F8120A2490A4D4
:101BD0009FEBF0E47B107A27F9F890A4A4E0FCA333
:101BE000E0FDA3E0FEA3E0FF120A24E47B64FAF91F
:101BF000F8120A2490A49EEBF0A3E0FFD3940074A3
:101C0000809480406ED3EF940C748094805064A3D1
:101C1000E0FF941F748094805054EF94007480947B
:101C200080404BA3E0D39417748094805039C374E0
:101C30008094804032A3E0D3943B74809480502001
:101C4000C3748094804019A3E0D3943B7480948043
:101C50005007C3748094805020E490A4A3F08019AE
:101C6000E490A4A2F08012E490A4A1F0800B90A4D0
:101C7000A0800390A49F7401F07B017AA4799E90C8
:101C8000A4BCE4F0A37406F07F9D7E0012216F7B5C
:101C9000017AA5793590A4BCE4F0A37402F07F9C8E
:101CA0007E0012216F02281190A47EEBF0A3EAF0CF
:101CB000A3E9F090A435E0FCA3E0FDA3E0FEA3E0DF
:101CC000FFEC4D4E4F7003021F1290A435120B20F3
:101CD0000000000090A455E0F8A3E0F9A3E0FAA307
:101CE000E0FBC000C001C002C0037B007A40791C49
:101CF000784690A462E0FCA3E0FDA3E0FEA3E0FF31
:101D0000120301D003D002D001D00012010790A429
:101D100055120B1490A42DE0FCA3E0FDA3E0FEA35C
:101D2000E02401FFE43EFEE43DFDE43CFC90A42DF4
:101D3000120B14E47F0AFEFDFC90A42DE0F8A3E052
:101D4000F9A3E0FAA3E0FBC3120AC4402990A42D32
:101D5000120B200000000090A44DE0FCA3E0FDA3C6
:101D6000E0FEA3E02401FFE43EFEE43DFDE43CFC94
:101D700090A44D120B1490A50CE0FEA3E0FF90A4DC
:101D80007EA3E0FAA3E0F5828A83120B9B90A5273D
:101D9000E0FCA3E0FDA3E0FEA3E0FF120455AB07C7
:101DA000AA067C007D3C12088290A483EEF0A3EF8B
:101DB000F07C007D3CAF03AE0212088290A481EC5F
:101DC000F0A3EDF07B017AA4798390A4BCE4F0A3A6
:101DD0007402F07F007E2812216F7B017AA4798142
:101DE00090A4BCE4F0A37402F07F057E2812216F5A
:101DF00090A44DE0FCA3E0FDA3E0FEA3E0FFE4120D
:101E0000041790A527E0F8A3E0F9A3E0FAA3E0FB0C
:101E1000120107120455AB07AA067C007D3C12088C
:101E20008290A483EEF0A3EFF07C007D3CAF03AE84
:101E30000212088290A481ECF0A3EDF07B017AA459
:101E4000798190A4BCE4F0A37402F07F257E28126F
:101E5000216F7B017AA4798390A4BCE4F0A374027F
:101E6000F07F207E2812216F7B017AA4795590A4FF
:101E7000BCE4F0A37404F07F007E2712216FE4FF1E
:101E8000FE7D7A7C4490A455E0F8A3E0F9A3E0FA43
:101E9000A3E0FB1201F890A523E0F8A3E0F9A3E08A
:101EA000FAA3E0FB12039E501EE4FBFA797A784411
:101EB00090A523E0FCA3E0FDA3E0FEA3E0FF120356
:101EC0000190A455120B147F007E507DC37C479077
:101ED000A455E0F8A3E0F9A3E0FAA3E0FB1201F8AF
:101EE00090A523E0F8A3E0F9A3E0FAA3E0FB120336
:101EF0000112045590A470EEF0A3EFF07B017AA4D8
:101F0000797090A4BCE4F0A37402F07F307E2812B4
:101F1000216F2290A47EEDF0AB07AA06E4A3F0A304
:101F2000120B200000000090A488120B200000007B
:101F300000AE02AF037C007D0A120882AC06AD073A
:101F4000E412041C90A484120B14E4FFFE7D207C98
:101F50004190A484E0F8A3E0F9A3E0FAA3E0FB1227
:101F6000039E60025023E4FFFE7DA07C4090A48489
:101F7000E0F8A3E0F9A3E0FAA3E0FB12039E400916
:101F800090A47F7401F0022050E4FFFE7DA07C410C
:101F900090A484E0F8A3E0F9A3E0FAA3E0FB120325
:101FA0009E60025025E4FFFE7D207C4190A484E0E9
:101FB000F8A3E0F9A3E0FAA3E0FB12039E600B4054
:101FC0000990A47F7402F0022050E4FFFE7DC87CDB
:101FD0004290A484E0F8A3E0F9A3E0FAA3E0FB12A6
:101FE000039E60025024E4FFFE7DA07C4190A48407
:101FF000E0F8A3E0F9A3E0FAA3E0FB12039E600A75
:10200000400890A47F7403F08046E4FFFE7D967C38
:102010004390A484E0F8A3E0F9A3E0FAA3E0FB1264
:10202000039E60025024E4FFFE7DC87C4290A4849D
:10203000E0F8A3E0F9A3E0FAA3E0FB12039E600A34
:10204000400890A47F7404F0800690A47F7405F08B
:1020500090A47FE024FE603914605F1470030220B6
:10206000E52403600302213B90A490120B20BFCC17
:10207000CCCD90A484E0FCA3E0FDA3E0FEA3E0FFB0
:102080001229C190A488120B147FDC7EAF7D0E80D4
:102090005090A490120B20BFECCCCD90A484E0FC17
:1020A000A3E0FDA3E0FEA3E0FF1229C190A48812E3
:1020B0000B147FB87E287D80802790A490120B207F
:1020C000BFE7AE1490A484E0FCA3E0FDA3E0FEA370
:1020D000E0FF1229C190A488120B147F407E167D68
:1020E000617C47802990A490120B20C000000090D2
:1020F000A484E0FCA3E0FDA3E0FEA3E0FF1229C15D
:1021000090A488120B147F047EF67D077C4890A46F
:1021100088E0F8A3E0F9A3E0FAA3E0FB1201F8904D
:10212000A480120B1490A480E0FCA3E0FDA3E0FEC9
:10213000A3E0FF90A462120B14800690A47F740A9F
:10214000F090A47EE0FF64016005EF6403701F90CF
:10215000A462E0FCA3E0FDA3E0FEA3E0FF7B9A7A8B
:10216000997919783F1201F890A462120B14229009
:10217000A4B9EBF0A3EAF0A3E9F0AD07AC0690A494
:10218000B9E0FBA3E0FAA3E04A4B70030223BBA330
:10219000E0FEA3E0FF4E70030223BBEEC313FEEF8D
:1021A000132DFFEE3CFED3EF94FEEE94FF400302AE
:1021B00023BBC2AFED5401FBECC313FCED13FDAE2A
:1021C000047810CEC313CE13D8F9F5F1ECF5F2AFC5
:1021D000058FF3E4F5F875F401D2FF30FCFDC2FD84
:1021E000EB6401707C90A4BCE0FEA3E0FF64014EB0
:1021F000700AC2FBC2FAD2F9C2F88008C2FBC2FA66
:10220000D2F9D2F8EF64014E90A4B9701AE0FBA3A2
:10221000E475F001120923A9F0FA1207F6F5FC9013
:10222000A4BDE024FF802DE0FBA3E475F0011209BA
:1022300023A9F0FA1207F6F5FC90A4B9E0FBA3E499
:1022400075F001120923A9F0FA1207F6F5FD90A422
:10225000BDE024FEF090A4BCE034FFF0D2FE20FEEE
:10226000FD90A4BCE0FEA3E0FF4E70030223B6C3C2
:10227000EF9404EE94004003022344EE7022EF1426
:10228000601614600D147018D2FBD2FAD2F9C2F89D
:10229000800ED2FBD2FA8004D2FBC2FAC2F9C2F895
:1022A00090A4BCE0FEA3E0FFEE600302233DEF1428
:1022B000607614604714600302233D90A4B9E0FBEC
:1022C000A3E475F001120923A9F0FA1207F6F5FA52
:1022D00090A4B9E0FBA3E475F001120923A9F0FA78
:1022E0001207F6F5FB90A4B9E0FBA3E475F0011228
:1022F0000923A9F0FA1207F6F5FC804190A4B9E091
:10230000FBA3E475F001120923A9F0FA1207F6F510
:10231000FA90A4B9E0FBA3E475F001120923A9F037
:10232000FA1207F6F5FB801590A4B9E0FBA3E4755B
:10233000F001120923A9F0FA1207F6F5FAD2FE30DD
:10234000FE7480FBD2FBD2FAD2F9D2F890A4B9E0A5
:10235000FBA3E475F001120923A9F0FA1207F6F5C0
:10236000FA90A4B9E0FBA3E475F001120923A9F0E7
:10237000FA1207F6F5FB90A4B9E0FBA3E475F001AF
:10238000120923A9F0FA1207F6F5FC90A4B9E0FBB4
:10239000A3E475F001120923A9F0FA1207F6F5FD7E
:1023A000D2FE20FEFD90A4BDE024FCF090A4BCE091
:1023B00034FFF0022261E4F5F8D2AF2290A4B9EB29
:1023C000F0A3EAF0A3E9F0AD07AC0690A4B9E0FBF6
:1023D000A3E0FAA3E04A4B7003022603A3E0FEA3A6
:1023E000E0FF4E7003022603EEC313FEEF132DFF32
:1023F000EE3CFED3EF94FEEE94FF4003022603C2B0
:10240000AFED5401FBECC313FCED13FDAE047810EB
:10241000CEC313CE13D8F9F5F1ECF5F2AF058FF377
:10242000E4F5F875F401D2FF30FCFDD2FDEB640158
:10243000707D90A4BCE07004A3E06401700AC2FB4C
:10244000C2FAD2F9C2F88008C2FBC2FAD2F9D2F8B5
:10245000D2FE20FEFD90A4BCE07004A3E0640190D5
:10246000A4B9701BE0FBA3E475F001120923A9F0E5
:10247000FAE5FC12083C90A4BDE024FF0225F3E03D
:10248000FBA3E475F001120923A9F0FAE5FC120898
:102490003C90A4B9E0FBA3E475F001120923A9F074
:1024A000FAE5FD12083C90A4BDE024FE0225F3905D
:1024B000A4BCE0FEA3E0FF4E70030225FEC3EF9430
:1024C00004EE9400400302258CEE7022EF14601697
:1024D00014600D147018D2FBD2FAD2F9C2F8800E33
:1024E000D2FBD2FA8004D2FBC2FAC2F9C2F8D2FE01
:1024F00020FEFD90A4BCE0FEA3E0FFEE60030225F9
:10250000FEEF1460701460441460030225FE90A472
:10251000B9E0FBA3E475F001120923A9F0FAE5FA8A
:1025200012083C90A4B9E0FBA3E475F00112092362
:10253000A9F0FAE5FB12083C90A4B9E0FBA3E4750E
:10254000F001120923A9F0FAE5FC803B90A4B9E060
:10255000FBA3E475F001120923A9F0FAE5FA1208C9
:102560003C90A4B9E0FBA3E475F001120923A9F0A3
:10257000FAE5FB801290A4B9E0FBA3E475F0011228
:102580000923A9F0FAE5FA12083C8072D2FBD2FACC
:10259000D2F9D2F8D2FE20FEFD90A4B9E0FBA3E46C
:1025A00075F001120923A9F0FAE5FA12083C90A48B
:1025B000B9E0FBA3E475F001120923A9F0FAE5FBE9
:1025C00012083C90A4B9E0FBA3E475F001120923C2
:1025D000A9F0FAE5FC12083C90A4B9E0FBA3E4756D
:1025E000F001120923A9F0FAE5FD12083C90A4BD00
:1025F000E024FCF090A4BCE034FFF00224AFE4F54A
:10260000F8D2AF2290A4C3E004F0E490A4F7F0A3C2
:10261000F090A4F5E07010E004F090A4C4E4F0A3FE
:10262000740AF07E00FF2290A4C4E0FEA3E0FFC382
:10263000744E9FFD74029EFCE412041C90A527E0DA
:10264000F8A3E0F9A3E0FAA3E0FB12039E407D901B
:10265000A4C4E0FEA3E0FF744E9FFD74029EFCE460
:1026600012041CA804A905AA06AB0790A527E0FC44
:10267000A3E0FDA3E0FEA3E0FF120301E4FBFA796F
:1026800080783F12010712045590A4C2EFF0A3E036
:10269000C39F50030227FBE4F090A4F5E004F09000
:1026A000A4C5E02402F090A4C4E03400F0E0FEA34E
:1026B000E0FFD3945AEE940140030227EDC3EF9458
:1026C000D2EE940140030227F20227ED90A4C4E069
:1026D000FEA3E0FFC3744E9FFD74029EFCE412044F
:1026E0001C90A527E0F8A3E0F9A3E0FAA3E0FB1211
:1026F000039E6002506E90A4C4E0FEA3E0FFC3748A
:102700004E9FFF74029EC313FCEF13FDE412041CE2
:1027100090A527E0F8A3E0F9A3E0FAA3E0FB1203F9
:102720009E404190A4C27402F0A3E09402500302C0
:1027300027FBE4F090A4F5E004F090A4C5E02402A7
:10274000F090A4C4E03400F0E0FEA3E0FFD3945A7C
:10275000EE94015009C3EF94D2EE94015003022786
:10276000ED0227F290A4C4E0FEA3E0FFC3744E9FE5
:10277000FF74029EC313FCEF13FDE412041C90A52A
:1027800027E0F8A3E0F9A3E0FAA3E0FB12039E60C0
:1027900002506890A4C4E0FEA3E0FFC3744E9FFD06
:1027A00074029EFCE412041C90A527E0F8A3E0F953
:1027B000A3E0FAA3E0FB12030112045590A4C2EFB8
:1027C000F0E4A3F090A4F5E004F090A4C5E02FF0AD
:1027D00090A4C4E03400F0E0FEA3E0FFD3945AEEEE
:1027E00094015009C3EF94D2EE940150057EFF7F0F
:1027F000FE2290A4C4E0FEA3E0FF2290A4F5E0D363
:1028000094227480948140057EFF7FFF22E4FEFFC6
:102810002278AA7CA47D017BFF7A47790B7E007F1A
:10282000021207D07B017AA479A890A4BCE4F0A39B
:102830007402F07F9C7E001223BC90A4A8E0645A2E
:102840007004A3E064A560030229C090A4ACF0A3C7
:10285000F0D20078AE7CA47D017BFF7A47790DFE33
:102860007F071207D07B017AA479B590A4BCE4F06D
:10287000A37402F07F9D7E001223BC90A4B5E0FCFF
:10288000A3E0FDEC90A4ACF0E0FF75F00A84C45422
:10289000F0FEEF75F00A84EE25F090A4AEF090A45F
:1028A000ACEDF0E0FF75F00A84C454F0FEEF75F073
:1028B0000A84EE25F090A4AFF07B017AA479B5905C
:1028C000A4BCE4F0A37402F07F9E7E001223BC90AF
:1028D000A4B5E0FCA3E0FDEC90A4ACF0E0FF75F043
:1028E0000A84C454F0FEEF75F00A84EE25F090A43B
:1028F000B0F090A4ACEDF0E0FF75F00A84C454F0A1
:10290000FEEF75F00A84EE25F090A4B2F07B017A18
:10291000A479B590A4BCE4F0A37402F07F9F7E007C
:102920001223BC90A4B5E0FCA3E0FDEC90A4ACF0B5
:10293000E0FF75F00A84C454F0FEEF75F00A84EEEF
:1029400025F090A4B3F090A4ACEDF0E0FF75F00A90
:1029500084C454F0FEEF75F00A84EE25F090A4B420
:10296000F07B017AA479AA90A4BCE4F0A304F07FE0
:102970009C7E0012216F300047123D007F10123DF7
:102980003E90A4B4E0FF123D3E90A4B3E0FF123DA0
:102990003E90A4B2E0FF123D3E90A4B1E0FF123D94
:1029A0003E90A4B0E0FF123D3E90A4AFE0FF123D88
:1029B0003E90A4AEE0FF123D331244B6C20080B692
:1029C0002290A48C120B14E4FFFE7D807C3F90A427
:1029D0008CE0F8A3E0F9A3E0FAA3E0FB12039E70F9
:1029E0000690A48C022B1B90A48CE0FCA3E0FDA31A
:1029F000E0FEA3E0FF1204D6FBA3E0FCA3E0FDA3EE
:102A0000E0FEA3E0FF1204D6FFB40108E4FFFE7D60
:102A1000807C3F22EF64046029EB64046024EBB403
:102A20000130E4FFFEFDFC90A490E0F8A3E0F9A3E0
:102A3000E0FAA3E0FB12039E60084006E4FFFEFDFF
:102A4000FC2290A490120B20FFFFFFFF90A49002A5
:102A50002B1BE490A494F0A3F0FFFEFDFC90A48C4B
:102A6000E0F8A3E0F9A3E0FAA3E0FB12039E505FB5
:102A700090A490E0FCA3E0FDA3E0FEA3E0FF12041D
:102A80005590A494EEF0A3EFF0FDCCEECCEC120444
:102A90001CC8ECC8C9EDC9CAEECACBEFCB90A49054
:102AA000E0FCA3E0FDA3E0FEA3E0FF120103E4FBD2
:102AB000FAF9F812039E708A90A48CE0FCA3E0FD62
:102AC000A3E0FEA3E0FF1204F090A48C120B14907C
:102AD000A48CE0FCA3E0FDA3E0FEA3E0FF122F37EF
:102AE00090A490E0F8A3E0F9A3E0FAA3E0FB1201C0
:102AF000F8123A1090A490120B1490A495E030E0D4
:102B00001790A490E0FCA3E0FDA3E0FEA3E0FF1279
:102B100004F090A490120B1490A490E0FCA3E0FDAC
:102B2000A3E0FEA3E0FF2290A489EBF090A488ED3F
:102B3000F0EF24D0FEE4340790A48BF0A3CEF0EDA8
:102B4000FF64016005EF6402701590A488E0240C16
:102B5000F090A48CE024FFF090A48BE034FFF09080
:102B6000A48BE0FEA3E0FFC394D8EE94064034BEED
:102B70000610BFD80D90A488E0C394097480948097
:102B8000402190A48BE064067004A3E064D87065D3
:102B900090A488E06409705DA3E0C39403748094FA
:102BA00080505290A488E0FB2401FFE433FE7C00B7
:102BB0007D031208707D051208D7AD07EB75F00292
:102BC000A4FFA3E07A002FFFEA35F0CF2DCF3EFE21
:102BD00090A48BE0FCA3E0FD2FFBEC3EFAAE04EDED
:102BE0007802CEC313CE13D8F92BFFEA3ECF2406CA
:102BF000CF3400807C90A488E02401FFE433FE7C85
:102C0000007D031208707D051208D7AC06AD07A33E
:102C1000E02401FBE433FA90A488E075F002A42BD1
:102C2000FFE5F03ACF2DCF3CFE90A48BE0FCA3E073
:102C3000FD2FFBEC3EFAAE04ED7802CEC313CE13AB
:102C4000D8F92BFBEA3EFA90A48BE0FEA3E0FF7CD0
:102C5000007D64120882C3EB9FFBEA9EFA90A48B6E
:102C6000E0FEA3E0FF7C017D90120882EF2BFFEED7
:102C70003AFE7C007D0712088290A48AEDF090A4B1
:102C80008AE0FF2290A522E0FF7E001243C190A4BB
:102C90007EEEF0A3EFF090A522E024FD605C24FE20
:102CA0007003022D4824046003022DCF90A52274E6
:102CB00003F090A47EE0FCA3E0FDE412041C7BDDA5
:102CC0007AD4790D78411201F8E4FBFA797A7844E4
:102CD0001203017B5C7A8F7982783F1201F890A50C
:102CE00016120B147B017AA5791690A4BCE4F0A30C
:102CF0007404F07F007E45022DCC90A5227405F06F
:102D000090A47EE0FCA3E0FDE412041C7BE57A4C79
:102D100079CE783F1201F8E4FBFA797A784412030D
:102D2000017BAE7A477981783F1201F890A51212A3
:102D30000B147B017AA5791290A4BCE4F0A374046F
:102D4000F07F007E44022DCC90A5227401F090A467
:102D50007EE0FCA3E0FDE412041C7BDD7AD4790D57
:102D600078411201F8E4FBFA797A78441203017B86
:102D70005C7A8F7982783F1201F890A50E120B14BD
:102D800090A50EE0F8A3E0F9A3E0FAA3E0FB90A57C
:102D900016E0FCA3E0FDA3E0FEA3E0FF120103E4C4
:102DA000FBFAF9783F1203017B5C7A8F7982783FD6
:102DB0001201F890A51A120B147B017AA5791A90CA
:102DC000A4BCE4F0A37404F07F007E4312216F22C0
:102DD00078807CA47D017BFF7A4779037E007F08A1
:102DE0001207D0123D391244C01245D37F65123DFF
:102DF0003E7C06ECD394007480948040151243EF1F
:102E000074802CF582E434A4F583EFF01200161CD4
:102E100080E11243EF90A480EFF01246571244C5B0
:102E2000E4FCECC3940374809480503074802CF5DF
:102E300082E434A4F583E0FFC4540FFE90A47EF036
:102E4000EF540FFFA3F0EE75F00AA42FFF74802C4F
:102E5000F582E434A4F583EFF00C80C67C04ECC367
:102E6000940774809480503074802CF582E434A4EC
:102E7000F583E0FFC4540FFE90A47EF0EF540FFFE3
:102E8000A3F0EE75F00AA42FFF74802CF582E434D1
:102E9000A4F583EFF00C80C690A480E0FFA3E0FDD2
:102EA000A3E0FB122B2790A483EFF07B017AA47997
:102EB0008090A4BCE4F0A37402F07F107E00122185
:102EC0006F7B017AA4798290A4BCE4F0A37402F031
:102ED0007F117E0012216F7B017AA4798490A4BCBB
:102EE000E4F0A37402F07F127E0012216F7B017A5E
:102EF000A4798690A4BCE4F0A37402F07F137E0052
:102F000002216F3E9248DA3ECCCCCD3F2AAAAB409C
:102F10000000003F8000003F9837F03FB504F33FCA
:102F2000D744FC3E3172173EB172173F0515913EF2
:102F3000DE5BD9D2008002C200EDD2E7F8CD33ECDF
:102F40003304700BBD800592D50204CB0204C1404E
:102F5000FBD31460F2F5F07C3FEE7A00C39496C880
:102F6000948B40230AC89469C8941A401A0AC894DA
:102F700068C8941F40110AC8945AC894254008058F
:102F8000F07A00CDC2E7CDC0F090A496120B14EAFF
:102F90002323C0E02413F582E4342FF583120B04BD
:102FA000120107ECC0E0EDC0E0EEC0E0EFC0E012BF
:102FB0000AE890A496120AF8120103D0E0FBD0E0D0
:102FC000FAD0E0F9D0E0B2E7F812030190A496122B
:102FD0000B14902F03740312064390A496120AF860
:102FE0001201F8D0E0600F241FF582E4342FF5833E
:102FF000120B0412010790A496120B14D0E0C39494
:103000007FFDE49400FC12041C7B187A72793178FD
:103010003F1201F890A496120AF812010730000B33
:103020007BD97A5B79DE783E1201F8227B017AA4A3
:10303000798290A4BCE4F0A37402F07F007E511268
:1030400023BC90A482E0FEA3E0FFEE704CEF24FED0
:10305000601914602214602B1460342404703A90B8
:10306000A523120B2043FA0000802E90A523120BFB
:1030700020447A0000802290A523120B2044BB80BC
:1030800000801690A523120B20451C4000800A905A
:10309000A523120B20457A000090A50CE0FEA3E0CA
:1030A000FF1233F290A527E0FCA3E0FDA3E0FEA30E
:1030B000E0FF120455AB07AA067C007D3C12088293
:1030C00090A480EEF0A3EFF07C007D3CAF03AE0255
:1030D00012088290A47EECF0A3EDF07B017AA47933
:1030E0008090A4BCE4F0A37402F07F207E2812211B
:1030F0006F7B017AA4798090A4BCE4F0A37402F001
:103100007F007E2812216F7B017AA4797E90A4BC77
:10311000E4F0A37402F07F057E2812216F7B017A10
:10312000A4797E90A4BCE4F0A37402F07F257E28ED
:1031300002216FAEAD90A4F9E0FCA3E0FDEC704B72
:10314000ED146020047044EE64576003023233745F
:10315000FC2DF58274A43CF583EEF090A4F9E4F024
:10316000A304F022EE701C90A4F9E0FCA3E024FC80
:10317000F58274A43CF583EEF090A4F9E4F0A37416
:1031800002F022E490A4F9F0A3F02290A4F9E0FC6C
:10319000A3E024FCF58274A43CF583EEF090A4FA3D
:1031A000E004F0700690A4F9E004F0D390A4FAE0F3
:1031B000940F90A4F9E094004079E4F0A3F090A477
:1031C000FDE0FF90A4FCE02FFF90A4FEE02FFFA302
:1031D000E02FFFA3E02FFFA3E02FFFA3E02FFFA32B
:1031E000E02FFFA3E02FFFA3E02FFFA3E0FD2FFFC1
:1031F000A3E0FE2FFFA3E02FFFA3E02FFFA3E02F0C
:10320000FFA3E0B5072DEE702A90A505E07B00FA3C
:10321000ED7E007810C333CE33CED8F9FFEE4AFEF0
:10322000EF4BFF90A504E0FDEF4DFF90A50CEEF0F5
:10323000A3EFF022C0E0C0F0C083C082C0D075D040
:1032400000C000C001C002C003C004C005C006C069
:1032500007C2AF758CBC758ACD90A53DE004F070B7
:103260000690A53CE004F090A54FE0FCA3E0FDA390
:10327000E0FEA3E02401FFE43EFEE43DFDE43CFC6F
:1032800090A54F120B14E47F64FEFDFC90A54FE067
:10329000F8A3E0F9A3E0FAA3E0FBC3120AC4405686
:1032A00090A4F8E004F0700690A4F7E004F090A475
:1032B00035E0FCA3E0FDA3E0FEA3E02401FFE43E33
:1032C000FEE43DFDE43CFC90A435120B1490A51ED9
:1032D000E0FCA3E0FDA3E0FEA3E02401FFE43EFE4A
:1032E000E43DFDE43CFC90A51E120B1490A54F128A
:1032F0000B2000000000D2AFD007D006D005D004CC
:10330000D003D002D001D000D0D0D082D083D0F072
:10331000D0E03290A48DEBF0A3EAF0A3E9F0E490C2
:10332000A498F0A3F0A3F0A3F0C390A497E09407AF
:1033300090A496E0940050037F022290A48DE0FBBD
:10334000A3E0FAA3E0F91207F6645A60037F0322B0
:1033500090000112080F64A560037F032290000211
:1033600012080F2403FFE433FE90A498F0A3EFF0BB
:10337000C390A497E09F90A496E09E4072E490A42E
:103380009AF0A3F090A498E0FEA3E0FFA3E0FCA3D2
:10339000E0FDC39FEC9E503C90A48DE0FBA3E0FABF
:1033A000A3E0F91207F6FF90A490E0FBA3E0FAA3D4
:1033B000E0F98D828C83EF12084E90A48EE475F0B4
:1033C0000112090D90A49BE004F070B890A49AE05B
:1033D00004F080B090A498E0F9A3E0FF90A493E0FB
:1033E000FBA3E0FAA3E0C98FF012099C7F01227FC2
:1033F0000222AD07AC06E412041CE4FBFA79207843
:103400004112030190A484120B14E4FFFE7DC87CDA
:103410004390A484E0F8A3E0F9A3E0FAA3E0FB1250
:10342000039E5024E4FFFE7DA07C4090A484E0F83D
:10343000A3E0F9A3E0FAA3E0FB12039E600A4008B0
:1034400090A5337401F0800690A5337405F090A523
:1034500034E06403602590A533E014706D90A4629D
:10346000E0F8A3E0F9A3E0FAA3E0FB90A523E0FCD9
:10347000A3E0FDA3E0FEA3E0FF804690A533E014A7
:103480007048E4FFFE7D7A7C4490A455E0F8A3E008
:10349000F9A3E0FAA3E0FB1201F8A804A905AA0623
:1034A000AB0790A523E0FCA3E0FDA3E0FEA3E0FFB3
:1034B00012010390A462E0F8A3E0F9A3E0FAA3E00C
:1034C000FB12030190A527020B1490A5337406F09C
:1034D0002290A46EE07004A3E0640160030235A8AA
:1034E00090A442E0640170077D027F0412408A903C
:1034F000A442E090A43CF090A460E0FFA3E090A47C
:103500003FCFF0A3EFF090A46BE090A43EF090A426
:103510003D7401F090A45AE0FEA3E0FF7B017AA481
:10352000793990A4BCE4F0A37408F012216F90A440
:103530005AE0FEA3E0FF7B017AA4796C90A4BCE47E
:10354000F0A37402F01223BC90A46DE0FF90A46C71
:10355000E0B507DA90A46AE090A43EF0E490A43DC0
:10356000F090A45AE0FEA3E0FF7B017AA4793990A1
:10357000A4BCE4F0A37408F012216F90A45AE0FEFA
:10358000A3E0FF7B017AA4796C90A4BCE4F0A3745F
:1035900002F01223BC90A46DE0FF90A46CE0B5078C
:1035A000DAE490A46EF0A3F02290A442E0640170EB
:1035B000077D027F0412402C90A442E090A43CF0CE
:1035C000E4A3F090A46AE090A43EF090A44BE0FF46
:1035D000A3E090A43FCFF0A3EFF090A45AE0FEA3A5
:1035E000E0FF7B017AA4793990A4BCE4F0A37408CD
:1035F000F012216F90A45AE0FEA3E0FF7B017AA4B1
:10360000796C90A4BCE4F0A37402F01223BC90A4E3
:103610006DE0FF90A46CE0B507DA90A43D7401F072
:1036200090A46BE090A43EF090A45AE0FEA3E0FFCB
:103630007B017AA4793990A4BCE4F0A37408F01259
:10364000216F90A45AE0FEA3E0FF7B017AA4796C7D
:1036500090A4BCE4F0A37402F01223BC90A46DE02B
:10366000FF90A46CE0B507DA90A46EE4F0A304F038
:103670002290A494EEF0A3EFF090A442E024F8701E
:10368000030237092407600302372F90A494E064F3
:10369000307004A3E06410705D124681EF64017025
:1036A0004490A534E0640570221240E890A534747B
:1036B00003F01235A97B017AA5792D90A4BCE4F022
:1036C000A37402F07F107E3002216F90A534E06475
:1036D0000270067403F00235A990A534E06404700A
:1036E0004E7403F022124681EF90A53470047404E6
:1036F000F0227401F02290A494E0B43032A3E0B43C
:10370000202D90A5347406F02290A494E0FEA3E04E
:10371000FF64407003EE64146015EF64417003EEC3
:103720006414600BE4B50707EEB41403121A042204
:1037300090A482EFF0E0FFC454F024BCF582E4349E
:10374000A4F583E4F0A304F0EFC454F024BEF582A2
:10375000E434A4F58374FFF0A3F0EFC454F024C064
:10376000F582E434A4F583E4F0A3740BF0123C89F1
:1037700090A482E0FDC454F024C2F582E434A4F5A0
:1037800083EEF0A3EFF0EDC454F024C4F582E434EA
:10379000A4F5837402F0A3744EF0EDC454F024C277
:1037A000F582E434A4F583E0FEA3E0FFEDC454F019
:1037B00024C6F582E434A4F583EEF0A3EFF0ED64C3
:1037C00002701FED75F010A424BAF974A435F0FA54
:1037D0007B0190A4BCE4F0A37410F07F007E55122E
:1037E000216F2290A544EBF0A3EAF0A3E9F0A3ED4A
:1037F000F078487CA57D017BFF7A47791C7E007FAD
:10380000021207D090A547E014600302389290A5F9
:1038100044E0FBA3E0FAA3E0F9120086EF607390A6
:10382000A4F5E0FF90A548E4F0EFA3F090A544E0F4
:10383000FBA3E0FAA3E0F9120939FF90A4EBE5F04D
:10384000F0A3EFF0900002120964FF90A4EDE5F000
:10385000F0A3EFF07B017AA5794890A4BCE4F0A333
:103860007402F07F017EB012216F90A4C6E0FEA327
:10387000E0FF7B017AA479EB90A4BCE4F0A374068A
:10388000F012216F90A4C7E02402F090A4C6E034A7
:1038900000F022E490A48DF0A3F090A22DE0FEA30E
:1038A000E0FDEDFF90A48DEEF0A3EFF090A22CE0F0
:1038B0006482703D7B017AA2792F90A22BE024FDD7
:1038C000FEE434FF90A4BCF0A3CEF090A48DE0FE03
:1038D000A3E0FF12216F90A22B7403F090A22D742D
:1038E0004FF0A3744BF07B017AA2792990A22B8030
:1038F0003E90A22CE06483703D7B017AA2793090E7
:10390000A22FE075F002A4FF90A4BCE5F0F0A3EFB5
:10391000F090A48DE0FEA3E0FF1223BC90A22FE064
:1039200025E0FF90A22BE02FF07B017AA27929E01D
:103930002403FD12428E22759401759502758E0046
:1039400075930075C87075C96075F800787FE4F6E6
:10395000D8FD758121023993024549E493A3F8E427
:1039600093A34003F68001F208DFF48029E493A3D7
:10397000F85407240CC8C333C4540F4420C88340F0
:1039800004F456800146F6DFE4800B0102040810BF
:103990002040809013F2E47E019360BCA3FF543F6B
:1039A00030E509541FFEE493A360010ECF54C025F7
:1039B000E060A840B8E493A3FAE493A3F8E493A3E7
:1039C000C8C582C8CAC583CAF0A3C8C582C8CAC54B
:1039D00083CADFE9DEE780BE33DA929E35B160113B
:1039E000377FE5FE392184893AAEC3FF3C1D955BE4
:1039F0003D6358473E75FDF03F3172183F8000002F
:103A0000C2D50204CB0204C1BD80FA50F30204C83F
:103A1000ED33EC330460F17B3B7AAA79B8783F123E
:103A200001F8ED33EC3392D5247B5011A2D570DB35
:103A3000500BED448024045004A2D580CEEFFBEE61
:103A4000FAEDF9ECF8120455EFF582F404FC1204D7
:103A500021120107C0829039D87409120652ED3341
:103A6000CC33D0F092D525F0A2D57001C313CC137E
:103A7000FD2290A54AEFF0784B7CA57D017BFF7A73
:103A80004679D97E007F041207D07B017AA5794B55
:103A900090A4BCE4F0A37404F07F807E001223BCE9
:103AA00090A54B745AF090A54AE0FD3395E0FCEDEB
:103AB00064014C700990A54EE054F7F0800DED6460
:103AC000024C703F90A54EE04408F07B017AA57946
:103AD0004B90A4BCE4F0A37404F07F807E0012211C
:103AE0006F7F057E001244D77B017AA5794B90A4A5
:103AF000BCE4F0A304F07F807E001223BC90A54BB1
:103B0000E070DE22787E7CA47D017BFF7A4679E539
:103B10007E007F101207D0E490A48EF0A3F0A3F0F3
:103B2000A3F0A3F0A3F090A42AE0FDFEA3E0FBF530
:103B300082E582FF90A492EEF0A3EFF090A22974A8
:103B40005AF0A374A5F090A42CE0FC25E024039087
:103B5000A22BF0A37483F0A3EDF0A3EBF07B017A2A
:103B6000A2792FEC75F002A4FF90A4BCE5F0F0A3BD
:103B7000EFF090A492E0FEA3E0FF1223BC90A49289
:103B8000E0FEA3E0FF023671C0E0C0F0C083C08257
:103B9000C0D075D000C000C001C002C003C004C0C6
:103BA00005C006C007E4FFC2AFE5AB540164017075
:103BB0003B123133AFAD908088E0FCA3E02400F5E8
:103BC0008274803CF583EFF0908089E004F0700609
:103BD000908088E004F053ABFEC3908089E094802D
:103BE000908088E094004004E4F0A3F0D2AFD007C6
:103BF000D006D005D004D003D002D001D000D0D060
:103C0000D082D083D0F0D0E03290A481EDF090A4A7
:103C10007EEBF0A3EAF0A3E9F0120086EF60697F83
:103C2000021237307BFF7A477914120C3490A4814A
:103C3000E06401704D90A4CCF0A3F0A37480F0A3D5
:103C4000E4F0A3F0A3740BF090A47EE0FBA3E0FAF1
:103C5000A3E0F9900002120964FF90A4D2E5F0F00D
:103C6000A3EFF07BFF7A477914120C347B017AA41E
:103C700079CA90A4BCE4F0A37410F07F007EB01267
:103C8000216F90A4F67401F02290A462E0FCA3E0FE
:103C9000FDA3E0FEA3E0FF122F3390A4BE120B148D
:103CA000E4FFFEFDFC90A4BEE0F8A3E0F9A3E0FA77
:103CB000A3E0FB12039E40437FAE7E477DE17CBDC7
:103CC00090A4BEE0F8A3E0F9A3E0FAA3E0FB1201A0
:103CD000077B3D7A0A79477840120301E4FBFA79C1
:103CE000F078421201F8A804A905AA06AB07E4FF80
:103CF000FE7DE97C431201030204557E017FD2223E
:103D00001245D37F64123D3E7F30123D3EE4FF12E8
:103D10003D3E1244C51245D37F64123D3E7F1C12C6
:103D20003D3E7F48123D3EE4FF123D3E7F40123D46
:103D30003E7F10123D3E1244C51245D37F64AE074C
:103D4000124687E4FDEDC39408748094805019EE08
:103D500030E704D2B38002C2B3EE25E0FE124594F0
:103D6000C2B21245990D80DD02447090A47EEFF03E
:103D7000787F7CA47D017BFF7A47791E7E007F10CF
:103D80001207D090A47EE014601F146031240270EA
:103D9000437B017AA4797F90A4BCE4F0A37410F073
:103DA0007F007EB012216F80157B017AA4797F900D
:103DB000A4BCE4F0A37410F07F007EB080137B01FC
:103DC0007AA4797F90A4BCE4F0A37410F07F007E05
:103DD0005512216F2290A442E0FF90A459E06F6039
:103DE00008EFF090A5347401F090A534E0B407001A
:103DF000504B903DF9F8282873023E0E023E140203
:103E00003E1D023E20023E25023E2A023E2F90A584
:103E1000347401F090A5347402F01200F602302CD4
:103E2000D295023E3EC2950200F7C2950245A9C254
:103E3000951240E81234D190A5347401F0227BFF32
:103E40007A3379F2121CA8E4FFFE7D7A7C4490A4B8
:103E500055E0F8A3E0F9A3E0FAA3E0FB1201F89023
:103E6000A523E0F8A3E0F9A3E0FAA3E0FB12039E88
:103E7000602B4029E4FFFEFDFC90A527E0F8A3E0BD
:103E8000F9A3E0FAA3E0FB12039E6011400FC39078
:103E9000A471E0946490A470E09400400690A5346E
:103EA0007405F022C0E0C083C082C0D075D000C0CD
:103EB00004C007C2AF309837AF99908082E0FCA36E
:103EC000E0248AF58274803CF583EFF0908083E0F3
:103ED00004F07006908082E004F0C3908083E09448
:103EE000A0908082E0941F4004E4F0A3F0C29830D8
:103EF0009907C299908080E4F0D2AFD007D004D067
:103F0000D0D082D083D0E03290A53EEEF0A3EFF087
:103F100078407CA57D017BFF7A4679E17E007F04B5
:103F20001207D090A53EE0FCA3E0FDEC90A542F086
:103F3000A3EDF07B017AA5794090A4BCE4F0A374D2
:103F400004F07F847E0012216F7F057E001244D72B
:103F50007B017AA5794090A4BCE4F0A304F07F84AF
:103F60007E001223BC90A540E070DE22C0E0C0833A
:103F7000C082C0D075D000C004C007C2AFE59B307E
:103F8000E028AF9C908084E0FCA3E0242AF58274B2
:103F9000A03CF583EFF0908085E004F070069080FF
:103FA00084E004F0539BFE539BFEE59B30E10B53F2
:103FB0009BFD539BFD908081E4F043C901D2AFD0BB
:103FC00007D004D0D0D082D083D0E032C0E0C0830C
:103FD000C082C0D075D000C004C007C2AFE59754FE
:103FE0000164017038AF9F908086E0FCA3E024AAB2
:103FF000F58274A03CF583EFF0908087E004F070C8
:1040000006908086E004F05397FEC3908087E0948A
:1040100080908086E094004004E4F0A3F0D2AFD01A
:1040200007D004D0D0D082D083D0E03290A442E038
:1040300090A43CF0A3EFF0A3EDF090A44BE0FFA31D
:10404000E090A43FCFF0A3EFF090A45AE0FEA3E0ED
:10405000FF7B017AA4793990A4BCE4F0A37408F042
:1040600012216F90A45AE0FEA3E0FF7B017AA479AD
:104070006C90A4BCE4F0A37402F01223BC90A46D75
:10408000E0FF90A46CE0B507DA2290A442E090A48F
:104090003CF0A3EFF0A3EDF090A460E0FFA3E0906C
:1040A000A43FCFF0A3EFF090A45AE0FEA3E0FF7B83
:1040B000017AA4793990A4BCE4F0A37408F0122129
:1040C0006F90A45AE0FEA3E0FF7B017AA4796C9084
:1040D000A4BCE4F0A37402F01223BC90A46DE0FF32
:1040E00090A46CE0B507DA2290A455120B200000D2
:1040F00000007B017AA4795590A4BCE4F0A3740479
:10410000F07F007E2712216FE490A470F0A3F07B73
:10411000017AA4797090A4BCF0A37402F07F307E81
:104120002812216F90A44D120B20000000007B018B
:104130007AA5792B90A4BCE4F0A37402F07F107EE2
:104140003002216F12431090A4EAE024FE60122492
:10415000FE601924FE602424057043E490A4EAF074
:10416000227B017AA479F17D01023C09E490A4F656
:10417000F090A4EAF090A4F5F08011E490A4F6F099
:1041800090A4EAF090A4F5F0FF123D6B90A4C674E1
:10419000B0F0A37405F0A37455F0A37405F02212D7
:1041A0003D397F1D123D3E1244C51245D37F651235
:1041B0003D3E1243EFAC071200161243EF12465772
:1041C0001244C5EC54026402702E123D007F10129E
:1041D0003D3EE4FF123D3EE4FF123D3EE4FF123D52
:1041E0003E7F01123D3E7F01123D3E7F01123D3E6A
:1041F0007F17123D331244B622787E7CA47D017B6A
:10420000FF7A4679DD7E007F041207D07B017AA415
:10421000792990A4BCE4F0A37404F07F007E0F120F
:1042200023BC90A429E0645A70187B017AA4797E9B
:1042300090A4BCF0A37404F07F007E0F12216F7F66
:1042400001227F00227B017AA4794190A4BCE4F092
:10425000A37402F07F147E001223BC90A442E0FFFE
:1042600014601A14601F14601E24FB601D24087063
:104270001C90A459EFF090A5347401F0221241442F
:10428000123DD5800280000217141243892290A4A7
:104290008FEBF0A3EAF0A3E9F090A48FE0FBA3E09A
:1042A000FAA3E04A4B6027ED6024AF051DEF601EC6
:1042B00090A48FE0FBA3E0FAA3E0F91207F6FF1247
:1042C000460890A490E475F00112090D80DC22905C
:1042D000A553EBF0A3EAF0A3E9F090A553E0FBA30C
:1042E000E0FAA3E04A4B6027ED6024AF051DEF60C4
:1042F0001E90A553E0FBA3E0FAA3E0F91207F6FF36
:1043000012461690A554E475F00112090D80DC22C6
:1043100090A534E024FC601B14601F146028240363
:10432000702A90A4F6E090A4EA60047403F022746A
:1043300002F02290A4EA7405F022E490A4F6F09032
:10434000A4EA7404F02290A4EA7406F02290A4CAAD
:10435000E4F0A37402F090A4D874FFF0A3E4F0900A
:10436000A4CCF0A304F090A4DAE4F0A37402F090DB
:10437000A4E874FFF0A3E4F090A4DCF0A304F090B0
:10438000A4EF74FFF0A3E4F02290A442E0FF90A415
:1043900059E06F6008EFF090A5347401F090A534F7
:1043A000E014600D1460102402700F90A5347401A5
:1043B000F090A5347402F002444890A5347402F0E1
:1043C0002290A480EEF0A3EFF0E02432FF90A480CE
:1043D000E03400FE7B017AA4798090A4BCE4F0A3D1
:1043E0007402F01223BC90A480E0FEA3E0FF22122E
:1043F0000056E4FDEDC3940874809480501B124570
:1044000094EE25E0FE30B3054401FE8004EE54FE38
:10441000FEC2B21245990D80DBAF0622E490A4954E
:10442000F0A3F0A3F0A3F0AE04AF05C003C0029068
:10443000A492E0FBA3E0FAA3E0F8AC02AD03D00243
:10444000D0031207D07F0122E47F02FEFDFC90A57D
:104450001EE0F8A3E0F9A3E0FAA3E0FBC3120AC44C
:10446000400D122C8490A51E120B2000000000228B
:10447000120056124592E4FEEEC39432748094808A
:10448000500930B3061245990E80EDC2B21245991B
:10449000024687C390A53DE094F490A53CE09401CA
:1044A00040137BFF7A4679F7120C34122DD0E4903A
:1044B000A53CF0A3F0227F1E123D3EE4FF123D3EDC
:1044C0007F10123D3E124687C2B3D2B2124599D236
:1044D000B3124599020056E4FDFCC3ED9FEC9E50DB
:1044E00015E4FBFA0BBB00010ABA1CF8BBE8F50D9A
:1044F000BD00010C80E42243B7C043C920E4908092
:1045000081F0908084F0A3F0759BD075BB03759DFE
:10451000C8759A012290A556EFF07B017AA57956CD
:1045200090A4BCE4F0A304F07F827E0002216FE43B
:1045300090A534F07B017AA5792B90A4BCF0A374EC
:1045400002F07F107E3002216F1245E712419FC2B8
:104550009512463212434D12464012424512449380
:1045600080F575F90175B7C375BCA375BD2A75BE15
:104570000CE4F580F590F5A0F5B022E4908086F08B
:10458000A3F0759680759780F5D975E7E0D2BAD219
:10459000BB22D2B3124599D2B2E4FFEFC394507458
:1045A00080948050030F80F3227B017AA5792B90B1
:1045B000A4BCE4F0A37402F07F107E3002216F757A
:1045C000C870E4F5CDF5CC75CBBC75CACD43A82039
:1045D000D2C822124687D2B3D2B2124599C2B312C0
:1045E0004599C2B2024599C2AF12005E12456212ED
:1045F000467512467BD2AF22C2AF8F9EE59654011C
:1046000060FA5396FED2AF22908080E0640160F899
:104610007401F08F9922908081E0640160F8740148
:10462000F08F9C22438901758CBC758ACDD2A9D2AA
:104630008C2290A439745AF0A374A5F0E4A3F0225C
:104640001241F9EF6003123B0402104C7BFF7A46E3
:10465000798E7D1502428E124687124592C2B202B1
:1046600045997B017AA479F17D010237E3C2AF530A
:1046700096FED2AF3212457B02006E1246240245EE
:10468000BF90A230E0FF2243BE0822C2C63255616D
:10469000727432496E697420446F6E652121213134
:1046A0003233005561727433496E697420446F6E01
:1046B00065212121005561727434496E697420446A
:1046C0006F6E65212121005561727435496E6974E0
:1046D00020446F6E652121210000000000000000D1
:1046E000005A01000000000000000000000000006F
:1046F0000000000000000068656B6B6F00000000A8
:1047000000000000000000000000000000000000A9
:1047100000000000B3F5CABCBBAF0A0000000000F7
:0E47200000000000000000000000000000008B
:00000001FF
