:10000000021837020006C2AFD2AF32021CA9C2AF3B
:10001000D2AF3202000E120066C2B3121DC6C2B2C7
:10002000021DCB0219C753BEF722320200F11200A3
:1000300026E4FDEDC3940874809480501B121DC605
:10004000EE25E0FE30B3054401FE8004EE54FEFED2
:10005000C2B2121DCB0D80DBAF0622121E54021D50
:10006000DB222202002A43BE082222020086E490FC
:100070008088F0A3F075A78075AB80F5AE75AFE012
:10008000D2BD22021A8FC0E0C0F0C083C082C0D0AF
:1000900075D000C000C001C002C003C004C005C0CC
:1000A00006C007C2AFE5AB5401640170271216B554
:1000B000908089E004F07006908088E004F053ABF3
:1000C000FEC3908089E09480908088E09400400492
:1000D000E4F0A3F0D2AFD007D006D005D004D0030F
:1000E000D002D001D000D0D0D082D083D0F0D0E0E8
:0400F00032C2C63220
:1000F800FFFF4457494E5435E490A42DF0A3F0A3D4
:10010800F0A3F0A3F0A3F0A3F0A3F0A304F0A3746A
:1001180080F0A3748AF0E4A3F0A3F0783A7CA47D7D
:10012800017BFF7A1F7908FE7F02120576D3908043
:1001380083E09402908082E094007F0040027F0177
:1001480090A433EFF090A433E070030204A590A4C8
:10015800357401F0A37480F0A3748AF090A435E09C
:10016800FBA3E0FAA3E0F912059C645A603A908078
:1001780082E0FEA3E0248AF974803EFA7B01C00382
:10018800C002C00190A435A3E0FAA3E0F9C3D0826D
:10019800D083D0E0E99582EA9583500C90A436E4A8
:1001A80075F0011206B380B4908082E0FEA3E024CB
:1001B8008AF974803EFA7B01C003C002C00190A492
:1001C80035E0FBA3E0FAA3E0F9D082D083D0E06B5E
:1001D8007008E965827003EA65837007908082F091
:1001E800A3F02290A435A3E0FAA3E0C3948AFFEA1F
:1001F8009480FEC3908083E09FFF908082E09E9071
:10020800A431F0A3EFF090A438E024FE6055240256
:1002180060030202E77E007FFF7D007B017AA179FF
:100228002A1207EBE490A439F090A434F090A42D9E
:10023800F0A3F0A3F0A3F090A42FE0FEA3E0FFC387
:100248009403EE9400501C743A2FF58274A43EF582
:1002580083E4F090A430E004F070DC90A42FE00474
:10026800F080D490A43F7401F0A374A1F0A3742A81
:10027800F0A37401F0A374A4F0A3742DF090A4313A
:10028800E0FFA3E090A445CFF0A3EFF090A435E001
:10029800FBA3E0FAA3E0F91215D690A439EFF0A376
:1002A800F06401703A90A42DE0FCA3E0FD90A44115
:1002B8007401F0A374A2F0A37429F07B017AA179E8
:1002C8002A121C58EF70030203851217937E017FD0
:1002D800007D007B017AA279291207EB0203859041
:1002E800A43AE06403600302038590A43680449036
:1002F800A435E0FBA3E0FAA3E0F912059C645A6078
:100308003A908082E0FEA3E0248AF974803EFA7B6A
:1003180001C003C002C00190A435A3E0FAA3E0F92C
:10032800C3D082D083D0E0E99582EA9583500C90BF
:10033800A436E475F0011206B380B4908082E0FE22
:10034800A3E0248AF974803EFA7B01C003C002C08E
:100358000190A435E0FBA3E0FAA3E0F9D082D083B2
:10036800D0E06B7008E965827003EA6583700890D5
:100378008082F0A3F0800690A4347401F090A43930
:10038800E06401600990A434E0700302049D90A425
:1003980035A3E0FAA3E0C3948AFFEA9480FEC390F1
:1003A8008083E09FFF908082E09EFE90A42DE0FC79
:1003B800A3E0FDC3EF9DFFEE9CFE90A431F0A3EFF8
:1003C800F0D39400EE94004068E490A42FF0A3F0DA
:1003D80090A431E0FEA3E0FF90A42FE0FCA3E0FD91
:1003E800C39FEC9E504390A435E0FBA3E0FAA3E042
:1003F800F990A42DE0FEA3E0FFE92FF9EA3EFAE91F
:100408002DF9EA3CFA12059CFF748A2DF582748056
:100418003CF583EFF0E41205E290A430E004F070BC
:10042800AF90A42FE004F080A790A4337401F0806B
:1004380052E490A42FF0A3F090A435A3E0FAA3E02F
:10044800C3948AFFEA9480FE90A42EE02FFF90A424
:100458002DE03EFE90A42FE0FCA3E0FDC39FEC9EA0
:10046800501C748A2DF58274803CF583E4F090A4C6
:1004780030E004F070C290A42FE004F080BAE49059
:10048800A433F090A431E0FFA3E0908082CFF0A3E2
:10049800EFF002014DE490A433F002014D22E70988
:1004A800F608DFFA8046E709F208DFFA803E88821C
:1004B8008C83E709F0A3DFFA8032E309F608DFFA54
:1004C8008078E309F208DFFA807088828C83E30978
:1004D800F0A3DFFA806489828A83E0A3F608DFFA52
:1004E800805889828A83E0A3F208DFFA804C80D2A0
:1004F80080FA80C680D4806980F28033801080A61C
:1005080080EA809A80A880DA80E280CA8033898273
:100518008A83ECFAE493A3C8C582C8CCC583CCF01F
:10052800A3C8C582C8CCC583CCDFE9DEE7800D89C6
:10053800828A83E493A3F608DFF9ECFAA9F0EDFBCD
:100548002289828A83ECFAE0A3C8C582C8CCC58315
:10055800CCF0A3C8C582C8CCC583CCDFEADEE8806E
:10056800DB89828A83E493A3F208DFF980CC88F0E0
:10057800EF60010E4E60C388F0ED2402B404005011
:10058800B9F582EB2402B4040050AF23234582233B
:100598009004F673BB010689828A83E0225002E741
:1005A80022BBFE02E32289828A83E49322BB010CE8
:1005B800E58229F582E5833AF583E0225006E925AC
:1005C80082F8E622BBFE06E92582F8E222E58229C6
:1005D800F582E5833AF583E49322BB010689828A92
:1005E80083F0225002F722BBFE01F322F8BB010D73
:1005F800E58229F582E5833AF583E8F0225006E999
:100608002582C8F622BBFE05E92582C8F222EF8DB5
:10061800F0A4A8F0CF8CF0A428CE8DF0A42EFE2252
:10062800BC000BBE0029EF8DF084FFADF022E4CCB6
:10063800F875F008EF2FFFEE33FEEC33FCEE9DEC7F
:10064800984005FCEE9DFE0FD5F0E9E4CEFD22EDC5
:10065800F8F5F0EE8420D21CFEADF075F008EF2F0F
:10066800FFED33FD4007985006D5F0F222C398FD00
:100678000FD5F0EA22C2D5EC30E709B2D5E4C39D24
:10068800FDE49CFCEE30E715B2D5E4C39FFFE49E81
:10069800FE120628C3E49DFDE49CFC800312062894
:1006A80030D507C3E49FFFE49EFE22C5F0F8A3E01F
:1006B80028F0C5F0F8E582158270021583E038F05D
:1006C80022A3F8E0C5F025F0F0E582158270021546
:1006D80083E0C838F0E822BB010A89828A83F0E502
:1006E800F0A3F0225006F709A7F01922BBFE06F383
:1006F800E5F009F3192275F008758200EF2FFFEE77
:1007080033FECD33CDCC33CCC58233C5829BED9A35
:10071800EC99E58298400CF582EE9BFEED9AFDEC93
:1007280099FC0FD5F0D6E4CEFBE4CDFAE4CCF9A8D9
:100738008222B800C1B90059BA002DEC8BF084CFE1
:10074800CECDFCE5F0CBF97818EF2FFFEE33FEEDB8
:1007580033FDEC33FCEB33FB10D703994004EB99E2
:10076800FB0FD8E5E4F9FA227818EF2FFFEE33FEF5
:10077800ED33FDEC33FCC933C910D7059BE99A402A
:1007880007EC9BFCE99AF90FD8E0E4C9FAE4CCFB42
:100798002275F010EF2FFFEE33FEED33FDCC33CC96
:1007A800C833C810D7079BEC9AE899400AED9BFD1F
:1007B800EC9AFCE899F80FD5F0DAE4CDFBE4CCFA32
:1007C800E4C8F922E8600FEFC333FFEE33FEED33E0
:1007D800FDEC33FCD8F122ECF0A3EDF0A3EEF0A38E
:1007E800EFF022EF4E6012EF60010EEDBB010B89B6
:1007F800828A83F0A3DFFCDEFA2289F05007F7092A
:10080800DFFCA9F022BBFEFCF309DFFCA9F022788B
:100818004B7CA47D017BFF7A1F790A7E007F06123C
:1008280005767B017AA4794390A469E4F0A3740463
:10083800F07F007E13120D087B017AA4794790A4FB
:1008480069E4F0A37404F07F057E13120D0890A4E8
:1008580044E0FFE4FCFDFE78101207CCC004C0059C
:10086800C006C00790A443E0FFE4FCFDFE78181220
:1008780007CCD003D002D001D000EF4BFFEE4AFEE8
:10088800ED49FDEC48FCC004C005C006C00790A4B3
:1008980045E0FFE4FCFDFE78081207CCD003D00247
:1008A800D001D000EF4BFBEE4AFAED49F9EC48F8DD
:1008B800A3E0FFEB4FFFEAFEE9FDE8FC90A451122C
:1008C80007DF90A448E0FFE4FCFDFE78101207CC97
:1008D800C004C005C006C00790A447E0FFE4FCFDC3
:1008E800FE78181207CCD003D002D001D000EF4B0D
:1008F800FFEE4AFEED49FDEC48FCC004C005C00609
:10090800C00790A449E0FFE4FCFDFE78081207CC7C
:10091800D003D002D001D000EF4BFBEE4AFAED49EC
:10092800F9EC48F8A3E0FFEB4FFFEAFEE9FDE8FC2D
:1009380090A4811207DFE47B64FAF9F890A481E0BF
:10094800FCA3E0FDA3E0FEA3E0FF12073A90A45049
:10095800EBF0E47B64FAF9F890A481E0FCA3E0FDF5
:10096800A3E0FEA3E0FF12073AE47B64FAF9F81269
:10097800073A90A44FEBF0E47B107A27F9F890A49B
:1009880081E0FCA3E0FDA3E0FEA3E0FF12073AE448
:100998007B64FAF9F812073A90A44EEBF0E47B6412
:1009A800FAF9F890A451E0FCA3E0FDA3E0FEA3E06F
:1009B800FF12073A90A44DEBF0E47B64FAF9F89043
:1009C800A451E0FCA3E0FDA3E0FEA3E0FF12073A78
:1009D800E47B64FAF9F812073A90A44CEBF0E47B54
:1009E800107A27F9F890A451E0FCA3E0FDA3E0FEFB
:1009F800A3E0FF12073AE47B64FAF9F812073A9089
:100A0800A44BEBF0A3E0FFD3940074809480406E75
:100A1800D3EF940C748094805064A3E0FF941F7407
:100A28008094805054EF940074809480404BA3E0ED
:100A3800D39417748094805039C374809480403262
:100A4800A3E0D3943B748094805020C37480948036
:100A58004019A3E0D3943B748094805007C37480FA
:100A680094805020E490A450F08019E490A44FF0B2
:100A78008012E490A44EF0800B90A44D800390A4C3
:100A88004C7401F07B017AA4794B90A469E4F0A33B
:100A98007406F07F9D7E00120ABB7B017AA4797FE1
:100AA80090A469E4F0A37402F07F9C7E00120ABB54
:100AB80002119690A466EBF0A3EAF0A3E9F0AD0763
:100AC800AC0690A466E0FBA3E0FAA3E04A4B7003EF
:100AD800020D07A3E0FEA3E0FF4E7003020D07EE30
:100AE800C313FEEF132DFFEE3CFED3EF94FEEE94FE
:100AF800FF4003020D07C2AFED5401FBECC313FC2A
:100B0800ED13FDAE047810CEC313CE13D8F9F5F16A
:100B1800ECF5F2AF058FF3E4F5F875F401D2FF3088
:100B2800FCFDC2FDEB6401707C90A469E0FEA3E0CB
:100B3800FF64014E700AC2FBC2FAD2F9C2F88008FB
:100B4800C2FBC2FAD2F9D2F8EF64014E90A46670E3
:100B58001AE0FBA3E475F0011206C9A9F0FA120520
:100B68009CF5FC90A46AE024FF802DE0FBA3E475CB
:100B7800F0011206C9A9F0FA12059CF5FC90A466CA
:100B8800E0FBA3E475F0011206C9A9F0FA12059C6E
:100B9800F5FD90A46AE024FEF090A469E034FFF02B
:100BA800D2FE20FEFD90A469E0FEA3E0FF4E700394
:100BB800020D02C3EF9404EE94004003020C90EE81
:100BC8007022EF14601614600D147018D2FBD2FA5C
:100BD800D2F9C2F8800ED2FBD2FA8004D2FBC2FA54
:100BE800C2F9C2F890A469E0FEA3E0FFEE60030238
:100BF8000C89EF146076146047146003020C899026
:100C0800A466E0FBA3E475F0011206C9A9F0FA1284
:100C1800059CF5FA90A466E0FBA3E475F0011206C2
:100C2800C9A9F0FA12059CF5FB90A466E0FBA3E4C1
:100C380075F0011206C9A9F0FA12059CF5FC80416D
:100C480090A466E0FBA3E475F0011206C9A9F0FAC6
:100C580012059CF5FA90A466E0FBA3E475F0011276
:100C680006C9A9F0FA12059CF5FB801590A466E068
:100C7800FBA3E475F0011206C9A9F0FA12059CF568
:100C8800FAD2FE30FE7480FBD2FBD2FAD2F9D2F847
:100C980090A466E0FBA3E475F0011206C9A9F0FA76
:100CA80012059CF5FA90A466E0FBA3E475F0011226
:100CB80006C9A9F0FA12059CF5FB90A466E0FBA30F
:100CC800E475F0011206C9A9F0FA12059CF5FC902A
:100CD800A466E0FBA3E475F0011206C9A9F0FA12B4
:100CE800059CF5FDD2FE20FEFD90A46AE024FCF0F0
:100CF80090A469E034FFF0020BADE4F5F8D2AF221E
:100D080090A466EBF0A3EAF0A3E9F0AD07AC069077
:100D1800A466E0FBA3E0FAA3E04A4B7003020F4F7E
:100D2800A3E0FEA3E0FF4E7003020F4FEEC313FED5
:100D3800EF132DFFEE3CFED3EF94FEEE94FF40033D
:100D4800020F4FC2AFED5401FBECC313FCED13FDD2
:100D5800AE047810CEC313CE13D8F9F5F1ECF5F242
:100D6800AF058FF3E4F5F875F401D2FF30FCFDD23E
:100D7800FDEB6401707D90A469E07004A3E0640158
:100D8800700AC2FBC2FAD2F9C2F88008C2FBC2FAE2
:100D9800D2F9D2F8D2FE20FEFD90A469E07004A337
:100DA800E0640190A466701BE0FBA3E475F00112F7
:100DB80006C9A9F0FAE5FC1205E290A46AE024FF4E
:100DC800020F3FE0FBA3E475F0011206C9A9F0FA8F
:100DD800E5FC1205E290A466E0FBA3E475F00112BD
:100DE80006C9A9F0FAE5FD1205E290A46AE024FE1E
:100DF800020F3F90A469E0FEA3E0FF4E7003020FCC
:100E08004AC3EF9404EE94004003020ED8EE702219
:100E1800EF14601614600D147018D2FBD2FAD2F9D0
:100E2800C2F8800ED2FBD2FA8004D2FBC2FAC2F911
:100E3800C2F8D2FE20FEFD90A469E0FEA3E0FFEE1A
:100E48006003020F4AEF14607014604414600302D8
:100E58000F4A90A466E0FBA3E475F0011206C9A945
:100E6800F0FAE5FA1205E290A466E0FBA3E475F057
:100E7800011206C9A9F0FAE5FB1205E290A466E0A2
:100E8800FBA3E475F0011206C9A9F0FAE5FC803B62
:100E980090A466E0FBA3E475F0011206C9A9F0FA74
:100EA800E5FA1205E290A466E0FBA3E475F00112EE
:100EB80006C9A9F0FAE5FB801290A466E0FBA3E45A
:100EC80075F0011206C9A9F0FAE5FA1205E2807276
:100ED800D2FBD2FAD2F9D2F8D2FE20FEFD90A46657
:100EE800E0FBA3E475F0011206C9A9F0FAE5FA12CD
:100EF80005E290A466E0FBA3E475F0011206C9A917
:100F0800F0FAE5FB1205E290A466E0FBA3E475F0B5
:100F1800011206C9A9F0FAE5FC1205E290A466E000
:100F2800FBA3E475F0011206C9A9F0FAE5FD120564
:100F3800E290A46AE024FCF090A469E034FFF00297
:100F48000DFBE4F5F8D2AF22418080004280820098
:100F58000041808100428084000042808600004277
:100F68008088000044A4290000000041A4280061F2
:100F780000A229000000000000000000000000009E
:100F88000000000000000000000000000000000059
:100F98000000000000000000000000000000000049
:100FA8000000000000000000000000000000000039
:100FB8000000000000000000000000000000000029
:100FC8000000000000000000000000000000000019
:100FD8000000000000000000000000000000000009
:100FE80000000000000000000000000000000000F9
:100FF80000000000000000000000000000000000E9
:1010080000000000000000000000000000000000D8
:1010180000000000000000000000000000000000C8
:1010280000000000000000000000000000000000B8
:1010380000000000000000000000000000000000A8
:101048000000000000000000000000000000000098
:101058000000000000000000000000000000000088
:101068000000000000000000000000000000000078
:1010780000000060FFA3290000000000000000003D
:101088000000000000000000000000000000000058
:101098000000000000000000000000000000000048
:1010A8000000000000000000000000000000000038
:1010B8000000000000000000000000000000000028
:1010C8000000000000000000000000000000000018
:1010D8000000000000000000000000000000000008
:1010E80000000000000000000000000000000000F8
:1010F80000000000000000000000000000000000E8
:1011080000000000000000000000000000000000D7
:1011180000000000000000000000000000000000C7
:1011280000000000000000000000000000000000B7
:1011380000000000000000000000000000000000A7
:101148000000000000000000000000000000000097
:101158000000000000000000000000000000000087
:101168000000000000000000000000000000000077
:1011780000000000000042A486000041A48501424E
:10118800A47F5AA541A46B0042A49400000078579C
:101198007CA47D017BFF7A1F79187E007F021205EF
:1011A800767B017AA4795590A469E4F0A37402F0DF
:1011B8007F9C7E00120D0890A455E0645A7004A329
:1011C800E064A5600302134590A459F0A3F0D2008F
:1011D800785B7CA47D017BFF7A1F791AFE7F07125A
:1011E80005767B017AA4796290A469E4F0A374027D
:1011F800F07F9D7E00120D0890A462E0FCA3E0FD44
:10120800EC90A459F0E0FF75F00A84C454F0FEEFA6
:1012180075F00A84EE25F090A45BF090A459EDF0E7
:10122800E0FF75F00A84C454F0FEEF75F00A84EE0E
:1012380025F090A45CF07B017AA4796290A469E41B
:10124800F0A37402F07F9E7E00120D0890A462E065
:10125800FCA3E0FDEC90A459F0E0FF75F00A84C40B
:1012680054F0FEEF75F00A84EE25F090A45DF0903E
:10127800A459EDF0E0FF75F00A84C454F0FEEF7550
:10128800F00A84EE25F090A45FF07B017AA47962DD
:1012980090A469E4F0A37402F07F9F7E00120D0809
:1012A80090A462E0FCA3E0FDEC90A459F0E0FF7587
:1012B800F00A84C454F0FEEF75F00A84EE25F0902D
:1012C800A460F090A459EDF0E0FF75F00A84C454CE
:1012D800F0FEEF75F00A84EE25F090A461F07B0132
:1012E8007AA4795790A469E4F0A304F07F9C7E0067
:1012F800120ABB30004712195C7F1012199A90A489
:1013080061E0FF12199A90A460E0FF12199A90A464
:101318005FE0FF12199A90A45EE0FF12199A90A458
:101328005DE0FF12199A90A45CE0FF12199A90A44C
:101338005BE0FF12198F121CF1C20080B62290A444
:1013480038EBF090A437EDF0EF24D0FEE4340790AA
:10135800A43AF0A3CEF0EDFF64016005EF640270DB
:101368001590A437E0240CF090A43BE024FFF09003
:10137800A43AE034FFF090A43AE0FEA3E0FFC3945F
:10138800D8EE94064034BE0610BFD80D90A437E0BE
:10139800C3940974809480402190A43AE064067054
:1013A80004A3E064D8706590A437E06409705DA375
:1013B800E0C3940374809480505290A437E0FB24D7
:1013C80001FFE433FE7C007D031206167D0512063C
:1013D8007DAD07EB75F002A4FFA3E07A002FFFEACA
:1013E80035F0CF2DCF3EFE90A43AE0FCA3E0FD2FD0
:1013F800FBEC3EFAAE04ED7802CEC313CE13D8F957
:101408002BFFEA3ECF2406CF3400807C90A437E03F
:101418002401FFE433FE7C007D031206167D0512CD
:10142800067DAC06AD07A3E02401FBE433FA90A4E3
:1014380037E075F002A42BFFE5F03ACF2DCF3CFE44
:1014480090A43AE0FCA3E0FD2FFBEC3EFAAE04EDDD
:101458007802CEC313CE13D8F92BFBEA3EFA90A438
:101468003AE0FEA3E0FF7C007D64120628C3EB9FF0
:10147800FBEA9EFA90A43AE0FEA3E0FF7C017D908F
:10148800120628EF2BFFEE3AFE7C007D0712062895
:1014980090A439EDF090A439E0FF22782F7CA47D48
:1014A800017BFF7A1F79107E007F081205761219DA
:1014B80095121CFB121DEF7F6512199A7C06ECD35E
:1014C800940074809480401512002E742F2CF5829D
:1014D800E434A4F583EFF01200161C80E112002E0C
:1014E80090A42FEFF0121E91121D00E4FCECC3949F
:1014F80003748094805030742F2CF582E434A4F562
:1015080083E0FFC4540FFE90A42DF0EF540FFFA307
:10151800F0EE75F00AA42FFF742F2CF582E434A4A2
:10152800F583EFF00C80C67C04ECC39407748094B8
:10153800805030742F2CF582E434A4F583E0FFC486
:10154800540FFE90A42DF0EF540FFFA3F0EE75F0AA
:101558000AA42FFF742F2CF582E434A4F583EFF04E
:101568000C80C690A42FE0FFA3E0FDA3E0FB1213BC
:101578004690A432EFF07B017AA4792F90A469E415
:10158800F0A37402F07F107E00120ABB7B017AA4DC
:10159800793190A469E4F0A37402F07F117E0012FF
:1015A8000ABB7B017AA4793390A469E4F0A374029E
:1015B800F07F127E00120ABB7B017AA4793590A4D1
:1015C80069E4F0A37402F07F137E00020ABB90A4C2
:1015D8003CEBF0A3EAF0A3E9F0E490A447F0A3F011
:1015E800A3F0A3F0C390A446E0940790A445E09428
:1015F8000050037F022290A43CE0FBA3E0FAA3E0A2
:10160800F912059C645A60037F03229000011205B9
:10161800B564A560037F03229000021205B5240378
:10162800FFE433FE90A447F0A3EFF0C390A446E094
:101638009F90A445E09E4072E490A449F0A3F090E6
:10164800A447E0FEA3E0FFA3E0FCA3E0FDC39FECFA
:101658009E503C90A43CE0FBA3E0FAA3E0F91205FD
:101668009CFF90A43FE0FBA3E0FAA3E0F98D828CF5
:1016780083EF1205F490A43DE475F0011206B390CF
:10168800A44AE004F070B890A449E004F080B09057
:10169800A447E0F9A3E0FF90A442E0FBA3E0FAA38B
:1016A800E0C98FF01206DF7F01227F0222AEAD90E3
:1016B800A46BE0FD14601E04703AEE6457600302E8
:1016C8001792746D2DF582E434A4F583EEF090A49E
:1016D8006B7401F022EE701690A46BE0246DF58215
:1016E800E434A4F583EEF090A46B7402F022E49045
:1016F800A46BF02290A46BE0246DF582E434A4F589
:1017080083EEF090A46BE004F0E0D3940F7480941F
:10171800804077E4F090A46EE0FF90A46DE02FFF86
:1017280090A46FE02FFFA3E02FFFA3E02FFFA3E01B
:101738002FFFA3E02FFFA3E02FFFA3E02FFFA3E0DD
:101748002FFFA3E0FD2FFFA3E0FE2FFFA3E02FFF55
:10175800A3E02FFFA3E02FFFA3E0B5072DEE702A2B
:1017680090A476E07B00FAED7E007810C333CE3388
:10177800CED8F9FFEE4AFEEF4BFF90A475E0FDEFDF
:101788004DFF90A47DEEF0A3EFF022E490A43CF08E
:10179800A3F090A22DE0FEA3E0FDEDFF90A43CEEA7
:1017A800F0A3EFF090A22CE06482703D7B017AA256
:1017B800792F90A22BE024FDFEE434FF90A469F079
:1017C800A3CEF090A43CE0FEA3E0FF120ABB90A2D7
:1017D8002B7403F090A22D744FF0A3744BF07B018F
:1017E8007AA2792990A22B803E90A22CE064837083
:1017F8003D7B017AA2793090A22FE075F002A4FF18
:1018080090A469E5F0F0A3EFF090A43CE0FEA3E01B
:10181800FF120D0890A22FE025E0FF90A22BE02FE9
:10182800F07B017AA27929E02403FD121B95227529
:101838009401759502758E0075930075C87075C909
:101848006075F800787FE4F6D8FD7581200218935A
:10185800021E16E493A3F8E493A34003F68001F272
:1018680008DFF48029E493A3F85407240CC8C33391
:10187800C4540F4420C8834004F456800146F6DF60
:10188800E4800B0102040810204080900F50E47E91
:10189800019360BCA3FF543F30E509541FFEE49355
:1018A800A360010ECF54C025E060A840B8E493A31C
:1018B800FAE493A3F8E493A3C8C582C8CAC583CA47
:1018C800F0A3C8C582C8CAC583CADFE9DEE780BEFF
:1018D800782D7CA47D017BFF7A1E79F87E007F102D
:1018E800120576E490A43DF0A3F0A3F0A3F0A3F0D2
:1018F800A3F090A42AE0FDFEA3E0FBF582E582FFB9
:1019080090A441EEF0A3EFF090A229745AF0A374CA
:10191800A5F090A42CE0FC25E0240390A22BF0A3D2
:101928007483F0A3EDF0A3EBF07B017AA2792FEC9E
:1019380075F002A4FF90A469E5F0F0A3EFF090A47D
:1019480041E0FEA3E0FF120D0890A441E0FEA3E0F1
:10195800FF021D53121DEF7F6412199A7F3012196E
:101968009AE4FF12199A121D00121DEF7F641219D2
:101978009A7F1C12199A7F4812199AE4FF12199A31
:101988007F4012199A7F1012199A121D00121DEF2A
:101998007F64AE07120066E4FDEDC394087480947A
:1019A800805019EE30E704D2B38002C2B3EE25E0CE
:1019B800FE121DC6C2B2121DCB0D80DD021CCEC0A8
:1019C800E0C083C082C0D075D000C004C007C2AFD9
:1019D800309837AF99908082E0FCA3E0248AF582A2
:1019E80074803CF583EFF0908083E004F0700690FB
:1019F8008082E004F0C3908083E094A0908082E02D
:101A0800941F4004E4F0A3F0C298309907C299905B
:101A18008080E4F0D2AFD007D004D0D0D082D08379
:101A2800D0E03290A488EEF0A3EFF0788A7CA47D11
:101A3800017BFF7A1E79F47E007F0412057690A45C
:101A480088E0FCA3E0FDEC90A48CF0A3EDF07B0112
:101A58007AA4798A90A469E4F0A37404F07F847E60
:101A680000120ABB7F057E00121D337B017AA47920
:101A78008A90A469E4F0A304F07F847E00120D0824
:101A880090A48AE070DE22C0E0C083C082C0D07516
:101A9800D000C004C007C2AFE59B30E028AF9C90DF
:101AA8008084E0FCA3E0242AF58274A03CF583EF4F
:101AB800F0908085E004F07006908084E004F05394
:101AC8009BFE539BFEE59B30E10B539BFD539BFD17
:101AD800908081E4F043C901D2AFD007D004D0D0C0
:101AE800D082D083D0E0321219957F1D12199A1234
:101AF8001D00121DEF7F6512199A12002EAC0712F5
:101B0800001612002E121E91121D00EC54026402DF
:101B1800702E12195C7F1012199AE4FF12199AE4B8
:101B2800FF12199AE4FF12199A7F0112199A7F017C
:101B380012199A7F0112199A7F1712198F121CF124
:101B480022782D7CA47D017BFF7A1E79F07E007FB0
:101B5800041205767B017AA4792990A469E4F0A39C
:101B68007404F07F007E0F120D0890A429E0645AD7
:101B780070187B017AA4792D90A469F0A37404F0FD
:101B88007F007E0F120ABB7F01227F002290A43EB5
:101B9800EBF0A3EAF0A3E9F090A43EE0FBA3E0FA9F
:101BA800A3E04A4B6027ED6024AF051DEF601E904F
:101BB800A43EE0FBA3E0FAA3E0F912059CFF121E85
:101BC8003890A43FE475F0011206B380DC2290A49B
:101BD8008EEBF0A3EAF0A3E9F090A48EE0FBA3E07B
:101BE800FAA3E04A4B6027ED6024AF051DEF601EA5
:101BF80090A48EE0FBA3E0FAA3E0F912059CFF1283
:101C08001E4690A48FE475F0011206B380DC229082
:101C1800A491EBF0A3EAF0A3E9F090A491E0FBA370
:101C2800E0FAA3E04A4B6027ED6024AF051DEF60A2
:101C38001E90A491E0FBA3E0FAA3E0F912059CFF33
:101C4800121E6E90A492E475F0011206B380DC2295
:101C5800E490A444F0A3F0A3F0A3F0AE04AF05C051
:101C680003C00290A441E0FBA3E0FAA3E0F8AC02B1
:101C7800AD03D002D0031205767F012243B710438B
:101C8800C940E4908080F0908082F0A3F075D880FD
:101C980075985053877F75BA0375AAE4D29CD2AC65
:101CA80022C0E0C083C082C2AF758CBC758ACD905B
:101CB800A487E004F0700690A486E004F0D2AFD0C8
:101CC80082D083D0E032120026121DC4E4FEEEC397
:101CD800943274809480500930B306121DCB0E8064
:101CE800EDC2B2121DCB0200667F1E12199AE4FFE4
:101CF80012199A7F1012199A120066C2B3D2B21240
:101D08001DCBD2B3121DCB0200267B017AA4799495
:101D180090A469E4F0A37402F07F147E00120D0809
:101D280090A495E014700312006A22E4FDFCC3ED50
:101D38009FEC9E5015E4FBFA0BBB00010ABA1CF895
:101D4800BBE8F50DBD00010C80E422EF6440700390
:101D5800EE64146015EF64417003EE6414600BE4E4
:101D6800B50707EEB414031208172243B7C043C9D6
:101D780020E4908081F0908084F0A3F0759BD0756A
:101D8800BB03759DC8759A0122C390A487E094F49B
:101D980090A486E09401400A1214A3E490A486F06B
:101DA800A3F02275F90175B7C375BCA375BD2A7573
:101DB800BE0CE4F580F590F5A0F5B022D2B3121D63
:101DC800CBD2B2E4FFEFC394507480948050030FD9
:101DD80080F32275C870E4F5CDF5CC75CBBC75CA17
:101DE800CD43A820D2C822120066D2B3D2B2121DA7
:101DF800CBC2B3121DCBC2B2021DCBE4908086F0D9
:101E0800A3F0759680759780F5D975E7E022121EC4
:101E180027121AEF121E7A121D12121D9180F5C296
:101E2800AF121E62121DAB121E9C12005BD2AF22B3
:101E3800908080E0640160F87401F08F99229080AE
:101E480081E0640160F87401F08F9C224389017578
:101E58008CBC758ACDD2A9D28C22E4F5A8F5B8F548
:101E68009AF5A9F5B9228FACE5A7540160FA53A7F2
:101E7800FE22121B49EF60031218D80201007BFFF3
:101E88007A1E79A57D15021B95120066121DC4C223
:101E9800B2021DCB121C84121E0302006E55617221
:101EA8007432496E697420446F6E65212121313284
:101EB80033005561727433496E697420446F6E65DE
:101EC800212121005561727434496E697420446F70
:101ED8006E65212121005561727435496E6974203F
:101EE800446F6E6521212100000000005A010000A6
:101EF80000000000000000000000000000000000DA
:101F080000000000000000000000000000000000C9
:091F1800000000000000000000C0
:00000001FF
