:10000000022A8E020006C2AFD2AF32022938C2AF36
:10001000D2AF3202000E120066C2B312346EC2B208
:10002000023473022EDC53BEF72232023574120002
:1000300026E4FDEDC3940874809480501B12346E46
:10004000EE25E0FE30B3054401FE8004EE54FEFED2
:10005000C2B21234730D80DBAF06221235150234A2
:02006000AD22CF
:0700630002002A43BE08223F
:10006B00022D68E4908088F0A3F075A78075AB80B3
:10007B00F5AE75AFE0D2BD22022FA41234C17F645E
:10008B001200C47F301200C4E4FF1200C41233B557
:10009B001234C17F641200C47F1C1200C47F48124B
:1000AB0000C4E4FF1200C47F401200C47F10120092
:1000BB00C41233B51234C17F64AE07120066E4FD7F
:1000CB00EDC39408748094805019EE30E704D2B3DA
:1000DB008002C2B3EE25E0FE12346EC2B21234734C
:0C00EB000D80DD02338390A230E0FF2284
:1000F800FFFF4457494E54350204C1E86480F8E9CB
:1001080033E83360110460F0ED33EC337009E8FC38
:10011800E9FDEAFEEBFF220460DED3EB9FEA9EE9ED
:100128009DE8C2E78CF0C2F795F0400CE8CCF8E9FE
:10013800CDF9EACEFAEBCFFB12048C85D0F0580447
:10014800700320D5B3E80470075002B2D50204CB7F
:1001580092D5EC0460F7E4CCC0E0C398F8603B9417
:10016800186008400DD0E0FB0204A3E4FBFAC9FCC8
:100178008028E830E406E4C9FBE4CAFCE830E3057B
:10018800E4C9CACBFCE854076010F8C3E913F9EADC
:1001980013FAEB13FBEC13FCD8F130F52FC3E49CF6
:1001A800FCEF9BFFEE9AFEED99FDD0E0FBEF4E4D84
:1001B8004C701222DB030204C8EC2CFCEF33FFEE78
:1001C80033FEED33FDED30E7EB0204A3EF2BFFEE3A
:1001D8003AFEED39FDD0E0FB50130BBB00030204DF
:1001E800CBED13FDEE13FEEF13FFEC13FC0204A39B
:1001F800EC4D6011E8497017ED33EC3304600DE401
:10020800FCFFFEFD22E933E8330470F80204C11252
:10021800048C58046009E4CC248150062850090253
:1002280004CB2840030204C8C0E0EB4A7044B980FC
:1002380006D0E0FB0204B7EF4E701CBD8008EBFF50
:10024800EAFEE9FD80EBE98DF0A4FEE5F00202E1AB
:10025800E9CDF9EAFEEBFFEF89F0A4FCE5F0CE89E1
:10026800F0A42EFFE435F0CD89F0A42DFEE435F09E
:100278008067EF4E7005BD80D780C3EF8BF0A4ACCC
:10028800F0EE8BF0A42CFCE435F0F8EF8AF0A42C07
:10029800E5F038FCE433CB8DF0A42CFCE5F03BF81A
:1002A800EE8AF0A42CFCE5F038F8E433CF89F0A40A
:1002B8002CFCE5F038CF3400CE89F0A42FFFE5F010
:1002C8003EFEE433C98DF0A42EFEE5F039CD8AF068
:1002D800A42FFFE5F03EFEE43DFD33D0E0FB5007E0
:1002E8000BBB000F0204CBEC2CFCEF33FFEE33FE0C
:1002F800ED33FD0204A30204CBEC5D046005E8596C
:100308000470030204C112048C580460F6EC4860BF
:10031800F2EC7004FDFEFF22C860DB2481C850099E
:10032800C398600250060204C89850CAF582E929A9
:100338004B4A7005AB820204B775F0007C1A7880CE
:10034800C3EF9BEE9AED99400DC3EF9BFFEE9AFE2B
:10035800ED99FDE842F0DC23ACF0D0E0FFD0E0FE00
:10036800D0E0FDAB8220E7101BEB60BAEC2CFCEF71
:1003780033FFEE33FEED33FD0204A3E803F830E764
:1003880005C0F075F000EF2FFFEE33FEED33FD40B2
:10039800B830E7C280AA74F8CC6480CCC86480C83E
:1003A800F58204604FC3EB9FF5F0EA9E42F0E99DA9
:1003B80042F0E89C45F0603C501DE5825FFFE58215
:1003C800D313CB5BCBF42B5582FB50280ABA0024FD
:1003D80009B9002008801DE5825BFBE582D313CFB5
:1003E8005FCFF4C3132F5582FF50090EBE00050DD1
:1003F800BD00010CC3EB9FF5F0EA9E42F0E99D4277
:10040800F0E89C45F06007CC4820E701B3EC227582
:10041800F020800E75F010800575F0087D007E00D4
:100428007F003392D530D503120874EC334010EFB7
:1004380033FFEE33FEED33FDEC33FCD5F0ED22E572
:10044800F0247EA2D513CC92E7CDCEFF22EDD2E7E1
:10045800CD33EC3392D524814006E4FFFEFDFC2227
:10046800FCE4CFCECDCC24E0501174FF80EDC3CC9A
:1004780013CCCD13CDCE13CECF13CF0470F030D51F
:10048800DE020874E9D2E7C933E833F892D5EDD231
:10049800E7CD33EC33FC5002B2D522EC30E7100F35
:1004A800BF000C0EBE00080DBD00040BEB6014A2CB
:1004B800D5EB13FCED92E7FD2274FFFCFDFEFF2255
:1004C800E480F8A2D574FF13FC7D80E480EFED335F
:1004D800EC33601004700FED547F7005740292E0E5
:1004E800227404220422E422ED33EC33600A0470FF
:1004F80003BD8004ECB2E7FC22C0E0EFFBEEFAEDAE
:10050800F9ECF81201F8D0E0F5F0EFFBEEFAEDF9AE
:10051800ECF81208A6A3A3A3A3E8C0E0E9C0E0EAA8
:10052800C0E0EBC0E0C0F01201F81208C2A3A3A318
:10053800A3120107D0F0D0E0FBD0E0FAD0E0F9D068
:10054800E0F8D5F0D422E709F608DFFA8046E70993
:10055800F208DFFA803E88828C83E709F0A3DFFA8D
:100568008032E309F608DFFA8078E309F208DFFA57
:10057800807088828C83E309F0A3DFFA8064898223
:100588008A83E0A3F608DFFA805889828A83E0A389
:10059800F208DFFA804C80D280FA80C680D4806965
:1005A80080F28033801080A680EA809A80A880DA62
:1005B80080E280CA803389828A83ECFAE493A3C8F4
:1005C800C582C8CCC583CCF0A3C8C582C8CCC583B6
:1005D800CCDFE9DEE7800D89828A83E493A3F608FD
:1005E800DFF9ECFAA9F0EDFB2289828A83ECFAE0C4
:1005F800A3C8C582C8CCC583CCF0A3C8C582C8CC63
:10060800C583CCDFEADEE880DB89828A83E493A3B2
:10061800F208DFF980CC88F0EF60010E4E60C388E5
:10062800F0ED2402B4040050B9F582EB2402B404BE
:100638000050AF232345822390059E73BB01068992
:10064800828A83E0225002E722BBFE02E3228982EB
:100658008A83E49322BB010CE58229F582E5833A7B
:10066800F583E0225006E92582F8E622BBFE06E97A
:100678002582F8E222E58229F582E5833AF583E4CA
:100688009322BB010689828A83F0225002F722BB9B
:10069800FE01F322F8BB010DE58229F582E5833AD4
:1006A800F583E8F0225006E92582C8F622BBFE054C
:1006B800E92582C8F222EF8DF0A4A8F0CF8CF0A42F
:1006C80028CE8DF0A42EFE22BC000BBE0029EF8D93
:1006D800F084FFADF022E4CCF875F008EF2FFFEEC0
:1006E80033FEEC33FCEE9DEC984005FCEE9DFE0FCE
:1006F800D5F0E9E4CEFD22EDF8F5F0EE8420D21C29
:10070800FEADF075F008EF2FFFED33FD4007985070
:1007180006D5F0F222C398FD0FD5F0EA22C2D5EC37
:1007280030E709B2D5E4C39DFDE49CFCEE30E71543
:10073800B2D5E4C39FFFE49EFE1206D0C3E49DFD3C
:10074800E49CFC80031206D030D507C3E49FFFE485
:100758009EFE22C5F0F8A3E028F0C5F0F8E5821562
:100768008270021583E038F022A3F8E0C5F025F086
:10077800F0E582158270021583E0C838F0E822BBE4
:10078800010A89828A83F0E5F0A3F0225006F7096E
:10079800A7F01922BBFE06F3E5F009F3192275F05C
:1007A80008758200EF2FFFEE33FECD33CDCC33CC6E
:1007B800C58233C5829BED9AEC99E58298400CF589
:1007C80082EE9BFEED9AFDEC99FC0FD5F0D6E4CEB7
:1007D800FBE4CDFAE4CCF9A88222B800C1B90059EB
:1007E800BA002DEC8BF084CFCECDFCE5F0CBF978B8
:1007F80018EF2FFFEE33FEED33FDEC33FCEB33FB4C
:1008080010D703994004EB99FB0FD8E5E4F9FA22D5
:100818007818EF2FFFEE33FEED33FDEC33FCC933D0
:10082800C910D7059BE99A4007EC9BFCE99AF90F98
:10083800D8E0E4C9FAE4CCFB2275F010EF2FFFEE04
:1008480033FEED33FDCC33CCC833C810D7079BEC4F
:100858009AE899400AED9BFDEC9AFCE899F80FD5C7
:10086800F0DAE4CDFBE4CCFAE4C8F922C3E49FFF54
:10087800E49EFEE49DFDE49CFC22EB9FF5F0EA9EDD
:1008880042F0E99D42F0E89C45F022E8600FEFC392
:1008980033FFEE33FEED33FDEC33FCD8F122E49365
:1008A800FC740193FD740293FE740393FF22E0F835
:1008B800A3E0F9A3E0FAA3E0FB22E493F874019320
:1008C800F9740293FA740393FB22ECF0A3EDF0A3FE
:1008D800EEF0A3EFF022A8828583F0D083D08212B5
:1008E80008F51208F51208F51208F5E473E493A365
:1008F800C583C5F0C583C8C582C8F0A3C583C5F044
:10090800C583C8C582C822EF4E6012EF60010EEDA4
:10091800BB010B89828A83F0A3DFFCDEFA2289F00F
:100928005007F709DFFCA9F022BBFEFCF309DFFC46
:10093800A9F022E490A47CF0A3F0A3F0A3F0A3F024
:10094800A3F0A3F0A3F0A304F0A37480F0A3748A27
:10095800F0E4A3F0A3F078897CA47D017BFF7A35CD
:1009680079E1FE7F0212061ED3908083E094029004
:100978008082E094007F0040027F0190A482EFF023
:1009880090A482E07003020CE090A4847401F0A3A8
:100998007480F0A3748AF090A484E0FBA3E0FAA327
:1009A800E0F9120644645A603A908082E0FEA3E0BF
:1009B800248AF974803EFA7B01C003C002C001900A
:1009C800A484A3E0FAA3E0F9C3D082D083D0E0E9FD
:1009D8009582EA9583500C90A485E475F00112077E
:1009E8005B80B4908082E0FEA3E0248AF974803EA4
:1009F800FA7B01C003C002C00190A484E0FBA3E01D
:100A0800FAA3E0F9D082D083D0E06B7008E9658260
:100A18007003EA65837007908082F0A3F02290A4A7
:100A280084A3E0FAA3E0C3948AFFEA9480FEC3900B
:100A38008083E09FFF908082E09E90A480F0A3EFE7
:100A4800F090A487E024FE605524026003020B2284
:100A58007E007FFF7D007B017AA1792A12090FE4CD
:100A680090A488F090A483F090A47CF0A3F0A3F065
:100A7800A3F090A47EE0FEA3E0FFC39403EE9400ED
:100A8800501C74892FF58274A43EF583E4F090A479
:100A98007FE004F070DC90A47EE004F080D490A4A1
:100AA8008E7401F0A374A1F0A3742AF0A37401F06A
:100AB800A374A4F0A3747CF090A480E0FFA3E0905A
:100AC800A494CFF0A3EFF090A484E0FBA3E0FAA3F2
:100AD800E0F912277A90A488EFF0A3F06401703A45
:100AE80090A47CE0FCA3E0FD90A4907401F0A374B2
:100AF800A2F0A37429F07B017AA1792A123332EF8C
:100B08007003020BC01229EA7E017F007D007B0181
:100B18007AA2792912090F020BC090A489E0640314
:100B28006003020BC090A485804490A484E0FBA3DA
:100B3800E0FAA3E0F9120644645A603A908082E031
:100B4800FEA3E0248AF974803EFA7B01C003C00248
:100B5800C00190A484A3E0FAA3E0F9C3D082D083B3
:100B6800D0E0E99582EA9583500C90A485E475F06D
:100B78000112075B80B4908082E0FEA3E0248AF92A
:100B880074803EFA7B01C003C002C00190A484E0D7
:100B9800FBA3E0FAA3E0F9D082D083D0E06B700821
:100BA800E965827003EA65837008908082F0A3F09B
:100BB800800690A4837401F090A488E06401600921
:100BC80090A483E07003020CD890A484A3E0FAA355
:100BD800E0C3948AFFEA9480FEC3908083E09FFF7D
:100BE800908082E09EFE90A47CE0FCA3E0FDC3EF31
:100BF8009DFFEE9CFE90A480F0A3EFF0D39400EE4E
:100C080094004068E490A47EF0A3F090A480E0FEF5
:100C1800A3E0FF90A47EE0FCA3E0FDC39FEC9E5000
:100C28004390A484E0FBA3E0FAA3E0F990A47CE05D
:100C3800FEA3E0FFE92FF9EA3EFAE92DF9EA3CFACA
:100C4800120644FF748A2DF58274803CF583EFF018
:100C5800E412068A90A47FE004F070AF90A47EE0CE
:100C680004F080A790A4827401F08052E490A47EDE
:100C7800F0A3F090A484A3E0FAA3E0C3948AFFEA67
:100C88009480FE90A47DE02FFF90A47CE03EFE902F
:100C9800A47EE0FCA3E0FDC39FEC9E501C748A2D4B
:100CA800F58274803CF583E4F090A47FE004F07052
:100CB800C290A47EE004F080BAE490A482F090A4EC
:100CC80080E0FFA3E0908082CFF0A3EFF0020988D4
:100CD800E490A482F00209882290A4CDE0FEA3E06B
:100CE800FF90A442E0FD12155F7B017AA47962901F
:100CF800A4B8E4F0A37404F07F007E26121A0E90C4
:100D0800A4CDE0FCA3E0FDE412041CE4FBFA797A2C
:100D1800784412030190A4741208D290A442E064AB
:100D2800016003020E1490A4CDE0FCA3E0FDE412E0
:100D3800041CE4FBFA797A784412030190A447E092
:100D4800F8A3E0F9A3E0FAA3E0FB12010790A4518D
:100D58001208D2E4FFFEFD7C4090A443E0F8A3E033
:100D6800F9A3E0FAA3E0FB1201F890A451E0F8A37C
:100D7800E0F9A3E0FAA3E0FB1201F890A4661208D8
:100D8800D290A443E0FCA3E0FDA3E0FEA3E0FF9023
:100D9800A451E0F8A3E0F9A3E0FAA3E0FB1201F8FC
:100DA800C004C005C006C00790A48E1208DE40002B
:100DB8000000D007D006D005D00412205390A45CC0
:100DC800E0F8A3E0F9A3E0FAA3E0FB1201F890A48D
:100DD800701208D290A451E0FCA3E0FDA3E0FEA3AA
:100DE800E0FF90A470E0F8A3E0F9A3E0FAA3E0FB29
:100DF8001201F8E4FBFA7940784012030190A478D4
:100E08001208D27B017AA47978020F9590A442E067
:100E180064026003020ED690A4CDE0FCA3E0FDE4DA
:100E280012041CE4FBFA797A784412030190A4476F
:100E3800E0F8A3E0F9A3E0FAA3E0FB12010790A40D
:100E4800511208D2E4FFFEFD7C4090A431E0F8A3E3
:100E5800E0F9A3E0FAA3E0FB1201F890A451E0F84E
:100E6800A3E0F9A3E0FAA3E0FB1201F890A466124C
:100E780008D290A431E0FCA3E0FDA3E0FEA3E0FFCC
:100E880090A451E0F8A3E0F9A3E0FAA3E0FB120173
:100E9800F8C004C005C006C00790A48E1208DE4042
:100EA800000000D007D006D005D00412205390A42B
:100EB8005CE0F8A3E0F9A3E0FAA3E0FB1201F890E4
:100EC800A4701208D27B017AA47970020F9590A4BD
:100ED80042E064036003020FA590A4CDE0FCA3E008
:100EE800FDE412041CE4FBFA797A784412030190B9
:100EF800A447E0F8A3E0F9A3E0FAA3E0FB12010796
:100F080090A4511208D2E4FFFEFD7C4090A443E077
:100F1800F8A3E0F9A3E0FAA3E0FB1201F890A451CA
:100F2800E0F8A3E0F9A3E0FAA3E0FB1201F890A42B
:100F3800661208D290A443E0FCA3E0FDA3E0FEA360
:100F4800E0FF90A451E0F8A3E0F9A3E0FAA3E0FBE6
:100F58001201F8C004C005C006C00790A48E12088C
:100F6800DE40000000D007D006D005D00412205380
:100F780090A45CE0F8A3E0F9A3E0FAA3E0FB120177
:100F8800F890A4701208D27B017AA4797090A4B862
:100F9800E4F0A37404F07F507E28121A0E7B017AC5
:100FA800A4797490A4B8E4F0A37404F07F007E25BB
:100FB800121A0E7B017AA4796690A4B8E4F0A3749F
:100FC80004F07F407E28021A0E4180800042808211
:100FD8000000418081004280840000428086000039
:100FE800428088000044A4F50000000044A42900C1
:100FF80000000041A428006100A2290000000000B0
:1010080000000000000000000000000000000000D8
:1010180000000000000000000000000000000000C8
:1010280000000000000000000000000000000000B8
:1010380000000000000000000000000000000000A8
:101048000000000000000000000000000000000098
:101058000000000000000000000000000000000088
:101068000000000000000000000000000000000078
:101078000000000000000000000000000000000068
:101088000000000000000000000000000000000058
:101098000000000000000000000000000000000048
:1010A8000000000000000000000000000000000038
:1010B8000000000000000000000000000000000028
:1010C8000000000000000000000000000000000018
:1010D8000000000000000000000000000000000008
:1010E80000000000000000000000000000000000F8
:1010F800000000000000000000000060FFA32900BD
:1011080000000000000000000000000000000000D7
:1011180000000000000000000000000000000000C7
:1011280000000000000000000000000000000000B7
:1011380000000000000000000000000000000000A7
:101148000000000000000000000000000000000097
:101158000000000000000000000000000000000087
:101168000000000000000000000000000000000077
:101178000000000000000000000000000000000067
:101188000000000000000000000000000000000057
:101198000000000000000000000000000000000047
:1011A8000000000000000000000000000000000037
:1011B8000000000000000000000000000000000027
:1011C8000000000000000000000000000000000017
:1011D8000000000000000000000000000000000007
:1011E80000000000000000000000000000000000F7
:1011F800000000000000000000000000000042A401
:10120800E8000041A4E70142A4E15AA542A4BA00BB
:101218000042A441000044A4740000000044A44318
:101228003EE9518344A45C40490E5644A4313D3202
:10123800D5D044A4473ECD37BE44A4510000000099
:1012480044A4700000000044A4660000000044A408
:10125800780000000044A4620000000042A46E0070
:101268000044A4550000000044A4350000000044D8
:10127800A44D0000000044A42D0000000042A46C0E
:10128800000042A44B000042A460000142A45A009E
:10129800B041A46A0B41A46B0544A4D3000000002C
:1012A80048A4D7000000010002000344A4CF0000B6
:1012B800000000789A7CA47D017BFF7A3579E37E73
:1012C800007F0612061E7B017AA4799290A4B8E4E6
:1012D800F0A37404F07F007E13121C5B7B017AA4D8
:1012E800799690A4B8E4F0A37404F07F057E1312F5
:1012F8001C5B90A493E0FFE4FCFDFE7810120893B9
:10130800C004C005C006C00790A492E0FFE4FCFD3D
:10131800FE7818120893D003D002D001D000EF4B0A
:10132800FFEE4AFEED49FDEC48FCC004C005C006CE
:10133800C00790A494E0FFE4FCFDFE78081208932F
:10134800D003D002D001D000EF4BFBEE4AFAED49B2
:10135800F9EC48F8A3E0FFEB4FFFEAFEE9FDE8FCF3
:1013680090A4A01208D290A497E0FFE4FCFDFE78B8
:1013780010120893C004C005C006C00790A496E0E8
:10138800FFE4FCFDFE7818120893D003D002D001C8
:10139800D000EF4BFFEE4AFEED49FDEC48FCC004DF
:1013A800C005C006C00790A498E0FFE4FCFDFE78E5
:1013B80008120893D003D002D001D000EF4BFBEE07
:1013C8004AFAED49F9EC48F8A3E0FFEB4FFFEAFED3
:1013D800E9FDE8FC90A4E31208D2E47B64FAF9F88A
:1013E80090A4E3E0FCA3E0FDA3E0FEA3E0FF120766
:1013F800E290A49FEBF0E47B64FAF9F890A4E3E0B0
:10140800FCA3E0FDA3E0FEA3E0FF1207E2E47B6497
:10141800FAF9F81207E290A49EEBF0E47B107A2721
:10142800F9F890A4E3E0FCA3E0FDA3E0FEA3E0FF4D
:101438001207E2E47B64FAF9F81207E290A49DEB44
:10144800F0E47B64FAF9F890A4A0E0FCA3E0FDA323
:10145800E0FEA3E0FF1207E290A49CEBF0E47B64BB
:10146800FAF9F890A4A0E0FCA3E0FDA3E0FEA3E055
:10147800FF1207E2E47B64FAF9F81207E290A49BF2
:10148800EBF0E47B107A27F9F890A4A0E0FCA3E045
:10149800FDA3E0FEA3E0FF1207E2E47B64FAF9F89B
:1014A8001207E290A49AEBF0A3E0FFD394007480B3
:1014B8009480406ED3EF940C748094805064A3E0C1
:1014C800FF941F748094805054EF9400748094802B
:1014D800404BA3E0D39417748094805039C3748030
:1014E80094804032A3E0D3943B748094805020C30E
:1014F800748094804019A3E0D3943B748094805006
:1015080007C3748094805020E490A49FF08019E46D
:1015180090A49EF08012E490A49DF0800B90A49C6F
:10152800800390A49B7401F07B017AA4799A90A41B
:10153800B8E4F0A37406F07F9D7E00121A0E7B01BA
:101548007AA479E190A4B8E4F0A37402F07F9C7EB9
:1015580000121A0E021EA390A47CEDF0AB07AA0697
:10156800E4A3F0A31208DE0000000090A48612088D
:10157800DE00000000AE02AF037C007D0A1206D038
:10158800AC06AD07E412041C90A4821208D2E4FF52
:10159800FE7D207C4190A482E0F8A3E0F9A3E0FA64
:1015A800A3E0FB12039E60025023E4FFFE7DA07CB3
:1015B8004090A482E0F8A3E0F9A3E0FAA3E0FB12CC
:1015C800039E400990A47D7401F002169CE4FFFE7E
:1015D8007DA07C4190A482E0F8A3E0F9A3E0FAA3FF
:1015E800E0FB12039E60025025E4FFFE7D207C4153
:1015F80090A482E0F8A3E0F9A3E0FAA3E0FB1203C9
:101608009E600B400990A47D7402F002169CE4FFD2
:10161800FE7DC87C4290A482E0F8A3E0F9A3E0FA3A
:10162800A3E0FB12039E60025024E4FFFE7DA07C31
:101638004190A482E0F8A3E0F9A3E0FAA3E0FB124A
:10164800039E600A400890A47D7403F08046E4FF7E
:10165800FE7D967C4390A482E0F8A3E0F9A3E0FA2B
:10166800A3E0FB12039E60025024E4FFFE7DC87CC9
:101678004290A482E0F8A3E0F9A3E0FAA3E0FB1209
:10168800039E600A400890A47D7404F0800690A42C
:101698007D7405F090A47DE024FE603914605F1429
:1016A80070030217312403600302178790A48E1277
:1016B80008DEBFCCCCCD90A482E0FCA3E0FDA3E083
:1016C800FEA3E0FF12205390A4861208D27FDC7E8E
:1016D800AF7D0E805090A48E1208DEBFECCCCD906A
:1016E800A482E0FCA3E0FDA3E0FEA3E0FF122053E8
:1016F80090A4861208D27FB87E287D80802790A487
:101708008E1208DEBFE7AE1490A482E0FCA3E0FDD1
:10171800A3E0FEA3E0FF12205390A4861208D27F14
:10172800407E167D617C47802990A48E1208DEC019
:1017380000000090A482E0FCA3E0FDA3E0FEA3E08B
:10174800FF12205390A4861208D27F047EF67D07EC
:101758007C4890A486E0F8A3E0F9A3E0FAA3E0FBB4
:101768001201F890A47E1208D290A47EE0FCA3E0B7
:10177800FDA3E0FEA3E0FF90A4621208D2800690C9
:10178800A47D740AF090A47CE0FF64016005EF6416
:1017980003701F90A462E0FCA3E0FDA3E0FEA3E0B9
:1017A800FF7B9A7A997919783F1201F890A462120E
:1017B80008D22290A435E0FCA3E0FDA3E0FEA3E05C
:1017C800FFEC4D4E4F7003021A0D90A4351208DE3F
:1017D8000000000090A455E0F8A3E0F9A3E0FAA304
:1017E800E0FBC000C001C002C003E4FBFA797A78CC
:1017F8004490A462E0FCA3E0FDA3E0FEA3E0FF1296
:101808000301D003D002D001D00012010790A455E3
:101818001208D290A42DE0FCA3E0FDA3E0FEA3E013
:101828002401FFE43EFEE43DFDE43CFC90A42D12BF
:1018380008D2E47F0AFEFDFC90A42DE0F8A3E0F9AD
:10184800A3E0FAA3E0FBC3120882402990A42D125A
:1018580008DE0000000090A44DE0FCA3E0FDA3E03A
:10186800FEA3E02401FFE43EFEE43DFDE43CFC90E1
:10187800A44D1208D290A4CDE0FEA3E0FF1228598F
:1018880090A4D3E0FCA3E0FDA3E0FEA3E0FF1204D4
:1018980055AB07AA067C007D3C1206D090A47EEECC
:1018A800F0A3EFF07C007D3CAF03AE021206D090AF
:1018B800A47CECF0A3EDF07B017AA4797E90A4B827
:1018C800E4F0A37402F07F007E28121A0E7B017ADE
:1018D800A4797C90A4B8E4F0A37402F07F057E2874
:1018E800121A0E90A44DE0FCA3E0FDA3E0FEA3E0D5
:1018F800FFE412041790A4D3E0F8A3E0F9A3E0FAF8
:10190800A3E0FB120107120455AB07AA067C007D71
:101918003C1206D090A47EEEF0A3EFF07C007D3C54
:10192800AF03AE021206D090A47CECF0A3EDF07BDE
:10193800017AA4797C90A4B8E4F0A37402F07F251E
:101948007E28121A0E7B017AA4797E90A4B8E4F05E
:10195800A37402F07F207E28121A0E7B017AA479E4
:101968005590A4B8E4F0A37404F07F007E27121AFF
:101978000EE4FFFE7D7A7C4490A455E0F8A3E0F9DC
:10198800A3E0FAA3E0FB1201F890A4CFE0F8A3E0EB
:10199800F9A3E0FAA3E0FB12039E501EE4FBFA79D8
:1019A8007A784490A4CFE0FCA3E0FDA3E0FEA3E096
:1019B800FF12030190A4551208D27F007E507DC308
:1019C8007C4790A455E0F8A3E0F9A3E0FAA3E0FB74
:1019D8001201F890A4CFE0F8A3E0F9A3E0FAA3E09D
:1019E800FB12030112045590A46EEEF0A3EFF07BF6
:1019F800017AA4796E90A4B8E4F0A37402F07F3061
:101A08007E28121A0E2290A4B5EBF0A3EAF0A3E9FF
:101A1800F0AD07AC0690A4B5E0FBA3E0FAA3E04A5A
:101A28004B7003021C5AA3E0FEA3E0FF4E700302B2
:101A38001C5AEEC313FEEF132DFFEE3CFED3EF94BA
:101A4800FEEE94FF4003021C5AC2AFED5401FBECBA
:101A5800C313FCED13FDAE047810CEC313CE13D818
:101A6800F9F5F1ECF5F2AF058FF3E4F5F875F4014B
:101A7800D2FF30FCFDC2FDEB6401707C90A4B8E09D
:101A8800FEA3E0FF64014E700AC2FBC2FAD2F9C29B
:101A9800F88008C2FBC2FAD2F9D2F8EF64014E907E
:101AA800A4B5701AE0FBA3E475F001120771A9F060
:101AB800FA120644F5FC90A4B9E024FF802DE0FB5F
:101AC800A3E475F001120771A9F0FA120644F5FCB7
:101AD80090A4B5E0FBA3E475F001120771A9F0FA30
:101AE800120644F5FD90A4B9E024FEF090A4B8E0F5
:101AF80034FFF0D2FE20FEFD90A4B8E0FEA3E0FF84
:101B08004E7003021C55C3EF9404EE940040030288
:101B18001BE3EE7022EF14601614600D147018D2D7
:101B2800FBD2FAD2F9C2F8800ED2FBD2FA8004D2E4
:101B3800FBC2FAC2F9C2F890A4B8E0FEA3E0FFEE37
:101B48006003021BDCEF1460761460471460030224
:101B58001BDC90A4B5E0FBA3E475F001120771A9A2
:101B6800F0FA120644F5FA90A4B5E0FBA3E475F088
:101B780001120771A9F0FA120644F5FB90A4B5E02A
:101B8800FBA3E475F001120771A9F0FA120644F5F7
:101B9800FC804190A4B5E0FBA3E475F00112077145
:101BA800A9F0FA120644F5FA90A4B5E0FBA3E4758F
:101BB800F001120771A9F0FA120644F5FB8015909E
:101BC800A4B5E0FBA3E475F001120771A9F0FA12BD
:101BD8000644F5FAD2FE30FE7480FBD2FBD2FAD26C
:101BE800F9D2F890A4B5E0FBA3E475F001120771EF
:101BF800A9F0FA120644F5FA90A4B5E0FBA3E4753F
:101C0800F001120771A9F0FA120644F5FB90A4B589
:101C1800E0FBA3E475F001120771A9F0FA1206447B
:101C2800F5FC90A4B5E0FBA3E475F001120771A9D7
:101C3800F0FA120644F5FDD2FE20FEFD90A4B9E0AC
:101C480024FCF090A4B8E034FFF0021B00E4F5F89F
:101C5800D2AF2290A4B5EBF0A3EAF0A3E9F0AD0768
:101C6800AC0690A4B5E0FBA3E0FAA3E04A4B7003EE
:101C7800021EA2A3E0FEA3E0FF4E7003021EA2EE26
:101C8800C313FEEF132DFFEE3CFED3EF94FEEE944C
:101C9800FF4003021EA2C2AFED5401FBECC313FCCC
:101CA800ED13FDAE047810CEC313CE13D8F9F5F1B9
:101CB800ECF5F2AF058FF3E4F5F875F401D2FF30D7
:101CC800FCFDD2FDEB6401707D90A4B8E07004A324
:101CD800E06401700AC2FBC2FAD2F9C2F88008C2F5
:101CE800FBC2FAD2F9D2F8D2FE20FEFD90A4B8E0E9
:101CF8007004A3E0640190A4B5701BE0FBA3E47535
:101D0800F001120771A9F0FAE5FC12068A90A4B94D
:101D1800E024FF021E92E0FBA3E475F001120771B4
:101D2800A9F0FAE5FC12068A90A4B5E0FBA3E475D5
:101D3800F001120771A9F0FAE5FD12068A90A4B91C
:101D4800E024FE021E9290A4B8E0FEA3E0FF4E70CD
:101D580003021E9DC3EF9404EE94004003021E2B61
:101D6800EE7022EF14601614600D147018D2FBD2B6
:101D7800FAD2F9C2F8800ED2FBD2FA8004D2FBC2A2
:101D8800FAC2F9C2F8D2FE20FEFD90A4B8E0FEA384
:101D9800E0FFEE6003021E9DEF14607014604414AF
:101DA8006003021E9D90A4B5E0FBA3E475F0011248
:101DB8000771A9F0FAE5FA12068A90A4B5E0FBA328
:101DC800E475F001120771A9F0FAE5FB12068A9092
:101DD800A4B5E0FBA3E475F001120771A9F0FAE5D8
:101DE800FC803B90A4B5E0FBA3E475F001120771F9
:101DF800A9F0FAE5FA12068A90A4B5E0FBA3E47507
:101E0800F001120771A9F0FAE5FB801290A4B5E081
:101E1800FBA3E475F001120771A9F0FAE5FA1206BE
:101E28008A8072D2FBD2FAD2F9D2F8D2FE20FEFD15
:101E380090A4B5E0FBA3E475F001120771A9F0FACC
:101E4800E5FA12068A90A4B5E0FBA3E475F0011246
:101E58000771A9F0FAE5FB12068A90A4B5E0FBA386
:101E6800E475F001120771A9F0FAE5FC12068A90F0
:101E7800A4B5E0FBA3E475F001120771A9F0FAE537
:101E8800FD12068A90A4B9E024FCF090A4B8E034CE
:101E9800FFF0021D4EE4F5F8D2AF2278A67CA47DAF
:101EA800017BFF7A3579F17E007F0212061E7B01E5
:101EB8007AA479A490A4B8E4F0A37402F07F9C7E7D
:101EC80000121C5B90A4A4E0645A7004A3E064A50B
:101ED800600302205290A4A8F0A3F0D20078AA7C54
:101EE800A47D017BFF7A3579F3FE7F0712061E7BFE
:101EF800017AA479B190A4B8E4F0A37402F07F9DAC
:101F08007E00121C5B90A4B1E0FCA3E0FDEC90A461
:101F1800A8F0E0FF75F00A84C454F0FEEF75F00AEB
:101F280084EE25F090A4AAF090A4A8EDF0E0FF7547
:101F3800F00A84C454F0FEEF75F00A84EE25F090A0
:101F4800A4ABF07B017AA479B190A4B8E4F0A374AF
:101F580002F07F9E7E00121C5B90A4B1E0FCA3E01F
:101F6800FDEC90A4A8F0E0FF75F00A84C454F0FEDC
:101F7800EF75F00A84EE25F090A4ACF090A4A8EDDB
:101F8800F0E0FF75F00A84C454F0FEEF75F00A849F
:101F9800EE25F090A4AEF07B017AA479B190A4B8B4
:101FA800E4F0A37402F07F9F7E00121C5B90A4B142
:101FB800E0FCA3E0FDEC90A4A8F0E0FF75F00A8433
:101FC800C454F0FEEF75F00A84EE25F090A4AFF04B
:101FD80090A4A8EDF0E0FF75F00A84C454F0FEEF79
:101FE80075F00A84EE25F090A4B0F07B017AA4790C
:101FF800A690A4B8E4F0A304F07F9C7E00121A0E09
:102008003000471200867F101200C490A4B0E0FF91
:102018001200C490A4AFE0FF1200C490A4AEE0FF89
:102028001200C490A4ADE0FF1200C490A4ACE0FF7D
:102038001200C490A4ABE0FF1200C490A4AAE0FF71
:102048001200B91233A6C20080B62290A48A1208E0
:10205800D2E4FFFE7D807C3F90A48AE0F8A3E0F9FB
:10206800A3E0FAA3E0FB12039E700690A48A022163
:10207800AD90A48AE0FCA3E0FDA3E0FEA3E0FF127C
:1020880004D6FBA3E0FCA3E0FDA3E0FEA3E0FF125F
:1020980004D6FFB40108E4FFFE7D807C3F22EF6494
:1020A800046029EB64046024EBB40130E4FFFEFD16
:1020B800FC90A48EE0F8A3E0F9A3E0FAA3E0FB12F9
:1020C800039E60084006E4FFFEFDFC2290A48E12E9
:1020D80008DEFFFFFFFF90A48E0221ADE490A492DA
:1020E800F0A3F0FFFEFDFC90A48AE0F8A3E0F9A3BA
:1020F800E0FAA3E0FB12039E505F90A48EE0FCA3DD
:10210800E0FDA3E0FEA3E0FF12045590A492EEF0D8
:10211800A3EFF0FDCCEECCEC12041CC8ECC8C9ED62
:10212800C9CAEECACBEFCB90A48EE0FCA3E0FDA316
:10213800E0FEA3E0FF120103E4FBFAF9F812039EA4
:10214800708A90A48AE0FCA3E0FDA3E0FEA3E0FF70
:102158001204F090A48A1208D290A48AE0FCA3E0AA
:10216800FDA3E0FEA3E0FF12247D90A48EE0F8A377
:10217800E0F9A3E0FAA3E0FB1201F8122B6790A4A0
:102188008E1208D290A493E030E01790A48EE0FC61
:10219800A3E0FDA3E0FEA3E0FF1204F090A48E12DA
:1021A80008D290A48EE0FCA3E0FDA3E0FEA3E0FF2C
:1021B8002290A487EBF090A486EDF0EF24D0FEE403
:1021C800340790A489F0A3CEF0EDFF64016005EF19
:1021D8006402701590A486E0240CF090A48AE02490
:1021E800FFF090A489E034FFF090A489E0FEA3E01A
:1021F800FFC394D8EE94064034BE0610BFD80D90A5
:10220800A486E0C3940974809480402190A489E056
:1022180064067004A3E064D8706590A486E064093D
:10222800705DA3E0C3940374809480505290A48698
:10223800E0FB2401FFE433FE7C007D031206BE7D33
:1022480005120725AD07EB75F002A4FFA3E07A009D
:102258002FFFEA35F0CF2DCF3EFE90A489E0FCA3F6
:10226800E0FD2FFBEC3EFAAE04ED7802CEC313CEB0
:1022780013D8F92BFFEA3ECF2406CF3400807C9098
:10228800A486E02401FFE433FE7C007D031206BE31
:102298007D05120725AC06AD07A3E02401FBE43356
:1022A800FA90A486E075F002A42BFFE5F03ACF2D52
:1022B800CF3CFE90A489E0FCA3E0FD2FFBEC3EFAA6
:1022C800AE04ED7802CEC313CE13D8F92BFBEA3E49
:1022D800FA90A489E0FEA3E0FF7C007D641206D09A
:1022E800C3EB9FFBEA9EFA90A489E0FEA3E0FF7C83
:1022F800017D901206D0EF2BFFEE3AFE7C007D07A1
:102308001206D090A488EDF090A488E0FF22787E91
:102318007CA47D017BFF7A3579E97E007F0812066F
:102328001E1200BF1233B01234C17F651200C47C84
:1023380006ECD3940074809480401512002E747EAD
:102348002CF582E434A4F583EFF01200161C80E12A
:1023580012002E90A47EEFF01235601233B5E4FC23
:10236800ECC39403748094805030747E2CF582E41E
:1023780034A4F583E0FFC4540FFE90A47CF0EF541E
:102388000FFFA3F0EE75F00AA42FFF747E2CF582E0
:10239800E434A4F583EFF00C80C67C04ECC3940706
:1023A800748094805030747E2CF582E434A4F583D4
:1023B800E0FFC4540FFE90A47CF0EF540FFFA3F08D
:1023C800EE75F00AA42FFF747E2CF582E434A4F590
:1023D80083EFF00C80C690A47EE0FFA3E0FDA3E0AD
:1023E800FB1221B990A481EFF07B017AA4797E9049
:1023F800A4B8E4F0A37402F07F107E00121A0E7BDA
:10240800017AA4798090A4B8E4F0A37402F07F1153
:102418007E00121A0E7B017AA4798290A4B8E4F0A7
:10242800A37402F07F127E00121A0E7B017AA4793F
:102438008490A4B8E4F0A37402F07F137E00021A1B
:102448000E3E9248DA3ECCCCCD3F2AAAAB400000E3
:10245800003F8000003F9837F03FB504F33FD74472
:10246800FC3E3172173EB172173F0515913EDE5B97
:10247800D9D2008002C200EDD2E7F8CD33EC3304A4
:10248800700BBD800592D50204CB0204C140FBD37A
:102498001460F2F5F07C3FEE7A00C39496C8948BF2
:1024A80040230AC89469C8941A401A0AC89468C88C
:1024B800941F40110AC8945AC89425400805F07A18
:1024C80000CDC2E7CDC0F090A4941208D2EA23232D
:1024D800C0E02459F582E43424F5831208C21201BD
:1024E80007ECC0E0EDC0E0EEC0E0EFC0E01208A6E7
:1024F80090A4941208B6120103D0E0FBD0E0FAD001
:10250800E0F9D0E0B2E7F812030190A4941208D2DF
:10251800902449740312050190A4941208B612017C
:10252800F8D0E0600F2465F582E43424F5831208BE
:10253800C212010790A4941208D2D0E0C3947FFD80
:10254800E49400FC12041C7B187A727931783F12EB
:1025580001F890A4941208B612010730000B7BD939
:102568007A5B79DE783E1201F8227B017AA47980C1
:1025780090A4B8E4F0A37402F07F007E51121C5BB3
:1025880090A480E0FEA3E0FFEE704CEF24FE6019FB
:1025980014602214602B1460342404703A90A4CF81
:1025A8001208DE43FA0000802E90A4CF1208DE4401
:1025B8007A0000802290A4CF1208DE44BB800080FD
:1025C8001690A4CF1208DE451C4000800A90A4CFC4
:1025D8001208DE457A000090A4CDE0FEA3E0FF12C9
:1025E800285990A4D3E0FCA3E0FDA3E0FEA3E0FFFC
:1025F800120455AB07AA067C007D3C1206D090A4B5
:102608007EEEF0A3EFF07C007D3CAF03AE02120635
:10261800D090A47CECF0A3EDF07B017AA4797E90B5
:10262800A4B8E4F0A37402F07F207E28121A0E7B6F
:10263800017AA4797E90A4B8E4F0A37402F07F0034
:102648007E28121A0E7B017AA4797C90A4B8E4F053
:10265800A37402F07F057E28121A0E7B017AA479F2
:102668007C90A4B8E4F0A37402F07F257E28021AB7
:102678000EAEAD90A4BAE0FCA3E0FDEC704BED14F7
:102688006020047044EE6457600302277974BD2DFE
:10269800F58274A43CF583EEF090A4BAE4F0A304A8
:1026A800F022EE701C90A4BAE0FCA3E024BDF582F1
:1026B80074A43CF583EEF090A4BAE4F0A37402F09D
:1026C80022E490A4BAF0A3F02290A4BAE0FCA3E01C
:1026D80024BDF58274A43CF583EEF090A4BBE0041D
:1026E800F0700690A4BAE004F0D390A4BBE0940F75
:1026F80090A4BAE094004079E4F0A3F090A4BEE07E
:10270800FF90A4BDE02FFF90A4BFE02FFFA3E02F10
:10271800FFA3E02FFFA3E02FFFA3E02FFFA3E02FED
:10272800FFA3E02FFFA3E02FFFA3E0FD2FFFA3E00F
:10273800FE2FFFA3E02FFFA3E02FFFA3E02FFFA3AF
:10274800E0B5072DEE702A90A4C6E07B00FAED7E76
:10275800007810C333CE33CED8F9FFEE4AFEEF4BE4
:10276800FF90A4C5E0FDEF4DFF90A4CDEEF0A3EFE0
:10277800F02290A48BEBF0A3EAF0A3E9F0E490A494
:1027880096F0A3F0A3F0A3F0C390A495E09407906B
:10279800A494E0940050037F022290A48BE0FBA352
:1027A800E0FAA3E0F9120644645A60037F0322901A
:1027B800000112065D64A560037F032290000212E7
:1027C800065D2403FFE433FE90A496F0A3EFF0C364
:1027D80090A495E09F90A494E09E4072E490A49801
:1027E800F0A3F090A496E0FEA3E0FFA3E0FCA3E032
:1027F800FDC39FEC9E503C90A48BE0FBA3E0FAA3A2
:10280800E0F9120644FF90A48EE0FBA3E0FAA3E0EF
:10281800F98D828C83EF12069C90A48CE475F001EC
:1028280012075B90A499E004F070B890A498E004B3
:10283800F080B090A496E0F9A3E0FF90A491E0FBAB
:10284800A3E0FAA3E0C98FF01207877F01227F0275
:1028580022AD07AC06E412041CE4FBFA79207841A7
:1028680012030190A4821208D2E4FFFE7DC87C43C3
:1028780090A482E0F8A3E0F9A3E0FAA3E0FB120336
:102888009E5024E4FFFE7DA07C4090A482E0F8A343
:10289800E0F9A3E0FAA3E0FB12039E600A40089067
:1028A800A4DF7401F0800690A4DF7405F090A4E022
:1028B800E06403602590A4DFE014706D90A462E0EA
:1028C800F8A3E0F9A3E0FAA3E0FB90A4CFE0FCA30F
:1028D800E0FDA3E0FEA3E0FF804690A4DFE01470D3
:1028E80048E4FFFE7D7A7C4490A455E0F8A3E0F923
:1028F800A3E0FAA3E0FB1201F8A804A905AA06AB15
:102908000790A4CFE0FCA3E0FDA3E0FEA3E0FF1244
:10291800010390A462E0F8A3E0F9A3E0FAA3E0FBC6
:1029280012030190A4D30208D290A4DF7406F02207
:10293800C0E0C0F0C083C082C0D075D000C000C065
:1029480001C002C003C004C005C006C007C2AF75FD
:102958008CBC758ACD90A4E9E004F0700690A4E8D8
:10296800E004F090A4F5E0FCA3E0FDA3E0FEA3E002
:102978002401FFE43EFEE43DFDE43CFC90A4F51296
:1029880008D2E47F64FEFDFC90A4F5E0F8A3E0F92A
:10299800A3E0FAA3E0FBC3120882402990A435E023
:1029A800FCA3E0FDA3E0FEA3E02401FFE43EFEE477
:1029B8003DFDE43CFC90A4351208D290A4F5120821
:1029C800DE00000000D2AFD007D006D005D004D07A
:1029D80003D002D001D000D0D0D082D083D0F0D0A4
:1029E800E032E490A48BF0A3F090A22DE0FEA3E0E7
:1029F800FDEDFF90A48BEEF0A3EFF090A22CE06425
:102A080082703D7B017AA2792F90A22BE024FDFEF3
:102A1800E434FF90A4B8F0A3CEF090A48BE0FEA31A
:102A2800E0FF121A0E90A22B7403F090A22D744F9F
:102A3800F0A3744BF07B017AA2792990A22B803EF7
:102A480090A22CE06483703D7B017AA2793090A239
:102A58002FE075F002A4FF90A4B8E5F0F0A3EFF022
:102A680090A48BE0FEA3E0FF121C5B90A22FE02550
:102A7800E0FF90A22BE02FF07B017AA27929E024D5
:102A880003FD1231C422759401759502758E007587
:102A9800930075C87075C96075F800787FE4F6D83A
:102AA800FD758120022AEA023499E493A3F8E4939D
:102AB800A34003F68001F208DFF48029E493A3F829
:102AC8005407240CC8C333C4540F4420C88340049B
:102AD800F456800146F6DFE4800B0102040810205A
:102AE8004080900FD1E47E019360BCA3FF543F3037
:102AF800E509541FFEE493A360010ECF54C025E0FE
:102B080060A840B8E493A3FAE493A3F8E493A3C8B5
:102B1800C582C8CAC583CAF0A3C8C582C8CAC58346
:102B2800CADFE9DEE780BE33DA929E35B16011373D
:102B38007FE5FE392184893AAEC3FF3C1D955B3D94
:102B48006358473E75FDF03F3172183F800000C260
:102B5800D50204CB0204C1BD80FA50F30204C8EDCB
:102B680033EC330460F17B3B7AAA79B8783F1201E1
:102B7800F8ED33EC3392D5247B5011A2D570DB509D
:102B88000BED448024045004A2D580CEEFFBEEFA6E
:102B9800EDF9ECF8120455EFF582F404FC12042167
:102BA800120107C082902B2F7409120510ED33CC47
:102BB80033D0F092D525F0A2D57001C313CC13FD04
:102BC8002290A4F0EFF078F17CA47D017BFF7A35A8
:102BD80079C57E007F0412061E7B017AA479F190E4
:102BE800A4B8E4F0A37404F07F807E00121C5B900C
:102BF800A4F1745AF090A4F0E0FD3395E0FCED6484
:102C0800014C700990A4F4E054F7F0800DED6402D3
:102C18004C703F90A4F4E04408F07B017AA479F169
:102C280090A4B8E4F0A37404F07F807E00121A0E1A
:102C38007F057E001233C77B017AA479F190A4B88E
:102C4800E4F0A304F07F807E00121C5B90A4F1E006
:102C580070DE2290A46CE07004A3E06401707C90A4
:102C6800A442E0640170077D027F041232FB90A445
:102C780042E090A43CF090A460E0FFA3E090A43F61
:102C8800CFF0A3EFF090A46BE090A43EF090A43DA9
:102C98007401F090A45AE0FEA3E0FF7B017AA479C6
:102CA8003990A4B8E4F0A37408F0121A0E90A46A3C
:102CB800E090A43EF0E490A43DF090A45AE0FEA376
:102CC800E0FF7B017AA4793990A4B8E4F0A37408F2
:102CD800F0121A0EE490A46CF0A3F022787C7CA485
:102CE8007D017BFF7A3579D17E007F1012061EE4C4
:102CF80090A48CF0A3F0A3F0A3F0A3F0A3F090A409
:102D08002AE0FDFEA3E0FBF582E582FF90A490EEA9
:102D1800F0A3EFF090A229745AF0A374A5F090A440
:102D28002CE0FC25E0240390A22BF0A37483F0A3ED
:102D3800EDF0A3EBF07B017AA2792FEC75F002A4F9
:102D4800FF90A4B8E5F0F0A3EFF090A490E0FEA304
:102D5800E0FF121C5B90A490E0FEA3E0FF022E654A
:102D6800C0E0C0F0C083C082C0D075D000C000C031
:102D780001C002C003C004C005C006C007E4FFC20A
:102D8800AFE5AB54016401703B122679AFAD90807A
:102D980088E0FCA3E02400F58274803CF583EFF022
:102DA800908089E004F07006908088E004F053ABCE
:102DB800FEC3908089E09480908088E0940040046D
:102DC800E4F0A3F0D2AFD007D006D005D004D003EA
:102DD800D002D001D000D0D0D082D083D0F0D0E0C3
:102DE8003290A442E0640170077D027F041232C46D
:102DF80090A442E090A43CF0E4A3F090A46AE09090
:102E0800A43EF090A44BE0FFA3E090A43FCFF0A332
:102E1800EFF090A45AE0FEA3E0FF7B017AA4793991
:102E280090A4B8E4F0A37408F0121A0E90A43D74AC
:102E380001F090A46BE090A43EF090A45AE0FEA3A9
:102E4800E0FF7B017AA4793990A4B8E4F0A3740870
:102E5800F0121A0E90A46CE4F0A304F022AD07ACB3
:102E68000690A442E024F8604B24077066ED6410D5
:102E78007003EC6430702C1200F1EF640170139051
:102E8800A4E0E0640570047405F02290A4E07403E3
:102E9800F0221200F1EF90A4E070047404F02274A0
:102EA80001F022ED64207003EC6430702690A4E0F9
:102EB8007406F022ED64407003EC64146015ED6450
:102EC800417003EC6414600BE4B50507ECB414031B
:102ED8001212BB22C0E0C083C082C0D075D000C02F
:102EE80004C007C2AF309837AF99908082E0FCA346
:102EF800E0248AF58274803CF583EFF0908083E0CB
:102F080004F07006908082E004F0C3908083E0941F
:102F1800A0908082E0941F4004E4F0A3F0C29830AF
:102F28009907C299908080E4F0D2AFD007D004D03E
:102F3800D0D082D083D0E03290A4EAEEF0A3EFF0B4
:102F480078EC7CA47D017BFF7A3579CD7E007F0407
:102F580012061E90A4EAE0FCA3E0FDEC90A4EEF0BB
:102F6800A3EDF07B017AA479EC90A4B8E4F0A37403
:102F780004F07F847E00121A0E7F057E001233C78C
:102F88007B017AA479EC90A4B8E4F0A304F07F84E0
:102F98007E00121C5B90A4ECE070DE22C0E0C083CF
:102FA800C082C0D075D000C004C007C2AFE59B3056
:102FB800E028AF9C908084E0FCA3E0242AF582748A
:102FC800A03CF583EFF0908085E004F070069080D7
:102FD80084E004F0539BFE539BFEE59B30E10B53CA
:102FE8009BFD539BFD908081E4F043C901D2AFD093
:102FF80007D004D0D0D082D083D0E0321217BBE4FF
:10300800FFFE7D7A7C4490A455E0F8A3E0F9A3E0A4
:10301800FAA3E0FB1201F890A4CFE0F8A3E0F9A32B
:10302800E0FAA3E0FB12039E602B4029E4FFFEFDBB
:10303800FC90A4D3E0F8A3E0F9A3E0FAA3E0FB1224
:10304800039E6011400FC390A46FE0946490A46E37
:10305800E09400400690A4E07405F02290A442E0B9
:10306800FF90A459E06F6008EFF090A4E07401F0BD
:1030780090A4E0E0B407005040903088F828287306
:1030880002309D0230A30230AC0230AF0230B202EF
:1030980030B50230B890A4E07401F090A4E0740256
:1030A800F01235770225720230040200610234837F
:1030B8001230C290A4E07401F02290A4551208DEE8
:1030C800000000007B017AA4795590A4B8E4F0A32D
:1030D8007404F07F007E27121A0EE490A46EF0A309
:1030E800F07B017AA4796E90A4B8F0A37402F07F03
:1030F800307E28121A0E90A44D1208DE000000003F
:103108007B017AA479D790A4B8E4F0A37402F07F85
:10311800107E30021A0E1200BF7F1D1200C4123337
:10312800B51234C17F651200C412002EAC0712001C
:103138001612002E1235601233B5EC540264027078
:103148002E1200867F101200C4E4FF1200C4E4FFB0
:103158001200C4E4FF1200C47F011200C47F0112F0
:1031680000C47F011200C47F171200B91233A622CF
:10317800787C7CA47D017BFF7A3579C97E007F0449
:1031880012061E7B017AA4792990A4B8E4F0A374EE
:1031980004F07F007E0F121C5B90A429E0645A7033
:1031A800187B017AA4797C90A4B8F0A37404F07F0A
:1031B800007E0F121A0E7F01227F002290A48DEB51
:1031C800F0A3EAF0A3E9F090A48DE0FBA3E0FAA352
:1031D800E04A4B6027ED6024AF051DEF601E90A408
:1031E8008DE0FBA3E0FAA3E0F9120644FF1234F9DC
:1031F80090A48EE475F00112075B80DC2290A4F99C
:10320800EBF0A3EAF0A3E9F090A4F9E0FBA3E0FA5D
:10321800A3E04A4B6027ED6024AF051DEF601E90C8
:10322800A4F9E0FBA3E0FAA3E0F9120644FF123583
:103238000790A4FAE475F00112075B80DC2290A4E1
:10324800FCEBF0A3EAF0A3E9F090A4FCE0FBA3E018
:10325800FAA3E04A4B6027ED6024AF051DEF601E1E
:1032680090A4FCE0FBA3E0FAA3E0F9120644FF12E5
:10327800353D90A4FDE475F00112075B80DC227BEC
:10328800017AA4794190A4B8E4F0A37402F07F1401
:103298007E00121C5B90A442E0FF146016146018B4
:1032A8001460152403701490A459EFF090A4E074EE
:1032B80001F0221230648000120CE12290A442E056
:1032C80090A43CF0A3EFF0A3EDF090A44BE0FFA393
:1032D800E090A43FCFF0A3EFF090A45AE0FEA3E063
:1032E800FF7B017AA4793990A4B8E4F0A37408F0BC
:1032F800021A0E90A442E090A43CF0A3EFF0A3EDD4
:10330800F090A460E0FFA3E090A43FCFF0A3EFF01B
:1033180090A45AE0FEA3E0FF7B017AA4793990A437
:10332800B8E4F0A37408F0021A0EE490A493F0A392
:10333800F0A3F0A3F0AE04AF05C003C00290A490C0
:10334800E0FBA3E0FAA3E0F8AC02AD03D002D0039F
:1033580012061E7F012243B71043C940E4908080C3
:10336800F0908082F0A3F075D88075985053877FCD
:1033780075BA0375AAE4D29CD2AC22120026123484
:103388006CE4FEEEC3943274809480500930B30626
:103398001234730E80EDC2B21234730200667F1EBF
:1033A8001200C4E4FF1200C47F101200C4120066A9
:1033B800C2B3D2B2123473D2B3123473020026E409
:1033C800FDFCC3ED9FEC9E5015E4FBFA0BBB00011E
:1033D8000ABA1CF8BBE8F50DBD00010C80E42243D5
:1033E800B7C043C920E4908081F0908084F0A3F0B6
:1033F800759BD075BB03759DC8759A012290A4FF73
:10340800EFF07B017AA479FF90A4B8E4F0A304F06C
:103418007F827E00021A0EC390A4E9E094F490A47F
:10342800E8E09401400A122316E490A4E8F0A3F01F
:1034380022E490A4E0F07B017AA479D790A4B8F0B4
:10344800A37402F07F107E30021A0E75F90175B769
:10345800C375BCA375BD2A75BE0CE4F580F590F55F
:10346800A0F5B022D2B3123473D2B2E4FFEFC39402
:10347800507480948050030F80F3227B017AA479E2
:10348800D790A4B8E4F0A37402F07F107E30021A3B
:103498000E1234E812311E123523123549123287C2
:1034A80012341F80F575C870E4F5CDF5CC75CBBC2A
:1034B80075CACD43A820D2C822120066D2B3D2B2B0
:1034C800123473C2B3123473C2B2023473E49080FC
:1034D80086F0A3F0759680759780F5D975E7E02298
:1034E800C2AF12353112345312356B12005BD2AFB2
:1034F80022908080E0640160F87401F08F99229036
:103508008081E0640160F87401F08F9C2243890196
:10351800758CBC758ACDD2A9D28C2290A439745AE4
:10352800F0A374A5F0E4A3F022E4F5A8F5B8F59AA1
:10353800F5A9F5B9228FACE5A7540160FA53A7FEA7
:1035480022123178EF6003122CE402093B7BFF7AE8
:1035580035797A7D150231C412006612346CC2B214
:1035680002347312335E1234D502006EC2C63202C0
:103578002C5B5561727432496E697420446F6E65B4
:10358800212121313233005561727433496E6974D7
:1035980020446F6E65212121005561727434496E93
:1035A800697420446F6E652121210055617274355C
:1035B800496E697420446F6E652121210000000066
:1035C80000000000005A0100000000000000000098
:1035D80000000000000000000000000000000000E3
:1035E80000000000000000000000000000000000D3
:0235F8000000D1
:00000001FF
