:100000000237BC020006C2AFD2AF32023436C2AFF2
:10001000D2AF3202000E124463C2B3124376C2B2B0
:1000200002437B023CBEAE070243DA02446743B799
:100030001043C940E4908080F0908082F0A3F07576
:10004000D88075985053877F75BA0375AAE4D29CFF
:10005000D2AC2202444F53BEF72222023DE6E4F521
:10006000A8F5B8F59AF5A9F5B92222023A0DE4905F
:100070008088F0A3F075A78075AB80F5AE75AFE012
:10008000D2BD22023D861243B57F641200C47F3088
:100090001200C4E4FF1200C41242A71243B57F64E9
:1000A0001200C47F1C1200C47F481200C4E4FF1277
:1000B00000C47F401200C47F101200C41242A71275
:1000C00043B57F64AE07124463E4FDEDC394087446
:1000D0008094805019EE30E704D2B38002C2B3EEB0
:1000E00025E0FE124376C2B212437B0D80DD024250
:0700F0005212435D02006E95
:1000F800FFFF4457494E54350204C1E86480F8E9CB
:1001080033E83360110460F0ED33EC337009E8FC38
:10011800E9FDEAFEEBFF220460DED3EB9FEA9EE9ED
:100128009DE8C2E78CF0C2F795F0400CE8CCF8E9FE
:10013800CDF9EACEFAEBCFFB12048C85D0F0580447
:10014800700320D5B3E80470075002B2D50204CB7F
:1001580092D5EC0460F7E4CCC0E0C398F8603B9417
:10016800186008400DD0E0FB0204A3E4FBFAC9FCC8
:100178008028E830E406E4C9FBE4CAFCE830E3057B
:10018800E4C9CACBFCE854076010F8C3E913F9EADC
:1001980013FAEB13FBEC13FCD8F130F52FC3E49CF6
:1001A800FCEF9BFFEE9AFEED99FDD0E0FBEF4E4D84
:1001B8004C701222DB030204C8EC2CFCEF33FFEE78
:1001C80033FEED33FDED30E7EB0204A3EF2BFFEE3A
:1001D8003AFEED39FDD0E0FB50130BBB00030204DF
:1001E800CBED13FDEE13FEEF13FFEC13FC0204A39B
:1001F800EC4D6011E8497017ED33EC3304600DE401
:10020800FCFFFEFD22E933E8330470F80204C11252
:10021800048C58046009E4CC248150062850090253
:1002280004CB2840030204C8C0E0EB4A7044B980FC
:1002380006D0E0FB0204B7EF4E701CBD8008EBFF50
:10024800EAFEE9FD80EBE98DF0A4FEE5F00202E1AB
:10025800E9CDF9EAFEEBFFEF89F0A4FCE5F0CE89E1
:10026800F0A42EFFE435F0CD89F0A42DFEE435F09E
:100278008067EF4E7005BD80D780C3EF8BF0A4ACCC
:10028800F0EE8BF0A42CFCE435F0F8EF8AF0A42C07
:10029800E5F038FCE433CB8DF0A42CFCE5F03BF81A
:1002A800EE8AF0A42CFCE5F038F8E433CF89F0A40A
:1002B8002CFCE5F038CF3400CE89F0A42FFFE5F010
:1002C8003EFEE433C98DF0A42EFEE5F039CD8AF068
:1002D800A42FFFE5F03EFEE43DFD33D0E0FB5007E0
:1002E8000BBB000F0204CBEC2CFCEF33FFEE33FE0C
:1002F800ED33FD0204A30204CBEC5D046005E8596C
:100308000470030204C112048C580460F6EC4860BF
:10031800F2EC7004FDFEFF22C860DB2481C850099E
:10032800C398600250060204C89850CAF582E929A9
:100338004B4A7005AB820204B775F0007C1A7880CE
:10034800C3EF9BEE9AED99400DC3EF9BFFEE9AFE2B
:10035800ED99FDE842F0DC23ACF0D0E0FFD0E0FE00
:10036800D0E0FDAB8220E7101BEB60BAEC2CFCEF71
:1003780033FFEE33FEED33FD0204A3E803F830E764
:1003880005C0F075F000EF2FFFEE33FEED33FD40B2
:10039800B830E7C280AA74F8CC6480CCC86480C83E
:1003A800F58204604FC3EB9FF5F0EA9E42F0E99DA9
:1003B80042F0E89C45F0603C501DE5825FFFE58215
:1003C800D313CB5BCBF42B5582FB50280ABA0024FD
:1003D80009B9002008801DE5825BFBE582D313CFB5
:1003E8005FCFF4C3132F5582FF50090EBE00050DD1
:1003F800BD00010CC3EB9FF5F0EA9E42F0E99D4277
:10040800F0E89C45F06007CC4820E701B3EC227582
:10041800F020800E75F010800575F0087D007E00D4
:100428007F003392D530D503120AB6EC334010EF73
:1004380033FFEE33FEED33FDEC33FCD5F0ED22E572
:10044800F0247EA2D513CC92E7CDCEFF22EDD2E7E1
:10045800CD33EC3392D524814006E4FFFEFDFC2227
:10046800FCE4CFCECDCC24E0501174FF80EDC3CC9A
:1004780013CCCD13CDCE13CECF13CF0470F030D51F
:10048800DE020AB6E9D2E7C933E833F892D5EDD2ED
:10049800E7CD33EC33FC5002B2D522EC30E7100F35
:1004A800BF000C0EBE00080DBD00040BEB6014A2CB
:1004B800D5EB13FCED92E7FD2274FFFCFDFEFF2255
:1004C800E480F8A2D574FF13FC7D80E480EFED335F
:1004D800EC33601004700FED547F7005740292E0E5
:1004E800227404220422E422ED33EC33600A0470FF
:1004F80003BD8004ECB2E7FC22F920E73624F9506A
:10050800037907E4F42402FBE5821582700215835F
:10051800DBF6E024FB501BE96014E4F0E582158269
:1005280070021583E004F0B40A08E4F0D9EE74010F
:10053800F00A22C2D522ED33EC3392D5FA602AB400
:10054800FF33EDC2E77BFF60067A057963E4227A20
:1005580005796C20D5047A057967224E614E002B07
:10056800494E46002D494E4600E47A08F0A3DAFCCD
:100578007B00740722C083C082ECC0E0EDC0E0EECF
:10058800C0E0EFC0E0EA75F010A4CAABF075F04D1A
:10059800A42BFBE435F0FCEA2410FAEB34C5FBECA1
:1005A80034D9FCEDC2E7FF75F056A4F42411C5F068
:1005B800F434C58FF0A42AE5F03BE43CF020E714BE
:1005C8001206C0D0E0FFD0E0FED0E0FDD0E0FC1283
:1005D80003018014F4041206C0D0E0FFD0E0FED07E
:1005E800E0FDD0E0FC1201F8D082D083E0FAEDD231
:1005F800E7CD33EC332482FBE4C3CF33CFCE33CE05
:10060800CD33CD33DBF37B0775F00A846004F0A3A8
:100618001B0AE5F0F0A38FF0740AA4FFACF08EF08B
:10062800740AA42CFEACF050010C8DF0740AA42CB2
:10063800FDE435F0F0A3DBDE740722C0E0EFFBEE4B
:10064800FAEDF9ECF81201F8D0E0F5F0EFFBEEFA6C
:10065800EDF9ECF8120AE8A3A3A3A3E8C0E0E9C007
:10066800E0EAC0E0EBC0E0C0F01201F8120B04A30E
:10067800A3A3A3120107D0F0D0E0FBD0E0FAD0E0AA
:10068800F9D0E0F8D5F0D4223F80000041200000E6
:1006980042C80000447A0000461C400047C350008E
:1006A800497424004B1896804CBEBC205A0E1BCAB5
:1006B8006753C21C749DC5AEFB60065407601C23BB
:1006C800231206EEEB543860091206DA1206E91214
:1006D80001F8ECF8EDF9EEFAEFCB22EB1206E9801F
:1006E800F1543803241C900690FE93FC0EEE93FD03
:1006F8000EEE930ECE93FF22E709F608DFFA804646
:10070800E709F208DFFA803E88828C83E709F0A3C4
:10071800DFFA8032E309F608DFFA8078E309F208A5
:10072800DFFA807088828C83E309F0A3DFFA8064A3
:1007380089828A83E0A3F608DFFA805889828A834F
:10074800E0A3F208DFFA804C80D280FA80C680D419
:10075800806980F28033801080A680EA809A80A821
:1007680080DA80E280CA803389828A83ECFAE49353
:10077800A3C8C582C8CCC583CCF0A3C8C582C8CCE1
:10078800C583CCDFE9DEE7800D89828A83E493A301
:10079800F608DFF9ECFAA9F0EDFB2289828A83ECEE
:1007A800FAE0A3C8C582C8CCC583CCF0A3C8C5826B
:1007B800C8CCC583CCDFEADEE880DB89828A83E4A3
:1007C80093A3F208DFF980CC88F0EF60010E4E6049
:1007D800C388F0ED2402B4040050B9F582EB24027A
:1007E800B4040050AF232345822390075073BB0104
:1007F8000689828A83E0225002E722BBFE02E322B6
:1008080089828A83E49322BB010CE58229F582E57B
:10081800833AF583E0225006E92582F8E622BBFEFA
:1008280006E92582F8E222E58229F582E5833AF590
:1008380083E49322BB010689828A83F0225002F75F
:1008480022BBFE01F322F8BB010DE58229F582E502
:10085800833AF583E8F0225006E92582C8F622BBE0
:10086800FE05E92582C8F222EF8DF0A4A8F0CF8C0E
:10087800F0A428CE8DF0A42EFE22BC000BBE0029C9
:10088800EF8DF084FFADF022E4CCF875F008EF2F7F
:10089800FFEE33FEEC33FCEE9DEC984005FCEE9D3C
:1008A800FE0FD5F0E9E4CEFD22EDF8F5F0EE842058
:1008B800D21CFEADF075F008EF2FFFED33FD4007B9
:1008C800985006D5F0F222C398FD0FD5F0EA22C25F
:1008D800D5EC30E709B2D5E4C39DFDE49CFCEE30CD
:1008E800E715B2D5E4C39FFFE49EFE120882C3E475
:1008F8009DFDE49CFC800312088230D507C3E49F69
:10090800FFE49EFE22C5F0F8A3E028F0C5F0F8E564
:1009180082158270021583E038F022A3F8E0C5F052
:1009280025F0F0E582158270021583E0C838F0E8FA
:1009380022BB010A89828A83E0F5F0A3E0225006EF
:1009480087F009E71922BBFE07E3F5F009E319224E
:1009580089828A83E493F5F074019322BB0110E540
:100968008229F582E5833AF583E0F5F0A3E0225089
:1009780009E92582F886F008E622BBFE0AE9258205
:10098800F8E2F5F008E222E5832AF583E993F5F029
:10099800A3E99322BB010A89828A83F0E5F0A3F0D8
:1009A800225006F709A7F01922BBFE06F3E5F00965
:1009B800F31922F8BB0111E58229F582E5833AF59E
:1009C80083E8F0E5F0A3F0225009E92582C8F6088B
:1009D800A6F022BBFE09E92582C8F2E5F008F2225A
:1009E80075F008758200EF2FFFEE33FECD33CDCCC6
:1009F80033CCC58233C5829BED9AEC99E582984049
:100A08000CF582EE9BFEED9AFDEC99FC0FD5F0D625
:100A1800E4CEFBE4CDFAE4CCF9A88222B800C1B94F
:100A28000059BA002DEC8BF084CFCECDFCE5F0CB8D
:100A3800F97818EF2FFFEE33FEED33FDEC33FCEBC6
:100A480033FB10D703994004EB99FB0FD8E5E4F981
:100A5800FA227818EF2FFFEE33FEED33FDEC33FC6E
:100A6800C933C910D7059BE99A4007EC9BFCE99A62
:100A7800F90FD8E0E4C9FAE4CCFB2275F010EF2FA7
:100A8800FFEE33FEED33FDCC33CCC833C810D707A7
:100A98009BEC9AE899400AED9BFDEC9AFCE899F8E2
:100AA8000FD5F0DAE4CDFBE4CCFAE4C8F922C3E4CC
:100AB8009FFFE49EFEE49DFDE49CFC22EB9FF5F085
:100AC800EA9E42F0E99D42F0E89C45F022E8600F7A
:100AD800EFC333FFEE33FEED33FDEC33FCD8F122E8
:100AE800E493FC740193FD740293FE740393FF2254
:100AF800E0F8A3E0F9A3E0FAA3E0FB22E493F8749A
:100B08000193F9740293FA740393FB22ECF0A3EDBA
:100B1800F0A3EEF0A3EFF022A8828583F0D083D073
:100B280082120B37120B37120B37120B37E473E4B0
:100B380093A3C583C5F0C583C8C582C8F0A3C58380
:100B4800C5F0C583C8C582C822F8E0FBA3A3E0F9B5
:100B580025F0F0E582158270021583E0FA38F0225C
:100B6800EBF0A3EAF0A3E9F022D083D082F8E49373
:100B78007012740193700DA3A393F8740193F58216
:100B88008883E4737402936860EFA3A3A380DF8A69
:100B9800838982E473EF4E6012EF60010EEDBB01B2
:100BA8000B89828A83F0A3DFFCDEFA2289F05007E2
:100BB800F709DFFCA9F022BBFEFCF309DFFCA9F072
:100BC80022E5082485F582E434A4F583E0050822AB
:100BD80090A48230070390A485E475F001120B51AC
:100BE8000207F62000E97F2ED2008018EF540F2468
:100BF80090D43440D4FF30040BEF24BFB41A005013
:100C0800032461FFE50960021509050CE50C700273
:100C1800050B30070E90A482E475F001120B51EF1A
:100C280002083C0200267403D2078003E4C207F5D9
:100C38000890A482120B68E4F509F50BF50CE50998
:100C480060077F20120C0C80F5750AFFC201C200F4
:100C5800C202C203C205C206C208120BD8FF700D39
:100C68003007057F00120C1DAF0CAE0B22B4255FB8
:100C7800C2D5C204120BD8FF24D0B40A00501A758A
:100C8800F00A780930D50508B6FF0106C6A426F68D
:100C980020D5047002D20380D924CFB41A00EF50B3
:100CA80004C2E5D204020F0FD20180C6D20080C070
:100CB800D20280BCD2D580BAD20580B47F20120C73
:100CC8000C2002077401B5090040F1120BC9FF128C
:100CD8000C0C020C46D208D2068095120BC9FB12E6
:100CE8000BC9FA120BC9F94A4B7006790D7A107BB9
:100CF800FF20022EE509602A7E008E82758300128D
:100D0800080F60060EEE650A70F0C2D5EBC0E0EA87
:100D1800C0E0E9C0E0EE120F70D0E0F9D0E0FAD000
:100D2800E0FB1207F6FF60AAEBC0E0EAC0E0E9C00A
:100D3800E0120C0CD0E02401F9D0E03400FAD0E045
:100D4800FBE50A0460DCD50AD98087D20280A212AA
:100D58000F5260F7E50A700104120501A90A600D37
:100D6800E50A600914F50A120FFAEF60F3EA30E7B2
:100D780002F404C3995079EAF4250A0430E701E43F
:100D880004F50A800D120F5260C1EA050A250A12FD
:100D98000501EA90A4B1F030E701E4250A04D50A78
:100DA8000420050114120F70E4C0E0120FFA90A499
:100DB800B1E0601320E70714F0120BF4802204F06E
:100DC800D0E014C0E07F00120BF4E50A6007120BB4
:100DD800EB150A800B300503120BEBD0E0020C4632
:100DE800D0E00480C4120F52609EE50A0412050187
:100DF80090A4B1EAF0E50A20050260010424041277
:100E08000F7074FF04C0E0120FFA120BF4E50A2009
:100E180005026003120BEBD0E0B50AE87F45120B20
:100E2800FE90A4B1E07F2B30E7047F2DF404C0E0EE
:100E3800120C0CD0E075F00A84C0F0120BF5D0E06B
:100E4800120BF5020C46791080027908C206C20816
:100E58008008D2D5790A8004790AC2D5E50A0470D7
:100E680002F50AE4FAFDFEFF120BC9FC7B0820011B
:100E780013120BC9FD7B1030000A120BC9FE120BAE
:100E8800C9FF7B20EC3382D592D55013C3E43000E0
:100E9800069FFFE49EFEE42001039DFDE49CFCE424
:100EA800CBF8C201EC700CCFCECDCCE824F8F870AA
:100EB800F38017C3EF33FFEE33FEED33FDEC33FC65
:100EC800EB33FB994002FB0FD8E9EB300105F8D072
:100ED800E0C448B201C0E00AEC4D4E4F78207B00D8
:100EE80070C2EAB50A0040BCC0E0120F72D0F0D060
:100EF800E0200104C4C0E0C4B201C0F0120BF5D078
:100F0800F0D5F0EB020C46120B710CE3530E4E5861
:100F18000CB44C0CB0420E524F0E5A440E5A490CA7
:100F2800C9430E60550D8D460DED450D5747102DE3
:100F3800500CB82D0CBC2E0CDF2B0CC0230CDD2064
:100F480010162A0C784800000CD7E50AB4FF037580
:100F58000A06120BC9FC120BC9FD120BC9FE120BB3
:100F6800C9FF90A4AA02053E790AA2D5200314302D
:100F78000509B910020404B9080104A2D520060223
:100F88005001042002689202B509005034C0E07F85
:100F9800203003197F30A20272067205500F120F1B
:100FA800C9C202C206C205C2087F30800F300503DD
:100FB800E9C0E0120C0C300503D0E0F9D0E0B50927
:100FC800CC3005177F30B9100C120C0C7F58300448
:100FD800077F788003B90803120C0C3002057F2DB7
:100FE800020C0C7F202008F87F2B2006F3229202A7
:100FF80080CF7F00B40700500B24AAF582E434A404
:10100800F583E0FF22286E756C6C2900D201120B63
:10101800C93001F8C201780930D50108F6020C7808
:101028002D50434958120BC92403B405004001E46C
:1010380090102893120BFD743A120BFDD203750918
:1010480004020E4EE490A47EF0A3F0A3F0A3F0A354
:10105800F0A3F0A3F0A3F0A304F0A37480F0A374AA
:101068008AF0E4A3F0A3F0788B7CA47D017BFF7A5F
:101078004479D1FE7F021207D0D3908083E0940296
:10108800908082E094007F0040027F0190A484EF6A
:10109800F090A484E070030213F190A4867401F028
:1010A800A37480F0A3748AF090A486E0FBA3E0FA0E
:1010B800A3E0F91207F6645A603A908082E0FEA332
:1010C800E0248AF974803EFA7B01C003C002C001A3
:1010D80090A486A3E0FAA3E0F9C3D082D083D0E03D
:1010E800E99582EA9583500C90A487E475F0011283
:1010F800090D80B4908082E0FEA3E0248AF9748010
:101108003EFA7B01C003C002C00190A486E0FBA3A5
:10111800E0FAA3E0F9D082D083D0E06B7008E965EB
:10112800827003EA65837007908082F0A3F02290B2
:10113800A486A3E0FAA3E0C3948AFFEA9480FEC3DE
:10114800908083E09FFF908082E09E90A482F0A32D
:10115800EFF090A489E024FE605524026003021297
:10116800337E007FFF7D007B017AA1792A120B9DD7
:10117800E490A48AF090A485F090A47EF0A3F0A354
:10118800F0A3F090A480E0FEA3E0FFC39403EE94E4
:1011980000501C748B2FF58274A43EF583E4F09004
:1011A800A481E004F070DC90A480E004F080D49086
:1011B800A4907401F0A374A1F0A3742AF0A374019D
:1011C800F0A374A4F0A3747EF090A482E0FFA3E0DF
:1011D80090A496CFF0A3EFF090A486E0FBA3E0FAEA
:1011E800A3E0F91230D890A48AEFF0A3F06401705C
:1011F8003A90A47EE0FCA3E0FD90A4927401F0A3D1
:1012080074A2F0A37429F07B017AA1792A124226EC
:10121800EF70030212D11237187E017F007D007B28
:10122800017AA27929120B9D0212D190A48BE06455
:101238000360030212D190A487804490A486E0FB47
:10124800A3E0FAA3E0F91207F6645A603A908082A4
:10125800E0FEA3E0248AF974803EFA7B01C003C053
:1012680002C00190A486A3E0FAA3E0F9C3D082D01B
:1012780083D0E0E99582EA9583500C90A487E475C1
:10128800F00112090D80B4908082E0FEA3E0248A68
:10129800F974803EFA7B01C003C002C00190A486A5
:1012A800E0FBA3E0FAA3E0F9D082D083D0E06B7032
:1012B80008E965827003EA65837008908082F0A36C
:1012C800F0800690A4857401F090A48AE06401601F
:1012D8000990A485E070030213E990A486A3E0FABC
:1012E800A3E0C3948AFFEA9480FEC3908083E09FC2
:1012F800FF908082E09EFE90A47EE0FCA3E0FDC308
:10130800EF9DFFEE9CFE90A482F0A3EFF0D3940033
:10131800EE94004068E490A480F0A3F090A482E0EA
:10132800FEA3E0FF90A480E0FCA3E0FDC39FEC9E39
:10133800504390A486E0FBA3E0FAA3E0F990A47ED2
:10134800E0FEA3E0FFE92FF9EA3EFAE92DF9EA3CCD
:10135800FA1207F6FF748A2DF58274803CF583EF44
:10136800F0E412083C90A481E004F070AF90A480EF
:10137800E004F080A790A4847401F08052E490A463
:1013880080F0A3F090A486A3E0FAA3E0C3948AFFB8
:10139800EA9480FE90A47FE02FFF90A47EE03EFEBA
:1013A80090A480E0FCA3E0FDC39FEC9E501C748ACF
:1013B8002DF58274803CF583E4F090A481E004F07C
:1013C80070C290A480E004F080BAE490A484F09005
:1013D800A482E0FFA3E0908082CFF0A3EFF0021098
:1013E80099E490A484F00210992241808000428000
:1013F8008200004180810042808400004280860093
:1014080000428088000044A53A0000000044A42956
:101418000000000041A428006100A229000000008B
:1014280000000000000000000000000000000000B4
:1014380000000000000000000000000000000000A4
:101448000000000000000000000000000000000094
:101458000000000000000000000000000000000084
:101468000000000000000000000000000000000074
:101478000000000000000000000000000000000064
:101488000000000000000000000000000000000054
:101498000000000000000000000000000000000044
:1014A8000000000000000000000000000000000034
:1014B8000000000000000000000000000000000024
:1014C8000000000000000000000000000000000014
:1014D8000000000000000000000000000000000004
:1014E80000000000000000000000000000000000F4
:1014F80000000000000000000000000000000000E4
:1015080000000000000000000000000000000000D3
:1015180000000000000000000000000060FFA32998
:1015280000000000000000000000000000000000B3
:1015380000000000000000000000000000000000A3
:101548000000000000000000000000000000000093
:101558000000000000000000000000000000000083
:101568000000000000000000000000000000000073
:101578000000000000000000000000000000000063
:101588000000000000000000000000000000000053
:101598000000000000000000000000000000000043
:1015A8000000000000000000000000000000000033
:1015B8000000000000000000000000000000000023
:1015C8000000000000000000000000000000000013
:1015D8000000000000000000000000000000000003
:1015E80000000000000000000000000000000000F3
:1015F80000000000000000000000000000000000E3
:1016080000000000000000000000000000000000D2
:101618000000000000000000000000000000004280
:10162800A527000041A5260142A5205AA542A4F9F4
:10163800000041A4EA0142A4F7000041A4F50041DA
:10164800A4C20041A4C30042A4C4000042A4C6B07E
:101658000542A4C8550541A4F60042A4410000442F
:10166800A4760000000044A4433EE9518344A45CEE
:1016780040490E5644A4313D32D5D044A4473ECD0E
:1016880037BE44A4510000000044A47200000000CA
:1016980044A4660000000044A47A0000000044A4AA
:1016A800620000000042A470000044A4550000003D
:1016B8000044A4350000000044A44D00000000448C
:1016C800A42D0000000042A46C000042A46E00009B
:1016D80042A44B000042A460000142A45A00B04159
:1016E800A46A0B41A46B0544A5120000000048A59C
:1016F80016000000010002000344A50E00000000CF
:101708000090A50CE0FEA3E0FF90A442E0FD121FAC
:10171800087B017AA4796290A4BCE4F0A37404F075
:101728007F007E2612216490A50CE0FCA3E0FDE476
:1017380012041CE4FBFA797A784412030190A47627
:10174800120B1490A442E06401600302183C90A5B7
:101758000CE0FCA3E0FDE412041CE4FBFA797A78BF
:101768004412030190A447E0F8A3E0F9A3E0FAA328
:10177800E0FB12010790A451120B14E4FFFEFD7C5C
:101788004090A443E0F8A3E0F9A3E0FAA3E0FB1239
:1017980001F890A451E0F8A3E0F9A3E0FAA3E0FB74
:1017A8001201F890A466120B1490A443E0FCA3E085
:1017B800FDA3E0FEA3E0FF90A451E0F8A3E0F9A3A5
:1017C800E0FAA3E0FB1201F8C004C005C006C00798
:1017D80090A490120B2040000000D007D006D0053E
:1017E800D0041229B190A45CE0F8A3E0F9A3E0FAD0
:1017F800A3E0FB1201F890A472120B1490A451E01C
:10180800FCA3E0FDA3E0FEA3E0FF90A472E0F8A330
:10181800E0F9A3E0FAA3E0FB1201F8E4FBFA79404F
:10182800784012030190A47A120B147B017AA479F0
:101838007A0219BD90A442E0640260030218FE9087
:10184800A50CE0FCA3E0FDE412041CE4FBFA797AA1
:10185800784412030190A447E0F8A3E0F9A3E0FA62
:10186800A3E0FB12010790A451120B14E4FFFEFD44
:101878007C4090A431E0F8A3E0F9A3E0FAA3E0FBF0
:101888001201F890A451E0F8A3E0F9A3E0FAA3E06C
:10189800FB1201F890A466120B1490A431E0FCA38B
:1018A800E0FDA3E0FEA3E0FF90A451E0F8A3E0F977
:1018B800A3E0FAA3E0FB1201F8C004C005C006C00B
:1018C8000790A490120B2040000000D007D006D04B
:1018D80005D0041229B190A45CE0F8A3E0F9A3E0D4
:1018E800FAA3E0FB1201F890A472120B147B017AA0
:1018F800A479720219BD90A442E06403600302193E
:10190800CD90A50CE0FCA3E0FDE412041CE4FBFA76
:10191800797A784412030190A447E0F8A3E0F9A388
:10192800E0FAA3E0FB12010790A451120B14E4FFA4
:10193800FEFD7C4090A443E0F8A3E0F9A3E0FAA3FD
:10194800E0FB1201F890A451E0F8A3E0F9A3E0FA53
:10195800A3E0FB1201F890A466120B1490A443E0D4
:10196800FCA3E0FDA3E0FEA3E0FF90A451E0F8A3F0
:10197800E0F9A3E0FAA3E0FB1201F8C004C005C037
:1019880006C00790A490120B2040000000D007D09A
:1019980006D005D0041229B190A45CE0F8A3E0F9C0
:1019A800A3E0FAA3E0FB1201F890A472120B147BD7
:1019B800017AA4797290A4BCE4F0A37404F07F5077
:1019C8007E281221647B017AA4797690A4BCE4F085
:1019D800A37404F07F007E251221647B017AA47928
:1019E8006690A4BCE4F0A37404F07F407E28022132
:1019F80064789E7CA47D017BFF7A4479D97E007F40
:101A0800061207D07B017AA4799690A4BCE4F0A3CF
:101A18007404F07F007E131223B17B017AA4799AB3
:101A280090A4BCE4F0A37404F07F057E131223B1E4
:101A380090A497E0FFE4FCFDFE7810120AD5C004DC
:101A4800C005C006C00790A496E0FFE4FCFDFE7840
:101A580018120AD5D003D002D001D000EF4BFFEE08
:101A68004AFEED49FDEC48FCC004C005C006C007AD
:101A780090A498E0FFE4FCFDFE7808120AD5D00394
:101A8800D002D001D000EF4BFBEE4AFAED49F9EC59
:101A980048F8A3E0FFEB4FFFEAFEE9FDE8FC90A45D
:101AA800A4120B1490A49BE0FFE4FCFDFE78101236
:101AB8000AD5C004C005C006C00790A49AE0FFE498
:101AC800FCFDFE7818120AD5D003D002D001D00050
:101AD800EF4BFFEE4AFEED49FDEC48FCC004C005A3
:101AE800C006C00790A49CE0FFE4FCFDFE78081245
:101AF8000AD5D003D002D001D000EF4BFBEE4AFA52
:101B0800ED49F9EC48F8A3E0FFEB4FFFEAFEE9FDE9
:101B1800E8FC90A522120B14E47B64FAF9F890A56E
:101B280022E0FCA3E0FDA3E0FEA3E0FF120A24905C
:101B3800A4A3EBF0E47B64FAF9F890A522E0FCA3F7
:101B4800E0FDA3E0FEA3E0FF120A24E47B64FAF9B7
:101B5800F8120A2490A4A2EBF0E47B107A27F9F893
:101B680090A522E0FCA3E0FDA3E0FEA3E0FF120A9B
:101B780024E47B64FAF9F8120A2490A4A1EBF0E4B7
:101B88007B64FAF9F890A4A4E0FCA3E0FDA3E0FECE
:101B9800A3E0FF120A2490A4A0EBF0E47B64FAF916
:101BA800F890A4A4E0FCA3E0FDA3E0FEA3E0FF12EC
:101BB8000A24E47B64FAF9F8120A2490A49FEBF053
:101BC800E47B107A27F9F890A4A4E0FCA3E0FDA335
:101BD800E0FEA3E0FF120A24E47B64FAF9F8120A93
:101BE8002490A49EEBF0A3E0FFD39400748094802B
:101BF800406ED3EF940C748094805064A3E0FF94FB
:101C08001F748094805054EF940074809480404BEB
:101C1800A3E0D39417748094805039C3748094805F
:101C28004032A3E0D3943B748094805020C37480E6
:101C380094804019A3E0D3943B748094805007C3E8
:101C4800748094805020E490A4A3F08019E490A4B8
:101C5800A2F08012E490A4A1F0800B90A4A08003CD
:101C680090A49F7401F07B017AA4799E90A4BCE4AF
:101C7800F0A37406F07F9D7E001221647B017AA593
:101C8800792090A4BCE4F0A37402F07F9C7E00123B
:101C9800216402280190A47EEBF0A3EAF0A3E9F006
:101CA80090A435E0FCA3E0FDA3E0FEA3E0FFEC4D2B
:101CB8004E4F7003021F0790A435120B200000003E
:101CC8000090A455E0F8A3E0F9A3E0FAA3E0FBC074
:101CD80000C001C002C0037B007A40791C7846909E
:101CE800A462E0FCA3E0FDA3E0FEA3E0FF12030171
:101CF800D003D002D001D00012010790A455120BD6
:101D08001490A42DE0FCA3E0FDA3E0FEA3E02401D1
:101D1800FFE43EFEE43DFDE43CFC90A42D120B14D0
:101D2800E47F0AFEFDFC90A42DE0F8A3E0F9A3E00F
:101D3800FAA3E0FBC3120AC4402990A42D120B2079
:101D48000000000090A44DE0FCA3E0FDA3E0FEA38A
:101D5800E02401FFE43EFEE43DFDE43CFC90A44D9C
:101D6800120B1490A50CE0FEA3E0FF90A47EA3E064
:101D7800FAA3E0F5828A83120B9B90A512E0FCA3DC
:101D8800E0FDA3E0FEA3E0FF120455AB07AA067C22
:101D9800007D3C12088290A483EEF0A3EFF07C0053
:101DA8007D3CAF03AE0212088290A481ECF0A3ED53
:101DB800F07B017AA4798390A4BCE4F0A37402F0C8
:101DC8007F007E281221647B017AA4798190A4BCCB
:101DD800E4F0A37402F07F057E2812216490A44DDC
:101DE800E0FCA3E0FDA3E0FEA3E0FFE412041790EB
:101DF800A512E0F8A3E0F9A3E0FAA3E0FB120107BB
:101E0800120455AB07AA067C007D3C12088290A4F8
:101E180083EEF0A3EFF07C007D3CAF03AE02120826
:101E28008290A481ECF0A3EDF07B017AA4798190F3
:101E3800A4BCE4F0A37402F07F257E281221647B01
:101E4800017AA4798390A4BCE4F0A37402F07F2003
:101E58007E281221647B017AA4795590A4BCE4F011
:101E6800A37404F07F007E27122164E4FFFE7D7ACC
:101E78007C4490A455E0F8A3E0F9A3E0FAA3E0FBC2
:101E88001201F890A50EE0F8A3E0F9A3E0FAA3E0A8
:101E9800FB12039E501EE4FBFA797A784490A50E53
:101EA800E0FCA3E0FDA3E0FEA3E0FF12030190A481
:101EB80055120B147F007E507DC37C4790A455E0DB
:101EC800F8A3E0F9A3E0FAA3E0FB1201F890A50E4D
:101ED800E0F8A3E0F9A3E0FAA3E0FB12030112047F
:101EE8005590A470EEF0A3EFF07B017AA47970907E
:101EF800A4BCE4F0A37402F07F307E28122164228F
:101F080090A47EEDF0AB07AA06E4A3F0A3120B2081
:101F18000000000090A488120B2000000000AE0210
:101F2800AF037C007D0A120882AC06AD07E41204F8
:101F38001C90A484120B14E4FFFE7D207C4190A425
:101F480084E0F8A3E0F9A3E0FAA3E0FB12039E60A3
:101F5800025023E4FFFE7DA07C4090A484E0F8A317
:101F6800E0F9A3E0FAA3E0FB12039E400990A47FE6
:101F78007401F0022045E4FFFE7DA07C4190A4841A
:101F8800E0F8A3E0F9A3E0FAA3E0FB12039E6002E5
:101F98005025E4FFFE7D207C4190A484E0F8A3E076
:101FA800F9A3E0FAA3E0FB12039E600B400990A49A
:101FB8007F7402F0022045E4FFFE7DC87C4290A4B5
:101FC80084E0F8A3E0F9A3E0FAA3E0FB12039E6023
:101FD800025024E4FFFE7DA07C4190A484E0F8A395
:101FE800E0F9A3E0FAA3E0FB12039E600A40089020
:101FF800A47F7403F08046E4FFFE7D967C4390A4A2
:1020080084E0F8A3E0F9A3E0FAA3E0FB12039E60E2
:10201800025024E4FFFE7DC87C4290A484E0F8A32B
:10202800E0F9A3E0FAA3E0FB12039E600A400890DF
:10203800A47F7404F0800690A47F7405F090A47FB8
:10204800E024FE603914605F1470030220DA240370
:10205800600302213090A490120B20BFCCCCCD900D
:10206800A484E0FCA3E0FDA3E0FEA3E0FF1229B1F5
:1020780090A488120B147FDC7EAF7D0E805090A454
:1020880090120B20BFECCCCD90A484E0FCA3E0FD23
:10209800A3E0FEA3E0FF1229B190A488120B147FDD
:1020A800B87E287D80802790A490120B20BFE7AED1
:1020B8001490A484E0FCA3E0FDA3E0FEA3E0FF12DB
:1020C80029B190A488120B147F407E167D617C474D
:1020D800802990A490120B20C000000090A484E0F6
:1020E800FCA3E0FDA3E0FEA3E0FF1229B190A488C1
:1020F800120B147F047EF67D077C4890A488E0F8D4
:10210800A3E0F9A3E0FAA3E0FB1201F890A480127F
:102118000B1490A480E0FCA3E0FDA3E0FEA3E0FF85
:1021280090A462120B14800690A47F740AF090A405
:102138007EE0FF64016005EF6403701F90A462E015
:10214800FCA3E0FDA3E0FEA3E0FF7B9A7A9979194E
:10215800783F1201F890A462120B142290A4B9EBF4
:10216800F0A3EAF0A3E9F0AD07AC0690A4B9E0FB50
:10217800A3E0FAA3E04A4B70030223B0A3E0FEA356
:10218800E0FF4E70030223B0EEC313FEEF132DFFE2
:10219800EE3CFED3EF94FEEE94FF40030223B0C260
:1021A800AFED5401FBECC313FCED13FDAE04781046
:1021B800CEC313CE13D8F9F5F1ECF5F2AF058FF3D2
:1021C800E4F5F875F401D2FF30FCFDC2FDEB6401C3
:1021D800707C90A4BCE0FEA3E0FF64014E700AC2CC
:1021E800FBC2FAD2F9C2F88008C2FBC2FAD2F9D20D
:1021F800F8EF64014E90A4B9701AE0FBA3E475F0FF
:1022080001120923A9F0FA1207F6F5FC90A4BDE023
:1022180024FF802DE0FBA3E475F001120923A9F047
:10222800FA1207F6F5FC90A4B9E0FBA3E475F001F7
:10223800120923A9F0FA1207F6F5FD90A4BDE024CF
:10224800FEF090A4BCE034FFF0D2FE20FEFD90A486
:10225800BCE0FEA3E0FF4E70030223ABC3EF94047F
:10226800EE94004003022339EE7022EF1460161436
:10227800600D147018D2FBD2FAD2F9C2F8800ED2CF
:10228800FBD2FA8004D2FBC2FAC2F9C2F890A4BC0D
:10229800E0FEA3E0FFEE6003022332EF1460761441
:1022A800604714600302233290A4B9E0FBA3E475ED
:1022B800F001120923A9F0FA1207F6F5FA90A4B969
:1022C800E0FBA3E475F001120923A9F0FA1207F65E
:1022D800F5FB90A4B9E0FBA3E475F001120923A96A
:1022E800F0FA1207F6F5FC804190A4B9E0FBA3E4EC
:1022F80075F001120923A9F0FA1207F6F5FA90A46D
:10230800B9E0FBA3E475F001120923A9F0FA12075A
:10231800F6F5FB801590A4B9E0FBA3E475F0011273
:102328000923A9F0FA1207F6F5FAD2FE30FE7480F6
:10233800FBD2FBD2FAD2F9D2F890A4B9E0FBA3E41D
:1023480075F001120923A9F0FA1207F6F5FA90A41C
:10235800B9E0FBA3E475F001120923A9F0FA12070A
:10236800F6F5FB90A4B9E0FBA3E475F0011209238C
:10237800A9F0FA1207F6F5FC90A4B9E0FBA3E475FE
:10238800F001120923A9F0FA1207F6F5FDD2FE2092
:10239800FEFD90A4BDE024FCF090A4BCE034FFF066
:1023A800022256E4F5F8D2AF2290A4B9EBF0A3EAE2
:1023B800F0A3E9F0AD07AC0690A4B9E0FBA3E0FAFE
:1023C800A3E04A4B70030225F8A3E0FEA3E0FF4E0A
:1023D80070030225F8EEC313FEEF132DFFEE3CFE4B
:1023E800D3EF94FEEE94FF40030225F8C2AFED54FC
:1023F80001FBECC313FCED13FDAE047810CEC31340
:10240800CE13D8F9F5F1ECF5F2AF058FF3E4F5F852
:1024180075F401D2FF30FCFDD2FDEB6401707D90B4
:10242800A4BCE07004A3E06401700AC2FBC2FAD243
:10243800F9C2F88008C2FBC2FAD2F9D2F8D2FE205B
:10244800FEFD90A4BCE07004A3E0640190A4B97000
:102458001BE0FBA3E475F001120923A9F0FAE5FCDF
:1024680012083C90A4BDE024FF0225E8E0FBA3E4A9
:1024780075F001120923A9F0FAE5FC12083C90A4B2
:10248800B9E0FBA3E475F001120923A9F0FAE5FD10
:1024980012083C90A4BDE024FE0225E890A4BCE00C
:1024A800FEA3E0FF4E70030225F3C3EF9404EE94FD
:1024B800004003022581EE7022EF14601614600DAF
:1024C800147018D2FBD2FAD2F9C2F8800ED2FBD21D
:1024D800FA8004D2FBC2FAC2F9C2F8D2FE20FEFD8D
:1024E80090A4BCE0FEA3E0FFEE60030225F3EF1426
:1024F80060701460441460030225F390A4B9E0FBF3
:10250800A3E475F001120923A9F0FAE5FA12083CD0
:1025180090A4B9E0FBA3E475F001120923A9F0FA2D
:10252800E5FB12083C90A4B9E0FBA3E475F00112A6
:102538000923A9F0FAE5FC803B90A4B9E0FBA3E4E9
:1025480075F001120923A9F0FAE5FA12083C90A4E3
:10255800B9E0FBA3E475F001120923A9F0FAE5FB41
:10256800801290A4B9E0FBA3E475F001120923A935
:10257800F0FAE5FA12083C8072D2FBD2FAD2F9D20C
:10258800F8D2FE20FEFD90A4B9E0FBA3E475F001AB
:10259800120923A9F0FAE5FA12083C90A4B9E0FB65
:1025A800A3E475F001120923A9F0FAE5FB12083C2F
:1025B80090A4B9E0FBA3E475F001120923A9F0FA8D
:1025C800E5FC12083C90A4B9E0FBA3E475F0011205
:1025D8000923A9F0FAE5FD12083C90A4BDE024FC0B
:1025E800F090A4BCE034FFF00224A4E4F5F8D2AFE4
:1025F80022C390A4F8E0940A90A4F7E09400500352
:102608000227EB90A4C3E004F0E490A4F7F0A3F051
:1026180090A4F5E07010E004F090A4C4E4F0A37472
:102628000AF07E00FF2290A4C4E0FEA3E0FFC3747A
:102638004E9FFD74029EFCE412041C90A512E0F863
:10264800A3E0F9A3E0FAA3E0FB12039E407D90A467
:10265800C4E0FEA3E0FF744E9FFD74029EFCE412EA
:10266800041CA804A905AA06AB0790A512E0FCA3C0
:10267800E0FDA3E0FEA3E0FF120301E4FBFA79808A
:10268800783F12010712045590A4C2EFF0A3E0C3EB
:102698009F50030227E9E4F090A4F5E004F090A429
:1026A800C5E02402F090A4C4E03400F0E0FEA3E00A
:1026B800FFD3945AEE940140030227DBC3EF94D270
:1026C800EE940140030227E00227DB90A4C4E0FE59
:1026D800A3E0FFC3744E9FFD74029EFCE412041C29
:1026E80090A512E0F8A3E0F9A3E0FAA3E0FB120337
:1026F8009E6002505590A4C4E0FEA3E0FFC3744E50
:102708009FFF74029EC313FCEF13FDE412041C9098
:10271800A512E0F8A3E0F9A3E0FAA3E0FB12039EF8
:10272800402890A4C27402F0A3E094025003022748
:10273800FDE4F090A4F5E004F090A4C5E02402F0D4
:1027480090A4C4E03400F00227E390A4C4E0FEA300
:10275800E0FFC3744E9FFF74029EC313FCEF13FD8A
:10276800E412041C90A512E0F8A3E0F9A3E0FAA390
:10277800E0FB12039E6002506890A4C4E0FEA3E050
:10278800FFC3744E9FFD74029EFCE412041C90A5C6
:1027980012E0F8A3E0F9A3E0FAA3E0FB12030112A8
:1027A800045590A4C2EFF0E4A3F090A4F5E004F07F
:1027B80090A4C5E02FF090A4C4E03400F0E0FEA39C
:1027C800E0FFD3945AEE94015009C3EF94D2EE94EB
:1027D8000150057EFF7FFE2290A4C4E0FEA3E0FF27
:1027E80022801290A4F5E0D394227480948140054D
:1027F8007EFF7FFF22E4FEFF2278AA7CA47D017B76
:10280800FF7A4479E77E007F021207D07B017AA421
:1028180079A890A4BCE4F0A37402F07F9C7E001217
:1028280023B190A4A8E0645A7004A3E064A56003EF
:102838000229B090A4ACF0A3F0D20078AE7CA47DBD
:10284800017BFF7A4479E9FE7F071207D07B017A82
:10285800A479B590A4BCE4F0A37402F07F9D7E0037
:102868001223B190A4B5E0FCA3E0FDEC90A4ACF079
:10287800E0FF75F00A84C454F0FEEF75F00A84EEA8
:1028880025F090A4AEF090A4ACEDF0E0FF75F00A4E
:1028980084C454F0FEEF75F00A84EE25F090A4AFDE
:1028A800F07B017AA479B590A4BCE4F0A37402F09B
:1028B8007F9E7E001223B190A4B5E0FCA3E0FDEC5E
:1028C80090A4ACF0E0FF75F00A84C454F0FEEF75F4
:1028D800F00A84EE25F090A4B0F090A4ACEDF0E0FE
:1028E800FF75F00A84C454F0FEEF75F00A84EE25F3
:1028F800F090A4B2F07B017AA479B590A4BCE4F07E
:10290800A37402F07F9F7E001223B190A4B5E0FC6F
:10291800A3E0FDEC90A4ACF0E0FF75F00A84C45489
:10292800F0FEEF75F00A84EE25F090A4B3F090A4C1
:10293800ACEDF0E0FF75F00A84C454F0FEEF75F0DA
:102948000A84EE25F090A4B4F07B017AA479AA90C9
:10295800A4BCE4F0A304F07F9C7E00122164300044
:10296800471200867F101200C490A4B4E0FF120042
:10297800C490A4B3E0FF1200C490A4B2E0FF120018
:10298800C490A4B1E0FF1200C490A4B0E0FF12000C
:10299800C490A4AFE0FF1200C490A4AEE0FF120000
:1029A800B9124298C20080B62290A48C120B14E48B
:1029B800FFFE7D807C3F90A48CE0F8A3E0F9A3E0C3
:1029C800FAA3E0FB12039E700690A48C022B0B90D6
:1029D800A48CE0FCA3E0FDA3E0FEA3E0FF1204D674
:1029E800FBA3E0FCA3E0FDA3E0FEA3E0FF1204D6F6
:1029F800FFB40108E4FFFE7D807C3F22EF640460A1
:102A080029EB64046024EBB40130E4FFFEFDFC9084
:102A1800A490E0F8A3E0F9A3E0FAA3E0FB12039E78
:102A280060084006E4FFFEFDFC2290A490120B20F3
:102A3800FFFFFFFF90A490022B0BE490A494F0A357
:102A4800F0FFFEFDFC90A48CE0F8A3E0F9A3E0FA07
:102A5800A3E0FB12039E505F90A490E0FCA3E0FD6E
:102A6800A3E0FEA3E0FF12045590A494EEF0A3EFB8
:102A7800F0FDCCEECCEC12041CC8ECC8C9EDC9CAF8
:102A8800EECACBEFCB90A490E0FCA3E0FDA3E0FE60
:102A9800A3E0FF120103E4FBFAF9F812039E708A1F
:102AA80090A48CE0FCA3E0FDA3E0FEA3E0FF1204E9
:102AB800F090A48C120B1490A48CE0FCA3E0FDA36E
:102AC800E0FEA3E0FF122DDB90A490E0F8A3E0F96C
:102AD800A3E0FAA3E0FB1201F812389590A4901233
:102AE8000B1490A495E030E01790A490E0FCA3E0CC
:102AF800FDA3E0FEA3E0FF1204F090A490120B14D3
:102B080090A490E0FCA3E0FDA3E0FEA3E0FF2290E8
:102B1800A489EBF090A488EDF0EF24D0FEE434070C
:102B280090A48BF0A3CEF0EDFF64016005EF640282
:102B3800701590A488E0240CF090A48CE024FFF099
:102B480090A48BE034FFF090A48BE0FEA3E0FFC3D9
:102B580094D8EE94064034BE0610BFD80D90A488D1
:102B6800E0C3940974809480402190A48BE06406AB
:102B78007004A3E064D8706590A488E06409705D6F
:102B8800A3E0C3940374809480505290A488E0FB1F
:102B98002401FFE433FE7C007D031208707D0512DA
:102BA80008D7AD07EB75F002A4FFA3E07A002FFF6A
:102BB800EA35F0CF2DCF3EFE90A48BE0FCA3E0FDDC
:102BC8002FFBEC3EFAAE04ED7802CEC313CE13D839
:102BD800F92BFFEA3ECF2406CF3400807C90A488EE
:102BE800E02401FFE433FE7C007D031208707D05BC
:102BF8001208D7AC06AD07A3E02401FBE433FA9032
:102C0800A488E075F002A42BFFE5F03ACF2DCF3C65
:102C1800FE90A48BE0FCA3E0FD2FFBEC3EFAAE0493
:102C2800ED7802CEC313CE13D8F92BFBEA3EFA9007
:102C3800A48BE0FEA3E0FF7C007D64120882C3EB56
:102C48009FFBEA9EFA90A48BE0FEA3E0FF7C017D47
:102C580090120882EF2BFFEE3AFE7C007D071208E7
:102C68008290A48AEDF090A48AE0FF2278807CA468
:102C78007D017BFF7A4479DF7E007F081207D0123E
:102C880000BF1242A21243B57F651200C47C06EC55
:102C9800D394007480948040151241F974802CF507
:102CA80082E434A4F583EFF01200161C80E112418F
:102CB800F990A480EFF01244391242A7E4FCECC367
:102CC800940374809480503074802CF582E434A48A
:102CD800F583E0FFC4540FFE90A47EF0EF540FFF7D
:102CE800A3F0EE75F00AA42FFF74802CF582E4346B
:102CF800A4F583EFF00C80C67C04ECC394077480C1
:102D08009480503074802CF582E434A4F583E0FF7D
:102D1800C4540FFE90A47EF0EF540FFFA3F0EE759D
:102D2800F00AA42FFF74802CF582E434A4F583EF15
:102D3800F00C80C690A480E0FFA3E0FDA3E0FB12A6
:102D48002B1790A483EFF07B017AA4798090A4BC20
:102D5800E4F0A37402F07F107E001221647B017AF4
:102D6800A4798290A4BCE4F0A37402F07F117E00E1
:102D78001221647B017AA4798490A4BCE4F0A37442
:102D880002F07F127E001221647B017AA47986907A
:102D9800A4BCE4F0A37402F07F137E000221643E19
:102DA8009248DA3ECCCCCD3F2AAAAB400000003F87
:102DB8008000003F9837F03FB504F33FD744FC3E0E
:102DC8003172173EB172173F0515913EDE5BD9D2BD
:102DD800008002C200EDD2E7F8CD33EC3304700B6B
:102DE800BD800592D50204CB0204C140FBD3146018
:102DF800F2F5F07C3FEE7A00C39496C8948B40239A
:102E08000AC89469C8941A401A0AC89468C8941FD2
:102E180040110AC8945AC89425400805F07A00CD94
:102E2800C2E7CDC0F090A496120B14EA2323C0E0A9
:102E380024B7F582E4342DF583120B04120107EC54
:102E4800C0E0EDC0E0EEC0E0EFC0E0120AE890A4F8
:102E580096120AF8120103D0E0FBD0E0FAD0E0F9AC
:102E6800D0E0B2E7F812030190A496120B14902D4B
:102E7800A7740312064390A496120AF81201F8D018
:102E8800E0600F24C3F582E4342DF583120B04129D
:102E9800010790A496120B14D0E0C3947FFDE4942C
:102EA80000FC12041C7B187A727931783F1201F801
:102EB80090A496120AF812010730000B7BD97A5BAE
:102EC80079DE783E1201F8227B017AA4798290A4F7
:102ED800BCE4F0A37402F07F007E511223B190A4E9
:102EE80082E0FEA3E0FFEE704CEF24FE6019146050
:102EF8002214602B1460342404703A90A50E120B2F
:102F08002043FA0000802E90A50E120B20447A0070
:102F180000802290A50E120B2044BB8000801690E2
:102F2800A50E120B20451C4000800A90A50E120B1E
:102F380020457A000090A50CE0FEA3E0FF1231B70F
:102F480090A512E0FCA3E0FDA3E0FEA3E0FF1204BD
:102F580055AB07AA067C007D3C12088290A480EE3F
:102F6800F0A3EFF07C007D3CAF03AE021208829024
:102F7800A47EECF0A3EDF07B017AA4798090A4BC48
:102F8800E4F0A37402F07F207E281221647B017A8A
:102F9800A4798090A4BCE4F0A37402F07F007E289A
:102FA8001221647B017AA4797E90A4BCE4F0A37416
:102FB80002F07F057E281221647B017AA4797E9035
:102FC800A4BCE4F0A37402F07F257E28022164AE3D
:102FD800AD90A4F9E0FCA3E0FDEC704BED1460208B
:102FE800047044EE645760030230D774FC2DF582F8
:102FF80074A43CF583EEF090A4F9E4F0A304F02265
:10300800EE701C90A4F9E0FCA3E024FCF58274A403
:103018003CF583EEF090A4F9E4F0A37402F022E406
:1030280090A4F9F0A3F02290A4F9E0FCA3E024FC1A
:10303800F58274A43CF583EEF090A4FAE004F070F5
:103048000690A4F9E004F0D390A4FAE0940F90A4B9
:10305800F9E094004079E4F0A3F090A4FDE0FF903B
:10306800A4FCE02FFF90A4FEE02FFFA3E02FFFA316
:10307800E02FFFA3E02FFFA3E02FFFA3E02FFFA384
:10308800E02FFFA3E02FFFA3E0FD2FFFA3E0FE2F1B
:10309800FFA3E02FFFA3E02FFFA3E02FFFA3E0B5DE
:1030A800072DEE702A90A505E07B00FAED7E0078EA
:1030B80010C333CE33CED8F9FFEE4AFEEF4BFF9064
:1030C800A504E0FDEF4DFF90A50CEEF0A3EFF02274
:1030D80090A48DEBF0A3EAF0A3E9F0E490A498F0B3
:1030E800A3F0A3F0A3F0C390A497E0940790A4964C
:1030F800E0940050037F022290A48DE0FBA3E0FA45
:10310800A3E0F91207F6645A60037F0322900001D6
:1031180012080F64A560037F032290000212080FB3
:103128002403FFE433FE90A498F0A3EFF0C390A427
:1031380097E09F90A496E09E4072E490A49AF0A332
:10314800F090A498E0FEA3E0FFA3E0FCA3E0FDC399
:103158009FEC9E503C90A48DE0FBA3E0FAA3E0F91D
:103168001207F6FF90A490E0FBA3E0FAA3E0F98D24
:10317800828C83EF12084E90A48EE475F001120938
:103188000D90A49BE004F070B890A49AE004F0803D
:10319800B090A498E0F9A3E0FF90A493E0FBA3E02B
:1031A800FAA3E0C98FF012099C7F01227F0222ADA9
:1031B80007AC06E412041CE4FBFA792078411203F8
:1031C8000190A484120B14E4FFFE7DC87C4390A4F4
:1031D80084E0F8A3E0F9A3E0FAA3E0FB12039E5011
:1031E80024E4FFFE7DA07C4090A484E0F8A3E0F9ED
:1031F800A3E0FAA3E0FB12039E600A400890A51E14
:103208007401F0800690A51E7405F090A51FE06477
:1032180003602590A51EE014706D90A462E0F8A3E9
:10322800E0F9A3E0FAA3E0FB90A50EE0FCA3E0FD23
:10323800A3E0FEA3E0FF804690A51EE0147048E4DA
:10324800FFFE7D7A7C4490A455E0F8A3E0F9A3E062
:10325800FAA3E0FB1201F8A804A905AA06AB079097
:10326800A50EE0FCA3E0FDA3E0FEA3E0FF1201032E
:1032780090A462E0F8A3E0F9A3E0FAA3E0FB12034C
:103288000190A512020B1490A51E7406F02290A4BA
:103298006EE07004A3E06401600302336D90A44201
:1032A800E0640170077D027F04123F0390A442E0AE
:1032B80090A43CF090A460E0FFA3E090A43FCFF07E
:1032C800A3EFF090A46BE090A43EF090A43D7401AD
:1032D800F090A45AE0FEA3E0FF7B017AA47939902C
:1032E800A4BCE4F0A37408F012216490A45AE0FE90
:1032F800A3E0FF7B017AA4796C90A4BCE4F0A374EA
:1033080002F01223B190A46DE0FF90A46CE0B50721
:10331800DA90A46AE090A43EF0E490A43DF090A472
:103328005AE0FEA3E0FF7B017AA4793990A4BCE4BB
:10333800F0A37408F012216490A45AE0FEA3E0FF01
:103348007B017AA4796C90A4BCE4F0A37402F01217
:1033580023B190A46DE0FF90A46CE0B507DAE49087
:10336800A46EF0A3F02290A442E0640170077D02ED
:103378007F04123EA590A442E090A43CF0E4A3F0A0
:1033880090A46AE090A43EF090A44BE0FFA3E090E4
:10339800A43FCFF0A3EFF090A45AE0FEA3E0FF7B98
:1033A800017AA4793990A4BCE4F0A37408F012213E
:1033B8006490A45AE0FEA3E0FF7B017AA4796C90A4
:1033C800A4BCE4F0A37402F01223B190A46DE0FF52
:1033D80090A46CE0B507DA90A43D7401F090A46B5A
:1033E800E090A43EF090A45AE0FEA3E0FF7B017AAF
:1033F800A4793990A4BCE4F0A37408F01221649075
:10340800A45AE0FEA3E0FF7B017AA4796C90A4BCE7
:10341800E4F0A37402F01223B190A46DE0FF90A42D
:103428006CE0B507DA90A46EE4F0A304F022C0E0E3
:10343800C0F0C083C082C0D075D000C000C001C039
:1034480002C003C004C005C006C007C2AF758CBC6B
:10345800758ACD90A528E004F0700690A527E004B1
:10346800F090A53AE0FCA3E0FDA3E0FEA3E0240170
:10347800FFE43EFEE43DFDE43CFC90A53A120B144B
:10348800E47F64FEFDFC90A53AE0F8A3E0F9A3E030
:10349800FAA3E0FBC3120AC4403790A4F8E004F092
:1034A800700690A4F7E004F090A435E0FCA3E0FDDA
:1034B800A3E0FEA3E02401FFE43EFEE43DFDE43C7E
:1034C800FC90A435120B1490A53A120B20000000B2
:1034D80000D2AFD007D006D005D004D003D002D098
:1034E80001D000D0D0D082D083D0F0D0E03290A4E8
:1034F80094EEF0A3EFF090A442E024F870030235B4
:103508008E240760030235B490A494E064307004FC
:10351800A3E06410705D12445DEF6401704490A5EF
:103528001FE064057022123F6190A51F7403F0121A
:10353800336E7B017AA5791890A4BCE4F0A37402D9
:10354800F07F107E3002216490A51FE064027006AF
:103558007403F002336E90A51FE06404704E740388
:10356800F02212445DEF90A51F70047404F02274D9
:1035780001F02290A494E0B43032A3E0B4202D905E
:10358800A51F7406F02290A494E0FEA3E0FF644017
:103598007003EE64146015EF64417003EE64146008
:1035A8000BE4B50707EEB414031219F92290A482AC
:1035B800EFF0E0FFC454F024BCF582E434A4F583B2
:1035C800E4F0A304F0EFC454F024BEF582E434A47C
:1035D800F58374FFF0A3F0EFC454F024C0F582E43F
:1035E80034A4F583E4F0A3740BF0123B0E90A4828C
:1035F800E0FDC454F024C2F582E434A4F583EEF06F
:10360800A3EFF0EDC454F024C4F582E434A4F583A8
:103618007402F0A3744EF0EDC454F024C2F582E4B1
:1036280034A4F583E0FEA3E0FFEDC454F024C6F50E
:1036380082E434A4F583EEF0A3EFF0ED6402701F8A
:10364800ED75F010A424BAF974A435F0FA7B019052
:10365800A4BCE4F0A37410F07F007E55122164220C
:1036680090A52FEBF0A3EAF0A3E9F0A3EDF07833EF
:103678007CA57D017BFF7A4479F87E007F021207E2
:10368800D090A532E014600302371790A52FE0FB15
:10369800A3E0FAA3E0F9123E46EF607390A4F5E0C8
:1036A800FF90A533E4F0EFA3F090A52FE0FBA3E093
:1036B800FAA3E0F9120939FF90A4EBE5F0F0A3EFC3
:1036C800F0900002120964FF90A4EDE5F0F0A3EF7A
:1036D800F07B017AA5793390A4BCE4F0A37402F0DE
:1036E8007F017EB012216490A4C6E0FEA3E0FF7BB8
:1036F800017AA479EB90A4BCE4F0A37406F012213B
:103708006490A4C7E02402F090A4C6E03400F0223C
:10371800E490A48DF0A3F090A22DE0FEA3E0FDEDCF
:10372800FF90A48DEEF0A3EFF090A22CE0648270DD
:103738003D7B017AA2792F90A22BE024FDFEE43490
:10374800FF90A4BCF0A3CEF090A48DE0FEA3E0FF10
:1037580012216490A22B7403F090A22D744FF0A351
:10376800744BF07B017AA2792990A22B803E90A21B
:103778002CE06483703D7B017AA2793090A22FE01F
:1037880075F002A4FF90A4BCE5F0F0A3EFF090A4BC
:103798008DE0FEA3E0FF1223B190A22FE025E0FF09
:1037A80090A22BE02FF07B017AA27929E02403FD77
:1037B8001240BE22759401759502758E00759300AE
:1037C80075C87075C96075F800787FE4F6D8FD751E
:1037D800812102381802432BE493A3F8E493A34011
:1037E80003F68001F208DFF48029E493A3F8540774
:1037F800240CC8C333C4540F4420C8834004F4566F
:10380800800146F6DFE4800B0102040810204080A6
:103818009013F2E47E019360BCA3FF543F30E509A6
:10382800541FFEE493A360010ECF54C025E060A8A6
:1038380040B8E493A3FAE493A3F8E493A3C8C58239
:10384800C8CAC583CAF0A3C8C582C8CAC583CADFA7
:10385800E9DEE780BE33DA929E35B16011377FE545
:10386800FE392184893AAEC3FF3C1D955B3D635800
:10387800473E75FDF03F3172183F800000C2D50207
:1038880004CB0204C1BD80FA50F30204C8ED33EC46
:10389800330460F17B3B7AAA79B8783F1201F8EDDE
:1038A80033EC3392D5247B5011A2D570DB500BED4D
:1038B800448024045004A2D580CEEFFBEEFAEDF943
:1038C800ECF8120455EFF582F404FC1204211201FD
:1038D80007C08290385D7409120652ED33CC33D09C
:1038E800F092D525F0A2D57001C313CC13FD229018
:1038F800A535EFF078367CA57D017BFF7A4479B554
:103908007E007F041207D07B017AA5793690A4BC8B
:10391800E4F0A37404F07F807E001223B190A536F2
:10392800745AF090A535E0FD3395E0FCED64014C48
:10393800700990A539E054F7F0800DED64024C70E1
:103948003F90A539E04408F07B017AA5793690A428
:10395800BCE4F0A37404F07F807E001221647F052C
:103968007E001242B97B017AA5793690A4BCE4F0B6
:10397800A304F07F807E001223B190A536E070DEAC
:1039880022787E7CA47D017BFF7A4479C17E007F0A
:10399800101207D0E490A48EF0A3F0A3F0A3F0A334
:1039A800F0A3F090A42AE0FDFEA3E0FBF582E582F7
:1039B800FF90A492EEF0A3EFF090A229745AF0A31E
:1039C80074A5F090A42CE0FC25E0240390A22BF031
:1039D800A37483F0A3EDF0A3EBF07B017AA2792F17
:1039E800EC75F002A4FF90A4BCE5F0F0A3EFF09012
:1039F800A492E0FEA3E0FF1223B190A492E0FEA3FC
:103A0800E0FF0234F6C0E0C0F0C083C082C0D075C9
:103A1800D000C000C001C002C003C004C005C00679
:103A2800C007E4FFC2AFE5AB54016401703B122F3D
:103A3800D7AFAD908088E0FCA3E02400F5827480C5
:103A48003CF583EFF0908089E004F0700690808860
:103A5800E004F053ABFEC3908089E09480908088A6
:103A6800E094004004E4F0A3F0D2AFD007D006D031
:103A780005D004D003D002D001D000D0D0D082D05D
:103A880083D0F0D0E03290A481EDF090A47EEBF0EA
:103A9800A3EAF0A3E9F0123E46EF60697F0212350F
:103AA800B57BFF7A4479F0120C3490A481E064016C
:103AB800704D90A4CCF0A3F0A37480F0A3E4F0A31D
:103AC800F0A3740BF090A47EE0FBA3E0FAA3E0F966
:103AD800900002120964FF90A4D2E5F0F0A3EFF081
:103AE8007BFF7A4479F0120C347B017AA479CA906E
:103AF800A4BCE4F0A37410F07F007EB0122164909F
:103B0800A4F67401F02290A462E0FCA3E0FDA3E017
:103B1800FEA3E0FF122DD790A4BE120B14E4FFFE03
:103B2800FDFC90A4BEE0F8A3E0F9A3E0FAA3E0FB53
:103B380012039E40437FAE7E477DE17CBD90A4BECC
:103B4800E0F8A3E0F9A3E0FAA3E0FB1201077B3D4C
:103B58007A0A79477840120301E4FBFA79F078424F
:103B68001201F8A804A905AA06AB07E4FFFE7DE93F
:103B78007C431201030204557E017FD22290A47E69
:103B8800EFF0787F7CA47D017BFF7A4479FA7E0090
:103B98007F101207D090A47EE014601F14603124B7
:103BA8000270437B017AA4797F90A4BCE4F0A374EB
:103BB80010F07F007EB012216480157B017AA47911
:103BC8007F90A4BCE4F0A37410F07F007EB0801353
:103BD8007B017AA4797F90A4BCE4F0A37410F07FF1
:103BE800007E551221642290A442E0FF90A459E07F
:103BF8006F6008EFF090A51F7401F090A51FE0B466
:103C08000700504B903C13F8282873023C28023CCC
:103C18002E023C37023C3A023C3F023C44023C49FB
:103C280090A51F7401F090A51F7402F012005A02AB
:103C38002ED0D295023C58C29502006AC295024322
:103C48008BC295123F6112329690A51F7401F02223
:103C58007BFF7A3179B7121C9DE4FFFE7D7A7C44A4
:103C680090A455E0F8A3E0F9A3E0FAA3E0FB120161
:103C7800F890A50EE0F8A3E0F9A3E0FAA3E0FB12A0
:103C8800039E602B4029E4FFFEFDFC90A512E0F89E
:103C9800A3E0F9A3E0FAA3E0FB12039E6011400F32
:103CA800C390A471E0946490A470E09400400690DE
:103CB800A51F7405F022C0E0C083C082C0D075D0B3
:103CC80000C004C007C2AF309837AF99908082E037
:103CD800FCA3E0248AF58274803CF583EFF09080A1
:103CE80083E004F07006908082E004F0C390808343
:103CF800E094A0908082E0941F4004E4F0A3F0C216
:103D080098309907C299908080E4F0D2AFD007D05C
:103D180004D0D0D082D083D0E03290A529EEF0A391
:103D2800EFF0782B7CA57D017BFF7A4479BD7E007E
:103D38007F041207D090A529E0FCA3E0FDEC90A534
:103D48002DF0A3EDF07B017AA5792B90A4BCE4F0CB
:103D5800A37404F07F847E001221647F057E001224
:103D680042B97B017AA5792B90A4BCE4F0A304F0B6
:103D78007F847E001223B190A52BE070DE22C0E084
:103D8800C083C082C0D075D000C004C007C2AFE5F0
:103D98009B30E028AF9C908084E0FCA3E0242AF5C7
:103DA8008274A03CF583EFF0908085E004F0700603
:103DB800908084E004F0539BFE539BFEE59B30E12A
:103DC8000B539BFD539BFD908081E4F043C901D2C6
:103DD800AFD007D004D0D0D082D083D0E032C0E0BA
:103DE800C083C082C0D075D000C004C007C2AFE590
:103DF80097540164017038AF9F908086E0FCA3E07F
:103E080024AAF58274A03CF583EFF0908087E00443
:103E1800F07006908086E004F05397FEC390808788
:103E2800E09480908086E094004004E4F0A3F0D20F
:103E3800AFD007D004D0D0D082D083D0E03290A4C5
:103E480082EBF0A3EAF0A3E9F01225F990A482E04E
:103E5800FBA3E0FAA3E0F9EE8FF012099C90A4828C
:103E6800E0FBA3E0FAA3E0F9120939FFAEF04E70C7
:103E78000FBEFF0CBFFF09EF64FE7002EEF4601A7C
:103E8800123B0E90A482E0FBA3E0FAA3E0F99000B5
:103E980002EE8FF01209BB7F01227F002290A4421C
:103EA800E090A43CF0A3EFF0A3EDF090A44BE0FF6A
:103EB800A3E090A43FCFF0A3EFF090A45AE0FEA3B4
:103EC800E0FF7B017AA4793990A4BCE4F0A37408DC
:103ED800F012216490A45AE0FEA3E0FF7B017AA4CB
:103EE800796C90A4BCE4F0A37402F01223B190A4FE
:103EF8006DE0FF90A46CE0B507DA2290A442E09050
:103F0800A43CF0A3EFF0A3EDF090A460E0FFA3E0E1
:103F180090A43FCFF0A3EFF090A45AE0FEA3E0FFF7
:103F28007B017AA4793990A4BCE4F0A37408F01258
:103F3800216490A45AE0FEA3E0FF7B017AA4796C87
:103F480090A4BCE4F0A37402F01223B190A46DE035
:103F5800FF90A46CE0B507DA2290A455120B20005C
:103F68000000007B017AA4795590A4BCE4F0A37406
:103F780004F07F007E27122164E490A470F0A3F07F
:103F88007B017AA4797090A4BCF0A37402F07F300E
:103F98007E2812216490A44D120B20000000007BA3
:103FA800017AA5791690A4BCE4F0A37402F07F10FE
:103FB8007E3002216412418090A4EAE024FE60125F
:103FC80024FE601924FE602424057043E490A4EACA
:103FD800F0227B017AA479F17D01023A8EE490A463
:103FE800F6F090A4EAF090A4F5F08011E490A4F61D
:103FF800F090A4EAF090A4F5F0FF123B8590A4C6D7
:1040080074B0F0A37405F0A37455F0A37405F022FE
:104018001200BF7F1D1200C41242A71243B57F656C
:104028001200C41241F9AC071200161241F91244E9
:10403800391242A7EC54026402702E1200867F10D7
:104048001200C4E4FF1200C4E4FF1200C4E4FF122B
:1040580000C47F011200C47F011200C47F01120056
:10406800C47F171200B912429822787E7CA47D0181
:104078007BFF7A4479B97E007F041207D07B017AEE
:10408800A4792990A4BCE4F0A37404F07F007E0F07
:104098001223B190A429E0645A70187B017AA4799C
:1040A8007E90A4BCF0A37404F07F007E0F122164FC
:1040B8007F01227F002290A48FEBF0A3EAF0A3E90E
:1040C800F090A48FE0FBA3E0FAA3E04A4B6027ED51
:1040D8006024AF051DEF601E90A48FE0FBA3E0FAFB
:1040E800A3E0F91207F6FF1243EA90A490E475F0F2
:1040F8000112090D80DC2290A53EEBF0A3EAF0A3A3
:10410800E9F090A53EE0FBA3E0FAA3E04A4B602764
:10411800ED6024AF051DEF601E90A53EE0FBA3E017
:10412800FAA3E0F91207F6FF1243F890A53FE475E9
:10413800F00112090D80DC227B017AA4794190A458
:10414800BCE4F0A37402F07F147E001223B190A4A3
:1041580042E0FF14601614601B14601824037017E3
:1041680090A459EFF090A51F7401F022123FBD12E0
:104178003BEF80001217092290A51FE024FC601B6A
:1041880014601F1460282403702A90A4F6E090A4F9
:10419800EA60047403F0227402F02290A4EA740521
:1041A800F022E490A4F6F090A4EA7404F02290A41B
:1041B800EA7406F02290A4CAE4F0A37402F090A472
:1041C800D874FFF0A3E4F090A4CCF0A304F090A47A
:1041D800DAE4F0A37402F090A4E874FFF0A3E4F02A
:1041E80090A4DCF0A304F090A4EF74FFF0A3E4F033
:1041F80022120056E4FDEDC3940874809480501B8D
:10420800124376EE25E0FE30B3054401FE8004EE4D
:1042180054FEFEC2B212437B0D80DBAF0622E4904F
:10422800A495F0A3F0A3F0A3F0AE04AF05C003C0BB
:104238000290A492E0FBA3E0FAA3E0F8AC02AD037D
:10424800D002D0031207D07F012212005612437405
:10425800E4FEEEC3943274809480500930B30612A1
:10426800437B0E80EDC2B212437B024463C390A528
:1042780028E094F490A527E0940140137BFF7A444A
:1042880079D3120C34122C74E490A527F0A3F022F1
:104298007F1E1200C4E4FF1200C47F101200C41273
:1042A8004463C2B3D2B212437BD2B312437B02003F
:1042B80056E4FDFCC3ED9FEC9E5015E4FBFA0BBBE6
:1042C80000010ABA1CF8BBE8F50DBD00010C80E43A
:1042D8002243B7C043C920E4908081F0908084F0E5
:1042E800A3F0759BD075BB03759DC8759A01229084
:1042F800A541EFF07B017AA5794190A4BCE4F0A335
:1043080004F07F827E00022164E490A51FF07B0107
:104318007AA5791690A4BCF0A37402F07F107E30C1
:104328000221641243C9124018C295124414124162
:10433800BD12442212414012427580F575F901758B
:10434800B7C375BCA375BD2A75BE0CE4F580F5909E
:10435800F5A0F5B022E4908086F0A3F075968075FC
:104368009780F5D975E7E0D2BAD2BB22D2B312430F
:104378007BD2B2E4FFEFC394507480948050030F53
:1043880080F3227B017AA5791690A4BCE4F0A3748B
:1043980002F07F107E3002216475C870E4F5CDF517
:1043A800CC75CBBC75CACD43A820D2C822124463B1
:1043B800D2B3D2B212437BC2B312437BC2B202431E
:1043C8007BC2AF12005E1243441200F1124457D26E
:1043D800AF22C2AF8F9EE596540160FA5396FED283
:1043E800AF22908080E0640160F87401F08F992218
:1043F800908081E0640160F87401F08F9C22438909
:1044080001758CBC758ACDD2A9D28C2290A439743E
:104418005AF0A374A5F0E4A3F022124072EF6003EF
:1044280012398902104C7BFF7A44796A7D15024063
:10443800BE124463124374C2B202437B7B017AA466
:1044480079F17D01023668C2AF5396FED2AF3212BF
:1044580044060243A190A230E0FF2243BE0822C2D4
:10446800C6325561727432496E697420446F6E6544
:10447800212121313233005561727433496E6974D8
:1044880020446F6E65212121005561727434496E94
:10449800697420446F6E652121210055617274355D
:1044A800496E697420446F6E652121210000000067
:1044B80000000000005A0100000000000000000099
:1044C800000000000000000000000068656B6B6FD2
:1044D80000000000000000000000000000000000D4
:1044E8000000000000000000B3F5CABCBBAF0A0022
:1044F80000000000000000000000000000000000B4
:024508000000B1
:00000001FF
