:10000000022B4D020006C2AFD2AF32022955C2AF59
:10001000D2AF3202000E120066C2B31234ECC2B28A
:100020000234F1022F8A53BEF722320235FE90A429
:10003000BCE4F0A37402F090A4CA74FFF0A3E4F04F
:1000400090A4BEF0A304F090A4CCE4F0A37402F05A
:1000500090A4DA74FFF0A3E4F090A4CEF0A304F02F
:0A00600022222202002A43BE0822D9
:10006B00022E27E4908088F0A3F075A78075AB80F3
:10007B00F5AE75AFE0D2BD220230B312353F7F64CF
:10008B001200C47F301200C4E4FF1200C4123433D8
:10009B0012353F7F641200C47F1C1200C47F4812CC
:1000AB0000C4E4FF1200C47F401200C47F10120092
:1000BB00C412343312353F7F64AE07120066E4FD81
:1000CB00EDC39408748094805019EE30E704D2B3DA
:1000DB008002C2B3EE25E0FE1234ECC2B21234F150
:0C00EB000D80DD02340112359302352B2C
:1000F800FFFF4457494E54350204C1E86480F8E9CB
:1001080033E83360110460F0ED33EC337009E8FC38
:10011800E9FDEAFEEBFF220460DED3EB9FEA9EE9ED
:100128009DE8C2E78CF0C2F795F0400CE8CCF8E9FE
:10013800CDF9EACEFAEBCFFB12048C85D0F0580447
:10014800700320D5B3E80470075002B2D50204CB7F
:1001580092D5EC0460F7E4CCC0E0C398F8603B9417
:10016800186008400DD0E0FB0204A3E4FBFAC9FCC8
:100178008028E830E406E4C9FBE4CAFCE830E3057B
:10018800E4C9CACBFCE854076010F8C3E913F9EADC
:1001980013FAEB13FBEC13FCD8F130F52FC3E49CF6
:1001A800FCEF9BFFEE9AFEED99FDD0E0FBEF4E4D84
:1001B8004C701222DB030204C8EC2CFCEF33FFEE78
:1001C80033FEED33FDED30E7EB0204A3EF2BFFEE3A
:1001D8003AFEED39FDD0E0FB50130BBB00030204DF
:1001E800CBED13FDEE13FEEF13FFEC13FC0204A39B
:1001F800EC4D6011E8497017ED33EC3304600DE401
:10020800FCFFFEFD22E933E8330470F80204C11252
:10021800048C58046009E4CC248150062850090253
:1002280004CB2840030204C8C0E0EB4A7044B980FC
:1002380006D0E0FB0204B7EF4E701CBD8008EBFF50
:10024800EAFEE9FD80EBE98DF0A4FEE5F00202E1AB
:10025800E9CDF9EAFEEBFFEF89F0A4FCE5F0CE89E1
:10026800F0A42EFFE435F0CD89F0A42DFEE435F09E
:100278008067EF4E7005BD80D780C3EF8BF0A4ACCC
:10028800F0EE8BF0A42CFCE435F0F8EF8AF0A42C07
:10029800E5F038FCE433CB8DF0A42CFCE5F03BF81A
:1002A800EE8AF0A42CFCE5F038F8E433CF89F0A40A
:1002B8002CFCE5F038CF3400CE89F0A42FFFE5F010
:1002C8003EFEE433C98DF0A42EFEE5F039CD8AF068
:1002D800A42FFFE5F03EFEE43DFD33D0E0FB5007E0
:1002E8000BBB000F0204CBEC2CFCEF33FFEE33FE0C
:1002F800ED33FD0204A30204CBEC5D046005E8596C
:100308000470030204C112048C580460F6EC4860BF
:10031800F2EC7004FDFEFF22C860DB2481C850099E
:10032800C398600250060204C89850CAF582E929A9
:100338004B4A7005AB820204B775F0007C1A7880CE
:10034800C3EF9BEE9AED99400DC3EF9BFFEE9AFE2B
:10035800ED99FDE842F0DC23ACF0D0E0FFD0E0FE00
:10036800D0E0FDAB8220E7101BEB60BAEC2CFCEF71
:1003780033FFEE33FEED33FD0204A3E803F830E764
:1003880005C0F075F000EF2FFFEE33FEED33FD40B2
:10039800B830E7C280AA74F8CC6480CCC86480C83E
:1003A800F58204604FC3EB9FF5F0EA9E42F0E99DA9
:1003B80042F0E89C45F0603C501DE5825FFFE58215
:1003C800D313CB5BCBF42B5582FB50280ABA0024FD
:1003D80009B9002008801DE5825BFBE582D313CFB5
:1003E8005FCFF4C3132F5582FF50090EBE00050DD1
:1003F800BD00010CC3EB9FF5F0EA9E42F0E99D4277
:10040800F0E89C45F06007CC4820E701B3EC227582
:10041800F020800E75F010800575F0087D007E00D4
:100428007F003392D530D503120874EC334010EFB7
:1004380033FFEE33FEED33FDEC33FCD5F0ED22E572
:10044800F0247EA2D513CC92E7CDCEFF22EDD2E7E1
:10045800CD33EC3392D524814006E4FFFEFDFC2227
:10046800FCE4CFCECDCC24E0501174FF80EDC3CC9A
:1004780013CCCD13CDCE13CECF13CF0470F030D51F
:10048800DE020874E9D2E7C933E833F892D5EDD231
:10049800E7CD33EC33FC5002B2D522EC30E7100F35
:1004A800BF000C0EBE00080DBD00040BEB6014A2CB
:1004B800D5EB13FCED92E7FD2274FFFCFDFEFF2255
:1004C800E480F8A2D574FF13FC7D80E480EFED335F
:1004D800EC33601004700FED547F7005740292E0E5
:1004E800227404220422E422ED33EC33600A0470FF
:1004F80003BD8004ECB2E7FC22C0E0EFFBEEFAEDAE
:10050800F9ECF81201F8D0E0F5F0EFFBEEFAEDF9AE
:10051800ECF81208A6A3A3A3A3E8C0E0E9C0E0EAA8
:10052800C0E0EBC0E0C0F01201F81208C2A3A3A318
:10053800A3120107D0F0D0E0FBD0E0FAD0E0F9D068
:10054800E0F8D5F0D422E709F608DFFA8046E70993
:10055800F208DFFA803E88828C83E709F0A3DFFA8D
:100568008032E309F608DFFA8078E309F208DFFA57
:10057800807088828C83E309F0A3DFFA8064898223
:100588008A83E0A3F608DFFA805889828A83E0A389
:10059800F208DFFA804C80D280FA80C680D4806965
:1005A80080F28033801080A680EA809A80A880DA62
:1005B80080E280CA803389828A83ECFAE493A3C8F4
:1005C800C582C8CCC583CCF0A3C8C582C8CCC583B6
:1005D800CCDFE9DEE7800D89828A83E493A3F608FD
:1005E800DFF9ECFAA9F0EDFB2289828A83ECFAE0C4
:1005F800A3C8C582C8CCC583CCF0A3C8C582C8CC63
:10060800C583CCDFEADEE880DB89828A83E493A3B2
:10061800F208DFF980CC88F0EF60010E4E60C388E5
:10062800F0ED2402B4040050B9F582EB2402B404BE
:100638000050AF232345822390059E73BB01068992
:10064800828A83E0225002E722BBFE02E3228982EB
:100658008A83E49322BB010CE58229F582E5833A7B
:10066800F583E0225006E92582F8E622BBFE06E97A
:100678002582F8E222E58229F582E5833AF583E4CA
:100688009322BB010689828A83F0225002F722BB9B
:10069800FE01F322F8BB010DE58229F582E5833AD4
:1006A800F583E8F0225006E92582C8F622BBFE054C
:1006B800E92582C8F222EF8DF0A4A8F0CF8CF0A42F
:1006C80028CE8DF0A42EFE22BC000BBE0029EF8D93
:1006D800F084FFADF022E4CCF875F008EF2FFFEEC0
:1006E80033FEEC33FCEE9DEC984005FCEE9DFE0FCE
:1006F800D5F0E9E4CEFD22EDF8F5F0EE8420D21C29
:10070800FEADF075F008EF2FFFED33FD4007985070
:1007180006D5F0F222C398FD0FD5F0EA22C2D5EC37
:1007280030E709B2D5E4C39DFDE49CFCEE30E71543
:10073800B2D5E4C39FFFE49EFE1206D0C3E49DFD3C
:10074800E49CFC80031206D030D507C3E49FFFE485
:100758009EFE22C5F0F8A3E028F0C5F0F8E5821562
:100768008270021583E038F022A3F8E0C5F025F086
:10077800F0E582158270021583E0C838F0E822BBE4
:10078800010A89828A83F0E5F0A3F0225006F7096E
:10079800A7F01922BBFE06F3E5F009F3192275F05C
:1007A80008758200EF2FFFEE33FECD33CDCC33CC6E
:1007B800C58233C5829BED9AEC99E58298400CF589
:1007C80082EE9BFEED9AFDEC99FC0FD5F0D6E4CEB7
:1007D800FBE4CDFAE4CCF9A88222B800C1B90059EB
:1007E800BA002DEC8BF084CFCECDFCE5F0CBF978B8
:1007F80018EF2FFFEE33FEED33FDEC33FCEB33FB4C
:1008080010D703994004EB99FB0FD8E5E4F9FA22D5
:100818007818EF2FFFEE33FEED33FDEC33FCC933D0
:10082800C910D7059BE99A4007EC9BFCE99AF90F98
:10083800D8E0E4C9FAE4CCFB2275F010EF2FFFEE04
:1008480033FEED33FDCC33CCC833C810D7079BEC4F
:100858009AE899400AED9BFDEC9AFCE899F80FD5C7
:10086800F0DAE4CDFBE4CCFAE4C8F922C3E49FFF54
:10087800E49EFEE49DFDE49CFC22EB9FF5F0EA9EDD
:1008880042F0E99D42F0E89C45F022E8600FEFC392
:1008980033FFEE33FEED33FDEC33FCD8F122E49365
:1008A800FC740193FD740293FE740393FF22E0F835
:1008B800A3E0F9A3E0FAA3E0FB22E493F874019320
:1008C800F9740293FA740393FB22ECF0A3EDF0A3FE
:1008D800EEF0A3EFF022A8828583F0D083D08212B5
:1008E80008F51208F51208F51208F5E473E493A365
:1008F800C583C5F0C583C8C582C8F0A3C583C5F044
:10090800C583C8C582C8228A838982E473EF4E6092
:1009180012EF60010EEDBB010B89828A83F0A3DF21
:10092800FCDEFA2289F05007F709DFFCA9F022BBA8
:10093800FEFCF309DFFCA9F022E490A47CF0A3F00C
:10094800A3F0A3F0A3F0A3F0A3F0A3F0A304F0A3F3
:100958007480F0A3748AF0E4A3F0A3F078897CA4EF
:100968007D017BFF7A367968FE7F0212061ED390DE
:100978008083E09402908082E094007F0040027FB0
:100988000190A482EFF090A482E07003020CE6903C
:10099800A4847401F0A37480F0A3748AF090A484F2
:1009A800E0FBA3E0FAA3E0F9120644645A603A9027
:1009B8008082E0FEA3E0248AF974803EFA7B01C0BD
:1009C80003C002C00190A484A3E0FAA3E0F9C3D055
:1009D80082D083D0E0E99582EA9583500C90A48573
:1009E800E475F00112075B80B4908082E0FEA3E01A
:1009F800248AF974803EFA7B01C003C002C00190CA
:100A0800A484E0FBA3E0FAA3E0F9D082D083D0E08D
:100A18006B7008E965827003EA65837007908082CD
:100A2800F0A3F02290A484A3E0FAA3E0C3948AFF81
:100A3800EA9480FEC3908083E09FFF908082E09ECE
:100A480090A480F0A3EFF090A487E024FE605524E2
:100A5800026003020B287E007FFF7D007B017AA1E4
:100A6800792A120915E490A488F090A483F090A440
:100A78007CF0A3F0A3F0A3F090A47EE0FEA3E0FF37
:100A8800C39403EE9400501C74892FF58274A43E1D
:100A9800F583E4F090A47FE004F070DC90A47EE09D
:100AA80004F080D490A48E7401F0A374A1F0A37410
:100AB8002AF0A37401F0A374A4F0A3747CF090A4AA
:100AC80080E0FFA3E090A494CFF0A3EFF090A4847B
:100AD800E0FBA3E0FAA3E0F912279790A488EFF0CF
:100AE800A3F06401703A90A47CE0FCA3E0FD90A41C
:100AF800907401F0A374A2F0A37429F07B017AA189
:100B0800792A1233B0EF7003020BC6122A077E014E
:100B18007F007D007B017AA27929120915020BC694
:100B280090A489E064036003020BC690A485804406
:100B380090A484E0FBA3E0FAA3E0F9120644645A07
:100B4800603A908082E0FEA3E0248AF974803EFA3D
:100B58007B01C003C002C00190A484A3E0FAA3E013
:100B6800F9C3D082D083D0E0E99582EA9583500C0E
:100B780090A485E475F00112075B80B4908082E050
:100B8800FEA3E0248AF974803EFA7B01C003C00208
:100B9800C00190A484E0FBA3E0FAA3E0F9D082D0DE
:100BA80083D0E06B7008E965827003EA658370089A
:100BB800908082F0A3F0800690A4837401F090A442
:100BC80088E06401600990A483E07003020CDE9061
:100BD800A484A3E0FAA3E0C3948AFFEA9480FEC346
:100BE800908083E09FFF908082E09EFE90A47CE04E
:100BF800FCA3E0FDC3EF9DFFEE9CFE90A480F0A354
:100C0800EFF0D39400EE94004068E490A47EF0A343
:100C1800F090A480E0FEA3E0FF90A47EE0FCA3E0B7
:100C2800FDC39FEC9E504390A484E0FBA3E0FAA38D
:100C3800E0F990A47CE0FEA3E0FFE92FF9EA3EFA90
:100C4800E92DF9EA3CFA120644FF748A2DF58274FC
:100C5800803CF583EFF0E412068A90A47FE004F06C
:100C680070AF90A47EE004F080A790A4827401F095
:100C78008052E490A47EF0A3F090A484A3E0FAA3A9
:100C8800E0C3948AFFEA9480FE90A47DE02FFF9051
:100C9800A47CE03EFE90A47EE0FCA3E0FDC39FECB4
:100CA8009E501C748A2DF58274803CF583E4F09084
:100CB800A47FE004F070C290A47EE004F080BAE45F
:100CC80090A482F090A480E0FFA3E0908082CFF00F
:100CD800A3EFF002098EE490A482F002098E22901C
:100CE800A4EFE0FEA3E0FF90A442E0FD1217CF7B43
:100CF800017AA4796290A4BAE4F0A37404F07F00A6
:100D08007E26121A2B90A4EFE0FCA3E0FDE4120467
:100D18001CE4FBFA797A784412030190A47412084F
:100D2800D290A442E064016003020E1A90A4EFE09E
:100D3800FCA3E0FDE412041CE4FBFA797A7844127F
:100D4800030190A447E0F8A3E0F9A3E0FAA3E0FBCD
:100D580012010790A4511208D2E4FFFEFD7C4090D6
:100D6800A443E0F8A3E0F9A3E0FAA3E0FB1201F83A
:100D780090A451E0F8A3E0F9A3E0FAA3E0FB120184
:100D8800F890A4661208D290A443E0FCA3E0FDA367
:100D9800E0FEA3E0FF90A451E0F8A3E0F9A3E0FA95
:100DA800A3E0FB1201F8C004C005C006C00790A468
:100DB8008E1208DE40000000D007D006D005D0040F
:100DC80012207090A45CE0F8A3E0F9A3E0FAA3E095
:100DD800FB1201F890A4701208D290A451E0FCA371
:100DE800E0FDA3E0FEA3E0FF90A470E0F8A3E0F923
:100DF800A3E0FAA3E0FB1201F8E4FBFA794078409B
:100E080012030190A4781208D27B017AA47978029F
:100E18000F9B90A442E064026003020EDC90A4EFF2
:100E2800E0FCA3E0FDE412041CE4FBFA797A7844C0
:100E380012030190A447E0F8A3E0F9A3E0FAA3E0C5
:100E4800FB12010790A4511208D2E4FFFEFD7C407A
:100E580090A431E0F8A3E0F9A3E0FAA3E0FB1201C3
:100E6800F890A451E0F8A3E0F9A3E0FAA3E0FB129C
:100E780001F890A4661208D290A431E0FCA3E0FD2A
:100E8800A3E0FEA3E0FF90A451E0F8A3E0F9A3E0FB
:100E9800FAA3E0FB1201F8C004C005C006C0079021
:100EA800A48E1208DE40000000D007D006D005D07E
:100EB8000412207090A45CE0F8A3E0F9A3E0FAA380
:100EC800E0FB1201F890A4701208D27B017AA47991
:100ED80070020F9B90A442E064036003020FAB9082
:100EE800A4EFE0FCA3E0FDE412041CE4FBFA797A29
:100EF800784412030190A447E0F8A3E0F9A3E0FACC
:100F0800A3E0FB12010790A4511208D2E4FFFEFDF2
:100F18007C4090A443E0F8A3E0F9A3E0FAA3E0FB47
:100F28001201F890A451E0F8A3E0F9A3E0FAA3E0D5
:100F3800FB1201F890A4661208D290A443E0FCA327
:100F4800E0FDA3E0FEA3E0FF90A451E0F8A3E0F9E0
:100F5800A3E0FAA3E0FB1201F8C004C005C006C074
:100F68000790A48E1208DE40000000D007D006D0FB
:100F780005D00412207090A45CE0F8A3E0F9A3E087
:100F8800FAA3E0FB1201F890A4701208D27B017A50
:100F9800A4797090A4BAE4F0A37404F07F507E287A
:100FA800121A2B7B017AA4797490A4BAE4F0A37482
:100FB80004F07F007E25121A2B7B017AA4796690B3
:100FC800A4BAE4F0A37404F07F407E28021A2B41EF
:100FD800808000428082000041808100428084003D
:100FE800004280860000428088000044A517000067
:100FF800000044A4290000000041A428006100A2C8
:1010080029000000000000000000000000000000AF
:1010180000000000000000000000000000000000C8
:1010280000000000000000000000000000000000B8
:1010380000000000000000000000000000000000A8
:101048000000000000000000000000000000000098
:101058000000000000000000000000000000000088
:101068000000000000000000000000000000000078
:101078000000000000000000000000000000000068
:101088000000000000000000000000000000000058
:101098000000000000000000000000000000000048
:1010A8000000000000000000000000000000000038
:1010B8000000000000000000000000000000000028
:1010C8000000000000000000000000000000000018
:1010D8000000000000000000000000000000000008
:1010E80000000000000000000000000000000000F8
:1010F80000000000000000000000000000000000E8
:101108000060FFA3290000000000000000000000AC
:1011180000000000000000000000000000000000C7
:1011280000000000000000000000000000000000B7
:1011380000000000000000000000000000000000A7
:101148000000000000000000000000000000000097
:101158000000000000000000000000000000000087
:101168000000000000000000000000000000000077
:101178000000000000000000000000000000000067
:101188000000000000000000000000000000000057
:101198000000000000000000000000000000000047
:1011A8000000000000000000000000000000000037
:1011B8000000000000000000000000000000000027
:1011C8000000000000000000000000000000000017
:1011D8000000000000000000000000000000000007
:1011E80000000000000000000000000000000000F7
:1011F80000000000000000000000000000000000E7
:101208000000000042A50A000041A5090142A5030B
:101218005AA542A4DC000042A441000044A4740082
:1012280000000044A4433EE9518344A45C40490EB5
:101238005644A4313D32D5D044A4473ECD37BE44B0
:10124800A4510000000044A4700000000044A466FB
:101258000000000044A4780000000044A4620000DC
:10126800000042A46E000044A4550000000044A4FD
:10127800350000000044A44D0000000044A42D00E7
:1012880000000042A46C000042A44B000042A4608D
:10129800000142A45A00B041A46A0B41A46B054462
:1012A800A4F50000000048A4F900000001000200B5
:1012B8000344A4F10000000000789C7CA47D017B1D
:1012C800FF7A36796A7E007F0612061E7B017AA4B1
:1012D800799490A4BAE4F0A37404F07F007E13120A
:1012E8001C787B017AA4799890A4BAE4F0A37404DA
:1012F800F07F057E13121C7890A495E0FFE4FCFDB6
:10130800FE7810120893C004C005C006C00790A458
:1013180094E0FFE4FCFDFE7818120893D003D00295
:10132800D001D000EF4BFFEE4AFEED49FDEC48FC42
:10133800C004C005C006C00790A496E0FFE4FCFD09
:10134800FE7808120893D003D002D001D000EF4BEA
:10135800FBEE4AFAED49F9EC48F8A3E0FFEB4FFF42
:10136800EAFEE9FDE8FC90A4A21208D290A499E054
:10137800FFE4FCFDFE7810120893C004C005C00607
:10138800C00790A498E0FFE4FCFDFE7818120893CB
:10139800D003D002D001D000EF4BFFEE4AFEED495A
:1013A800FDEC48FCC004C005C006C00790A49AE044
:1013B800FFE4FCFDFE7808120893D003D002D001A8
:1013C800D000EF4BFBEE4AFAED49F9EC48F8A3E000
:1013D800FFEB4FFFEAFEE9FDE8FC90A5051208D2F5
:1013E800E47B64FAF9F890A505E0FCA3E0FDA3E02E
:1013F800FEA3E0FF1207E290A4A1EBF0E47B64FAFD
:10140800F9F890A505E0FCA3E0FDA3E0FEA3E0FF4A
:101418001207E2E47B64FAF9F81207E290A4A0EB61
:10142800F0E47B107A27F9F890A505E0FCA3E0FD2D
:10143800A3E0FEA3E0FF1207E2E47B64FAF9F812E6
:1014480007E290A49FEBF0E47B64FAF9F890A4A279
:10145800E0FCA3E0FDA3E0FEA3E0FF1207E290A4F6
:101468009EEBF0E47B64FAF9F890A4A2E0FCA3E018
:10147800FDA3E0FEA3E0FF1207E2E47B64FAF9F8BB
:101488001207E290A49DEBF0E47B107A27F9F8901C
:10149800A4A2E0FCA3E0FDA3E0FEA3E0FF1207E2A4
:1014A800E47B64FAF9F81207E290A49CEBF0A3E05D
:1014B800FFD3940074809480406ED3EF940C7480B2
:1014C80094805064A3E0FF941F748094805054EF7C
:1014D800940074809480404BA3E0D3941774809454
:1014E800805039C3748094804032A3E0D3943B7415
:1014F8008094805020C3748094804019A3E0D394D2
:101508003B748094805007C3748094805020E4908A
:10151800A4A1F08019E490A4A0F08012E490A49F04
:10152800F0800B90A49E800390A49D7401F07B0131
:101538007AA4799C90A4BAE4F0A37406F07F9D7E07
:1015480000121A2B7B017AA5790390A4BAE4F0A3C0
:101558007402F07F9C7E00121A2B021EC090A47C9D
:10156800EBF0A3EAF0A3E9F090A435E0FCA3E0FDDA
:10157800A3E0FEA3E0FFEC4D4E4F70030217CE90A0
:10158800A4351208DE0000000090A455E0F8A3E09E
:10159800F9A3E0FAA3E0FBC000C001C002C003E465
:1015A800FBFA797A784490A462E0FCA3E0FDA3E01A
:1015B800FEA3E0FF120301D003D002D001D0001235
:1015C800010790A4551208D290A42DE0FCA3E0FDD9
:1015D800A3E0FEA3E02401FFE43EFEE43DFDE43C7D
:1015E800FC90A42D1208D2E47F0AFEFDFC90A42DE5
:1015F800E0F8A3E0F9A3E0FAA3E0FBC312088240F5
:101608002990A42D1208DE0000000090A44DE0FCF3
:10161800A3E0FDA3E0FEA3E02401FFE43EFEE43DD9
:10162800FDE43CFC90A44D1208D290A4EFE0FEA388
:10163800E0FF90A47CA3E0FAA3E0F5828A83120974
:101648001390A4F5E0FCA3E0FDA3E0FEA3E0FF12E5
:101658000455AB07AA067C007D3C1206D090A481F5
:10166800EEF0A3EFF07C007D3CAF03AE021206D093
:1016780090A47FECF0A3EDF07B017AA4798190A48B
:10168800BAE4F0A37402F07F007E28121A2B7B01C3
:101698007AA4797F90A4BAE4F0A37402F07F057E5F
:1016A80028121A2B90A44DE0FCA3E0FDA3E0FEA3B2
:1016B800E0FFE412041790A4F5E0F8A3E0F9A3E032
:1016C800FAA3E0FB120107120455AB07AA067C0037
:1016D8007D3C1206D090A481EEF0A3EFF07C007D53
:1016E8003CAF03AE021206D090A47FECF0A3EDF05D
:1016F8007B017AA4797F90A4BAE4F0A37402F07F06
:10170800257E28121A2B7B017AA4798190A4BAE449
:10171800F0A37402F07F207E28121A2B7B017AA492
:10172800795590A4BAE4F0A37404F07F007E2712E0
:101738001A2BE4FFFE7D7A7C4490A455E0F8A3E0E0
:10174800F9A3E0FAA3E0FB1201F890A4F1E0F8A3F2
:10175800E0F9A3E0FAA3E0FB12039E501EE4FBFAB3
:10176800797A784490A4F1E0FCA3E0FDA3E0FEA31D
:10177800E0FF12030190A4551208D27F007E507D2D
:10178800C37C4790A455E0F8A3E0F9A3E0FAA3E0EE
:10179800FB1201F890A4F1E0F8A3E0F9A3E0FAA3A2
:1017A800E0FB12030112045590A46EEEF0A3EFF0D3
:1017B8007B017AA4796E90A4BAE4F0A37402F07F56
:1017C800307E28121A2B2290A47CEDF0AB07AA06D3
:1017D800E4A3F0A31208DE0000000090A48612081B
:1017E800DE00000000AE02AF037C007D0A1206D0C6
:1017F800AC06AD07E412041C90A4821208D2E4FFE0
:10180800FE7D207C4190A482E0F8A3E0F9A3E0FAF1
:10181800A3E0FB12039E60025023E4FFFE7DA07C40
:101828004090A482E0F8A3E0F9A3E0FAA3E0FB1259
:10183800039E400990A47D7401F002190CE4FFFE98
:101848007DA07C4190A482E0F8A3E0F9A3E0FAA38C
:10185800E0FB12039E60025025E4FFFE7D207C41E0
:1018680090A482E0F8A3E0F9A3E0FAA3E0FB120356
:101878009E600B400990A47D7402F002190CE4FFED
:10188800FE7DC87C4290A482E0F8A3E0F9A3E0FAC8
:10189800A3E0FB12039E60025024E4FFFE7DA07CBF
:1018A8004190A482E0F8A3E0F9A3E0FAA3E0FB12D8
:1018B800039E600A400890A47D7403F08046E4FF0C
:1018C800FE7D967C4390A482E0F8A3E0F9A3E0FAB9
:1018D800A3E0FB12039E60025024E4FFFE7DC87C57
:1018E8004290A482E0F8A3E0F9A3E0FAA3E0FB1297
:1018F800039E600A400890A47D7404F0800690A4BA
:101908007D7405F090A47DE024FE603914605F14B6
:1019180070030219A1240360030219F790A48E1220
:1019280008DEBFCCCCCD90A482E0FCA3E0FDA3E010
:10193800FEA3E0FF12207090A4861208D27FDC7EFE
:10194800AF7D0E805090A48E1208DEBFECCCCD90F7
:10195800A482E0FCA3E0FDA3E0FEA3E0FF12207058
:1019680090A4861208D27FB87E287D80802790A414
:101978008E1208DEBFE7AE1490A482E0FCA3E0FD5F
:10198800A3E0FEA3E0FF12207090A4861208D27F85
:10199800407E167D617C47802990A48E1208DEC0A7
:1019A80000000090A482E0FCA3E0FDA3E0FEA3E019
:1019B800FF12207090A4861208D27F047EF67D075D
:1019C8007C4890A486E0F8A3E0F9A3E0FAA3E0FB42
:1019D8001201F890A47E1208D290A47EE0FCA3E045
:1019E800FDA3E0FEA3E0FF90A4621208D280069057
:1019F800A47D740AF090A47CE0FF64016005EF64A4
:101A080003701F90A462E0FCA3E0FDA3E0FEA3E046
:101A1800FF7B9A7A997919783F1201F890A462129B
:101A280008D22290A4B7EBF0A3EAF0A3E9F0AD073F
:101A3800AC0690A4B7E0FBA3E0FAA3E04A4B70031E
:101A4800021C77A3E0FEA3E0FF4E7003021C77EEB2
:101A5800C313FEEF132DFFEE3CFED3EF94FEEE947E
:101A6800FF4003021C77C2AFED5401FBECC313FC2B
:101A7800ED13FDAE047810CEC313CE13D8F9F5F1EB
:101A8800ECF5F2AF058FF3E4F5F875F401D2FF3009
:101A9800FCFDC2FDEB6401707C90A4BAE0FEA3E0FB
:101AA800FF64014E700AC2FBC2FAD2F9C2F880087C
:101AB800C2FBC2FAD2F9D2F8EF64014E90A4B77013
:101AC8001AE0FBA3E475F001120771A9F0FA1206F7
:101AD80044F5FC90A4BBE024FF802DE0FBA3E47553
:101AE800F001120771A9F0FA120644F5FC90A4B7A8
:101AF800E0FBA3E475F001120771A9F0FA1206449D
:101B0800F5FD90A4BBE024FEF090A4BAE034FFF009
:101B1800D2FE20FEFD90A4BAE0FEA3E0FF4E7003C3
:101B2800021C72C3EF9404EE94004003021C00EE02
:101B38007022EF14601614600D147018D2FBD2FADC
:101B4800D2F9C2F8800ED2FBD2FA8004D2FBC2FAD4
:101B5800C2F9C2F890A4BAE0FEA3E0FFEE60030267
:101B68001BF9EF146076146047146003021BF990A8
:101B7800A4B7E0FBA3E475F001120771A9F0FA120B
:101B88000644F5FA90A4B7E0FBA3E475F001120748
:101B980071A9F0FA120644F5FB90A4B7E0FBA3E4A0
:101BA80075F001120771A9F0FA120644F5FC80419C
:101BB80090A4B7E0FBA3E475F001120771A9F0FA4D
:101BC800120644F5FA90A4B7E0FBA3E475F00112FD
:101BD8000771A9F0FA120644F5FB801590A4B7E046
:101BE800FBA3E475F001120771A9F0FA120644F597
:101BF800FAD2FE30FE7480FBD2FBD2FAD2F9D2F8C8
:101C080090A4B7E0FBA3E475F001120771A9F0FAFC
:101C1800120644F5FA90A4B7E0FBA3E475F00112AC
:101C28000771A9F0FA120644F5FB90A4B7E0FBA3EC
:101C3800E475F001120771A9F0FA120644F5FC9058
:101C4800A4B7E0FBA3E475F001120771A9F0FA123A
:101C58000644F5FDD2FE20FEFD90A4BBE024FCF076
:101C680090A4BAE034FFF0021B1DE4F5F8D2AF22CD
:101C780090A4B7EBF0A3EAF0A3E9F0AD07AC0690A7
:101C8800A4B7E0FBA3E0FAA3E04A4B7003021EBF2F
:101C9800A3E0FEA3E0FF4E7003021EBFEEC313FED7
:101CA800EF132DFFEE3CFED3EF94FEEE94FF4003BE
:101CB800021EBFC2AFED5401FBECC313FCED13FDD4
:101CC800AE047810CEC313CE13D8F9F5F1ECF5F2C3
:101CD800AF058FF3E4F5F875F401D2FF30FCFDD2BF
:101CE800FDEB6401707D90A4BAE07004A3E0640188
:101CF800700AC2FBC2FAD2F9C2F88008C2FBC2FA63
:101D0800D2F9D2F8D2FE20FEFD90A4BAE07004A366
:101D1800E0640190A4B7701BE0FBA3E475F0011226
:101D28000771A9F0FAE5FC12068A90A4BBE024FF2B
:101D3800021EAFE0FBA3E475F001120771A9F0FAE7
:101D4800E5FC12068A90A4B7E0FBA3E475F0011243
:101D58000771A9F0FAE5FD12068A90A4BBE024FEFB
:101D6800021EAF90A4BAE0FEA3E0FF4E7003021E6D
:101D7800BAC3EF9404EE94004003021E48EE7022AA
:101D8800EF14601614600D147018D2FBD2FAD2F951
:101D9800C2F8800ED2FBD2FA8004D2FBC2FAC2F992
:101DA800C2F8D2FE20FEFD90A4BAE0FEA3E0FFEE4A
:101DB8006003021EBAEF14607014604414600302DA
:101DC8001EBA90A4B7E0FBA3E475F001120771A94D
:101DD800F0FAE5FA12068A90A4B7E0FBA3E475F0DE
:101DE80001120771A9F0FAE5FB12068A90A4B7E080
:101DF800FBA3E475F001120771A9F0FAE5FC803B3A
:101E080090A4B7E0FBA3E475F001120771A9F0FAFA
:101E1800E5FA12068A90A4B7E0FBA3E475F0011274
:101E28000771A9F0FAE5FB801290A4B7E0FBA3E4E0
:101E380075F001120771A9F0FAE5FA12068A8072A4
:101E4800D2FBD2FAD2F9D2F8D2FE20FEFD90A4B786
:101E5800E0FBA3E475F001120771A9F0FAE5FA12A4
:101E6800068A90A4B7E0FBA3E475F001120771A9F4
:101E7800F0FAE5FB12068A90A4B7E0FBA3E475F03C
:101E880001120771A9F0FAE5FC12068A90A4B7E0DE
:101E9800FBA3E475F001120771A9F0FAE5FD12063B
:101EA8008A90A4BBE024FCF090A4BAE034FFF002CE
:101EB8001D6BE4F5F8D2AF2278A87CA47D017BFFE6
:101EC8007A3679787E007F0212061E7B017AA47921
:101ED800A690A4BAE4F0A37402F07F9C7E00121CC2
:101EE8007890A4A6E0645A7004A3E064A560030295
:101EF800206F90A4AAF0A3F0D20078AC7CA47D0156
:101F08007BFF7A36797AFE7F0712061E7B017AA458
:101F180079B390A4BAE4F0A37402F07F9D7E001216
:101F28001C7890A4B3E0FCA3E0FDEC90A4AAF0E038
:101F3800FF75F00A84C454F0FEEF75F00A84EE25AC
:101F4800F090A4ACF090A4AAEDF0E0FF75F00A843C
:101F5800C454F0FEEF75F00A84EE25F090A4ADF0BD
:101F68007B017AA479B390A4BAE4F0A37402F07F59
:101F78009E7E00121C7890A4B3E0FCA3E0FDEC90D8
:101F8800A4AAF0E0FF75F00A84C454F0FEEF75F0DF
:101F98000A84EE25F090A4AEF090A4AAEDF0E0FF3C
:101FA80075F00A84C454F0FEEF75F00A84EE25F04B
:101FB80090A4B0F07B017AA479B390A4BAE4F0A31A
:101FC8007402F07F9F7E00121C7890A4B3E0FCA3FB
:101FD800E0FDEC90A4AAF0E0FF75F00A84C454F088
:101FE800FEEF75F00A84EE25F090A4B1F090A4AA53
:101FF800EDF0E0FF75F00A84C454F0FEEF75F00AC6
:1020080084EE25F090A4B2F07B017AA479A890A47C
:10201800BAE4F0A304F07F9C7E00121A2B3000472C
:102028001200867F101200C490A4B2E0FF1200C410
:1020380090A4B1E0FF1200C490A4B0E0FF1200C465
:1020480090A4AFE0FF1200C490A4AEE0FF1200C459
:1020580090A4ADE0FF1200C490A4ACE0FF1200B958
:10206800123424C20080B62290A48A1208D2E4FF57
:10207800FE7D807C3F90A48AE0F8A3E0F9A3E0FA13
:10208800A3E0FB12039E700690A48A0221CA90A4C2
:102098008AE0FCA3E0FDA3E0FEA3E0FF1204D6FB68
:1020A800A3E0FCA3E0FDA3E0FEA3E0FF1204D6FF3B
:1020B800B40108E4FFFE7D807C3F22EF64046029C0
:1020C800EB64046024EBB40130E4FFFEFDFC90A453
:1020D8008EE0F8A3E0F9A3E0FAA3E0FB12039E6008
:1020E800084006E4FFFEFDFC2290A48E1208DEFFE5
:1020F800FFFFFF90A48E0221CAE490A492F0A3F0FF
:10210800FFFEFDFC90A48AE0F8A3E0F9A3E0FAA39F
:10211800E0FB12039E505F90A48EE0FCA3E0FDA3B9
:10212800E0FEA3E0FF12045590A492EEF0A3EFF0B6
:10213800FDCCEECCEC12041CC8ECC8C9EDC9CAEE43
:10214800CACBEFCB90A48EE0FCA3E0FDA3E0FEA3F6
:10215800E0FF120103E4FBFAF9F812039E708A907B
:10216800A48AE0FCA3E0FDA3E0FEA3E0FF1204F0D4
:1021780090A48A1208D290A48AE0FCA3E0FDA3E010
:10218800FEA3E0FF12249A90A48EE0F8A3E0F9A33E
:10219800E0FAA3E0FB1201F8122C2690A48E120894
:1021A800D290A493E030E01790A48EE0FCA3E0FD69
:1021B800A3E0FEA3E0FF1204F090A48E1208D290D0
:1021C800A48EE0FCA3E0FDA3E0FEA3E0FF2290A420
:1021D80087EBF090A486EDF0EF24D0FEE43407906E
:1021E800A489F0A3CEF0EDFF64016005EF640270EE
:1021F8001590A486E0240CF090A48AE024FFF090C7
:10220800A489E034FFF090A489E0FEA3E0FFC39422
:10221800D8EE94064034BE0610BFD80D90A486E0D0
:10222800C3940974809480402190A489E064067066
:1022380004A3E064D8706590A486E06409705DA387
:10224800E0C3940374809480505290A486E0FB24E9
:1022580001FFE433FE7C007D031206BE7D051207F4
:1022680025AD07EB75F002A4FFA3E07A002FFFEA83
:1022780035F0CF2DCF3EFE90A489E0FCA3E0FD2FE2
:10228800FBEC3EFAAE04ED7802CEC313CE13D8F9B8
:102298002BFFEA3ECF2406CF3400807C90A486E052
:1022A8002401FFE433FE7C007D031206BE7D051287
:1022B8000725AC06AD07A3E02401FBE433FA90A49C
:1022C80086E075F002A42BFFE5F03ACF2DCF3CFE57
:1022D80090A489E0FCA3E0FD2FFBEC3EFAAE04EDF0
:1022E8007802CEC313CE13D8F92BFBEA3EFA90A49A
:1022F80089E0FEA3E0FF7C007D641206D0C3EB9F5B
:10230800FBEA9EFA90A489E0FEA3E0FF7C017D90A1
:102318001206D0EF2BFFEE3AFE7C007D071206D0A6
:1023280090A488EDF090A488E0FF22787E7CA47DBC
:10233800017BFF7A3679707E007F0812061E120034
:10234800BF12342E12353F7F651200C47C06ECD3D1
:102358009400748094804015123383747E2CF58227
:10236800E434A4F583EFF01200161C80E1123383E5
:1023780090A47EEFF01235DE123433E4FCECC39403
:1023880003748094805030747E2CF582E434A4F574
:1023980083E0FFC4540FFE90A47CF0EF540FFFA31A
:1023A800F0EE75F00AA42FFF747E2CF582E434A4B5
:1023B800F583EFF00C80C67C04ECC394077480941A
:1023C800805030747E2CF582E434A4F583E0FFC499
:1023D800540FFE90A47CF0EF540FFFA3F0EE75F0BD
:1023E8000AA42FFF747E2CF582E434A4F583EFF061
:1023F8000C80C690A47EE0FFA3E0FDA3E0FB1221C1
:10240800D690A481EFF07B017AA4797E90A4BAE4F7
:10241800F0A37402F07F107E00121A2B7B017AA4BD
:10242800798090A4BAE4F0A37402F07F117E0012C0
:102438001A2B7B017AA4798290A4BAE4F0A37402DF
:10244800F07F127E00121A2B7B017AA4798490A463
:10245800BAE4F0A37402F07F137E00021A2B3E92B6
:1024680048DA3ECCCCCD3F2AAAAB400000003F80E2
:1024780000003F9837F03FB504F33FD744FC3E31A6
:1024880072173EB172173F0515913EDE5BD9D20037
:102498008002C200EDD2E7F8CD33EC3304700BBDF7
:1024A800800592D50204CB0204C140FBD31460F22C
:1024B800F5F07C3FEE7A00C39496C8948B40230ACB
:1024C800C89469C8941A401A0AC89468C8941F40E6
:1024D800110AC8945AC89425400805F07A00CDC25C
:1024E800E7CDC0F090A4941208D2EA2323C0E024D8
:1024F80076F582E43424F5831208C2120107ECC091
:10250800E0EDC0E0EEC0E0EFC0E01208A690A494B1
:102518001208B6120103D0E0FBD0E0FAD0E0F9D0FF
:10252800E0B2E7F812030190A4941208D29024664E
:10253800740312050190A4941208B61201F8D0E0B1
:10254800600F2482F582E43424F5831208C2120154
:102558000790A4941208D2D0E0C3947FFDE49400BD
:10256800FC12041C7B187A727931783F1201F890BA
:10257800A4941208B612010730000B7BD97A5B7954
:10258800DE783E1201F8227B017AA4798090A4BA01
:10259800E4F0A37402F07F007E51121C7890A480AE
:1025A800E0FEA3E0FFEE704CEF24FE6019146022F9
:1025B80014602B1460342404703A90A4F11208DEDD
:1025C80043FA0000802E90A4F11208DE447A00003D
:1025D800802290A4F11208DE44BB8000801690A4EB
:1025E800F11208DE451C4000800A90A4F11208DEB2
:1025F800457A000090A4EFE0FEA3E0FF1228769051
:10260800A4F5E0FCA3E0FDA3E0FEA3E0FF1204555F
:10261800AB07AA067C007D3C1206D090A47EEEF0A3
:10262800A3EFF07C007D3CAF03AE021206D090A46D
:102638007CECF0A3EDF07B017AA4797E90A4BAE457
:10264800F0A37402F07F207E28121A2B7B017AA453
:10265800797E90A4BAE4F0A37402F07F007E281279
:102668001A2B7B017AA4797C90A4BAE4F0A37402B3
:10267800F07F057E28121A2B7B017AA4797C90A41E
:10268800BAE4F0A37402F07F257E28021A2BAEADBF
:1026980090A4DCE0FCA3E0FDEC704BED146020049A
:1026A8007044EE6457600302279674DF2DF5827438
:1026B800A43CF583EEF090A4DCE4F0A304F022EE51
:1026C800701C90A4DCE0FCA3E024DFF58274A43C39
:1026D800F583EEF090A4DCE4F0A37402F022E49019
:1026E800A4DCF0A3F02290A4DCE0FCA3E024DFF556
:1026F8008274A43CF583EEF090A4DDE004F070064B
:1027080090A4DCE004F0D390A4DDE0940F90A4DC66
:10271800E094004079E4F0A3F090A4E0E0FF90A4F6
:10272800DFE02FFF90A4E1E02FFFA3E02FFFA3E05D
:102738002FFFA3E02FFFA3E02FFFA3E02FFFA3E0CD
:102748002FFFA3E02FFFA3E0FD2FFFA3E0FE2FFF45
:10275800A3E02FFFA3E02FFFA3E02FFFA3E0B5071F
:102768002DEE702A90A4E8E07B00FAED7E00781048
:10277800C333CE33CED8F9FFEE4AFEEF4BFF90A419
:10278800E7E0FDEF4DFF90A4EFEEF0A3EFF022900D
:10279800A48BEBF0A3EAF0A3E9F0E490A496F0A3ED
:1027A800F0A3F0A3F0C390A495E0940790A494E05C
:1027B800940050037F022290A48BE0FBA3E0FAA3CD
:1027C800E0F9120644645A60037F03229000011264
:1027D800065D64A560037F032290000212065D2453
:1027E80003FFE433FE90A496F0A3EFF0C390A49502
:1027F800E09F90A494E09E4072E490A498F0A3F027
:1028080090A496E0FEA3E0FFA3E0FCA3E0FDC39F35
:10281800EC9E503C90A48BE0FBA3E0FAA3E0F912F5
:102828000644FF90A48EE0FBA3E0FAA3E0F98D82B2
:102838008C83EF12069C90A48CE475F00112075B60
:1028480090A499E004F070B890A498E004F080B0E7
:1028580090A496E0F9A3E0FF90A491E0FBA3E0FA2E
:10286800A3E0C98FF01207877F01227F0222AD07FC
:10287800AC06E412041CE4FBFA7920784112030147
:1028880090A4821208D2E4FFFE7DC87C4390A48203
:10289800E0F8A3E0F9A3E0FAA3E0FB12039E5024BA
:1028A800E4FFFE7DA07C4090A482E0F8A3E0F9A3B9
:1028B800E0FAA3E0FB12039E600A400890A50174A9
:1028C80001F0800690A5017405F090A502E064036C
:1028D800602590A501E014706D90A462E0F8A3E073
:1028E800F9A3E0FAA3E0FB90A4F1E0FCA3E0FDA3C8
:1028F800E0FEA3E0FF804690A501E0147048E4FFE5
:10290800FE7D7A7C4490A455E0F8A3E0F9A3E0FAB0
:10291800A3E0FB1201F8A804A905AA06AB0790A436
:10292800F1E0FCA3E0FDA3E0FEA3E0FF12010390A9
:10293800A462E0F8A3E0F9A3E0FAA3E0FB12030124
:1029480090A4F50208D290A5017406F022C0E0C058
:10295800F0C083C082C0D075D000C000C001C002E2
:10296800C003C004C005C006C007C2AF758CBC75E3
:102978008ACD90A50BE004F0700690A50AE004F05B
:1029880090A517E0FCA3E0FDA3E0FEA3E02401FF6F
:10299800E43EFEE43DFDE43CFC90A5171208D2E4B9
:1029A8007F64FEFDFC90A517E0F8A3E0F9A3E0FA28
:1029B800A3E0FBC3120882402990A435E0FCA3E001
:1029C800FDA3E0FEA3E02401FFE43EFEE43DFDE4B8
:1029D8003CFC90A4351208D290A5171208DE00001E
:1029E8000000D2AFD007D006D005D004D003D00263
:1029F800D001D000D0D0D082D083D0F0D0E032E463
:102A080090A48BF0A3F090A22DE0FEA3E0FDEDFFD3
:102A180090A48BEEF0A3EFF090A22CE06482703DBE
:102A28007B017AA2792F90A22BE024FDFEE434FFEB
:102A380090A4BAF0A3CEF090A48BE0FEA3E0FF121E
:102A48001A2B90A22B7403F090A22D744FF0A3744C
:102A58004BF07B017AA2792990A22B803E90A22C80
:102A6800E06483703D7B017AA2793090A22FE075F3
:102A7800F002A4FF90A4BAE5F0F0A3EFF090A48BC5
:102A8800E0FEA3E0FF121C7890A22FE025E0FF9063
:102A9800A22BE02FF07B017AA27929E02403FD1212
:102AA80032152290A492EEF0A3EFF090A442E02415
:102AB800F8606B24076003022B4C90A492E064300A
:102AC8007004A3E0641070431235F2EF6401702AB9
:102AD80090A502E06405700812311390A5028016D3
:102AE80090A502E0640270067403F0022EA890A577
:102AF80002E06404704E7403F0221235F2EF90A5E0
:102B08000270047404F0227401F02290A492E0B4DC
:102B18003032A3E0B4202D90A5027406F02290A4D0
:102B280092E0FEA3E0FF64407003EE64146015EFCA
:102B380064417003EE6414600BE4B50707EEB41447
:102B4800031212C122759401759502758E00759352
:102B58000075C87075C96075F800787FE4F6D8FD0F
:102B6800758120022BA9023517E493A3F8E493A3F7
:102B78004003F68001F208DFF48029E493A3F854B7
:102B880007240CC8C333C4540F4420C8834004F43A
:102B980056800146F6DFE4800B010204081020404D
:102BA80080900FD7E47E019360BCA3FF543F30E5CB
:102BB80009541FFEE493A360010ECF54C025E060C2
:102BC800A840B8E493A3FAE493A3F8E493A3C8C590
:102BD80082C8CAC583CAF0A3C8C582C8CAC583CA81
:102BE800DFE9DEE780BE33DA929E35B16011377FC8
:102BF800E5FE392184893AAEC3FF3C1D955B3D63F0
:102C080058473E75FDF03F3172183F800000C2D52D
:102C18000204CB0204C1BD80FA50F30204C8ED33AC
:102C2800EC330460F17B3B7AAA79B8783F1201F85B
:102C3800ED33EC3392D5247B5011A2D570DB500BC9
:102C4800ED448024045004A2D580CEEFFBEEFAEDCB
:102C5800F9ECF8120455EFF582F404FC1204211281
:102C68000107C082902BEE7409120510ED33CC33A6
:102C7800D0F092D525F0A2D57001C313CC13FD2254
:102C880090A512EFF078137CA57D017BFF7A367949
:102C98004C7E007F0412061E7B017AA5791390A44E
:102CA800BAE4F0A37404F07F807E00121C7890A52B
:102CB80013745AF090A512E0FD3395E0FCED640121
:102CC8004C700990A516E054F7F0800DED64024CA5
:102CD800703F90A516E04408F07B017AA57913901F
:102CE800A4BAE4F0A37404F07F807E00121A2B7F4C
:102CF800057E001234457B017AA5791390A4BAE4C5
:102D0800F0A304F07F807E00121C7890A513E07079
:102D1800DE2290A46CE07004A3E06401707C90A4AF
:102D280042E0640170077D027F0412334C90A44294
:102D3800E090A43CF090A460E0FFA3E090A43FCF13
:102D4800F0A3EFF090A46BE090A43EF090A43D7443
:102D580001F090A45AE0FEA3E0FF7B017AA4793940
:102D680090A4BAE4F0A37408F0121A2B90A46AE0B5
:102D780090A43EF0E490A43DF090A45AE0FEA3E0B5
:102D8800FF7B017AA4793990A4BAE4F0A37408F01F
:102D9800121A2BE490A46CF0A3F022787C7CA47D1A
:102DA800017BFF7A3679587E007F1012061EE49068
:102DB800A48CF0A3F0A3F0A3F0A3F0A3F090A42AAE
:102DC800E0FDFEA3E0FBF582E582FF90A490EEF023
:102DD800A3EFF090A229745AF0A374A5F090A42C44
:102DE800E0FC25E0240390A22BF0A37483F0A3ED6C
:102DF800F0A3EBF07B017AA2792FEC75F002A4FF27
:102E080090A4BAE5F0F0A3EFF090A490E0FEA3E060
:102E1800FF121C7890A490E0FEA3E0FF022AABC04A
:102E2800E0C0F0C083C082C0D075D000C000C0012F
:102E3800C002C003C004C005C006C007E4FFC2AF9B
:102E4800E5AB54016401703B122696AFAD908088C3
:102E5800E0FCA3E02400F58274803CF583EFF09059
:102E68008089E004F07006908088E004F053ABFE9F
:102E7800C3908089E09480908088E094004004E4C6
:102E8800F0A3F0D2AFD007D006D005D004D003D03D
:102E980002D001D000D0D0D082D083D0F0D0E032A0
:102EA80090A442E0640170077D027F0412331590FC
:102EB800A442E090A43CF0E4A3F090A46AE090A4BB
:102EC8003EF090A44BE0FFA3E090A43FCFF0A3EF27
:102ED800F090A45AE0FEA3E0FF7B017AA479399030
:102EE800A4BAE4F0A37408F0121A2B90A43D74015C
:102EF800F090A46BE090A43EF090A45AE0FEA3E00A
:102F0800FF7B017AA4793990A4BAE4F0A37408F09D
:102F1800121A2B90A46CE4F0A304F0227BFF7A2809
:102F28007976121565E4FFFE7D7A7C4490A455E01D
:102F3800F8A3E0F9A3E0FAA3E0FB1201F890A4F1EA
:102F4800E0F8A3E0F9A3E0FAA3E0FB12039E602BEC
:102F58004029E4FFFEFDFC90A4F5E0F8A3E0F9A306
:102F6800E0FAA3E0FB12039E6011400FC390A46F28
:102F7800E0946490A46EE09400400690A502740565
:102F8800F022C0E0C083C082C0D075D000C004C0A9
:102F980007C2AF309837AF99908082E0FCA3E02455
:102FA8008AF58274803CF583EFF0908083E004F02A
:102FB8007006908082E004F0C3908083E094A09033
:102FC8008082E0941F4004E4F0A3F0C2983099078F
:102FD800C299908080E4F0D2AFD007D004D0D0D08E
:102FE80082D083D0E03290A50CEEF0A3EFF0780EFB
:102FF8007CA57D017BFF7A3679547E007F0412061A
:103008001E90A50CE0FCA3E0FDEC90A510F0A3ED4C
:10301800F07B017AA5790E90A4BAE4F0A37404F0C9
:103028007F847E00121A2B7F057E001234457B01B7
:103038007AA5790E90A4BAE4F0A304F07F847E0008
:10304800121C7890A50EE070DE2290A442E0FF905A
:10305800A459E06F6008EFF090A5027401F090A504
:1030680002E0B407005043903076F8282873023005
:103078008B02309102309A02309D0230A00230A3B8
:103088000230A690A5027401F090A5027402F01215
:10309800006102258F022F240200620235011231DD
:1030A80013122D1A90A5027401F022C0E0C083C04B
:1030B80082C0D075D000C004C007C2AFE59B30E025
:1030C80028AF9C908084E0FCA3E0242AF58274A0B9
:1030D8003CF583EFF0908085E004F07006908084E2
:1030E800E004F0539BFE539BFEE59B30E10B539BA2
:1030F800FD539BFD908081E4F043C901D2AFD00716
:10310800D004D0D0D082D083D0E03290A455120819
:10311800DE000000007B017AA4795590A4BAE4F09F
:10312800A37404F07F007E27121A2BE490A46EF09B
:10313800A3F07B017AA4796E90A4BAF0A37402F08C
:103148007F307E28121A2B90A44D1208DE00000052
:10315800007B017AA479F990A4BAE4F0A37402F090
:103168007F107E30021A2B1200BF7F1D1200C4127E
:10317800343312353F7F651200C4123383AC071213
:1031880000161233831235DE123433EC5402640213
:10319800702E1200867F101200C4E4FF1200C4E4EF
:1031A800FF1200C4E4FF1200C47F011200C47F01B3
:1031B8001200C47F011200C47F171200B912342410
:1031C80022787C7CA47D017BFF7A3679507E007F53
:1031D8000412061E7B017AA4792990A4BAE4F0A30C
:1031E8007404F07F007E0F121C7890A429E0645AC2
:1031F80070187B017AA4797C90A4BAF0A37404F0C7
:103208007F007E0F121A2B7F01227F002290A48D4F
:10321800EBF0A3EAF0A3E9F090A48DE0FBA3E0FAB9
:10322800A3E04A4B6027ED6024AF051DEF601E90B8
:10323800A48DE0FBA3E0FAA3E0F9120644FF1235DF
:103248007790A48EE475F00112075B80DC2290A5CC
:103258001BEBF0A3EAF0A3E9F090A51BE0FBA3E0C9
:10326800FAA3E04A4B6027ED6024AF051DEF601E0E
:1032780090A51BE0FBA3E0FAA3E0F9120644FF12B5
:10328800358590A51CE475F00112075B80DC22905F
:10329800A51EEBF0A3EAF0A3E9F090A51EE0FBA3BE
:1032A800E0FAA3E04A4B6027ED6024AF051DEF600C
:1032B8001E90A51EE0FBA3E0FAA3E0F9120644FF66
:1032C8001235BB90A51FE475F00112075B80DC2264
:1032D8007B017AA4794190A4BAE4F0A37402F07F48
:1032E800147E00121C7890A442E0FF14601614604B
:1032F800181460152403701490A459EFF090A502D7
:103308007401F0221230528000120CE72290A4427D
:10331800E090A43CF0A3EFF0A3EDF090A44BE0FF05
:10332800A3E090A43FCFF0A3EFF090A45AE0FEA34F
:10333800E0FF7B017AA4793990A4BAE4F0A3740879
:10334800F0021A2B90A442E090A43CF0A3EFF0A363
:10335800EDF090A460E0FFA3E090A43FCFF0A3EFCE
:10336800F090A45AE0FEA3E0FF7B017AA47939909B
:10337800A4BAE4F0A37408F0021A2B120026E4FDA4
:10338800EDC3940874809480501B1234ECEE25E051
:10339800FE30B3054401FE8004EE54FEFEC2B212B4
:1033A80034F10D80DBAF0622E490A493F0A3F0A3E0
:1033B800F0A3F0AE04AF05C003C00290A490E0FBF8
:1033C800A3E0FAA3E0F8AC02AD03D002D0031206E2
:1033D8001E7F012243B71043C940E4908080F090DB
:1033E8008082F0A3F075D88075985053877F75BA9E
:1033F8000375AAE4D29CD2AC221200261234EAE465
:10340800FEEEC3943274809480500930B3061234AF
:10341800F10E80EDC2B21234F10200667F1E120076
:10342800C4E4FF1200C47F101200C4120066C2B3C5
:10343800D2B21234F1D2B31234F1020026E4FDFC08
:10344800C3ED9FEC9E5015E4FBFA0BBB00010ABAD2
:103458001CF8BBE8F50DBD00010C80E42243B7C0A1
:1034680043C920E4908081F0908084F0A3F0759B9C
:10347800D075BB03759DC8759A012290A521EFF000
:103488007B017AA5792190A4BAE4F0A304F07F82A5
:103498007E00021A2BC390A50BE094F490A50AE0D5
:1034A8009401400A122333E490A50AF0A3F022E421
:1034B80090A502F07B017AA479F990A4BAF0A374DC
:1034C80002F07F107E30021A2B75F90175B7C375AB
:1034D800BCA375BD2A75BE0CE4F580F590F5A0F582
:1034E800B022D2B31234F1D2B2E4FFEFC3945074D5
:1034F80080948050030F80F3227B017AA479F9909D
:10350800A4BAE4F0A37402F07F107E30021A2B12E2
:10351800356612316F1235A11235C71232D81234FE
:103528009D80F575C870E4F5CDF5CC75CBBC75CA32
:10353800CD43A820D2C822120066D2B3D2B2123428
:10354800F1C2B31234F1C2B20234F1E4908086F0D1
:10355800A3F0759680759780F5D975E7E022C2AF1C
:103568001235AF1234D11235E91200F1D2AF2290E0
:103578008080E0640160F87401F08F992290808166
:10358800E0640160F87401F08F9C22438901758C16
:10359800BC758ACDD2A9D28C2290A439745AF0A3D2
:1035A80074A5F0E4A3F022E4F5A8F5B8F59AF5A916
:1035B800F5B9228FACE5A7540160FA53A7FE221291
:1035C80031C9EF6003122DA30209417BFF7A3679D6
:1035D800017D150232151200661234EAC2B20234B5
:1035E800F11233DC12355302006E90A230E0FF2254
:1035F80090A522EFF022C2C6325561727432496E2C
:10360800697420446F6E6521212131323300556180
:10361800727433496E697420446F6E6521212100EC
:103628005561727434496E697420446F6E65212146
:1036380021005561727435496E697420446F6E6556
:103648002121210000000000000000005A010000B4
:103658000000000000000000000000000000000062
:103668000000000000000000000000000000000052
:0936780000000000000000000049
:00000001FF
