:100000000225FD020006C2AFD2AF32022D36C2AFCA
:10001000D2AF3202000E120066C2B3122E2CC2B250
:10002000022E310229C953BEF72232022F111200CB
:1000300026E4FDEDC3940874809480501B122E2C8E
:10004000EE25E0FE30B3054401FE8004EE54FEFED2
:10005000C2B2122E310D80DBAF0622122EBA022E52
:1000600041222202002A43BE0822220228DDE49017
:100070008088F0A3F075A78075AB80F5AE75AFE012
:10008000D2BD22022A91AD07AC0690A470E024F8FC
:10009000603F2407705AED64107003EC64307020E8
:1000A0001200F1EF6401700790A4BA7403F02212F9
:1000B00000F1EF90A4BA70047404F0227401F022ED
:1000C000ED64207003EC6430702690A4BA7406F0DE
:1000D00022ED64407003EC64146015ED644170031C
:1000E000EC6414600BE4B50507ECB41403120CD0F7
:1000F0002290A230E0FF2222FFFF4457494E5435A0
:100100000204C1E86480F8E933E83360110460F068
:10011000ED33EC337009E8FCE9FDEAFEEBFF220465
:1001200060DED3EB9FEA9EE99DE8C2E78CF0C2F760
:1001300095F0400CE8CCF8E9CDF9EACEFAEBCFFB2C
:1001400012048C85D0F05804700320D5B3E80470F5
:10015000075002B2D50204CB92D5EC0460F7E4CC90
:10016000C0E0C398F8603B94186008400DD0E0FBF5
:100170000204A3E4FBFAC9FC8028E830E406E4C9E1
:10018000FBE4CAFCE830E305E4C9CACBFCE8540749
:100190006010F8C3E913F9EA13FAEB13FBEC13FC54
:1001A000D8F130F52FC3E49CFCEF9BFFEE9AFEEDF7
:1001B00099FDD0E0FBEF4E4D4C701222DB030204A0
:1001C000C8EC2CFCEF33FFEE33FEED33FDED30E7F2
:1001D000EB0204A3EF2BFFEE3AFEED39FDD0E0FB7E
:1001E00050130BBB00030204CBED13FDEE13FEEF27
:1001F00013FFEC13FC0204A3EC4D6011E8497017E7
:10020000ED33EC3304600DE4FCFFFEFD22E933E83E
:10021000330470F80204C112048C58046009E4CC61
:10022000248150062850090204CB2840030204C848
:10023000C0E0EB4A7044B98006D0E0FB0204B7EF9F
:100240004E701CBD8008EBFFEAFEE9FD80EBE98DF6
:10025000F0A4FEE5F00202E1E9CDF9EAFEEBFFEFE2
:1002600089F0A4FCE5F0CE89F0A42EFFE435F0CDB2
:1002700089F0A42DFEE435F08067EF4E7005BD8057
:10028000D780C3EF8BF0A4ACF0EE8BF0A42CFCE491
:1002900035F0F8EF8AF0A42CE5F038FCE433CB8D90
:1002A000F0A42CFCE5F03BF8EE8AF0A42CFCE5F081
:1002B00038F8E433CF89F0A42CFCE5F038CF3400D3
:1002C000CE89F0A42FFFE5F03EFEE433C98DF0A403
:1002D0002EFEE5F039CD8AF0A42FFFE5F03EFEE4D6
:1002E0003DFD33D0E0FB50070BBB000F0204CBEC0D
:1002F0002CFCEF33FFEE33FEED33FD0204A30204CA
:10030000CBEC5D046005E8590470030204C11204DB
:100310008C580460F6EC4860F2EC7004FDFEFF229D
:10032000C860DB2481C85009C398600250060204EB
:10033000C89850CAF582E9294B4A7005AB8202047D
:10034000B775F0007C1A7880C3EF9BEE9AED994068
:100350000DC3EF9BFFEE9AFEED99FDE842F0DC2322
:10036000ACF0D0E0FFD0E0FED0E0FDAB8220E710A3
:100370001BEB60BAEC2CFCEF33FFEE33FEED33FDEC
:100380000204A3E803F830E705C0F075F000EF2F92
:10039000FFEE33FEED33FD40B830E7C280AA74F8BB
:1003A000CC6480CCC86480C8F58204604FC3EB9FE6
:1003B000F5F0EA9E42F0E99D42F0E89C45F0603C91
:1003C000501DE5825FFFE582D313CB5BCBF42B5549
:1003D00082FB50280ABA002409B9002008801DE5D4
:1003E000825BFBE582D313CF5FCFF4C3132F55821B
:1003F000FF50090EBE00050DBD00010CC3EB9FF5BB
:10040000F0EA9E42F0E99D42F0E89C45F06007CC9E
:100410004820E701B3EC2275F020800E75F01080C3
:100420000575F0087D007E007F003392D530D5033E
:10043000120874EC334010EF33FFEE33FEED33FD62
:10044000EC33FCD5F0ED22E5F0247EA2D513CC925E
:10045000E7CDCEFF22EDD2E7CD33EC3392D5248128
:100460004006E4FFFEFDFC22FCE4CFCECDCC24E030
:10047000501174FF80EDC3CC13CCCD13CDCE13CE71
:10048000CF13CF0470F030D5DE020874E9D2E7C98B
:1004900033E833F892D5EDD2E7CD33EC33FC50029C
:1004A000B2D522EC30E7100FBF000C0EBE00080DD5
:1004B000BD00040BEB6014A2D5EB13FCED92E7FD3D
:1004C0002274FFFCFDFEFF22E480F8A2D574FF1326
:1004D000FC7D80E480EFED33EC33601004700FEDB1
:1004E000547F7005740292E0227404220422E422F4
:1004F000ED33EC33600A047003BD8004ECB2E7FC1A
:1005000022C0E0EFFBEEFAEDF9ECF81201F8D0E0D2
:10051000F5F0EFFBEEFAEDF9ECF8120895A3A3A3C2
:10052000A3E8C0E0E9C0E0EAC0E0EBC0E0C0F01240
:1005300001F81208B1A3A3A3A3120107D0F0D0E0E1
:10054000FBD0E0FAD0E0F9D0E0F8D5F0D422E7090A
:10055000F608DFFA8046E709F208DFFA803E888273
:100560008C83E709F0A3DFFA8032E309F608DFFAAB
:100570008078E309F208DFFA807088828C83E309CF
:10058000F0A3DFFA806489828A83E0A3F608DFFAA9
:10059000805889828A83E0A3F208DFFA804C80D2F7
:1005A00080FA80C680D4806980F28033801080A673
:1005B00080EA809A80A880DA80E280CA80338982CB
:1005C0008A83ECFAE493A3C8C582C8CCC583CCF077
:1005D000A3C8C582C8CCC583CCDFE9DEE7800D891E
:1005E000828A83E493A3F608DFF9ECFAA9F0EDFB25
:1005F0002289828A83ECFAE0A3C8C582C8CCC5836D
:10060000CCF0A3C8C582C8CCC583CCDFEADEE880C5
:10061000DB89828A83E493A3F208DFF980CC88F037
:10062000EF60010E4E60C388F0ED2402B404005068
:10063000B9F582EB2402B4040050AF232345822392
:1006400090059E73BB010689828A83E0225002E7EF
:1006500022BBFE02E32289828A83E49322BB010C3F
:10066000E58229F582E5833AF583E0225006E92503
:1006700082F8E622BBFE06E92582F8E222E582291D
:10068000F582E5833AF583E49322BB010689828AE9
:1006900083F0225002F722BBFE01F322F8BB010DCA
:1006A000E58229F582E5833AF583E8F0225006E9F0
:1006B0002582C8F622BBFE05E92582C8F222EF8D0D
:1006C000F0A4A8F0CF8CF0A428CE8DF0A42EFE22AA
:1006D000BC000BBE0029EF8DF084FFADF022E4CC0E
:1006E000F875F008EF2FFFEE33FEEC33FCEE9DECD7
:1006F000984005FCEE9DFE0FD5F0E9E4CEFD22ED1D
:10070000F8F5F0EE8420D21CFEADF075F008EF2F66
:10071000FFED33FD4007985006D5F0F222C398FD57
:100720000FD5F0EA22C2D5EC30E709B2D5E4C39D7B
:10073000FDE49CFCEE30E715B2D5E4C39FFFE49ED8
:10074000FE1206D0C3E49DFDE49CFC80031206D09B
:1007500030D507C3E49FFFE49EFE22C5F0F8A3E076
:1007600028F0C5F0F8E582158270021583E038F0B4
:1007700022A3F8E0C5F025F0F0E58215827002159D
:1007800083E0C838F0E822BB010A89828A83F0E559
:10079000F0A3F0225006F709A7F01922BBFE06F3DA
:1007A000E5F009F3192275F008758200EF2FFFEECE
:1007B00033FECD33CDCC33CCC58233C5829BED9A8D
:1007C000EC99E58298400CF582EE9BFEED9AFDECEB
:1007D00099FC0FD5F0D6E4CEFBE4CDFAE4CCF9A831
:1007E0008222B800C1B90059BA002DEC8BF084CF39
:1007F000CECDFCE5F0CBF97818EF2FFFEE33FEED10
:1008000033FDEC33FCEB33FB10D703994004EB9939
:10081000FB0FD8E5E4F9FA227818EF2FFFEE33FE4C
:10082000ED33FDEC33FCC933C910D7059BE99A4081
:1008300007EC9BFCE99AF90FD8E0E4C9FAE4CCFB99
:100840002275F010EF2FFFEE33FEED33FDCC33CCED
:10085000C833C810D7079BEC9AE899400AED9BFD76
:10086000EC9AFCE899F80FD5F0DAE4CDFBE4CCFA89
:10087000E4C8F922C3E49FFFE49EFEE49DFDE49CEE
:10088000FC22E8600FEFC333FFEE33FEED33FDECE7
:1008900033FCD8F122E493FC740193FD740293FEBF
:1008A000740393FF22E0F8A3E0F9A3E0FAA3E0FBCE
:1008B00022E493F8740193F9740293FA740393FB9E
:1008C00022ECF0A3EDF0A3EEF0A3EFF022A88285D6
:1008D00083F0D083D0821208E41208E41208E412F4
:1008E00008E4E473E493A3C583C5F0C583C8C58257
:1008F000C8F0A3C583C5F0C583C8C582C822EF4E22
:100900006012EF60010EEDBB010B89828A83F0A3B8
:10091000DFFCDEFA2289F05007F709DFFCA9F0229C
:10092000BBFEFCF309DFFCA9F022E490A42DF0A3A8
:10093000F0A3F0A3F0A3F0A3F0A3F0A3F0A304F0BE
:10094000A37480F0A3748AF0E4A3F0A3F0783A7C57
:10095000A47D017BFF7A2F797BFE7F0212061ED3D6
:10096000908083E09402908082E094007F004002B7
:100970007F0190A433EFF090A433E07003020CCF1A
:1009800090A4357401F0A37480F0A3748AF090A44D
:1009900035E0FBA3E0FAA3E0F9120644645A603A9A
:1009A000908082E0FEA3E0248AF974803EFA7B0105
:1009B000C003C002C00190A435A3E0FAA3E0F9C3CC
:1009C000D082D083D0E0E99582EA9583500C90A440
:1009D00036E475F00112075B80B4908082E0FEA3DC
:1009E000E0248AF974803EFA7B01C003C002C00192
:1009F00090A435E0FBA3E0FAA3E0F9D082D083D045
:100A0000E06B7008E965827003EA65837007908087
:100A100082F0A3F02290A435A3E0FAA3E0C3948A65
:100A2000FFEA9480FEC3908083E09FFF908082E085
:100A30009E90A431F0A3EFF090A438E024FE60551E
:100A400024026003020B117E007FFF7D007B017A90
:100A5000A1792A1208FEE490A439F090A434F09011
:100A6000A42DF0A3F0A3F0A3F090A42FE0FEA3E048
:100A7000FFC39403EE9400501C743A2FF58274A4C3
:100A80003EF583E4F090A430E004F070DC90A42FF5
:100A9000E004F080D490A43F7401F0A374A1F0A30B
:100AA000742AF0A37401F0A374A4F0A3742DF09041
:100AB000A431E0FFA3E090A445CFF0A3EFF090A411
:100AC00035E0FBA3E0FAA3E0F912247A90A439EF11
:100AD000F0A3F06401703A90A42DE0FCA3E0FD9037
:100AE000A4417401F0A374A2F0A37429F07B017AED
:100AF000A1792A122CE5EF7003020BAF1225597E63
:100B0000017F007D007B017AA279291208FE020B89
:100B1000AF90A43AE064036003020BAF90A4368068
:100B20004490A435E0FBA3E0FAA3E0F91206446484
:100B30005A603A908082E0FEA3E0248AF974803EF5
:100B4000FA7B01C003C002C00190A435A3E0FAA360
:100B5000E0F9C3D082D083D0E0E99582EA95835052
:100B60000C90A436E475F00112075B80B49080828B
:100B7000E0FEA3E0248AF974803EFA7B01C003C042
:100B800002C00190A435E0FBA3E0FAA3E0F9D08213
:100B9000D083D0E06B7008E965827003EA658370EA
:100BA00008908082F0A3F0800690A4347401F09045
:100BB000A439E06401600990A434E07003020CC71A
:100BC00090A435A3E0FAA3E0C3948AFFEA9480FEE0
:100BD000C3908083E09FFF908082E09EFE90A42DD2
:100BE000E0FCA3E0FDC3EF9DFFEE9CFE90A431F07E
:100BF000A3EFF0D39400EE94004068E490A42FF0AB
:100C0000A3F090A431E0FEA3E0FF90A42FE0FCA3AA
:100C1000E0FDC39FEC9E504390A435E0FBA3E0FAB7
:100C2000A3E0F990A42DE0FEA3E0FFE92FF9EA3E4E
:100C3000FAE92DF9EA3CFA120644FF748A2DF5828E
:100C400074803CF583EFF0E412068A90A430E0044F
:100C5000F070AF90A42FE004F080A790A43374014B
:100C6000F08052E490A42FF0A3F090A435A3E0FA12
:100C7000A3E0C3948AFFEA9480FE90A42EE02FFFA5
:100C800090A42DE03EFE90A42FE0FCA3E0FDC39FC6
:100C9000EC9E501C748A2DF58274803CF583E4F040
:100CA00090A430E004F070C290A42FE004F080BA69
:100CB000E490A433F090A431E0FFA3E0908082CFD1
:100CC000F0A3EFF0020977E490A433F00209772251
:100CD000784B7CA47D017BFF7A2F797D7E007F0697
:100CE00012061E7B017AA4794390A469E4F0A374F0
:100CF00004F07F007E1312195C7B017AA47947907F
:100D0000A469E4F0A37404F07F057E1312195C90CB
:100D1000A444E0FFE4FCFDFE7810120882C004C089
:100D200005C006C00790A443E0FFE4FCFDFE781870
:100D3000120882D003D002D001D000EF4BFFEE4A60
:100D4000FEED49FDEC48FCC004C005C006C007909C
:100D5000A445E0FFE4FCFDFE7808120882D003D031
:100D600002D001D000EF4BFBEE4AFAED49F9EC4816
:100D7000F8A3E0FFEB4FFFEAFEE9FDE8FC90A45189
:100D80001208C190A448E0FFE4FCFDFE78101208B0
:100D900082C004C005C006C00790A447E0FFE4FC81
:100DA000FDFE7818120882D003D002D001D000EFE7
:100DB0004BFFEE4AFEED49FDEC48FCC004C005C007
:100DC00006C00790A449E0FFE4FCFDFE7808120885
:100DD00082D003D002D001D000EF4BFBEE4AFAEDF7
:100DE00049F9EC48F8A3E0FFEB4FFFEAFEE9FDE824
:100DF000FC90A4BD1208C1E47B64FAF9F890A4BD8C
:100E0000E0FCA3E0FDA3E0FEA3E0FF1207E290A454
:100E100050EBF0E47B64FAF9F890A4BDE0FCA3E0A9
:100E2000FDA3E0FEA3E0FF1207E2E47B64FAF9F819
:100E30001207E290A44FEBF0E47B107A27F9F890C8
:100E4000A4BDE0FCA3E0FDA3E0FEA3E0FF1207E2E7
:100E5000E47B64FAF9F81207E290A44EEBF0E47B2D
:100E600064FAF9F890A451E0FCA3E0FDA3E0FEA32E
:100E7000E0FF1207E290A44DEBF0E47B64FAF9F88E
:100E800090A451E0FCA3E0FDA3E0FEA3E0FF120765
:100E9000E2E47B64FAF9F81207E290A44CEBF0E488
:100EA0007B107A27F9F890A451E0FCA3E0FDA3E0C1
:100EB000FEA3E0FF1207E2E47B64FAF9F81207E20E
:100EC00090A44BEBF0A3E0FFD39400748094804097
:100ED0006ED3EF940C748094805064A3E0FF941F51
:100EE000748094805054EF940074809480404BA39D
:100EF000E0D39417748094805039C37480948040F8
:100F000032A3E0D3943B748094805020C3748094C7
:100F1000804019A3E0D3943B748094805007C3743D
:100F20008094805020E490A450F08019E490A44F65
:100F3000F08012E490A44EF0800B90A44D800390BA
:100F4000A44C7401F07B017AA4794B90A469E4F07D
:100F5000A37406F07F9D7E0012170F7B017AA4799F
:100F6000BB90A469E4F0A37402F07F9C7E0012178A
:100F70000F021BA4418080004280820000418081DA
:100F80000042808400004280860000428088000089
:100F900044A4290000000041A428006100A2290007
:100FA0000000000000000000000000000000000041
:100FB0000000000000000000000000000000000031
:100FC0000000000000000000000000000000000021
:100FD0000000000000000000000000000000000011
:100FE0000000000000000000000000000000000001
:100FF00000000000000000000000000000000000F1
:1010000000000000000000000000000000000000E0
:1010100000000000000000000000000000000000D0
:1010200000000000000000000000000000000000C0
:1010300000000000000000000000000000000000B0
:1010400000000000000000000000000000000000A0
:101050000000000000000000000000000000000090
:101060000000000000000000000000000000000080
:101070000000000000000000000000000000000070
:101080000000000000000000000000000000000060
:1010900000000000000000000000000000000060F0
:1010A000FFA3290000000000000000000000000075
:1010B0000000000000000000000000000000000030
:1010C0000000000000000000000000000000000020
:1010D0000000000000000000000000000000000010
:1010E0000000000000000000000000000000000000
:1010F00000000000000000000000000000000000F0
:1011000000000000000000000000000000000000DF
:1011100000000000000000000000000000000000CF
:1011200000000000000000000000000000000000BF
:1011300000000000000000000000000000000000AF
:10114000000000000000000000000000000000009F
:10115000000000000000000000000000000000008F
:10116000000000000000000000000000000000007F
:10117000000000000000000000000000000000006F
:10118000000000000000000000000000000000005F
:10119000000000000000000000000000000000004F
:1011A000000042A4C2000041A4C10142A4BB5AA550
:1011B00042A49C000042A46F000044A494000000DC
:1011C0000044A4713EE9518344A47E40490E564434
:1011D000A46B3D32D5D044A4753ECD37BE44A4792E
:1011E0000000000044A4900000000044A486000019
:1011F000000044A4980000000044A48C00000000FB
:1012000044A4820000000044A4B50000000044A4EF
:10121000B1000000000090A4AFE0FEA3E0FF90A4A6
:1012200070E0FD1214B37B017AA4798290A469E482
:10123000F0A37404F07F007E2612170F90A4AFE095
:10124000FCA3E0FDE412041CE4FBFA797A78441272
:10125000030190A4941208C190A470E0640160039B
:101260000212F690A4AFE0FCA3E0FDE412041CE43B
:10127000FBFA797A784412030190A475E0F8A3E0B0
:10128000F9A3E0FAA3E0FB12010790A4791208C1C8
:10129000E4FFFEFD7C4090A471E0F8A3E0F9A3E038
:1012A000FAA3E0FB1201F890A479E0F8A3E0F9A317
:1012B000E0FAA3E0FB1201F890A4861208C190A402
:1012C00079E0FCA3E0FDA3E0FEA3E0FF90A490E0A2
:1012D000F8A3E0F9A3E0FAA3E0FB1201F8E4FBFABB
:1012E0007940784012030190A4981208C17B017ADA
:1012F000A4799802147790A470E06402600302134A
:10130000B890A4AFE0FCA3E0FDE412041CE4FBFAF7
:10131000797A784412030190A475E0F8A3E0F9A368
:10132000E0FAA3E0FB12010790A4791208C1E4FFE0
:10133000FEFD7C4090A46BE0F8A3E0F9A3E0FAA3E3
:10134000E0FB1201F890A479E0F8A3E0F9A3E0FA39
:10135000A3E0FB1201F890A4861208C190A46BE0F0
:10136000FCA3E0FDA3E0FEA3E0FF90A479E0F8A3D6
:10137000E0F9A3E0FAA3E0FB1201F8C004C005C045
:1013800006C00790A43F1208CD40000000D007D04F
:1013900006D005D004121D5490A47EE0F8A3E0F915
:1013A000A3E0FAA3E0FB1201F890A4901208C17B1D
:1013B000017AA4799002147790A470E0640360032A
:1013C00002148790A4AFE0FCA3E0FDE412041CE447
:1013D000FBFA797A784412030190A475E0F8A3E04F
:1013E000F9A3E0FAA3E0FB12010790A4791208C167
:1013F000E4FFFEFD7C4090A471E0F8A3E0F9A3E0D7
:10140000FAA3E0FB1201F890A479E0F8A3E0F9A3B5
:10141000E0FAA3E0FB1201F890A4861208C190A4A0
:1014200071E0FCA3E0FDA3E0FEA3E0FF90A479E05F
:10143000F8A3E0F9A3E0FAA3E0FB1201F8C004C0AE
:1014400005C006C00790A43F1208CD40000000D0A0
:1014500007D006D005D004121D5490A47EE0F8A356
:10146000E0F9A3E0FAA3E0FB1201F890A4901208BF
:10147000C17B017AA4799090A469E4F0A37404F08C
:101480007F507E2812170F7B017AA4799490A4696B
:10149000E4F0A37404F07F007E2512170F7B017A1D
:1014A000A4798690A469E4F0A37404F07F407E28B8
:1014B00002170F90A42DEDF0AB07AA06E4A3F0A34A
:1014C0001208CD0000000090A4371208CD000000E3
:1014D00000AE02AF037C007D0A1206D0AC06AD0759
:1014E000E412041C90A4331208C1E4FFFE7D207CAA
:1014F0004190A433E0F8A3E0F9A3E0FAA3E0FB12E3
:10150000039E60025023E4FFFE7DA07C4090A43344
:10151000E0F8A3E0F9A3E0FAA3E0FB12039E400980
:1015200090A42E7401F00215F0E4FFFE7DA07C4132
:1015300090A433E0F8A3E0F9A3E0FAA3E0FB1203E0
:101540009E60025025E4FFFE7D207C4190A433E0A4
:10155000F8A3E0F9A3E0FAA3E0FB12039E600B40BE
:101560000990A42E7402F00215F0E4FFFE7DC87C01
:101570004290A433E0F8A3E0F9A3E0FAA3E0FB1261
:10158000039E60025024E4FFFE7DA07C4190A433C2
:10159000E0F8A3E0F9A3E0FAA3E0FB12039E600ADF
:1015A000400890A42E7403F08046E4FFFE7D967CF4
:1015B0004390A433E0F8A3E0F9A3E0FAA3E0FB1220
:1015C000039E60025024E4FFFE7DC87C4290A43359
:1015D000E0F8A3E0F9A3E0FAA3E0FB12039E600A9F
:1015E000400890A42E7404F0800690A42E7405F098
:1015F00090A42EE024FE603914605F14700302167C
:1016000085240360030216DB90A43F1208CDBFCCF3
:10161000CCCD90A433E0FCA3E0FDA3E0FEA3E0FF6B
:10162000121D5490A4371208C17FDC7EAF7D0E805E
:101630005090A43F1208CDBFECCCCD90A433E0FC79
:10164000A3E0FDA3E0FEA3E0FF121D5490A4371217
:1016500008C17FB87E287D80802790A43F1208CDE6
:10166000BFE7AE1490A433E0FCA3E0FDA3E0FEA32B
:10167000E0FF121D5490A4371208C17F407E167DF2
:10168000617C47802990A43F1208CDC000000090E3
:10169000A433E0FCA3E0FDA3E0FEA3E0FF121D5491
:1016A00090A4371208C17F047EF67D077C4890A481
:1016B00037E0F8A3E0F9A3E0FAA3E0FB1201F89009
:1016C000A42F1208C190A42FE0FCA3E0FDA3E0FE2C
:1016D000A3E0FF90A4821208C1800690A42E740A91
:1016E000F090A42DE0FF64016005EF6403701F908B
:1016F000A482E0FCA3E0FDA3E0FEA3E0FF7B9A7AD6
:10170000997919783F1201F890A4821208C12290A9
:10171000A466EBF0A3EAF0A3E9F0AD07AC0690A451
:1017200066E0FBA3E0FAA3E04A4B700302195BA357
:10173000E0FEA3E0FF4E700302195BEEC313FEEF61
:10174000132DFFEE3CFED3EF94FEEE94FF40030218
:10175000195BC2AFED5401FBECC313FCED13FDAEFE
:10176000047810CEC313CE13D8F9F5F1ECF5F2AF2F
:10177000058FF3E4F5F875F401D2FF30FCFDC2FDEE
:10178000EB6401707C90A469E0FEA3E0FF64014E6D
:10179000700AC2FBC2FAD2F9C2F88008C2FBC2FAD0
:1017A000D2F9D2F8EF64014E90A466701AE0FBA360
:1017B000E475F001120771A9F0FA120644F5FC90E5
:1017C000A46AE024FF802DE0FBA3E475F00112077A
:1017D00071A9F0FA120644F5FC90A466E0FBA3E4BC
:1017E00075F001120771A9F0FA120644F5FD90A4F4
:1017F0006AE024FEF090A469E034FFF0D2FE20FEFF
:10180000FD90A469E0FEA3E0FF4E7003021956C3E9
:10181000EF9404EE940040030218E4EE7022EF14FB
:10182000601614600D147018D2FBD2FAD2F9C2F807
:10183000800ED2FBD2FA8004D2FBC2FAC2F9C2F8FF
:1018400090A469E0FEA3E0FFEE60030218DDEF1450
:1018500060761460471460030218DD90A466E0FB14
:10186000A3E475F001120771A9F0FA120644F5FA23
:1018700090A466E0FBA3E475F001120771A9F0FAE9
:10188000120644F5FB90A466E0FBA3E475F0011298
:101890000771A9F0FA120644F5FC804190A466E0B5
:1018A000FBA3E475F001120771A9F0FA120644F5E2
:1018B000FA90A466E0FBA3E475F001120771A9F0A9
:1018C000FA120644F5FB801590A466E0FBA3E475CC
:1018D000F001120771A9F0FA120644F5FAD2FE30AF
:1018E000FE7480FBD2FBD2FAD2F9D2F890A466E063
:1018F000FBA3E475F001120771A9F0FA120644F592
:10190000FA90A466E0FBA3E475F001120771A9F058
:10191000FA120644F5FB90A466E0FBA3E475F0011F
:10192000120771A9F0FA120644F5FC90A466E0FBD8
:10193000A3E475F001120771A9F0FA120644F5FD4F
:10194000D2FE20FEFD90A46AE024FCF090A469E0A1
:1019500034FFF0021801E4F5F8D2AF2290A466EB50
:10196000F0A3EAF0A3E9F0AD07AC0690A466E0FBB3
:10197000A3E0FAA3E04A4B7003021BA3A3E0FEA37B
:10198000E0FF4E7003021BA3EEC313FEEF132DFF07
:10199000EE3CFED3EF94FEEE94FF4003021BA3C285
:1019A000AFED5401FBECC313FCED13FDAE04781056
:1019B000CEC313CE13D8F9F5F1ECF5F2AF058FF3E2
:1019C000E4F5F875F401D2FF30FCFDD2FDEB6401C3
:1019D000707D90A469E07004A3E06401700AC2FB0A
:1019E000C2FAD2F9C2F88008C2FBC2FAD2F9D2F820
:1019F000D2FE20FEFD90A469E07004A3E064019093
:101A0000A466701BE0FBA3E475F001120771A9F056
:101A1000FAE5FC12068A90A46AE024FF021B93E018
:101A2000FBA3E475F001120771A9F0FAE5FC1206B8
:101A30008A90A466E0FBA3E475F001120771A9F097
:101A4000FAE5FD12068A90A46AE024FE021B939038
:101A5000A469E0FEA3E0FF4E7003021B9EC3EF9457
:101A600004EE94004003021B2CEE7022EF1460166B
:101A700014600D147018D2FBD2FAD2F9C2F8800E9D
:101A8000D2FBD2FA8004D2FBC2FAC2F9C2F8D2FE6B
:101A900020FEFD90A469E0FEA3E0FFEE6003021BC0
:101AA0009EEF146070146044146003021B9E90A4A7
:101AB00066E0FBA3E475F001120771A9F0FAE5FAFC
:101AC00012068A90A466E0FBA3E475F00112077188
:101AD000A9F0FAE5FB12068A90A466E0FBA3E47580
:101AE000F001120771A9F0FAE5FC803B90A466E0D2
:101AF000FBA3E475F001120771A9F0FAE5FA1206EA
:101B00008A90A466E0FBA3E475F001120771A9F0C6
:101B1000FAE5FB801290A466E0FBA3E475F00112E5
:101B20000771A9F0FAE5FA12068A8072D2FBD2FA9E
:101B3000D2F9D2F8D2FE20FEFD90A466E0FBA3E429
:101B400075F001120771A9F0FAE5FA12068A90A45D
:101B500066E0FBA3E475F001120771A9F0FAE5FB5A
:101B600012068A90A466E0FBA3E475F001120771E7
:101B7000A9F0FAE5FC12068A90A466E0FBA3E475DE
:101B8000F001120771A9F0FAE5FD12068A90A46A25
:101B9000E024FCF090A469E034FFF0021A4FE4F571
:101BA000F8D2AF2278577CA47D017BFF7A2F798B06
:101BB0007E007F0212061E7B017AA4795590A469EB
:101BC000E4F0A37402F07F9C7E0012195C90A4558F
:101BD000E0645A7004A3E064A56003021D5390A45E
:101BE00059F0A3F0D200785B7CA47D017BFF7A2FB3
:101BF000798DFE7F0712061E7B017AA4796290A47C
:101C000069E4F0A37402F07F9D7E0012195C90A439
:101C100062E0FCA3E0FDEC90A459F0E0FF75F00A4F
:101C200084C454F0FEEF75F00A84EE25F090A45BB6
:101C3000F090A459EDF0E0FF75F00A84C454F0FE72
:101C4000EF75F00A84EE25F090A45CF07B017AA495
:101C5000796290A469E4F0A37402F07F9E7E001282
:101C6000195C90A462E0FCA3E0FDEC90A459F0E0C4
:101C7000FF75F00A84C454F0FEEF75F00A84EE2577
:101C8000F090A45DF090A459EDF0E0FF75F00A84A7
:101C9000C454F0FEEF75F00A84EE25F090A45FF0D6
:101CA0007B017AA4796290A469E4F0A37402F07FC6
:101CB0009F7E0012195C90A462E0FCA3E0FDEC9012
:101CC000A459F0E0FF75F00A84C454F0FEEF75F0FB
:101CD0000A84EE25F090A460F090A459EDF0E0FFA6
:101CE00075F00A84C454F0FEEF75F00A84EE25F016
:101CF00090A461F07B017AA4795790A469E4F0A3E1
:101D000004F07F9C7E0012170F30004712295E7F7F
:101D10001012299C90A461E0FF12299C90A460E01D
:101D2000FF12299C90A45FE0FF12299C90A45EE022
:101D3000FF12299C90A45DE0FF12299C90A45CE016
:101D4000FF12299C90A45BE0FF122991122D7EC204
:101D50000080B62290A43B1208C1E4FFFE7D807C87
:101D60003F90A43BE0F8A3E0F9A3E0FAA3E0FB1264
:101D7000039E700690A43B021EAE90A43BE0FCA321
:101D8000E0FDA3E0FEA3E0FF1204D6FBA3E0FCA36A
:101D9000E0FDA3E0FEA3E0FF1204D6FFB40108E4D7
:101DA000FFFE7D807C3F22EF64046029EB640460C9
:101DB00024EBB40130E4FFFEFDFC90A43FE0F8A367
:101DC000E0F9A3E0FAA3E0FB12039E60084006E4FA
:101DD000FFFEFDFC2290A43F1208CDFFFFFFFF9005
:101DE000A43F021EAEE490A443F0A3F0FFFEFDFC6E
:101DF00090A43BE0F8A3E0F9A3E0FAA3E0FB120310
:101E00009E505F90A43FE0FCA3E0FDA3E0FEA3E0B2
:101E1000FF12045590A443EEF0A3EFF0FDCCEECCFE
:101E2000EC12041CC8ECC8C9EDC9CAEECACBEFCB92
:101E300090A43FE0FCA3E0FDA3E0FEA3E0FF1201BD
:101E400003E4FBFAF9F812039E708A90A43BE0FCCD
:101E5000A3E0FDA3E0FEA3E0FF1204F090A43B1278
:101E600008C190A43BE0FCA3E0FDA3E0FEA3E0FFDB
:101E700012217E90A43FE0F8A3E0F9A3E0FAA3E0EA
:101E8000FB1201F81226D690A43F1208C190A44478
:101E9000E030E01790A43FE0FCA3E0FDA3E0FEA348
:101EA000E0FF1204F090A43F1208C190A43FE0FCB0
:101EB000A3E0FDA3E0FEA3E0FF2290A438EBF090A6
:101EC000A437EDF0EF24D0FEE4340790A43AF0A359
:101ED000CEF0EDFF64016005EF6402701590A43749
:101EE000E0240CF090A43BE024FFF090A43AE0340E
:101EF000FFF090A43AE0FEA3E0FFC394D8EE94066E
:101F00004034BE0610BFD80D90A437E0C3940974C6
:101F1000809480402190A43AE064067004A3E064B9
:101F2000D8706590A437E06409705DA3E0C39403A2
:101F300074809480505290A437E0FB2401FFE43376
:101F4000FE7C007D031206BE7D05120725AD07EB62
:101F500075F002A4FFA3E07A002FFFEA35F0CF2D41
:101F6000CF3EFE90A43AE0FCA3E0FD2FFBEC3EFA4E
:101F7000AE04ED7802CEC313CE13D8F92BFFEA3EA0
:101F8000CF2406CF3400807C90A437E02401FFE406
:101F900033FE7C007D031206BE7D05120725AC06CC
:101FA000AD07A3E02401FBE433FA90A437E075F019
:101FB00002A42BFFE5F03ACF2DCF3CFE90A43AE0EF
:101FC000FCA3E0FD2FFBEC3EFAAE04ED7802CEC39D
:101FD00013CE13D8F92BFBEA3EFA90A43AE0FEA305
:101FE000E0FF7C007D641206D0C3EB9FFBEA9EFA03
:101FF00090A43AE0FEA3E0FF7C017D901206D0EFB2
:102000002BFFEE3AFE7C007D071206D090A439ED3E
:10201000F090A439E0FF22782F7CA47D017BFF7A29
:102020002F79837E007F0812061E122997122D88B1
:10203000122E557F6512299C7C06ECD39400748087
:102040009480401512002E742F2CF582E434A4F5F0
:1020500083EFF01200161C80E112002E90A42FEFE7
:10206000F0122EF7122D8DE4FCECC39403748094CF
:10207000805030742F2CF582E434A4F583E0FFC443
:10208000540FFE90A42DF0EF540FFFA3F0EE75F067
:102090000AA42FFF742F2CF582E434A4F583EFF00B
:1020A0000C80C67C04ECC394077480948050307418
:1020B0002F2CF582E434A4F583E0FFC4540FFE9086
:1020C000A42DF0EF540FFFA3F0EE75F00AA42FFF3C
:1020D000742F2CF582E434A4F583EFF00C80C690C5
:1020E000A42FE0FFA3E0FDA3E0FB121EBA90A432F0
:1020F000EFF07B017AA4792F90A469E4F0A3740235
:10210000F07F107E0012170F7B017AA4793190A422
:1021100069E4F0A37402F07F117E0012170F7B01B7
:102120007AA4793390A469E4F0A37402F07F127E5C
:102130000012170F7B017AA4793590A469E4F0A30B
:102140007402F07F137E0002170F3E9248DA3ECCF5
:10215000CCCD3F2AAAAB400000003F8000003F9852
:1021600037F03FB504F33FD744FC3E3172173EB120
:1021700072173F0515913EDE5BD9D2008002C20086
:10218000EDD2E7F8CD33EC3304700BBD800592D56A
:102190000204CB0204C140FBD31460F2F5F07C3F93
:1021A000EE7A00C39496C8948B40230AC89469C8F9
:1021B000941A401A0AC89468C8941F40110AC89417
:1021C0005AC89425400805F07A00CDC2E7CDC0F08A
:1021D00090A4451208C1EA2323C0E0245AF582E402
:1021E0003421F5831208B1120107ECC0E0EDC0E024
:1021F000EEC0E0EFC0E012089590A4451208A512C9
:102200000103D0E0FBD0E0FAD0E0F9D0E0B2E7F88B
:1022100012030190A4451208C190214A74031205CB
:102220000190A4451208A51201F8D0E0600F2466C1
:10223000F582E43421F5831208B112010790A44518
:102240001208C1D0E0C3947FFDE49400FC12041C8A
:102250007B187A727931783F1201F890A445120800
:10226000A512010730000B7BD97A5B79DE783E122C
:1022700001F8227B017AA4793190A469E4F0A37477
:1022800002F07F007E5112195C90A431E0FEA3E0C1
:10229000FFEE704CEF24FE601914602214602B14C2
:1022A00060342404703A90A4B11208CD43FA0000BF
:1022B000802E90A4B11208CD447A0000802290A410
:1022C000B11208CD44BB8000801690A4B11208CD95
:1022D000451C4000800A90A4B11208CD457A000048
:1022E00090A4AFE0FEA3E0FF1227CA90A4B5E0FCE3
:1022F000A3E0FDA3E0FEA3E0FF120455AD07AC068A
:10230000ECC4F854F0C868FFEDC4540F4890A42FF3
:10231000CFF0A3EFF0ED540FFF90A42DE4F0A3EF66
:10232000F07B017AA4792F90A469E4F0A37402F001
:102330007F207E2812170F7B017AA4792F90A46941
:10234000E4F0A37402F07F007E2812170F7B017A5D
:10235000A4792D90A469E4F0A37402F07F057E288F
:1023600012170F7B017AA4792D90A469E4F0A3746D
:1023700002F07F257E2802170FAEAD90A49CE0FCF2
:10238000A3E0FDEC704BED146020047044EE645744
:102390006003022479749F2DF58274A43CF583EECA
:1023A000F090A49CE4F0A304F022EE701C90A49C96
:1023B000E0FCA3E0249FF58274A43CF583EEF0904A
:1023C000A49CE4F0A37402F022E490A49CF0A3F097
:1023D0002290A49CE0FCA3E0249FF58274A43CF529
:1023E00083EEF090A49DE004F0700690A49CE004BD
:1023F000F0D390A49DE0940F90A49CE094004079C9
:10240000E4F0A3F090A4A0E0FF90A49FE02FFF9041
:10241000A4A1E02FFFA3E02FFFA3E02FFFA3E02F55
:10242000FFA3E02FFFA3E02FFFA3E02FFFA3E02FE8
:10243000FFA3E0FD2FFFA3E0FE2FFFA3E02FFFA3EC
:10244000E02FFFA3E02FFFA3E0B5072DEE702A9049
:10245000A4A8E07B00FAED7E007810C333CE33CE23
:10246000D8F9FFEE4AFEEF4BFF90A4A7E0FDEF4D39
:10247000FF90A4AFEEF0A3EFF02290A43CEBF0A30A
:10248000EAF0A3E9F0E490A447F0A3F0A3F0A3F0EE
:10249000C390A446E0940790A445E0940050037FC5
:1024A000022290A43CE0FBA3E0FAA3E0F912064468
:1024B000645A60037F032290000112065D64A560E8
:1024C000037F032290000212065D2403FFE433FE23
:1024D00090A447F0A3EFF0C390A446E09F90A445DA
:1024E000E09E4072E490A449F0A3F090A447E0FE7F
:1024F000A3E0FFA3E0FCA3E0FDC39FEC9E503C9053
:10250000A43CE0FBA3E0FAA3E0F9120644FF90A488
:102510003FE0FBA3E0FAA3E0F98D828C83EF120683
:102520009C90A43DE475F00112075B90A44AE0047E
:10253000F070B890A449E004F080B090A447E0F9AE
:10254000A3E0FF90A442E0FBA3E0FAA3E0C98FF070
:102550001207877F01227F0222E490A43CF0A3F0BF
:1025600090A22DE0FEA3E0FDEDFF90A43CEEF0A3D1
:10257000EFF090A22CE06482703D7B017AA2792F6B
:1025800090A22BE024FDFEE434FF90A469F0A3CEDA
:10259000F090A43CE0FEA3E0FF12170F90A22B7472
:1025A00003F090A22D744FF0A3744BF07B017AA23C
:1025B000792990A22B803E90A22CE06483703D7B11
:1025C000017AA2793090A22FE075F002A4FF90A4C6
:1025D00069E5F0F0A3EFF090A43CE0FEA3E0FF1269
:1025E000195C90A22FE025E0FF90A22BE02FF07B5A
:1025F000017AA27929E02403FD122BE522759401CA
:10260000759502758E0075930075C87075C96075F3
:10261000F800787FE4F6D8FD758120022659022E55
:102620007CE493A3F8E493A34003F68001F208DF6F
:10263000F48029E493A3F85407240CC8C333C4548A
:102640000F4420C8834004F456800146F6DFE4803E
:102650000B0102040810204080900F74E47E019367
:1026600060BCA3FF543F30E509541FFEE493A36010
:10267000010ECF54C025E060A840B8E493A3FAE46B
:1026800093A3F8E493A3C8C582C8CAC583CAF0A3BC
:10269000C8C582C8CAC583CADFE9DEE780BE33DAAF
:1026A000929E35B16011377FE5FE392184893AAEBB
:1026B000C3FF3C1D955B3D6358473E75FDF03F31C0
:1026C00072183F800000C2D50204CB0204C1BD8055
:1026D000FA50F30204C8ED33EC330460F17B3B7A2B
:1026E000AA79B8783F1201F8ED33EC3392D5247B08
:1026F0005011A2D570DB500BED448024045004A28D
:10270000D580CEEFFBEEFAEDF9ECF8120455EFF5BB
:1027100082F404FC120421120107C08290269E74E8
:1027200009120510ED33CC33D0F092D525F0A2D5A7
:102730007001C313CC13FD2290A4CAEFF078CB7CB8
:10274000A47D017BFF7A2F795F7E007F0412061E35
:102750007B017AA479CB90A469E4F0A37404F07FA0
:10276000807E0012195C90A4CB745AF090A4CAE049
:10277000FD3395E0FCED64014C700990A4CEE0546B
:10278000F7F0800DED64024C703F90A4CEE0440859
:10279000F07B017AA479CB90A469E4F0A37404F0EF
:1027A0007F807E0012170F7F057E00122D9F7B0118
:1027B0007AA479CB90A469E4F0A304F07F807E0032
:1027C00012195C90A4CBE070DE22AD07AC06E412D7
:1027D000041CE4FBFA7920784112030190A433121F
:1027E00008C1E4FFFE7DC87C4390A433E0F8A3E079
:1027F000F9A3E0FAA3E0FB12039E5024E4FFFE7D60
:10280000A07C4090A433E0F8A3E0F9A3E0FAA3E0B1
:10281000FB12039E600A400890A4B97401F0800680
:1028200090A4B97405F090A4B9E014702590A48226
:10283000E0F8A3E0F9A3E0FAA3E0FB90A4B1E0FC88
:10284000A3E0FDA3E0FEA3E0FF12030190A4B50204
:1028500008C190A4B97406F022782D7CA47D017B78
:10286000FF7A2F796B7E007F1012061EE490A43D44
:10287000F0A3F0A3F0A3F0A3F0A3F090A42AE0FD4E
:10288000FEA3E0FBF582E582FF90A441EEF0A3EF0A
:10289000F090A229745AF0A374A5F090A42CE0FC47
:1028A00025E0240390A22BF0A37483F0A3EDF0A302
:1028B000EBF07B017AA2792FEC75F002A4FF90A4D3
:1028C00069E5F0F0A3EFF090A441E0FEA3E0FF1271
:1028D000195C90A441E0FEA3E0FF020086C0E0C0C6
:1028E000F0C083C082C0D075D000C000C001C0025B
:1028F000C003C004C005C006C007E4FFC2AFE5AB1B
:1029000054016401703B122379AFAD908088E0FCE4
:10291000A3E02400F58274803CF583EFF090808979
:10292000E004F07006908088E004F053ABFEC390A2
:102930008089E09480908088E094004004E4F0A3D3
:10294000F0D2AFD007D006D005D004D003D002D04B
:1029500001D000D0D0D082D083D0F0D0E032122E7F
:10296000557F6412299C7F3012299CE4FF12299C18
:10297000122D8D122E557F6412299C7F1C12299CCA
:102980007F4812299CE4FF12299C7F4012299C7FDA
:102990001012299C122D8D122E557F64AE07120045
:1029A00066E4FDEDC39408748094805019EE30E71E
:1029B00004D2B38002C2B3EE25E0FE122E2CC2B2C6
:1029C000122E310D80DD022D5BC0E0C083C082C0BD
:1029D000D075D000C004C007C2AF309837AF99900F
:1029E0008082E0FCA3E0248AF58274803CF583EFCA
:1029F000F0908083E004F07006908082E004F0C3E1
:102A0000908083E094A0908082E0941F4004E4F0E2
:102A1000A3F0C298309907C299908080E4F0D2AFB9
:102A2000D007D004D0D0D082D083D0E03290A4C4DC
:102A3000EEF0A3EFF078C67CA47D017BFF7A2F79BE
:102A4000677E007F0412061E90A4C4E0FCA3E0FD94
:102A5000EC90A4C8F0A3EDF07B017AA479C690A411
:102A600069E4F0A37404F07F847E0012170F7F05E1
:102A70007E00122D9F7B017AA479C690A469E4F0B0
:102A8000A304F07F847E0012195C90A4C6E070DE7F
:102A900022C0E0C083C082C0D075D000C004C0078F
:102AA000C2AFE59B30E028AF9C908084E0FCA3E0BF
:102AB000242AF58274A03CF583EFF0908085E00431
:102AC000F07006908084E004F0539BFE539BFEE57B
:102AD0009B30E10B539BFD539BFD908081E4F043C1
:102AE000C901D2AFD007D004D0D0D082D083D0E0FB
:102AF000321229977F1D12299C122D8D122E557F7F
:102B00006512299C12002EAC0712001612002E121C
:102B10002EF7122D8DEC54026402702E12295E7F66
:102B20001012299CE4FF12299CE4FF12299CE4FF67
:102B300012299C7F0112299C7F0112299C7F01127E
:102B4000299C7F17122991122D7E2290A470E0FFFC
:102B500090A47DE06F6008EFF090A4BA7401F0904B
:102B6000A4BAE014601714601D14601D14601D24C5
:102B7000FE601C2406702190A4BA7401F090A4BADF
:102B80007402F01200620222730200610200F790E8
:102B9000A4BA7401F012006A22782D7CA47D017B16
:102BA000FF7A2F79637E007F0412061E7B017AA4D0
:102BB000792990A469E4F0A37404F07F007E0F12D9
:102BC000195C90A429E0645A70187B017AA4792DCD
:102BD00090A469F0A37404F07F007E0F12170F7F9A
:102BE00001227F002290A43EEBF0A3EAF0A3E9F0DB
:102BF00090A43EE0FBA3E0FAA3E04A4B6027ED601F
:102C000024AF051DEF601E90A43EE0FBA3E0FAA3F5
:102C1000E0F9120644FF122E9E90A43FE475F001E5
:102C200012075B80DC2290A4CFEBF0A3EAF0A3E9CB
:102C3000F090A4CFE0FBA3E0FAA3E04A4B6027EDBD
:102C40006024AF051DEF601E90A4CFE0FBA3E0FA67
:102C5000A3E0F9120644FF122EAC90A4D0E475F064
:102C60000112075B80DC2290A4D2EBF0A3EAF0A370
:102C7000E9F090A4D2E0FBA3E0FAA3E04A4B60277E
:102C8000ED6024AF051DEF601E90A4D2E0FBA3E031
:102C9000FAA3E0F9120644FF122ED490A4D3E475EF
:102CA000F00112075B80DC227B017AA4796F90A48B
:102CB00069E4F0A37402F07F147E0012195C90A402
:102CC00070E0FF146016146018146015240370146B
:102CD00090A47DEFF090A4BA7401F022122B4B80E7
:102CE0000012121622E490A444F0A3F0A3F0A3F083
:102CF000AE04AF05C003C00290A441E0FBA3E0FA1C
:102D0000A3E0F8AC02AD03D002D00312061E7F018F
:102D10002243B71043C940E4908080F0908082F055
:102D2000A3F075D88075985053877F75BA0375AA3C
:102D3000E4D29CD2AC22C0E0C083C082C2AF758C0A
:102D4000BC758ACD90A4C3E004F0700690A4C2E0E4
:102D500004F0D2AFD082D083D0E032120026122EFF
:102D60002AE4FEEEC3943274809480500930B30696
:102D7000122E310E80EDC2B2122E310200667F1E7D
:102D800012299CE4FF12299C7F1012299C120066D4
:102D9000C2B3D2B2122E31D2B3122E31020026E4C7
:102DA000FDFCC3ED9FEC9E5015E4FBFA0BBB00014C
:102DB0000ABA1CF8BBE8F50DBD00010C80E4224303
:102DC000B7C043C920E4908081F0908084F0A3F0E4
:102DD000759BD075BB03759DC8759A012290A4D5CB
:102DE000EFF07B017AA479D590A469E4F0A304F014
:102DF0007F827E0002170FC390A4C3E094F490A4D6
:102E0000C2E09401400A122017E490A4C2F0A3F09B
:102E10002275F90175B7C375BCA375BD2A75BE0CC3
:102E2000E4F580F590F5A0F5B022D2B3122E31D2A0
:102E3000B2E4FFEFC394507480948050030F80F38A
:102E40002275C870E4F5CDF5CC75CBBC75CACD4301
:102E5000A820D2C822120066D2B3D2B2122E31C23A
:102E6000B3122E31C2B2022E31E4908086F0A3F06C
:102E7000759680759780F5D975E7E022122E8D1230
:102E80002AF1122EE0122CA8122DF780F5C2AF12F3
:102E90002EC8122E11122F0212005BD2AF22908088
:102EA00080E0640160F87401F08F9922908081E0E5
:102EB000640160F87401F08F9C22438901758CBC19
:102EC000758ACDD2A9D28C22E4F5A8F5B8F59AF589
:102ED000A9F5B9228FACE5A7540160FA53A7FE22E9
:102EE000122B99EF600312285902092A7BFF7A2FCF
:102EF00079147D15022BE5120066122E2AC2B20249
:102F00002E31122D11122E6902006EE490A4BAF037
:102F100022C2C6325561727432496E697420446FA0
:102F20006E65212121313233005561727433496E4F
:102F3000697420446F6E65212121005561727434DB
:102F4000496E697420446F6E6521212100556172BC
:102F50007435496E697420446F6E6521212100002B
:102F6000000000000000005A010000000000000006
:102F70000000000000000000000000000000000051
:102F80000000000000000000000000000000000041
:042F9000000000003D
:00000001FF
