:030000000215AB3B
:0800F800FFFF4457494E543547
:1015AB00759401759502758E0075930075C87075ED
:1015BB00C96075F800787FE4F6D8FD7581200216B6
:0115CB000718
:0B1B6800121B0912184F121B5C80FBBF
:0C1B4400E4F5A8F5B8F59AF5A9F5B9226A
:101A870075F90175B7C375BCA375BD2A75BE0CE49E
:091A9700F580F590F5A0F5B022F0
:03000300020006F2
:05000600C2AFD2AF32D1
:0300130002000EDA
:05000E00C2AFD2AF32C9
:101B0900C2AF121B44121A8712005B1200F1D2AF46
:011B190022A9
:0F09790090A443EBF0A3EAF0A3E9F0AD07AC06BE
:1009880090A443E0FBA3E0FAA3E04A4B7003020BF8
:10099800C0A3E0FEA3E0FF4E7003020BC0EEC3133A
:1009A800FEEF132DFFEE3CFED3EF94FEEE94FF40D6
:1009B80003020BC0C2AFED5401FBECC313FCED13F3
:1009C800FDAE047810CEC313CE13D8F9F5F1ECF5CB
:1009D800F2AF058FF3E4F5F875F401D2FF30FCFDB2
:1009E800D2FDEB6401707D90A446E07004A3E0643E
:1009F80001700AC2FBC2FAD2F9C2F88008C2FBC26F
:100A0800FAD2F9D2F8D2FE20FEFD90A446E0700496
:100A1800A3E0640190A443701BE0FBA3E475F0011C
:100A28001206CBA9F0FAE5FC1205E490A447E024ED
:100A3800FF020BB0E0FBA3E475F0011206CBA9F0AE
:100A4800FAE5FC1205E490A443E0FBA3E475F00189
:100A58001206CBA9F0FAE5FD1205E490A447E024BC
:100A6800FE020BB090A446E0FEA3E0FF4E70030226
:100A78000BBBC3EF9404EE94004003020B49EE70E5
:100A880022EF14601614600D147018D2FBD2FAD23B
:100A9800F9C2F8800ED2FBD2FA8004D2FBC2FAC2A5
:100AA800F9C2F8D2FE20FEFD90A446E0FEA3E0FFC6
:100AB800EE6003020BBBEF14607014604414600313
:100AC800020BBB90A443E0FBA3E475F0011206CB34
:100AD800A9F0FAE5FA1205E490A443E0FBA3E47553
:100AE800F0011206CBA9F0FAE5FB1205E490A44345
:100AF800E0FBA3E475F0011206CBA9F0FAE5FC804F
:100B08003B90A443E0FBA3E475F0011206CBA9F0E7
:100B1800FAE5FA1205E490A443E0FBA3E475F001BA
:100B28001206CBA9F0FAE5FB801290A443E0FBA3E0
:100B3800E475F0011206CBA9F0FAE5FA1205E48093
:100B480072D2FBD2FAD2F9D2F8D2FE20FEFD90A4DE
:100B580043E0FBA3E475F0011206CBA9F0FAE5FA2D
:100B68001205E490A443E0FBA3E475F0011206CB60
:100B7800A9F0FAE5FB1205E490A443E0FBA3E475B1
:100B8800F0011206CBA9F0FAE5FC1205E490A443A3
:100B9800E0FBA3E475F0011206CBA9F0FAE5FD121B
:100BA80005E490A447E024FCF090A446E034FFF06C
:080BB800020A6CE4F5F8D2AF6B
:010BC0002212
:0F072C0090A440EBF0A3EAF0A3E9F0AD07AC0610
:10073B0090A440E0FBA3E0FAA3E04A4B700302094C
:10074B0078A3E0FEA3E0FF4E7003020978EEC3131B
:10075B00FEEF132DFFEE3CFED3EF94FEEE94FF4025
:10076B0003020978C2AFED5401FBECC313FCED138C
:10077B00FDAE047810CEC313CE13D8F9F5F1ECF51A
:10078B00F2AF058FF3E4F5F875F401D2FF30FCFD01
:10079B00C2FDEB6401707C90A443E0FEA3E0FF6418
:1007AB00014E700AC2FBC2FAD2F9C2F88008C2FB32
:1007BB00C2FAD2F9D2F8EF64014E90A440701AE05D
:1007CB00FBA3E475F0011206CBA9F0FA12059EF516
:1007DB00FC90A444E024FF802DE0FBA3E475F00122
:1007EB001206CBA9F0FA12059EF5FC90A440E0FB93
:1007FB00A3E475F0011206CBA9F0FA12059EF5FDE4
:10080B0090A444E024FEF090A443E034FFF0D2FE29
:10081B0020FEFD90A443E0FEA3E0FF4E700302090F
:10082B0073C3EF9404EE94004003020901EE7022AF
:10083B00EF14601614600D147018D2FBD2FAD2F9B3
:10084B00C2F8800ED2FBD2FA8004D2FBC2FAC2F9F4
:10085B00C2F890A443E0FEA3E0FFEE60030208FAA7
:10086B00EF1460761460471460030208FA90A440FA
:10087B00E0FBA3E475F0011206CBA9F0FA12059E7A
:10088B00F5FA90A440E0FBA3E475F0011206CBA9A6
:10089B00F0FA12059EF5FB90A440E0FBA3E475F083
:1008AB00011206CBA9F0FA12059EF5FC804190A42B
:1008BB0040E0FBA3E475F0011206CBA9F0FA120598
:1008CB009EF5FA90A440E0FBA3E475F0011206CB71
:1008DB00A9F0FA12059EF5FB801590A440E0FBA34E
:1008EB00E475F0011206CBA9F0FA12059EF5FAD2C7
:1008FB00FE30FE7480FBD2FBD2FAD2F9D2F890A470
:10090B0040E0FBA3E475F0011206CBA9F0FA120547
:10091B009EF5FA90A440E0FBA3E475F0011206CB20
:10092B00A9F0FA12059EF5FB90A440E0FBA3E47539
:10093B00F0011206CBA9F0FA12059EF5FC90A4402B
:10094B00E0FBA3E475F0011206CBA9F0FA12059EA9
:10095B00F5FDD2FE20FEFD90A444E024FCF090A413
:0D096B0043E034FFF002081EE4F5F8D2AFBF
:01097800225C
:100BC1004180800042808200004180810042808417
:0C0BD10000004280860000428088000086
:1019E40043B71043C940E4908080F0908082F0A314
:1019F400F075D88075985053877F75BA0375AAE43B
:051A0400D29CD2AC22CF
:0E1B1A00908080E0640160F87401F08F9922E1
:1018F50090A441EBF0A3EAF0A3E9F090A441E0FB4A
:10190500A3E0FAA3E04A4B6027ED6024AF051DEF85
:10191500601E90A441E0FBA3E0FAA3E0F912059E46
:10192500FF121B1A90A442E475F0011206B580DC83
:01193500228F
:030023000216CAF8
:0F16CA00C0E0C083C082C0D075D000C004C0078C
:1016D900C2AF309837AF99908082E0FCA3E0248AAA
:1016E900F58274803CF583EFF0908083E004F0701C
:1016F90006908082E004F0C3908083E094A09080FB
:1017090082E0941F4004E4F0A3F0C298309907C224
:0817190099908080E4F0D2AF4A
:0D172100D007D004D0D0D082D083D0E032E9
:101A4D0043B7C043C920E4908081F0908084F0A317
:0E1A5D00F0759BD075BB03759DC8759A01226C
:0E1B2800908081E0640160F87401F08F9C22CF
:1019360090A47EEBF0A3EAF0A3E9F090A47EE0FB8E
:10194600A3E0FAA3E04A4B6027ED6024AF051DEF44
:10195600601E90A47EE0FBA3E0FAA3E0F912059EC8
:10196600FF121B2890A47FE475F0011206B580DCF7
:01197600224E
:0300830002178FD2
:0F178F00C0E0C083C082C0D075D000C004C007C6
:10179E00C2AFE59B30E028AF9C908084E0FCA3E0D4
:1017AE00242AF58274A03CF583EFF0908085E00446
:1017BE00F07006908084E004F0539BFE539BFEE590
:1017CE009B30E10B539BFD539BFD908081E4F043D6
:0417DE00C901D2AFBC
:0D17E200D007D004D0D0D082D083D0E03228
:101AF600E4908086F0A3F0759680759780F5D97589
:031B0600E7E022F3
:10006E00E4908088F0A3F075A78075AB80F5AE752F
:05007E00AFE0D2BD223D
:0C1B50008FACE5A7540160FA53A7FE22F9
:1019770090A481EBF0A3EAF0A3E9F090A481E0FB47
:10198700A3E0FAA3E04A4B6027ED6024AF051DEF03
:10199700601E90A481E0FBA3E0FAA3E0F912059E84
:1019A700FF121B5090A482E475F0011206B580DC8B
:0119B700220D
:0300630002002A6E
:01002A0032A3
:03006B000217EF8A
:0F17EF00C0E0C083C082C0D075D000C004C00766
:1017FE00C2AFE5AB540164017038AFAD908088E0A4
:10180E00FCA3E02400F58274803CF583EFF0908019
:10181E0089E004F07006908088E004F053ABFEC3BC
:10182E00908089E09480908088E094004004E4F0F9
:04183E00A3F0D2AF92
:0D184200D007D004D0D0D082D083D0E032C7
:06005B00121AF602006E0D
:0E1B3600438901758CBC758ACDD2A9D28C2250
:03000B00021B7362
:0B1B7300C2AF758CBC758ACDD2AF32BA
:101ACE0075C870E4F5CDF5CC75CBBC75CACD43A801
:041ADE0020D2C82228
:03002B00021B9421
:031B9400C2C63294
:0600F100121B36021ACEBC
:10172E005561727432496E697420446F6E65212161
:10173E0021313233005561727433496E697420441D
:10174E006F6E65212121005561727434496E697482
:10175E0020446F6E65212121005561727435496EEA
:10176E00697420446F6E6521212100000000000085
:10177E00000000000000000000000000000000005B
:01178E00005A
:100BDD0044A4290000000041A428006100A22900BE
:100BED0000000000000000000000000000000000F8
:100BFD0000000000000000000000000000000000E8
:100C0D0000000000000000000000000000000000D7
:100C1D0000000000000000000000000000000000C7
:100C2D0000000000000000000000000000000000B7
:100C3D0000000000000000000000000000000000A7
:100C4D000000000000000000000000000000000097
:100C5D000000000000000000000000000000000087
:100C6D000000000000000000000000000000000077
:100C7D000000000000000000000000000000000067
:100C8D000000000000000000000000000000000057
:100C9D000000000000000000000000000000000047
:100CAD000000000000000000000000000000000037
:100CBD000000000000000000000000000000000027
:100CCD000000000000000000000000000000000017
:100CDD0000000000000000000000000000000060A7
:100CED00FFA329000000000000000000000000002C
:100CFD0000000000000000000000000000000000E7
:100D0D0000000000000000000000000000000000D6
:100D1D0000000000000000000000000000000000C6
:100D2D0000000000000000000000000000000000B6
:100D3D0000000000000000000000000000000000A6
:100D4D000000000000000000000000000000000096
:100D5D000000000000000000000000000000000086
:100D6D000000000000000000000000000000000076
:100D7D000000000000000000000000000000000066
:100D8D000000000000000000000000000000000056
:100D9D000000000000000000000000000000000046
:100DAD000000000000000000000000000000000036
:100DBD000000000000000000000000000000000026
:100DCD000000000000000000000000000000000016
:100DDD000000000000000000000000000000000006
:020DED00000004
:1018A900782D7CA47D017BFF7A1779797E007F04EE
:1018B9001205787B017AA4792990A446E4F0A374EF
:1018C90004F07F007E0F12097990A429E0645A7010
:1018D900187B017AA4792D90A443F0A37404F07FB6
:0B18E900007E0F12072C7F01227F0001
:0118F40022D1
:0B1B7E007BFF7A17792E7D150218F509
:10164C00782D7CA47D017BFF7A17797D7E007F103D
:10165C00120578E490A43DF0A3F0A3F0A3F090A4BD
:10166C002AE0FBFEA3E0FAFDEEFC90A229745AF0EE
:10167C00A374A5F090A42CE025E0240390A22BF0F9
:10168C00A37483F0A3EBF0A3EAF0FFC006C0077BC2
:10169C00017AA2792F90A42CE075F002A4FF90A4FB
:1016AC0046E5F0F0A3EFF0D007D0061209797B01E4
:0E16BC007AA2792990A22BE02403FD0218F5F2
:10150700E490A43CF0A3F090A22DE0FEA3E0FDED53
:10151700FF90A43CEEF0A3EFF090A22CE064827061
:101527003D7B017AA2792F90A22BE024FDFEE434C3
:10153700FF90A443F0A3CEF090A43CE0FEA3E0FF0D
:1015470012072C90A22B7403F090A22D744FF0A3D6
:10155700744BF07B017AA2792990A22B803E90A24E
:101567002CE06483703D7B017AA2793090A22FE052
:1015770075F002A4FF90A446E5F0F0A3EFF090A465
:101587003CE0FEA3E0FF12097990A22FE025E0FFDF
:1015970090A22BE02FF07B017AA27929E02403FDAA
:0315A7001218F522
:0115AA00221E
:1019B800E490A444F0A3F0A3F0A3F0AE04AF05C0F4
:1019C80003C00290A441E0FBA3E0FAA3E0F8AC0254
:0B19D800AD03D002D0031205787F01A0
:0119E30022E1
:0B14280090A43CEBF0A3EAF0A3E9F075
:10143300E490A447F0A3F0A3F0A3F0C390A446E084
:10144300940790A445E0940050037F022290A43CAB
:10145300E0FBA3E0FAA3E0F912059E645A60037F60
:1014630003229000011205B764A560037F03229055
:1014730000021205B72403FFE433FE90A447F0A350
:10148300EFF0C390A446E09F90A445E09E4072E431
:1014930090A449F0A3F090A447E0FEA3E0FFA3E0EB
:1014A300FCA3E0FDC39FEC9E503C90A43CE0FBA357
:1014B300E0FAA3E0F912059EFF90A43FE0FBA3E04E
:1014C300FAA3E0F98D828C83EF1205F690A43DE434
:1014D30075F0011206B590A44AE004F070B890A428
:1014E30049E004F080B090A447E0F9A3E0FF90A4A2
:1014F30042E0FBA3E0FAA3E0C98FF01206E17F010B
:03150300227F0242
:0115060022C2
:10010000E490A42DF0A3F0A3F0A3F0A3F0A3F0A338
:10011000F0A3F0A304F0A37480F0A3748AF0E4A326
:10012000F0A3F0783A7CA47D017BFF7A17798DFEED
:100130007F02120578D3908083E09402908082E061
:10014000940040047F0180027F0090A433EFF09080
:10015000A433E070030204A790A4357401F0A374E3
:1001600080F0A3748AF090A435E0FBA3E0FAA3E04A
:10017000F912059E645A603A908082E0FEA3E02462
:100180008AF974803EFA7B01C003C002C00190A4CA
:1001900035A3E0FAA3E0F9C3D082D083D0E0E9959B
:1001A00082EA9583500C90A436E475F0011206B5EE
:1001B00080B4908082E0FEA3E0248AF974803EFA45
:1001C0007B01C003C002C00190A435E0FBA3E0FAAC
:1001D000A3E0F9D082D083D0E06B7008E96582702B
:1001E00003EA65837007908082F0A3F02290A43523
:1001F000A3E0FAA3E0C3948AFFEA9480FEC3908050
:1002000083E09FFF908082E09E90A431F0A3EFF006
:1002100090A438E024FE6055240260030202E97EC7
:10022000007FFF7D007B017AA1792A120700E4900C
:10023000A439F090A434F090A42DF0A3F0A3F0A37F
:10024000F090A42FE0FEA3E0FFC39403EE940050CF
:100250001C743A2FF58274A43EF583E4F090A43028
:10026000E004F070DC90A42FE004F080D490A43F70
:100270007401F0A374A1F0A3742AF0A37401F0A395
:1002800074A4F0A3742DF090A431E0FFA3E090A437
:1002900045CFF0A3EFF090A435E0FBA3E0FAA3E094
:1002A000F912142890A439EFF0A3F06401703A9089
:1002B000A42DE0FCA3E0FD90A4417401F0A374A27E
:1002C000F0A37429F07B017AA1792A1219B8EF7092
:1002D000030203871215077E017F007D007B017AF0
:1002E000A2792912070002038790A43AE064036010
:1002F0000302038790A436804490A435E0FBA3E07A
:10030000FAA3E0F912059E645A603A908082E0FEFA
:10031000A3E0248AF974803EFA7B01C003C002C0C6
:100320000190A435A3E0FAA3E0F9C3D082D083D032
:10033000E0E99582EA9583500C90A436E475F001CB
:100340001206B580B4908082E0FEA3E0248AF9749E
:10035000803EFA7B01C003C002C00190A435E0FBDF
:10036000A3E0FAA3E0F9D082D083D0E06B7008E973
:1003700065827003EA65837008908082F0A3F08044
:100380000690A4347401F090A439E06401600990EF
:10039000A434E0700302049F90A435A3E0FAA3E024
:1003A000C3948AFFEA9480FEC3908083E09FFF900D
:1003B0008082E09EFE90A42DE0FCA3E0FDC3EF9DB3
:1003C000FFEE9CFE90A431F0A3EFF0D39400EE94E6
:1003D000004068E490A42FF0A3F090A431E0FEA3C5
:1003E000E0FF90A42FE0FCA3E0FDC39FEC9E5043F0
:1003F00090A435E0FBA3E0FAA3E0F990A42DE0FE81
:10040000A3E0FFE92FF9EA3EFAE92DF9EA3CFA12F6
:10041000059EFF748A2DF58274803CF583EFF0E42D
:100420001205E490A430E004F070AF90A42FE00433
:10043000F080A790A4337401F08052E490A42FF0D0
:10044000A3F090A435A3E0FAA3E0C3948AFFEA9452
:1004500080FE90A42EE02FFF90A42DE03EFE90A4FD
:100460002FE0FCA3E0FDC39FEC9E501C748A2DF589
:100470008274803CF583E4F090A430E004F070C214
:1004800090A42FE004F080BAE490A433F090A4315B
:10049000E0FFA3E0908082CFF0A3EFF002014FE4F1
:0704A00090A433F002014FAC
:0104A7002232
:0C1B5C001218A9EF600312164C020100E1
:101AB700000000000000000000000000000000001F
:071AC7000000000000000018
:0E0DEF0042A477000041A4760142A4725AA5E6
:071AA000D2B3121AA7D2B263
:0F1AA700E4FFEFC394507480948050030F80F3DA
:011AB600220D
:0400260053BEF722AC
:0400660043BE08226B
:100DFE0078627CA47D017BFF7A1A79B77E007F062C
:100E0E001205787B017AA4795A90A446E4F0A37473
:100E1E0004F07F007E131209797B017AA4795E902B
:100E2E00A446E4F0A37404F07F057E1312097990B2
:100E3E00A45BE07E007810C333CE33CED8F9FDAC80
:100E4E000690A45AE07E007818C333CE33CED8F97C
:100E5E00FFEE4CFCEF4DFD90A45CE04CFEEDFFA3CD
:100E6E00E0FDEF4DFBAA0690A45FE07E007810C374
:100E7E0033CE33CED8F9FDAC0690A45EE07E00787A
:100E8E0018C333CE33CED8F9FFEE4CFCEF4DFD90A8
:100E9E00A460E04CFEEDFFA3E0FDEF4DFF90A474C7
:100EAE00EEF0A3EFF090A474E0FEA3E0FF7C007DD3
:100EBE006412062A90A467EDF090A474E0FEA3E0FD
:100ECE00FF7C007D6412062A7C007D6412062A9047
:100EDE00A466EDF090A474E0FEA3E0FF7C277D10E5
:100EEE0012062A7C007D6412062A90A465EDF07C21
:100EFE00007D64AF03AE0212062A90A464EDF07C6E
:100F0E00007D64AF03AE0212062A7C007D641206D9
:100F1E002A90A463EDF0AE02AF037C277D1012067B
:100F2E002A7C007D6412062A90A462EDF0A3E0FFF5
:100F3E00D3940074809480406ED3EF940C7480949C
:100F4E00805064A3E0FF941F748094805054EF94FB
:100F5E000074809480404BA3E0D3941774809480E7
:100F6E005039C3748094804032A3E0D3943B748094
:100F7E0094805020C3748094804019A3E0D3943B96
:100F8E00748094805007C3748094805020E490A4A1
:100F9E0067F08019E490A466F08012E490A465F0E6
:100FAE00800B90A464800390A4637401F07B017A9B
:100FBE00A4796290A443E4F0A37406F07F9D7E00B2
:100FCE0012072C7B017AA4797290A443E4F0A374E7
:090FDE0002F07F9C7E0002072C4A
:101AE200120066D2B3D2B2121AA7C2B3121AA7C296
:041AF200B2021AA77B
:0F1A2C007F1E1200C4E4FF1200C47F101200C41A
:101A3B00120066C2B3D2B2121AA7D2B3121AA702FD
:021A4B00002673
:0D001600120066C2B3121AA2C2B2021AA7EB
:0B1B8900120066121AA0C2B2021AA7D6
:101A0900120026121AA0E4FEEEC394327480948068
:101A1900500930B306121AA70E80EDC2B2121AA7E6
:031A290002006652
:10008600121AE27F641200C47F301200C4E4FF1229
:1000960000C4121A3B121AE27F641200C47F1C12BB
:1000A60000C47F481200C4E4FF1200C47F4012005F
:0E00B600C47F101200C4121A3B121AE27F64BB
:0200C400AE0785
:1000C600120066E4FDEDC39408748094805019EE26
:1000D60030E704D2B38002C2B3EE25E0FE121AA2C4
:0B00E600C2B2121AA70D80DD021A0939
:10002E00120026E4FDEDC3940874809480501B12D8
:10003E001AA2EE25E0FE30B3054401FE8004EE5414
:0C004E00FEFEC2B2121AA70D80DBAF0646
:01005A002283
:0A11980090A47AEBF090A479EDF03A
:1011A200EF24D0FEE4340790A47CF0A3CEF0EDFF50
:1011B20064016005EF6402701590A479E0240CF0DC
:1011C20090A47DE024FFF090A47CE034FFF090A492
:1011D2007CE0FEA3E0FFC394D8EE94064034BE0642
:1011E20010BFD80D90A479E0C39409748094804014
:1011F2002190A47CE064067004A3E064D87065903A
:10120200A479E06409705DA3E0C3940374809480C0
:10121200505290A479E0FB2401FFE433FE7C007D70
:10122200031206187D0512067FAD07EB75F002A4C6
:10123200FFA3E07A002FFFEA35F0CF2DCF3EFE90DC
:10124200A47CE0FCA3E0FD2FFBEC3EFAAE04ED78BB
:1012520002CEC313CE13D8F92BFFEA3ECF2406CF1A
:101262003400807C90A479E02401FFE433FE7C000A
:101272007D031206187D0512067FAC06AD07A3E0BA
:101282002401FBE433FA90A479E075F002A42BFF69
:10129200E5F03ACF2DCF3CFE90A47CE0FCA3E0FD2C
:1012A2002FFBEC3EFAAE04ED7802CEC313CE13D878
:1012B200F92BFBEA3EFA90A47CE0FEA3E0FF7C005F
:1012C2007D6412062AC3EB9FFBEA9EFA90A47CE09F
:1012D200FEA3E0FF7C017D9012062AEF2BFFEE3A7F
:1012E200FE7C007D0712062A90A47BEDF090A47B81
:0212F200E0FF1B
:0112F40022D7
:1012F500786A7CA47D017BFF7A1A79BD7E007F0820
:101305001205781200BF121A36121AE27F65120012
:10131500C47C06ECD3940074809480401512002E92
:10132500746A2CF582E434A4F583EFF01200161CE0
:1013350080E112002E90A46AEFF0121B89121A3B6D
:10134500E4FCECC39403748094805030746A2CF5EB
:1013550082E434A4F583E0FFC4540FFE90A468F042
:10136500EF540FFFA3F0EE75F00AA42FFF746A2C5B
:10137500F582E434A4F583EFF00C80C67C04ECC35D
:101385009407748094805030746A2CF582E434A4F8
:10139500F583E0FFC4540FFE90A468F0EF540FFFEF
:1013A500A3F0EE75F00AA42FFF746A2CF582E434DD
:1013B500A4F583EFF00C80C690A46AE0FFA3E0FDDE
:1013C500A3E0FB12119890A46DEFF07B017AA4794C
:1013D5006A90A443E4F0A37402F07F107E00120724
:1013E5002C7B017AA4796C90A443E4F0A37402F0F9
:1013F5007F117E0012072C7B017AA4796E90A4439D
:10140500E4F0A37402F07F127E0012072C7B017AB0
:10141500A4797090A443E4F0A37402F07F137E00D6
:0314250002072C8F
:10184F001200BF7F1D1200C4121A3B121AE27F65ED
:10185F001200C412002EAC0712001612002E121B1B
:10186F0089121A3BEC54026402702E1200867F100C
:10187F001200C4E4FF1200C4E4FF1200C4E4FF121C
:10188F0000C47F011200C47F011200C47F01120047
:09189F00C47F171200B9121A2CC3
:0118A800221D
:100FE700784D7CA47D017BFF7A1A79C57E007F024C
:100FF7001205787B017AA4794B90A446E4F0A37498
:1010070002F07F9C7E0012097990A44BE0645A702D
:0A10170004A3E064A5600302119732
:1010210090A44FF0A3F0D20078517CA47D017BFF06
:101031007A1A79C7FE7F071205787B017AA479585D
:1010410090A446E4F0A37402F07F9D7E001209791A
:1010510090A458E0FCA3E0FDEC90A44FF0E0FF75F4
:10106100F00A84C454F0FEEF75F00A84EE25F09086
:10107100A451F090A44FEDF0E0FF75F00A84C45440
:10108100F0FEEF75F00A84EE25F090A452F07B019A
:101091007AA4795890A446E4F0A37402F07F9E7E6E
:1010A1000012097990A458E0FCA3E0FDEC90A44F54
:1010B100F0E0FF75F00A84C454F0FEEF75F00A8485
:1010C100EE25F090A453F090A44FEDF0E0FF75F001
:1010D1000A84C454F0FEEF75F00A84EE25F090A462
:1010E10055F07B017AA4795890A446E4F0A37402E8
:1010F100F07F9F7E0012097990A458E0FCA3E0FDE7
:10110100EC90A44FF0E0FF75F00A84C454F0FEEFB8
:1011110075F00A84EE25F090A456F090A44FEDF0FE
:10112100E0FF75F00A84C454F0FEEF75F00A84EE16
:1011310025F090A457F07B017AA4794D90A443E463
:10114100F0A304F07F9C7E0012072C3000481200AF
:10115100867F101200C490A457E0FF1200C490A42F
:1011610056E0FF1200C490A455E0FF1200C490A401
:1011710054E0FF1200C490A453E0FF1200C490A4F5
:1011810052E0FF1200C490A451E0FF1200B9121AFC
:061191002CC20002114C0B
:011197002235
:101A6B00C390A478E094F490A477E09401400A1218
:0C1A7B0012F5E490A477F0A3F0020FE74E
:1015CC00021B68E493A3F8E493A34003F68001F2B2
:1015DC0008DFF48029E493A3F85407240CC8C33320
:1015EC00C4540F4420C8834004F456800146F6DFEF
:1015FC00E4800B0102040810204080900BC1E47EB3
:10160C00019360BCA3FF543F30E509541FFEE493E3
:10161C00A360010ECF54C025E060A840B8E493A3AA
:10162C00FAE493A3F8E493A3C8C582C8CAC583CAD5
:10163C00F0A3C8C582C8CAC583CADFE9DEE780BE8D
:010DFD0000F5
:1004A800E709F608DFFA8046E709F208DFFA803E36
:1004B80088828C83E709F0A3DFFA8032E309F60823
:1004C800DFFA8078E309F208DFFA807088828C838B
:1004D800E309F0A3DFFA806489828A83E0A3F6083F
:1004E800DFFA805889828A83E0A3F208DFFA804C19
:1004F80080D280FA80C680D4806980F280338010F0
:1005080080A680EA809A80A880DA80E280CA803358
:1005180089828A83ECFAE493A3C8C582C8CCC583D0
:10052800CCF0A3C8C582C8CCC583CCDFE9DEE780A0
:100538000D89828A83E493A3F608DFF9ECFAA9F01F
:10054800EDFB2289828A83ECFAE0A3C8C582C8CC75
:10055800C583CCF0A3C8C582C8CCC583CCDFEADE8E
:10056800E880DB89828A83E493A3F208DFF980CCF0
:1005780088F0EF60010E4E60C388F0ED2402B404E9
:100588000050B9F582EB2402B4040050AF23234590
:0605980082239004F873B9
:10059E00BB010689828A83E0225002E722BBFE025B
:0905AE00E32289828A83E493228E
:1005B700BB010CE58229F582E5833AF583E02250F9
:1005C70006E92582F8E622BBFE06E92582F8E22243
:0D05D700E58229F582E5833AF583E493225D
:1005E400BB010689828A83F0225002F722BBFE01F6
:0205F400F322F0
:1005F600F8BB010DE58229F582E5833AF583E8F03B
:10060600225006E92582C8F622BBFE05E92582C8E6
:02061600F222CE
:10061800EF8DF0A4A8F0CF8CF0A428CE8DF0A42EF6
:02062800FE22B0
:10062A00BC000BBE0029EF8DF084FFADF022E4CCB4
:10063A00F875F008EF2FFFEE33FEEC33FCEE9DEC7D
:10064A00984005FCEE9DFE0FD5F0E9E4CEFD22EDC3
:10065A00F8F5F0EE8420D21CFEADF075F008EF2F0D
:10066A00FFED33FD4007985006D5F0F222C398FDFE
:05067A000FD5F0EA229B
:10067F00C2D5EC30E709B2D5E4C39DFDE49CFCEE96
:10068F0030E715B2D5E4C39FFFE49EFE12062AC3DE
:10069F00E49DFDE49CFC800312062A30D507C3E4D9
:0606AF009FFFE49EFE2205
:1006B500C5F0F8A3E028F0C5F0F8E58215827002D0
:0606C5001583E038F0226D
:1006CB00A3F8E0C5F025F0F0E582158270021583E2
:0606DB00E0C838F0E8223F
:1006E100BB010A89828A83F0E5F0A3F0225006F764
:0F06F10009A7F01922BBFE06F3E5F009F3192261
:10070000EF4E6012EF60010EEDBB010B89828A8310
:10071000F0A3DFFCDEFA2289F05007F709DFFCA91D
:0C072000F022BBFEFCF309DFFCA9F02274
:00000001FF
