:03000000021AD60B
:0800F800FFFF4457494E543547
:101AD600759401759502758E0075930075C87075BD
:101AE600C96075F800787FE4F6D8FD758120021B81
:011AF60032BD
:0C10080044A48F0000000042A4930000EC
:10209D0012222512196390A491E4F0A37402F07B2F
:1020AD00017AA4798F90A46BE4F0A37404F07F00FF
:0E20BD007E51120D9C12001612210E80D922A7
:0C224400E4F5A8F5B8F59AF5A9F5B92263
:1021280075F90175B7C375BCA375BD2A75BE0CE4F6
:09213800F580F590F5A0F5B02248
:03000300020006F2
:05000600C2AFD2AF32D1
:0300130002000EDA
:05000E00C2AFD2AF32C9
:10222500C2AF12224412212812225C122266D2AFBA
:012235002286
:0C0B2F0090A466EEF0A3EFF0A31204689F
:100B3B007B007A007900C003C002C00190A4681248
:100B4B000448D082D083D0E06B7008E965827003D3
:100B5B00EA65837003020D9B90A46BE0FEA3E04E4D
:100B6B007003020D9B90A46BE0A3E0FFEEC313FE9A
:100B7B00EF13FF90A466E0FCA3E02FFFEE3CFED347
:100B8B00EF94FEEE94FF4003020D9BC2AF90A46660
:100B9B00E0A3E0540190A46DF090A466E0FEA3E006
:100BAB00FFEEC313FEEF13FF90A466EEF0A3EFF07E
:100BBB0090A466E0FEA3E07810CEC313CE13D8F951
:100BCB00F5F190A466E0FEA3E0EEF5F290A466E0EA
:100BDB00A3E0F5F3E4F5F875F401D2FF30FCFDD298
:100BEB00FD90A46DE06401707290A46BE0FEA3E035
:100BFB0064014E700AC2FBC2FAD2F9C2F88008C275
:100C0B00FBC2FAD2F9D2F8D2FE20FEFD90A46BE023
:100C1B00FEA3E064014E701A90A46875F0011204F3
:100C2B0051E5FC12023C90A46B74FFF5F012030D1E
:100C3B00802990A468E475F001120451E5FC1202BE
:100C4B003C90A468E475F001120451E5FD12023CDE
:100C5B0090A46B74FF75F0FE12030D90A46BE0FE75
:100C6B00A3E04E7003020D9690A46BE0A3E0C39437
:100C7B0004EE94004003020D3F90A46BE0A3E08EC2
:100C8B00F01204970CB300010CA900020C9F000397
:100C9B0000000CBBD2FBD2FAD2F9C2F88012D2FB05
:100CAB00D2FAC2F9C2F88008D2FBC2FAC2F9C2F872
:100CBB00D2FE20FEFD90A46BE0FEA3E08EF01204AA
:100CCB00970D2C00010D0C00020CDC000300000D35
:100CDB009690A468E475F001120451E5FA12023CF7
:100CEB0090A468E475F001120451E5FB12023C90EC
:100CFB00A468E475F001120451E5FC12023C020DEC
:100D0B009690A468E475F001120451E5FA12023CC6
:100D1B0090A468E475F001120451E5FB12023C80CB
:100D2B006A90A468E475F001120451E5FA12023CD2
:100D3B0080598057D2FBD2FAD2F9D2F8D2FE20FEDC
:100D4B00FD90A468E475F001120451E5FA12023C1F
:100D5B0090A468E475F001120451E5FB12023C907B
:100D6B00A468E475F001120451E5FC12023C90A456
:100D7B0068E475F001120451E5FD12023C90A46B7E
:100D8B0074FF75F0FC12030D020C66E4F5F8D2AF9C
:010D9B002235
:0C0D9C0090A466EEF0A3EFF0A312046830
:100DA8007B007A007900C003C002C00190A46812D9
:100DB8000448D082D083D0E06B7008E96582700364
:100DC800EA6583700302100790A46BE0FEA3E04E6F
:100DD800700302100790A46BE0A3E0FFEEC313FEBC
:100DE800EF13FF90A466E0FCA3E02FFFEE3CFED3D8
:100DF800EF94FEEE94FF4003021007C2AF90A46682
:100E0800E0A3E0540190A46DF090A466E0FEA3E096
:100E1800FFEEC313FEEF13FF90A466EEF0A3EFF00E
:100E280090A466E0FEA3E07810CEC313CE13D8F9E1
:100E3800F5F190A466E0FEA3E0EEF5F290A466E07A
:100E4800A3E0F5F3E4F5F875F401D2FF30FCFDC238
:100E5800FD90A46DE06401707290A46BE0FEA3E0C5
:100E680064014E700AC2FBC2FAD2F9C2F88008C205
:100E7800FBC2FAD2F9D2F890A46BE0FEA3E06401B9
:100E88004E701A90A46875F0011204511201F6F51B
:100E9800FC90A46B74FFF5F012030D802990A468F0
:100EA800E475F0011204511201F6F5FC90A468E40F
:100EB80075F0011204511201F6F5FD90A46B74FF50
:100EC80075F0FE12030DD2FE20FEFD90A46BE0FE2D
:100ED800A3E04E700302100290A46BE0A3E0C39459
:100EE80004EE94004003020FAB90A46BE0A3E08EE5
:100EF800F01204970F2000010F1600020F0C0003D8
:100F080000000F28D2FBD2FAD2F9C2F88012D2FB25
:100F1800D2FAC2F9C2F88008D2FBC2FAC2F9C2F802
:100F280090A46BE0FEA3E08EF01204970F930001EB
:100F38000F7300020F44000300000FA290A468E49E
:100F480075F0011204511201F6F5FA90A468E475DF
:100F5800F0011204511201F6F5FB90A468E475F053
:100F6800011204511201F6F5FC802F90A468E47573
:100F7800F0011204511201F6F5FA90A468E475F034
:100F8800011204511201F6F5FB800F90A468E47574
:100F9800F0011204511201F6F5FAD2FE30FE5B8020
:100FA800FB8057D2FBD2FAD2F9D2F890A468E47544
:100FB800F0011204511201F6F5FA90A468E475F0F4
:100FC800011204511201F6F5FB90A468E475F001D2
:100FD8001204511201F6F5FC90A468E475F00112B0
:100FE80004511201F6F5FDD2FE20FEFD90A46B74AB
:0F0FF800FF75F0FC12030D020ED3E4F5F8D2AF33
:0110070022C6
:1010140041808000428082000041808100428084BF
:0C1024000000428086000042808800002E
:1020CB0043B71043C940E4908080F0908082F0A326
:1020DB00F075D88075985053877F75BA0375AAE44D
:0520EB00D29CD2AC22E2
:1021590090A442EFF0908080E0640160F87401F08F
:0721690090A442E0F5992269
:101DBC0090A43E12046890A441EDF07B007A007967
:101DCC0000C003C002C00190A43E120448D082D0CF
:101DDC0083D0E06B7008E965827003EA6583602943
:101DEC0090A441E0602390A441E0FF14F0EF60194F
:101DFC0090A43E1204481201F6FF12215990A43F00
:0A1E0C00E475F00112030D80DD22E1
:03002300021C0DAF
:101C0D00C0E0C0F0C083C082C0D075D000C000C09D
:051C1D0004C006C00731
:101C220090A46EE4F0C2AF309839E599F0E0FF90ED
:101C32008082E0FCA3E0248AF58274803CF583EF85
:101C4200F0908082E475F00112030D908082E0FE34
:101C5200A3E0C394A0EE941F4007908082E4F0A317
:0F1C6200F0C298309907C299908080E4F0D2AF19
:101C7100D007D006D004D000D0D0D082D083D0F00D
:031C8100D0E0327E
:1020F00043B7C043C920E4908081F0908084F0A36E
:0E210000F0759BD075BB03759DC8759A0122C2
:1021700090A4A5EFF0908081E0640160F87401F014
:0721800090A4A5E0F59C22EC
:101E160090A49B12046890A49EEDF07B007A007952
:101E260000C003C002C00190A49B120448D082D017
:101E360083D0E06B7008E965827003EA65836029E8
:101E460090A49EE0602390A49EE0FF14F0EF60193A
:101E560090A49B1204481201F6FF12217090A49CD4
:0A1E6600E475F00112030D80DD2287
:03008300020086F2
:10008600C0E0C0F0C083C082C0D075D000C000C040
:0300960004C0079C
:1000990090A46FE4F0C2AFE59B30E027E59CF0E067
:1000A900FF908084E0FCA3E0242AF58274A03CF54B
:1000B90083EFF0908084E475F00112030D539BFEE9
:1000C900539BFEE59B30E10B539BFD539BFD9080B9
:0800D90081E4F043C901D2AF3C
:1000E100D007D004D000D0D0D082D083D0F0D0E0DF
:0100F10032DC
:1021C700E4908086F0A3F0759680759780F5D975B1
:0321D700E7E0221C
:10006E00E4908088F0A3F075A78075AB80F5AE752F
:05007E00AFE0D2BD223D
:1022130090A4A6EFF0E0F5ACE5A7540160FA53A74C
:02222300FE2299
:101E700090A49F12046890A4A2EDF07B007A0079F0
:101E800000C003C002C00190A49F120448D082D0B9
:101E900083D0E06B7008E965827003EA658360298E
:101EA00090A4A2E0602390A4A2E0FF14F0EF6019D8
:101EB00090A49F1204481201F6FF12221390A4A0CE
:0A1EC000E475F00112030D80DD222D
:0300630002002A6E
:01002A0032A3
:03006B00021C84F0
:101C8400C0E0C0F0C083C082C0D075D000C000C026
:101C940001C002C003C004C005C006C007C2AFE54E
:101CA400AB54016401702612177F908088E475F0AC
:101CB4000112030D53ABFE908088E0FEA3E0C394B1
:101CC40080EE94004007908088E4F0A3F0D2AFD077
:101CD40007D006D005D004D003D002D001D000D064
:0A1CE400D0D082D083D0F0D0E032DF
:0A225C001220CB1221C712006E22DF
:0E223600438901758CBC758ACDD2A9D28C2249
:03000B0002002EC2
:10002E00C0E0C0F0C083C082C0D075D000C000C296
:10003E00AF758CBC758ACD90A48DE475F00112035A
:10004E000DD2AFD000D0D0D082D083D0F0D0E0325D
:1021B30075C870E4F5CDF5CC75CBBC75CACD43A815
:0421C30020D2C8223C
:03002B000200666A
:03006600C2C632DD
:072266001222361221B322FF
:101D57005561727432496E697420446F6E65212132
:101D670021313233005561727433496E69742044EE
:101D77006F6E65212121005561727434496E697453
:101D870020446F6E65212121005561727435496EBB
:101D9700697420446F6E6521212100000000005AFC
:101DA700010000000000000000000000000000002B
:051DB700000000000027
:1010300044A4290000000041A428006100A2290066
:1010400000000000000000000000000000000000A0
:101050000000000000000000000000000000000090
:101060000000000000000000000000000000000080
:101070000000000000000000000000000000000070
:101080000000000000000000000000000000000060
:101090000000000000000000000000000000000050
:1010A0000000000000000000000000000000000040
:1010B0000000000000000000000000000000000030
:1010C0000000000000000000000000000000000020
:1010D0000000000000000000000000000000000010
:1010E0000000000000000000000000000000000000
:1010F00000000000000000000000000000000000F0
:1011000000000000000000000000000000000000DF
:1011100000000000000000000000000000000000CF
:1011200000000000000000000000000000000000BF
:10113000000000000000000000000000000000604F
:10114000FFA32900000000000000000000000000D4
:10115000000000000000000000000000000000008F
:10116000000000000000000000000000000000007F
:10117000000000000000000000000000000000006F
:10118000000000000000000000000000000000005F
:10119000000000000000000000000000000000004F
:1011A000000000000000000000000000000000003F
:1011B000000000000000000000000000000000002F
:1011C000000000000000000000000000000000001F
:1011D000000000000000000000000000000000000F
:1011E00000000000000000000000000000000000FF
:1011F00000000000000000000000000000000000EF
:1012000000000000000000000000000000000000DE
:1012100000000000000000000000000000000000CE
:1012200000000000000000000000000000000000BE
:1012300000000000000000000000000000000000AE
:021240000000AC
:101ECA007BFF7A1D79A2782D7CA47D017E007F0498
:101EDA001201D07B017AA4792990A46BE4F0A3744F
:101EEA0004F07F007E0F120B2F90A429E0645A7031
:101EFA00187B017AA4792D90A46BF0A37404F07F67
:0B1F0A00007E0F120D9C7F01227F0063
:011F150022A9
:0C2250007BFF7A1D79577D15121DBC2202
:081CEE0090A495EEF0A3EFF0C5
:101CF6007BFF7A1D79A678977CA47D017E007F0400
:101D06001201D090A495E0FEA3E0EE90A499F09085
:101D1600A495A3E090A49AF07B017AA4799790A465
:101D26006BE4F0A37404F07F847E00120D9C7F05A3
:101D36007E001200007B017AA4799790A46BE4F0F0
:101D4600A304F07F847E00120B2F90A497E070DE30
:011D5600226A
:10202F0090A443EEF0A3EFF090A443E0FEA3E0648E
:10203F00407003EE6414601F90A443E0A3E064417A
:10204F007003EE6414601090A443E0A3E0B40007A3
:08205F00EEB414031208AE22D6
:101B77007BFF7A1D79AA782D7CA47D017E007F10DA
:101B87001201D0E490A43DF0A3F0A3F0A3F0A3F0DA
:101B9700A3F090A42AE0FEA3E0FDEEEDFF90A441A0
:101BA700EEF0A3EFF090A229745AF0A374A5F09079
:101BB700A42CE025E0240390A22BF0A37483F090DB
:101BC700A42AE090A22DF090A42BE090A22EF090F2
:101BD700A441E0FEA3E0FFC006C0077B017AA2791B
:101BE7002F90A42CE075F002A4FF90A46BE5F0F011
:101BF700A3EFF0D007D006120B2F90A441E0FEA36D
:051C0700E0FF12202F98
:011C0C0022B5
:101A2300E490A43CF0A3F090A22DE0FEA3E0FDEE31
:101A3300EDFF90A43CEEF0A3EFF090A22CE06482C3
:101A4300704390A43CE0FEA3E0FF7B017AA2792FD0
:101A530090A22BE024FDFDE434FF90A46BF0A3EDF2
:101A6300F0120D9C90A22B7403F090A22D744FF0F2
:101A7300A3744BF07B017AA2792990A22BE0240373
:101A8300FD121DBC2290A22CE06483704590A43CFF
:101A9300E0FEA3E0FFC006C0077B017AA279309085
:101AA300A22FE075F002A4FF90A46BE5F0F0A3EF82
:101AB300F0D007D006120B2F90A22FE025E0FF9065
:101AC300A22BE02FF07B017AA27929E02403FD12F7
:021AD3001DBC38
:011AD50022EE
:0E1FEA0090A43C12046890A43FECF0A3EDF02C
:101FF800E490A444F0A3F0A3F0A3F090A43FE0FE83
:10200800A3E0FF90A43C120448C003C002C00190A2
:10201800A441120448A801AC02AD03D001D002D0FB
:06202800031201D07F014C
:01202E00228F
:06188C0090A43C12046868
:10189200E490A447F0A3F0A3F0A3F090A445E0FEE7
:1018A200A3E0C39407EE940050037F022290A43C6D
:1018B2001204481201F6645A60037F032290A43C8A
:1018C20012044890000112020F64A560037F0322F4
:1018D20090A43C12044890000212020F2403FFE479
:1018E2003390A447F0A3EFF090A445E0FEA3E0FFFD
:1018F200A3E0FCA3E0D39FEC9E5063E4A3F0A3F02B
:1019020090A447E0FEA3E0FFA3E0FCA3E0C39FECAA
:101912009E503490A43C1204481201F6FF90A43F5A
:1019220012044890A449E0A3E0F5828C83EF1202EE
:101932004E90A43DE475F00112030D90A449E475A4
:10194200F00112030D80B990A447E0FEA3E0FF90DE
:10195200A442120448EE8FF01203237F01227F0279
:011962002262
:1004F000E490A42DF0A3F0A3F0A3F0A3F0A3F0A345
:10050000F0A3F07B017A80798AA3120468E490A4B6
:1005100038F0A3F07BFF7A1D79BA783A7CA47D018C
:10052000FE7F021201D0908082E0FEA3E0D394020D
:10053000EE940040047F0180027F0090A433EFF02E
:1005400090A433E070030208AD7B017A80798A9031
:10055000A43512046890A4351204481201F6645AB6
:100560006037908082E0FEA3E0248AF974803EFA2E
:100570007B01C003C002C00190A435120448C3D05F
:1005800082D083D0E0E99582EA9583500C90A4361E
:10059000E475F00112030D80BC908082E0FEA3E0C0
:1005A000248AF974803EFA7B01C003C002C0019026
:1005B000A435120448D082D083D0E06B7008E9657E
:1005C000827003EA65837007908082F0A3F0229026
:1005D000A435120448C3E9948AFFEA9480FE90800F
:1005E00082E0FCA3E0C39FFFEC9E90A431F0A3EF58
:1005F000F090A438E012047106050006520206DAF3
:1006000003000006DA7E007FFF7D007B017AA1797E
:100610002A1204C4E490A439F090A434F090A42DDC
:10062000F0A3F0A3F0A3F090A42FE0FEA3E0C39406
:1006300003EE9400501C90A42FE0A3E0243AF5822E
:1006400074A43EF583E4F090A42F75F00112030D1D
:1006500080D590A435120448C003C002C0017B01BC
:100660007AA1792A90A43F1204687AA4792D90A4E3
:100670004212046890A431E0FEA3E0FF90A445EE8E
:10068000F0A3EFF0D001D002D00312188C90A4395F
:10069000EFF0E0A3F090A4396401703E7B017AA1F1
:1006A000792AC002C00190A42DE0FCA3E0FD7AA24B
:1006B000792990A441120468D001D002121FEAEFF8
:1006C000700302076F121A237E017F007D007B01F9
:1006D0007AA279291204C402076F90A43AE0640355
:1006E000600302076F90A43675F00112030D90A409
:1006F000351204481201F6645A6037908082E0FE99
:10070000A3E0248AF974803EFA7B01C003C002C0D2
:100710000190A435120448C3D082D083D0E0E9957B
:1007200082EA9583500C90A436E475F00112030D13
:1007300080BC908082E0FEA3E0248AF974803EFAB7
:100740007B01C003C002C00190A435120448D082CE
:10075000D083D0E06B7008E965827003EA6583702E
:1007600008908082F0A3F0800690A4347401F09089
:10077000A439E06401600990A434E070030208A584
:1007800090A435120448C3E9948AFFEA9480FE904D
:100790008082E0FCA3E0C39FFFEC9EFE90A42DE0CE
:1007A000FCA3E0FDC3EF9DFFEE9C90A431F0A3EF0E
:1007B000F090A431E0FEA3E0D39400EE9400500347
:1007C000020843E490A42FF0A3F090A431E0FEA32C
:1007D000E0FF90A42FE0FCA3E0C39FEC9E505C9050
:1007E000A43512044890A42DE0FEA3E029F9EA3EC6
:1007F000FAA3E0FEA3E029F9EA3EFA1201F6FF901F
:10080000A42FE0A3E0248AF58274803CF583EFF006
:1008100090A43512044890A42DE0FEA3E029F9EA43
:100820003EFAA3E0FEA3E029F9EA3EFAE412023C14
:1008300090A42F75F00112030D808F90A4337401E2
:10084000F0804FE490A42FF0A3F090A43512044858
:10085000C3E9948AFFEA9480FE90A42DE0FCA3E013
:100860002FFFEE3CFEA3E0FCA3E0C39FEC9E501DD7
:1008700090A42FE0FEA3E0248AF58274803EF583E5
:10088000E4F090A42F75F00112030D80BDE490A454
:1008900033F090A431E0FEA3E0FF908082EEF0A35D
:0D08A000EFF0020540E490A433F0020540A3
:0108AD002228
:0D001600121ECAEF6003121B771204F022C5
:102187000000000000000000000000000000000048
:072197000000000000000041
:0E12420042A48D000041A48C0142A4865AA54E
:10214100E490A469F090A469E0C3945074809480F1
:072151005005E004F080EEF0
:012158002264
:0400260053BEF722AC
:04005E0043BE082273
:1008AE007BFF7A217987784D7CA47D017E007F06BF
:1008BE001201D07B017AA4794590A46BE4F0A37465
:1008CE0004F07F007E13120B2F7B017AA4794990DE
:1008DE00A46BE4F0A37404F07F057E13120B2F902B
:1008EE00A446E0FFE4FCFDFE781012041DC004C017
:1008FE0005C006C00790A445E0FFE4FCFDFE781895
:10090E0012041DA804A905AA06AB07D007D006D06D
:10091E0005D004120410C004C005C006C00790A480
:10092E0047E0FFE4FCFDFE780812041DA804A905AB
:10093E00AA06AB07D007D006D005D004120410A823
:10094E0004A905AA06AB07A3E0FFE4FCFDFE120412
:10095E001090A45312043C90A44AE0FFE4FCFDFE68
:10096E00781012041DC004C005C006C00790A4492B
:10097E00E0FFE4FCFDFE781812041DA804A905AAE8
:10098E0006AB07D007D006D005D004120410C00461
:10099E00C005C006C00790A44BE0FFE4FCFDFE7846
:1009AE000812041DA804A905AA06AB07D007D00695
:1009BE00D005D004120410A804A905AA06AB07A3FB
:1009CE00E0FFE4FCFDFE12041090A48812043CE447
:1009DE007B64FAF9F890A48812043012037E90A476
:1009EE0052EBF0E47B64FAF9F890A488120430120A
:1009FE00037EE47B64FAF9F812037E90A451EBF0C7
:100A0E00E47B107A27F9F890A48812043012037E42
:100A1E00E47B64FAF9F812037E90A450EBF0E47BC9
:100A2E0064FAF9F890A45312043012037E90A44F86
:100A3E00EBF0E47B64FAF9F890A45312043012033D
:100A4E007EE47B64FAF9F812037E90A44EEBF0E498
:100A5E007B107A27F9F890A45312043012037EE427
:100A6E007B64FAF9F812037E90A44DEBF0A3E0D369
:100A7E009400748094804073E0D3940C74809480BE
:100A8E005069A3E0941F748094805057E0940074D2
:100A9E00809480404EA3E0D3941774809480503C91
:100AAE00E0C3748094804034A3E0D3943B7480946C
:100ABE00805022E0C374809480401AA3E0D3943B0C
:100ACE00748094805008E0C3748094805023E49026
:100ADE00A452F0801CE490A451F08015E490A45030
:100AEE00F0800E90A44F7401F0800690A44E740115
:100AFE00F07B017AA4794D90A46BE4F0A37406F018
:100B0E007F9D7E00120D9C7B017AA4798690A46B4A
:100B1E00E4F0A37402F07F9C7E00120D9C12125A18
:010B2E0022A4
:10219E0012005ED2B3D2B2122141C2B3122141C299
:0521AE00B212214122E4
:1021DA0012005EC2B3D2B2122141D2B3122141120D
:0321EA00002622AA
:1021ED0012005EC2B3122141D2B2122141C2B2120B
:0321FD002141225B
:1022000012005ED2B3122141D2B2122141C2B212E7
:0322100021412247
:10206700120026D2B3122141D2B2122141E490A428
:1020770068F090A468E0C3943274809480500E3066
:10208700B30B12214190A468E004F080E5C2B212BC
:05209700214112005E72
:01209C002221
:051F5E0090A466EFF005
:101F630012005EE4A3F090A467E0C3940874809425
:101F730080502A90A466E030E704D2B38002C2B353
:101F830090A466E0FF25E0F0122141D2B212214174
:101F9300C2B212214190A467E004F080C912206705
:011FA300221B
:101F1600120026E490A438F090A438E0C394087424
:101F2600809480502D122141D2B212214190A439C1
:101F3600E0FF25E0F030B306E04401F0800790A40E
:101F460039E054FEF0C2B212214190A438E004F008
:071F560080C690A439E0FFF2
:011F5D002261
:0B15FE0090A438EFF0A3EDF0A3EBF099
:1016090090A438E024D0FFE4340790A43CF0A3EF81
:10161900F090A439E064016005E06402701190A4BF
:1016290039E0240CF090A43C74FFF5F012030D90FE
:10163900A43CE0FEA3E0C394D8EE9406403D90A4F8
:101649003CE0A3E0B4D811EEB4060D90A439E0C390
:10165900940974809480402390A43CE0FEA3E06444
:10166900D87003EE6406707A90A439E06409707248
:10167900A3E0C3940374809480506790A439E02454
:1016890001FFE433FE7C007D031202707D05120226
:10169900D7AC06AD07E075F002A4FFA3E07A002FEE
:1016A900FFEA35F0FEED2FFFEC3EFE90A43CE0FC96
:1016B900A3E02FFDEE3CFC90A43CE0FEA3E0780201
:1016C900CEC313CE13D8F92DFFEC3EFEEF2406FF4F
:1016D900E43EFE7C007D0712028290A43BEDF002FD
:1016E900177990A439E02401FFE433FE7C007D03DF
:1016F9001202707D051202D7AC06AD07A3E02401E2
:10170900FBE433FA90A439E075F002A42BFFE5F06D
:101719003AFEED2FFFEC3EFE90A43CE0FCA3E02F47
:10172900FDEE3CFC90A43CE0FEA3E07802CEC3139E
:10173900CE13D8F92DFBEC3EFA90A43CE0FEA3E0D1
:10174900FF7C007D64120282C3EB9FFBEA9EFA9044
:10175900A43CE0FEA3E0FF7C017D90120282EF2B06
:10176900FFEE3AFE7C007D0712028290A43BEDF069
:0517790090A43BE0FF1D
:01177E002248
:10146E007BFF7A21798D78307CA47D017E007F0808
:10147E001201D012219E7F64121F5E7F10121F5E1A
:10148E001221DA12219E7F65121F5E90A42D740622
:10149E00F090A42DE0D3940074809480401D121F10
:1014AE001690A42DE02430F582E434A4F583EFF0F9
:1014BE001221ED90A42DE014F080D6121F1690A4E8
:1014CE0030EFF01222001221DAE490A42DF090A455
:1014DE002DE0C3940374809480504BE02430F58249
:1014EE00E434A4F583E0FFC4540F90A42EF090A42E
:1014FE002DE02430F582E434A4F583E0540F90A45B
:10150E002FF090A42EE075F00AA4FFA3E02FFF9019
:10151E00A42DE02430F582E434A4F583EFF090A4FA
:10152E002DE004F080A890A42D7404F090A42DE07A
:10153E00C3940774809480504BE02430F582E434D9
:10154E00A4F583E0FFC4540F90A42EF090A42DE0D8
:10155E002430F582E434A4F583E0540F90A42FF0E8
:10156E0090A42EE075F00AA4FFA3E02FFF90A42D07
:10157E00E02430F582E434A4F583EFF090A42DE05E
:10158E0004F080A890A430E0FFA3E0FDA3E0FB12DE
:10159E0015FE90A433EFF07B017AA4793090A46B02
:1015AE00E4F0A37402F07F107E00120D9C7B017A92
:1015BE00A4793290A46BE4F0A37402F07F117E0044
:1015CE00120D9C7B017AA4793490A46BE4F0A37481
:1015DE0002F07F127E00120D9C7B017AA479369068
:0F15EE00A46BE4F0A37402F07F137E00120D9C37
:0115FD0022CB
:1019630012219E7F64121F5E7F1D121F5E1221DAF9
:1019730012219E7F65121F5E121F1690A42DEFF099
:101983001221ED121F161222001221DA90A42DE06B
:10199300540264026003021A2212219E7F64121F02
:1019A3005E7F30121F5EE4FF121F5E1221DA1221E6
:1019B3009E7F64121F5E7F1C121F5E7F48121F5E94
:1019C300E4FF121F5E7F40121F5E7F10121F5E1224
:1019D30021DA12219E7F64121F5E7F10121F5EE4C4
:1019E300FF121F5EE4FF121F5EE4FF121F5E7F0102
:1019F300121F5E7F01121F5E7F01121F5E7F17128F
:101A03001F5E1221DA12219E7F64121F5E7F1E1257
:0F1A13001F5EE4FF121F5E7F10121F5E1221DAAA
:011A220022A1
:10125A007BFF7A21799578597CA47D017E007F02F3
:10126A001201D07B017AA4795790A46BE4F0A3749D
:10127A0002F07F9C7E00120B2F90A457E0FEA3E0A1
:0C128A0064A57003EE645A600302146D4A
:1012960090A45BF0A3F0D2007BFF7A217997785D6A
:1012A6007CA47D01FE7F071201D07B017AA47964BC
:1012B60090A46BE4F0A37402F07F9D7E00120B2FC6
:1012C60090A464E0FEA3E0EE90A45BF0E075F00A63
:1012D60084C454F0FFE075F00A84EF25F090A45D15
:1012E600F090A464E0A3E090A45BF0E075F00A84BB
:1012F600C454F0FFE075F00A84EF25F090A45EF088
:101306007B017AA4796490A46BE4F0A37402F07F65
:101316009E7E00120B2F90A464E0FEA3E0EE90A444
:101326005BF0E075F00A84C454F0FFE075F00A84BF
:10133600EF25F090A45FF090A464E0A3E090A45B96
:10134600F0E075F00A84C454F0FFE075F00A84EF0B
:1013560025F090A461F07B017AA4796490A46BE4F3
:10136600F0A37402F07F9F7E00120B2F90A464E01E
:10137600FEA3E0EE90A45BF0E075F00A84C454F09E
:10138600FFE075F00A84EF25F090A462F090A46463
:10139600E0A3E090A45BF0E075F00A84C454F0FF8B
:1013A600E075F00A84EF25F090A463F07B017AA43F
:1013B600795990A46BE4F0A304F07F9C7E00120D93
:1013C6009C20000302146D12219E7F64121F5E7F13
:1013D60030121F5EE4FF121F5E1221DA12219E7F79
:1013E60064121F5E7F1C121F5E7F48121F5EE4FFA1
:1013F600121F5E7F40121F5E7F10121F5E1221DADF
:1014060012219E7F64121F5E7F10121F5E90A463DE
:10141600E0FF121F5E90A462E0FF121F5E90A461BF
:10142600E0FF121F5E90A460E0FF121F5E90A45FB3
:10143600E0FF121F5E90A45EE0FF121F5E90A45DA7
:10144600E0FF121F5E1221DA12219E7F64121F5ED8
:101456007F1E121F5EE4FF121F5E7F10121F5E12B8
:0714660021DAC2000213C7E6
:01146D00225C
:10210E0090A48DE0FEA3E0C394F4EE9401400A1275
:0A211E00146EE490A48DF0A3F022EB
:0412500041A4720043
:10177F00E490A470F0A3E5ADF090A472E0120471B0
:10178F0017990017BC01000017E090A471E064578F
:10179F00600302188BE0FF90A472E02474F582E4DA
:1017AF0034A4F583EFF090A4727401F02290A47129
:1017BF00E07018E0FF90A472E02474F582E434A482
:1017CF00F583EFF090A4727402F022E490A472F00B
:1017DF002290A471E0FF90A472E02474F582E434A7
:1017EF00A4F583EFF090A472E004F0E0D3940F74AB
:1017FF00809480500302188BE4F090A475E0FF9062
:10180F00A474E02FFF90A476E02FFFA3E02FFFA397
:10181F00E02FFFA3E02FFFA3E02FFFA3E02FFFA3F5
:10182F00E02FFFA3E02FFFA3E02FFFA3E02FFFA3E5
:10183F00E02FFFA3E02FFFA3E02F90A470F090A460
:10184F0083E0FF90A470E06F703290A47FE0702C63
:10185F0090A47DE07D00FCA3E07E007810C333CE22
:10186F0033CED8F9FFEE4CFEEF4DFF90A47CE0FD98
:0C187F00EEEF4DFF90A484EEF0A3EFF01C
:01188B00223A
:01006200227B
:010069002274
:01006A002273
:0512540042A4A300000C
:101FA4007B017AA479A390A46BE4F0A37402F07F7C
:101FB400147E00120B2F90A4A4E01204711FE600FB
:101FC4001FE9011FE9021FE9031FE9041FE9051FB7
:101FD400E9061FE9071FE9081FE90A1FE90B0000CA
:061FE4001FE91200622259
:101AF70002209DE493A3F8E493A34003F68001F248
:101B070008DFF48029E493A3F85407240CC8C333EF
:101B1700C4540F4420C8834004F456800146F6DFBE
:101B2700E4800B0102040810204080901008E47E36
:101B3700019360BCA3FF543F30E509541FFEE493B3
:101B4700A360010ECF54C025E060A840B8E493A37A
:101B5700FAE493A3F8E493A3C8C582C8CAC583CAA5
:101B6700F0A3C8C582C8CAC583CADFE9DEE780BE5D
:011259000094
:10010000E709F608DFFA8046E709F208DFFA803EE1
:1001100088828C83E709F0A3DFFA8032E309F608CE
:10012000DFFA8078E309F208DFFA807088828C8336
:10013000E309F0A3DFFA806489828A83E0A3F608EA
:10014000DFFA805889828A83E0A3F208DFFA804CC4
:1001500080D280FA80C680D4806980F2803380109B
:1001600080A680EA809A80A880DA80E280CA803304
:1001700089828A83ECFAE493A3C8C582C8CCC5837C
:10018000CCF0A3C8C582C8CCC583CCDFE9DEE7804C
:100190000D89828A83E493A3F608DFF9ECFAA9F0CB
:1001A000EDFB2289828A83ECFAE0A3C8C582C8CC21
:1001B000C583CCF0A3C8C582C8CCC583CCDFEADE3A
:1001C000E880DB89828A83E493A3F208DFF980CC9C
:1001D00088F0EF60010E4E60C388F0ED2402B40495
:1001E0000050B9F582EB2402B4040050AF2323453C
:0601F00082239001507310
:1001F600BB010689828A83E0225002E722BBFE0207
:09020600E32289828A83E4932239
:10020F00BB010CE58229F582E5833AF583E02250A4
:10021F0006E92582F8E622BBFE06E92582F8E222EE
:0D022F00E58229F582E5833AF583E4932208
:10023C00BB010689828A83F0225002F722BBFE01A1
:02024C00F3229B
:10024E00F8BB010DE58229F582E5833AF583E8F0E6
:10025E00225006E92582C8F622BBFE05E92582C892
:02026E00F2227A
:10027000EF8DF0A4A8F0CF8CF0A428CE8DF0A42EA2
:02028000FE225C
:10028200BC000BBE0029EF8DF084FFADF022E4CC60
:10029200F875F008EF2FFFEE33FEEC33FCEE9DEC29
:1002A200984005FCEE9DFE0FD5F0E9E4CEFD22ED6F
:1002B200F8F5F0EE8420D21CFEADF075F008EF2FB9
:1002C200FFED33FD4007985006D5F0F222C398FDAA
:0502D2000FD5F0EA2247
:1002D700C2D5EC30E709B2D5E4C39DFDE49CFCEE42
:1002E70030E715B2D5E4C39FFFE49EFE120282C336
:1002F700E49DFDE49CFC800312028230D507C3E431
:060307009FFFE49EFE22B0
:10030D00C5F0F8A3E028F0C5F0F8E582158270027B
:06031D001583E038F02218
:10032300BB010A89828A83F0E5F0A3F0225006F725
:0F03330009A7F01922BBFE06F3E5F009F3192222
:1003420075F008758200EF2FFFEE33FECD33CDCC72
:1003520033CCC58233C5829BED9AEC99E5829840F5
:100362000CF582EE9BFEED9AFDEC99FC0FD5F0D6D2
:10037200E4CEFBE4CDFAE4CCF9A88222B800C1B9FC
:100382000059BA002DEC8BF084CFCECDFCE5F0CB3A
:10039200F97818EF2FFFEE33FEED33FDEC33FCEB73
:1003A20033FB10D703994004EB99FB0FD8E5E4F92E
:1003B200FA227818EF2FFFEE33FEED33FDEC33FC1B
:1003C200C933C910D7059BE99A4007EC9BFCE99A0F
:1003D200F90FD8E0E4C9FAE4CCFB2275F010EF2F54
:1003E200FFEE33FEED33FDCC33CCC833C810D70754
:1003F2009BEC9AE899400AED9BFDEC9AFCE899F88F
:0E0402000FD5F0DAE4CDFBE4CCFAE4C8F92221
:0D041000EF4BFFEE4AFEED49FDEC48FC22EB
:10041D00E8600FEFC333FFEE33FEED33FDEC33FC3D
:03042D00D8F122E1
:0C043000E0FCA3E0FDA3E0FEA3E0FF223F
:0C043C00ECF0A3EDF0A3EEF0A3EFF02233
:09044800E0FBA3E0FAA3E0F922B5
:10045100F8E0FBA3A3E0F925F0F0E5821582700234
:070461001583E0FA38F022D8
:09046800EBF0A3EAF0A3E9F02295
:10047100D083D082F8E4937012740193700DA3A31A
:1004810093F8740193F5828883E47374029368602E
:06049100EFA3A3A380DF2E
:10049700D083D082F8E4937012740193700DA3A3F4
:1004A70093F8740193F5828883E473740293B5F02B
:0D04B700067403936860E9A3A3A3A380D893
:1004C400EF4E6012EF60010EEDBB010B89828A834F
:1004D400F0A3DFFCDEFA2289F05007F709DFFCA95C
:0C04E400F022BBFEFCF309DFFCA9F022B3
:00000001FF
