:030000000215AE38
:0800F800FFFF4457494E543547
:1015AE00759401759502758E0075930075C87075EA
:1015BE00C96075F800787FE4F6D8FD7581200216B3
:0115CE000A12
:0E1BCE00121BBD1218C0121C34121B2180F80D
:0C1C0600E4F5A8F5B8F59AF5A9F5B922A7
:101B3B0075F90175B7C375BCA375BD2A75BE0CE4E9
:091B4B00F580F590F5A0F5B0223B
:03000300020006F2
:05000600C2AFD2AF32D1
:0300130002000EDA
:05000E00C2AFD2AF32C9
:101BBD00C2AF121C06121B3B12005B1200F1D2AF1A
:011BCD0022F5
:0F09790090A462EBF0A3EAF0A3E9F0AD07AC069F
:1009880090A462E0FBA3E0FAA3E04A4B7003020BD9
:10099800C0A3E0FEA3E0FF4E7003020BC0EEC3133A
:1009A800FEEF132DFFEE3CFED3EF94FEEE94FF40D6
:1009B80003020BC0C2AFED5401FBECC313FCED13F3
:1009C800FDAE047810CEC313CE13D8F9F5F1ECF5CB
:1009D800F2AF058FF3E4F5F875F401D2FF30FCFDB2
:1009E800D2FDEB6401707D90A465E07004A3E0641F
:1009F80001700AC2FBC2FAD2F9C2F88008C2FBC26F
:100A0800FAD2F9D2F8D2FE20FEFD90A465E0700477
:100A1800A3E0640190A462701BE0FBA3E475F001FD
:100A28001206CBA9F0FAE5FC1205E490A466E024CE
:100A3800FF020BB0E0FBA3E475F0011206CBA9F0AE
:100A4800FAE5FC1205E490A462E0FBA3E475F0016A
:100A58001206CBA9F0FAE5FD1205E490A466E0249D
:100A6800FE020BB090A465E0FEA3E0FF4E70030207
:100A78000BBBC3EF9404EE94004003020B49EE70E5
:100A880022EF14601614600D147018D2FBD2FAD23B
:100A9800F9C2F8800ED2FBD2FA8004D2FBC2FAC2A5
:100AA800F9C2F8D2FE20FEFD90A465E0FEA3E0FFA7
:100AB800EE6003020BBBEF14607014604414600313
:100AC800020BBB90A462E0FBA3E475F0011206CB15
:100AD800A9F0FAE5FA1205E490A462E0FBA3E47534
:100AE800F0011206CBA9F0FAE5FB1205E490A46226
:100AF800E0FBA3E475F0011206CBA9F0FAE5FC804F
:100B08003B90A462E0FBA3E475F0011206CBA9F0C8
:100B1800FAE5FA1205E490A462E0FBA3E475F0019B
:100B28001206CBA9F0FAE5FB801290A462E0FBA3C1
:100B3800E475F0011206CBA9F0FAE5FA1205E48093
:100B480072D2FBD2FAD2F9D2F8D2FE20FEFD90A4DE
:100B580062E0FBA3E475F0011206CBA9F0FAE5FA0E
:100B68001205E490A462E0FBA3E475F0011206CB41
:100B7800A9F0FAE5FB1205E490A462E0FBA3E47592
:100B8800F0011206CBA9F0FAE5FC1205E490A46284
:100B9800E0FBA3E475F0011206CBA9F0FAE5FD121B
:100BA80005E490A466E024FCF090A465E034FFF02E
:080BB800020A6CE4F5F8D2AF6B
:010BC0002212
:0F072C0090A462EBF0A3EAF0A3E9F0AD07AC06EE
:10073B0090A462E0FBA3E0FAA3E04A4B700302092A
:10074B0078A3E0FEA3E0FF4E7003020978EEC3131B
:10075B00FEEF132DFFEE3CFED3EF94FEEE94FF4025
:10076B0003020978C2AFED5401FBECC313FCED138C
:10077B00FDAE047810CEC313CE13D8F9F5F1ECF51A
:10078B00F2AF058FF3E4F5F875F401D2FF30FCFD01
:10079B00C2FDEB6401707C90A465E0FEA3E0FF64F6
:1007AB00014E700AC2FBC2FAD2F9C2F88008C2FB32
:1007BB00C2FAD2F9D2F8EF64014E90A462701AE03B
:1007CB00FBA3E475F0011206CBA9F0FA12059EF516
:1007DB00FC90A466E024FF802DE0FBA3E475F00100
:1007EB001206CBA9F0FA12059EF5FC90A462E0FB71
:1007FB00A3E475F0011206CBA9F0FA12059EF5FDE4
:10080B0090A466E024FEF090A465E034FFF0D2FEE5
:10081B0020FEFD90A465E0FEA3E0FF4E70030209ED
:10082B0073C3EF9404EE94004003020901EE7022AF
:10083B00EF14601614600D147018D2FBD2FAD2F9B3
:10084B00C2F8800ED2FBD2FA8004D2FBC2FAC2F9F4
:10085B00C2F890A465E0FEA3E0FFEE60030208FA85
:10086B00EF1460761460471460030208FA90A462D8
:10087B00E0FBA3E475F0011206CBA9F0FA12059E7A
:10088B00F5FA90A462E0FBA3E475F0011206CBA984
:10089B00F0FA12059EF5FB90A462E0FBA3E475F061
:1008AB00011206CBA9F0FA12059EF5FC804190A42B
:1008BB0062E0FBA3E475F0011206CBA9F0FA120576
:1008CB009EF5FA90A462E0FBA3E475F0011206CB4F
:1008DB00A9F0FA12059EF5FB801590A462E0FBA32C
:1008EB00E475F0011206CBA9F0FA12059EF5FAD2C7
:1008FB00FE30FE7480FBD2FBD2FAD2F9D2F890A470
:10090B0062E0FBA3E475F0011206CBA9F0FA120525
:10091B009EF5FA90A462E0FBA3E475F0011206CBFE
:10092B00A9F0FA12059EF5FB90A462E0FBA3E47517
:10093B00F0011206CBA9F0FA12059EF5FC90A46209
:10094B00E0FBA3E475F0011206CBA9F0FA12059EA9
:10095B00F5FDD2FE20FEFD90A466E024FCF090A4F1
:0D096B0065E034FFF002081EE4F5F8D2AF9D
:01097800225C
:100BC1004180800042808200004180810042808417
:0C0BD10000004280860000428088000086
:101A550043B71043C940E4908080F0908082F0A3A2
:101A6500F075D88075985053877F75BA0375AAE4C9
:051A7500D29CD2AC225E
:0E1BDC00908080E0640160F87401F08F99221F
:1019660090A49EEBF0A3EAF0A3E9F090A49EE0FB1E
:10197600A3E0FAA3E04A4B6027ED6024AF051DEF14
:10198600601E90A49EE0FBA3E0FAA3E0F912059E78
:10199600FF121BDC90A49FE475F0011206B580DCF3
:0119A600221E
:0300230002173889
:0F173800C0E0C083C082C0D075D000C004C0071D
:10174700C2AF309837AF99908082E0FCA3E0248A3B
:10175700F58274803CF583EFF0908083E004F070AD
:1017670006908082E004F0C3908083E094A090808C
:1017770082E0941F4004E4F0A3F0C298309907C2B6
:0817870099908080E4F0D2AFDC
:0D178F00D007D004D0D0D082D083D0E0327B
:101B030043B7C043C920E4908081F0908084F0A360
:0E1B1300F0759BD075BB03759DC8759A0122B5
:0E1BEA00908081E0640160F87401F08F9C220D
:1019A70090A4A1EBF0A3EAF0A3E9F090A4A1E0FBD7
:1019B700A3E0FAA3E04A4B6027ED6024AF051DEFD3
:1019C700601E90A4A1E0FBA3E0FAA3E0F912059E34
:1019D700FF121BEA90A4A2E475F0011206B580DCA1
:0119E70022DD
:0300830002180060
:0F180000C0E0C083C082C0D075D000C004C00754
:10180F00C2AFE59B30E028AF9C908084E0FCA3E062
:10181F00242AF58274A03CF583EFF0908085E004D4
:10182F00F07006908084E004F0539BFE539BFEE51E
:10183F009B30E10B539BFD539BFD908081E4F04364
:04184F00C901D2AF4A
:0D185300D007D004D0D0D082D083D0E032B6
:101BAA00E4908086F0A3F0759680759780F5D975D4
:031BBA00E7E0223F
:10006E00E4908088F0A3F075A78075AB80F5AE752F
:05007E00AFE0D2BD223D
:0C1C12008FACE5A7540160FA53A7FE2236
:1019E80090A4A4EBF0A3EAF0A3E9F090A4A4E0FB90
:1019F800A3E0FAA3E04A4B6027ED6024AF051DEF92
:101A0800601E90A4A4E0FBA3E0FAA3E0F912059EEF
:101A1800FF121C1290A4A5E475F0011206B580DC33
:011A2800229B
:0300630002002A6E
:01002A0032A3
:03006B0002186018
:0F186000C0E0C083C082C0D075D000C004C007F4
:10186F00C2AFE5AB540164017038AFAD908088E032
:10187F00FCA3E02400F58274803CF583EFF09080A8
:10188F0089E004F07006908088E004F053ABFEC34B
:10189F00908089E09480908088E094004004E4F088
:0418AF00A3F0D2AF21
:0D18B300D007D004D0D0D082D083D0E03256
:06005B00121BAA02006E58
:0E1BF800438901758CBC758ACDD2A9D28C228E
:03000B00021A7A5C
:101A7A00C0E0C083C082C2AF758CBC758ACD90A409
:101A8A0097E004F0700690A496E004F0D2AFD082FA
:051A9A00D083D0E03212
:101B820075C870E4F5CDF5CC75CBBC75CACD43A84C
:041B920020D2C82273
:03002B00021C3E76
:031C3E00C2C632E9
:0600F100121BF8021B8245
:1016D3005561727432496E697420446F6E652121BD
:1016E30021313233005561727433496E6974204479
:1016F3006F6E65212121005561727434496E6974DE
:1017030020446F6E65212121005561727435496E45
:10171300697420446F6E6521212100000000005A86
:1017230001000000000000000000000000000000B5
:051733000000000000B1
:100BDD0044A4290000000041A428006100A22900BE
:100BED0000000000000000000000000000000000F8
:100BFD0000000000000000000000000000000000E8
:100C0D0000000000000000000000000000000000D7
:100C1D0000000000000000000000000000000000C7
:100C2D0000000000000000000000000000000000B7
:100C3D0000000000000000000000000000000000A7
:100C4D000000000000000000000000000000000097
:100C5D000000000000000000000000000000000087
:100C6D000000000000000000000000000000000077
:100C7D000000000000000000000000000000000067
:100C8D000000000000000000000000000000000057
:100C9D000000000000000000000000000000000047
:100CAD000000000000000000000000000000000037
:100CBD000000000000000000000000000000000027
:100CCD000000000000000000000000000000000017
:100CDD0000000000000000000000000000000060A7
:100CED00FFA329000000000000000000000000002C
:100CFD0000000000000000000000000000000000E7
:100D0D0000000000000000000000000000000000D6
:100D1D0000000000000000000000000000000000C6
:100D2D0000000000000000000000000000000000B6
:100D3D0000000000000000000000000000000000A6
:100D4D000000000000000000000000000000000096
:100D5D000000000000000000000000000000000086
:100D6D000000000000000000000000000000000076
:100D7D000000000000000000000000000000000066
:100D8D000000000000000000000000000000000056
:100D9D000000000000000000000000000000000046
:100DAD000000000000000000000000000000000036
:100DBD000000000000000000000000000000000026
:100DCD000000000000000000000000000000000016
:100DDD000000000000000000000000000000000006
:020DED00000004
:10191A00782D7CA47D017BFF7A17791E7E007F04D7
:10192A001205787B017AA4792990A465E4F0A3745E
:10193A0004F07F007E0F12097990A429E0645A709E
:10194A00187B017AA4792D90A465F0A37404F07F22
:0B195A00007E0F12072C7F01227F008F
:01196500225F
:0B1C1E007BFF7A1679D37D1502196652
:08179C0090A498EEF0A3EFF019
:1017A400789A7CA47D017BFF7A1779227E007F04DE
:1017B40012057890A498E0FCA3E0FDEC90A49CF0C2
:1017C400A3EDF07B017AA4799A90A465E4F0A37464
:1017D40004F07F847E0012072C7F057E0012000037
:1017E4007B017AA4799A90A465E4F0A304F07F8441
:0B17F4007E0012097990A49AE070DEDC
:0117FF0022C7
:101AE300EF64407003EE64146015EF64417003EE1D
:101AF3006414600BE4B50707EEB41403120DFE2261
:10164F00782D7CA47D017BFF7A1779267E007F1091
:10165F00120578E490A43DF0A3F0A3F0A3F0A3F05B
:10166F00A3F090A42AE0FDFEA3E0FBF582E582FF44
:10167F0090A441EEF0A3EFF090A229745AF0A37456
:10168F00A5F090A42CE0FC25E0240390A22BF0A35E
:10169F007483F0A3EDF0A3EBF07B017AA2792FEC2A
:1016AF0075F002A4FF90A465E5F0F0A3EFF090A40D
:1016BF0041E0FEA3E0FF12097990A441E0FEA3E010
:0416CF00FF021AE319
:10150A00E490A4A7F0A3F090A22DE0FEA3E0FDEDE5
:10151A00FF90A4A7EEF0A3EFF090A22CE0648270F3
:10152A003D7B017AA2792F90A22BE024FDFEE434C0
:10153A00FF90A465F0A3CEF090A4A7E0FEA3E0FF7D
:10154A0012072C90A22B7403F090A22D744FF0A3D3
:10155A00744BF07B017AA2792990A22B803E90A24B
:10156A002CE06483703D7B017AA2793090A22FE04F
:10157A0075F002A4FF90A465E5F0F0A3EFF090A443
:10158A00A7E0FEA3E0FF12097990A22FE025E0FF71
:10159A0090A22BE02FF07B017AA27929E02403FDA7
:0315AA00121966AD
:0115AD00221B
:101A2900E490A48DF0A3F0A3F0A3F0AE04AF05C039
:101A390003C00290A48AE0FBA3E0FAA3E0F8AC0299
:0B1A4900AD03D002D0031205787F012E
:011A5400226F
:0B142B0090A467EBF0A3EAF0A3E9F047
:10143600E490A472F0A3F0A3F0A3F0C390A471E02B
:10144600940790A470E0940050037F022290A46752
:10145600E0FBA3E0FAA3E0F912059E645A60037F5D
:1014660003229000011205B764A560037F03229052
:1014760000021205B72403FFE433FE90A472F0A322
:10148600EFF0C390A471E09F90A470E09E4072E4D8
:1014960090A474F0A3F090A472E0FEA3E0FFA3E092
:1014A600FCA3E0FDC39FEC9E503C90A467E0FBA329
:1014B600E0FAA3E0F912059EFF90A46AE0FBA3E020
:1014C600FAA3E0F98D828C83EF1205F690A468E406
:1014D60075F0011206B590A475E004F070B890A4FA
:1014E60074E004F080B090A472E0F9A3E0FF90A449
:1014F6006DE0FBA3E0FAA3E0C98FF01206E17F01DD
:03150600227F023F
:0115090022BF
:10010000E490A476F0A3F0A3F0A3F0A3F0A3F0A3EF
:10011000F0A3F0A304F0A37480F0A3748AF0E4A326
:10012000F0A3F078837CA47D017BFF7A177936FEFB
:100130007F02120578D3908083E09402908082E061
:10014000940040047F0180027F0090A47CEFF09037
:10015000A47CE070030204A790A47E7401F0A37451
:1001600080F0A3748AF090A47EE0FBA3E0FAA3E001
:10017000F912059E645A603A908082E0FEA3E02462
:100180008AF974803EFA7B01C003C002C00190A4CA
:100190007EA3E0FAA3E0F9C3D082D083D0E0E99552
:1001A00082EA9583500C90A47FE475F0011206B5A5
:1001B00080B4908082E0FEA3E0248AF974803EFA45
:1001C0007B01C003C002C00190A47EE0FBA3E0FA63
:1001D000A3E0F9D082D083D0E06B7008E96582702B
:1001E00003EA65837007908082F0A3F02290A47EDA
:1001F000A3E0FAA3E0C3948AFFEA9480FEC3908050
:1002000083E09FFF908082E09E90A47AF0A3EFF0BD
:1002100090A481E024FE6055240260030202E97E7E
:10022000007FFF7D007B017AA1792A120700E4900C
:10023000A482F090A47DF090A476F0A3F0A3F0A3A4
:10024000F090A478E0FEA3E0FFC39403EE94005086
:100250001C74832FF58274A43EF583E4F090A47996
:10026000E004F070DC90A478E004F080D490A46AFC
:100270007401F0A374A1F0A3742AF0A37401F0A395
:1002800074A4F0A37476F090A47AE0FFA3E090A4A5
:1002900070CFF0A3EFF090A47EE0FBA3E0FAA3E020
:1002A000F912142B90A482EFF0A3F06401703A903D
:1002B000A476E0FCA3E0FD90A48A7401F0A374A2EC
:1002C000F0A37429F07B017AA1792A121A29EF7020
:1002D0000302038712150A7E017F007D007B017AED
:1002E000A2792912070002038790A483E0640360C7
:1002F0000302038790A47F804490A47EE0FBA3E0E8
:10030000FAA3E0F912059E645A603A908082E0FEFA
:10031000A3E0248AF974803EFA7B01C003C002C0C6
:100320000190A47EA3E0FAA3E0F9C3D082D083D0E9
:10033000E0E99582EA9583500C90A47FE475F00182
:100340001206B580B4908082E0FEA3E0248AF9749E
:10035000803EFA7B01C003C002C00190A47EE0FB96
:10036000A3E0FAA3E0F9D082D083D0E06B7008E973
:1003700065827003EA65837008908082F0A3F08044
:100380000690A47D7401F090A482E064016009905D
:10039000A47DE0700302049F90A47EA3E0FAA3E092
:1003A000C3948AFFEA9480FEC3908083E09FFF900D
:1003B0008082E09EFE90A476E0FCA3E0FDC3EF9D6A
:1003C000FFEE9CFE90A47AF0A3EFF0D39400EE949D
:1003D000004068E490A478F0A3F090A47AE0FEA333
:1003E000E0FF90A478E0FCA3E0FDC39FEC9E5043A7
:1003F00090A47EE0FBA3E0FAA3E0F990A476E0FEEF
:10040000A3E0FFE92FF9EA3EFAE92DF9EA3CFA12F6
:10041000059EFF748A2DF58274803CF583EFF0E42D
:100420001205E490A479E004F070AF90A478E004A1
:10043000F080A790A47C7401F08052E490A478F03E
:10044000A3F090A47EA3E0FAA3E0C3948AFFEA9409
:1004500080FE90A477E02FFF90A476E03EFE90A46B
:1004600078E0FCA3E0FDC39FEC9E501C748A2DF540
:100470008274803CF583E4F090A479E004F070C2CB
:1004800090A478E004F080BAE490A47CF090A47A80
:10049000E0FFA3E0908082CFF0A3EFF002014FE4F1
:0704A00090A47CF002014F63
:0104A7002232
:0A1C340012191AEF600312164F2276
:101B6B00000000000000000000000000000000006A
:071B7B000000000000000063
:0E0DEF0042A496000041A4950142A4915AA589
:071B5400D2B3121B5BD2B2F9
:0F1B5B00E4FFEFC394507480948050030F80F325
:011B6A002258
:0400260053BEF722AC
:0400660043BE08226B
:100DFE00784B7CA47D017BFF7A1B796B7E007F068E
:100E0E001205787B017AA4794390A465E4F0A3746B
:100E1E0004F07F007E131209797B017AA479479042
:100E2E00A465E4F0A37404F07F057E131209799093
:100E3E00A444E07E007810C333CE33CED8F9FDAC97
:100E4E000690A443E07E007818C333CE33CED8F993
:100E5E00FFEE4CFCEF4DFD90A445E04CFEEDFFA3E4
:100E6E00E0FDEF4DFBAA0690A448E07E007810C38B
:100E7E0033CE33CED8F9FDAC0690A447E07E007891
:100E8E0018C333CE33CED8F9FFEE4CFCEF4DFD90A8
:100E9E00A449E04CFEEDFFA3E0FDEF4DFF90A493BF
:100EAE00EEF0A3EFF090A493E0FEA3E0FF7C007DB4
:100EBE006412062A90A450EDF090A493E0FEA3E0F5
:100ECE00FF7C007D6412062A7C007D6412062A9047
:100EDE00A44FEDF090A493E0FEA3E0FF7C277D10DD
:100EEE0012062A7C007D6412062A90A44EEDF07C38
:100EFE00007D64AF03AE0212062A90A44DEDF07C85
:100F0E00007D64AF03AE0212062A7C007D641206D9
:100F1E002A90A44CEDF0AE02AF037C277D10120692
:100F2E002A7C007D6412062A90A44BEDF0A3E0FF0C
:100F3E00D3940074809480406ED3EF940C7480949C
:100F4E00805064A3E0FF941F748094805054EF94FB
:100F5E000074809480404BA3E0D3941774809480E7
:100F6E005039C3748094804032A3E0D3943B748094
:100F7E0094805020C3748094804019A3E0D3943B96
:100F8E00748094805007C3748094805020E490A4A1
:100F9E0050F08019E490A44FF08012E490A44EF02B
:100FAE00800B90A44D800390A44C7401F07B017AC9
:100FBE00A4794B90A465E4F0A37406F07F9D7E00A7
:100FCE0012072C7B017AA4799190A465E4F0A374A6
:0C0FDE0002F07F9C7E0012072C020FEA3C
:101B9600120066D2B3D2B2121B5BC2B3121B5BC277
:041BA600B2021B5B11
:0F1AC2007F1E1200C4E4FF1200C47F101200C484
:101AD100120066C2B3D2B2121B5BD2B3121B5B02FD
:021AE1000026DD
:0D001600120066C2B3121B56C2B2021B5B81
:0B1C2900120066121B54C2B2021B5BCB
:101A9F00120026121B54E4FEEEC39432748094801D
:101AAF00500930B306121B5B0E80EDC2B2121B5BE6
:031ABF00020066BC
:10008600121B967F641200C47F301200C4E4FF1274
:1000960000C4121AD1121B967F641200C47F1C1270
:1000A60000C47F481200C4E4FF1200C47F4012005F
:0E00B600C47F101200C4121AD1121B967F6470
:0200C400AE0785
:1000C600120066E4FDEDC39408748094805019EE26
:1000D60030E704D2B38002C2B3EE25E0FE121B560F
:0B00E600C2B2121B5B0D80DD021A9FEE
:10002E00120026E4FDEDC3940874809480501B12D8
:10003E001B56EE25E0FE30B3054401FE8004EE545F
:0C004E00FEFEC2B2121B5B0D80DBAF0691
:01005A002283
:0A119B0090A438EBF090A437EDF0BB
:1011A500EF24D0FEE4340790A43AF0A3CEF0EDFF8F
:1011B50064016005EF6402701590A437E0240CF01B
:1011C50090A43BE024FFF090A43AE034FFF090A413
:1011D5003AE0FEA3E0FFC394D8EE94064034BE0681
:1011E50010BFD80D90A437E0C39409748094804053
:1011F5002190A43AE064067004A3E064D870659079
:10120500A437E06409705DA3E0C3940374809480FF
:10121500505290A437E0FB2401FFE433FE7C007DAF
:10122500031206187D0512067FAD07EB75F002A4C3
:10123500FFA3E07A002FFFEA35F0CF2DCF3EFE90D9
:10124500A43AE0FCA3E0FD2FFBEC3EFAAE04ED78FA
:1012550002CEC313CE13D8F92BFFEA3ECF2406CF17
:101265003400807C90A437E02401FFE433FE7C0049
:101275007D031206187D0512067FAC06AD07A3E0B7
:101285002401FBE433FA90A437E075F002A42BFFA8
:10129500E5F03ACF2DCF3CFE90A43AE0FCA3E0FD6B
:1012A5002FFBEC3EFAAE04ED7802CEC313CE13D875
:1012B500F92BFBEA3EFA90A43AE0FEA3E0FF7C009E
:1012C5007D6412062AC3EB9FFBEA9EFA90A43AE0DE
:1012D500FEA3E0FF7C017D9012062AEF2BFFEE3A7C
:1012E500FE7C007D0712062A90A439EDF090A43902
:0212F500E0FF18
:0112F70022D4
:1012F800782F7CA47D017BFF7A1B79717E007F08A3
:101308001205781200BF121ACC121B967F651200C4
:10131800C47C06ECD3940074809480401512002E8F
:10132800742F2CF582E434A4F583EFF01200161C18
:1013380080E112002E90A42FEFF0121C29121AD16E
:10134800E4FCECC39403748094805030742F2CF523
:1013580082E434A4F583E0FFC4540FFE90A42DF07A
:10136800EF540FFFA3F0EE75F00AA42FFF742F2C93
:10137800F582E434A4F583EFF00C80C67C04ECC35A
:101388009407748094805030742F2CF582E434A430
:10139800F583E0FFC4540FFE90A42DF0EF540FFF27
:1013A800A3F0EE75F00AA42FFF742F2CF582E43415
:1013B800A4F583EFF00C80C690A42FE0FFA3E0FD16
:1013C800A3E0FB12119B90A432EFF07B017AA47981
:1013D8002F90A465E4F0A37402F07F107E0012073A
:1013E8002C7B017AA4793190A465E4F0A37402F00F
:1013F8007F117E0012072C7B017AA4793390A465B3
:10140800E4F0A37402F07F127E0012072C7B017AAD
:10141800A4793590A465E4F0A37402F07F137E00EC
:0314280002072C8C
:1018C0001200BF7F1D1200C4121AD1121B967F6531
:1018D0001200C412002EAC0712001612002E121CA9
:1018E00029121AD1EC54026402702E1200867F1065
:1018F0001200C4E4FF1200C4E4FF1200C4E4FF12AB
:1019000000C47F011200C47F011200C47F011200D5
:09191000C47F171200B9121AC2BB
:0119190022AB
:100FEA0078537CA47D017BFF7A1B79797E007F028E
:100FFA001205787B017AA4795190A465E4F0A37470
:10100A0002F07F9C7E0012097990A451E0645A7024
:0A101A0004A3E064A5600302119A2C
:1010240090A455F0A3F0D20078577CA47D017BFFF7
:101034007A1B797BFE7F071205787B017AA4795E9F
:1010440090A465E4F0A37402F07F9D7E00120979F8
:1010540090A45EE0FCA3E0FDEC90A455F0E0FF75E5
:10106400F00A84C454F0FEEF75F00A84EE25F09083
:10107400A457F090A455EDF0E0FF75F00A84C45431
:10108400F0FEEF75F00A84EE25F090A458F07B0191
:101094007AA4795E90A465E4F0A37402F07F9E7E46
:1010A4000012097990A45EE0FCA3E0FDEC90A45545
:1010B400F0E0FF75F00A84C454F0FEEF75F00A8482
:1010C400EE25F090A459F090A455EDF0E0FF75F0F2
:1010D4000A84C454F0FEEF75F00A84EE25F090A45F
:1010E4005BF07B017AA4795E90A465E4F0A37402BA
:1010F400F07F9F7E0012097990A45EE0FCA3E0FDDE
:10110400EC90A455F0E0FF75F00A84C454F0FEEFAF
:1011140075F00A84EE25F090A45CF090A455EDF0EF
:10112400E0FF75F00A84C454F0FEEF75F00A84EE13
:1011340025F090A45DF07B017AA4795390A465E432
:10114400F0A304F07F9C7E0012072C3000481200AC
:10115400867F101200C490A45DE0FF1200C490A426
:101164005CE0FF1200C490A45BE0FF1200C490A4F2
:101174005AE0FF1200C490A459E0FF1200C490A4E6
:1011840058E0FF1200C490A457E0FF1200B9121AED
:06119400C2C20002114F6F
:01119A002232
:101B2100C390A497E094F490A496E09401400A1223
:0A1B310012F8E490A496F0A3F0224D
:1015CF00021BCEE493A3F8E493A34003F68001F249
:1015DF0008DFF48029E493A3F85407240CC8C3331D
:1015EF00C4540F4420C8834004F456800146F6DFEC
:1015FF00E4800B0102040810204080900BC1E47EB0
:10160F00019360BCA3FF543F30E509541FFEE493E0
:10161F00A360010ECF54C025E060A840B8E493A3A7
:10162F00FAE493A3F8E493A3C8C582C8CAC583CAD2
:10163F00F0A3C8C582C8CAC583CADFE9DEE780BE8A
:010DFD0000F5
:1004A800E709F608DFFA8046E709F208DFFA803E36
:1004B80088828C83E709F0A3DFFA8032E309F60823
:1004C800DFFA8078E309F208DFFA807088828C838B
:1004D800E309F0A3DFFA806489828A83E0A3F6083F
:1004E800DFFA805889828A83E0A3F208DFFA804C19
:1004F80080D280FA80C680D4806980F280338010F0
:1005080080A680EA809A80A880DA80E280CA803358
:1005180089828A83ECFAE493A3C8C582C8CCC583D0
:10052800CCF0A3C8C582C8CCC583CCDFE9DEE780A0
:100538000D89828A83E493A3F608DFF9ECFAA9F01F
:10054800EDFB2289828A83ECFAE0A3C8C582C8CC75
:10055800C583CCF0A3C8C582C8CCC583CCDFEADE8E
:10056800E880DB89828A83E493A3F208DFF980CCF0
:1005780088F0EF60010E4E60C388F0ED2402B404E9
:100588000050B9F582EB2402B4040050AF23234590
:0605980082239004F873B9
:10059E00BB010689828A83E0225002E722BBFE025B
:0905AE00E32289828A83E493228E
:1005B700BB010CE58229F582E5833AF583E02250F9
:1005C70006E92582F8E622BBFE06E92582F8E22243
:0D05D700E58229F582E5833AF583E493225D
:1005E400BB010689828A83F0225002F722BBFE01F6
:0205F400F322F0
:1005F600F8BB010DE58229F582E5833AF583E8F03B
:10060600225006E92582C8F622BBFE05E92582C8E6
:02061600F222CE
:10061800EF8DF0A4A8F0CF8CF0A428CE8DF0A42EF6
:02062800FE22B0
:10062A00BC000BBE0029EF8DF084FFADF022E4CCB4
:10063A00F875F008EF2FFFEE33FEEC33FCEE9DEC7D
:10064A00984005FCEE9DFE0FD5F0E9E4CEFD22EDC3
:10065A00F8F5F0EE8420D21CFEADF075F008EF2F0D
:10066A00FFED33FD4007985006D5F0F222C398FDFE
:05067A000FD5F0EA229B
:10067F00C2D5EC30E709B2D5E4C39DFDE49CFCEE96
:10068F0030E715B2D5E4C39FFFE49EFE12062AC3DE
:10069F00E49DFDE49CFC800312062A30D507C3E4D9
:0606AF009FFFE49EFE2205
:1006B500C5F0F8A3E028F0C5F0F8E58215827002D0
:0606C5001583E038F0226D
:1006CB00A3F8E0C5F025F0F0E582158270021583E2
:0606DB00E0C838F0E8223F
:1006E100BB010A89828A83F0E5F0A3F0225006F764
:0F06F10009A7F01922BBFE06F3E5F009F3192261
:10070000EF4E6012EF60010EEDBB010B89828A8310
:10071000F0A3DFFCDEFA2289F05007F709DFFCA91D
:0C072000F022BBFEFCF309DFFCA9F02274
:00000001FF
