:10000000022972020006C2AFD2AF32022D77C2AF10
:10001000D2AF3202000E120066C2B3123236C2B242
:1000200002323B022CAF53BEF7223202332B1200B6
:1000300026E4FDEDC3940874809480501B12323680
:10004000EE25E0FE30B3054401FE8004EE54FEFED2
:10005000C2B212323B0D80DBAF06221232DA02321C
:0A00600061222202002A43BE08229A
:10006B00022BC3E4908088F0A3F075A78075AB805A
:10007B00F5AE75AFE0D2BD22022DDAAD07AC06901E
:10008B00A474E024F8603F2407705AED64107003E9
:10009B00EC643070201200F1EF6401700790A4CA79
:1000AB007403F0221200F1EF90A4CA70047404F0F0
:1000BB00227401F022ED64207003EC643070269002
:1000CB00A4CA7406F022ED64407003EC641460154E
:1000DB00ED64417003EC6414600BE4B50507ECB4FC
:0C00EB0014031212912290A230E0FF22B8
:1000F800FFFF4457494E54350204C1E86480F8E9CB
:1001080033E83360110460F0ED33EC337009E8FC38
:10011800E9FDEAFEEBFF220460DED3EB9FEA9EE9ED
:100128009DE8C2E78CF0C2F795F0400CE8CCF8E9FE
:10013800CDF9EACEFAEBCFFB12048C85D0F0580447
:10014800700320D5B3E80470075002B2D50204CB7F
:1001580092D5EC0460F7E4CCC0E0C398F8603B9417
:10016800186008400DD0E0FB0204A3E4FBFAC9FCC8
:100178008028E830E406E4C9FBE4CAFCE830E3057B
:10018800E4C9CACBFCE854076010F8C3E913F9EADC
:1001980013FAEB13FBEC13FCD8F130F52FC3E49CF6
:1001A800FCEF9BFFEE9AFEED99FDD0E0FBEF4E4D84
:1001B8004C701222DB030204C8EC2CFCEF33FFEE78
:1001C80033FEED33FDED30E7EB0204A3EF2BFFEE3A
:1001D8003AFEED39FDD0E0FB50130BBB00030204DF
:1001E800CBED13FDEE13FEEF13FFEC13FC0204A39B
:1001F800EC4D6011E8497017ED33EC3304600DE401
:10020800FCFFFEFD22E933E8330470F80204C11252
:10021800048C58046009E4CC248150062850090253
:1002280004CB2840030204C8C0E0EB4A7044B980FC
:1002380006D0E0FB0204B7EF4E701CBD8008EBFF50
:10024800EAFEE9FD80EBE98DF0A4FEE5F00202E1AB
:10025800E9CDF9EAFEEBFFEF89F0A4FCE5F0CE89E1
:10026800F0A42EFFE435F0CD89F0A42DFEE435F09E
:100278008067EF4E7005BD80D780C3EF8BF0A4ACCC
:10028800F0EE8BF0A42CFCE435F0F8EF8AF0A42C07
:10029800E5F038FCE433CB8DF0A42CFCE5F03BF81A
:1002A800EE8AF0A42CFCE5F038F8E433CF89F0A40A
:1002B8002CFCE5F038CF3400CE89F0A42FFFE5F010
:1002C8003EFEE433C98DF0A42EFEE5F039CD8AF068
:1002D800A42FFFE5F03EFEE43DFD33D0E0FB5007E0
:1002E8000BBB000F0204CBEC2CFCEF33FFEE33FE0C
:1002F800ED33FD0204A30204CBEC5D046005E8596C
:100308000470030204C112048C580460F6EC4860BF
:10031800F2EC7004FDFEFF22C860DB2481C850099E
:10032800C398600250060204C89850CAF582E929A9
:100338004B4A7005AB820204B775F0007C1A7880CE
:10034800C3EF9BEE9AED99400DC3EF9BFFEE9AFE2B
:10035800ED99FDE842F0DC23ACF0D0E0FFD0E0FE00
:10036800D0E0FDAB8220E7101BEB60BAEC2CFCEF71
:1003780033FFEE33FEED33FD0204A3E803F830E764
:1003880005C0F075F000EF2FFFEE33FEED33FD40B2
:10039800B830E7C280AA74F8CC6480CCC86480C83E
:1003A800F58204604FC3EB9FF5F0EA9E42F0E99DA9
:1003B80042F0E89C45F0603C501DE5825FFFE58215
:1003C800D313CB5BCBF42B5582FB50280ABA0024FD
:1003D80009B9002008801DE5825BFBE582D313CFB5
:1003E8005FCFF4C3132F5582FF50090EBE00050DD1
:1003F800BD00010CC3EB9FF5F0EA9E42F0E99D4277
:10040800F0E89C45F06007CC4820E701B3EC227582
:10041800F020800E75F010800575F0087D007E00D4
:100428007F003392D530D503120874EC334010EFB7
:1004380033FFEE33FEED33FDEC33FCD5F0ED22E572
:10044800F0247EA2D513CC92E7CDCEFF22EDD2E7E1
:10045800CD33EC3392D524814006E4FFFEFDFC2227
:10046800FCE4CFCECDCC24E0501174FF80EDC3CC9A
:1004780013CCCD13CDCE13CECF13CF0470F030D51F
:10048800DE020874E9D2E7C933E833F892D5EDD231
:10049800E7CD33EC33FC5002B2D522EC30E7100F35
:1004A800BF000C0EBE00080DBD00040BEB6014A2CB
:1004B800D5EB13FCED92E7FD2274FFFCFDFEFF2255
:1004C800E480F8A2D574FF13FC7D80E480EFED335F
:1004D800EC33601004700FED547F7005740292E0E5
:1004E800227404220422E422ED33EC33600A0470FF
:1004F80003BD8004ECB2E7FC22C0E0EFFBEEFAEDAE
:10050800F9ECF81201F8D0E0F5F0EFFBEEFAEDF9AE
:10051800ECF81208A6A3A3A3A3E8C0E0E9C0E0EAA8
:10052800C0E0EBC0E0C0F01201F81208C2A3A3A318
:10053800A3120107D0F0D0E0FBD0E0FAD0E0F9D068
:10054800E0F8D5F0D422E709F608DFFA8046E70993
:10055800F208DFFA803E88828C83E709F0A3DFFA8D
:100568008032E309F608DFFA8078E309F208DFFA57
:10057800807088828C83E309F0A3DFFA8064898223
:100588008A83E0A3F608DFFA805889828A83E0A389
:10059800F208DFFA804C80D280FA80C680D4806965
:1005A80080F28033801080A680EA809A80A880DA62
:1005B80080E280CA803389828A83ECFAE493A3C8F4
:1005C800C582C8CCC583CCF0A3C8C582C8CCC583B6
:1005D800CCDFE9DEE7800D89828A83E493A3F608FD
:1005E800DFF9ECFAA9F0EDFB2289828A83ECFAE0C4
:1005F800A3C8C582C8CCC583CCF0A3C8C582C8CC63
:10060800C583CCDFEADEE880DB89828A83E493A3B2
:10061800F208DFF980CC88F0EF60010E4E60C388E5
:10062800F0ED2402B4040050B9F582EB2402B404BE
:100638000050AF232345822390059E73BB01068992
:10064800828A83E0225002E722BBFE02E3228982EB
:100658008A83E49322BB010CE58229F582E5833A7B
:10066800F583E0225006E92582F8E622BBFE06E97A
:100678002582F8E222E58229F582E5833AF583E4CA
:100688009322BB010689828A83F0225002F722BB9B
:10069800FE01F322F8BB010DE58229F582E5833AD4
:1006A800F583E8F0225006E92582C8F622BBFE054C
:1006B800E92582C8F222EF8DF0A4A8F0CF8CF0A42F
:1006C80028CE8DF0A42EFE22BC000BBE0029EF8D93
:1006D800F084FFADF022E4CCF875F008EF2FFFEEC0
:1006E80033FEEC33FCEE9DEC984005FCEE9DFE0FCE
:1006F800D5F0E9E4CEFD22EDF8F5F0EE8420D21C29
:10070800FEADF075F008EF2FFFED33FD4007985070
:1007180006D5F0F222C398FD0FD5F0EA22C2D5EC37
:1007280030E709B2D5E4C39DFDE49CFCEE30E71543
:10073800B2D5E4C39FFFE49EFE1206D0C3E49DFD3C
:10074800E49CFC80031206D030D507C3E49FFFE485
:100758009EFE22C5F0F8A3E028F0C5F0F8E5821562
:100768008270021583E038F022A3F8E0C5F025F086
:10077800F0E582158270021583E0C838F0E822BBE4
:10078800010A89828A83F0E5F0A3F0225006F7096E
:10079800A7F01922BBFE06F3E5F009F3192275F05C
:1007A80008758200EF2FFFEE33FECD33CDCC33CC6E
:1007B800C58233C5829BED9AEC99E58298400CF589
:1007C80082EE9BFEED9AFDEC99FC0FD5F0D6E4CEB7
:1007D800FBE4CDFAE4CCF9A88222B800C1B90059EB
:1007E800BA002DEC8BF084CFCECDFCE5F0CBF978B8
:1007F80018EF2FFFEE33FEED33FDEC33FCEB33FB4C
:1008080010D703994004EB99FB0FD8E5E4F9FA22D5
:100818007818EF2FFFEE33FEED33FDEC33FCC933D0
:10082800C910D7059BE99A4007EC9BFCE99AF90F98
:10083800D8E0E4C9FAE4CCFB2275F010EF2FFFEE04
:1008480033FEED33FDCC33CCC833C810D7079BEC4F
:100858009AE899400AED9BFDEC9AFCE899F80FD5C7
:10086800F0DAE4CDFBE4CCFAE4C8F922C3E49FFF54
:10087800E49EFEE49DFDE49CFC22EB9FF5F0EA9EDD
:1008880042F0E99D42F0E89C45F022E8600FEFC392
:1008980033FFEE33FEED33FDEC33FCD8F122E49365
:1008A800FC740193FD740293FE740393FF22E0F835
:1008B800A3E0F9A3E0FAA3E0FB22E493F874019320
:1008C800F9740293FA740393FB22ECF0A3EDF0A3FE
:1008D800EEF0A3EFF022A8828583F0D083D08212B5
:1008E80008F51208F51208F51208F5E473E493A365
:1008F800C583C5F0C583C8C582C8F0A3C583C5F044
:10090800C583C8C582C822EF4E6012EF60010EEDA4
:10091800BB010B89828A83F0A3DFFCDEFA2289F00F
:100928005007F709DFFCA9F022BBFEFCF309DFFC46
:10093800A9F022E490A42DF0A3F0A3F0A3F0A3F073
:10094800A3F0A3F0A3F0A304F0A37480F0A3748A27
:10095800F0E4A3F0A3F0783A7CA47D017BFF7A331E
:100968007995FE7F0212061ED3908083E094029050
:100978008082E094007F0040027F0190A433EFF072
:1009880090A433E07003020CE090A4357401F0A346
:100998007480F0A3748AF090A435E0FBA3E0FAA376
:1009A800E0F9120644645A603A908082E0FEA3E0BF
:1009B800248AF974803EFA7B01C003C002C001900A
:1009C800A435A3E0FAA3E0F9C3D082D083D0E0E94C
:1009D8009582EA9583500C90A436E475F0011207CD
:1009E8005B80B4908082E0FEA3E0248AF974803EA4
:1009F800FA7B01C003C002C00190A435E0FBA3E06C
:100A0800FAA3E0F9D082D083D0E06B7008E9658260
:100A18007003EA65837007908082F0A3F02290A4A7
:100A280035A3E0FAA3E0C3948AFFEA9480FEC3905A
:100A38008083E09FFF908082E09E90A431F0A3EF36
:100A4800F090A438E024FE605524026003020B22D3
:100A58007E007FFF7D007B017AA1792A12090FE4CD
:100A680090A439F090A434F090A42DF0A3F0A3F052
:100A7800A3F090A42FE0FEA3E0FFC39403EE94003C
:100A8800501C743A2FF58274A43EF583E4F090A4C8
:100A980030E004F070DC90A42FE004F080D490A43F
:100AA8003F7401F0A374A1F0A3742AF0A37401F0B9
:100AB800A374A4F0A3742DF090A431E0FFA3E090F8
:100AC800A445CFF0A3EFF090A435E0FBA3E0FAA390
:100AD800E0F912271090A439EFF0A3F06401703AFE
:100AE80090A42DE0FCA3E0FD90A4417401F0A37450
:100AF800A2F0A37429F07B017AA1792A1230FAEFC7
:100B08007003020BC01228CE7E017F007D007B019E
:100B18007AA2792912090F020BC090A43AE0640363
:100B28006003020BC090A436804490A435E0FBA378
:100B3800E0FAA3E0F9120644645A603A908082E031
:100B4800FEA3E0248AF974803EFA7B01C003C00248
:100B5800C00190A435A3E0FAA3E0F9C3D082D08302
:100B6800D0E0E99582EA9583500C90A436E475F0BC
:100B78000112075B80B4908082E0FEA3E0248AF92A
:100B880074803EFA7B01C003C002C00190A435E026
:100B9800FBA3E0FAA3E0F9D082D083D0E06B700821
:100BA800E965827003EA65837008908082F0A3F09B
:100BB800800690A4347401F090A439E064016009BF
:100BC80090A434E07003020CD890A435A3E0FAA3F3
:100BD800E0C3948AFFEA9480FEC3908083E09FFF7D
:100BE800908082E09EFE90A42DE0FCA3E0FDC3EF80
:100BF8009DFFEE9CFE90A431F0A3EFF0D39400EE9D
:100C080094004068E490A42FF0A3F090A431E0FE93
:100C1800A3E0FF90A42FE0FCA3E0FDC39FEC9E504F
:100C28004390A435E0FBA3E0FAA3E0F990A42DE0FB
:100C3800FEA3E0FFE92FF9EA3EFAE92DF9EA3CFACA
:100C4800120644FF748A2DF58274803CF583EFF018
:100C5800E412068A90A430E004F070AF90A42FE06C
:100C680004F080A790A4337401F08052E490A42F7C
:100C7800F0A3F090A435A3E0FAA3E0C3948AFFEAB6
:100C88009480FE90A42EE02FFF90A42DE03EFE90CD
:100C9800A42FE0FCA3E0FDC39FEC9E501C748A2D9A
:100CA800F58274803CF583E4F090A430E004F070A1
:100CB800C290A42FE004F080BAE490A433F090A48A
:100CC80031E0FFA3E0908082CFF0A3EFF002098823
:100CD800E490A433F00209882290A4B7E0FEA3E0D0
:100CE800FF90A474E0FD1215357B017AA4798E90EB
:100CF800A469E4F0A37404F07F007E261217919093
:100D0800A4B7E0FCA3E0FDE412041CE4FBFA797A42
:100D1800784412030190A49C1208D290A474E06451
:100D2800016003020E1490A4B7E0FCA3E0FDE412F6
:100D3800041CE4FBFA797A784412030190A479E060
:100D4800F8A3E0F9A3E0FAA3E0FB12010790A4815D
:100D58001208D2E4FFFEFD7C4090A475E0F8A3E001
:100D6800F9A3E0FAA3E0FB1201F890A481E0F8A34C
:100D7800E0F9A3E0FAA3E0FB1201F890A4921208AC
:100D8800D290A475E0FCA3E0FDA3E0FEA3E0FF90F1
:100D9800A481E0F8A3E0F9A3E0FAA3E0FB1201F8CC
:100DA800C004C005C006C00790A43F1208DE40007A
:100DB8000000D007D006D005D004121FE990A48AFD
:100DC800E0F8A3E0F9A3E0FAA3E0FB1201F890A48D
:100DD800981208D290A481E0FCA3E0FDA3E0FEA352
:100DE800E0FF90A498E0F8A3E0F9A3E0FAA3E0FB01
:100DF8001201F8E4FBFA7940784012030190A4A0AC
:100E08001208D27B017AA479A0020F9590A474E00D
:100E180064026003020ED690A4B7E0FCA3E0FDE4F0
:100E280012041CE4FBFA797A784412030190A4793D
:100E3800E0F8A3E0F9A3E0FAA3E0FB12010790A40D
:100E4800811208D2E4FFFEFD7C4090A46BE0F8A379
:100E5800E0F9A3E0FAA3E0FB1201F890A481E0F81E
:100E6800A3E0F9A3E0FAA3E0FB1201F890A4921220
:100E780008D290A46BE0FCA3E0FDA3E0FEA3E0FF92
:100E880090A481E0F8A3E0F9A3E0FAA3E0FB120143
:100E9800F8C004C005C006C00790A43F1208DE4091
:100EA800000000D007D006D005D004121FE990A496
:100EB8008AE0F8A3E0F9A3E0FAA3E0FB1201F890B6
:100EC800A4981208D27B017AA47998020F9590A46D
:100ED80074E064036003020FA590A4B7E0FCA3E0EC
:100EE800FDE412041CE4FBFA797A784412030190B9
:100EF800A479E0F8A3E0F9A3E0FAA3E0FB12010764
:100F080090A4811208D2E4FFFEFD7C4090A475E015
:100F1800F8A3E0F9A3E0FAA3E0FB1201F890A4819A
:100F2800E0F8A3E0F9A3E0FAA3E0FB1201F890A42B
:100F3800921208D290A475E0FCA3E0FDA3E0FEA302
:100F4800E0FF90A481E0F8A3E0F9A3E0FAA3E0FBB6
:100F58001201F8C004C005C006C00790A43F1208DB
:100F6800DE40000000D007D006D005D004121FE9EB
:100F780090A48AE0F8A3E0F9A3E0FAA3E0FB120149
:100F8800F890A4981208D27B017AA4799890A46961
:100F9800E4F0A37404F07F507E281217917B017A45
:100FA800A4799C90A469E4F0A37404F07F007E25E2
:100FB8001217917B017AA4799290A469E4F0A37442
:100FC80004F07F407E280217914180800042808291
:100FD8000000418081004280840000428086000039
:100FE800428088000044A4290000000041A4280091
:100FF8006100A229000000000000000000000000BD
:1010080000000000000000000000000000000000D8
:1010180000000000000000000000000000000000C8
:1010280000000000000000000000000000000000B8
:1010380000000000000000000000000000000000A8
:101048000000000000000000000000000000000098
:101058000000000000000000000000000000000088
:101068000000000000000000000000000000000078
:101078000000000000000000000000000000000068
:101088000000000000000000000000000000000058
:101098000000000000000000000000000000000048
:1010A8000000000000000000000000000000000038
:1010B8000000000000000000000000000000000028
:1010C8000000000000000000000000000000000018
:1010D8000000000000000000000000000000000008
:1010E80000000000000000000000000000000000F8
:1010F8000000000060FFA3290000000000000000BD
:1011080000000000000000000000000000000000D7
:1011180000000000000000000000000000000000C7
:1011280000000000000000000000000000000000B7
:1011380000000000000000000000000000000000A7
:101148000000000000000000000000000000000097
:101158000000000000000000000000000000000087
:101168000000000000000000000000000000000077
:101178000000000000000000000000000000000067
:101188000000000000000000000000000000000057
:101198000000000000000000000000000000000047
:1011A8000000000000000000000000000000000037
:1011B8000000000000000000000000000000000027
:1011C8000000000000000000000000000000000017
:1011D8000000000000000000000000000000000007
:1011E80000000000000000000000000000000000F7
:1011F8000000000000000042A4D2000041A4D10178
:1012080042A4CB5AA542A4A4000042A473000044FF
:10121800A49C0000000044A4753EE9518344A48ABC
:1012280040490E5644A46B3D32D5D044A4793ECDF6
:1012380037BE44A4810000000044A49800000000C8
:1012480044A4920000000044A4A00000000044A4AC
:101258008E0000000042A496000044A4850000000F
:101268000044A46F0000000044A47D000000004476
:10127800A4BD0000000048A4C10000000100020055
:101288000344A4B90000000000784B7CA47D017BD6
:10129800FF7A3379977E007F0612061E7B017AA4B7
:1012A800794390A469E4F0A37404F07F007E1312DC
:1012B80019DE7B017AA4794790A469E4F0A3740449
:1012C800F07F057E131219DE90A444E0FFE4FCFDD4
:1012D800FE7810120893C004C005C006C00790A489
:1012E80043E0FFE4FCFDFE7818120893D003D00217
:1012F800D001D000EF4BFFEE4AFEED49FDEC48FC73
:10130800C004C005C006C00790A445E0FFE4FCFD8A
:10131800FE7808120893D003D002D001D000EF4B1A
:10132800FBEE4AFAED49F9EC48F8A3E0FFEB4FFF72
:10133800EAFEE9FDE8FC90A4511208D290A448E026
:10134800FFE4FCFDFE7810120893C004C005C00637
:10135800C00790A447E0FFE4FCFDFE78181208934C
:10136800D003D002D001D000EF4BFFEE4AFEED498A
:10137800FDEC48FCC004C005C006C00790A449E0C5
:10138800FFE4FCFDFE7808120893D003D002D001D8
:10139800D000EF4BFBEE4AFAED49F9EC48F8A3E030
:1013A800FFEB4FFFEAFEE9FDE8FC90A4CD1208D25E
:1013B800E47B64FAF9F890A4CDE0FCA3E0FDA3E097
:1013C800FEA3E0FF1207E290A450EBF0E47B64FA7E
:1013D800F9F890A4CDE0FCA3E0FDA3E0FEA3E0FFB4
:1013E8001207E2E47B64FAF9F81207E290A44FEBE3
:1013F800F0E47B107A27F9F890A4CDE0FCA3E0FD97
:10140800A3E0FEA3E0FF1207E2E47B64FAF9F81216
:1014180007E290A44EEBF0E47B64FAF9F890A4514B
:10142800E0FCA3E0FDA3E0FEA3E0FF1207E290A426
:101438004DEBF0E47B64FAF9F890A451E0FCA3E0EA
:10144800FDA3E0FEA3E0FF1207E2E47B64FAF9F8EB
:101458001207E290A44CEBF0E47B107A27F9F8909D
:10146800A451E0FCA3E0FDA3E0FEA3E0FF1207E225
:10147800E47B64FAF9F81207E290A44BEBF0A3E0DE
:10148800FFD3940074809480406ED3EF940C7480E2
:1014980094805064A3E0FF941F748094805054EFAC
:1014A800940074809480404BA3E0D3941774809484
:1014B800805039C3748094804032A3E0D3943B7445
:1014C8008094805020C3748094804019A3E0D39402
:1014D8003B748094805007C3748094805020E490BB
:1014E800A450F08019E490A44FF08012E490A44E28
:1014F800F0800B90A44D800390A44C7401F07B0104
:101508007AA4794B90A469E4F0A37406F07F9D7ED9
:10151800001217917B017AA479CB90A469E4F0A317
:101528007402F07F9C7E00121791021E3990A42D40
:10153800EDF0AB07AA06E4A3F0A31208DE00000052
:101548000090A4371208DE00000000AE02AF037C52
:10155800007D0A1206D0AC06AD07E412041C90A464
:10156800331208D2E4FFFE7D207C4190A433E0F8DA
:10157800A3E0F9A3E0FAA3E0FB12039E6002502364
:10158800E4FFFE7DA07C4090A433E0F8A3E0F9A33B
:10159800E0FAA3E0FB12039E400990A42E7401F028
:1015A800021672E4FFFE7DA07C4190A433E0F8A30C
:1015B800E0F9A3E0FAA3E0FB12039E60025025E4E1
:1015C800FFFE7D207C4190A433E0F8A3E0F9A3E07E
:1015D800FAA3E0FB12039E600B400990A42E74024C
:1015E800F0021672E4FFFE7DC87C4290A433E0F856
:1015F800A3E0F9A3E0FAA3E0FB12039E60025024E3
:10160800E4FFFE7DA07C4190A433E0F8A3E0F9A3B9
:10161800E0FAA3E0FB12039E600A400890A42E742F
:1016280003F08046E4FFFE7D967C4390A433E0F807
:10163800A3E0F9A3E0FAA3E0FB12039E60025024A2
:10164800E4FFFE7DC87C4290A433E0F8A3E0F9A350
:10165800E0FAA3E0FB12039E600A400890A42E74EF
:1016680004F0800690A42E7405F090A42EE024FEC9
:10167800603914605F1470030217072403600302C3
:10168800175D90A43F1208DEBFCCCCCD90A433E008
:10169800FCA3E0FDA3E0FEA3E0FF121FE990A4373E
:1016A8001208D27FDC7EAF7D0E805090A43F1208D6
:1016B800DEBFECCCCD90A433E0FCA3E0FDA3E0FEBC
:1016C800A3E0FF121FE990A4371208D27FB87E2842
:1016D8007D80802790A43F1208DEBFE7AE1490A457
:1016E80033E0FCA3E0FDA3E0FEA3E0FF121FE990B6
:1016F800A4371208D27F407E167D617C47802990EE
:10170800A43F1208DEC000000090A433E0FCA3E070
:10171800FDA3E0FEA3E0FF121FE990A4371208D250
:101728007F047EF67D077C4890A437E0F8A3E0F9B3
:10173800A3E0FAA3E0FB1201F890A42F1208D290BC
:10174800A42FE0FCA3E0FDA3E0FEA3E0FF90A48E9D
:101758001208D2800690A42E740AF090A42DE0FFFF
:1017680064016005EF6403701F90A48EE0FCA3E0A1
:10177800FDA3E0FEA3E0FF7B9A7A997919783F12DE
:1017880001F890A48E1208D22290A466EBF0A3EA86
:10179800F0A3E9F0AD07AC0690A466E0FBA3E0FA7D
:1017A800A3E04A4B70030219DDA3E0FEA3E0FF4E5D
:1017B80070030219DDEEC313FEEF132DFFEE3CFE9E
:1017C800D3EF94FEEE94FF40030219DDC2AFED544F
:1017D80001FBECC313FCED13FDAE047810CEC3136C
:1017E800CE13D8F9F5F1ECF5F2AF058FF3E4F5F87F
:1017F80075F401D2FF30FCFDC2FDEB6401707C90F2
:10180800A469E0FEA3E0FF64014E700AC2FBC2FABD
:10181800D2F9C2F88008C2FBC2FAD2F9D2F8EF6452
:10182800014E90A466701AE0FBA3E475F00112075C
:1018380071A9F0FA120644F5FC90A46AE024FF802E
:101848002DE0FBA3E475F001120771A9F0FA120666
:1018580044F5FC90A466E0FBA3E475F0011207715F
:10186800A9F0FA120644F5FD90A46AE024FEF0906F
:10187800A469E034FFF0D2FE20FEFD90A469E0FEEA
:10188800A3E0FF4E70030219D8C3EF9404EE94004E
:101898004003021966EE7022EF14601614600D14EE
:1018A8007018D2FBD2FAD2F9C2F8800ED2FBD2FA63
:1018B8008004D2FBC2FAC2F9C2F890A469E0FEA380
:1018C800E0FFEE600302195FEF14607614604714BE
:1018D800600302195F90A466E0FBA3E475F00112AF
:1018E8000771A9F0FA120644F5FA90A466E0FBA382
:1018F800E475F001120771A9F0FA120644F5FB909D
:10190800A466E0FBA3E475F001120771A9F0FA12CE
:101918000644F5FC804190A466E0FBA3E475F00161
:10192800120771A9F0FA120644F5FA90A466E0FBD2
:10193800A3E475F001120771A9F0FA120644F5FB49
:10194800801590A466E0FBA3E475F001120771A965
:10195800F0FA120644F5FAD2FE30FE7480FBD2FB90
:10196800D2FAD2F9D2F890A466E0FBA3E475F001AC
:10197800120771A9F0FA120644F5FA90A466E0FB82
:10198800A3E475F001120771A9F0FA120644F5FBF9
:1019980090A466E0FBA3E475F001120771A9F0FAC0
:1019A800120644F5FC90A466E0FBA3E475F001126E
:1019B8000771A9F0FA120644F5FDD2FE20FEFD904B
:1019C800A46AE024FCF090A469E034FFF0021883D4
:1019D800E4F5F8D2AF2290A466EBF0A3EAF0A3E90D
:1019E800F0AD07AC0690A466E0FBA3E0FAA3E04ADA
:1019F8004B7003021C25A3E0FEA3E0FF4E70030218
:101A08001C25EEC313FEEF132DFFEE3CFED3EF941F
:101A1800FEEE94FF4003021C25C2AFED5401FBEC1F
:101A2800C313FCED13FDAE047810CEC313CE13D848
:101A3800F9F5F1ECF5F2AF058FF3E4F5F875F4017B
:101A4800D2FF30FCFDD2FDEB6401707D90A469E00B
:101A58007004A3E06401700AC2FBC2FAD2F9C2F8AA
:101A68008008C2FBC2FAD2F9D2F8D2FE20FEFD905D
:101A7800A469E07004A3E0640190A466701BE0FB15
:101A8800A3E475F001120771A9F0FAE5FC12068AC1
:101A980090A46AE024FF021C15E0FBA3E475F001A2
:101AA800120771A9F0FAE5FC12068A90A466E0FB19
:101AB800A3E475F001120771A9F0FAE5FD12068A90
:101AC80090A46AE024FE021C1590A469E0FEA3E03D
:101AD800FF4E7003021C20C3EF9404EE94004003F1
:101AE800021BAEEE7022EF14601614600D1470180D
:101AF800D2FBD2FAD2F9C2F8800ED2FBD2FA800415
:101B0800D2FBC2FAC2F9C2F8D2FE20FEFD90A46947
:101B1800E0FEA3E0FFEE6003021C20EF14607014E7
:101B28006044146003021C2090A466E0FBA3E475E3
:101B3800F001120771A9F0FAE5FA12068A90A46674
:101B4800E0FBA3E475F001120771A9F0FAE5FB12B6
:101B5800068A90A466E0FBA3E475F001120771A958
:101B6800F0FAE5FC803B90A466E0FBA3E475F00185
:101B7800120771A9F0FAE5FA12068A90A466E0FB4A
:101B8800A3E475F001120771A9F0FAE5FB80129041
:101B9800A466E0FBA3E475F001120771A9F0FAE569
:101BA800FA12068A8072D2FBD2FAD2F9D2F8D2FEA1
:101BB80020FEFD90A466E0FBA3E475F00112077116
:101BC800A9F0FAE5FA12068A90A466E0FBA3E47588
:101BD800F001120771A9F0FAE5FB12068A90A466D3
:101BE800E0FBA3E475F001120771A9F0FAE5FC1215
:101BF800068A90A466E0FBA3E475F001120771A9B8
:101C0800F0FAE5FD12068A90A46AE024FCF090A49C
:101C180069E034FFF0021AD1E4F5F8D2AF22E47B90
:101C280064FAF9F890A46FE0FCA3E0FDA3E0FEA33A
:101C3800E0FF1207E2AC00AD01AE02AF03E4FBFA2D
:101C4800F9F8C31208826003021DEEFFFEFDFC9046
:101C5800A46FE0F8A3E0F9A3E0FAA3E0FBC312083D
:101C6800827003021DEE90A485E0F8A3E0F9A3E0DA
:101C7800FAA3E0FBC000C001C002C0037B007A40A9
:101C8800791C784690A48EE0FCA3E0FDA3E0FEA3B7
:101C9800E0FF120301D003D002D001D000120107E7
:101CA80090A4851208D2E47FE87E03FDFC90A46F1F
:101CB800E0F8A3E0F9A3E0FAA3E0FBC3120882402E
:101CC8002990A46F1208DE0000000090A47DE0FCBB
:101CD800A3E0FDA3E0FEA3E02401FFE43EFEE43D13
:101CE800FDE43CFC90A47D1208D290A4B7E0FEA3CA
:101CF800E0FF1227EF90A4BDE0FCA3E0FDA3E0FE07
:101D0800A3E0FF120455AB07AA067C007D3C12062F
:101D1800D090A42FEEF0A3EFF07C007D3CAF03AE93
:101D2800021206D090A42DECF0A3EDF07B017AA46A
:101D3800792F90A469E4F0A37402F07F007E281242
:101D480017917B017AA4792D90A469E4F0A3740219
:101D5800F07F057E2812179190A47DE0FCA3E0FD9A
:101D6800A3E0FEA3E0FFE412041790A4BDE0F8A3EB
:101D7800E0F9A3E0FAA3E0FB120107120455AB0750
:101D8800AA067C007D3C1206D090A42FEEF0A3EFAB
:101D9800F07C007D3CAF03AE021206D090A42DEC7F
:101DA800F0A3EDF07B017AA4792D90A469E4F0A367
:101DB8007402F07F257E281217917B017AA4792F6F
:101DC80090A469E4F0A37402F07F207E2812179192
:101DD8007B017AA4798590A469E4F0A37404F07F68
:101DE800007E271217917F007E507DC37C4790A408
:101DF80085E0F8A3E0F9A3E0FAA3E0FB1201F8906C
:101E0800A4B9E0F8A3E0F9A3E0FAA3E0FB12030108
:101E180012045590A496EEF0A3EFF07B017AA47912
:101E28009690A469E4F0A37402F07F307E2802172C
:101E38009178577CA47D017BFF7A3379A57E007F5A
:101E48000212061E7B017AA4795590A469E4F0A3D6
:101E58007402F07F9C7E001219DE90A455E0645A4B
:101E68007004A3E064A56003021FE890A459F0A3DE
:101E7800F0D200785B7CA47D017BFF7A3379A7FEE2
:101E88007F0712061E7B017AA4796290A469E4F0A8
:101E9800A37402F07F9D7E001219DE90A462E0FC1C
:101EA800A3E0FDEC90A459F0E0FF75F00A84C45457
:101EB800F0FEEF75F00A84EE25F090A45BF090A494
:101EC80059EDF0E0FF75F00A84C454F0FEEF75F0A8
:101ED8000A84EE25F090A45CF07B017AA4796290E4
:101EE800A469E4F0A37402F07F9E7E001219DE90CC
:101EF800A462E0FCA3E0FDEC90A459F0E0FF75F0CB
:101F08000A84C454F0FEEF75F00A84EE25F090A41C
:101F18005DF090A459EDF0E0FF75F00A84C454F028
:101F2800FEEF75F00A84EE25F090A45FF07B017A4D
:101F3800A4796290A469E4F0A37402F07F9F7E0004
:101F48001219DE90A462E0FCA3E0FDEC90A459F025
:101F5800E0FF75F00A84C454F0FEEF75F00A84EED1
:101F680025F090A460F090A459EDF0E0FF75F00A18
:101F780084C454F0FEEF75F00A84EE25F090A46155
:101F8800F07B017AA4795790A469E4F0A304F07F68
:101F98009C7E00121791300047122C447F10122C9F
:101FA8008290A461E0FF122C8290A460E0FF122CC2
:101FB8008290A45FE0FF122C8290A45EE0FF122CB6
:101FC8008290A45DE0FF122C8290A45CE0FF122CAA
:101FD8008290A45BE0FF122C7712316EC20080B6AB
:101FE8002290A43B1208D2E4FFFE7D807C3F90A49F
:101FF8003BE0F8A3E0F9A3E0FAA3E0FB12039E702C
:102008000690A43B02214390A43BE0FCA3E0FDA37F
:10201800E0FEA3E0FF1204D6FBA3E0FCA3E0FDA3CF
:10202800E0FEA3E0FF1204D6FFB40108E4FFFE7D42
:10203800807C3F22EF64046029EB64046024EBB4E5
:102048000130E4FFFEFDFC90A43FE0F8A3E0F9A313
:10205800E0FAA3E0FB12039E60084006E4FFFEFDE1
:10206800FC2290A43F1208DEFFFFFFFF90A43F026E
:102078002143E490A443F0A3F0FFFEFDFC90A43BB1
:10208800E0F8A3E0F9A3E0FAA3E0FB12039E505F97
:1020980090A43FE0FCA3E0FDA3E0FEA3E0FF120450
:1020A8005590A443EEF0A3EFF0FDCCEECCEC120477
:1020B8001CC8ECC8C9EDC9CAEECACBEFCB90A43F87
:1020C800E0FCA3E0FDA3E0FEA3E0FF120103E4FBB4
:1020D800FAF9F812039E708A90A43BE0FCA3E0FD95
:1020E800A3E0FEA3E0FF1204F090A43B1208D290F4
:1020F800A43BE0FCA3E0FDA3E0FEA3E0FF12241351
:1021080090A43FE0F8A3E0F9A3E0FAA3E0FB1201F2
:10211800F8122A4B90A43F1208D290A444E030E071
:102128001790A43FE0FCA3E0FDA3E0FEA3E0FF12AC
:1021380004F090A43F1208D290A43FE0FCA3E0FD75
:10214800A3E0FEA3E0FF2290A438EBF090A437EDC3
:10215800F0EF24D0FEE4340790A43AF0A3CEF0EDDB
:10216800FF64016005EF6402701590A437E0240C49
:10217800F090A43BE024FFF090A43AE034FFF09004
:10218800A43AE0FEA3E0FFC394D8EE94064034BE20
:102198000610BFD80D90A437E0C3940974809480CA
:1021A800402190A43AE064067004A3E064D8706506
:1021B80090A437E06409705DA3E0C394037480942D
:1021C80080505290A437E0FB2401FFE433FE7C00EA
:1021D8007D031206BE7D05120725AD07EB75F002DB
:1021E800A4FFA3E07A002FFFEA35F0CF2DCF3EFE03
:1021F80090A43AE0FCA3E0FD2FFBEC3EFAAE04ED20
:102208007802CEC313CE13D8F92BFFEA3ECF2406AB
:10221800CF3400807C90A437E02401FFE433FE7CB7
:10222800007D031206BE7D05120725AC06AD07A387
:10223800E02401FBE433FA90A437E075F002A42B04
:10224800FFE5F03ACF2DCF3CFE90A43AE0FCA3E0A6
:10225800FD2FFBEC3EFAAE04ED7802CEC313CE138D
:10226800D8F92BFBEA3EFA90A43AE0FEA3E0FF7C03
:10227800007D641206D0C3EB9FFBEA9EFA90A43A55
:10228800E0FEA3E0FF7C017D901206D0EF2BFFEE6D
:102298003AFE7C007D071206D090A439EDF090A498
:1022A80039E0FF22782F7CA47D017BFF7A33799D6A
:1022B8007E007F0812061E122C7D123178123275AC
:1022C8007F65122C827C06ECD39400748094804045
:1022D8001512002E742F2CF582E434A4F583EFF048
:1022E8001200161C80E112002E90A42FEFF012337A
:1022F8001712317DE4FCECC3940374809480503051
:10230800742F2CF582E434A4F583E0FFC4540FFE47
:1023180090A42DF0EF540FFFA3F0EE75F00AA42F50
:10232800FF742F2CF582E434A4F583EFF00C80C6FB
:102338007C04ECC39407748094805030742F2CF57F
:1023480082E434A4F583E0FFC4540FFE90A42DF07A
:10235800EF540FFFA3F0EE75F00AA42FFF742F2C93
:10236800F582E434A4F583EFF00C80C690A42FE046
:10237800FFA3E0FDA3E0FB12214F90A432EFF07B16
:10238800017AA4792F90A469E4F0A37402F07F1075
:102398007E001217917B017AA4793190A469E4F048
:1023A800A37402F07F117E001217917B017AA47941
:1023B8003390A469E4F0A37402F07F127E00121730
:1023C800917B017AA4793590A469E4F0A37402F0B2
:1023D8007F137E000217913E9248DA3ECCCCCD3F67
:1023E8002AAAAB400000003F8000003F9837F03F2A
:1023F800B504F33FD744FC3E3172173EB172173F24
:102408000515913EDE5BD9D2008002C200EDD2E70D
:10241800F8CD33EC3304700BBD800592D50204CBA4
:102428000204C140FBD31460F2F5F07C3FEE7A0061
:10243800C39496C8948B40230AC89469C8941A40D8
:102448001A0AC89468C8941F40110AC8945AC894B4
:1024580025400805F07A00CDC2E7CDC0F090A4452C
:102468001208D2EA2323C0E024EFF582E43423F5EE
:10247800831208C2120107ECC0E0EDC0E0EEC0E034
:10248800EFC0E01208A690A4451208B6120103D0C6
:10249800E0FBD0E0FAD0E0F9D0E0B2E7F8120301AF
:1024A80090A4451208D29023DF740312050190A46A
:1024B800451208B61201F8D0E0600F24FBF582E45B
:1024C8003423F5831208C212010790A4451208D2DA
:1024D800D0E0C3947FFDE49400FC12041C7B187ABE
:1024E800727931783F1201F890A4451208B61201AA
:1024F8000730000B7BD97A5B79DE783E1201F8222F
:102508007B017AA4793190A469E4F0A37402F07F86
:10251800007E511219DE90A431E0FEA3E0FFEE70B8
:102528004CEF24FE601914602214602B14603424CC
:1025380004703A90A4B91208DE43FA0000802E9085
:10254800A4B91208DE447A0000802290A4B91208C7
:10255800DE44BB8000801690A4B91208DE451C40FA
:1025680000800A90A4B91208DE457A000090A4B74A
:10257800E0FEA3E0FF1227EF90A4BDE0FCA3E0FD7E
:10258800A3E0FEA3E0FF120455AB07AA067C007D7A
:102598003C1206D090A42FEEF0A3EFF07C007D3C17
:1025A800AF03AE021206D090A42DECF0A3EDF07BA1
:1025B800017AA4792F90A469E4F0A37402F07F2033
:1025C8007E281217917B017AA4792F90A469E4F0F0
:1025D800A37402F07F007E281217917B017AA479F8
:1025E8002D90A469E4F0A37402F07F057E281217E9
:1025F800917B017AA4792D90A469E4F0A37402F088
:102608007F257E28021791AEAD90A4A4E0FCA3E03C
:10261800FDEC704BED146020047044EE64576003C9
:1026280002270F74A72DF58274A43CF583EEF09071
:10263800A4A4E4F0A304F022EE701C90A4A4E0FC8F
:10264800A3E024A7F58274A43CF583EEF090A4A43B
:10265800E4F0A37402F022E490A4A4F0A3F0229082
:10266800A4A4E0FCA3E024A7F58274A43CF583EEBF
:10267800F090A4A5E004F0700690A4A4E004F0D3C0
:1026880090A4A5E0940F90A4A4E094004079E4F00D
:10269800A3F090A4A8E0FF90A4A7E02FFF90A4A91E
:1026A800E02FFFA3E02FFFA3E02FFFA3E02FFFA35E
:1026B800E02FFFA3E02FFFA3E02FFFA3E02FFFA34E
:1026C800E0FD2FFFA3E0FE2FFFA3E02FFFA3E02FE5
:1026D800FFA3E02FFFA3E0B5072DEE702A90A4B06A
:1026E800E07B00FAED7E007810C333CE33CED8F904
:1026F800FFEE4AFEEF4BFF90A4AFE0FDEF4DFF90D9
:10270800A4B7EEF0A3EFF02290A43CEBF0A3EAF01C
:10271800A3E9F0E490A447F0A3F0A3F0A3F0C390DA
:10272800A446E0940790A445E0940050037F022259
:1027380090A43CE0FBA3E0FAA3E0F9120644645A33
:1027480060037F032290000112065D64A560037F89
:10275800032290000212065D2403FFE433FE90A4D6
:1027680047F0A3EFF0C390A446E09F90A445E09EF5
:102778004072E490A449F0A3F090A447E0FEA3E0DF
:10278800FFA3E0FCA3E0FDC39FEC9E503C90A43C5B
:10279800E0FBA3E0FAA3E0F9120644FF90A43FE0AF
:1027A800FBA3E0FAA3E0F98D828C83EF12069C90DC
:1027B800A43DE475F00112075B90A44AE004F070B0
:1027C800B890A449E004F080B090A447E0F9A3E0F1
:1027D800FF90A442E0FBA3E0FAA3E0C98FF0120740
:1027E800877F01227F0222AD07AC06E412041CE4B5
:1027F800FBFA7920784112030190A4331208D2E43D
:10280800FFFE7DC87C4390A433E0F8A3E0F9A3E081
:10281800FAA3E0FB12039E5024E4FFFE7DA07C4057
:1028280090A433E0F8A3E0F9A3E0FAA3E0FB1203D5
:102838009E600A400890A4C97401F0800690A4C95B
:102848007405F090A4CAE06403602590A4C9E0145C
:10285800706D90A48EE0F8A3E0F9A3E0FAA3E0FB82
:1028680090A4B9E0FCA3E0FDA3E0FEA3E0FF80464E
:1028780090A4C9E0147048E4FFFE7D7A7C4490A4DB
:1028880085E0F8A3E0F9A3E0FAA3E0FB1201F8A8B9
:1028980004A905AA06AB0790A4B9E0FCA3E0FDA330
:1028A800E0FEA3E0FF12010390A48EE0F8A3E0F994
:1028B800A3E0FAA3E0FB12030190A4BD0208D290A2
:1028C800A4C97406F022E490A43CF0A3F090A22DD1
:1028D800E0FEA3E0FDEDFF90A43CEEF0A3EFF09046
:1028E800A22CE06482703D7B017AA2792F90A22B02
:1028F800E024FDFEE434FF90A469F0A3CEF090A498
:102908003CE0FEA3E0FF12179190A22B7403F09015
:10291800A22D744FF0A3744BF07B017AA279299011
:10292800A22B803E90A22CE06483703D7B017AA2AA
:10293800793090A22FE075F002A4FF90A469E5F029
:10294800F0A3EFF090A43CE0FEA3E0FF1219DE90A4
:10295800A22FE025E0FF90A22BE02FF07B017AA2C6
:102968007929E02403FD122FFA2275940175950246
:10297800758E0075930075C87075C96075F8007814
:102988007FE4F6D8FD7581200229CE02329CE493BB
:10299800A3F8E493A34003F68001F208DFF480294A
:1029A800E493A3F85407240CC8C333C4540F442039
:1029B800C8834004F456800146F6DFE4800B010228
:1029C800040810204080900FD1E47E019360BCA3DE
:1029D800FF543F30E509541FFEE493A360010ECF76
:1029E80054C025E060A840B8E493A3FAE493A3F8A0
:1029F800E493A3C8C582C8CAC583CAF0A3C8C58260
:102A0800C8CAC583CADFE9DEE780BE33DA929E35DD
:102A1800B16011377FE5FE392184893AAEC3FF3CA6
:102A28001D955B3D6358473E75FDF03F3172183F79
:102A3800800000C2D50204CB0204C1BD80FA50F365
:102A48000204C8ED33EC330460F17B3B7AAA79B811
:102A5800783F1201F8ED33EC3392D5247B5011A264
:102A6800D570DB500BED448024045004A2D580CEF1
:102A7800EFFBEEFAEDF9ECF8120455EFF582F404E9
:102A8800FC120421120107C082902A13740912054E
:102A980010ED33CC33D0F092D525F0A2D57001C318
:102AA80013CC13FD2290A4DAEFF078DB7CA47D012F
:102AB8007BFF7A3379797E007F0412061E7B017AC8
:102AC800A479DB90A469E4F0A37404F07F807E000D
:102AD8001219DE90A4DB745AF090A4DAE0FD339565
:102AE800E0FCED64014C700990A4DEE054F7F0803E
:102AF8000DED64024C703F90A4DEE04408F07B01C9
:102B08007AA479DB90A469E4F0A37404F07F807E52
:102B1800001217917F057E0012318F7B017AA4790C
:102B2800DB90A469E4F0A304F07F807E001219DE34
:102B380090A4DBE070DE22782D7CA47D017BFF7AF7
:102B48003379857E007F1012061EE490A43DF0A321
:102B5800F0A3F0A3F0A3F0A3F090A42AE0FDFEA355
:102B6800E0FBF582E582FF90A441EEF0A3EFF09040
:102B7800A229745AF0A374A5F090A42CE0FC25E0D7
:102B8800240390A22BF0A37483F0A3EDF0A3EBF041
:102B98007B017AA2792FEC75F002A4FF90A469E575
:102BA800F0F0A3EFF090A441E0FEA3E0FF1219DEDD
:102BB80090A441E0FEA3E0FF020086C0E0C0F0C0A0
:102BC80083C082C0D075D000C000C001C002C0035D
:102BD800C004C005C006C007E4FFC2AFE5AB54019E
:102BE8006401703B12260FAFAD908088E0FCA3E033
:102BF8002400F58274803CF583EFF0908089E0042E
:102C0800F07006908088E004F053ABFEC390808992
:102C1800E09480908088E094004004E4F0A3F0D22F
:102C2800AFD007D006D005D004D003D002D001D051
:102C380000D0D0D082D083D0F0D0E0321232757F6D
:102C480064122C827F30122C82E4FF122C82123103
:102C58007D1232757F64122C827F1C122C827F4871
:102C6800122C82E4FF122C827F40122C827F1012D9
:102C78002C8212317D1232757F64AE07120066E431
:102C8800FDEDC39408748094805019EE30E704D2A7
:102C9800B38002C2B3EE25E0FE123236C2B212325F
:102CA8003B0D80DD02314BC0E0C083C082C0D075CF
:102CB800D000C004C007C2AF309837AF9990808267
:102CC800E0FCA3E0248AF58274803CF583EFF09061
:102CD8008083E004F07006908082E004F0C3908066
:102CE80083E094A0908082E0941F4004E4F0A3F075
:102CF800C298309907C299908080E4F0D2AFD0078B
:102D0800D004D0D0D082D083D0E03290A4D4EEF0DA
:102D1800A3EFF078D67CA47D017BFF7A3379817E9E
:102D2800007F0412061E90A4D4E0FCA3E0FDEC9002
:102D3800A4D8F0A3EDF07B017AA479D690A469E435
:102D4800F0A37404F07F847E001217917F057E0043
:102D580012318F7B017AA479D690A469E4F0A30498
:102D6800F07F847E001219DE90A4D6E070DE22C0C7
:102D7800E0C0F0C083C082C0D075D000C000C004DD
:102D8800C005C006C007C2AF758CBC758ACD90A4BB
:102D9800D3E004F0700690A4D2E004F090A46FE0B1
:102DA800FCA3E0FDA3E0FEA3E02401FFE43EFEE473
:102DB8003DFDE43CFC90A46F1208D2D2AFD007D0FE
:102DC80006D005D004D000D0D0D082D083D0F0D0A7
:102DD800E032C0E0C083C082C0D075D000C004C05B
:102DE80007C2AFE59B30E028AF9C908084E0FCA34D
:102DF800E0242AF58274A03CF583EFF0908085E00A
:102E080004F07006908084E004F0539BFE539BFE10
:102E1800E59B30E10B539BFD539BFD908081E4F0D3
:102E280043C901D2AFD007D004D0D0D082D083D04C
:102E3800E032121C26E4FFFE7D7A7C4490A485E0F3
:102E4800F8A3E0F9A3E0FAA3E0FB1201F890A4B913
:102E5800E0F8A3E0F9A3E0FAA3E0FB12039E602BDD
:102E68004029E4FFFEFDFC90A4BDE0F8A3E0F9A32F
:102E7800E0FAA3E0FB12039E6011400FC390A497F1
:102E8800E0946490A496E09400400690A4CA740567
:102E9800F02290A474E0FF90A489E06F6008EFF03E
:102EA80090A4CA7401F090A4CAE0B40700504090FE
:102EB8002EBEF8282873022ED3022ED9022EE20243
:102EC8002EE5022EE8022EEB022EEE90A4CA740123
:102ED800F090A4CA7402F0120061022508022E3A8A
:102EE80002006202324B122EF890A4CA7401F0223A
:102EF80090A4851208DE000000007B017AA4798581
:102F080090A469E4F0A37404F07F007E271217915F
:102F1800E490A496F0A3F07B017AA4799690A46932
:102F2800F0A37402F07F307E2812179190A47D12CE
:102F380008DE000000007B017AA479C190A469E44E
:102F4800F0A37402F07F107E30021791122C7D7F5F
:102F58001D122C8212317D1232757F65122C82125D
:102F6800002EAC0712001612002E12331712317DF4
:102F7800EC54026402702E122C447F10122C82E44E
:102F8800FF122C82E4FF122C82E4FF122C827F01B4
:102F9800122C827F01122C827F01122C827F171241
:102FA8002C7712316E22782D7CA47D017BFF7A3339
:102FB800797D7E007F0412061E7B017AA479299010
:102FC800A469E4F0A37404F07F007E0F1219DE9068
:102FD800A429E0645A70187B017AA4792D90A46919
:102FE800F0A37404F07F007E0F1217917F01227FF7
:102FF800002290A43EEBF0A3EAF0A3E9F090A43EEF
:10300800E0FBA3E0FAA3E04A4B6027ED6024AF059C
:103018001DEF601E90A43EE0FBA3E0FAA3E0F912C6
:103028000644FF1232BE90A43FE475F00112075B1C
:1030380080DC2290A4DFEBF0A3EAF0A3E9F090A4EF
:10304800DFE0FBA3E0FAA3E04A4B6027ED6024AF82
:10305800051DEF601E90A4DFE0FBA3E0FAA3E0F9F2
:10306800120644FF1232CC90A4E0E475F001120776
:103078005B80DC2290A4E2EBF0A3EAF0A3E9F090F5
:10308800A4E2E0FBA3E0FAA3E04A4B6027ED60244A
:10309800AF051DEF601E90A4E2E0FBA3E0FAA3E0F9
:1030A800F9120644FF1232F490A4E3E475F0011219
:1030B800075B80DC227B017AA4797390A469E4F031
:1030C800A37402F07F147E001219DE90A474E0FF4E
:1030D8001460161460181460152403701490A489E1
:1030E800EFF090A4CA7401F022122E9A8000120CFC
:1030F800E122E490A444F0A3F0A3F0A3F0AE04AF5F
:1031080005C003C00290A441E0FBA3E0FAA3E0F8E5
:10311800AC02AD03D002D00312061E7F012243B7D2
:103128001043C940E4908080F0908082F0A3F0754D
:10313800D88075985053877F75BA0375AAE4D29CD6
:10314800D2AC22120026123234E4FEEEC39432745A
:10315800809480500930B30612323B0E80EDC2B223
:1031680012323B0200667F1E122C82E4FF122C8270
:103178007F10122C82120066C2B3D2B212323BD236
:10318800B312323B020026E4FDFCC3ED9FEC9E50D7
:1031980015E4FBFA0BBB00010ABA1CF8BBE8F50DF5
:1031A800BD00010C80E42243B7C043C920E49080ED
:1031B80081F0908084F0A3F0759BD075BB03759D5A
:1031C800C8759A012290A4E5EFF07B017AA479E50D
:1031D80090A469E4F0A304F07F827E00021791C3F3
:1031E80090A4D3E094F490A4D2E09401400A12226F
:1031F800ACE490A4D2F0A3F022E490A4CAF07B013E
:103208007AA479C190A469F0A37402F07F107E308B
:1032180002179175F90175B7C375BCA375BD2A75F9
:10322800BE0CE4F580F590F5A0F5B022D2B31232C9
:103238003BD2B2E4FFEFC394507480948050030FE4
:1032480080F3227B017AA479C190A469E4F0A37485
:1032580002F07F107E3002179175C870E4F5CDF545
:10326800CC75CBBC75CACD43A820D2C82212006643
:10327800D2B3D2B212323BC2B312323BC2B2023222
:103288003BE4908086F0A3F0759680759780F5D919
:1032980075E7E0221232AD122F541233001230BDFE
:1032A8001231E780F5C2AF1232E812321B12332214
:1032B80012005BD2AF22908080E0640160F8740154
:1032C800F08F9922908081E0640160F87401F08F9A
:1032D8009C22438901758CBC758ACDD2A9D28C22D7
:1032E800E4F5A8F5B8F59AF5A9F5B9228FACE5A7E4
:1032F800540160FA53A7FE22122FAEEF6003122B7F
:103308003F02093B7BFF7A33792E7D15022FFA1293
:103318000066123234C2B202323B123126123289AE
:1033280002006EC2C6325561727432496E697420E9
:10333800446F6E6521212131323300556172743337
:10334800496E697420446F6E6521212100556172B0
:103358007434496E697420446F6E652121210055CB
:1033680061727435496E697420446F6E652121213C
:103378000000000000000000005A010000000000EA
:103388000000000000000000000000000000000035
:103398000000000000000000000000000000000025
:0633A8000000000000001F
:00000001FF
