:100000000245E7020006C2AFD2AF32023899C2AF52
:10001000D2AF3202000E125878C2B3125747C2B2A2
:1000200002574C024E68AE070257D702587C43B7BE
:100030001043C940E4908080F0908082F0A3F07576
:10004000D88075985053877F75BA0375AAE4D29CFF
:10005000D2AC2202585853BEF72222024FF2E4F5E6
:10006000A8F5B8F59AF5A9F5B922220248C9E49095
:100070008088F0A3F075A78075AB80F5AE75AFE012
:10008000D2BD22024F9278947CA57D017BFF7A59E4
:10009000795F7E007F041207D07B017AA57990906A
:1000A000A4E6E4F0A37404F07F807E001226FD90A5
:1000B000A593E054F7F07B017AA5799090A4E6E44B
:1000C000F0A37404F07F807E001224B07B017AA537
:1000D000799490A4D7E4F0A37402F07F007E80129C
:1000E00040667B017AA5799490A4E6E4F0A37404B9
:1000F000F07F807E120224B0FFFF4457494E5435F2
:100100000204C1E86480F8E933E83360110460F068
:10011000ED33EC337009E8FCE9FDEAFEEBFF220465
:1001200060DED3EB9FEA9EE99DE8C2E78CF0C2F760
:1001300095F0400CE8CCF8E9CDF9EACEFAEBCFFB2C
:1001400012048C85D0F05804700320D5B3E80470F5
:10015000075002B2D50204CB92D5EC0460F7E4CC90
:10016000C0E0C398F8603B94186008400DD0E0FBF5
:100170000204A3E4FBFAC9FC8028E830E406E4C9E1
:10018000FBE4CAFCE830E305E4C9CACBFCE8540749
:100190006010F8C3E913F9EA13FAEB13FBEC13FC54
:1001A000D8F130F52FC3E49CFCEF9BFFEE9AFEEDF7
:1001B00099FDD0E0FBEF4E4D4C701222DB030204A0
:1001C000C8EC2CFCEF33FFEE33FEED33FDED30E7F2
:1001D000EB0204A3EF2BFFEE3AFEED39FDD0E0FB7E
:1001E00050130BBB00030204CBED13FDEE13FEEF27
:1001F00013FFEC13FC0204A3EC4D6011E8497017E7
:10020000ED33EC3304600DE4FCFFFEFD22E933E83E
:10021000330470F80204C112048C58046009E4CC61
:10022000248150062850090204CB2840030204C848
:10023000C0E0EB4A7044B98006D0E0FB0204B7EF9F
:100240004E701CBD8008EBFFEAFEE9FD80EBE98DF6
:10025000F0A4FEE5F00202E1E9CDF9EAFEEBFFEFE2
:1002600089F0A4FCE5F0CE89F0A42EFFE435F0CDB2
:1002700089F0A42DFEE435F08067EF4E7005BD8057
:10028000D780C3EF8BF0A4ACF0EE8BF0A42CFCE491
:1002900035F0F8EF8AF0A42CE5F038FCE433CB8D90
:1002A000F0A42CFCE5F03BF8EE8AF0A42CFCE5F081
:1002B00038F8E433CF89F0A42CFCE5F038CF3400D3
:1002C000CE89F0A42FFFE5F03EFEE433C98DF0A403
:1002D0002EFEE5F039CD8AF0A42FFFE5F03EFEE4D6
:1002E0003DFD33D0E0FB50070BBB000F0204CBEC0D
:1002F0002CFCEF33FFEE33FEED33FD0204A30204CA
:10030000CBEC5D046005E8590470030204C11204DB
:100310008C580460F6EC4860F2EC7004FDFEFF229D
:10032000C860DB2481C85009C398600250060204EB
:10033000C89850CAF582E9294B4A7005AB8202047D
:10034000B775F0007C1A7880C3EF9BEE9AED994068
:100350000DC3EF9BFFEE9AFEED99FDE842F0DC2322
:10036000ACF0D0E0FFD0E0FED0E0FDAB8220E710A3
:100370001BEB60BAEC2CFCEF33FFEE33FEED33FDEC
:100380000204A3E803F830E705C0F075F000EF2F92
:10039000FFEE33FEED33FD40B830E7C280AA74F8BB
:1003A000CC6480CCC86480C8F58204604FC3EB9FE6
:1003B000F5F0EA9E42F0E99D42F0E89C45F0603C91
:1003C000501DE5825FFFE582D313CB5BCBF42B5549
:1003D00082FB50280ABA002409B9002008801DE5D4
:1003E000825BFBE582D313CF5FCFF4C3132F55821B
:1003F000FF50090EBE00050DBD00010CC3EB9FF5BB
:10040000F0EA9E42F0E99D42F0E89C45F06007CC9E
:100410004820E701B3EC2275F020800E75F01080C3
:100420000575F0087D007E007F003392D530D5033E
:10043000120AB6EC334010EF33FFEE33FEED33FD1E
:10044000EC33FCD5F0ED22E5F0247EA2D513CC925E
:10045000E7CDCEFF22EDD2E7CD33EC3392D5248128
:100460004006E4FFFEFDFC22FCE4CFCECDCC24E030
:10047000501174FF80EDC3CC13CCCD13CDCE13CE71
:10048000CF13CF0470F030D5DE020AB6E9D2E7C947
:1004900033E833F892D5EDD2E7CD33EC33FC50029C
:1004A000B2D522EC30E7100FBF000C0EBE00080DD5
:1004B000BD00040BEB6014A2D5EB13FCED92E7FD3D
:1004C0002274FFFCFDFEFF22E480F8A2D574FF1326
:1004D000FC7D80E480EFED33EC33601004700FEDB1
:1004E000547F7005740292E0227404220422E422F4
:1004F000ED33EC33600A047003BD8004ECB2E7FC1A
:1005000022F920E73624F950037907E4F42402FBAA
:10051000E582158270021583DBF6E024FB501BE9AF
:100520006014E4F0E582158270021583E004F0B4F3
:100530000A08E4F0D9EE7401F00A22C2D522ED33A4
:10054000EC3392D5FA602AB4FF33EDC2E77BFF604B
:10055000067A057963E4227A05796C20D5047A0558
:100560007967224E614E002B494E46002D494E467A
:1005700000E47A08F0A3DAFC7B00740722C083C091
:1005800082ECC0E0EDC0E0EEC0E0EFC0E0EA75F064
:1005900010A4CAABF075F04DA42BFBE435F0FCEAD7
:1005A0002410FAEB34C5FBEC34D9FCEDC2E7FF753F
:1005B000F056A4F42411C5F0F434C58FF0A42AE554
:1005C000F03BE43CF020E7141206C0D0E0FFD0E09E
:1005D000FED0E0FDD0E0FC1203018014F40412060A
:1005E000C0D0E0FFD0E0FED0E0FDD0E0FC1201F88A
:1005F000D082D083E0FAEDD2E7CD33EC332482FB16
:10060000E4C3CF33CFCE33CECD33CD33DBF37B0753
:1006100075F00A846004F0A31B0AE5F0F0A38FF0E4
:10062000740AA4FFACF08EF0740AA42CFEACF05057
:10063000010C8DF0740AA42CFDE435F0F0A3DBDE90
:10064000740722C0E0EFFBEEFAEDF9ECF81201F8C6
:10065000D0E0F5F0EFFBEEFAEDF9ECF8120AE8A3C2
:10066000A3A3A3E8C0E0E9C0E0EAC0E0EBC0E0C0BB
:10067000F01201F8120B04A3A3A3A3120107D0F0F8
:10068000D0E0FBD0E0FAD0E0F9D0E0F8D5F0D42209
:100690003F8000004120000042C80000447A000072
:1006A000461C400047C35000497424004B189680F4
:1006B0004CBEBC205A0E1BCA6753C21C749DC5AEEB
:1006C000FB60065407601C23231206EEEB543860CF
:1006D000091206DA1206E91201F8ECF8EDF9EEFA61
:1006E000EFCB22EB1206E980F1543803241C90066C
:1006F00090FE93FC0EEE93FD0EEE930ECE93FF2232
:10070000E709F608DFFA8046E709F208DFFA803EDB
:1007100088828C83E709F0A3DFFA8032E309F608C8
:10072000DFFA8078E309F208DFFA807088828C8330
:10073000E309F0A3DFFA806489828A83E0A3F608E4
:10074000DFFA805889828A83E0A3F208DFFA804CBE
:1007500080D280FA80C680D4806980F28033801095
:1007600080A680EA809A80A880DA80E280CA8033FE
:1007700089828A83ECFAE493A3C8C582C8CCC58376
:10078000CCF0A3C8C582C8CCC583CCDFE9DEE78046
:100790000D89828A83E493A3F608DFF9ECFAA9F0C5
:1007A000EDFB2289828A83ECFAE0A3C8C582C8CC1B
:1007B000C583CCF0A3C8C582C8CCC583CCDFEADE34
:1007C000E880DB89828A83E493A3F208DFF980CC96
:1007D00088F0EF60010E4E60C388F0ED2402B4048F
:1007E0000050B9F582EB2402B4040050AF23234536
:1007F000822390075073BB010689828A83E02250CE
:1008000002E722BBFE02E32289828A83E49322BBB1
:10081000010CE58229F582E5833AF583E022500652
:10082000E92582F8E622BBFE06E92582F8E222E508
:100830008229F582E5833AF583E49322BB01068998
:10084000828A83F0225002F722BBFE01F322F8BB1A
:10085000010DE58229F582E5833AF583E8F022501F
:1008600006E92582C8F622BBFE05E92582C8F222E8
:10087000EF8DF0A4A8F0CF8CF0A428CE8DF0A42E9C
:10088000FE22BC000BBE0029EF8DF084FFADF022EC
:10089000E4CCF875F008EF2FFFEE33FEEC33FCEEFE
:1008A0009DEC984005FCEE9DFE0FD5F0E9E4CEFDF1
:1008B00022EDF8F5F0EE8420D21CFEADF075F008C4
:1008C000EF2FFFED33FD4007985006D5F0F222C31D
:1008D00098FD0FD5F0EA22C2D5EC30E709B2D5E495
:1008E000C39DFDE49CFCEE30E715B2D5E4C39FFF49
:1008F000E49EFE120882C3E49DFDE49CFC8003128A
:10090000088230D507C3E49FFFE49EFE22C5F0F8BD
:10091000A3E028F0C5F0F8E582158270021583E0A7
:1009200038F022A3F8E0C5F025F0F0E582158270DA
:10093000021583E0C838F0E822BB010A89828A8365
:10094000E0F5F0A3E022500687F009E71922BBFE8C
:1009500007E3F5F009E3192289828A83E493F5F02D
:1009600074019322BB0110E58229F582E5833AF5F3
:1009700083E0F5F0A3E0225009E92582F886F0082B
:10098000E622BBFE0AE92582F8E2F5F008E222E55C
:10099000832AF583E993F5F0A3E99322BB010A8941
:1009A000828A83F0E5F0A3F0225006F709A7F01938
:1009B00022BBFE06F3E5F009F31922F8BB0111E5AD
:1009C0008229F582E5833AF583E8F0E5F0A3F02289
:1009D0005009E92582C8F608A6F022BBFE09E925E0
:1009E00082C8F2E5F008F22275F008758200EF2F58
:1009F000FFEE33FECD33CDCC33CCC58233C5829BE5
:100A0000ED9AEC99E58298400CF582EE9BFEED9A0A
:100A1000FDEC99FC0FD5F0D6E4CEFBE4CDFAE4CCA6
:100A2000F9A88222B800C1B90059BA002DEC8BF0A8
:100A300084CFCECDFCE5F0CBF97818EF2FFFEE3365
:100A4000FEED33FDEC33FCEB33FB10D70399400490
:100A5000EB99FB0FD8E5E4F9FA227818EF2FFFEEB7
:100A600033FEED33FDEC33FCC933C910D7059BE9E8
:100A70009A4007EC9BFCE99AF90FD8E0E4C9FAE444
:100A8000CCFB2275F010EF2FFFEE33FEED33FDCCE3
:100A900033CCC833C810D7079BEC9AE899400AEDCD
:100AA0009BFDEC9AFCE899F80FD5F0DAE4CDFBE475
:100AB000CCFAE4C8F922C3E49FFFE49EFEE49DFD66
:100AC000E49CFC22EB9FF5F0EA9E42F0E99D42F0A7
:100AD000E89C45F022E8600FEFC333FFEE33FEEDF4
:100AE00033FDEC33FCD8F122E493FC740193FD74E4
:100AF0000293FE740393FF22E0F8A3E0F9A3E0FA67
:100B0000A3E0FB22E493F8740193F9740293FA745E
:100B10000393FB22ECF0A3EDF0A3EEF0A3EFF022A1
:100B2000A8828583F0D083D082120B37120B371244
:100B30000B37120B37E473E493A3C583C5F0C58369
:100B4000C8C582C8F0A3C583C5F0C583C8C582C81F
:100B500022F8E0FBA3A3E0F925F0F0E5821582700E
:100B6000021583E0FA38F022EBF0A3EAF0A3E9F0F3
:100B700022D083D082F8E4937012740193700DA395
:100B8000A393F8740193F5828883E47374029368E5
:100B900060EFA3A3A380DF8A838982E473EF4E60B2
:100BA00012EF60010EEDBB010B89828A83F0A3DF97
:100BB000FCDEFA2289F05007F709DFFCA9F022BB1E
:100BC000FEFCF309DFFCA9F022E508249DF582E490
:100BD00034A4F583E005082290A49A30070390A47A
:100BE0009DE475F001120B510207F62000E97F2EFB
:100BF000D2008018EF540F2490D43440D4FF300436
:100C00000BEF24BFB41A0050032461FFE509600212
:100C10001509050CE50C7002050B30070E90A49A1F
:100C2000E475F001120B51EF02083C020026740338
:100C3000D2078003E4C207F50890A49A120B68E477
:100C4000F509F50BF50CE50960077F20120C0C8007
:100C5000F5750AFFC201C200C202C203C205C20684
:100C6000C208120BD8FF700D3007057F00120C1D53
:100C7000AF0CAE0B22B4255FC2D5C204120BD8FF55
:100C800024D0B40A00501A75F00A780930D5050846
:100C9000B6FF0106C6A426F620D5047002D2038052
:100CA000D924CFB41A00EF5004C2E5D204020F0FCA
:100CB000D20180C6D20080C0D20280BCD2D580BA18
:100CC000D20580B47F20120C0C2002077401B509F4
:100CD0000040F1120BC9FF120C0C020C46D208D2D4
:100CE000068095120BC9FB120BC9FA120BC9F94AFF
:100CF0004B7006790D7A107BFF20022EE509602AE1
:100D00007E008E8275830012080F60060EEE650A63
:100D100070F0C2D5EBC0E0EAC0E0E9C0E0EE120F2F
:100D200070D0E0F9D0E0FAD0E0FB1207F6FF60AA3D
:100D3000EBC0E0EAC0E0E9C0E0120C0CD0E0240116
:100D4000F9D0E03400FAD0E0FBE50A0460DCD50A13
:100D5000D98087D20280A2120F5260F7E50A700193
:100D600004120501A90A600DE50A600914F50A12CA
:100D70000FFAEF60F3EA30E702F404C3995079EA1E
:100D8000F4250A0430E701E404F50A800D120F523D
:100D900060C1EA050A250A120501EA90A4C9F030EB
:100DA000E701E4250A04D50A0420050114120F7096
:100DB000E4C0E0120FFA90A4C9E0601320E7071422
:100DC000F0120BF4802204F0D0E014C0E07F001297
:100DD0000BF4E50A6007120BEB150A800B300503D4
:100DE000120BEBD0E0020C46D0E00480C4120F528C
:100DF000609EE50A0412050190A4C9EAF0E50A2004
:100E000005026001042404120F7074FF04C0E01294
:100E10000FFA120BF4E50A2005026003120BEBD067
:100E2000E0B50AE87F45120BFE90A4C9E07F2B30A5
:100E3000E7047F2DF404C0E0120C0CD0E075F00A3A
:100E400084C0F0120BF5D0E0120BF5020C467910BD
:100E500080027908C206C2088008D2D5790A8004C7
:100E6000790AC2D5E50A047002F50AE4FAFDFEFF2C
:100E7000120BC9FC7B08200113120BC9FD7B10303B
:100E8000000A120BC9FE120BC9FF7B20EC3382D57E
:100E900092D55013C3E43000069FFFE49EFEE42089
:100EA00001039DFDE49CFCE4CBF8C201EC700CCF87
:100EB000CECDCCE824F8F870F38017C3EF33FFEE03
:100EC00033FEED33FDEC33FCEB33FB994002FB0FBB
:100ED000D8E9EB300105F8D0E0C448B201C0E00A1F
:100EE000EC4D4E4F78207B0070C2EAB50A0040BC42
:100EF000C0E0120F72D0F0D0E0200104C4C0E0C402
:100F0000B201C0F0120BF5D0F0D5F0EB020C461296
:100F10000B710CE3530E4E580CB44C0CB0420E52F5
:100F20004F0E5A440E5A490CC9430E60550D8D465A
:100F30000DED450D5747102D500CB82D0CBC2E0C47
:100F4000DF2B0CC0230CDD2010162A0C7848000083
:100F50000CD7E50AB4FF03750A06120BC9FC120B85
:100F6000C9FD120BC9FE120BC9FF90A4C202053EB7
:100F7000790AA2D5200314300509B910020404B976
:100F8000080104A2D5200602500104200268920242
:100F9000B509005034C0E07F203003197F30A20231
:100FA00072067205500F120FC9C202C206C205C2F4
:100FB000087F30800F300503E9C0E0120C0C3005CB
:100FC00003D0E0F9D0E0B509CC3005177F30B91077
:100FD0000C120C0C7F583004077F788003B908038B
:100FE000120C0C3002057F2D020C0C7F202008F81B
:100FF0007F2B2006F322920280CF7F00B40700509F
:101000000B24C2F582E434A4F583E0FF22286E7538
:101010006C6C2900D201120BC93001F8C2017809A9
:1010200030D50108F6020C782D50434958120BC9EF
:101030002403B405004001E490102893120BFD74C2
:101040003A120BFDD203750904020E4EE490A496E9
:10105000F0A3F0A3F0A3F0A3F0A3F0A3F0A3F0A3F8
:1010600004F0A37480F0A3748AF0E4A3F0A3F078F2
:10107000A37CA47D017BFF7A5879F2FE7F021207E0
:10108000D0D3908083E09402908082E094007F002F
:1010900040027F0190A49CEFF090A49CE0700302BA
:1010A00013F190A49E7401F0A37480F0A3748AF0ED
:1010B00090A49EE0FBA3E0FAA3E0F91207F6645ABD
:1010C000603A908082E0FEA3E0248AF974803EFAC0
:1010D0007B01C003C002C00190A49EA3E0FAA3E07C
:1010E000F9C3D082D083D0E0E99582EA9583500C91
:1010F00090A49FE475F00112090D80B4908082E005
:10110000FEA3E0248AF974803EFA7B01C003C0028A
:10111000C00190A49EE0FBA3E0FAA3E0F9D082D046
:1011200083D0E06B7008E965827003EA658370071D
:10113000908082F0A3F02290A49EA3E0FAA3E0C3E3
:10114000948AFFEA9480FEC3908083E09FFF9080A2
:1011500082E09E90A49AF0A3EFF090A4A1E024FE78
:101160006055240260030212337E007FFF7D007B06
:10117000017AA1792A120B9DE490A4A2F090A49D7B
:10118000F090A496F0A3F0A3F0A3F090A498E0FE52
:10119000A3E0FFC39403EE9400501C74A32FF582C8
:1011A00074A43EF583E4F090A499E004F070DC9020
:1011B000A498E004F080D490A4A87401F0A374A1D2
:1011C000F0A3742AF0A37401F0A374A4F0A374969E
:1011D000F090A49AE0FFA3E090A4AECFF0A3EFF0CC
:1011E00090A49EE0FBA3E0FAA3E0F9123B4B90A48D
:1011F000A2EFF0A3F06401703A90A496E0FCA3E0A3
:10120000FD90A4AA7401F0A374A2F0A37429F07B4A
:10121000017AA1792A1255CFEF70030212D112453B
:10122000437E017F007D007B017AA27929120B9D0C
:101230000212D190A4A3E0640360030212D190A42F
:101240009F804490A49EE0FBA3E0FAA3E0F912077C
:10125000F6645A603A908082E0FEA3E0248AF97432
:10126000803EFA7B01C003C002C00190A49EA3E0AF
:10127000FAA3E0F9C3D082D083D0E0E99582EA9561
:1012800083500C90A49FE475F00112090D80B49076
:101290008082E0FEA3E0248AF974803EFA7B01C0DC
:1012A00003C002C00190A49EE0FBA3E0FAA3E0F912
:1012B000D082D083D0E06B7008E965827003EA6564
:1012C000837008908082F0A3F0800690A49D740142
:1012D000F090A4A2E06401600990A49DE070030274
:1012E00013E990A49EA3E0FAA3E0C3948AFFEA94D2
:1012F00080FEC3908083E09FFF908082E09EFE90FE
:10130000A496E0FCA3E0FDC3EF9DFFEE9CFE90A43D
:101310009AF0A3EFF0D39400EE94004068E490A418
:1013200098F0A3F090A49AE0FEA3E0FF90A498E0C8
:10133000FCA3E0FDC39FEC9E504390A49EE0FBA362
:10134000E0FAA3E0F990A496E0FEA3E0FFE92FF90C
:10135000EA3EFAE92DF9EA3CFA1207F6FF748A2D03
:10136000F58274803CF583EFF0E412083C90A49978
:10137000E004F070AF90A498E004F080A790A49CE3
:101380007401F08052E490A498F0A3F090A49EA37E
:10139000E0FAA3E0C3948AFFEA9480FE90A497E069
:1013A0002FFF90A496E03EFE90A498E0FCA3E0FD01
:1013B000C39FEC9E501C748A2DF58274803CF5838B
:1013C000E4F090A499E004F070C290A498E004F0D6
:1013D00080BAE490A49CF090A49AE0FFA3E09080EF
:1013E00082CFF0A3EFF0021099E490A49CF00210D9
:1013F0009922418080004280820000418081004229
:10140000808400004280860000428088000044A55D
:10141000B90000000044A4350000000041A43400DD
:101420006100A22900000000000000000000000090
:1014300000000000000000000000000000000000AC
:10144000000000000000000000000000000000009C
:10145000000000000000000000000000000000008C
:10146000000000000000000000000000000000007C
:10147000000000000000000000000000000000006C
:10148000000000000000000000000000000000005C
:10149000000000000000000000000000000000004C
:1014A000000000000000000000000000000000003C
:1014B000000000000000000000000000000000002C
:1014C000000000000000000000000000000000001C
:1014D000000000000000000000000000000000000C
:1014E00000000000000000000000000000000000FC
:1014F00000000000000000000000000000000000EC
:1015000000000000000000000000000000000000DB
:1015100000000000000000000000000000000000CB
:101520000000000060FFA335000000000000000084
:1015300000000000000000000000000000000000AB
:10154000000000000000000000000000000000009B
:10155000000000000000000000000000000000008B
:10156000000000000000000000000000000000007B
:10157000000000000000000000000000000000006B
:10158000000000000000000000000000000000005B
:10159000000000000000000000000000000000004B
:1015A000000000000000000000000000000000003B
:1015B000000000000000000000000000000000002B
:1015C000000000000000000000000000000000001B
:1015D000000000000000000000000000000000000B
:1015E00000000000000000000000000000000000FB
:1015F00000000000000000000000000000000000EB
:1016000000000000000000000000000000000000DA
:1016100000000000000000000000000000000000CA
:101620000000000000000042A58E000041A58D01D1
:1016300042A5875AA542A523000041A5140142A551
:1016400021000041A51F0041A4EC0041A4ED00428F
:10165000A4EE000042A4F0B00542A4F2550541A555
:10166000200042A5D00000C10941A54C0144A54875
:101670000000000042A44D000044A48E00000000C1
:1016800044A44F3EE9518344A46840490E5644A403
:101690003D3D32D5D044A4533ECD37BE44A45D0079
:1016A00000000044A48A0000000044A4720000006E
:1016B0000044A4920000000044A46E000000004218
:1016C000A488000044A4610000000044A44100007C
:1016D000000044A4590000000044A43900000000A8
:1016E00042A478000042A47A000042A457000042BD
:1016F000A46C000142A46600B041A4760B41A4771B
:101700000544A5510000000048A555000000010057
:1017100002000344A54D0000000044A5C5000000E0
:101720000044A5C9000000000078BA7CA47D017BBC
:10173000FF7A59794B7E007F0C1207D07B017AA487
:1017400079AE90A4E6E4F0A37404F07F107E131247
:1017500026FD7B017AA479B290A4E6E4F0A3740498
:10176000F07F507E141226FD7B017AA479B690A4F6
:10177000E6E4F0A37404F07F207E131226FD7B02C2
:101780007A007D207C137F007E431243F37B027A34
:10179000007D507C147F007E441243F37B027A006C
:1017A0007D107C137F007E411243F390A4AFE0FFD5
:1017B000E4FCFDFE7810120AD5C004C005C006C0C6
:1017C0000790A4AEE0FFE4FCFDFE7818120AD5D025
:1017D00003D002D001D000EF4BFFEE4AFEED49FDF1
:1017E000EC48FCC004C005C006C00790A4B0E0FFF0
:1017F000E4FCFDFE7808120AD5D003D002D001D057
:1018000000EF4BFBEE4AFAED49F9EC48F8A3E0FF94
:10181000EB4FFFEAFEE9FDE8FC90A4C6120B149022
:10182000A4B3E0FFE4FCFDFE7810120AD5C004C0AA
:1018300005C006C00790A4B2E0FFE4FCFDFE7818E6
:10184000120AD5D003D002D001D000EF4BFFEE4AF0
:10185000FEED49FDEC48FCC004C005C006C0079081
:10186000A4B4E0FFE4FCFDFE7808120AD5D003D052
:1018700002D001D000EF4BFBEE4AFAED49F9EC48FB
:10188000F8A3E0FFEB4FFFEAFEE9FDE8FC90A4CEF1
:10189000120B1490A4B7E0FFE4FCFDFE7810120ACE
:1018A000D5C004C005C006C00790A4B6E0FFE4FCA4
:1018B000FDFE7818120AD5D003D002D001D000EF77
:1018C0004BFFEE4AFEED49FDEC48FCC004C005C0EC
:1018D00006C00790A4B8E0FFE4FCFDFE7808120AF9
:1018E000D5D003D002D001D000EF4BFBEE4AFAED89
:1018F00049F9EC48F8A3E0FFEB4FFFEAFEE9FDE809
:10190000FC90A4CA120B14E47B107A27F9F890A477
:10191000C6E0FCA3E0FDA3E0FEA3E0FF120A24E47E
:101920007BE87A03F9F8120A2490A57CEBF0E47BBB
:1019300064FAF9F890A4C6E0FCA3E0FDA3E0FEA3DE
:10194000E0FF120A24E47B64FAF9F8120A2490A555
:101950007DEBF0E47B64FAF9F890A4C6E0FCA3E028
:10196000FDA3E0FEA3E0FF120A2490A57EEBF0E4C5
:101970007B107A27F9F890A4CEE0FCA3E0FDA3E069
:10198000FEA3E0FF120A24E47BE87A03F9F8120AC6
:101990002490A580EBF0E47B64FAF9F890A4CEE003
:1019A000FCA3E0FDA3E0FEA3E0FF120A24E47B64B5
:1019B000FAF9F8120A2490A581EBF0E47B64FAF9B5
:1019C000F890A4CEE0FCA3E0FDA3E0FEA3E0FF12AC
:1019D0000A2490A582EBF0E47B107A27F9F890A412
:1019E000CAE0FCA3E0FDA3E0FEA3E0FF120A24E4AA
:1019F0007BE87A03F9F8120A2490A584EBF0E47BE3
:101A000064FAF9F890A4CAE0FCA3E0FDA3E0FEA309
:101A1000E0FF120A24E47B64FAF9F8120A2490A584
:101A200085EBF0E47B64FAF9F890A4CAE0FCA3E04B
:101A3000FDA3E0FEA3E0FF120A2490A586EBF07B55
:101A4000017AA5797B90A4D7E4F0A37406F07F0017
:101A50007E4002406690A536E0FEA3E0FF90A44ED3
:101A6000E0FD1222547B017AA4796E90A4E6E4F0A2
:101A7000A37404F07F007E261224B090A536E0FC0B
:101A8000A3E0FDE412041CE4FBFA797A7844120323
:101A90000190A48E120B1490A44EE0640160030226
:101AA0001B8890A536E0FCA3E0FDE412041CE4FBD7
:101AB000FA797A784412030190A453E0F8A3E0F98C
:101AC000A3E0FAA3E0FB12010790A45D120B14E45B
:101AD000FFFEFD7C4090A44FE0F8A3E0F9A3E0FAFC
:101AE000A3E0FB1201F890A45DE0F8A3E0F9A3E005
:101AF000FAA3E0FB1201F890A472120B1490A44F09
:101B0000E0FCA3E0FDA3E0FEA3E0FF90A45DE0F80D
:101B1000A3E0F9A3E0FAA3E0FB1201F8C004C005BA
:101B2000C006C00790A4A8120B2040000000D007F8
:101B3000D006D005D004122D0290A468E0F8A3E0EE
:101B4000F9A3E0FAA3E0FB1201F890A48A120B14A7
:101B500090A45DE0FCA3E0FDA3E0FEA3E0FF90A461
:101B60008AE0F8A3E0F9A3E0FAA3E0FB1201F8E4AD
:101B7000FBFA7940784012030190A492120B147B77
:101B8000017AA47992021D0990A44EE064026003D8
:101B9000021C4A90A536E0FCA3E0FDE412041CE41C
:101BA000FBFA797A784412030190A453E0F8A3E099
:101BB000F9A3E0FAA3E0FB12010790A45D120B1455
:101BC000E4FFFEFD7C4090A43DE0F8A3E0F9A3E033
:101BD000FAA3E0FB1201F890A45DE0F8A3E0F9A3FA
:101BE000E0FAA3E0FB1201F890A472120B1490A487
:101BF0003DE0FCA3E0FDA3E0FEA3E0FF90A45DE0D8
:101C0000F8A3E0F9A3E0FAA3E0FB1201F8C004C0D6
:101C100005C006C00790A4A8120B2040000000D009
:101C200007D006D005D004122D0290A468E0F8A3D6
:101C3000E0F9A3E0FAA3E0FB1201F890A48A120BEA
:101C4000147B017AA4798A021D0990A44EE06403F2
:101C50006003021D1990A536E0FCA3E0FDE4120428
:101C60001CE4FBFA797A784412030190A453E0F85B
:101C7000A3E0F9A3E0FAA3E0FB12010790A45D1230
:101C80000B14E4FFFEFD7C4090A44FE0F8A3E0F9C4
:101C9000A3E0FAA3E0FB1201F890A45DE0F8A3E052
:101CA000F9A3E0FAA3E0FB1201F890A472120B145E
:101CB00090A44FE0FCA3E0FDA3E0FEA3E0FF90A40E
:101CC0005DE0F8A3E0F9A3E0FAA3E0FB1201F8C09D
:101CD00004C005C006C00790A4A8120B2040000055
:101CE00000D007D006D005D004122D0290A468E0E1
:101CF000F8A3E0F9A3E0FAA3E0FB1201F890A48AAC
:101D0000120B147B017AA4798A90A4E6E4F0A37400
:101D100004F07F507E281224B07B017AA4798E9043
:101D2000A4E6E4F0A37404F07F007E251224B07BC7
:101D3000017AA4797290A4E6E4F0A37404F07F40E1
:101D40007E280224B078B67CA47D017BFF7A597985
:101D50001A7E007F061207D07B017AA479AE90A488
:101D6000E6E4F0A37404F07F007E131226FD7B01ED
:101D70007AA479B290A4E6E4F0A37404F07F057E1F
:101D8000131226FD90A4AFE0FFE4FCFDFE781012D4
:101D90000AD5C004C005C006C00790A4AEE0FFE4A9
:101DA000FCFDFE7818120AD5D003D002D001D00075
:101DB000EF4BFFEE4AFEED49FDEC48FCC004C005C8
:101DC000C006C00790A4B0E0FFE4FCFDFE78081256
:101DD0000AD5D003D002D001D000EF4BFBEE4AFA77
:101DE000ED49F9EC48F8A3E0FFEB4FFFEAFEE9FD0F
:101DF000E8FC90A4BC120B1490A4B3E0FFE4FCFD3B
:101E0000FE7810120AD5C004C005C006C00790A411
:101E1000B2E0FFE4FCFDFE7818120AD5D003D00230
:101E2000D001D000EF4BFFEE4AFEED49FDEC48FC3F
:101E3000C004C005C006C00790A4B4E0FFE4FCFDE8
:101E4000FE7808120AD5D003D002D001D000EF4BA3
:101E5000FBEE4AFAED49F9EC48F8A3E0FFEB4FFF3F
:101E6000EAFEE9FDE8FC90A589120B14E47B64FA14
:101E7000F9F890A589E0FCA3E0FDA3E0FEA3E0FF54
:101E8000120A2490A4BBEBF0E47B64FAF9F890A565
:101E900089E0FCA3E0FDA3E0FEA3E0FF120A24E436
:101EA0007B64FAF9F8120A2490A4BAEBF0E47B10F0
:101EB0007A27F9F890A589E0FCA3E0FDA3E0FEA352
:101EC000E0FF120A24E47B64FAF9F8120A2490A4D1
:101ED000B9EBF0E47B64FAF9F890A4BCE0FCA3E071
:101EE000FDA3E0FEA3E0FF120A2490A4B8EBF0E407
:101EF0007B64FAF9F890A4BCE0FCA3E0FDA3E0FE4B
:101F0000A3E0FF120A24E47B64FAF9F8120A249091
:101F1000A4B7EBF0E47B107A27F9F890A4BCE0FCBE
:101F2000A3E0FDA3E0FEA3E0FF120A24E47B64FA31
:101F3000F9F8120A2490A4B6EBF0A3E0FFD39400C2
:101F400074809480406ED3EF940C748094805064BD
:101F5000A3E0FF941F748094805054EF9400748029
:101F60009480404BA3E0D39417748094805039C37D
:101F7000748094804032A3E0D3943B74809480506A
:101F800020C3748094804019A3E0D3943B74809460
:101F9000805007C3748094805020E490A4BBF080EC
:101FA00019E490A4BAF08012E490A4B9F0800B90E8
:101FB000A4B8800390A4B77401F07B017AA479B629
:101FC00090A4E6E4F0A37406F07F9D7E001224B096
:101FD0007B017AA5798790A4E6E4F0A37402F07FF0
:101FE0009C7E001224B0022B5290A496EBF0A3EA40
:101FF000F0A3E9F090A441E0FCA3E0FDA3E0FEA380
:10200000E0FFEC4D4E4F700302225390A441120B9F
:10201000200000000090A461E0F8A3E0F9A3E0FA3A
:10202000A3E0FBC000C001C002C0037B007A40797E
:102030001C784690A46EE0FCA3E0FDA3E0FEA3E0C4
:10204000FF120301D003D002D001D000120107908B
:10205000A461120B1490A439E0FCA3E0FDA3E0FE00
:10206000A3E02401FFE43EFEE43DFDE43CFC90A43B
:1020700039120B14E47F0AFEFDFC90A439E0F8A3AA
:10208000E0F9A3E0FAA3E0FBC3120AC4402990A43C
:1020900039120B200000000090A459E0FCA3E0FDE1
:1020A000A3E0FEA3E02401FFE43EFEE43DFDE43CAA
:1020B000FC90A459120B1490A536E0FEA3E0FF900B
:1020C000A496A3E0FAA3E0F5828A83120B9B90A565
:1020D00051E0FCA3E0FDA3E0FEA3E0FF120455AB3A
:1020E00007AA067C007D3C12088290A49BEEF0A318
:1020F000EFF07C007D3CAF03AE0212088290A49901
:10210000ECF0A3EDF07B017AA4799B90A4E6E4F0D7
:10211000A37402F07F007E281224B07B017AA47998
:102120009990A4E6E4F0A37402F07F057E281224BF
:10213000B090A459E0FCA3E0FDA3E0FEA3E0FFE41F
:1021400012041790A551E0F8A3E0F9A3E0FAA3E088
:10215000FB120107120455AB07AA067C007D3C1256
:10216000088290A49BEEF0A3EFF07C007D3CAF03CF
:10217000AE0212088290A499ECF0A3EDF07B017AF4
:10218000A4799990A4E6E4F0A37402F07F257E2858
:102190001224B07B017AA4799B90A4E6E4F0A374A6
:1021A00002F07F207E281224B07B017AA47961900E
:1021B000A4E6E4F0A37404F07F007E271224B0E4C8
:1021C000FFFE7D7A7C4490A461E0F8A3E0F9A3E0EF
:1021D000FAA3E0FB1201F890A54DE0F8A3E0F9A303
:1021E000E0FAA3E0FB12039E501EE4FBFA797A7832
:1021F0004490A54DE0FCA3E0FDA3E0FEA3E0FF12A8
:10220000030190A461120B147F007E507DC37C47B4
:1022100090A461E0F8A3E0F9A3E0FAA3E0FB1201C7
:10222000F890A54DE0F8A3E0F9A3E0FAA3E0FB12D3
:10223000030112045590A488EEF0A3EFF07B017A1D
:10224000A4798890A4E6E4F0A37402F07F307E289D
:102250001224B02290A496EDF0AB07AA06E4A3F0F6
:10226000A3120B200000000090A4A0120B2000007D
:102270000000AE02AF037C007D0A120882AC06ADFE
:1022800007E412041C90A49C120B14E4FFFE7D20B2
:102290007C4190A49CE0F8A3E0F9A3E0FAA3E0FB62
:1022A00012039E60025023E4FFFE7DA07C4090A4B8
:1022B0009CE0F8A3E0F9A3E0FAA3E0FB12039E4040
:1022C0000990A4977401F0022391E4FFFE7DA07CA5
:1022D0004190A49CE0F8A3E0F9A3E0FAA3E0FB128C
:1022E000039E60025025E4FFFE7D207C4190A49C6B
:1022F000E0F8A3E0F9A3E0FAA3E0FB12039E600B71
:10230000400990A4977402F0022391E4FFFE7DC877
:102310007C4290A49CE0F8A3E0F9A3E0FAA3E0FBE0
:1023200012039E60025024E4FFFE7DA07C4190A435
:102330009CE0F8A3E0F9A3E0FAA3E0FB12039E609F
:102340000A400890A4977403F08046E4FFFE7D964F
:102350007C4390A49CE0F8A3E0F9A3E0FAA3E0FB9F
:1023600012039E60025024E4FFFE7DC87C4290A4CC
:102370009CE0F8A3E0F9A3E0FAA3E0FB12039E605F
:102380000A400890A4977404F0800690A4977405FE
:10239000F090A497E024FE603914605F147003028B
:1023A00024262403600302247C90A4A8120B20BFDF
:1023B000CCCCCD90A49CE0FCA3E0FDA3E0FEA3E088
:1023C000FF122D0290A4A0120B147FDC7EAF7D0EB5
:1023D000805090A4A8120B20BFECCCCD90A49CE020
:1023E000FCA3E0FDA3E0FEA3E0FF122D0290A4A059
:1023F000120B147FB87E287D80802790A4A8120B32
:1024000020BFE7AE1490A49CE0FCA3E0FDA3E0FE97
:10241000A3E0FF122D0290A4A0120B147F407E16A1
:102420007D617C47802990A4A8120B20C000000089
:1024300090A49CE0FCA3E0FDA3E0FEA3E0FF122D2E
:102440000290A4A0120B147F047EF67D077C4890B6
:10245000A4A0E0F8A3E0F9A3E0FAA3E0FB1201F8DE
:1024600090A498120B1490A498E0FCA3E0FDA3E0C4
:10247000FEA3E0FF90A46E120B14800690A4977444
:102480000AF090A496E0FF64016005EF6403701FFA
:1024900090A46EE0FCA3E0FDA3E0FEA3E0FF7B9A26
:1024A0007A997919783F1201F890A46E120B1422D0
:1024B00090A4E3EBF0A3EAF0A3E9F0AD07AC06903B
:1024C000A4E3E0FBA3E0FAA3E04A4B70030226FC7E
:1024D000A3E0FEA3E0FF4E70030226FCEEC313FE52
:1024E000EF132DFFEE3CFED3EF94FEEE94FF40037E
:1024F0000226FCC2AFED5401FBECC313FCED13FD4F
:10250000AE047810CEC313CE13D8F9F5F1ECF5F282
:10251000AF058FF3E4F5F875F401D2FF30FCFDC28E
:10252000FDEB6401707C90A4E6E0FEA3E0FF640193
:102530004E700AC2FBC2FAD2F9C2F88008C2FBC2CE
:10254000FAD2F9D2F8EF64014E90A4E3701AE0FBDE
:10255000A3E475F001120923A9F0FA1207F6F5FCBD
:1025600090A4E7E024FF802DE0FBA3E475F00112C6
:102570000923A9F0FA1207F6F5FC90A4E3E0FBA307
:10258000E475F001120923A9F0FA1207F6F5FD909F
:10259000A4E7E024FEF090A4E6E034FFF0D2FE20B1
:1025A000FEFD90A4E6E0FEA3E0FF4E70030226F7D6
:1025B000C3EF9404EE94004003022685EE7022EFF0
:1025C00014601614600D147018D2FBD2FAD2F9C23E
:1025D000F8800ED2FBD2FA8004D2FBC2FAC2F9C252
:1025E000F890A4E6E0FEA3E0FFEE600302267EEF93
:1025F00014607614604714600302267E90A4E3E022
:10260000FBA3E475F001120923A9F0FA1207F6F50D
:10261000FA90A4E3E0FBA3E475F001120923A9F00A
:10262000FA1207F6F5FB90A4E3E0FBA3E475F001D2
:10263000120923A9F0FA1207F6F5FC804190A4E3F1
:10264000E0FBA3E475F001120923A9F0FA1207F6E2
:10265000F5FA90A4E3E0FBA3E475F001120923A9C5
:10266000F0FA1207F6F5FB801590A4E3E0FBA3E473
:1026700075F001120923A9F0FA1207F6F5FAD2FE55
:1026800030FE7480FBD2FBD2FAD2F9D2F890A4E3E8
:10269000E0FBA3E475F001120923A9F0FA1207F692
:1026A000F5FA90A4E3E0FBA3E475F001120923A975
:1026B000F0FA1207F6F5FB90A4E3E0FBA3E475F053
:1026C00001120923A9F0FA1207F6F5FC90A4E3E041
:1026D000FBA3E475F001120923A9F0FA1207F6F53D
:1026E000FDD2FE20FEFD90A4E7E024FCF090A4E6DD
:1026F000E034FFF00225A2E4F5F8D2AF2290A4E383
:10270000EBF0A3EAF0A3E9F0AD07AC0690A4E3E098
:10271000FBA3E0FAA3E04A4B7003022944A3E0FEC6
:10272000A3E0FF4E7003022944EEC313FEEF132D06
:10273000FFEE3CFED3EF94FEEE94FF4003022944EB
:10274000C2AFED5401FBECC313FCED13FDAE0478F6
:1027500010CEC313CE13D8F9F5F1ECF5F2AF058F17
:10276000F3E4F5F875F401D2FF30FCFDD2FDEB6423
:1027700001707D90A4E6E07004A3E06401700AC2D9
:10278000FBC2FAD2F9C2F88008C2FBC2FAD2F9D26F
:10279000F8D2FE20FEFD90A4E6E07004A3E0640100
:1027A00090A4E3701BE0FBA3E475F001120923A9D8
:1027B000F0FAE5FC12083C90A4E7E024FF0229347B
:1027C000E0FBA3E475F001120923A9F0FAE5FC127D
:1027D000083C90A4E3E0FBA3E475F001120923A9EF
:1027E000F0FAE5FD12083C90A4E7E024FE0229344B
:1027F00090A4E6E0FEA3E0FF4E700302293FC3EF82
:102800009404EE940040030228CDEE7022EF146091
:102810001614600D147018D2FBD2FAD2F9C2F880E7
:102820000ED2FBD2FA8004D2FBC2FAC2F9C2F8D2AD
:10283000FE20FEFD90A4E6E0FEA3E0FFEE600302B2
:10284000293FEF14607014604414600302293F9024
:10285000A4E3E0FBA3E475F001120923A9F0FAE573
:10286000FA12083C90A4E3E0FBA3E475F00112091E
:1028700023A9F0FAE5FB12083C90A4E3E0FBA3E4F3
:1028800075F001120923A9F0FAE5FC803B90A4E35E
:10289000E0FBA3E475F001120923A9F0FAE5FA12AE
:1028A000083C90A4E3E0FBA3E475F001120923A91E
:1028B000F0FAE5FB801290A4E3E0FBA3E475F001DD
:1028C000120923A9F0FAE5FA12083C8072D2FBD271
:1028D000FAD2F9D2F8D2FE20FEFD90A4E3E0FBA3E9
:1028E000E475F001120923A9F0FAE5FA12083C9008
:1028F000A4E3E0FBA3E475F001120923A9F0FAE5D3
:10290000FB12083C90A4E3E0FBA3E475F00112097C
:1029100023A9F0FAE5FC12083C90A4E3E0FBA3E451
:1029200075F001120923A9F0FAE5FD12083C90A404
:10293000E7E024FCF090A4E6E034FFF00227F0E4A6
:10294000F5F8D2AF2290A4EDE004F0E490A521F0D8
:10295000A3F090A51FE07010E004F090A4EEE4F066
:10296000A3740AF07E00FF2290A4EEE0FEA3E0FF35
:10297000C3744E9FFD74029EFCE412041C90A5518A
:10298000E0F8A3E0F9A3E0FAA3E0FB12039E407D88
:1029900090A4EEE0FEA3E0FF744E9FFD74029EFC47
:1029A000E412041CA804A905AA06AB0790A551E0EF
:1029B000FCA3E0FDA3E0FEA3E0FF120301E4FBFAA9
:1029C0007980783F12010712045590A4ECEFF0A330
:1029D000E0C39F5003022B3CE4F090A51FE004F0FD
:1029E00090A4EFE02402F090A4EEE03400F0E0FECA
:1029F000A3E0FFD3945AEE94014003022B2EC3EFC1
:102A000094D2EE94014003022B33022B2E90A4EEBD
:102A1000E0FEA3E0FFC3744E9FFD74029EFCE4122F
:102A2000041C90A551E0F8A3E0F9A3E0FAA3E0FBB1
:102A300012039E6002506E90A4EEE0FEA3E0FFC37E
:102A4000744E9FFF74029EC313FCEF13FDE4120447
:102A50001C90A551E0F8A3E0F9A3E0FAA3E0FB1273
:102A6000039E404190A4EC7402F0A3E09402500352
:102A7000022B3CE4F090A51FE004F090A4EFE024CA
:102A800002F090A4EEE03400F0E0FEA3E0FFD39467
:102A90005AEE94015009C3EF94D2EE940150030210
:102AA0002B2E022B3390A4EEE0FEA3E0FFC3744E66
:102AB0009FFF74029EC313FCEF13FDE412041C90ED
:102AC000A551E0F8A3E0F9A3E0FAA3E0FB12039E0E
:102AD0006002506890A4EEE0FEA3E0FFC3744E9F36
:102AE000FD74029EFCE412041C90A551E0F8A3E0E2
:102AF000F9A3E0FAA3E0FB12030112045590A4EC41
:102B0000EFF0E4A3F090A51FE004F090A4EFE02F15
:102B1000F090A4EEE03400F0E0FEA3E0FFD3945A7E
:102B2000EE94015009C3EF94D2EE940150057EFF5C
:102B30007FFE2290A4EEE0FEA3E0FF2290A51FE01E
:102B4000D394227480948140057EFF7FFF22E4FEAF
:102B5000FF2278C27CA47D017BFF7A5979287E0010
:102B60007F021207D07B017AA479C090A4E6E4F03A
:102B7000A37402F07F9C7E001226FD90A4C0E06446
:102B80005A7004A3E064A56003022D0190A4C4F070
:102B9000A3F0D20078C67CA47D017BFF7A59792A04
:102BA000FE7F071207D07B017AA479CD90A4E6E4DA
:102BB000F0A37402F07F9D7E001226FD90A4CDE06C
:102BC000FCA3E0FDEC90A4C4F0E0FF75F00A84C41F
:102BD00054F0FEEF75F00A84EE25F090A4C6F09054
:102BE000A4C4EDF0E0FF75F00A84C454F0FEEF7564
:102BF000F00A84EE25F090A4C7F07B017AA479CD89
:102C000090A4E6E4F0A37402F07F9E7E001226FDFD
:102C100090A4CDE0FCA3E0FDEC90A4C4F0E0FF752F
:102C2000F00A84C454F0FEEF75F00A84EE25F090AB
:102C3000A4C8F090A4C4EDF0E0FF75F00A84C45479
:102C4000F0FEEF75F00A84EE25F090A4CAF07B0147
:102C50007AA479CD90A4E6E4F0A37402F07F9F7E7D
:102C6000001226FD90A4CDE0FCA3E0FDEC90A4C4EE
:102C7000F0E0FF75F00A84C454F0FEEF75F00A84AA
:102C8000EE25F090A4CBF090A4C4EDF0E0FF75F039
:102C90000A84C454F0FEEF75F00A84EE25F090A487
:102CA000CCF07B017AA479C290A4E6E4F0A304F00E
:102CB0007F9C7E001224B0300047124B267F1012FA
:102CC0004B6490A4CCE0FF124B6490A4CBE0FF12C5
:102CD0004B6490A4CAE0FF124B6490A4C9E0FF12B9
:102CE0004B6490A4C8E0FF124B6490A4C7E0FF12AD
:102CF0004B6490A4C6E0FF124B59125669C2008083
:102D0000B62290A4A4120B14E4FFFE7D807C3F90B9
:102D1000A4A4E0F8A3E0F9A3E0FAA3E0FB12039E69
:102D2000700690A4A4022E5C90A4A4E0FCA3E0FD95
:102D3000A3E0FEA3E0FF1204D6FBA3E0FCA3E0FDAA
:102D4000A3E0FEA3E0FF1204D6FFB40108E4FFFEF7
:102D50007D807C3F22EF64046029EB64046024EBF7
:102D6000B40130E4FFFEFDFC90A4A8E0F8A3E0F974
:102D7000A3E0FAA3E0FB12039E60084006E4FFFE16
:102D8000FDFC2290A4A8120B20FFFFFFFF90A4A837
:102D9000022E5CE490A4ACF0A3F0FFFEFDFC90A436
:102DA000A4E0F8A3E0F9A3E0FAA3E0FB12039E502D
:102DB0005F90A4A8E0FCA3E0FDA3E0FEA3E0FF1267
:102DC000045590A4ACEEF0A3EFF0FDCCEECCEC12E9
:102DD000041CC8ECC8C9EDC9CAEECACBEFCB90A49D
:102DE000A8E0FCA3E0FDA3E0FEA3E0FF120103E4E2
:102DF000FBFAF9F812039E708A90A4A4E0FCA3E009
:102E0000FDA3E0FEA3E0FF1204F090A4A4120B14B3
:102E100090A4A4E0FCA3E0FDA3E0FEA3E0FF123237
:102E20007890A4A8E0F8A3E0F9A3E0FAA3E0FB12ED
:102E300001F81246C090A4A8120B1490A4ADE03083
:102E4000E01790A4A8E0FCA3E0FDA3E0FEA3E0FF50
:102E50001204F090A4A8120B1490A4A8E0FCA3E024
:102E6000FDA3E0FEA3E0FF2290A4A1EBF090A4A0BC
:102E7000EDF0EF24D0FEE4340790A4A3F0A3CEF04D
:102E8000EDFF64016005EF6402701590A4A0E024DA
:102E90000CF090A4A4E024FFF090A4A3E034FFF091
:102EA00090A4A3E0FEA3E0FFC394D8EE94064034C0
:102EB000BE0610BFD80D90A4A0E0C39409748094FE
:102EC00080402190A4A3E064067004A3E064D8705D
:102ED0006590A4A0E06409705DA3E0C394037480CE
:102EE0009480505290A4A0E0FB2401FFE433FE7CC8
:102EF000007D031208707D051208D7AD07EB75F051
:102F000002A4FFA3E07A002FFFEA35F0CF2DCF3ED9
:102F1000FE90A4A3E0FCA3E0FD2FFBEC3EFAAE0480
:102F2000ED7802CEC313CE13D8F92BFFEA3ECF249F
:102F300006CF3400807C90A4A0E02401FFE433FE9F
:102F40007C007D031208707D051208D7AC06AD0722
:102F5000A3E02401FBE433FA90A4A0E075F002A4FE
:102F60002BFFE5F03ACF2DCF3CFE90A4A3E0FCA3CD
:102F7000E0FD2FFBEC3EFAAE04ED7802CEC313CE9B
:102F800013D8F92BFBEA3EFA90A4A3E0FEA3E0FFDE
:102F90007C007D64120882C3EB9FFBEA9EFA90A43A
:102FA000A3E0FEA3E0FF7C017D90120882EF2BFFDF
:102FB000EE3AFE7C007D0712088290A4A2EDF0900C
:102FC000A4A2E0FF2290A54CE0FF7E001255749071
:102FD000A496EEF0A3EFF090A54CE024FD605C24F5
:102FE000FE70030230892404600302311090A54C66
:102FF0007403F090A496E0FCA3E0FDE412041C7BB3
:10300000DD7AD4790D78411201F8E4FBFA797A7807
:10301000441203017B5C7A8F7982783F1201F89029
:10302000A540120B147B017AA5794090A4E6E4F048
:10303000A37404F07F007E4502310D90A54C740509
:10304000F090A496E0FCA3E0FDE412041C7BE57A7A
:103050004C79CE783F1201F8E4FBFA797A78441281
:1030600003017BAE7A477981783F1201F890A53C45
:10307000120B147B017AA5793C90A4E6E4F0A374CA
:1030800004F07F007E4402310D90A54C7401F09055
:10309000A496E0FCA3E0FDE412041C7BDD7AD47965
:1030A0000D78411201F8E4FBFA797A7844120301B1
:1030B0007B5C7A8F7982783F1201F890A538120BE9
:1030C0001490A538E0F8A3E0F9A3E0FAA3E0FB90A0
:1030D000A540E0FCA3E0FDA3E0FEA3E0FF12010396
:1030E000E4FBFAF9783F1203017B5C7A8F798278EE
:1030F0003F1201F890A544120B147B017AA5794484
:1031000090A4E6E4F0A37404F07F007E431224B0A0
:103110002278987CA47D017BFF7A5979207E007FFC
:10312000081207D0124B5F1256731257B27F651206
:103130004B647C06ECD39400748094804015125547
:10314000A274982CF582E434A4F583EFF0120016F3
:103150001C80E11255A290A498EFF012584212562A
:1031600078E4FCECC3940374809480503074982C01
:10317000F582E434A4F583E0FFC4540FFE90A496D6
:10318000F0EF540FFFA3F0EE75F00AA42FFF749830
:103190002CF582E434A4F583EFF00C80C67C04ECBB
:1031A000C3940774809480503074982CF582E43472
:1031B000A4F583E0FFC4540FFE90A496F0EF540FE3
:1031C000FFA3F0EE75F00AA42FFF74982CF582E4AB
:1031D00034A4F583EFF00C80C690A498E0FFA3E040
:1031E000FDA3E0FB122E6890A49BEFF07B017AA474
:1031F000799890A4E6E4F0A37402F07F107E0012A8
:1032000024B07B017AA4799A90A4E6E4F0A3740236
:10321000F07F117E001224B07B017AA4799C90A4E7
:10322000E6E4F0A37402F07F127E001224B07B016A
:103230007AA4799E90A4E6E4F0A37402F07F137E52
:10324000000224B03E9248DA3ECCCCCD3F2AAAAB55
:10325000400000003F8000003F9837F03FB504F386
:103260003FD744FC3E3172173EB172173F051591AE
:103270003EDE5BD9D2008002C200EDD2E7F8CD334A
:10328000EC3304700BBD800592D50204CB0204C15F
:1032900040FBD31460F2F5F07C3FEE7A00C39496C5
:1032A000C8948B40230AC89469C8941A401A0AC863
:1032B0009468C8941F40110AC8945AC894254008BD
:1032C00005F07A00CDC2E7CDC0F090A4AE120B1489
:1032D000EA2323C0E02454F582E43432F583120B50
:1032E00004120107ECC0E0EDC0E0EEC0E0EFC0E08A
:1032F000120AE890A4AE120AF8120103D0E0FBD043
:10330000E0FAD0E0F9D0E0B2E7F812030190A4AE01
:10331000120B14903244740312064390A4AE120AA6
:10332000F81201F8D0E0600F2460F582E43432F541
:1033300083120B0412010790A4AE120B14D0E0C349
:10334000947FFDE49400FC12041C7B187A7279319E
:10335000783F1201F890A4AE120AF812010730006B
:103360000B7BD97A5B79DE783E1201F82290A44E6D
:10337000E064017016124F307B017AA5795590A454
:10338000E6E4F0A37402F07F05803A90A44EE06476
:10339000017016124F307B017AA5795590A4E6E4AE
:1033A000F0A37402F07F06801C90A44EE0640170CC
:1033B00019124F307B017AA5795590A4E6E4F0A369
:1033C0007402F07F077E511224B090A44EE090A4C6
:1033D00048F0E4A3F090A476E090A44AF090A457BB
:1033E000E0FFA3E090A44BCFF0A3EFF090A466E041
:1033F000FEA3E0FF7B017AA4794590A4E6E4F0A364
:103400007408F01224B090A466E0FEA3E0FF7B01F4
:103410007AA4797890A4E6E4F0A37402F01226FD71
:1034200090A479E0FF90A478E0B507DA90A44974FD
:1034300001F090A477E090A44AF090A466E0FEA387
:10344000E0FF7B017AA4794590A4E6E4F0A3740838
:10345000F01224B090A466E0FEA3E0FF7B017AA402
:10346000797890A4E6E4F0A37402F01226FD90A40B
:1034700079E0FF90A478E0B507DA90A47AE4F0A3AD
:1034800004F0227B017AA4799A90A4E6E4F0A37474
:1034900002F07F007E511226FD90A49AE0FEA3E088
:1034A000FFEE704CEF24FE601914602214602B14A0
:1034B00060342404703A90A54D120B2043FA0000AA
:1034C000802E90A54D120B20447A0000802290A5FA
:1034D0004D120B2044BB8000801690A54D120B208E
:1034E000451C4000800A90A54D120B20457A000033
:1034F00090A536E0FEA3E0FF123C2A90A551E0FC27
:10350000A3E0FDA3E0FEA3E0FF120455AB07AA066B
:103510007C007D3C12088290A498EEF0A3EFF07C32
:10352000007D3CAF03AE0212088290A496ECF0A39B
:10353000EDF07B017AA4799890A4E6E4F0A37402FC
:10354000F07F207E281224B07B017AA4799890A481
:10355000E6E4F0A37402F07F007E281224B07B0121
:103560007AA4799690A4E6E4F0A37402F07F057E35
:10357000281224B07B017AA4799690A4E6E4F0A303
:103580007402F07F257E280224B07B017AA4799A08
:1035900090A4E6E4F0A37402F07F017E511226FDB0
:1035A00090A49AE0FEA3E0FFEE704CEF24FE6019B9
:1035B00014602214602B1460342404703A90A5C562
:1035C000120B20447A0000802E90A5C5120B2044D7
:1035D000FA0000802290A5C5120B20453B80008098
:1035E0001690A5C5120B20459C4000800A90A5C5E9
:1035F000120B2045DAC00090A536E0FEA3E0FF12D2
:103600003D0990A551E0FCA3E0FDA3E0FEA3E0FF8F
:10361000120455AB07AA067C007D3C12088290A4D8
:1036200098EEF0A3EFF07C007D3CAF03AE021208F1
:103630008290A496ECF0A3EDF07B017AA4799890A7
:10364000A4E6E4F0A37402F07F207E281224B07B6D
:10365000017AA4799890A4E6E4F0A37402F07F00C4
:103660007E281224B07B017AA4799690A4E6E4F037
:10367000A37402F07F057E281224B07B017AA4791E
:103680009690A4E6E4F0A37402F07F257E2802243D
:10369000B07B017AA4799A90A4E6E4F0A37402F0D6
:1036A0007F017E511226FD90A49AE0FEA3E0FFEE7A
:1036B000704CEF24FE601914602214602B146034E7
:1036C0002404703A90A5C9120B20447A0000802E81
:1036D00090A5C9120B2044FA0000802290A5C912BF
:1036E0000B20453B8000801690A5C9120B20459CFD
:1036F0004000800A90A5C9120B2045DAC00090A5B1
:1037000036E0FEA3E0FF123DE890A551E0FCA3E007
:10371000FDA3E0FEA3E0FF120455AB07AA067C0060
:103720007D3C12088290A498EEF0A3EFF07C007D1F
:103730003CAF03AE0212088290A496ECF0A3EDF029
:103740007B017AA4799890A4E6E4F0A37402F07F58
:10375000207E281224B07B017AA4799890A4E6E414
:10376000F0A37402F07F007E281224B07B017AA4BB
:10377000799690A4E6E4F0A37402F07F057E281207
:1037800024B07B017AA4799690A4E6E4F0A37402B5
:10379000F07F257E280224B0AEAD90A523E0FCA3E7
:1037A000E0FDEC704BED146020047044EE64576053
:1037B0000302389874262DF58274A53CF583EEF04B
:1037C00090A523E4F0A304F022EE701C90A523E062
:1037D000FCA3E02426F58274A53CF583EEF090A5C9
:1037E00023E4F0A37402F022E490A523F0A3F022D6
:1037F00090A523E0FCA3E02426F58274A53CF58384
:10380000EEF090A524E004F0700690A523E004F00B
:10381000D390A524E0940F90A523E094004079E490
:10382000F0A3F090A527E0FF90A526E02FFF90A53C
:1038300028E02FFFA3E02FFFA3E02FFFA3E02FFF3F
:10384000A3E02FFFA3E02FFFA3E02FFFA3E02FFFB4
:10385000A3E0FD2FFFA3E0FE2FFFA3E02FFFA3E0D7
:103860002FFFA3E02FFFA3E0B5072DEE702A90A550
:103870002FE07B00FAED7E007810C333CE33CED834
:10388000F9FFEE4AFEEF4BFF90A52EE0FDEF4DFF56
:1038900090A536EEF0A3EFF022C0E0C0F0C083C0E8
:1038A00082C0D075D000C000C001C002C003C004F7
:1038B000C005C006C007C2AF758CBC758ACD90A587
:1038C0008FE004F0700690A58EE004F090A5B9E0BA
:1038D000FCA3E0FDA3E0FEA3E02401FFE43EFEE440
:1038E0003DFDE43CFC90A5B9120B14E47F64FEFDA1
:1038F000FC90A5B9E0F8A3E0F9A3E0FAA3E0FBC3CC
:10390000120AC4406490A522E004F0700690A5213C
:10391000E004F090A441E0FCA3E0FDA3E0FEA3E0FE
:103920002401FFE43EFEE43DFDE43CFC90A4411292
:103930000B1490A548E0FCA3E0FDA3E0FEA3E02467
:1039400001FFE43EFEE43DFDE43CFC90A548120B83
:103950001490A5D1E004F0700690A5D0E004F0909A
:10396000A5B9120B2000000000D2AFD007D006D0BE
:1039700005D004D003D002D001D000D0D0D082D066
:1039800083D0F0D0E03290A47AE07004A3E0640128
:103990006003023A6890A44EE0FF6401600AEF649D
:1039A000026005EF640370077D027F04125052909D
:1039B000A44EE090A448F090A46CE0FFA3E090A493
:1039C0004BCFF0A3EFF090A477E090A44AF090A43E
:1039D000497401F090A466E0FEA3E0FF7B017AA4A5
:1039E000794590A4E6E4F0A37408F01224B090A402
:1039F00066E0FEA3E0FF7B017AA4797890A4E6E478
:103A0000F0A37402F01226FD90A479E0FF90A47850
:103A1000E0B507DA90A476E090A44AF0E490A449D7
:103A2000F090A466E0FEA3E0FF7B017AA4794590C4
:103A3000A4E6E4F0A37408F01224B090A466E0FEBB
:103A4000A3E0FF7B017AA4797890A4E6E4F0A37464
:103A500002F01226FD90A479E0FF90A478E0B5076B
:103A6000DAE490A47AF0A3F02290A44EE0FF700371
:103A7000023B4864077003023B48EF64087003028E
:103A80003B48D2A590A55DE06403701D20A71A7B7A
:103A9000017AA5795990A4E6F0A37402F07F007E24
:103AA000171224B0D2A3C2A12290A55DE0640370D6
:103AB0001D30A71A7B017AA5795790A4E6F0A3746C
:103AC00002F07F007E171224B0C2A3D2A12290A5DB
:103AD0005DE06404705730A754C390A5D1E094050D
:103AE00090A5D0E09400406230091EB2097B017AB3
:103AF000A5795790A4E6E4F0A37402F07F007E1746
:103B00001224B0C2A3D2A1801CB2097B017AA5798C
:103B10005590A4E6E4F0A37402F07F007E1712240F
:103B2000B0C2A3C2A1E490A5D0F0A3F0227B017A99
:103B3000A5795590A4E6E4F0A37402F07F007E1707
:103B40001224B0C2A3C2A122C2A52290A4A5EBF068
:103B5000A3EAF0A3E9F0E490A4B0F0A3F0A3F0A3EB
:103B6000F0C390A4AFE0940790A4AEE0940050039B
:103B70007F022290A4A5E0FBA3E0FAA3E0F91207DC
:103B8000F6645A60037F032290000112080F64A5B7
:103B900060037F032290000212080F2403FFE43326
:103BA000FE90A4B0F0A3EFF0C390A4AFE09F90A468
:103BB000AEE09E4072E490A4B2F0A3F090A4B0E016
:103BC000FEA3E0FFA3E0FCA3E0FDC39FEC9E503CFE
:103BD00090A4A5E0FBA3E0FAA3E0F91207F6FF909A
:103BE000A4A8E0FBA3E0FAA3E0F98D828C83EF1296
:103BF000084E90A4A6E475F00112090D90A4B3E05C
:103C000004F070B890A4B2E004F080B090A4B0E0EA
:103C1000F9A3E0FF90A4ABE0FBA3E0FAA3E0C98F17
:103C2000F012099C7F01227F0222AD07AC06E4124C
:103C3000041CE4FBFA7920784112030190A49D1240
:103C40000B14E4FFFE7DC87C4390A49DE0F8A3E044
:103C5000F9A3E0FAA3E0FB12039E5024E4FFFE7DEB
:103C6000A07C4090A49DE0F8A3E0F9A3E0FAA3E0D3
:103C7000FB12039E600A400890A49C7401F0800629
:103C800090A49C7405F090A55DE06403602590A469
:103C90009CE014706D90A46EE0F8A3E0F9A3E0FA44
:103CA000A3E0FB90A54DE0FCA3E0FDA3E0FEA3E0B4
:103CB000FF804690A49CE0147048E4FFFE7D7A7C6F
:103CC0004490A461E0F8A3E0F9A3E0FAA3E0FB12BA
:103CD00001F8A804A905AA06AB0790A54DE0FCA32E
:103CE000E0FDA3E0FEA3E0FF12010390A46EE0F864
:103CF000A3E0F9A3E0FAA3E0FB12030190A55102AF
:103D00000B1490A49C7406F022AD07AC06E41204D8
:103D10001CE4FBFA7920784112030190A49D120B58
:103D200014E4FFFE7DC87C4390A49DE0F8A3E0F975
:103D3000A3E0FAA3E0FB12039E5024E4FFFE7DA063
:103D40007C4090A49DE0F8A3E0F9A3E0FAA3E0FB97
:103D500012039E600A400890A49C7401F0800690B3
:103D6000A49C7405F090A55DE06403602590A49C7C
:103D7000E014706D90A46EE0F8A3E0F9A3E0FAA35C
:103D8000E0FB90A5C5E0FCA3E0FDA3E0FEA3E0FFFF
:103D9000804690A49CE0147048E4FFFE7D7A7C4449
:103DA00090A461E0F8A3E0F9A3E0FAA3E0FB12011C
:103DB000F8A804A905AA06AB0790A5C5E0FCA3E0F6
:103DC000FDA3E0FEA3E0FF12010390A46EE0F8A3C0
:103DD000E0F9A3E0FAA3E0FB12030190A551020B66
:103DE0001490A49C7406F022AD07AC06E412041CE7
:103DF000E4FBFA7920784112030190A49D120B1480
:103E0000E4FFFE7DC87C4390A49DE0F8A3E0F9A305
:103E1000E0FAA3E0FB12039E5024E4FFFE7DA07CA9
:103E20004090A49DE0F8A3E0F9A3E0FAA3E0FB1220
:103E3000039E600A400890A49C7401F0800690A440
:103E40009C7405F090A55DE06403602590A49CE05F
:103E500014706D90A46EE0F8A3E0F9A3E0FAA3E07B
:103E6000FB90A5C9E0FCA3E0FDA3E0FEA3E0FF807A
:103E70004690A49CE0147048E4FFFE7D7A7C449058
:103E8000A461E0F8A3E0F9A3E0FAA3E0FB1201F8D3
:103E9000A804A905AA06AB0790A5C9E0FCA3E0FD0C
:103EA000A3E0FEA3E0FF12010390A46EE0F8A3E0FC
:103EB000F9A3E0FAA3E0FB12030190A551020B1451
:103EC00090A49C7406F02290A4ACEEF0A3EFF090C6
:103ED000A44EE024FE602714603D24FB60552407B7
:103EE0006003023FA07BFF7A5079B090A4ACE0FF62
:103EF000A3E090A4B3CFF0A3EFF07D0580307BFF6B
:103F00007A5079B090A4ACE0FFA3E090A4B3CFF0D6
:103F1000A3EFF07D0680177BFF7A5079B090A4ACB8
:103F2000E0FFA3E090A4B3CFF0A3EFF07D077C51B6
:103F300002449B90A4ACE0FEA3E0FF64407003EE5B
:103F400064146006BE1406BF41030253CC90A4ACB7
:103F5000E0B41408A3E0B40003021D4590A4ACE053
:103F6000B41408A3E0B4100302172990A4ACE0FE37
:103F7000A3E0FF64207003EE64146024EF643070EB
:103F800003EE6414601ABE1217BF801412586CEF4F
:103F9000640170030251C412586CEF700312522076
:103FA0002290A57B74F0F090A57F04F090A5830487
:103FB000F07B067A007D007C387F007E4012434B08
:103FC0007B017AA5797B90A563E4F0A37406F07F6A
:103FD000007E401241277B017AA579A090A563E479
:103FE000F0A37404F07F607E5112412790A5A0E0F9
:103FF0007004A3E064F670417B017AA579A290A4D5
:10400000E6F0A37402F07F007E241224B07B017AD4
:10401000A579A490A4E6E4F0A37402F07F107E24B6
:104020001224B07B017AA579A690A4E6E4F0A374EB
:1040300002F07F207E241224B07B027A007D207C57
:10404000137F007E4312434B7B027A007D507C1429
:104050007F007E4412434B7B027A007D107C137FED
:10406000007E4102434B90A4D2EEF0A3EFF0A3EB0D
:10407000F0A3EAF0A3E9F078D97CA47D017BFF7A74
:104080005979047E007F081207D0C2AF90A4D4E013
:10409000FBA3E0FAA3E0F9A3E0FFA3E090A4E6CF3E
:1040A000F0A3EFF07F007EF01224B090A4D974A5A5
:1040B000F090A4D2E0FCA3E0FDAE047810CEC313D0
:1040C000CE13D8F990A4DAF0ECA3F090A4D2A3E038
:1040D00090A4DCF0A374F0F0E4A3F090A4D7E0FC8B
:1040E000A3E0FDEC90A4DFF0A3EDF07B017AA479CE
:1040F000D990A4E6E4F0A37404F07F087E001224B3
:10410000B07F057E0012568A7B017AA479D990A4EB
:10411000E6E4F0A37402F07F087E001226FD90A46E
:10412000D9E070DDD2AF2290A55EEEF0A3EFF0A350
:10413000EBF0A3EAF0A3E9F078657CA57D017BFFB5
:104140007A59790C7E007F081207D0C2AF90A5651E
:10415000745AF090A55EE0FCA3E0FDAE047810CEAA
:10416000C313CE13D8F990A566F0ECA3F090A55E2A
:10417000A3E090A568F0A374F0F0E4A3F090A56329
:10418000E0FCA3E0FDEC90A56BF0A3EDF07B017AE1
:10419000A5796590A4E6E4F0A37404F07F087E009E
:1041A0001224B07F057E0012568A7B017AA57965BC
:1041B00090A4E6E4F0A37402F07F087E001226FDCE
:1041C00090A565E070DD90A560E0FBA3E0FAA3E0B8
:1041D000F9A3E0FFA3E090A4E6CFF0A3EFF07F0007
:1041E0007EF01226FDD2AF2290A49AEFF0E0FFC439
:1041F00054F024E6F582E434A4F583E4F0A304F05B
:10420000EFC454F024E8F582E434A4F58374FFF09D
:10421000A3F0EFC454F024EAF582E434A4F583E477
:10422000F0A3740BF01249CA90A49AE0FDC454F0B4
:1042300024ECF582E434A4F583EEF0A3EFF0EDC4B2
:1042400054F024EEF582E434A4F5837402F0A374F0
:104250004EF0EDC454F024ECF582E434A4F583E090
:10426000FEA3E0FFEDC454F024F0F582E434A4F59D
:1042700083EEF0A3EFF0ED6402701FED75F010A473
:1042800024E4F974A435F0FA7B0190A4E6E4F0A3E9
:104290007410F07F007E551224B02290A5AEEBF092
:1042A000A3EAF0A3E9F0A3EDF078B27CA57D017B51
:1042B000FF7A5979397E007F021207D090A5B1E0CC
:1042C00014600302434A90A5AEE0FBA3E0FAA3E02A
:1042D000F9124AB6EF607390A51FE0FF90A5B2E413
:1042E000F0EFA3F090A5AEE0FBA3E0FAA3E0F91293
:1042F0000939FF90A515E5F0F0A3EFF09000021248
:104300000964FF90A517E5F0F0A3EFF07B017AA513
:1043100079B290A4E6E4F0A37402F07F017EB012BB
:1043200024B090A4F0E0FEA3E0FF7B017AA579150C
:1043300090A4E6E4F0A37406F01224B090A4F1E097
:104340002402F090A4F0E03400F02290A56DEEF08D
:10435000A3EFF0A3ECF0A3EDF0A3EAF0A3EBF07869
:10436000737CA57D017BFF7A5879F47E007F08126B
:1043700007D090A573745AF090A56DE0FCA3E0FD02
:10438000AE047810CEC313CE13D8F990A574F0EC18
:10439000A3F090A56DA3E090A576F090A56FE0FC4A
:1043A000A3E0FDEC90A577F0A3EDF090A571E0FC03
:1043B000A3E0FDEC90A579F0A3EDF07B017AA5795F
:1043C0007390A4E6E4F0A37408F0FF7E001224B01A
:1043D0007F057E0012568A7B017AA5797390A4E648
:1043E000E4F0A304F07F087E001226FD90A573E0A0
:1043F00070DE2290A4D2EEF0A3EFF0A3ECF0A3EDD8
:10440000F0A3EAF0A3EBF078D87CA47D017BFF7ADF
:104410005879FC7E007F081207D090A4D874A5F0CC
:1044200090A4D2E0FCA3E0FDAE047810CEC313CE7E
:1044300013D8F990A4D9F0ECA3F090A4D2A3E09003
:10444000A4DBF090A4D4E0FCA3E0FDEC90A4DCF0AD
:10445000A3EDF090A4D6E0FCA3E0FDEC90A4DEF088
:10446000A3EDF07B017AA479D890A4E6E4F0A374DC
:1044700008F0FF7E001224B07F057E0012568A7B72
:10448000017AA479D890A4E6E4F0A304F07F087E32
:10449000001226FD90A4D8E070DE2290A4B1ECF0CA
:1044A000A3EDF0A3E064307004A3E06410705C122C
:1044B000586CEF6401704390A55DE06405702112B3
:1044C0000B9790A55D7403F012336D7B017AA5798B
:1044D0005790A4E6E4F0A37402F07F107E30805F72
:1044E00090A55DE0640270067403F002336D90A540
:1044F0005DE06404704C7403F02212586CEF90A5D8
:104500005D70047404F0227401F02290A4B3E0FE04
:10451000A3E0FFBE300ABF200790A55D7406F0221D
:10452000E4B5071EEEB4511A90A4B1E0FEA3E0FF7B
:104530007B017AA5795790A4E6E4F0A37402F01207
:1045400024B022E490A4A5F0A3F090A22DE0FEA355
:10455000E0FDEDFF90A4A5EEF0A3EFF090A22CE01B
:104560006482703D7B017AA2792F90A22BE024FD1A
:10457000FEE434FF90A4E6F0A3CEF090A4A5E0FE04
:10458000A3E0FF1224B090A22B7403F090A22D742C
:104590004FF0A3744BF07B017AA2792990A22B8073
:1045A0003E90A22CE06483703D7B017AA27930902A
:1045B000A22FE075F002A4FF90A4E6E5F0F0A3EFCF
:1045C000F090A4A5E0FEA3E0FF1226FD90A22FE04C
:1045D00025E0FF90A22BE02FF07B017AA27929E061
:1045E0002403FD12540E22759401759502758E00F8
:1045F00075930075C87075C96075F800787FE4F62A
:10460000D8FD7581210246430256FCE493A3F8E4E9
:1046100093A34003F68001F208DFF48029E493A31A
:10462000F85407240CC8C333C4540F4420C8834033
:1046300004F456800146F6DFE4800B010204081002
:104640002040809013F2E47E019360BCA3FF543FAE
:1046500030E509541FFEE493A360010ECF54C0253A
:10466000E060A840B8E493A3FAE493A3F8E493A32A
:10467000C8C582C8CAC583CAF0A3C8C582C8CAC58E
:1046800083CADFE9DEE780BE33DA929E35B160117E
:10469000377FE5FE392184893AAEC3FF3C1D955B27
:1046A0003D6358473E75FDF03F3172183F80000072
:1046B000C2D50204CB0204C1BD80FA50F30204C883
:1046C000ED33EC330460F17B3B7AAA79B8783F1282
:1046D00001F8ED33EC3392D5247B5011A2D570DB79
:1046E000500BED448024045004A2D580CEEFFBEEA5
:1046F000FAEDF9ECF8120455EFF582F404FC12041B
:1047000021120107C0829046887409120652ED33C7
:10471000CC33D0F092D525F0A2D57001C313CC13C1
:10472000FD2290A5B4EFF078B57CA57D017BFF7AE2
:104730005879D67E007F041207D07B017AA579B51F
:1047400090A4E6E4F0A37404F07F807E001226FDBE
:1047500090A5B5745AF090A5B4E0FD3395E0FCED5A
:1047600064014C700990A5B8E054F7F0800DED6439
:10477000024C703F90A5B8E04408F07B017AA5791F
:10478000B590A4E6E4F0A37404F07F807E001224C8
:10479000B07F057E0012568A7B017AA579B590A478
:1047A000E6E4F0A304F07F807E001226FD90A5B51C
:1047B000E070DE227B017AA579C190A563E4F0A3C5
:1047C0007402F07F007E5012412790A5C3E0FEA343
:1047D000E0FDEDD394FFEE94FF5006C3EE9400503D
:1047E0000090A5C1E0FFC374809480400AD3EF9489
:1047F0006474809480400690A5C17464F090A5C252
:10480000E0FFC374809480400AD3EF946474809472
:1048100080400690A5C27432F07B017AA579C190E0
:10482000A4E6E4F0A37404F07F827E001224B07B3F
:10483000017AA579C190A4E6E4F0A37404F07F4066
:104840007E140224B078967CA47D017BFF7A58798F
:10485000E27E007F101207D0E490A4A6F0A3F0A39C
:10486000F0A3F0A3F0A3F090A436E0FDFEA3E0FBDC
:10487000F582E582FF90A4AAEEF0A3EFF090A229C2
:10488000745AF0A374A5F090A438E0FC25E024034A
:1048900090A22BF0A37483F0A3EDF0A3EBF07B01C7
:1048A0007AA2792FEC75F002A4FF90A4E6E5F0F06F
:1048B000A3EFF090A4AAE0FEA3E0FF1226FD90A4CF
:1048C000AAE0FEA3E0FF023EC7C0E0C0F0C083C084
:1048D00082C0D075D000C000C001C002C003C004B7
:1048E000C005C006C007E4FFC2AFE5AB54016401D8
:1048F000703B123798AFAD908088E0FCA3E02400B5
:10490000F58274803CF583EFF0908089E004F070CC
:1049100006908088E004F053ABFEC3908089E09459
:1049200080908088E094004004E4F0A3F0D2AFD0FF
:1049300007D006D005D004D003D002D001D000D0DB
:10494000D0D082D083D0F0D0E03290A499EDF09016
:10495000A496EBF0A3EAF0A3E9F0124AB6EF60697F
:104960007F021241E87BFF7A597931120C3490A40E
:1049700099E06401704D90A4F6F0A3F0A37480F068
:10498000A3E4F0A3F0A3740BF090A496E0FBA3E0E3
:10499000FAA3E0F9900002120964FF90A4FCE5F08C
:1049A000F0A3EFF07BFF7A597931120C347B017A56
:1049B000A479F490A4E6E4F0A37410F07F007EB034
:1049C0001224B090A5207401F02290A46EE0FCA304
:1049D000E0FDA3E0FEA3E0FF12327490A4E8120B06
:1049E00014E4FFFEFDFC90A4E8E0F8A3E0F9A3E0E6
:1049F000FAA3E0FB12039E40437FAE7E477DE17C3D
:104A0000BD90A4E8E0F8A3E0F9A3E0FAA3E0FB126C
:104A100001077B3D7A0A79477840120301E4FBFAEB
:104A200079F078421201F8A804A905AA06AB07E4B8
:104A3000FFFE7DE97C431201030204557E017FD213
:104A4000227B017AA5799890A563E4F0A37402F023
:104A50007F007E801241277B017AA5799C90A4E695
:104A6000E4F0A37404F07F807E001226FD90A599E7
:104A7000E06401700890A59FE04408800C90A5991F
:104A8000E0701D90A59FE054F7F07B017AA579981E
:104A900090A4E6E4F0A37404F07F807E121224B0A8
:104AA0007B017AA5799C90A4E6E4F0A37404F07FDE
:104AB000807E000224B090A49AEBF0A3EAF0A3E970
:104AC000F0C390A522E0940A90A521E09400401440
:104AD00012294590A49AE0FBA3E0FAA3E0F9EE8F37
:104AE000F012099C90A49AE0FBA3E0FAA3E0F9126B
:104AF0000939FFAEF04E602BEFF47002EEF4602344
:104B0000EF64FE7002EEF4601A1249CA90A49AE0B3
:104B1000FBA3E0FAA3E0F9900002EE8FF01209BBCC
:104B20007F01227F00221257B27F64124B647F30D4
:104B3000124B64E4FF124B641256781257B27F6432
:104B4000124B647F1C124B647F48124B64E4FF12CB
:104B50004B647F40124B647F10124B6412567812E4
:104B600057B27F64AE07125878E4FDEDC394087421
:104B70008094805019EE30E704D2B38002C2B3EEC5
:104B800025E0FE125747C2B212574C0D80DD025687
:104B90002390A496EFF078977CA47D017BFF7A594F
:104BA000793B7E007F101207D090A496E014601F1E
:104BB000146031240270437B017AA4799790A4E6B3
:104BC000E4F0A37410F07F007EB01224B080157B57
:104BD000017AA4799790A4E6E4F0A37410F07F0022
:104BE0007EB080137B017AA4799790A4E6E4F0A3C9
:104BF0007410F07F007E551224B02290A44EE0FF86
:104C000090A465E06F6008EFF090A55D7401F090EE
:104C1000A55DE0B40700504B904C1FF828287302A4
:104C20004C34024C3A024C43024C46024C4B024C70
:104C300050024C5590A55D7401F090A55D7402F092
:104C4000125882023483D295024D36C2950258839F
:104C5000C29502575CC2951250B012398690A55D7C
:104C60007401F02290A44EE0FF90A465E06F60080C
:104C7000EFF090A55D7401F090A55DE0B4070050E1
:104C80004B904C88F8282873024C9D024CA3024C90
:104C9000AC024CAF024CB4024CB9024CBE90A55DC4
:104CA0007401F090A55D7402F012588502358AD225
:104CB00095024D9CC295025886C295025772C295C4
:104CC00012510C12398690A55D7401F02290A44E09
:104CD000E0FF90A465E06F6008EFF090A55D7401BF
:104CE000F090A55DE0B40700504B904CF1F82828F7
:104CF00073024D06024D0C024D15024D18024D1D5A
:104D0000024D22024D2790A55D7401F090A55D74BF
:104D100002F0125888023691D295024E02C29502D4
:104D20005889C295025788C29512516812398690E7
:104D3000A55D7401F0227BFF7A3C792A121FE9E419
:104D4000FFFE7D7A7C4490A461E0F8A3E0F9A3E043
:104D5000FAA3E0FB1201F890A54DE0F8A3E0F9A357
:104D6000E0FAA3E0FB12039E602B4029E4FFFEFD66
:104D7000FC90A551E0F8A3E0F9A3E0FAA3E0FB1250
:104D8000039E6011400FC390A489E0946490A488AE
:104D9000E09400400690A55D7405F0227BFF7A3D0B
:104DA0007909121FE9E4FFFE7D7A7C4490A461E05A
:104DB000F8A3E0F9A3E0FAA3E0FB1201F890A5C57F
:104DC000E0F8A3E0F9A3E0FAA3E0FB12039E602B56
:104DD0004029E4FFFEFDFC90A551E0F8A3E0F9A313
:104DE000E0FAA3E0FB12039E6011400FC390A48978
:104DF000E0946490A488E09400400690A55D74055A
:104E0000F0227BFF7A3D7909121FE9E4FFFE7D7AEB
:104E10007C4490A461E0F8A3E0F9A3E0FAA3E0FBEE
:104E20001201F890A5C9E0F8A3E0F9A3E0FAA3E025
:104E3000FB12039E602B4029E4FFFEFDFC90A55170
:104E4000E0F8A3E0F9A3E0FAA3E0FB12039E6011EF
:104E5000400FC390A489E0946490A488E09400403B
:104E60000690A55D7405F022C0E0C083C082C0D06A
:104E700075D000C004C007C2AF309837AF9990809A
:104E800082E0FCA3E0248AF58274803CF583EFF095
:104E9000908083E004F07006908082E004F0C3907C
:104EA0008083E094A0908082E0941F4004E4F0A30B
:104EB000F0C298309907C299908080E4F0D2AFD0C8
:104EC00007D004D0D0D082D083D0E03290A5A8EE15
:104ED000F0A3EFF078AA7CA57D017BFF7A5879DEFC
:104EE0007E007F041207D090A5A8E0FCA3E0FDECB3
:104EF00090A5ACF0A3EDF07B017AA579AA90A4E689
:104F0000E4F0A37404F07F847E001224B07F057E59
:104F10000012568A7B017AA579AA90A4E6E4F0A350
:104F200004F07F847E001226FD90A5AAE070DE22A8
:104F30007D027F0490A44EE090A448F0A3EFF0A37C
:104F4000EDF090A457E0FFA3E090A44BCFF0A3EFC7
:104F5000F090A466E0FEA3E0FF7B017AA47945907F
:104F6000A4E6E4F0A37408F01224B090A466E0FE76
:104F7000A3E0FF7B017AA4797890A4E6E4F0A3741F
:104F800002F01226FD90A479E0FF90A478E0B50726
:104F9000DA22C0E0C083C082C0D075D000C004C097
:104FA00007C2AFE59B30E028AF9C908084E0FCA373
:104FB000E0242AF58274A03CF583EFF0908085E030
:104FC00004F07006908084E004F0539BFE539BFE37
:104FD000E59B30E10B539BFD539BFD908081E4F0FA
:104FE00043C901D2AFD007D004D0D0D082D083D073
:104FF000E032C0E0C083C082C0D075D000C004C021
:1050000007C2AFE597540164017038AF9F90808666
:10501000E0FCA3E024AAF58274A03CF583EFF090B5
:105020008087E004F07006908086E004F05397FEDD
:10503000C3908087E09480908086E094004004E4F0
:10504000F0A3F0D2AFD007D004D0D0D082D083D09C
:10505000E03290A44EE090A448F0A3EFF0A3EDF06E
:1050600090A46CE0FFA3E090A44BCFF0A3EFF090EE
:10507000A466E0FEA3E0FF7B017AA4794590A4E654
:10508000E4F0A37408F01224B090A466E0FEA3E05C
:10509000FF7B017AA4797890A4E6E4F0A37402F08F
:1050A0001226FD90A479E0FF90A478E0B507DA22FB
:1050B00090A461120B20000000007B017AA47961AA
:1050C00090A4E6E4F0A37404F07F007E271224B0DD
:1050D000E490A488F0A3F07B017AA4798890A4E6F8
:1050E000F0A37402F07F307E281224B090A45912ED
:1050F0000B20000000007B017AA5795590A4E6E41E
:10510000F0A37402F07F107E300224B090A46112EC
:105110000B20000000007B017AA4796190A4E6E4F2
:10512000F0A37404F07F007E271224B0E490A488DA
:10513000F0A3F07B017AA4798890A4E6F0A374022E
:10514000F07F307E281224B090A459120B2000006A
:1051500000007B017AA5795590A4E6E4F0A37402DF
:10516000F07F107E300224B090A461120B2000006A
:1051700000007B017AA4796190A4E6E4F0A37404B2
:10518000F07F007E271224B0E490A488F0A3F07B87
:10519000017AA4798890A4E6F0A37402F07F307EAF
:1051A000281224B090A459120B20000000007B01AB
:1051B0007AA5795590A4E6E4F0A37402F07F107EFE
:1051C000300224B078B27CA47D017BFF7A597957F4
:1051D0007E007F041207D07B017AA479AE90A4E60A
:1051E000E4F0A37404F07F807E001226FD90A4B149
:1051F000E04408F07B017AA479AE90A4E6E4F0A341
:105200007404F07F807E001224B07B017AA479B20E
:1052100090A4D7E4F0A37402F07F007E8002406681
:1052200078B27CA47D017BFF7A59795B7E007F0494
:105230001207D07B017AA479AE90A4E6E4F0A374BF
:1052400004F07F807E001226FD90A4B1E054F7F0B8
:105250007B017AA479AE90A4E6E4F0A37404F07F15
:10526000807E001224B07B017AA479B290A4D7E4A6
:10527000F0A37402F07F007E80024066125490908A
:10528000A514E024FE601224FE601924FE6024248C
:10529000057043E490A514F0227B017AA5791B7D6B
:1052A0000102494AE490A520F090A514F090A51FB2
:1052B000F08011E490A520F090A514F090A51FF0C7
:1052C000FF124B9190A4F074B0F0A37405F0A37496
:1052D00055F0A37405F022124B5F7F1D124B641230
:1052E00056781257B27F65124B641255A2AC071262
:1052F00000161255A2125842125678EC540264025B
:10530000702E124B267F10124B64E4FF124B64E4A4
:10531000FF124B64E4FF124B647F01124B647F0168
:10532000124B647F01124B647F17124B591256695E
:10533000227B017AA4794D90A4E6E4F0A37402F0F4
:105340007F147E001226FD90A44EE0FF14601A1414
:10535000601F14602124FB60232408702290A46540
:10536000EFF090A55D7401F02212527C124BFB808D
:1053700008124C648003124CCD021A5512550922B2
:1053800078967CA47D017BFF7A5879DA7E007F04D1
:105390001207D07B017AA4793590A4E6E4F0A374D7
:1053A00004F07F007E0F1226FD90A435E0645A7051
:1053B000187B017AA4799690A4E6F0A37404F07F98
:1053C000007E0F1224B07F01227F00227B017AA48D
:1053D00079AE90A4E6E4F0A37404F07F407E14124A
:1053E00026FD7B017AA479AE90A4E6E4F0A37404D0
:1053F000F07F827E001224B07B017AA479AE90A463
:10540000D7E4F0A37402F07F007E5002406690A4BF
:10541000A7EBF0A3EAF0A3E9F090A4A7E0FBA3E0D8
:10542000FAA3E04A4B6027ED6024AF051DEF601E34
:1054300090A4A7E0FBA3E0FAA3E0F91207F6FF129D
:1054400057E790A4A8E475F00112090D80DC2290C2
:10545000A5CDEBF0A3EAF0A3E9F090A5CDE0FBA386
:10546000E0FAA3E04A4B6027ED6024AF051DEF6032
:105470001E90A5CDE0FBA3E0FAA3E0F91207F6FF2A
:105480001257F590A5CEE475F00112090D80DC22CB
:1054900090A55DE024FC601B14601F1460282403A9
:1054A000702A90A520E090A51460047403F0227483
:1054B00002F02290A5147405F022E490A520F0904B
:1054C000A5147404F02290A5147406F02290A4F49C
:1054D000E4F0A37402F090A50274FFF0A3E4F0904E
:1054E000A4F6F0A304F090A504E4F0A37402F090F5
:1054F000A51274FFF0A3E4F090A506F0A304F090C9
:10550000A51974FFF0A3E4F02290A44EE0FF90A44C
:1055100065E06F6008EFF090A55D7401F090A55D07
:10552000E014600D1460102402700F90A55D7401EA
:10553000F090A55D7402F00255FB90A55D7402F039
:10554000227B017AA579BD90A4E6E4F0A37404F06F
:105550007F807E001226FD90A5C0E04404F07B0110
:105560007AA579BD90A4E6E4F0A37404F07F807E70
:10557000000224B090A498EEF0A3EFF0E02432FFF4
:1055800090A498E03400FE7B017AA4799890A4E678
:10559000E4F0A37402F01226FD90A498E0FEA3E0CC
:1055A000FF22120056E4FDEDC394087480948050ED
:1055B0001B125747EE25E0FE30B3054401FE800480
:1055C000EE54FEFEC2B212574C0D80DBAF0622E451
:1055D00090A4ADF0A3F0A3F0A3F0AE04AF05C00318
:1055E000C00290A4AAE0FBA3E0FAA3E0F8AC02ADED
:1055F00003D002D0031207D07F0122E47F02FEFD18
:10560000FC90A548E0F8A3E0F9A3E0FAA3E0FBC30F
:10561000120AC4400D122FC590A548120B2000009D
:10562000000022120056125745E4FEEEC394327475
:10563000809480500930B30612574C0E80EDC2B2F0
:1056400012574C025878C390A58FE094F490A58E21
:10565000E0940140137BFF7A597914120C34123113
:1056600011E490A58EF0A3F0227F1E124B64E4FF9C
:10567000124B647F10124B64125878C2B3D2B2122C
:10568000574CD2B312574C020056E4FDFCC3ED9FB9
:10569000EC9E5015E4FBFA0BBB00010ABA1CF8BBE8
:1056A000E8F50DBD00010C80E42243B7C043C920DA
:1056B000E4908081F0908084F0A3F0759BD075BB5E
:1056C00003759DC8759A012290A5D2EFF07B017AEF
:1056D000A579D290A4E6E4F0A304F07F827E0002D4
:1056E00024B0E490A55DF07B017AA5795590A4E6FD
:1056F000F0A37402F07F107E300224B01257C6125D
:1057000052D7C2951258111254CD12581F1253314C
:1057100012564680F575F90175B7C375BCA375BD02
:105720002A75BE0CE4F580F590F5A0F5B022E49062
:105730008086F0A3F0759680759780F5D975E7E0BF
:10574000D2BAD2BB22D2B312574CD2B2E4FFEFC3CB
:1057500094507480948050030F80F3227B017AA5CB
:10576000795590A4E6E4F0A37402F07F107E300235
:1057700024B07B017AA5795590A4E6E4F0A37402E5
:10578000F07F107E300224B07B017AA5795590A479
:10579000E6E4F0A37402F07F107E300224B075C8F6
:1057A00070E4F5CDF5CC75CBBC75CACD43A820D23D
:1057B000C822125878D2B3D2B212574CC2B3125781
:1057C0004CC2B202574CC2AF12005E1257151258AB
:1057D00060125866D2AF22C2AF8F9EE59654016028
:1057E000FA5396FED2AF22908080E0640160F87494
:1057F00001F08F9922908081E0640160F87401F0DB
:105800008F9C22438901758CBC758ACDD2A9D28C1C
:105810002290A445745AF0A374A5F0E4A3F02212D8
:105820005380EF600312484502104C125541124A52
:10583000411247B402005A7BFF7A58798B7D1502DA
:10584000540E125878125745C2B202574C7B017A57
:10585000A5791B7D0102429BC2AF5396FED2AF32A7
:1058600012572E02006E12580302579E90A230E08B
:10587000FF221256E202587F43BE0822C2C63202FD
:105880003FA1222222222222222222556172743238
:10589000496E697420446F6E6521212131323300D5
:1058A0005561727433496E697420446F6E652121AD
:1058B00021005561727434496E697420446F6E65BD
:1058C000212121005561727435496E697420446F3D
:1058D0006E652121210000000000000000005A0137
:1058E00000000000000000000000000000000000B8
:1058F00000000000000000000000000000000000A8
:105900000000000000000000000000000000000097
:105910000000000068656B6B6F0000000000000075
:105920000000000000000000000000000000000077
:1059300000B3F5CABCBBAF0A0000000000000000C5
:105940000000000000000000000000000000000057
:105950000000000000000000010000000000000046
:0359600000000044
:00000001FF
