:10000000024043020006C2AFD2AF32023652C2AF44
:10001000D2AF3202000E124EDBC2B3124DD9C2B2C1
:10002000024DDE024641AE07024E3D024EDF43B7AF
:100030001043C940E4908080F0908082F0A3F07576
:10004000D88075985053877F75BA0375AAE4D29CFF
:10005000D2AC22024EBB53BEF72222024769E4F51E
:10006000A8F5B8F59AF5A9F5B92222024325E4903E
:100070008088F0A3F075A78075AB80F5AE75AFE012
:10008000D2BD2202470990A49AEBF0A3EAF0A3E9BB
:10009000F0C390A522E0940A90A521E094004014BA
:1000A00012293090A49AE0FBA3E0FAA3E0F9EE8FC6
:1000B000F012099C90A49AE0FBA3E0FAA3E0F912E5
:1000C0000939FFAEF04E602BEFF47002EEF46023BE
:1000D000EF64FE7002EEF4601A12442690A49AE0D7
:1000E000FBA3E0FAA3E0F9900002EE8FF01209BB47
:0700F0007F01227F002222A4
:1000F800FFFF4457494E54350204C1E86480F8E9CB
:1001080033E83360110460F0ED33EC337009E8FC38
:10011800E9FDEAFEEBFF220460DED3EB9FEA9EE9ED
:100128009DE8C2E78CF0C2F795F0400CE8CCF8E9FE
:10013800CDF9EACEFAEBCFFB12048C85D0F0580447
:10014800700320D5B3E80470075002B2D50204CB7F
:1001580092D5EC0460F7E4CCC0E0C398F8603B9417
:10016800186008400DD0E0FB0204A3E4FBFAC9FCC8
:100178008028E830E406E4C9FBE4CAFCE830E3057B
:10018800E4C9CACBFCE854076010F8C3E913F9EADC
:1001980013FAEB13FBEC13FCD8F130F52FC3E49CF6
:1001A800FCEF9BFFEE9AFEED99FDD0E0FBEF4E4D84
:1001B8004C701222DB030204C8EC2CFCEF33FFEE78
:1001C80033FEED33FDED30E7EB0204A3EF2BFFEE3A
:1001D8003AFEED39FDD0E0FB50130BBB00030204DF
:1001E800CBED13FDEE13FEEF13FFEC13FC0204A39B
:1001F800EC4D6011E8497017ED33EC3304600DE401
:10020800FCFFFEFD22E933E8330470F80204C11252
:10021800048C58046009E4CC248150062850090253
:1002280004CB2840030204C8C0E0EB4A7044B980FC
:1002380006D0E0FB0204B7EF4E701CBD8008EBFF50
:10024800EAFEE9FD80EBE98DF0A4FEE5F00202E1AB
:10025800E9CDF9EAFEEBFFEF89F0A4FCE5F0CE89E1
:10026800F0A42EFFE435F0CD89F0A42DFEE435F09E
:100278008067EF4E7005BD80D780C3EF8BF0A4ACCC
:10028800F0EE8BF0A42CFCE435F0F8EF8AF0A42C07
:10029800E5F038FCE433CB8DF0A42CFCE5F03BF81A
:1002A800EE8AF0A42CFCE5F038F8E433CF89F0A40A
:1002B8002CFCE5F038CF3400CE89F0A42FFFE5F010
:1002C8003EFEE433C98DF0A42EFEE5F039CD8AF068
:1002D800A42FFFE5F03EFEE43DFD33D0E0FB5007E0
:1002E8000BBB000F0204CBEC2CFCEF33FFEE33FE0C
:1002F800ED33FD0204A30204CBEC5D046005E8596C
:100308000470030204C112048C580460F6EC4860BF
:10031800F2EC7004FDFEFF22C860DB2481C850099E
:10032800C398600250060204C89850CAF582E929A9
:100338004B4A7005AB820204B775F0007C1A7880CE
:10034800C3EF9BEE9AED99400DC3EF9BFFEE9AFE2B
:10035800ED99FDE842F0DC23ACF0D0E0FFD0E0FE00
:10036800D0E0FDAB8220E7101BEB60BAEC2CFCEF71
:1003780033FFEE33FEED33FD0204A3E803F830E764
:1003880005C0F075F000EF2FFFEE33FEED33FD40B2
:10039800B830E7C280AA74F8CC6480CCC86480C83E
:1003A800F58204604FC3EB9FF5F0EA9E42F0E99DA9
:1003B80042F0E89C45F0603C501DE5825FFFE58215
:1003C800D313CB5BCBF42B5582FB50280ABA0024FD
:1003D80009B9002008801DE5825BFBE582D313CFB5
:1003E8005FCFF4C3132F5582FF50090EBE00050DD1
:1003F800BD00010CC3EB9FF5F0EA9E42F0E99D4277
:10040800F0E89C45F06007CC4820E701B3EC227582
:10041800F020800E75F010800575F0087D007E00D4
:100428007F003392D530D503120AB6EC334010EF73
:1004380033FFEE33FEED33FDEC33FCD5F0ED22E572
:10044800F0247EA2D513CC92E7CDCEFF22EDD2E7E1
:10045800CD33EC3392D524814006E4FFFEFDFC2227
:10046800FCE4CFCECDCC24E0501174FF80EDC3CC9A
:1004780013CCCD13CDCE13CECF13CF0470F030D51F
:10048800DE020AB6E9D2E7C933E833F892D5EDD2ED
:10049800E7CD33EC33FC5002B2D522EC30E7100F35
:1004A800BF000C0EBE00080DBD00040BEB6014A2CB
:1004B800D5EB13FCED92E7FD2274FFFCFDFEFF2255
:1004C800E480F8A2D574FF13FC7D80E480EFED335F
:1004D800EC33601004700FED547F7005740292E0E5
:1004E800227404220422E422ED33EC33600A0470FF
:1004F80003BD8004ECB2E7FC22F920E73624F9506A
:10050800037907E4F42402FBE5821582700215835F
:10051800DBF6E024FB501BE96014E4F0E582158269
:1005280070021583E004F0B40A08E4F0D9EE74010F
:10053800F00A22C2D522ED33EC3392D5FA602AB400
:10054800FF33EDC2E77BFF60067A057963E4227A20
:1005580005796C20D5047A057967224E614E002B07
:10056800494E46002D494E4600E47A08F0A3DAFCCD
:100578007B00740722C083C082ECC0E0EDC0E0EECF
:10058800C0E0EFC0E0EA75F010A4CAABF075F04D1A
:10059800A42BFBE435F0FCEA2410FAEB34C5FBECA1
:1005A80034D9FCEDC2E7FF75F056A4F42411C5F068
:1005B800F434C58FF0A42AE5F03BE43CF020E714BE
:1005C8001206C0D0E0FFD0E0FED0E0FDD0E0FC1283
:1005D80003018014F4041206C0D0E0FFD0E0FED07E
:1005E800E0FDD0E0FC1201F8D082D083E0FAEDD231
:1005F800E7CD33EC332482FBE4C3CF33CFCE33CE05
:10060800CD33CD33DBF37B0775F00A846004F0A3A8
:100618001B0AE5F0F0A38FF0740AA4FFACF08EF08B
:10062800740AA42CFEACF050010C8DF0740AA42CB2
:10063800FDE435F0F0A3DBDE740722C0E0EFFBEE4B
:10064800FAEDF9ECF81201F8D0E0F5F0EFFBEEFA6C
:10065800EDF9ECF8120AE8A3A3A3A3E8C0E0E9C007
:10066800E0EAC0E0EBC0E0C0F01201F8120B04A30E
:10067800A3A3A3120107D0F0D0E0FBD0E0FAD0E0AA
:10068800F9D0E0F8D5F0D4223F80000041200000E6
:1006980042C80000447A0000461C400047C350008E
:1006A800497424004B1896804CBEBC205A0E1BCAB5
:1006B8006753C21C749DC5AEFB60065407601C23BB
:1006C800231206EEEB543860091206DA1206E91214
:1006D80001F8ECF8EDF9EEFAEFCB22EB1206E9801F
:1006E800F1543803241C900690FE93FC0EEE93FD03
:1006F8000EEE930ECE93FF22E709F608DFFA804646
:10070800E709F208DFFA803E88828C83E709F0A3C4
:10071800DFFA8032E309F608DFFA8078E309F208A5
:10072800DFFA807088828C83E309F0A3DFFA8064A3
:1007380089828A83E0A3F608DFFA805889828A834F
:10074800E0A3F208DFFA804C80D280FA80C680D419
:10075800806980F28033801080A680EA809A80A821
:1007680080DA80E280CA803389828A83ECFAE49353
:10077800A3C8C582C8CCC583CCF0A3C8C582C8CCE1
:10078800C583CCDFE9DEE7800D89828A83E493A301
:10079800F608DFF9ECFAA9F0EDFB2289828A83ECEE
:1007A800FAE0A3C8C582C8CCC583CCF0A3C8C5826B
:1007B800C8CCC583CCDFEADEE880DB89828A83E4A3
:1007C80093A3F208DFF980CC88F0EF60010E4E6049
:1007D800C388F0ED2402B4040050B9F582EB24027A
:1007E800B4040050AF232345822390075073BB0104
:1007F8000689828A83E0225002E722BBFE02E322B6
:1008080089828A83E49322BB010CE58229F582E57B
:10081800833AF583E0225006E92582F8E622BBFEFA
:1008280006E92582F8E222E58229F582E5833AF590
:1008380083E49322BB010689828A83F0225002F75F
:1008480022BBFE01F322F8BB010DE58229F582E502
:10085800833AF583E8F0225006E92582C8F622BBE0
:10086800FE05E92582C8F222EF8DF0A4A8F0CF8C0E
:10087800F0A428CE8DF0A42EFE22BC000BBE0029C9
:10088800EF8DF084FFADF022E4CCF875F008EF2F7F
:10089800FFEE33FEEC33FCEE9DEC984005FCEE9D3C
:1008A800FE0FD5F0E9E4CEFD22EDF8F5F0EE842058
:1008B800D21CFEADF075F008EF2FFFED33FD4007B9
:1008C800985006D5F0F222C398FD0FD5F0EA22C25F
:1008D800D5EC30E709B2D5E4C39DFDE49CFCEE30CD
:1008E800E715B2D5E4C39FFFE49EFE120882C3E475
:1008F8009DFDE49CFC800312088230D507C3E49F69
:10090800FFE49EFE22C5F0F8A3E028F0C5F0F8E564
:1009180082158270021583E038F022A3F8E0C5F052
:1009280025F0F0E582158270021583E0C838F0E8FA
:1009380022BB010A89828A83E0F5F0A3E0225006EF
:1009480087F009E71922BBFE07E3F5F009E319224E
:1009580089828A83E493F5F074019322BB0110E540
:100968008229F582E5833AF583E0F5F0A3E0225089
:1009780009E92582F886F008E622BBFE0AE9258205
:10098800F8E2F5F008E222E5832AF583E993F5F029
:10099800A3E99322BB010A89828A83F0E5F0A3F0D8
:1009A800225006F709A7F01922BBFE06F3E5F00965
:1009B800F31922F8BB0111E58229F582E5833AF59E
:1009C80083E8F0E5F0A3F0225009E92582C8F6088B
:1009D800A6F022BBFE09E92582C8F2E5F008F2225A
:1009E80075F008758200EF2FFFEE33FECD33CDCCC6
:1009F80033CCC58233C5829BED9AEC99E582984049
:100A08000CF582EE9BFEED9AFDEC99FC0FD5F0D625
:100A1800E4CEFBE4CDFAE4CCF9A88222B800C1B94F
:100A28000059BA002DEC8BF084CFCECDFCE5F0CB8D
:100A3800F97818EF2FFFEE33FEED33FDEC33FCEBC6
:100A480033FB10D703994004EB99FB0FD8E5E4F981
:100A5800FA227818EF2FFFEE33FEED33FDEC33FC6E
:100A6800C933C910D7059BE99A4007EC9BFCE99A62
:100A7800F90FD8E0E4C9FAE4CCFB2275F010EF2FA7
:100A8800FFEE33FEED33FDCC33CCC833C810D707A7
:100A98009BEC9AE899400AED9BFDEC9AFCE899F8E2
:100AA8000FD5F0DAE4CDFBE4CCFAE4C8F922C3E4CC
:100AB8009FFFE49EFEE49DFDE49CFC22EB9FF5F085
:100AC800EA9E42F0E99D42F0E89C45F022E8600F7A
:100AD800EFC333FFEE33FEED33FDEC33FCD8F122E8
:100AE800E493FC740193FD740293FE740393FF2254
:100AF800E0F8A3E0F9A3E0FAA3E0FB22E493F8749A
:100B08000193F9740293FA740393FB22ECF0A3EDBA
:100B1800F0A3EEF0A3EFF022A8828583F0D083D073
:100B280082120B37120B37120B37120B37E473E4B0
:100B380093A3C583C5F0C583C8C582C8F0A3C58380
:100B4800C5F0C583C8C582C822F8E0FBA3A3E0F9B5
:100B580025F0F0E582158270021583E0FA38F0225C
:100B6800EBF0A3EAF0A3E9F022D083D082F8E49373
:100B78007012740193700DA3A393F8740193F58216
:100B88008883E4737402936860EFA3A3A380DF8A69
:100B9800838982E473EF4E6012EF60010EEDBB01B2
:100BA8000B89828A83F0A3DFFCDEFA2289F05007E2
:100BB800F709DFFCA9F022BBFEFCF309DFFCA9F072
:100BC80022E508249DF582E434A4F583E005082293
:100BD80090A49A30070390A49DE475F001120B517C
:100BE8000207F62000E97F2ED2008018EF540F2468
:100BF80090D43440D4FF30040BEF24BFB41A005013
:100C0800032461FFE50960021509050CE50C700273
:100C1800050B30070E90A49AE475F001120B51EF02
:100C280002083C0200267403D2078003E4C207F5D9
:100C38000890A49A120B68E4F509F50BF50CE50980
:100C480060077F20120C0C80F5750AFFC201C200F4
:100C5800C202C203C205C206C208120BD8FF700D39
:100C68003007057F00120C1DAF0CAE0B22B4255FB8
:100C7800C2D5C204120BD8FF24D0B40A00501A758A
:100C8800F00A780930D50508B6FF0106C6A426F68D
:100C980020D5047002D20380D924CFB41A00EF50B3
:100CA80004C2E5D204020F0FD20180C6D20080C070
:100CB800D20280BCD2D580BAD20580B47F20120C73
:100CC8000C2002077401B5090040F1120BC9FF128C
:100CD8000C0C020C46D208D2068095120BC9FB12E6
:100CE8000BC9FA120BC9F94A4B7006790D7A107BB9
:100CF800FF20022EE509602A7E008E82758300128D
:100D0800080F60060EEE650A70F0C2D5EBC0E0EA87
:100D1800C0E0E9C0E0EE120F70D0E0F9D0E0FAD000
:100D2800E0FB1207F6FF60AAEBC0E0EAC0E0E9C00A
:100D3800E0120C0CD0E02401F9D0E03400FAD0E045
:100D4800FBE50A0460DCD50AD98087D20280A212AA
:100D58000F5260F7E50A700104120501A90A600D37
:100D6800E50A600914F50A120FFAEF60F3EA30E7B2
:100D780002F404C3995079EAF4250A0430E701E43F
:100D880004F50A800D120F5260C1EA050A250A12FD
:100D98000501EA90A4C9F030E701E4250A04D50A60
:100DA8000420050114120F70E4C0E0120FFA90A499
:100DB800C9E0601320E70714F0120BF4802204F056
:100DC800D0E014C0E07F00120BF4E50A6007120BB4
:100DD800EB150A800B300503120BEBD0E0020C4632
:100DE800D0E00480C4120F52609EE50A0412050187
:100DF80090A4C9EAF0E50A2005026001042404125F
:100E08000F7074FF04C0E0120FFA120BF4E50A2009
:100E180005026003120BEBD0E0B50AE87F45120B20
:100E2800FE90A4C9E07F2B30E7047F2DF404C0E0D6
:100E3800120C0CD0E075F00A84C0F0120BF5D0E06B
:100E4800120BF5020C46791080027908C206C20816
:100E58008008D2D5790A8004790AC2D5E50A0470D7
:100E680002F50AE4FAFDFEFF120BC9FC7B0820011B
:100E780013120BC9FD7B1030000A120BC9FE120BAE
:100E8800C9FF7B20EC3382D592D55013C3E43000E0
:100E9800069FFFE49EFEE42001039DFDE49CFCE424
:100EA800CBF8C201EC700CCFCECDCCE824F8F870AA
:100EB800F38017C3EF33FFEE33FEED33FDEC33FC65
:100EC800EB33FB994002FB0FD8E9EB300105F8D072
:100ED800E0C448B201C0E00AEC4D4E4F78207B00D8
:100EE80070C2EAB50A0040BCC0E0120F72D0F0D060
:100EF800E0200104C4C0E0C4B201C0F0120BF5D078
:100F0800F0D5F0EB020C46120B710CE3530E4E5861
:100F18000CB44C0CB0420E524F0E5A440E5A490CA7
:100F2800C9430E60550D8D460DED450D5747102DE3
:100F3800500CB82D0CBC2E0CDF2B0CC0230CDD2064
:100F480010162A0C784800000CD7E50AB4FF037580
:100F58000A06120BC9FC120BC9FD120BC9FE120BB3
:100F6800C9FF90A4C202053E790AA2D52003143015
:100F78000509B910020404B9080104A2D520060223
:100F88005001042002689202B509005034C0E07F85
:100F9800203003197F30A20272067205500F120F1B
:100FA800C9C202C206C205C2087F30800F300503DD
:100FB800E9C0E0120C0C300503D0E0F9D0E0B50927
:100FC800CC3005177F30B9100C120C0C7F58300448
:100FD800077F788003B90803120C0C3002057F2DB7
:100FE800020C0C7F202008F87F2B2006F3229202A7
:100FF80080CF7F00B40700500B24C2F582E434A4EC
:10100800F583E0FF22286E756C6C2900D201120B63
:10101800C93001F8C201780930D50108F6020C7808
:101028002D50434958120BC92403B405004001E46C
:1010380090102893120BFD743A120BFDD203750918
:1010480004020E4EE490A496F0A3F0A3F0A3F0A33C
:10105800F0A3F0A3F0A3F0A304F0A37480F0A374AA
:101068008AF0E4A3F0A3F078A37CA47D017BFF7A47
:101078004F794CFE7F021207D0D3908083E0940210
:10108800908082E094007F0040027F0190A49CEF52
:10109800F090A49CE070030213F190A49E7401F0F8
:1010A800A37480F0A3748AF090A49EE0FBA3E0FAF6
:1010B800A3E0F91207F6645A603A908082E0FEA332
:1010C800E0248AF974803EFA7B01C003C002C001A3
:1010D80090A49EA3E0FAA3E0F9C3D082D083D0E025
:1010E800E99582EA9583500C90A49FE475F001126B
:1010F800090D80B4908082E0FEA3E0248AF9748010
:101108003EFA7B01C003C002C00190A49EE0FBA38D
:10111800E0FAA3E0F9D082D083D0E06B7008E965EB
:10112800827003EA65837007908082F0A3F02290B2
:10113800A49EA3E0FAA3E0C3948AFFEA9480FEC3C6
:10114800908083E09FFF908082E09E90A49AF0A315
:10115800EFF090A4A1E024FE60552402600302127F
:10116800337E007FFF7D007B017AA1792A120B9DD7
:10117800E490A4A2F090A49DF090A496F0A3F0A30C
:10118800F0A3F090A498E0FEA3E0FFC39403EE94CC
:1011980000501C74A32FF58274A43EF583E4F090EC
:1011A800A499E004F070DC90A498E004F080D49056
:1011B800A4A87401F0A374A1F0A3742AF0A3740185
:1011C800F0A374A4F0A37496F090A49AE0FFA3E0AF
:1011D80090A4AECFF0A3EFF090A49EE0FBA3E0FABA
:1011E800A3E0F912373190A4A2EFF0A3F0640170E4
:1011F8003A90A496E0FCA3E0FD90A4AA7401F0A3A1
:1012080074A2F0A37429F07B017AA1792A124C61A7
:10121800EF70030212D1123F9F7E017F007D007B99
:10122800017AA27929120B9D0212D190A4A3E0643D
:101238000360030212D190A49F804490A49EE0FB17
:10124800A3E0FAA3E0F91207F6645A603A908082A4
:10125800E0FEA3E0248AF974803EFA7B01C003C053
:1012680002C00190A49EA3E0FAA3E0F9C3D082D003
:1012780083D0E0E99582EA9583500C90A49FE475A9
:10128800F00112090D80B4908082E0FEA3E0248A68
:10129800F974803EFA7B01C003C002C00190A49E8D
:1012A800E0FBA3E0FAA3E0F9D082D083D0E06B7032
:1012B80008E965827003EA65837008908082F0A36C
:1012C800F0800690A49D7401F090A4A2E0640160EF
:1012D8000990A49DE070030213E990A49EA3E0FA8C
:1012E800A3E0C3948AFFEA9480FEC3908083E09FC2
:1012F800FF908082E09EFE90A496E0FCA3E0FDC3F0
:10130800EF9DFFEE9CFE90A49AF0A3EFF0D394001B
:10131800EE94004068E490A498F0A3F090A49AE0BA
:10132800FEA3E0FF90A498E0FCA3E0FDC39FEC9E21
:10133800504390A49EE0FBA3E0FAA3E0F990A496A2
:10134800E0FEA3E0FFE92FF9EA3EFAE92DF9EA3CCD
:10135800FA1207F6FF748A2DF58274803CF583EF44
:10136800F0E412083C90A499E004F070AF90A498BF
:10137800E004F080A790A49C7401F08052E490A44B
:1013880098F0A3F090A49EA3E0FAA3E0C3948AFF88
:10139800EA9480FE90A497E02FFF90A496E03EFE8A
:1013A80090A498E0FCA3E0FDC39FEC9E501C748AB7
:1013B8002DF58274803CF583E4F090A499E004F064
:1013C80070C290A498E004F080BAE490A49CF090D5
:1013D800A49AE0FFA3E0908082CFF0A3EFF0021080
:1013E80099E490A49CF00210992278BA7CA47D011B
:1013F8007BFF7A4F79A57E007F0C1207D07B017A9C
:10140800A479AE90A4E6E4F0A37404F07F107E13F0
:101418001226E87B017AA479B290A4E6E4F0A374DA
:1014280004F07F507E141226E87B017AA479B690E6
:10143800A4E6E4F0A37404F07F207E131226E87B70
:10144800027A007D207C137F007E43123EF77B02E8
:101458007A007D507C147F007E44123EF77B027A2E
:10146800007D107C137F007E41123EF790A4AFE010
:10147800FFE4FCFDFE7810120AD5C004C005C006C2
:10148800C00790A4AEE0FFE4FCFDFE7818120AD570
:10149800D003D002D001D000EF4BFFEE4AFEED4959
:1014A800FDEC48FCC004C005C006C00790A4B0E02D
:1014B800FFE4FCFDFE7808120AD5D003D002D00163
:1014C800D000EF4BFBEE4AFAED49F9EC48F8A3E0FF
:1014D800FFEB4FFFEAFEE9FDE8FC90A4C6120B14EF
:1014E80090A4B3E0FFE4FCFDFE7810120AD5C00416
:1014F800C005C006C00790A4B2E0FFE4FCFDFE787A
:1015080018120AD5D003D002D001D000EF4BFFEE5D
:101518004AFEED49FDEC48FCC004C005C006C00702
:1015280090A4B4E0FFE4FCFDFE7808120AD5D003CD
:10153800D002D001D000EF4BFBEE4AFAED49F9ECAE
:1015480048F8A3E0FFEB4FFFEAFEE9FDE8FC90A4B2
:10155800CE120B1490A4B7E0FFE4FCFDFE78101245
:101568000AD5C004C005C006C00790A4B6E0FFE4D1
:10157800FCFDFE7818120AD5D003D002D001D000A5
:10158800EF4BFFEE4AFEED49FDEC48FCC004C005F8
:10159800C006C00790A4B8E0FFE4FCFDFE7808127E
:1015A8000AD5D003D002D001D000EF4BFBEE4AFAA7
:1015B800ED49F9EC48F8A3E0FFEB4FFFEAFEE9FD3F
:1015C800E8FC90A4CA120B14E47B107A27F9F8906F
:1015D800A4C6E0FCA3E0FDA3E0FEA3E0FF120A24FA
:1015E800E47BE87A03F9F8120A2490A57DEBF0E48D
:1015F8007B64FAF9F890A4C6E0FCA3E0FDA3E0FE42
:10160800A3E0FF120A24E47B64FAF9F8120A249092
:10161800A57EEBF0E47B64FAF9F890A4C6E0FCA39D
:10162800E0FDA3E0FEA3E0FF120A2490A57FEBF003
:10163800E47B107A27F9F890A4CEE0FCA3E0FDA3A0
:10164800E0FEA3E0FF120A24E47BE87A03F9F8122B
:101658000A2490A581EBF0E47B64FAF9F890A4CE13
:10166800E0FCA3E0FDA3E0FEA3E0FF120A24E47B74
:1016780064FAF9F8120A2490A582EBF0E47B64FA84
:10168800F9F890A4CEE0FCA3E0FDA3E0FEA3E0FF00
:10169800120A2490A583EBF0E47B107A27F9F890DE
:1016A800A4CAE0FCA3E0FDA3E0FEA3E0FF120A2425
:1016B800E47BE87A03F9F8120A2490A585EBF0E4B4
:1016C8007B64FAF9F890A4CAE0FCA3E0FDA3E0FE6D
:1016D800A3E0FF120A24E47B64FAF9F8120A2490C2
:1016E800A586EBF0E47B64FAF9F890A4CAE0FCA3C1
:1016F800E0FDA3E0FEA3E0FF120A2490A587EBF02B
:101708007B017AA5797C90A4D7E4F0A37406F07FD6
:10171800007E40023B6A4180800042808200004196
:1017280080810042808400004280860000428088D8
:10173800000044A5AA0000000044A43500000000F1
:1017480041A434006100A22900000000000000004C
:101758000000000000000000000000000000000081
:101768000000000000000000000000000000000071
:101778000000000000000000000000000000000061
:101788000000000000000000000000000000000051
:101798000000000000000000000000000000000041
:1017A8000000000000000000000000000000000031
:1017B8000000000000000000000000000000000021
:1017C8000000000000000000000000000000000011
:1017D8000000000000000000000000000000000001
:1017E80000000000000000000000000000000000F1
:1017F80000000000000000000000000000000000E1
:1018080000000000000000000000000000000000D0
:1018180000000000000000000000000000000000C0
:1018280000000000000000000000000000000000B0
:1018380000000000000000000000000000000000A0
:10184800000000000000000060FFA3350000000059
:101858000000000000000000000000000000000080
:101868000000000000000000000000000000000070
:101878000000000000000000000000000000000060
:101888000000000000000000000000000000000050
:101898000000000000000000000000000000000040
:1018A8000000000000000000000000000000000030
:1018B8000000000000000000000000000000000020
:1018C8000000000000000000000000000000000010
:1018D8000000000000000000000000000000000000
:1018E80000000000000000000000000000000000F0
:1018F80000000000000000000000000000000000E0
:1019080000000000000000000000000000000000CF
:1019180000000000000000000000000000000000BF
:1019280000000000000000000000000000000000AF
:10193800000000000000000000000000000000009F
:10194800000000000000000000000042A58F000019
:1019580041A58E0142A5885AA542A523000041A5AC
:10196800140142A521000041A51F0041A4EC00413B
:10197800A4ED0042A4EE000042A4F0B00542A4F297
:10198800550541A5200041A54C0144A5480000008B
:101998000042A44D000044A48E0000000044A44F5F
:1019A8003EE9518344A46840490E5644A43D3D3263
:1019B800D5D044A4533ECD37BE44A45D00000000FA
:1019C80044A48A0000000044A4720000000044A45B
:1019D800920000000044A46E0000000042A48800A9
:1019E8000044A4610000000044A441000000004439
:1019F800A4590000000044A4390000000042A47863
:101A0800000042A47A000042A457000042A46C00DF
:101A18000142A46600B041A4760B41A4770544A511
:101A2800510000000048A555000000010002000315
:101A380044A54D000000000090A536E0FEA3E0FF9D
:101A480090A44EE0FD12223F7B017AA4796E90A407
:101A5800E6E4F0A37404F07F007E2612249B90A590
:101A680036E0FCA3E0FDE412041CE4FBFA797A7882
:101A78004412030190A48E120B1490A44EE064014A
:101A88006003021B7390A536E0FCA3E0FDE412049A
:101A98001CE4FBFA797A784412030190A453E0F825
:101AA800A3E0F9A3E0FAA3E0FB12010790A45D12FA
:101AB8000B14E4FFFEFD7C4090A44FE0F8A3E0F98E
:101AC800A3E0FAA3E0FB1201F890A45DE0F8A3E01C
:101AD800F9A3E0FAA3E0FB1201F890A472120B1428
:101AE80090A44FE0FCA3E0FDA3E0FEA3E0FF90A4D8
:101AF8005DE0F8A3E0F9A3E0FAA3E0FB1201F8C067
:101B080004C005C006C00790A4A8120B204000001E
:101B180000D007D006D005D004122CED90A468E0C0
:101B2800F8A3E0F9A3E0FAA3E0FB1201F890A48A75
:101B3800120B1490A45DE0FCA3E0FDA3E0FEA3E07B
:101B4800FF90A48AE0F8A3E0F9A3E0FAA3E0FB126F
:101B580001F8E4FBFA7940784012030190A492124C
:101B68000B147B017AA47992021CF490A44EE064D1
:101B7800026003021C3590A536E0FCA3E0FDE412E8
:101B8800041CE4FBFA797A784412030190A453E028
:101B9800F8A3E0F9A3E0FAA3E0FB12010790A45D23
:101BA800120B14E4FFFEFD7C4090A43DE0F8A3E096
:101BB800F9A3E0FAA3E0FB1201F890A45DE0F8A312
:101BC800E0F9A3E0FAA3E0FB1201F890A472120B6B
:101BD8001490A43DE0FCA3E0FDA3E0FEA3E0FF9089
:101BE800A45DE0F8A3E0F9A3E0FAA3E0FB1201F892
:101BF800C004C005C006C00790A4A8120B2040006E
:101C08000000D007D006D005D004122CED90A468AF
:101C1800E0F8A3E0F9A3E0FAA3E0FB1201F890A42E
:101C28008A120B147B017AA4798A021CF490A44EC0
:101C3800E064036003021D0490A536E0FCA3E0FD08
:101C4800E412041CE4FBFA797A784412030190A4A4
:101C580053E0F8A3E0F9A3E0FAA3E0FB1201079030
:101C6800A45D120B14E4FFFEFD7C4090A44FE0F845
:101C7800A3E0F9A3E0FAA3E0FB1201F890A45DE069
:101C8800F8A3E0F9A3E0FAA3E0FB1201F890A4722C
:101C9800120B1490A44FE0FCA3E0FDA3E0FEA3E028
:101CA800FF90A45DE0F8A3E0F9A3E0FAA3E0FB123B
:101CB80001F8C004C005C006C00790A4A8120B20F4
:101CC80040000000D007D006D005D004122CED90BB
:101CD800A468E0F8A3E0F9A3E0FAA3E0FB1201F896
:101CE80090A48A120B147B017AA4798A90A4E6E462
:101CF800F0A37404F07F507E2812249B7B017AA401
:101D0800798E90A4E6E4F0A37404F07F007E251297
:101D1800249B7B017AA4797290A4E6E4F0A374046E
:101D2800F07F407E2802249B78B67CA47D017BFF4F
:101D38007A4F79747E007F061207D07B017AA479E6
:101D4800AE90A4E6E4F0A37404F07F007E1312269C
:101D5800E87B017AA479B290A4E6E4F0A37404F0D5
:101D68007F057E131226E890A4AFE0FFE4FCFDFE99
:101D78007810120AD5C004C005C006C00790A4AEEA
:101D8800E0FFE4FCFDFE7818120AD5D003D002D09B
:101D980001D000EF4BFFEE4AFEED49FDEC48FCC0D8
:101DA80004C005C006C00790A4B0E0FFE4FCFDFE37
:101DB8007808120AD5D003D002D001D000EF4BFB2F
:101DC800EE4AFAED49F9EC48F8A3E0FFEB4FFFEAD9
:101DD800FEE9FDE8FC90A4BC120B1490A4B3E0FF4C
:101DE800E4FCFDFE7810120AD5C004C005C006C088
:101DF8000790A4B2E0FFE4FCFDFE7818120AD5D0E3
:101E080003D002D001D000EF4BFFEE4AFEED49FDB2
:101E1800EC48FCC004C005C006C00790A4B4E0FFAD
:101E2800E4FCFDFE7808120AD5D003D002D001D018
:101E380000EF4BFBEE4AFAED49F9EC48F8A3E0FF56
:101E4800EB4FFFEAFEE9FDE8FC90A58A120B14E4CB
:101E58007B64FAF9F890A58AE0FCA3E0FDA3E0FE14
:101E6800A3E0FF120A2490A4BBEBF0E47B64FAF928
:101E7800F890A58AE0FCA3E0FDA3E0FEA3E0FF1232
:101E88000A24E47B64FAF9F8120A2490A4BAEBF065
:101E9800E47B107A27F9F890A58AE0FCA3E0FDA37B
:101EA800E0FEA3E0FF120A24E47B64FAF9F8120AC0
:101EB8002490A4B9EBF0E47B64FAF9F890A4BCE0B0
:101EC800FCA3E0FDA3E0FEA3E0FF120A2490A4B85F
:101ED800EBF0E47B64FAF9F890A4BCE0FCA3E0FD25
:101EE800A3E0FEA3E0FF120A24E47B64FAF9F812E7
:101EF8000A2490A4B7EBF0E47B107A27F9F890A4B1
:101F0800BCE0FCA3E0FDA3E0FEA3E0FF120A24E48A
:101F18007B64FAF9F8120A2490A4B6EBF0A3E0FF68
:101F2800D3940074809480406ED3EF940C748094A2
:101F3800805064A3E0FF941F748094805054EF9401
:101F48000074809480404BA3E0D3941774809480ED
:101F58005039C3748094804032A3E0D3943B74809A
:101F680094805020C3748094804019A3E0D3943B9C
:101F7800748094805007C3748094805020E490A4A7
:101F8800BBF08019E490A4BAF08012E490A4B9F0F0
:101F9800800B90A4B8800390A4B77401F07B017AF9
:101FA800A479B690A4E6E4F0A37406F07F9D7E00C1
:101FB80012249B7B017AA5798890A4E6E4F0A374A7
:101FC80002F07F9C7E0012249B022B3D90A496EB8E
:101FD800F0A3EAF0A3E9F090A441E0FCA3E0FDA39C
:101FE800E0FEA3E0FFEC4D4E4F700302223E90A4AA
:101FF80041120B200000000090A461E0F8A3E0F972
:10200800A3E0FAA3E0FBC000C001C002C0037B004C
:102018007A40791C784690A46EE0FCA3E0FDA3E02A
:10202800FEA3E0FF120301D003D002D001D00012BA
:10203800010790A461120B1490A439E0FCA3E0FD01
:10204800A3E0FEA3E02401FFE43EFEE43DFDE43C02
:10205800FC90A439120B14E47F0AFEFDFC90A4390D
:10206800E0F8A3E0F9A3E0FAA3E0FBC3120AC44036
:102078002990A439120B200000000090A459E0FC1C
:10208800A3E0FDA3E0FEA3E02401FFE43EFEE43D5F
:10209800FDE43CFC90A459120B1490A536E0FEA375
:1020A800E0FF90A496A3E0FAA3E0F5828A83120BDE
:1020B8009B90A551E0FCA3E0FDA3E0FEA3E0FF1286
:1020C8000455AB07AA067C007D3C12088290A49BAD
:1020D800EEF0A3EFF07C007D3CAF03AE0212088265
:1020E80090A499ECF0A3EDF07B017AA4799B90A4DD
:1020F800E6E4F0A37402F07F007E2812249B7B01A3
:102108007AA4799990A4E6E4F0A37402F07F057E9E
:102118002812249B90A459E0FCA3E0FDA3E0FEA3B1
:10212800E0FFE412041790A551E0F8A3E0F9A3E05A
:10213800FAA3E0FB120107120455AB07AA067C00BC
:102148007D3C12088290A49BEEF0A3EFF07C007D0A
:102158003CAF03AE0212088290A499ECF0A3EDF014
:102168007B017AA4799990A4E6E4F0A37402F07F45
:10217800257E2812249B7B017AA4799B90A4E6E40F
:10218800F0A37402F07F207E2812249B7B017AA49E
:10219800796190A4E6E4F0A37404F07F007E27122E
:1021A800249BE4FFFE7D7A7C4490A461E0F8A3E0E0
:1021B800F9A3E0FAA3E0FB1201F890A54DE0F8A31B
:1021C800E0F9A3E0FAA3E0FB12039E501EE4FBFA39
:1021D800797A784490A54DE0FCA3E0FDA3E0FEA346
:1021E800E0FF12030190A461120B147F007E507D62
:1021F800C37C4790A461E0F8A3E0F9A3E0FAA3E068
:10220800FB1201F890A54DE0F8A3E0F9A3E0FAA3CA
:10221800E0FB12030112045590A488EEF0A3EFF03E
:102228007B017AA4798890A4E6E4F0A37402F07F95
:10223800307E2812249B2290A496EDF0AB07AA06C4
:10224800E4A3F0A3120B200000000090A4A0120B3E
:102258002000000000AE02AF037C007D0A12088255
:10226800AC06AD07E412041C90A49C120B14E4FF06
:10227800FE7D207C4190A49CE0F8A3E0F9A3E0FA5D
:10228800A3E0FB12039E60025023E4FFFE7DA07CC6
:102298004090A49CE0F8A3E0F9A3E0FAA3E0FB12C5
:1022A800039E400990A4977401F002237CE4FFFE8A
:1022B8007DA07C4190A49CE0F8A3E0F9A3E0FAA3F8
:1022C800E0FB12039E60025025E4FFFE7D207C4166
:1022D80090A49CE0F8A3E0F9A3E0FAA3E0FB1203C2
:1022E8009E600B400990A4977402F002237CE4FFDF
:1022F800FE7DC87C4290A49CE0F8A3E0F9A3E0FA34
:10230800A3E0FB12039E60025024E4FFFE7DA07C44
:102318004190A49CE0F8A3E0F9A3E0FAA3E0FB1243
:10232800039E600A400890A4977403F08046E4FF77
:10233800FE7D967C4390A49CE0F8A3E0F9A3E0FA24
:10234800A3E0FB12039E60025024E4FFFE7DC87CDC
:102358004290A49CE0F8A3E0F9A3E0FAA3E0FB1202
:10236800039E600A400890A4977404F0800690A425
:10237800977405F090A497E024FE603914605F1408
:1023880070030224112403600302246790A4A81296
:102398000B20BFCCCCCD90A49CE0FCA3E0FDA3E037
:1023A800FEA3E0FF122CED90A4A0120B147FDC7E9C
:1023B800AF7D0E805090A4A8120B20BFECCCCD901E
:1023C800A49CE0FCA3E0FDA3E0FEA3E0FF122CED3B
:1023D80090A4A0120B147FB87E287D80802790A43B
:1023E800A8120B20BFE7AE1490A49CE0FCA3E0FD6C
:1023F800A3E0FEA3E0FF122CED90A4A0120B147F23
:10240800407E167D617C47802990A4A8120B20C0CD
:1024180000000090A49CE0FCA3E0FDA3E0FEA3E084
:10242800FF122CED90A4A0120B147F047EF67D07FA
:102438007C4890A4A0E0F8A3E0F9A3E0FAA3E0FBAD
:102448001201F890A498120B1490A498E0FCA3E051
:10245800FDA3E0FEA3E0FF90A46E120B148006908B
:10246800A497740AF090A496E0FF64016005EF64F5
:1024780003701F90A46EE0FCA3E0FDA3E0FEA3E0C0
:10248800FF7B9A7A997919783F1201F890A46E1215
:102498000B142290A4E3EBF0A3EAF0A3E9F0AD0754
:1024A800AC0690A4E3E0FBA3E0FAA3E04A4B700378
:1024B8000226E7A3E0FEA3E0FF4E70030226E7EE44
:1024C800C313FEEF132DFFEE3CFED3EF94FEEE9404
:1024D800FF40030226E7C2AFED5401FBECC313FC37
:1024E800ED13FDAE047810CEC313CE13D8F9F5F171
:1024F800ECF5F2AF058FF3E4F5F875F401D2FF308F
:10250800FCFDC2FDEB6401707C90A4E6E0FEA3E054
:10251800FF64014E700AC2FBC2FAD2F9C2F8800801
:10252800C2FBC2FAD2F9D2F8EF64014E90A4E3706C
:102538001AE0FBA3E475F001120923A9F0FA1207C7
:10254800F6F5FC90A4E7E024FF802DE0FBA3E475FA
:10255800F001120923A9F0FA1207F6F5FC90A4E39A
:10256800E0FBA3E475F001120923A9F0FA1207F6BB
:10257800F5FD90A4E7E024FEF090A4E6E034FFF037
:10258800D2FE20FEFD90A4E6E0FEA3E0FF4E70031D
:102598000226E2C3EF9404EE94004003022670EE94
:1025A8007022EF14601614600D147018D2FBD2FA62
:1025B800D2F9C2F8800ED2FBD2FA8004D2FBC2FA5A
:1025C800C2F9C2F890A4E6E0FEA3E0FFEE600302C1
:1025D8002669EF1460761460471460030226699038
:1025E800A4E3E0FBA3E475F001120923A9F0FA12B1
:1025F80007F6F5FA90A4E3E0FBA3E475F0011209ED
:1026080023A9F0FA1207F6F5FB90A4E3E0FBA3E494
:1026180075F001120923A9F0FA1207F6F5FC8041BA
:1026280090A4E3E0FBA3E475F001120923A9F0FAF2
:102638001207F6F5FA90A4E3E0FBA3E475F00112A3
:102648000923A9F0FA1207F6F5FB801590A4E3E038
:10265800FBA3E475F001120923A9F0FA1207F6F5B5
:10266800FAD2FE30FE7480FBD2FBD2FAD2F9D2F84D
:1026780090A4E3E0FBA3E475F001120923A9F0FAA2
:102688001207F6F5FA90A4E3E0FBA3E475F0011253
:102698000923A9F0FA1207F6F5FB90A4E3E0FBA3DF
:1026A800E475F001120923A9F0FA1207F6F5FC9077
:1026B800A4E3E0FBA3E475F001120923A9F0FA12E0
:1026C80007F6F5FDD2FE20FEFD90A4E7E024FCF01D
:1026D80090A4E6E034FFF002258DE4F5F8D2AF22AD
:1026E80090A4E3EBF0A3EAF0A3E9F0AD07AC069001
:1026F800A4E3E0FBA3E0FAA3E04A4B700302292F0E
:10270800A3E0FEA3E0FF4E700302292FEEC313FEE1
:10271800EF132DFFEE3CFED3EF94FEEE94FF400343
:1027280002292FC2AFED5401FBECC313FCED13FDDE
:10273800AE047810CEC313CE13D8F9F5F1ECF5F248
:10274800AF058FF3E4F5F875F401D2FF30FCFDD244
:10275800FDEB6401707D90A4E6E07004A3E06401E1
:10276800700AC2FBC2FAD2F9C2F88008C2FBC2FAE8
:10277800D2F9D2F8D2FE20FEFD90A4E6E07004A3C0
:10278800E0640190A4E3701BE0FBA3E475F0011280
:102798000923A9F0FAE5FC12083C90A4E7E024FF1D
:1027A80002291FE0FBA3E475F001120923A9F0FA3E
:1027B800E5FC12083C90A4E3E0FBA3E475F00112E9
:1027C8000923A9F0FAE5FD12083C90A4E7E024FEED
:1027D80002291F90A4E6E0FEA3E0FF4E7003022941
:1027E8002AC3EF9404EE940040030228B8EE702246
:1027F800EF14601614600D147018D2FBD2FAD2F9D7
:10280800C2F8800ED2FBD2FA8004D2FBC2FAC2F917
:10281800C2F8D2FE20FEFD90A4E6E0FEA3E0FFEEA3
:10282800600302292AEF14607014604414600302E4
:10283800292A90A4E3E0FBA3E475F001120923A977
:10284800F0FAE5FA12083C90A4E3E0FBA3E475F083
:1028580001120923A9F0FAE5FB12083C90A4E3E071
:10286800FBA3E475F001120923A9F0FAE5FC803B0B
:1028780090A4E3E0FBA3E475F001120923A9F0FAA0
:10288800E5FA12083C90A4E3E0FBA3E475F001121A
:102898000923A9F0FAE5FB801290A4E3E0FBA3E486
:1028A80075F001120923A9F0FAE5FA12083C8072C2
:1028B800D2FBD2FAD2F9D2F8D2FE20FEFD90A4E3E0
:1028C800E0FBA3E475F001120923A9F0FAE5FA1276
:1028D800083C90A4E3E0FBA3E475F001120923A9E6
:1028E800F0FAE5FB12083C90A4E3E0FBA3E475F0E2
:1028F80001120923A9F0FAE5FC12083C90A4E3E0D0
:10290800FBA3E475F001120923A9F0FAE5FD12080A
:102918003C90A4E7E024FCF090A4E6E034FFF00249
:1029280027DBE4F5F8D2AF2290A4EDE004F0E490C0
:10293800A521F0A3F090A51FE07010E004F090A48A
:10294800EEE4F0A3740AF07E00FF2290A4EEE0FE0D
:10295800A3E0FFC3744E9FFD74029EFCE412041CA6
:1029680090A551E0F8A3E0F9A3E0FAA3E0FB120375
:102978009E407D90A4EEE0FEA3E0FF744E9FFD74A0
:10298800029EFCE412041CA804A905AA06AB079041
:10299800A551E0FCA3E0FDA3E0FEA3E0FF120301C4
:1029A800E4FBFA7980783F12010712045590A4ECF1
:1029B800EFF0A3E0C39F5003022B27E4F090A51F7C
:1029C800E004F090A4EFE02402F090A4EEE03400DC
:1029D800F0E0FEA3E0FFD3945AEE94014003022BEB
:1029E80019C3EF94D2EE94014003022B1E022B1957
:1029F80090A4EEE0FEA3E0FFC3744E9FFD74029E18
:102A0800FCE412041C90A551E0F8A3E0F9A3E0FA55
:102A1800A3E0FB12039E6002506E90A4EEE0FEA3BA
:102A2800E0FFC3744E9FFF74029EC313FCEF13FDB7
:102A3800E412041C90A551E0F8A3E0F9A3E0FAA37E
:102A4800E0FB12039E404190A4EC7402F0A3E094D2
:102A5800025003022B27E4F090A51FE004F090A495
:102A6800EFE02402F090A4EEE03400F0E0FEA3E0F2
:102A7800FFD3945AEE94015009C3EF94D2EE940117
:102A88005003022B19022B1E90A4EEE0FEA3E0FFD8
:102A9800C3744E9FFF74029EC313FCEF13FDE41230
:102AA800041C90A551E0F8A3E0F9A3E0FAA3E0FB29
:102AB80012039E6002506890A4EEE0FEA3E0FFC3FC
:102AC800744E9FFD74029EFCE412041C90A551E014
:102AD800F8A3E0F9A3E0FAA3E0FB120301120455FE
:102AE80090A4ECEFF0E4A3F090A51FE004F090A40C
:102AF800EFE02FF090A4EEE03400F0E0FEA3E0FF5A
:102B0800D3945AEE94015009C3EF94D2EE94015035
:102B1800057EFF7FFE2290A4EEE0FEA3E0FF229058
:102B2800A51FE0D394227480948140057EFF7FFF27
:102B380022E4FEFF2278C27CA47D017BFF7A4F79D4
:102B4800827E007F021207D07B017AA479C090A40C
:102B5800E6E4F0A37402F07F9C7E001226E890A4BD
:102B6800C0E0645A7004A3E064A56003022CEC90F2
:102B7800A4C4F0A3F0D20078C67CA47D017BFF7AC0
:102B88004F7984FE7F071207D07B017AA479CD9014
:102B9800A4E6E4F0A37402F07F9D7E001226E8907C
:102BA800A4CDE0FCA3E0FDEC90A4C4F0E0FF75F038
:102BB8000A84C454F0FEEF75F00A84EE25F090A460
:102BC800C6F090A4C4EDF0E0FF75F00A84C454F098
:102BD800FEEF75F00A84EE25F090A4C7F07B017A29
:102BE800A479CD90A4E6E4F0A37402F07F9E7E0061
:102BF8001226E890A4CDE0FCA3E0FDEC90A4C4F07C
:102C0800E0FF75F00A84C454F0FEEF75F00A84EE14
:102C180025F090A4C8F090A4C4EDF0E0FF75F00A88
:102C280084C454F0FEEF75F00A84EE25F090A4CA2F
:102C3800F07B017AA479CD90A4E6E4F0A37402F0C5
:102C48007F9F7E001226E890A4CDE0FCA3E0FDEC77
:102C580090A4C4F0E0FF75F00A84C454F0FEEF7548
:102C6800F00A84EE25F090A4CBF090A4C4EDF0E037
:102C7800FF75F00A84C454F0FEEF75F00A84EE255F
:102C8800F090A4CCF07B017AA479C290A4E6E4F099
:102C9800A304F07F9C7E0012249B30004712449DC1
:102CA8007F101244DB90A4CCE0FF1244DB90A4CB4D
:102CB800E0FF1244DB90A4CAE0FF1244DB90A4C9F1
:102CC800E0FF1244DB90A4C8E0FF1244DB90A4C7E5
:102CD800E0FF1244DB90A4C6E0FF1244D0124CFB84
:102CE800C20080B62290A4A4120B14E4FFFE7D80DB
:102CF8007C3F90A4A4E0F8A3E0F9A3E0FAA3E0FBEA
:102D080012039E700690A4A4022E4790A4A4E0FC8F
:102D1800A3E0FDA3E0FEA3E0FF1204D6FBA3E0FCC2
:102D2800A3E0FDA3E0FEA3E0FF1204D6FFB4010870
:102D3800E4FFFE7D807C3F22EF64046029EB64049D
:102D48006024EBB40130E4FFFEFDFC90A4A8E0F899
:102D5800A3E0F9A3E0FAA3E0FB12039E6008400693
:102D6800E4FFFEFDFC2290A4A8120B20FFFFFFFF4A
:102D780090A4A8022E47E490A4ACF0A3F0FFFEFDB7
:102D8800FC90A4A4E0F8A3E0F9A3E0FAA3E0FB1206
:102D9800039E505F90A4A8E0FCA3E0FDA3E0FEA37F
:102DA800E0FF12045590A4ACEEF0A3EFF0FDCCEEDA
:102DB800CCEC12041CC8ECC8C9EDC9CAEECACBEFEA
:102DC800CB90A4A8E0FCA3E0FDA3E0FEA3E0FF12E3
:102DD8000103E4FBFAF9F812039E708A90A4A4E0B8
:102DE800FCA3E0FDA3E0FEA3E0FF1204F090A4A47E
:102DF800120B1490A4A4E0FCA3E0FDA3E0FEA3E062
:102E0800FF12326390A4A8E0F8A3E0F9A3E0FAA3C4
:102E1800E0FB1201F812411C90A4A8120B1490A414
:102E2800ADE030E01790A4A8E0FCA3E0FDA3E0FE2D
:102E3800A3E0FF1204F090A4A8120B1490A4A8E039
:102E4800FCA3E0FDA3E0FEA3E0FF2290A4A1EBF029
:102E580090A4A0EDF0EF24D0FEE4340790A4A3F0F2
:102E6800A3CEF0EDFF64016005EF6402701590A435
:102E7800A0E0240CF090A4A4E024FFF090A4A3E028
:102E880034FFF090A4A3E0FEA3E0FFC394D8EE942F
:102E9800064034BE0610BFD80D90A4A0E0C3940924
:102EA80074809480402190A4A3E064067004A3E099
:102EB80064D8706590A4A0E06409705DA3E0C39431
:102EC8000374809480505290A4A0E0FB2401FFE496
:102ED80033FE7C007D031208707D051208D7AD070C
:102EE800EB75F002A4FFA3E07A002FFFEA35F0CFDC
:102EF8002DCF3EFE90A4A3E0FCA3E0FD2FFBEC3E0B
:102F0800FAAE04ED7802CEC313CE13D8F92BFFEA3C
:102F18003ECF2406CF3400807C90A4A0E02401FF9B
:102F2800E433FE7C007D031208707D051208D7ACDF
:102F380006AD07A3E02401FBE433FA90A4A0E075F2
:102F4800F002A42BFFE5F03ACF2DCF3CFE90A4A3CE
:102F5800E0FCA3E0FD2FFBEC3EFAAE04ED7802CED8
:102F6800C313CE13D8F92BFBEA3EFA90A4A3E0FED4
:102F7800A3E0FF7C007D64120882C3EB9FFBEA9EFE
:102F8800FA90A4A3E0FEA3E0FF7C017D90120882E2
:102F9800EF2BFFEE3AFE7C007D0712088290A4A278
:102FA800EDF090A4A2E0FF2290A54CE0FF7E001275
:102FB8004C0690A496EEF0A3EFF090A54CE024FD0B
:102FC800605C24FE7003023074240460030230FB4A
:102FD80090A54C7403F090A496E0FCA3E0FDE412E5
:102FE800041C7BDD7AD4790D78411201F8E4FBFAF0
:102FF800797A78441203017B5C7A8F7982783F1260
:1030080001F890A540120B147B017AA5794090A491
:10301800E6E4F0A37404F07F007E450230F890A542
:103028004C7405F090A496E0FCA3E0FDE412041CA7
:103038007BE57A4C79CE783F1201F8E4FBFA797A8D
:1030480078441203017BAE7A477981783F1201F800
:1030580090A53C120B147B017AA5793C90A4E6E478
:10306800F0A37404F07F007E440230F890A54C74FD
:1030780001F090A496E0FCA3E0FDE412041C7BDDC3
:103088007AD4790D78411201F8E4FBFA797A784418
:103098001203017B5C7A8F7982783F1201F890A540
:1030A80038120B1490A538E0F8A3E0F9A3E0FAA3CE
:1030B800E0FB90A540E0FCA3E0FDA3E0FEA3E0FF59
:1030C800120103E4FBFAF9783F1203017B5C7A8F63
:1030D8007982783F1201F890A544120B147B017A8B
:1030E800A5794490A4E6E4F0A37404F07F007E433D
:1030F80012249B2278987CA47D017BFF7A4F797AF1
:103108007E007F081207D01244D6124D05124E18C1
:103118007F651244DB7C06ECD39400748094804075
:1031280015124C3474982CF582E434A4F583EFF02E
:103138001200161C80E1124C3490A498EFF0124E45
:103148009C124D0AE4FCECC39403748094805030C4
:1031580074982CF582E434A4F583E0FFC4540FFE80
:1031680090A496F0EF540FFFA3F0EE75F00AA42F89
:10317800FF74982CF582E434A4F583EFF00C80C634
:103188007C04ECC3940774809480503074982CF5B8
:1031980082E434A4F583E0FFC4540FFE90A496F0B3
:1031A800EF540FFFA3F0EE75F00AA42FFF74982CCC
:1031B800F582E434A4F583EFF00C80C690A498E07F
:1031C800FFA3E0FDA3E0FB122E5390A49BEFF07B3E
:1031D800017AA4799890A4E6E4F0A37402F07F1031
:1031E8007E0012249B7B017AA4799A90A4E6E4F0ED
:1031F800A37402F07F117E0012249B7B017AA479CC
:103208009C90A4E6E4F0A37402F07F127E001224DE
:103218009B7B017AA4799E90A4E6E4F0A37402F063
:103228007F137E0002249B3E9248DA3ECCCCCD3FF1
:103238002AAAAB400000003F8000003F9837F03FCB
:10324800B504F33FD744FC3E3172173EB172173FC5
:103258000515913EDE5BD9D2008002C200EDD2E7AF
:10326800F8CD33EC3304700BBD800592D50204CB46
:103278000204C140FBD31460F2F5F07C3FEE7A0003
:10328800C39496C8948B40230AC89469C8941A407A
:103298001A0AC89468C8941F40110AC8945AC89456
:1032A80025400805F07A00CDC2E7CDC0F090A4AE65
:1032B800120B14EA2323C0E0243FF582E43432F5EC
:1032C80083120B04120107ECC0E0EDC0E0EEC0E091
:1032D800EFC0E0120AE890A4AE120AF8120103D077
:1032E800E0FBD0E0FAD0E0F9D0E0B2E7F812030151
:1032F80090A4AE120B1490322F740312064390A4BC
:10330800AE120AF81201F8D0E0600F244BF582E4FF
:103318003432F583120B0412010790A4AE120B1479
:10332800D0E0C3947FFDE49400FC12041C7B187A5F
:10333800727931783F1201F890A4AE120AF812019E
:103348000730000B7BD97A5B79DE783E1201F822D0
:103358007B017AA4799A90A4E6E4F0A37402F07F42
:10336800007E511226E890A49AE0FEA3E0FFEE70DA
:103378004CEF24FE601914602214602B146034246E
:1033880004703A90A54D120B2043FA0000802E904D
:10339800A54D120B20447A0000802290A54D120BF7
:1033A8002044BB8000801690A54D120B20451C4080
:1033B80000800A90A54D120B20457A000090A53692
:1033C800E0FEA3E0FF12381090A551E0FCA3E0FD59
:1033D800A3E0FEA3E0FF120455AB07AA067C007D1C
:1033E8003C12088290A498EEF0A3EFF07C007D3C9C
:1033F800AF03AE0212088290A496ECF0A3EDF07B26
:10340800017AA4799890A4E6E4F0A37402F07F20EE
:103418007E2812249B7B017AA4799890A4E6E4F094
:10342800A37402F07F007E2812249B7B017AA47982
:103438009690A4E6E4F0A37402F07F057E28122497
:103448009B7B017AA4799690A4E6E4F0A37402F039
:103458007F257E2802249BAEAD90A523E0FCA3E047
:10346800FDEC704BED146020047044EE645760036B
:1034780002355F74262DF58274A53CF583EEF09035
:10348800A523E4F0A304F022EE701C90A523E0FC31
:10349800A3E02426F58274A53CF583EEF090A523DD
:1034A800E4F0A37402F022E490A523F0A3F02290A4
:1034B800A523E0FCA3E02426F58274A53CF583EE61
:1034C800F090A524E004F0700690A523E004F0D362
:1034D80090A524E0940F90A523E094004079E4F0AF
:1034E800A3F090A527E0FF90A526E02FFF90A52840
:1034F800E02FFFA3E02FFFA3E02FFFA3E02FFFA300
:10350800E02FFFA3E02FFFA3E02FFFA3E02FFFA3EF
:10351800E0FD2FFFA3E0FE2FFFA3E02FFFA3E02F86
:10352800FFA3E02FFFA3E0B5072DEE702A90A52F8B
:10353800E07B00FAED7E007810C333CE33CED8F9A5
:10354800FFEE4AFEEF4BFF90A52EE0FDEF4DFF90FA
:10355800A536EEF0A3EFF02290A4ACEEF0A3EFF0C6
:1035680090A44EE024F87003023619240760030281
:10357800365190A4ACE064307004A3E06410705F2E
:10358800124ECFEF6401704690A55EE0640570218D
:1035980012488590A55E7403F01238EF7B017AA576
:1035A800795790A4E6E4F0A37402F07F107E30808F
:1035B8005D90A55EE0640270067403F00238EF9037
:1035C800A55EE0640460030236517403F022124ED3
:1035D800CFEF90A55E70047404F0227401F022907D
:1035E800A4ACE0FEA3E0FFBE300ABF200790A55EB2
:1035F8007406F022EF7003EE6451704D7B017AA5DA
:10360800795790A4E6F0A37402F07F057E51022456
:103618009B90A4ACE0FEA3E0FF64407003EE64144A
:103628006006BE1406BF4103024A2B90A4ACE0B466
:103638001408A3E0B40003021D3090A4ACE0B41455
:1036480008A3E0B410031213F222C0E0C0F0C08354
:10365800C082C0D075D000C000C001C002C003C085
:1036680004C005C006C007C2AF758CBC758ACD9072
:10367800A590E004F0700690A58FE004F090A5AA4C
:10368800E0FCA3E0FDA3E0FEA3E02401FFE43EFE8E
:10369800E43DFDE43CFC90A5AA120B14E47F64FE13
:1036A800FDFC90A5AAE0F8A3E0F9A3E0FAA3E0FBEB
:1036B800C3120AC4405690A522E004F0700690A5F3
:1036C80021E004F090A441E0FCA3E0FDA3E0FEA308
:1036D800E02401FFE43EFEE43DFDE43CFC90A4410F
:1036E800120B1490A548E0FCA3E0FDA3E0FEA3E0C4
:1036F8002401FFE43EFEE43DFDE43CFC90A54812B5
:103708000B1490A5AA120B2000000000D2AFD0071E
:10371800D006D005D004D003D002D001D000D0D03C
:10372800D082D083D0F0D0E03290A4A5EBF0A3EA09
:10373800F0A3E9F0E490A4B0F0A3F0A3F0A3F0C3E1
:1037480090A4AFE0940790A4AEE0940050037F02E9
:103758002290A4A5E0FBA3E0FAA3E0F91207F6641F
:103768005A60037F032290000112080F64A56003CA
:103778007F032290000212080F2403FFE433FE9017
:10378800A4B0F0A3EFF0C390A4AFE09F90A4AEE084
:103798009E4072E490A4B2F0A3F090A4B0E0FEA31F
:1037A800E0FFA3E0FCA3E0FDC39FEC9E503C90A487
:1037B800A5E0FBA3E0FAA3E0F91207F6FF90A4A89E
:1037C800E0FBA3E0FAA3E0F98D828C83EF12084EA8
:1037D80090A4A6E475F00112090D90A4B3E004F0DA
:1037E80070B890A4B2E004F080B090A4B0E0F9A35F
:1037F800E0FF90A4ABE0FBA3E0FAA3E0C98FF012CE
:10380800099C7F01227F0222AD07AC06E412041C4A
:10381800E4FBFA7920784112030190A49C120B145E
:10382800E4FFFE7DC87C4390A49CE0F8A3E0F9A3E4
:10383800E0FAA3E0FB12039E5024E4FFFE7DA07C87
:103848004090A49CE0F8A3E0F9A3E0FAA3E0FB12FF
:10385800039E600A400890A55D7401F0800690A55B
:103868005D7405F090A55EE06403602590A55DE0B9
:1038780014706D90A46EE0F8A3E0F9A3E0FAA3E059
:10388800FB90A54DE0FCA3E0FDA3E0FEA3E0FF80D4
:103898004690A55DE0147048E4FFFE7D7A7C449074
:1038A800A461E0F8A3E0F9A3E0FAA3E0FB1201F8B1
:1038B800A804A905AA06AB0790A54DE0FCA3E0FD66
:1038C800A3E0FEA3E0FF12010390A46EE0F8A3E0DA
:1038D800F9A3E0FAA3E0FB12030190A551020B142F
:1038E80090A55D7406F02290A44EE0640170077DF7
:1038F800027F041247C97B017AA5795590A4E6E4B2
:10390800F0A37402F07F057E5112249B90A44EE030
:1039180090A448F0E4A3F090A476E090A44AF09034
:10392800A457E0FFA3E090A44BCFF0A3EFF090A43E
:1039380066E0FEA3E0FF7B017AA4794590A4E6E463
:10394800F0A37408F012249B90A466E0FEA3E0FFA5
:103958007B017AA4797890A4E6E4F0A37402F012CB
:1039680026E890A479E0FF90A478E0B507DA90A45F
:10397800497401F090A477E090A44AF090A466E01E
:10398800FEA3E0FF7B017AA4794590A4E6E4F0A3C6
:103998007408F012249B90A466E0FEA3E0FF7B016C
:1039A8007AA4797890A4E6E4F0A37402F01226E8E9
:1039B80090A479E0FF90A478E0B507DA90A47AE4BF
:1039C800F0A304F02290A47AE07004A3E0640160FC
:1039D80003023AA490A44EE0640170077D027F04BC
:1039E80012482790A44EE090A448F090A46CE0FF01
:1039F800A3E090A44BCFF0A3EFF090A477E090A4BD
:103A08004AF090A4497401F090A466E0FEA3E0FF98
:103A18007B017AA4794590A4E6E4F0A37408F01237
:103A2800249B90A466E0FEA3E0FF7B017AA479784A
:103A380090A4E6E4F0A37402F01226E890A479E0DA
:103A4800FF90A478E0B507DA90A476E090A44AF055
:103A5800E490A449F090A466E0FEA3E0FF7B017A1D
:103A6800A4794590A4E6E4F0A37408F012249B908E
:103A7800A466E0FEA3E0FF7B017AA4797890A4E62F
:103A8800E4F0A37402F01226E890A479E0FF90A471
:103A980078E0B507DAE490A47AF0A3F02290A57C48
:103AA80074F0F090A58004F090A58404F07B067A69
:103AB800007D007C387F007E40123E4F7B017AA556
:103AC800797C90A564E4F0A37406F07F007E401230
:103AD8003C2B7B017AA5799190A564E4F0A374044A
:103AE800F07F607E51123C2B90A591E07004A3E01A
:103AF80064F670417B017AA5799390A4E6F0A374EB
:103B080002F07F007E2412249B7B017AA579959090
:103B1800A4E6E4F0A37402F07F107E2412249B7BB9
:103B2800017AA5799790A4E6E4F0A37402F07F20C7
:103B38007E2412249B7B027A007D207C137F007EEA
:103B480043123E4F7B027A007D507C147F007E44F6
:103B5800123E4F7B027A007D107C137F007E41026B
:103B68003E4F90A4D2EEF0A3EFF0A3EBF0A3EAF05F
:103B7800A3E9F078D97CA47D017BFF7A4F795E7E3A
:103B8800007F081207D0C2AF90A4D4E0FBA3E0FAEC
:103B9800A3E0F9A3E0FFA3E090A4E6CFF0A3EFF041
:103BA8007F007EF012249B90A4D974A5F090A4D233
:103BB800E0FCA3E0FDAE047810CEC313CE13D8F911
:103BC80090A4DAF0ECA3F090A4D2A3E090A4DCF0E7
:103BD800A374F0F0E4A3F090A4D7E0FCA3E0FDEC1C
:103BE80090A4DFF0A3EDF07B017AA479D990A4E644
:103BF800E4F0A37404F07F087E0012249B7F057E06
:103C080000124D1C7B017AA479D990A4E6E4F0A3B4
:103C18007402F07F087E001226E890A4D9E070DDD7
:103C2800D2AF2290A55FEEF0A3EFF0A3EBF0A3EAEA
:103C3800F0A3E9F078667CA57D017BFF7A4F796671
:103C48007E007F081207D0C2AF90A566745AF09024
:103C5800A55FE0FCA3E0FDAE047810CEC313CE133D
:103C6800D8F990A567F0ECA3F090A55FA3E090A524
:103C780069F0A374F0F0E4A3F090A564E0FCA3E07D
:103C8800FDEC90A56CF0A3EDF07B017AA579669028
:103C9800A4E6E4F0A37404F07F087E0012249B7F5E
:103CA800057E00124D1C7B017AA5796690A4E6E496
:103CB800F0A37402F07F087E001226E890A566E063
:103CC80070DD90A561E0FBA3E0FAA3E0F9A3E0FFB3
:103CD800A3E090A4E6CFF0A3EFF07F007EF01226D9
:103CE800E8D2AF2290A49AEFF0E0FFC454F024E6A3
:103CF800F582E434A4F583E4F0A304F0EFC454F0AF
:103D080024E8F582E434A4F58374FFF0A3F0EFC44B
:103D180054F024EAF582E434A4F583E4F0A3740BA8
:103D2800F012442690A49AE0FDC454F024ECF582E5
:103D3800E434A4F583EEF0A3EFF0EDC454F024EEE0
:103D4800F582E434A4F5837402F0A3744EF0EDC454
:103D580054F024ECF582E434A4F583E0FEA3E0FFFC
:103D6800EDC454F024F0F582E434A4F583EEF0A316
:103D7800EFF0ED6402701FED75F010A424E4F974FF
:103D8800A435F0FA7B0190A4E6E4F0A37410F07F68
:103D9800007E5512249B2290A59FEBF0A3EAF0A386
:103DA800E9F0A3EDF078A37CA57D017BFF7A4F793C
:103DB800937E007F021207D090A5A2E01460030250
:103DC8003E4E90A59FE0FBA3E0FAA3E0F91200861F
:103DD800EF607390A51FE0FF90A5A3E4F0EFA3F0B8
:103DE80090A59FE0FBA3E0FAA3E0F9120939FF9040
:103DF800A515E5F0F0A3EFF0900002120964FF901A
:103E0800A517E5F0F0A3EFF07B017AA579A390A4BC
:103E1800E6E4F0A37402F07F017EB012249B90A424
:103E2800F0E0FEA3E0FF7B017AA5791590A4E6E413
:103E3800F0A37406F012249B90A4F1E02402F09001
:103E4800A4F0E03400F02290A56EEEF0A3EFF0A30A
:103E5800ECF0A3EDF0A3EAF0A3EBF078747CA57D79
:103E6800017BFF7A4F794E7E007F081207D090A51C
:103E780074745AF090A56EE0FCA3E0FDAE047810CF
:103E8800CEC313CE13D8F990A575F0ECA3F090A586
:103E98006EA3E090A577F090A570E0FCA3E0FDECA0
:103EA80090A578F0A3EDF090A572E0FCA3E0FDECFE
:103EB80090A57AF0A3EDF07B017AA5797490A4E639
:103EC800E4F0A37408F0FF7E0012249B7F057E00B7
:103ED800124D1C7B017AA5797490A4E6E4F0A30442
:103EE800F07F087E001226E890A574E070DE22902C
:103EF800A4D2EEF0A3EFF0A3ECF0A3EDF0A3EAF068
:103F0800A3EBF078D87CA47D017BFF7A4F79567EAD
:103F1800007F081207D090A4D874A5F090A4D2E02E
:103F2800FCA3E0FDAE047810CEC313CE13D8F990ED
:103F3800A4D9F0ECA3F090A4D2A3E090A4DBF09075
:103F4800A4D4E0FCA3E0FDEC90A4DCF0A3EDF09099
:103F5800A4D6E0FCA3E0FDEC90A4DEF0A3EDF07B9A
:103F6800017AA479D890A4E6E4F0A37408F0FF7E5F
:103F78000012249B7F057E00124D1C7B017AA479D8
:103F8800D890A4E6E4F0A304F07F087E001226E8A7
:103F980090A4D8E070DE22E490A4A5F0A3F090A24B
:103FA8002DE0FEA3E0FDEDFF90A4A5EEF0A3EFF059
:103FB80090A22CE06482703D7B017AA2792F90A2B6
:103FC8002BE024FDFEE434FF90A4E6F0A3CEF090AD
:103FD800A4A5E0FEA3E0FF12249B90A22B7403F09B
:103FE80090A22D744FF0A3744BF07B017AA279292B
:103FF80090A22B803E90A22CE06483703D7B017AD6
:10400800A2793090A22FE075F002A4FF90A4E6E513
:10401800F0F0A3EFF090A4A5E0FEA3E0FF1226E8DD
:1040280090A22FE025E0FF90A22BE02FF07B017AF1
:10403800A27929E02403FD124A6D22759401759531
:1040480002758E0075930075C87075C96075F800A3
:10405800787FE4F6D8FD75812102409F024D8EE4F9
:1040680093A3F8E493A34003F68001F208DFF480F9
:1040780029E493A3F85407240CC8C333C4540F4449
:1040880020C8834004F456800146F6DFE4800B0123
:104098000204081020408090171EE47E019360BC43
:1040A800A3FF543F30E509541FFEE493A360010EBB
:1040B800CF54C025E060A840B8E493A3FAE493A3E2
:1040C800F8E493A3C8C582C8CAC583CAF0A3C8C503
:1040D80082C8CAC583CADFE9DEE780BE33DA929EAA
:1040E80035B16011377FE5FE392184893AAEC3FFC7
:1040F8003C1D955B3D6358473E75FDF03F31721896
:104108003F800000C2D50204CB0204C1BD80FA5032
:10411800F30204C8ED33EC330460F17B3B7AAA79EF
:10412800B8783F1201F8ED33EC3392D5247B501167
:10413800A2D570DB500BED448024045004A2D58036
:10414800CEEFFBEEFAEDF9ECF8120455EFF582F438
:1041580004FC120421120107C0829040E474091281
:104168000652ED33CC33D0F092D525F0A2D57001AC
:10417800C313CC13FD2290A5A5EFF078A67CA57DEE
:10418800017BFF7A4F79307E007F041207D07B01D4
:104198007AA579A690A4E6E4F0A37404F07F807E63
:1041A800001226E890A5A6745AF090A5A5E0FD3364
:1041B80095E0FCED64014C700990A5A9E054F7F076
:1041C800800DED64024C703F90A5A9E04408F07B97
:1041D800017AA579A690A4E6E4F0A37404F07F80A0
:1041E8007E0012249B7F057E00124D1C7B017AA560
:1041F80079A690A4E6E4F0A304F07F807E0012265E
:10420800E890A5A6E070DE227B017AA579B690A594
:1042180064E4F0A37402F07F007E50123C2B90A55A
:10422800B8E0FEA3E0FDEDD394FFEE94FF5006C383
:10423800EE9400500090A5B6E0FFC37480948040CF
:104248000AD3EF946474809480400690A5B6746491
:10425800F090A5B7E0FFC374809480400AD3EF9430
:104268006474809480400690A5B77432F07B017A1C
:10427800A579B690A4E6E4F0A37404F07F827E00EA
:1042880012249B7B017AA579B690A4E6E4F0A37486
:1042980004F07F407E1402249B78967CA47D017BE9
:1042A800FF7A4F793C7E007F101207D0E490A4A6D5
:1042B800F0A3F0A3F0A3F0A3F0A3F090A436E0FDE0
:1042C800FEA3E0FBF582E582FF90A4AAEEF0A3EF3F
:1042D800F090A229745AF0A374A5F090A438E0FCD9
:1042E80025E0240390A22BF0A37483F0A3EDF0A3A0
:1042F800EBF07B017AA2792FEC75F002A4FF90A471
:10430800E6E5F0F0A3EFF090A4AAE0FEA3E0FF1228
:1043180026E890A4AAE0FEA3E0FF023560C0E0C052
:10432800F0C083C082C0D075D000C000C001C002F8
:10433800C003C004C005C006C007E4FFC2AFE5ABB8
:1043480054016401703B12345FAFAD908088E0FC8B
:10435800A3E02400F58274803CF583EFF090808917
:10436800E004F07006908088E004F053ABFEC39040
:104378008089E09480908088E094004004E4F0A371
:10438800F0D2AFD007D006D005D004D003D002D0E9
:1043980001D000D0D0D082D083D0F0D0E03290A429
:1043A80099EDF090A496EBF0A3EAF0A3E9F01200DF
:1043B80086EF60697F02123CEC7BFF7A4F798B12A3
:1043C8000C3490A499E06401704D90A4F6F0A3F029
:1043D800A37480F0A3E4F0A3F0A3740BF090A49668
:1043E800E0FBA3E0FAA3E0F9900002120964FF9051
:1043F800A4FCE5F0F0A3EFF07BFF7A4F798B120C69
:10440800347B017AA479F490A4E6E4F0A37410F064
:104418007F007EB012249B90A5207401F02290A406
:104428006EE0FCA3E0FDA3E0FEA3E0FF12325F9084
:10443800A4E8120B14E4FFFEFDFC90A4E8E0F8A346
:10444800E0F9A3E0FAA3E0FB12039E40437FAE7EAF
:10445800477DE17CBD90A4E8E0F8A3E0F9A3E0FA89
:10446800A3E0FB1201077B3D7A0A794778401203E3
:1044780001E4FBFA79F078421201F8A804A905AA28
:1044880006AB07E4FFFE7DE97C43120103020455F5
:104498007E017FD222124E187F641244DB7F3012D5
:1044A80044DBE4FF1244DB124D0A124E187F6412FB
:1044B80044DB7F1C1244DB7F481244DBE4FF1244D8
:1044C800DB7F401244DB7F101244DB124D0A124E90
:1044D800187F64AE07124EDBE4FDEDC394087480C8
:1044E80094805019EE30E704D2B38002C2B3EE25AF
:1044F800E0FE124DD9C2B2124DDE0D80DD024CB580
:1045080090A496EFF078977CA47D017BFF7A4F7991
:10451800957E007F101207D090A496E014601F14B7
:104528006031240270437B017AA4799790A4E6E471
:10453800F0A37410F07F007EB012249B80157B01DD
:104548007AA4799790A4E6E4F0A37410F07F007E33
:10455800B080137B017AA4799790A4E6E4F0A37461
:1045680010F07F007E5512249B2290A44EE0FF900D
:10457800A465E06F6008EFF090A55E7401F090A567
:104588005EE0B40700504B904596F8282873024522
:10459800AB0245B10245BA0245BD0245C20245C754
:1045A8000245CC90A55E7401F090A55E7402F012ED
:1045B800006A023358D2950245DBC2950200F6C262
:1045C80095024DEEC2951248851239CD90A55E74BC
:1045D80001F0227BFF7A387910121FD4E4FFFE7DA8
:1045E8007A7C4490A461E0F8A3E0F9A3E0FAA3E0A0
:1045F800FB1201F890A54DE0F8A3E0F9A3E0FAA3B7
:10460800E0FB12039E602B4029E4FFFEFDFC90A511
:1046180051E0F8A3E0F9A3E0FAA3E0FB12039E60DF
:1046280011400FC390A489E0946490A488E094009A
:10463800400690A55E7405F022C0E0C083C082C029
:10464800D075D000C004C007C2AF309837AF99907A
:104658008082E0FCA3E0248AF58274803CF583EF35
:10466800F0908083E004F07006908082E004F0C34C
:10467800908083E094A0908082E0941F4004E4F04E
:10468800A3F0C298309907C299908080E4F0D2AF25
:10469800D007D004D0D0D082D083D0E03290A59972
:1046A800EEF0A3EFF0789B7CA57D017BFF7A4F7934
:1046B800387E007F041207D090A599E0FCA3E0FDA6
:1046C800EC90A59DF0A3EDF07B017AA5799B90A4D1
:1046D800E6E4F0A37404F07F847E0012249B7F0537
:1046E8007E00124D1C7B017AA5799B90A4E6E4F02C
:1046F800A304F07F847E001226E890A59BE070DE7C
:1047080022C0E0C083C082C0D075D000C004C007FA
:10471800C2AFE59B30E028AF9C908084E0FCA3E02A
:10472800242AF58274A03CF583EFF0908085E0049C
:10473800F07006908084E004F0539BFE539BFEE5E6
:104748009B30E10B539BFD539BFD908081E4F0432C
:10475800C901D2AFD007D004D0D0D082D083D0E066
:1047680032C0E0C083C082C0D075D000C004C0078A
:10477800C2AFE597540164017038AF9F908086E01E
:10478800FCA3E024AAF58274A03CF583EFF09080A6
:1047980087E004F07006908086E004F05397FEC32B
:1047A800908087E09480908086E094004004E4F054
:1047B800A3F0D2AFD007D004D0D0D082D083D0E03D
:1047C8003290A44EE090A448F0A3EFF0A3EDF0904F
:1047D800A457E0FFA3E090A44BCFF0A3EFF090A480
:1047E80066E0FEA3E0FF7B017AA4794590A4E6E4A5
:1047F800F0A37408F012249B90A466E0FEA3E0FFE7
:104808007B017AA4797890A4E6E4F0A37402F0120C
:1048180026E890A479E0FF90A478E0B507DA229022
:10482800A44EE090A448F0A3EFF0A3EDF090A46CA0
:10483800E0FFA3E090A44BCFF0A3EFF090A466E0D4
:10484800FEA3E0FF7B017AA4794590A4E6E4F0A3F7
:104858007408F012249B90A466E0FEA3E0FF7B019D
:104868007AA4797890A4E6E4F0A37402F01226E81A
:1048780090A479E0FF90A478E0B507DA2290A461CB
:10488800120B20000000007B017AA4796190A4E655
:10489800E4F0A37404F07F007E2712249BE490A424
:1048A80088F0A3F07B017AA4798890A4E6F0A37439
:1048B80002F07F307E2812249B90A459120B20000E
:1048C8000000007B017AA5795590A4E6E4F0A37472
:1048D80002F07F107E3002249B124AEF90A514E06C
:1048E80024FE601224FE601924FE6024240570430F
:1048F800E490A514F0227B017AA5791B7D0102437F
:10490800A6E490A520F090A514F090A51FF08011C2
:10491800E490A520F090A514F090A51FF0FF124593
:104928000890A4F074B0F0A37405F0A37455F0A334
:104938007405F0221244D67F1D1244DB124D0A1270
:104948004E187F651244DB124C34AC071200161265
:104958004C34124E9C124D0AEC54026402702E1212
:10496800449D7F101244DBE4FF1244DBE4FF124451
:10497800DBE4FF1244DB7F011244DB7F011244DBDE
:104988007F011244DB7F171244D0124CFB22789629
:104998007CA47D017BFF7A4F79347E007F04120767
:1049A800D07B017AA4793590A4E6E4F0A37404F0EE
:1049B8007F007E0F1226E890A435E0645A70187BB9
:1049C800017AA4799690A4E6F0A37404F07F007E9F
:1049D8000F12249B7F01227F00227B017AA4794D4C
:1049E80090A4E6E4F0A37402F07F147E001226E897
:1049F80090A44EE0FF14601A14601F14601E24FB7C
:104A0800601D2408701C90A465EFF090A55E7401E9
:104A1800F0221248E112457280028000021A401208
:104A28004B68227B017AA479AE90A4E6E4F0A374E3
:104A380004F07F407E141226E87B017AA479AE90B8
:104A4800A4E6E4F0A37404F07F827E0012249B7B2A
:104A5800017AA479AE90A4D7E4F0A37402F07F00A1
:104A68007E50023B6A90A4A7EBF0A3EAF0A3E9F01A
:104A780090A4A7E0FBA3E0FAA3E04A4B6027ED600F
:104A880024AF051DEF601E90A4A7E0FBA3E0FAA3E6
:104A9800E0F91207F6FF124E4D90A4A8E475F00154
:104AA80012090D80DC2290A5BAEBF0A3EAF0A3E985
:104AB800F090A5BAE0FBA3E0FAA3E04A4B6027ED2B
:104AC8006024AF051DEF601E90A5BAE0FBA3E0FAD5
:104AD800A3E0F91207F6FF124E5B90A5BBE475F050
:104AE8000112090D80DC2290A55EE024FC601B14F5
:104AF800601F1460282403702A90A520E090A51454
:104B080060047403F0227402F02290A5147405F076
:104B180022E490A520F090A5147404F02290A51426
:104B28007406F02290A4F4E4F0A37402F090A502B5
:104B380074FFF0A3E4F090A4F6F0A304F090A504A9
:104B4800E4F0A37402F090A51274FFF0A3E4F090CF
:104B5800A506F0A304F090A51974FFF0A3E4F022D1
:104B680090A44EE0FF90A465E06F6008EFF090A578
:104B78005E7401F090A55EE014600D1460102402CC
:104B8800700F90A55E7401F090A55E7402F0024C5F
:104B98008D90A55E7402F0227B017AA579AE90A46F
:104BA800E6E4F0A37404F07F807E001226E890A566
:104BB800B1E04408F07B017AA579AE90A4E6E4F070
:104BC800A37404F07F807E0002249B7B017AA57980
:104BD800B290A4E6E4F0A37404F07F807E0012266D
:104BE800E890A5B5E04404F07B017AA579B290A4D9
:104BF800E6E4F0A37404F07F807E0002249B90A476
:104C080098EEF0A3EFF0E02432FF90A498E034008F
:104C1800FE7B017AA4799890A4E6E4F0A37402F0EC
:104C28001226E890A498E0FEA3E0FF22120056E4C2
:104C3800FDEDC3940874809480501B124DD9EE2565
:104C4800E0FE30B3054401FE8004EE54FEFEC2B21D
:104C5800124DDE0D80DBAF0622E490A4ADF0A3F088
:104C6800A3F0A3F0AE04AF05C003C00290A4AAE06D
:104C7800FBA3E0FAA3E0F8AC02AD03D002D0031224
:104C880007D07F0122E47F02FEFDFC90A548E0F8F2
:104C9800A3E0F9A3E0FAA3E0FBC3120AC4400D1293
:104CA8002FB090A548120B200000000022120056D9
:104CB800124DD7E4FEEEC3943274809480500930CC
:104CC800B306124DDE0E80EDC2B2124DDE024EDB8F
:104CD800C390A590E094F490A58FE0940140137BD5
:104CE800FF7A4F796E120C341230FCE490A58FF0E5
:104CF800A3F0227F1E1244DBE4FF1244DB7F101274
:104D080044DB124EDBC2B3D2B2124DDED2B3124D27
:104D1800DE020056E4FDFCC3ED9FEC9E5015E4FB5B
:104D2800FA0BBB00010ABA1CF8BBE8F50DBD00017F
:104D38000C80E42243B7C043C920E4908081F090FE
:104D48008084F0A3F0759BD075BB03759DC8759AD8
:104D5800012290A5BDEFF07B017AA579BD90A4E66C
:104D6800E4F0A304F07F827E0002249BE490A55E19
:104D7800F07B017AA5795590A4E6F0A37402F07F40
:104D8800107E3002249B124E2C12493CC295124EC2
:104D980077124B2C124E851249E2124CD880F575C9
:104DA800F90175B7C375BCA375BD2A75BE0CE4F5CA
:104DB80080F590F5A0F5B022E4908086F0A3F07518
:104DC8009680759780F5D975E7E0D2BAD2BB22D222
:104DD800B3124DDED2B2E4FFEFC3945074809480D6
:104DE80050030F80F3227B017AA5795590A4E6E45D
:104DF800F0A37402F07F107E3002249B75C870E423
:104E0800F5CDF5CC75CBBC75CACD43A820D2C82248
:104E1800124EDBD2B3D2B2124DDEC2B3124DDEC295
:104E2800B2024DDEC2AF12005E124DA7124EC3127F
:104E38004EC9D2AF22C2AF8F9EE596540160FA5395
:104E480096FED2AF22908080E0640160F87401F091
:104E58008F9922908081E0640160F87401F08F9C42
:104E680022438901758CBC758ACDD2A9D28C229037
:104E7800A445745AF0A374A5F0E4A3F0221249964D
:104E8800EF60031242A102104C7BFF7A4E79E57D58
:104E980015024A6D124EDB124DD7C2B2024DDE7BAF
:104EA800017AA5791B7D01023D9F124BA0124BD3BD
:104EB800024210C2AF5396FED2AF32124DC002006A
:104EC8006E124E69024E0490A230E0FF22124D7419
:104ED800024EE243BE0822C2C632023AA5556172AA
:104EE8007432496E697420446F6E65212121313214
:104EF80033005561727433496E697420446F6E656E
:104F0800212121005561727434496E697420446FFF
:104F18006E65212121005561727435496E697420CE
:104F2800446F6E6521212100000000000000000090
:104F38005A0100000000000000000000000000000E
:104F48000000000000000000000000000000000059
:104F58000000000000000000000000000000000049
:104F680000000000000068656B6B6F000000000027
:104F78000000000000000000000000000000000029
:104F8800000000B3F5CABCBBAF0A00000000000077
:104F98000000000000000000000000000000000009
:094FA80000000000000000000000
:00000001FF
