:10000000022623020006C2AFD2AF32022B3BC2AFA0
:10001000D2AF3202000E120066C2B3122F14C2B267
:10002000022F19022A7353BEF72232022FF912004F
:1000300026E4FDEDC3940874809480501B122F14A5
:10004000EE25E0FE30B3054401FE8004EE54FEFED2
:10005000C2B2122F190D80DBAF0622122FA2022F7F
:1000600029222202002A43BE082222022987E49084
:100070008088F0A3F075A78075AB80F5AE75AFE012
:10008000D2BD22022B9EAD07AC0690A470E024F8EE
:10009000603F2407705AED64107003EC64307020E8
:1000A0001200F1EF6401700790A4C67403F02212ED
:1000B00000F1EF90A4C670047404F0227401F022E1
:1000C000ED64207003EC6430702690A4C67406F0D2
:1000D00022ED64407003EC64146015ED644170031C
:1000E000EC6414600BE4B50507ECB41403120F982C
:1000F0002290A230E0FF2222FFFF4457494E5435A0
:100100000204C1E86480F8E933E83360110460F068
:10011000ED33EC337009E8FCE9FDEAFEEBFF220465
:1001200060DED3EB9FEA9EE99DE8C2E78CF0C2F760
:1001300095F0400CE8CCF8E9CDF9EACEFAEBCFFB2C
:1001400012048C85D0F05804700320D5B3E80470F5
:10015000075002B2D50204CB92D5EC0460F7E4CC90
:10016000C0E0C398F8603B94186008400DD0E0FBF5
:100170000204A3E4FBFAC9FC8028E830E406E4C9E1
:10018000FBE4CAFCE830E305E4C9CACBFCE8540749
:100190006010F8C3E913F9EA13FAEB13FBEC13FC54
:1001A000D8F130F52FC3E49CFCEF9BFFEE9AFEEDF7
:1001B00099FDD0E0FBEF4E4D4C701222DB030204A0
:1001C000C8EC2CFCEF33FFEE33FEED33FDED30E7F2
:1001D000EB0204A3EF2BFFEE3AFEED39FDD0E0FB7E
:1001E00050130BBB00030204CBED13FDEE13FEEF27
:1001F00013FFEC13FC0204A3EC4D6011E8497017E7
:10020000ED33EC3304600DE4FCFFFEFD22E933E83E
:10021000330470F80204C112048C58046009E4CC61
:10022000248150062850090204CB2840030204C848
:10023000C0E0EB4A7044B98006D0E0FB0204B7EF9F
:100240004E701CBD8008EBFFEAFEE9FD80EBE98DF6
:10025000F0A4FEE5F00202E1E9CDF9EAFEEBFFEFE2
:1002600089F0A4FCE5F0CE89F0A42EFFE435F0CDB2
:1002700089F0A42DFEE435F08067EF4E7005BD8057
:10028000D780C3EF8BF0A4ACF0EE8BF0A42CFCE491
:1002900035F0F8EF8AF0A42CE5F038FCE433CB8D90
:1002A000F0A42CFCE5F03BF8EE8AF0A42CFCE5F081
:1002B00038F8E433CF89F0A42CFCE5F038CF3400D3
:1002C000CE89F0A42FFFE5F03EFEE433C98DF0A403
:1002D0002EFEE5F039CD8AF0A42FFFE5F03EFEE4D6
:1002E0003DFD33D0E0FB50070BBB000F0204CBEC0D
:1002F0002CFCEF33FFEE33FEED33FD0204A30204CA
:10030000CBEC5D046005E8590470030204C11204DB
:100310008C580460F6EC4860F2EC7004FDFEFF229D
:10032000C860DB2481C85009C398600250060204EB
:10033000C89850CAF582E9294B4A7005AB8202047D
:10034000B775F0007C1A7880C3EF9BEE9AED994068
:100350000DC3EF9BFFEE9AFEED99FDE842F0DC2322
:10036000ACF0D0E0FFD0E0FED0E0FDAB8220E710A3
:100370001BEB60BAEC2CFCEF33FFEE33FEED33FDEC
:100380000204A3E803F830E705C0F075F000EF2F92
:10039000FFEE33FEED33FD40B830E7C280AA74F8BB
:1003A000CC6480CCC86480C8F58204604FC3EB9FE6
:1003B000F5F0EA9E42F0E99D42F0E89C45F0603C91
:1003C000501DE5825FFFE582D313CB5BCBF42B5549
:1003D00082FB50280ABA002409B9002008801DE5D4
:1003E000825BFBE582D313CF5FCFF4C3132F55821B
:1003F000FF50090EBE00050DBD00010CC3EB9FF5BB
:10040000F0EA9E42F0E99D42F0E89C45F06007CC9E
:100410004820E701B3EC2275F020800E75F01080C3
:100420000575F0087D007E007F003392D530D5033E
:10043000120874EC334010EF33FFEE33FEED33FD62
:10044000EC33FCD5F0ED22E5F0247EA2D513CC925E
:10045000E7CDCEFF22EDD2E7CD33EC3392D5248128
:100460004006E4FFFEFDFC22FCE4CFCECDCC24E030
:10047000501174FF80EDC3CC13CCCD13CDCE13CE71
:10048000CF13CF0470F030D5DE020874E9D2E7C98B
:1004900033E833F892D5EDD2E7CD33EC33FC50029C
:1004A000B2D522EC30E7100FBF000C0EBE00080DD5
:1004B000BD00040BEB6014A2D5EB13FCED92E7FD3D
:1004C0002274FFFCFDFEFF22E480F8A2D574FF1326
:1004D000FC7D80E480EFED33EC33601004700FEDB1
:1004E000547F7005740292E0227404220422E422F4
:1004F000ED33EC33600A047003BD8004ECB2E7FC1A
:1005000022C0E0EFFBEEFAEDF9ECF81201F8D0E0D2
:10051000F5F0EFFBEEFAEDF9ECF81208A6A3A3A3B1
:10052000A3E8C0E0E9C0E0EAC0E0EBC0E0C0F01240
:1005300001F81208C2A3A3A3A3120107D0F0D0E0D0
:10054000FBD0E0FAD0E0F9D0E0F8D5F0D422E7090A
:10055000F608DFFA8046E709F208DFFA803E888273
:100560008C83E709F0A3DFFA8032E309F608DFFAAB
:100570008078E309F208DFFA807088828C83E309CF
:10058000F0A3DFFA806489828A83E0A3F608DFFAA9
:10059000805889828A83E0A3F208DFFA804C80D2F7
:1005A00080FA80C680D4806980F28033801080A673
:1005B00080EA809A80A880DA80E280CA80338982CB
:1005C0008A83ECFAE493A3C8C582C8CCC583CCF077
:1005D000A3C8C582C8CCC583CCDFE9DEE7800D891E
:1005E000828A83E493A3F608DFF9ECFAA9F0EDFB25
:1005F0002289828A83ECFAE0A3C8C582C8CCC5836D
:10060000CCF0A3C8C582C8CCC583CCDFEADEE880C5
:10061000DB89828A83E493A3F208DFF980CC88F037
:10062000EF60010E4E60C388F0ED2402B404005068
:10063000B9F582EB2402B4040050AF232345822392
:1006400090059E73BB010689828A83E0225002E7EF
:1006500022BBFE02E32289828A83E49322BB010C3F
:10066000E58229F582E5833AF583E0225006E92503
:1006700082F8E622BBFE06E92582F8E222E582291D
:10068000F582E5833AF583E49322BB010689828AE9
:1006900083F0225002F722BBFE01F322F8BB010DCA
:1006A000E58229F582E5833AF583E8F0225006E9F0
:1006B0002582C8F622BBFE05E92582C8F222EF8D0D
:1006C000F0A4A8F0CF8CF0A428CE8DF0A42EFE22AA
:1006D000BC000BBE0029EF8DF084FFADF022E4CC0E
:1006E000F875F008EF2FFFEE33FEEC33FCEE9DECD7
:1006F000984005FCEE9DFE0FD5F0E9E4CEFD22ED1D
:10070000F8F5F0EE8420D21CFEADF075F008EF2F66
:10071000FFED33FD4007985006D5F0F222C398FD57
:100720000FD5F0EA22C2D5EC30E709B2D5E4C39D7B
:10073000FDE49CFCEE30E715B2D5E4C39FFFE49ED8
:10074000FE1206D0C3E49DFDE49CFC80031206D09B
:1007500030D507C3E49FFFE49EFE22C5F0F8A3E076
:1007600028F0C5F0F8E582158270021583E038F0B4
:1007700022A3F8E0C5F025F0F0E58215827002159D
:1007800083E0C838F0E822BB010A89828A83F0E559
:10079000F0A3F0225006F709A7F01922BBFE06F3DA
:1007A000E5F009F3192275F008758200EF2FFFEECE
:1007B00033FECD33CDCC33CCC58233C5829BED9A8D
:1007C000EC99E58298400CF582EE9BFEED9AFDECEB
:1007D00099FC0FD5F0D6E4CEFBE4CDFAE4CCF9A831
:1007E0008222B800C1B90059BA002DEC8BF084CF39
:1007F000CECDFCE5F0CBF97818EF2FFFEE33FEED10
:1008000033FDEC33FCEB33FB10D703994004EB9939
:10081000FB0FD8E5E4F9FA227818EF2FFFEE33FE4C
:10082000ED33FDEC33FCC933C910D7059BE99A4081
:1008300007EC9BFCE99AF90FD8E0E4C9FAE4CCFB99
:100840002275F010EF2FFFEE33FEED33FDCC33CCED
:10085000C833C810D7079BEC9AE899400AED9BFD76
:10086000EC9AFCE899F80FD5F0DAE4CDFBE4CCFA89
:10087000E4C8F922C3E49FFFE49EFEE49DFDE49CEE
:10088000FC22EB9FF5F0EA9E42F0E99D42F0E89CE5
:1008900045F022E8600FEFC333FFEE33FEED33FD8A
:1008A000EC33FCD8F122E493FC740193FD740293C1
:1008B000FE740393FF22E0F8A3E0F9A3E0FAA3E0BB
:1008C000FB22E493F8740193F9740293FA7403938E
:1008D000FB22ECF0A3EDF0A3EEF0A3EFF022A88250
:1008E0008583F0D083D0821208F51208F51208F53E
:1008F0001208F5E473E493A3C583C5F0C583C8C5A6
:1009000082C8F0A3C583C5F0C583C8C582C822EFDD
:100910004E6012EF60010EEDBB010B89828A83F0FD
:10092000A3DFFCDEFA2289F05007F709DFFCA9F00B
:1009300022BBFEFCF309DFFCA9F022E490A42DF019
:10094000A3F0A3F0A3F0A3F0A3F0A3F0A3F0A304FB
:10095000F0A37480F0A3748AF0E4A3F0A3F0783AD3
:100960007CA47D017BFF7A307963FE7F0212061E34
:10097000D3908083E09402908082E094007F0040D6
:10098000027F0190A433EFF090A433E07003020CD7
:10099000E090A4357401F0A37480F0A3748AF09001
:1009A000A435E0FBA3E0FAA3E0F9120644645A6020
:1009B0003A908082E0FEA3E0248AF974803EFA7BBC
:1009C00001C003C002C00190A435A3E0FAA3E0F97E
:1009D000C3D082D083D0E0E99582EA9583500C9011
:1009E000A436E475F00112075B80B4908082E0FECB
:1009F000A3E0248AF974803EFA7B01C003C002C0E0
:100A00000190A435E0FBA3E0FAA3E0F9D082D08303
:100A1000D0E06B7008E965827003EA658370079027
:100A20008082F0A3F02290A435A3E0FAA3E0C3945F
:100A30008AFFEA9480FEC3908083E09FFF908082CB
:100A4000E09E90A431F0A3EFF090A438E024FE6083
:100A50005524026003020B227E007FFF7D007B0194
:100A60007AA1792A12090FE490A439F090A434F005
:100A700090A42DF0A3F0A3F0A3F090A42FE0FEA388
:100A8000E0FFC39403EE9400501C743A2FF5827477
:100A9000A43EF583E4F090A430E004F070DC90A470
:100AA0002FE004F080D490A43F7401F0A374A1F06F
:100AB000A3742AF0A37401F0A374A4F0A3742DF01E
:100AC00090A431E0FFA3E090A445CFF0A3EFF09015
:100AD000A435E0FBA3E0FAA3E0F91224A090A43926
:100AE000EFF0A3F06401703A90A42DE0FCA3E0FDC8
:100AF00090A4417401F0A374A2F0A37429F07B01C7
:100B00007AA1792A122DF2EF7003020BC012257F11
:100B10007E017F007D007B017AA2792912090F02F4
:100B20000BC090A43AE064036003020BC090A436AB
:100B3000804490A435E0FBA3E0FAA3E0F912064458
:100B4000645A603A908082E0FEA3E0248AF97480BF
:100B50003EFA7B01C003C002C00190A435A3E0FAB5
:100B6000A3E0F9C3D082D083D0E0E99582EA9583EF
:100B7000500C90A436E475F00112075B80B49080AD
:100B800082E0FEA3E0248AF974803EFA7B01C00370
:100B9000C002C00190A435E0FBA3E0FAA3E0F9D0C5
:100BA00082D083D0E06B7008E965827003EA6583C8
:100BB0007008908082F0A3F0800690A4347401F055
:100BC00090A439E06401600990A434E07003020C41
:100BD000D890A435A3E0FAA3E0C3948AFFEA9480F6
:100BE000FEC3908083E09FFF908082E09EFE90A4F1
:100BF0002DE0FCA3E0FDC3EF9DFFEE9CFE90A43131
:100C0000F0A3EFF0D39400EE94004068E490A42F9A
:100C1000F0A3F090A431E0FEA3E0FF90A42FE0FC4D
:100C2000A3E0FDC39FEC9E504390A435E0FBA3E0FE
:100C3000FAA3E0F990A42DE0FEA3E0FFE92FF9EA82
:100C40003EFAE92DF9EA3CFA120644FF748A2DF5C2
:100C50008274803CF583EFF0E412068A90A430E0C1
:100C600004F070AF90A42FE004F080A790A4337438
:100C700001F08052E490A42FF0A3F090A435A3E0FB
:100C8000FAA3E0C3948AFFEA9480FE90A42EE02F9A
:100C9000FF90A42DE03EFE90A42FE0FCA3E0FDC356
:100CA0009FEC9E501C748A2DF58274803CF583E481
:100CB000F090A430E004F070C290A42FE004F08023
:100CC000BAE490A433F090A431E0FFA3E0908082D6
:100CD000CFF0A3EFF0020988E490A433F002098872
:100CE0002241808000428082000041808100428059
:100CF0008400004280860000428088000044A429CD
:100D00000000000041A428006100A22900000000AA
:100D100000000000000000000000000000000000D3
:100D200000000000000000000000000000000000C3
:100D300000000000000000000000000000000000B3
:100D400000000000000000000000000000000000A3
:100D50000000000000000000000000000000000093
:100D60000000000000000000000000000000000083
:100D70000000000000000000000000000000000073
:100D80000000000000000000000000000000000063
:100D90000000000000000000000000000000000053
:100DA0000000000000000000000000000000000043
:100DB0000000000000000000000000000000000033
:100DC0000000000000000000000000000000000023
:100DD0000000000000000000000000000000000013
:100DE0000000000000000000000000000000000003
:100DF00000000000000000000000000000000000F3
:100E000000000000000000000000000060FFA329B7
:100E100000000000000000000000000000000000D2
:100E200000000000000000000000000000000000C2
:100E300000000000000000000000000000000000B2
:100E400000000000000000000000000000000000A2
:100E50000000000000000000000000000000000092
:100E60000000000000000000000000000000000082
:100E70000000000000000000000000000000000072
:100E80000000000000000000000000000000000062
:100E90000000000000000000000000000000000052
:100EA0000000000000000000000000000000000042
:100EB0000000000000000000000000000000000032
:100EC0000000000000000000000000000000000022
:100ED0000000000000000000000000000000000012
:100EE0000000000000000000000000000000000002
:100EF00000000000000000000000000000000000F2
:100F0000000000000000000000000000000000429F
:100F1000A4CE000041A4CD0142A4C75AA542A4A872
:100F2000000042A46F000044A4A00000000044A4FC
:100F3000713EE9518344A48A40490E5644A46B3D56
:100F400032D5D044A4753ECD37BE44A47D00000008
:100F50000044A49C0000000044A49200000000444F
:100F6000A4A40000000044A4980000000044A48E43
:100F70000000000044A4810000000044A48500009B
:100F8000000044A4790000000044A4C10000000057
:100F900044A4BD0000000000784B7CA47D017BFFD1
:100FA0007A3079657E007F0612061E7B017AA4796D
:100FB0004390A469E4F0A37404F07F007E13121937
:100FC000827B017AA4794790A469E4F0A37404F0C9
:100FD0007F057E1312198290A444E0FFE4FCFDFE1D
:100FE0007810120893C004C005C006C00790A4433F
:100FF000E0FFE4FCFDFE7818120893D003D002D085
:1010000001D000EF4BFFEE4AFEED49FDEC48FCC07D
:1010100004C005C006C00790A445E0FFE4FCFDFE47
:101020007808120893D003D002D001D000EF4BFB18
:10103000EE4AFAED49F9EC48F8A3E0FFEB4FFFEA7E
:10104000FEE9FDE8FC90A4511208D290A448E0FF0C
:10105000E4FCFDFE7810120893C004C005C006C071
:101060000790A447E0FFE4FCFDFE7818120893D037
:1010700003D002D001D000EF4BFFEE4AFEED49FD58
:10108000EC48FCC004C005C006C00790A449E0FFBE
:10109000E4FCFDFE7808120893D003D002D001D002
:1010A00000EF4BFBEE4AFAED49F9EC48F8A3E0FFFC
:1010B000EB4FFFEAFEE9FDE8FC90A4C91208D2E478
:1010C0007B64FAF9F890A4C9E0FCA3E0FDA3E0FE7C
:1010D000A3E0FF1207E290A450EBF0E47B64FAF97E
:1010E000F890A4C9E0FCA3E0FDA3E0FEA3E0FF129A
:1010F00007E2E47B64FAF9F81207E290A44FEBF000
:10110000E47B107A27F9F890A4C9E0FCA3E0FDA3E2
:10111000E0FEA3E0FF1207E2E47B64FAF9F81207AD
:10112000E290A44EEBF0E47B64FAF9F890A451E06D
:10113000FCA3E0FDA3E0FEA3E0FF1207E290A44DB4
:10114000EBF0E47B64FAF9F890A451E0FCA3E0FD35
:10115000A3E0FEA3E0FF1207E2E47B64FAF9F812D1
:1011600007E290A44CEBF0E47B107A27F9F890A406
:1011700051E0FCA3E0FDA3E0FEA3E0FF1207E2E4E0
:101180007B64FAF9F81207E290A44BEBF0A3E0FFBE
:10119000D3940074809480406ED3EF940C74809448
:1011A000805064A3E0FF941F748094805054EF94A7
:1011B0000074809480404BA3E0D394177480948093
:1011C0005039C3748094804032A3E0D3943B748040
:1011D00094805020C3748094804019A3E0D3943B42
:1011E000748094805007C3748094805020E490A44D
:1011F00050F08019E490A44FF08012E490A44EF0D7
:10120000800B90A44D800390A44C7401F07B017A74
:10121000A4794B90A469E4F0A37406F07F9D7E004E
:101220001217357B017AA479C790A469E4F0A374FE
:1012300002F07F9C7E00121735021BCA90A4BBE00F
:10124000FEA3E0FF90A470E0FD1214D97B017AA404
:10125000798E90A469E4F0A37404F07F007E2612D6
:10126000173590A4BBE0FCA3E0FDE412041CE4FBF2
:10127000FA797A784412030190A4A01208D290A4BB
:1012800070E06401600302131C90A4BBE0FCA3E0C7
:10129000FDE412041CE4FBFA797A7844120301900D
:1012A000A475E0F8A3E0F9A3E0FAA3E0FB120107BC
:1012B00090A47D1208D2E4FFFEFD7C4090A471E072
:1012C000F8A3E0F9A3E0FAA3E0FB1201F890A47DF3
:1012D000E0F8A3E0F9A3E0FAA3E0FB1201F890A480
:1012E000921208D290A47DE0FCA3E0FDA3E0FEA34F
:1012F000E0FF90A49CE0F8A3E0F9A3E0FAA3E0FBF0
:101300001201F8E4FBFA7940784012030190A4A49A
:101310001208D27B017AA479A402149D90A470E0F3
:10132000640260030213DE90A4BBE0FCA3E0FDE4D2
:1013300012041CE4FBFA797A784412030190A47534
:10134000E0F8A3E0F9A3E0FAA3E0FB12010790A400
:101350007D1208D2E4FFFEFD7C4090A46BE0F8A370
:10136000E0F9A3E0FAA3E0FB1201F890A47DE0F815
:10137000A3E0F9A3E0FAA3E0FB1201F890A4921213
:1013800008D290A46BE0FCA3E0FDA3E0FEA3E0FF85
:1013900090A47DE0F8A3E0F9A3E0FAA3E0FB12013A
:1013A000F8C004C005C006C00790A43F1208DE4084
:1013B000000000D007D006D005D004121D7A90A4FA
:1013C0008AE0F8A3E0F9A3E0FAA3E0FB1201F890A9
:1013D000A49C1208D27B017AA4799C02149D90A44B
:1013E00070E0640360030214AD90A4BBE0FCA3E0D2
:1013F000FDE412041CE4FBFA797A784412030190AC
:10140000A475E0F8A3E0F9A3E0FAA3E0FB1201075A
:1014100090A47D1208D2E4FFFEFD7C4090A471E010
:10142000F8A3E0F9A3E0FAA3E0FB1201F890A47D91
:10143000E0F8A3E0F9A3E0FAA3E0FB1201F890A41E
:10144000921208D290A471E0FCA3E0FDA3E0FEA3F9
:10145000E0FF90A47DE0F8A3E0F9A3E0FAA3E0FBAD
:101460001201F8C004C005C006C00790A43F1208CE
:10147000DE40000000D007D006D005D004121D7A4F
:1014800090A48AE0F8A3E0F9A3E0FAA3E0FB12013C
:10149000F890A49C1208D27B017AA4799C90A4694C
:1014A000E4F0A37404F07F507E281217357B017A94
:1014B000A479A090A469E4F0A37404F07F007E25D1
:1014C0001217357B017AA4799290A469E4F0A37491
:1014D00004F07F407E2802173590A42DEDF0AB0775
:1014E000AA06E4A3F0A31208DE0000000090A437CF
:1014F0001208DE00000000AE02AF037C007D0A127D
:1015000006D0AC06AD07E412041C90A4331208D236
:10151000E4FFFE7D207C4190A433E0F8A3E0F9A332
:10152000E0FAA3E0FB12039E60025023E4FFFE7D7D
:10153000A07C4090A433E0F8A3E0F9A3E0FAA3E094
:10154000FB12039E400990A42E7401F0021616E4CB
:10155000FFFE7DA07C4190A433E0F8A3E0F9A3E076
:10156000FAA3E0FB12039E60025025E4FFFE7D20FB
:101570007C4190A433E0F8A3E0F9A3E0FAA3E0FBF8
:1015800012039E600B400990A42E7402F0021616FE
:10159000E4FFFE7DC87C4290A433E0F8A3E0F9A309
:1015A000E0FAA3E0FB12039E60025024E4FFFE7DFC
:1015B000A07C4190A433E0F8A3E0F9A3E0FAA3E013
:1015C000FB12039E600A400890A42E7403F080462C
:1015D000E4FFFE7D967C4390A433E0F8A3E0F9A3FA
:1015E000E0FAA3E0FB12039E60025024E4FFFE7DBC
:1015F000C87C4290A433E0F8A3E0F9A3E0FAA3E0AA
:10160000FB12039E600A400890A42E7404F080062A
:1016100090A42E7405F090A42EE024FE603914608E
:101620005F1470030216AB2403600302170190A439
:101630003F1208DEBFCCCCCD90A433E0FCA3E0FD8C
:10164000A3E0FEA3E0FF121D7A90A4371208D27F18
:10165000DC7EAF7D0E805090A43F1208DEBFECCC44
:10166000CD90A433E0FCA3E0FDA3E0FEA3E0FF12D5
:101670001D7A90A4371208D27FB87E287D808027FB
:1016800090A43F1208DEBFE7AE1490A433E0FCA3A1
:10169000E0FDA3E0FEA3E0FF121D7A90A43712083C
:1016A000D27F407E167D617C47802990A43F12083E
:1016B000DEC000000090A433E0FCA3E0FDA3E0FE48
:1016C000A3E0FF121D7A90A4371208D27F047EF6A1
:1016D0007D077C4890A437E0F8A3E0F9A3E0FAA3E3
:1016E000E0FB1201F890A42F1208D290A42FE0FC86
:1016F000A3E0FDA3E0FEA3E0FF90A48E1208D28039
:101700000690A42E740AF090A42DE0FF64016005F9
:10171000EF6403701F90A48EE0FCA3E0FDA3E0FE45
:10172000A3E0FF7B9A7A997919783F1201F890A487
:101730008E1208D22290A466EBF0A3EAF0A3E9F09F
:10174000AD07AC0690A466E0FBA3E0FAA3E04A4B29
:101750007003021981A3E0FEA3E0FF4E700302199B
:1017600081EEC313FEEF132DFFEE3CFED3EF94FE8C
:10177000EE94FF4003021981C2AFED5401FBECC3AC
:1017800013FCED13FDAE047810CEC313CE13D8F9BD
:10179000F5F1ECF5F2AF058FF3E4F5F875F401D24D
:1017A000FF30FCFDC2FDEB6401707C90A469E0FE9B
:1017B000A3E0FF64014E700AC2FBC2FAD2F9C2F87C
:1017C0008008C2FBC2FAD2F9D2F8EF64014E90A4AD
:1017D00066701AE0FBA3E475F001120771A9F0FA34
:1017E000120644F5FC90A46AE024FF802DE0FBA3E0
:1017F000E475F001120771A9F0FA120644F5FC90A5
:10180000A466E0FBA3E475F001120771A9F0FA12D7
:101810000644F5FD90A46AE024FEF090A469E0344B
:10182000FFF0D2FE20FEFD90A469E0FEA3E0FF4E93
:10183000700302197CC3EF9404EE94004003021974
:101840000AEE7022EF14601614600D147018D2FBAB
:10185000D2FAD2F9C2F8800ED2FBD2FA8004D2FBBF
:10186000C2FAC2F9C2F890A469E0FEA3E0FFEE60FC
:1018700003021903EF146076146047146003021921
:101880000390A466E0FBA3E475F001120771A9F0D0
:10189000FA120644F5FA90A466E0FBA3E475F001A1
:1018A000120771A9F0FA120644F5FB90A466E0FB5A
:1018B000A3E475F001120771A9F0FA120644F5FCD1
:1018C000804190A466E0FBA3E475F001120771A9C2
:1018D000F0FA120644F5FA90A466E0FBA3E475F072
:1018E00001120771A9F0FA120644F5FB801590A4C5
:1018F00066E0FBA3E475F001120771A9F0FA120685
:1019000044F5FAD2FE30FE7480FBD2FBD2FAD2F953
:10191000D2F890A466E0FBA3E475F001120771A968
:10192000F0FA120644F5FA90A466E0FBA3E475F021
:1019300001120771A9F0FA120644F5FB90A466E0C3
:10194000FBA3E475F001120771A9F0FA120644F541
:10195000FC90A466E0FBA3E475F001120771A9F006
:10196000FA120644F5FDD2FE20FEFD90A46AE024A2
:10197000FCF090A469E034FFF0021827E4F5F8D2F7
:10198000AF2290A466EBF0A3EAF0A3E9F0AD07ACB8
:101990000690A466E0FBA3E0FAA3E04A4B700302C2
:1019A0001BC9A3E0FEA3E0FF4E7003021BC9EEC3F8
:1019B00013FEEF132DFFEE3CFED3EF94FEEE94FFEB
:1019C0004003021BC9C2AFED5401FBECC313FCED95
:1019D00013FDAE047810CEC313CE13D8F9F5F1EC95
:1019E000F5F2AF058FF3E4F5F875F401D2FF30FCA2
:1019F000FDD2FDEB6401707D90A469E07004A3E06A
:101A00006401700AC2FBC2FAD2F9C2F88008C2FBB4
:101A1000C2FAD2F9D2F8D2FE20FEFD90A469E0709D
:101A200004A3E0640190A466701BE0FBA3E475F0DE
:101A300001120771A9F0FAE5FC12068A90A46AE087
:101A400024FF021BB9E0FBA3E475F001120771A9A2
:101A5000F0FAE5FC12068A90A466E0FBA3E475F0B8
:101A600001120771A9F0FAE5FD12068A90A46AE056
:101A700024FE021BB990A469E0FEA3E0FF4E7003B0
:101A8000021BC4C3EF9404EE94004003021B52EE09
:101A90007022EF14601614600D147018D2FBD2FA85
:101AA000D2F9C2F8800ED2FBD2FA8004D2FBC2FA7D
:101AB000C2F9C2F8D2FE20FEFD90A469E0FEA3E0C8
:101AC000FFEE6003021BC4EF1460701460441460E6
:101AD00003021BC490A466E0FBA3E475F0011207A7
:101AE00071A9F0FAE5FA12068A90A466E0FBA3E475
:101AF00075F001120771A9F0FAE5FB12068A90A4AD
:101B000066E0FBA3E475F001120771A9F0FAE5FCA9
:101B1000803B90A466E0FBA3E475F001120771A975
:101B2000F0FAE5FA12068A90A466E0FBA3E475F0E9
:101B300001120771A9F0FAE5FB801290A466E0FBA0
:101B4000A3E475F001120771A9F0FAE5FA12068A0A
:101B50008072D2FBD2FAD2F9D2F8D2FE20FEFD90EA
:101B6000A466E0FBA3E475F001120771A9F0FAE5A1
:101B7000FA12068A90A466E0FBA3E475F00112074E
:101B800071A9F0FAE5FB12068A90A466E0FBA3E4D3
:101B900075F001120771A9F0FAE5FC12068A90A40B
:101BA00066E0FBA3E475F001120771A9F0FAE5FD08
:101BB00012068A90A46AE024FCF090A469E034FF45
:101BC000F0021A75E4F5F8D2AF2278577CA47D01B3
:101BD0007BFF7A3079737E007F0212061E7B017ACA
:101BE000A4795590A469E4F0A37402F07F9C7E0070
:101BF00012198290A455E0645A7004A3E064A560B1
:101C000003021D7990A459F0A3F0D200785B7CA464
:101C10007D017BFF7A307975FE7F0712061E7B01FE
:101C20007AA4796290A469E4F0A37402F07F9D7EA7
:101C30000012198290A462E0FCA3E0FDEC90A4598C
:101C4000F0E0FF75F00A84C454F0FEEF75F00A84EA
:101C5000EE25F090A45BF090A459EDF0E0FF75F054
:101C60000A84C454F0FEEF75F00A84EE25F090A4C7
:101C70005CF07B017AA4796290A469E4F0A3740219
:101C8000F07F9E7E0012198290A462E0FCA3E0FD2A
:101C9000EC90A459F0E0FF75F00A84C454F0FEEF14
:101CA00075F00A84EE25F090A45DF090A459EDF053
:101CB000E0FF75F00A84C454F0FEEF75F00A84EE7C
:101CC00025F090A45FF07B017AA4796290A469E486
:101CD000F0A37402F07F9F7E0012198290A462E04C
:101CE000FCA3E0FDEC90A459F0E0FF75F00A84C479
:101CF00054F0FEEF75F00A84EE25F090A460F090A9
:101D0000A459EDF0E0FF75F00A84C454F0FEEF75BD
:101D1000F00A84EE25F090A461F07B017AA4795753
:101D200090A469E4F0A304F07F9C7E001217353084
:101D30000047122A087F10122A4690A461E0FF1281
:101D40002A4690A460E0FF122A4690A45FE0FF12AA
:101D50002A4690A45EE0FF122A4690A45DE0FF129E
:101D60002A4690A45CE0FF122A4690A45BE0FF1292
:101D70002A3B122E66C20080B62290A43B1208D2E3
:101D8000E4FFFE7D807C3F90A43BE0F8A3E0F9A354
:101D9000E0FAA3E0FB12039E700690A43B021ED45F
:101DA00090A43BE0FCA3E0FDA3E0FEA3E0FF12044F
:101DB000D6FBA3E0FCA3E0FDA3E0FEA3E0FF12043A
:101DC000D6FFB40108E4FFFE7D807C3F22EF64046F
:101DD0006029EB64046024EBB40130E4FFFEFDFCF9
:101DE00090A43FE0F8A3E0F9A3E0FAA3E0FB12031C
:101DF0009E60084006E4FFFEFDFC2290A43F12080E
:101E0000DEFFFFFFFF90A43F021ED4E490A443F046
:101E1000A3F0FFFEFDFC90A43BE0F8A3E0F9A3E0F3
:101E2000FAA3E0FB12039E505F90A43FE0FCA3E006
:101E3000FDA3E0FEA3E0FF12045590A443EEF0A33F
:101E4000EFF0FDCCEECCEC12041CC8ECC8C9EDC917
:101E5000CAEECACBEFCB90A43FE0FCA3E0FDA3E029
:101E6000FEA3E0FF120103E4FBFAF9F812039E70EF
:101E70008A90A43BE0FCA3E0FDA3E0FEA3E0FF12F8
:101E800004F090A43B1208D290A43BE0FCA3E0FD38
:101E9000A3E0FEA3E0FF1221A490A43FE0F8A3E09A
:101EA000F9A3E0FAA3E0FB1201F81226FC90A43F8C
:101EB0001208D290A444E030E01790A43FE0FCA3C5
:101EC000E0FDA3E0FEA3E0FF1204F090A43F12089F
:101ED000D290A43FE0FCA3E0FDA3E0FEA3E0FF223C
:101EE00090A438EBF090A437EDF0EF24D0FEE4346A
:101EF0000790A43AF0A3CEF0EDFF64016005EF6413
:101F000002701590A437E0240CF090A43BE024FF6D
:101F1000F090A43AE034FFF090A43AE0FEA3E0FF92
:101F2000C394D8EE94064034BE0610BFD80D90A4DA
:101F300037E0C3940974809480402190A43AE0640F
:101F4000067004A3E064D8706590A437E06409705B
:101F50005DA3E0C3940374809480505290A437E052
:101F6000FB2401FFE433FE7C007D031206BE7D05E9
:101F7000120725AD07EB75F002A4FFA3E07A002F4E
:101F8000FFEA35F0CF2DCF3EFE90A43AE0FCA3E06F
:101F9000FD2FFBEC3EFAAE04ED7802CEC313CE1358
:101FA000D8F92BFFEA3ECF2406CF3400807C90A4E2
:101FB00037E02401FFE433FE7C007D031206BE7D82
:101FC00005120725AC06AD07A3E02401FBE433FAB4
:101FD00090A437E075F002A42BFFE5F03ACF2DCFA7
:101FE0003CFE90A43AE0FCA3E0FD2FFBEC3EFAAEF1
:101FF00004ED7802CEC313CE13D8F92BFBEA3EFAD8
:1020000090A43AE0FEA3E0FF7C007D641206D0C3FA
:10201000EB9FFBEA9EFA90A43AE0FEA3E0FF7C016E
:102020007D901206D0EF2BFFEE3AFE7C007D07126A
:1020300006D090A439EDF090A439E0FF22782F7CEF
:10204000A47D017BFF7A30796B7E007F0812061E2B
:10205000122A41122E70122F3D7F65122A467C06ED
:10206000ECD3940074809480401512002E742F2CB1
:10207000F582E434A4F583EFF01200161C80E1121F
:10208000002E90A42FEFF0122FDF122E75E4FCEC3F
:10209000C39403748094805030742F2CF582E43400
:1020A000A4F583E0FFC4540FFE90A42DF0EF540F6D
:1020B000FFA3F0EE75F00AA42FFF742F2CF582E435
:1020C00034A4F583EFF00C80C67C04ECC394077451
:1020D0008094805030742F2CF582E434A4F583E092
:1020E000FFC4540FFE90A42DF0EF540FFFA3F0EEA9
:1020F00075F00AA42FFF742F2CF582E434A4F58325
:10210000EFF00C80C690A42FE0FFA3E0FDA3E0FB5E
:10211000121EE090A432EFF07B017AA4792F90A4F4
:1021200069E4F0A37402F07F107E001217357B0182
:102130007AA4793190A469E4F0A37402F07F117E4F
:10214000001217357B017AA4793390A469E4F0A3D7
:102150007402F07F127E001217357B017AA4793564
:1021600090A469E4F0A37402F07F137E0002173597
:102170003E9248DA3ECCCCCD3F2AAAAB40000000CC
:102180003F8000003F9837F03FB504F33FD744FC51
:102190003E3172173EB172173F0515913EDE5BD995
:1021A000D2008002C200EDD2E7F8CD33EC330470E8
:1021B0000BBD800592D50204CB0204C140FBD314B1
:1021C00060F2F5F07C3FEE7A00C39496C8948B40A1
:1021D000230AC89469C8941A401A0AC89468C89413
:1021E0001F40110AC8945AC89425400805F07A0087
:1021F000CDC2E7CDC0F090A4451208D2EA2323C097
:10220000E02480F582E43421F5831208C21201072C
:10221000ECC0E0EDC0E0EEC0E0EFC0E01208A69038
:10222000A4451208B6120103D0E0FBD0E0FAD0E0DA
:10223000F9D0E0B2E7F812030190A4451208D29059
:102240002170740312050190A4451208B61201F81A
:10225000D0E0600F248CF582E43421F5831208C2AB
:1022600012010790A4451208D2D0E0C3947FFDE488
:102270009400FC12041C7B187A727931783F1201A9
:10228000F890A4451208B612010730000B7BD97AEA
:102290005B79DE783E1201F8227B017AA4793190D5
:1022A000A469E4F0A37402F07F007E5112198290B9
:1022B000A431E0FEA3E0FFEE704CEF24FE601914A1
:1022C000602214602B1460342404703A90A4BD1270
:1022D00008DE43FA0000802E90A4BD1208DE447A86
:1022E0000000802290A4BD1208DE44BB800080164E
:1022F00090A4BD1208DE451C4000800A90A4BD12C7
:1023000008DE457A000090A4BBE0FEA3E0FF1227A0
:10231000F090A4C1E0FCA3E0FDA3E0FEA3E0FF1267
:102320000455AD07AC06ECC4F854F0C868FFEDC422
:10233000540F4890A42FCFF0A3EFF0ED540FFF906F
:10234000A42DE4F0A3EFF07B017AA4792F90A46987
:10235000E4F0A37402F07F207E281217357B017A07
:10236000A4792F90A469E4F0A37402F07F007E2882
:102370001217357B017AA4792D90A469E4F0A37437
:1023800002F07F057E281217357B017AA4792D9003
:10239000A469E4F0A37402F07F257E28021735AE0D
:1023A000AD90A4A8E0FCA3E0FDEC704BED14602020
:1023B000047044EE6457600302249F74AB2DF582D1
:1023C00074A43CF583EEF090A4A8E4F0A304F022FA
:1023D000EE701C90A4A8E0FCA3E024ABF58274A4EA
:1023E0003CF583EEF090A4A8E4F0A37402F022E49C
:1023F00090A4A8F0A3F02290A4A8E0FCA3E024AB52
:10240000F58274A43CF583EEF090A4A9E004F0708A
:102410000690A4A8E004F0D390A4A9E0940F90A49F
:10242000A8E094004079E4F0A3F090A4ACE0FF9021
:10243000A4ABE02FFF90A4ADE02FFFA3E02FFFA3FC
:10244000E02FFFA3E02FFFA3E02FFFA3E02FFFA3C8
:10245000E02FFFA3E02FFFA3E0FD2FFFA3E0FE2F5F
:10246000FFA3E02FFFA3E02FFFA3E02FFFA3E0B522
:10247000072DEE702A90A4B4E07B00FAED7E007880
:1024800010C333CE33CED8F9FFEE4AFEEF4BFF90A8
:10249000A4B3E0FDEF4DFF90A4BBEEF0A3EFF0225C
:1024A00090A43CEBF0A3EAF0A3E9F0E490A447F099
:1024B000A3F0A3F0A3F0C390A446E0940790A44532
:1024C000E0940050037F022290A43CE0FBA3E0FADA
:1024D000A3E0F9120644645A60037F0322900001CE
:1024E00012065D64A560037F032290000212065D60
:1024F0002403FFE433FE90A447F0A3EFF0C390A4BD
:1025000046E09F90A445E09E4072E490A449F0A369
:10251000F090A447E0FEA3E0FFA3E0FCA3E0FDC32E
:102520009FEC9E503C90A43CE0FBA3E0FAA3E0F9B2
:10253000120644FF90A43FE0FBA3E0FAA3E0F98D6C
:10254000828C83EF12069C90A43DE475F001120783
:102550005B90A44AE004F070B890A449E004F080D5
:10256000B090A447E0F9A3E0FF90A442E0FBA3E011
:10257000FAA3E0C98FF01207877F01227F0222E4CD
:1025800090A43CF0A3F090A22DE0FEA3E0FDEDFFAF
:1025900090A43CEEF0A3EFF090A22CE06482703D9A
:1025A0007B017AA2792F90A22BE024FDFEE434FF78
:1025B00090A469F0A3CEF090A43CE0FEA3E0FF124B
:1025C000173590A22B7403F090A22D744FF0A374D2
:1025D0004BF07B017AA2792990A22B803E90A22C0D
:1025E000E06483703D7B017AA2793090A22FE07580
:1025F000F002A4FF90A469E5F0F0A3EFF090A43CF2
:10260000E0FEA3E0FF12198290A22FE025E0FF90E8
:10261000A22BE02FF07B017AA27929E02403FD129E
:102620002CF222759401759502758E0075930075D4
:10263000C87075C96075F800787FE4F6D8FD7581BB
:102640002002267F022F64E493A3F8E493A34003BF
:10265000F68001F208DFF48029E493A3F8540724FC
:102660000CC8C333C4540F4420C8834004F45680BC
:102670000146F6DFE4800B01020408102040809040
:102680000CE1E47E019360BCA3FF543F30E50954A4
:102690001FFEE493A360010ECF54C025E060A84064
:1026A000B8E493A3FAE493A3F8E493A3C8C582C85B
:1026B000CAC583CAF0A3C8C582C8CAC583CADFE930
:1026C000DEE780BE33DA929E35B16011377FE5FEDA
:1026D000392184893AAEC3FF3C1D955B3D63584761
:1026E0003E75FDF03F3172183F800000C2D50204F4
:1026F000CB0204C1BD80FA50F30204C8ED33EC33C1
:102700000460F17B3B7AAA79B8783F1201F8ED3387
:10271000EC3392D5247B5011A2D570DB500BED44E5
:102720008024045004A2D580CEEFFBEEFAEDF9EC44
:10273000F8120455EFF582F404FC1204211201078B
:10274000C0829026C47409120510ED33CC33D0F04A
:1027500092D525F0A2D57001C313CC13FD2290A40D
:10276000D6EFF078D77CA47D017BFF7A3079477E65
:10277000007F0412061E7B017AA479D790A469E435
:10278000F0A37404F07F807E0012198290A4D774A5
:102790005AF090A4D6E0FD3395E0FCED64014C7056
:1027A0000990A4DAE054F7F0800DED64024C703F1C
:1027B00090A4DAE04408F07B017AA479D790A46968
:1027C000E4F0A37404F07F807E001217357F057E4D
:1027D00000122E877B017AA479D790A469E4F0A334
:1027E00004F07F807E0012198290A4D7E070DE2270
:1027F000AD07AC06E412041CE4FBFA792078411220
:10280000030190A4331208D2E4FFFE7DC87C4390FC
:10281000A433E0F8A3E0F9A3E0FAA3E0FB12039EDF
:102820005024E4FFFE7DA07C4090A433E0F8A3E0B8
:10283000F9A3E0FAA3E0FB12039E600A400890A40B
:10284000C57401F0800690A4C57405F090A4C5E09D
:1028500014702590A48EE0F8A3E0F9A3E0FAA3E0B9
:10286000FB90A4BDE0FCA3E0FDA3E0FEA3E0FF120B
:10287000030190A4C10208D290A4C57406F0227886
:102880002D7CA47D017BFF7A3079537E007F10126E
:10289000061EE490A43DF0A3F0A3F0A3F0A3F0A3E0
:1028A000F090A42AE0FDFEA3E0FBF582E582FF9014
:1028B000A441EEF0A3EFF090A229745AF0A374A5FE
:1028C000F090A42CE0FC25E0240390A22BF0A3744C
:1028D00083F0A3EDF0A3EBF07B017AA2792FEC75E6
:1028E000F002A4FF90A469E5F0F0A3EFF090A441FA
:1028F000E0FEA3E0FF12198290A441E0FEA3E0FFF6
:10290000020086E47FE87E03FDFC90A485E0F8A346
:10291000E0F9A3E0FAA3E0FBC3120882406890A4A8
:10292000851208DE0000000090A479E0FCA3E0FD21
:10293000A3E0FEA3E02401FFE43EFEE43DFDE43C11
:10294000FC90A4791208D290A481E0F8A3E0F9A346
:10295000E0FAA3E0FBC000C001C002C003E4FBFA40
:10296000797A784490A48EE0FCA3E0FDA3E0FEA376
:10297000E0FF120301D003D002D001D00012010702
:1029800090A4811208D222C0E0C0F0C083C082C0EF
:10299000D075D000C000C001C002C003C004C00593
:1029A000C006C007E4FFC2AFE5AB54016401703B51
:1029B00012239FAFAD908088E0FCA3E02400F58255
:1029C00074803CF583EFF0908089E004F07006900D
:1029D0008088E004F053ABFEC3908089E09480903F
:1029E0008088E094004004E4F0A3F0D2AFD007D098
:1029F00006D005D004D003D002D001D000D0D0D072
:102A000082D083D0F0D0E032122F3D7F64122A466C
:102A10007F30122A46E4FF122A46122E75122F3DED
:102A20007F64122A467F1C122A467F48122A46E4F7
:102A3000FF122A467F40122A467F10122A46122E83
:102A400075122F3D7F64AE07120066E4FDEDC3945E
:102A500008748094805019EE30E704D2B38002C22B
:102A6000B3EE25E0FE122F14C2B2122F190D80DD35
:102A7000022E43C0E0C083C082C0D075D000C00425
:102A8000C007C2AF309837AF99908082E0FCA3E0D6
:102A9000248AF58274803CF583EFF0908083E00413
:102AA000F07006908082E004F0C3908083E094A0F0
:102AB000908082E0941F4004E4F0A3F0C298309923
:102AC00007C299908080E4F0D2AFD007D004D0D074
:102AD000D082D083D0E03290A4D0EEF0A3EFF07893
:102AE000D27CA47D017BFF7A30794F7E007F041277
:102AF000061E90A4D0E0FCA3E0FDEC90A4D4F0A3CB
:102B0000EDF07B017AA479D290A469E4F0A3740477
:102B1000F07F847E001217357F057E00122E877BA2
:102B2000017AA479D290A469E4F0A304F07F847EB2
:102B30000012198290A4D2E070DE22C0E0C0F0C082
:102B400083C082C0D075D000C000C004C005C006DC
:102B5000C007C2AF758CBC758ACD90A4CFE004F0DD
:102B6000700690A4CEE004F090A485E0FCA3E0FD04
:102B7000A3E0FEA3E02401FFE43EFEE43DFDE43CCF
:102B8000FC90A4851208D2D2AFD007D006D005D0D1
:102B900004D000D0D0D082D083D0F0D0E032C0E0DA
:102BA000C083C082C0D075D000C004C007C2AFE5EA
:102BB0009B30E028AF9C908084E0FCA3E0242AF5C1
:102BC0008274A03CF583EFF0908085E004F07006FD
:102BD000908084E004F0539BFE539BFEE59B30E124
:102BE0000B539BFD539BFD908081E4F043C901D2C0
:102BF000AFD007D004D0D0D082D083D0E032122A18
:102C0000417F1D122A46122E75122F3D7F65122A12
:102C10004612002EAC0712001612002E122FDF12E1
:102C20002E75EC54026402702E122A087F10122AAC
:102C300046E4FF122A46E4FF122A46E4FF122A461F
:102C40007F01122A467F01122A467F01122A467FFF
:102C500017122A3B122E662290A470E0FF90A489DE
:102C6000E06F6008EFF090A4C67401F090A4C6E095
:102C700014601714601D14601D14601D24FE601C78
:102C80002406702190A4C67401F090A4C67402F0CA
:102C90001200620222990200610200F790A4C67439
:102CA00001F012006A22782D7CA47D017BFF7A302E
:102CB000794B7E007F0412061E7B017AA47929904D
:102CC000A469E4F0A37404F07F007E0F12198290CF
:102CD000A429E0645A70187B017AA4792D90A46924
:102CE000F0A37404F07F007E0F1217357F01227F5E
:102CF000002290A43EEBF0A3EAF0A3E9F090A43EFA
:102D0000E0FBA3E0FAA3E04A4B6027ED6024AF05A7
:102D10001DEF601E90A43EE0FBA3E0FAA3E0F912D1
:102D20000644FF122F8690A43FE475F00112075B62
:102D300080DC2290A4DBEBF0A3EAF0A3E9F090A4FE
:102D4000DBE0FBA3E0FAA3E04A4B6027ED6024AF91
:102D5000051DEF601E90A4DBE0FBA3E0FAA3E0F901
:102D6000120644FF122F9490A4DCE475F0011207C0
:102D70005B80DC2290A4DEEBF0A3EAF0A3E9F09004
:102D8000A4DEE0FBA3E0FAA3E04A4B6027ED602459
:102D9000AF051DEF601E90A4DEE0FBA3E0FAA3E008
:102DA000F9120644FF122FBC90A4DFE475F0011263
:102DB000075B80DC227B017AA4796F90A469E4F040
:102DC000A37402F07F147E0012198290A470E0FFB9
:102DD0001460161460181460152403701490A489EC
:102DE000EFF090A4C67401F022122C588000121249
:102DF0003C22E490A444F0A3F0A3F0A3F0AE04AF0F
:102E000005C003C00290A441E0FBA3E0FAA3E0F8F0
:102E1000AC02AD03D002D00312061E7F012243B7DD
:102E20001043C940E4908080F0908082F0A3F07558
:102E3000D88075985053877F75BA0375AAE4D29CE1
:102E4000D2AC22120026122F12E4FEEEC39432748A
:102E5000809480500930B306122F190E80EDC2B253
:102E6000122F190200667F1E122A46E4FF122A461C
:102E70007F10122A46120066C2B3D2B2122F19D2A4
:102E8000B3122F19020026E4FDFCC3ED9FEC9E5007
:102E900015E4FBFA0BBB00010ABA1CF8BBE8F50D00
:102EA000BD00010C80E42243B7C043C920E49080F8
:102EB00081F0908084F0A3F0759BD075BB03759D65
:102EC000C8759A012290A4E1EFF07B017AA479E120
:102ED00090A469E4F0A304F07F827E00021735C35A
:102EE00090A4CFE094F490A4CEE09401400A122084
:102EF0003DE490A4CEF0A3F02275F90175B7C37537
:102F0000BCA375BD2A75BE0CE4F580F590F5A0F55F
:102F1000B022D2B3122F19D2B2E4FFEFC39450748F
:102F200080948050030F80F32275C870E4F5CDF5CE
:102F3000CC75CBBC75CACD43A820D2C8221200667E
:102F4000D2B3D2B2122F19C2B3122F19C2B2022FAA
:102F500019E4908086F0A3F0759680759780F5D976
:102F600075E7E022122F75122BFE122FC8122DB515
:102F7000122EDF80F5C2AF122FB0122EF9122FEAF7
:102F800012005BD2AF22908080E0640160F874018F
:102F9000F08F9922908081E0640160F87401F08FD5
:102FA0009C22438901758CBC758ACDD2A9D28C2212
:102FB000E4F5A8F5B8F59AF5A9F5B9228FACE5A71F
:102FC000540160FA53A7FE22122CA6EF60031228C8
:102FD0007F02093B7BFF7A2F79FC7D15022CF212D0
:102FE0000066122F12C2B2022F19122E1E122F517A
:102FF00002006EE490A4C6F022C2C632556172741B
:1030000032496E697420446F6E652121213132335B
:10301000005561727433496E697420446F6E652186
:103020002121005561727434496E697420446F6EB9
:1030300065212121005561727435496E69742044FF
:103040006F6E652121210000000000000000005A81
:10305000010000000000000000000000000000006F
:103060000000000000000000000000000000000060
:0C30700000000000000000000000000054
:00000001FF
