:100000000240F0020006C2AFD2AF32023567C2AF83
:10001000D2AF3202000E124FF4C2B3124EEFC2B290
:10002000024EF4024757AE07024F53024FF843B750
:100030001043C940E4908080F0908082F0A3F07576
:10004000D88075985053877F75BA0375AAE4D29CFF
:10005000D2AC22024FD453BEF7222202487FE4F5ED
:10006000A8F5B8F59AF5A9F5B922220243D2E49091
:100070008088F0A3F075A78075AB80F5AE75AFE012
:10008000D2BD2202481F90A49AEBF0A3EAF0A3E9A4
:10009000F0C390A522E0940A90A521E094004014BA
:1000A00012293790A49AE0FBA3E0FAA3E0F9EE8FBF
:1000B000F012099C90A49AE0FBA3E0FAA3E0F912E5
:1000C0000939FFAEF04E602BEFF47002EEF46023BE
:1000D000EF64FE7002EEF4601A1244D390A49AE02A
:1000E000FBA3E0FAA3E0F9900002EE8FF01209BB47
:1000F0007F01227F00222222FFFF4457494E5435C0
:100100000204C1E86480F8E933E83360110460F068
:10011000ED33EC337009E8FCE9FDEAFEEBFF220465
:1001200060DED3EB9FEA9EE99DE8C2E78CF0C2F760
:1001300095F0400CE8CCF8E9CDF9EACEFAEBCFFB2C
:1001400012048C85D0F05804700320D5B3E80470F5
:10015000075002B2D50204CB92D5EC0460F7E4CC90
:10016000C0E0C398F8603B94186008400DD0E0FBF5
:100170000204A3E4FBFAC9FC8028E830E406E4C9E1
:10018000FBE4CAFCE830E305E4C9CACBFCE8540749
:100190006010F8C3E913F9EA13FAEB13FBEC13FC54
:1001A000D8F130F52FC3E49CFCEF9BFFEE9AFEEDF7
:1001B00099FDD0E0FBEF4E4D4C701222DB030204A0
:1001C000C8EC2CFCEF33FFEE33FEED33FDED30E7F2
:1001D000EB0204A3EF2BFFEE3AFEED39FDD0E0FB7E
:1001E00050130BBB00030204CBED13FDEE13FEEF27
:1001F00013FFEC13FC0204A3EC4D6011E8497017E7
:10020000ED33EC3304600DE4FCFFFEFD22E933E83E
:10021000330470F80204C112048C58046009E4CC61
:10022000248150062850090204CB2840030204C848
:10023000C0E0EB4A7044B98006D0E0FB0204B7EF9F
:100240004E701CBD8008EBFFEAFEE9FD80EBE98DF6
:10025000F0A4FEE5F00202E1E9CDF9EAFEEBFFEFE2
:1002600089F0A4FCE5F0CE89F0A42EFFE435F0CDB2
:1002700089F0A42DFEE435F08067EF4E7005BD8057
:10028000D780C3EF8BF0A4ACF0EE8BF0A42CFCE491
:1002900035F0F8EF8AF0A42CE5F038FCE433CB8D90
:1002A000F0A42CFCE5F03BF8EE8AF0A42CFCE5F081
:1002B00038F8E433CF89F0A42CFCE5F038CF3400D3
:1002C000CE89F0A42FFFE5F03EFEE433C98DF0A403
:1002D0002EFEE5F039CD8AF0A42FFFE5F03EFEE4D6
:1002E0003DFD33D0E0FB50070BBB000F0204CBEC0D
:1002F0002CFCEF33FFEE33FEED33FD0204A30204CA
:10030000CBEC5D046005E8590470030204C11204DB
:100310008C580460F6EC4860F2EC7004FDFEFF229D
:10032000C860DB2481C85009C398600250060204EB
:10033000C89850CAF582E9294B4A7005AB8202047D
:10034000B775F0007C1A7880C3EF9BEE9AED994068
:100350000DC3EF9BFFEE9AFEED99FDE842F0DC2322
:10036000ACF0D0E0FFD0E0FED0E0FDAB8220E710A3
:100370001BEB60BAEC2CFCEF33FFEE33FEED33FDEC
:100380000204A3E803F830E705C0F075F000EF2F92
:10039000FFEE33FEED33FD40B830E7C280AA74F8BB
:1003A000CC6480CCC86480C8F58204604FC3EB9FE6
:1003B000F5F0EA9E42F0E99D42F0E89C45F0603C91
:1003C000501DE5825FFFE582D313CB5BCBF42B5549
:1003D00082FB50280ABA002409B9002008801DE5D4
:1003E000825BFBE582D313CF5FCFF4C3132F55821B
:1003F000FF50090EBE00050DBD00010CC3EB9FF5BB
:10040000F0EA9E42F0E99D42F0E89C45F06007CC9E
:100410004820E701B3EC2275F020800E75F01080C3
:100420000575F0087D007E007F003392D530D5033E
:10043000120AB6EC334010EF33FFEE33FEED33FD1E
:10044000EC33FCD5F0ED22E5F0247EA2D513CC925E
:10045000E7CDCEFF22EDD2E7CD33EC3392D5248128
:100460004006E4FFFEFDFC22FCE4CFCECDCC24E030
:10047000501174FF80EDC3CC13CCCD13CDCE13CE71
:10048000CF13CF0470F030D5DE020AB6E9D2E7C947
:1004900033E833F892D5EDD2E7CD33EC33FC50029C
:1004A000B2D522EC30E7100FBF000C0EBE00080DD5
:1004B000BD00040BEB6014A2D5EB13FCED92E7FD3D
:1004C0002274FFFCFDFEFF22E480F8A2D574FF1326
:1004D000FC7D80E480EFED33EC33601004700FEDB1
:1004E000547F7005740292E0227404220422E422F4
:1004F000ED33EC33600A047003BD8004ECB2E7FC1A
:1005000022F920E73624F950037907E4F42402FBAA
:10051000E582158270021583DBF6E024FB501BE9AF
:100520006014E4F0E582158270021583E004F0B4F3
:100530000A08E4F0D9EE7401F00A22C2D522ED33A4
:10054000EC3392D5FA602AB4FF33EDC2E77BFF604B
:10055000067A057963E4227A05796C20D5047A0558
:100560007967224E614E002B494E46002D494E467A
:1005700000E47A08F0A3DAFC7B00740722C083C091
:1005800082ECC0E0EDC0E0EEC0E0EFC0E0EA75F064
:1005900010A4CAABF075F04DA42BFBE435F0FCEAD7
:1005A0002410FAEB34C5FBEC34D9FCEDC2E7FF753F
:1005B000F056A4F42411C5F0F434C58FF0A42AE554
:1005C000F03BE43CF020E7141206C0D0E0FFD0E09E
:1005D000FED0E0FDD0E0FC1203018014F40412060A
:1005E000C0D0E0FFD0E0FED0E0FDD0E0FC1201F88A
:1005F000D082D083E0FAEDD2E7CD33EC332482FB16
:10060000E4C3CF33CFCE33CECD33CD33DBF37B0753
:1006100075F00A846004F0A31B0AE5F0F0A38FF0E4
:10062000740AA4FFACF08EF0740AA42CFEACF05057
:10063000010C8DF0740AA42CFDE435F0F0A3DBDE90
:10064000740722C0E0EFFBEEFAEDF9ECF81201F8C6
:10065000D0E0F5F0EFFBEEFAEDF9ECF8120AE8A3C2
:10066000A3A3A3E8C0E0E9C0E0EAC0E0EBC0E0C0BB
:10067000F01201F8120B04A3A3A3A3120107D0F0F8
:10068000D0E0FBD0E0FAD0E0F9D0E0F8D5F0D42209
:100690003F8000004120000042C80000447A000072
:1006A000461C400047C35000497424004B189680F4
:1006B0004CBEBC205A0E1BCA6753C21C749DC5AEEB
:1006C000FB60065407601C23231206EEEB543860CF
:1006D000091206DA1206E91201F8ECF8EDF9EEFA61
:1006E000EFCB22EB1206E980F1543803241C90066C
:1006F00090FE93FC0EEE93FD0EEE930ECE93FF2232
:10070000E709F608DFFA8046E709F208DFFA803EDB
:1007100088828C83E709F0A3DFFA8032E309F608C8
:10072000DFFA8078E309F208DFFA807088828C8330
:10073000E309F0A3DFFA806489828A83E0A3F608E4
:10074000DFFA805889828A83E0A3F208DFFA804CBE
:1007500080D280FA80C680D4806980F28033801095
:1007600080A680EA809A80A880DA80E280CA8033FE
:1007700089828A83ECFAE493A3C8C582C8CCC58376
:10078000CCF0A3C8C582C8CCC583CCDFE9DEE78046
:100790000D89828A83E493A3F608DFF9ECFAA9F0C5
:1007A000EDFB2289828A83ECFAE0A3C8C582C8CC1B
:1007B000C583CCF0A3C8C582C8CCC583CCDFEADE34
:1007C000E880DB89828A83E493A3F208DFF980CC96
:1007D00088F0EF60010E4E60C388F0ED2402B4048F
:1007E0000050B9F582EB2402B4040050AF23234536
:1007F000822390075073BB010689828A83E02250CE
:1008000002E722BBFE02E32289828A83E49322BBB1
:10081000010CE58229F582E5833AF583E022500652
:10082000E92582F8E622BBFE06E92582F8E222E508
:100830008229F582E5833AF583E49322BB01068998
:10084000828A83F0225002F722BBFE01F322F8BB1A
:10085000010DE58229F582E5833AF583E8F022501F
:1008600006E92582C8F622BBFE05E92582C8F222E8
:10087000EF8DF0A4A8F0CF8CF0A428CE8DF0A42E9C
:10088000FE22BC000BBE0029EF8DF084FFADF022EC
:10089000E4CCF875F008EF2FFFEE33FEEC33FCEEFE
:1008A0009DEC984005FCEE9DFE0FD5F0E9E4CEFDF1
:1008B00022EDF8F5F0EE8420D21CFEADF075F008C4
:1008C000EF2FFFED33FD4007985006D5F0F222C31D
:1008D00098FD0FD5F0EA22C2D5EC30E709B2D5E495
:1008E000C39DFDE49CFCEE30E715B2D5E4C39FFF49
:1008F000E49EFE120882C3E49DFDE49CFC8003128A
:10090000088230D507C3E49FFFE49EFE22C5F0F8BD
:10091000A3E028F0C5F0F8E582158270021583E0A7
:1009200038F022A3F8E0C5F025F0F0E582158270DA
:10093000021583E0C838F0E822BB010A89828A8365
:10094000E0F5F0A3E022500687F009E71922BBFE8C
:1009500007E3F5F009E3192289828A83E493F5F02D
:1009600074019322BB0110E58229F582E5833AF5F3
:1009700083E0F5F0A3E0225009E92582F886F0082B
:10098000E622BBFE0AE92582F8E2F5F008E222E55C
:10099000832AF583E993F5F0A3E99322BB010A8941
:1009A000828A83F0E5F0A3F0225006F709A7F01938
:1009B00022BBFE06F3E5F009F31922F8BB0111E5AD
:1009C0008229F582E5833AF583E8F0E5F0A3F02289
:1009D0005009E92582C8F608A6F022BBFE09E925E0
:1009E00082C8F2E5F008F22275F008758200EF2F58
:1009F000FFEE33FECD33CDCC33CCC58233C5829BE5
:100A0000ED9AEC99E58298400CF582EE9BFEED9A0A
:100A1000FDEC99FC0FD5F0D6E4CEFBE4CDFAE4CCA6
:100A2000F9A88222B800C1B90059BA002DEC8BF0A8
:100A300084CFCECDFCE5F0CBF97818EF2FFFEE3365
:100A4000FEED33FDEC33FCEB33FB10D70399400490
:100A5000EB99FB0FD8E5E4F9FA227818EF2FFFEEB7
:100A600033FEED33FDEC33FCC933C910D7059BE9E8
:100A70009A4007EC9BFCE99AF90FD8E0E4C9FAE444
:100A8000CCFB2275F010EF2FFFEE33FEED33FDCCE3
:100A900033CCC833C810D7079BEC9AE899400AEDCD
:100AA0009BFDEC9AFCE899F80FD5F0DAE4CDFBE475
:100AB000CCFAE4C8F922C3E49FFFE49EFEE49DFD66
:100AC000E49CFC22EB9FF5F0EA9E42F0E99D42F0A7
:100AD000E89C45F022E8600FEFC333FFEE33FEEDF4
:100AE00033FDEC33FCD8F122E493FC740193FD74E4
:100AF0000293FE740393FF22E0F8A3E0F9A3E0FA67
:100B0000A3E0FB22E493F8740193F9740293FA745E
:100B10000393FB22ECF0A3EDF0A3EEF0A3EFF022A1
:100B2000A8828583F0D083D082120B37120B371244
:100B30000B37120B37E473E493A3C583C5F0C58369
:100B4000C8C582C8F0A3C583C5F0C583C8C582C81F
:100B500022F8E0FBA3A3E0F925F0F0E5821582700E
:100B6000021583E0FA38F022EBF0A3EAF0A3E9F0F3
:100B700022D083D082F8E4937012740193700DA395
:100B8000A393F8740193F5828883E47374029368E5
:100B900060EFA3A3A380DF8A838982E473EF4E60B2
:100BA00012EF60010EEDBB010B89828A83F0A3DF97
:100BB000FCDEFA2289F05007F709DFFCA9F022BB1E
:100BC000FEFCF309DFFCA9F022E508249DF582E490
:100BD00034A4F583E005082290A49A30070390A47A
:100BE0009DE475F001120B510207F62000E97F2EFB
:100BF000D2008018EF540F2490D43440D4FF300436
:100C00000BEF24BFB41A0050032461FFE509600212
:100C10001509050CE50C7002050B30070E90A49A1F
:100C2000E475F001120B51EF02083C020026740338
:100C3000D2078003E4C207F50890A49A120B68E477
:100C4000F509F50BF50CE50960077F20120C0C8007
:100C5000F5750AFFC201C200C202C203C205C20684
:100C6000C208120BD8FF700D3007057F00120C1D53
:100C7000AF0CAE0B22B4255FC2D5C204120BD8FF55
:100C800024D0B40A00501A75F00A780930D5050846
:100C9000B6FF0106C6A426F620D5047002D2038052
:100CA000D924CFB41A00EF5004C2E5D204020F0FCA
:100CB000D20180C6D20080C0D20280BCD2D580BA18
:100CC000D20580B47F20120C0C2002077401B509F4
:100CD0000040F1120BC9FF120C0C020C46D208D2D4
:100CE000068095120BC9FB120BC9FA120BC9F94AFF
:100CF0004B7006790D7A107BFF20022EE509602AE1
:100D00007E008E8275830012080F60060EEE650A63
:100D100070F0C2D5EBC0E0EAC0E0E9C0E0EE120F2F
:100D200070D0E0F9D0E0FAD0E0FB1207F6FF60AA3D
:100D3000EBC0E0EAC0E0E9C0E0120C0CD0E0240116
:100D4000F9D0E03400FAD0E0FBE50A0460DCD50A13
:100D5000D98087D20280A2120F5260F7E50A700193
:100D600004120501A90A600DE50A600914F50A12CA
:100D70000FFAEF60F3EA30E702F404C3995079EA1E
:100D8000F4250A0430E701E404F50A800D120F523D
:100D900060C1EA050A250A120501EA90A4C9F030EB
:100DA000E701E4250A04D50A0420050114120F7096
:100DB000E4C0E0120FFA90A4C9E0601320E7071422
:100DC000F0120BF4802204F0D0E014C0E07F001297
:100DD0000BF4E50A6007120BEB150A800B300503D4
:100DE000120BEBD0E0020C46D0E00480C4120F528C
:100DF000609EE50A0412050190A4C9EAF0E50A2004
:100E000005026001042404120F7074FF04C0E01294
:100E10000FFA120BF4E50A2005026003120BEBD067
:100E2000E0B50AE87F45120BFE90A4C9E07F2B30A5
:100E3000E7047F2DF404C0E0120C0CD0E075F00A3A
:100E400084C0F0120BF5D0E0120BF5020C467910BD
:100E500080027908C206C2088008D2D5790A8004C7
:100E6000790AC2D5E50A047002F50AE4FAFDFEFF2C
:100E7000120BC9FC7B08200113120BC9FD7B10303B
:100E8000000A120BC9FE120BC9FF7B20EC3382D57E
:100E900092D55013C3E43000069FFFE49EFEE42089
:100EA00001039DFDE49CFCE4CBF8C201EC700CCF87
:100EB000CECDCCE824F8F870F38017C3EF33FFEE03
:100EC00033FEED33FDEC33FCEB33FB994002FB0FBB
:100ED000D8E9EB300105F8D0E0C448B201C0E00A1F
:100EE000EC4D4E4F78207B0070C2EAB50A0040BC42
:100EF000C0E0120F72D0F0D0E0200104C4C0E0C402
:100F0000B201C0F0120BF5D0F0D5F0EB020C461296
:100F10000B710CE3530E4E580CB44C0CB0420E52F5
:100F20004F0E5A440E5A490CC9430E60550D8D465A
:100F30000DED450D5747102D500CB82D0CBC2E0C47
:100F4000DF2B0CC0230CDD2010162A0C7848000083
:100F50000CD7E50AB4FF03750A06120BC9FC120B85
:100F6000C9FD120BC9FE120BC9FF90A4C202053EB7
:100F7000790AA2D5200314300509B910020404B976
:100F8000080104A2D5200602500104200268920242
:100F9000B509005034C0E07F203003197F30A20231
:100FA00072067205500F120FC9C202C206C205C2F4
:100FB000087F30800F300503E9C0E0120C0C3005CB
:100FC00003D0E0F9D0E0B509CC3005177F30B91077
:100FD0000C120C0C7F583004077F788003B908038B
:100FE000120C0C3002057F2D020C0C7F202008F81B
:100FF0007F2B2006F322920280CF7F00B40700509F
:101000000B24C2F582E434A4F583E0FF22286E7538
:101010006C6C2900D201120BC93001F8C2017809A9
:1010200030D50108F6020C782D50434958120BC9EF
:101030002403B405004001E490102893120BFD74C2
:101040003A120BFDD203750904020E4EE490A496E9
:10105000F0A3F0A3F0A3F0A3F0A3F0A3F0A3F0A3F8
:1010600004F0A37480F0A3748AF0E4A3F0A3F078F2
:10107000A37CA47D017BFF7A507966FE7F02120774
:10108000D0D3908083E09402908082E094007F002F
:1010900040027F0190A49CEFF090A49CE0700302BA
:1010A00013F190A49E7401F0A37480F0A3748AF0ED
:1010B00090A49EE0FBA3E0FAA3E0F91207F6645ABD
:1010C000603A908082E0FEA3E0248AF974803EFAC0
:1010D0007B01C003C002C00190A49EA3E0FAA3E07C
:1010E000F9C3D082D083D0E0E99582EA9583500C91
:1010F00090A49FE475F00112090D80B4908082E005
:10110000FEA3E0248AF974803EFA7B01C003C0028A
:10111000C00190A49EE0FBA3E0FAA3E0F9D082D046
:1011200083D0E06B7008E965827003EA658370071D
:10113000908082F0A3F02290A49EA3E0FAA3E0C3E3
:10114000948AFFEA9480FEC3908083E09FFF9080A2
:1011500082E09E90A49AF0A3EFF090A4A1E024FE78
:101160006055240260030212337E007FFF7D007B06
:10117000017AA1792A120B9DE490A4A2F090A49D7B
:10118000F090A496F0A3F0A3F0A3F090A498E0FE52
:10119000A3E0FFC39403EE9400501C74A32FF582C8
:1011A00074A43EF583E4F090A499E004F070DC9020
:1011B000A498E004F080D490A4A87401F0A374A1D2
:1011C000F0A3742AF0A37401F0A374A4F0A374969E
:1011D000F090A49AE0FFA3E090A4AECFF0A3EFF0CC
:1011E00090A49EE0FBA3E0FAA3E0F912373690A4A6
:1011F000A2EFF0A3F06401703A90A496E0FCA3E0A3
:10120000FD90A4AA7401F0A374A2F0A37429F07B4A
:10121000017AA1792A124D77EF70030212D11240A0
:101220004C7E017F007D007B017AA27929120B9D03
:101230000212D190A4A3E0640360030212D190A42F
:101240009F804490A49EE0FBA3E0FAA3E0F912077C
:10125000F6645A603A908082E0FEA3E0248AF97432
:10126000803EFA7B01C003C002C00190A49EA3E0AF
:10127000FAA3E0F9C3D082D083D0E0E99582EA9561
:1012800083500C90A49FE475F00112090D80B49076
:101290008082E0FEA3E0248AF974803EFA7B01C0DC
:1012A00003C002C00190A49EE0FBA3E0FAA3E0F912
:1012B000D082D083D0E06B7008E965827003EA6564
:1012C000837008908082F0A3F0800690A49D740142
:1012D000F090A4A2E06401600990A49DE070030274
:1012E00013E990A49EA3E0FAA3E0C3948AFFEA94D2
:1012F00080FEC3908083E09FFF908082E09EFE90FE
:10130000A496E0FCA3E0FDC3EF9DFFEE9CFE90A43D
:101310009AF0A3EFF0D39400EE94004068E490A418
:1013200098F0A3F090A49AE0FEA3E0FF90A498E0C8
:10133000FCA3E0FDC39FEC9E504390A49EE0FBA362
:10134000E0FAA3E0F990A496E0FEA3E0FFE92FF90C
:10135000EA3EFAE92DF9EA3CFA1207F6FF748A2D03
:10136000F58274803CF583EFF0E412083C90A49978
:10137000E004F070AF90A498E004F080A790A49CE3
:101380007401F08052E490A498F0A3F090A49EA37E
:10139000E0FAA3E0C3948AFFEA9480FE90A497E069
:1013A0002FFF90A496E03EFE90A498E0FCA3E0FD01
:1013B000C39FEC9E501C748A2DF58274803CF5838B
:1013C000E4F090A499E004F070C290A498E004F0D6
:1013D00080BAE490A49CF090A49AE0FFA3E09080EF
:1013E00082CFF0A3EFF0021099E490A49CF00210D9
:1013F000992278BA7CA47D017BFF7A5079BF7E0068
:101400007F0C1207D07B017AA479AE90A4E6E4F0B9
:10141000A37404F07F107E131226EF7B017AA47967
:10142000B290A4E6E4F0A37404F07F507E14122678
:10143000EF7B017AA479B690A4E6E4F0A37404F0FB
:101440007F207E131226EF7B027A007D207C137FA3
:10145000007E43123EFC7B027A007D507C147F00AC
:101460007E44123EFC7B027A007D107C137F007E5E
:1014700041123EFC90A4AFE0FFE4FCFDFE781012A8
:101480000AD5C004C005C006C00790A4AEE0FFE4C2
:10149000FCFDFE7818120AD5D003D002D001D0008E
:1014A000EF4BFFEE4AFEED49FDEC48FCC004C005E1
:1014B000C006C00790A4B0E0FFE4FCFDFE7808126F
:1014C0000AD5D003D002D001D000EF4BFBEE4AFA90
:1014D000ED49F9EC48F8A3E0FFEB4FFFEAFEE9FD28
:1014E000E8FC90A4C6120B1490A4B3E0FFE4FCFD4A
:1014F000FE7810120AD5C004C005C006C00790A42B
:10150000B2E0FFE4FCFDFE7818120AD5D003D00249
:10151000D001D000EF4BFFEE4AFEED49FDEC48FC58
:10152000C004C005C006C00790A4B4E0FFE4FCFD01
:10153000FE7808120AD5D003D002D001D000EF4BBC
:10154000FBEE4AFAED49F9EC48F8A3E0FFEB4FFF58
:10155000EAFEE9FDE8FC90A4CE120B1490A4B7E0DB
:10156000FFE4FCFDFE7810120AD5C004C005C006D9
:10157000C00790A4B6E0FFE4FCFDFE7818120AD57F
:10158000D003D002D001D000EF4BFFEE4AFEED4970
:10159000FDEC48FCC004C005C006C00790A4B8E03C
:1015A000FFE4FCFDFE7808120AD5D003D002D0017A
:1015B000D000EF4BFBEE4AFAED49F9EC48F8A3E016
:1015C000FFEB4FFFEAFEE9FDE8FC90A4CA120B1402
:1015D000E47B107A27F9F890A4C6E0FCA3E0FDA311
:1015E000E0FEA3E0FF120A24E47BE87A03F9F81294
:1015F0000A2490A57DEBF0E47B64FAF9F890A4C688
:10160000E0FCA3E0FDA3E0FEA3E0FF120A24E47BDC
:1016100064FAF9F8120A2490A57EEBF0E47B64FAF0
:10162000F9F890A4C6E0FCA3E0FDA3E0FEA3E0FF70
:10163000120A2490A57FEBF0E47B107A27F9F8904A
:10164000A4CEE0FCA3E0FDA3E0FEA3E0FF120A2489
:10165000E47BE87A03F9F8120A2490A581EBF0E420
:101660007B64FAF9F890A4CEE0FCA3E0FDA3E0FED1
:10167000A3E0FF120A24E47B64FAF9F8120A24902A
:10168000A582EBF0E47B64FAF9F890A4CEE0FCA329
:10169000E0FDA3E0FEA3E0FF120A2490A583EBF097
:1016A000E47B107A27F9F890A4CAE0FCA3E0FDA33C
:1016B000E0FEA3E0FF120A24E47BE87A03F9F812C3
:1016C0000A2490A585EBF0E47B64FAF9F890A4CAAB
:1016D000E0FCA3E0FDA3E0FEA3E0FF120A24E47B0C
:1016E00064FAF9F8120A2490A586EBF0E47B64FA18
:1016F000F9F890A4CAE0FCA3E0FDA3E0FEA3E0FF9C
:10170000120A2490A587EBF07B017AA5797C90A43E
:10171000D7E4F0A37406F07F007E40023B6F418067
:10172000800042808200004180810042808400006D
:101730004280860000428088000044A5AA00000084
:101740000044A4350000000041A434006100A22937
:101750000000000000000000000000000000000089
:101760000000000000000000000000000000000079
:101770000000000000000000000000000000000069
:101780000000000000000000000000000000000059
:101790000000000000000000000000000000000049
:1017A0000000000000000000000000000000000039
:1017B0000000000000000000000000000000000029
:1017C0000000000000000000000000000000000019
:1017D0000000000000000000000000000000000009
:1017E00000000000000000000000000000000000F9
:1017F00000000000000000000000000000000000E9
:1018000000000000000000000000000000000000D8
:1018100000000000000000000000000000000000C8
:1018200000000000000000000000000000000000B8
:1018300000000000000000000000000000000000A8
:101840000000000000000000000000000000000098
:1018500060FFA33500000000000000000000000051
:101860000000000000000000000000000000000078
:101870000000000000000000000000000000000068
:101880000000000000000000000000000000000058
:101890000000000000000000000000000000000048
:1018A0000000000000000000000000000000000038
:1018B0000000000000000000000000000000000028
:1018C0000000000000000000000000000000000018
:1018D0000000000000000000000000000000000008
:1018E00000000000000000000000000000000000F8
:1018F00000000000000000000000000000000000E8
:1019000000000000000000000000000000000000D7
:1019100000000000000000000000000000000000C7
:1019200000000000000000000000000000000000B7
:1019300000000000000000000000000000000000A7
:101940000000000000000000000000000000000097
:1019500000000042A58F000041A58E0142A5885AD3
:10196000A542A523000041A5140142A52100004184
:10197000A51F0041A4EC0041A4ED0042A4EE00002C
:1019800042A4F0B00542A4F2550541A5200042A5AD
:10199000BD0000C10941A54C0144A548000000005C
:1019A00042A44D000044A48E0000000044A44F3E19
:1019B000E9518344A46840490E5644A43D3D32D5C4
:1019C000D044A4533ECD37BE44A45D000000004483
:1019D000A48A0000000044A4720000000044A49205
:1019E0000000000044A46E0000000042A488000033
:1019F00044A4610000000044A4410000000044A48D
:101A0000590000000044A4390000000042A47800FE
:101A10000042A47A000042A457000042A46C0001D6
:101A200042A46600B041A4760B41A4770544A551B9
:101A30000000000048A5550000000100020003441A
:101A4000A54D000000000090A536E0FEA3E0FF9049
:101A5000A44EE0FD1222467B017AA4796E90A4E6A2
:101A6000E4F0A37404F07F007E261224A290A53631
:101A7000E0FCA3E0FDE412041CE4FBFA797A78446C
:101A800012030190A48E120B1490A44EE064016026
:101A900003021B7A90A536E0FCA3E0FDE412041CCF
:101AA000E4FBFA797A784412030190A453E0F8A396
:101AB000E0F9A3E0FAA3E0FB12010790A45D120B8A
:101AC00014E4FFFEFD7C4090A44FE0F8A3E0F9A3EE
:101AD000E0FAA3E0FB1201F890A45DE0F8A3E0F9BE
:101AE000A3E0FAA3E0FB1201F890A472120B149089
:101AF000A44FE0FCA3E0FDA3E0FEA3E0FF90A45D03
:101B0000E0F8A3E0F9A3E0FAA3E0FB1201F8C004B7
:101B1000C005C006C00790A4A8120B20400000001A
:101B2000D007D006D005D004122CF490A468E0F8B9
:101B3000A3E0F9A3E0FAA3E0FB1201F890A48A1253
:101B40000B1490A45DE0FCA3E0FDA3E0FEA3E0FF86
:101B500090A48AE0F8A3E0F9A3E0FAA3E0FB120165
:101B6000F8E4FBFA7940784012030190A492120B3A
:101B7000147B017AA47992021CFB90A44EE06402CB
:101B80006003021C3C90A536E0FCA3E0FDE41204D7
:101B90001CE4FBFA797A784412030190A453E0F82C
:101BA000A3E0F9A3E0FAA3E0FB12010790A45D1201
:101BB0000B14E4FFFEFD7C4090A43DE0F8A3E0F9A7
:101BC000A3E0FAA3E0FB1201F890A45DE0F8A3E023
:101BD000F9A3E0FAA3E0FB1201F890A472120B142F
:101BE00090A43DE0FCA3E0FDA3E0FEA3E0FF90A4F1
:101BF0005DE0F8A3E0F9A3E0FAA3E0FB1201F8C06E
:101C000004C005C006C00790A4A8120B2040000025
:101C100000D007D006D005D004122CF490A468E0C0
:101C2000F8A3E0F9A3E0FAA3E0FB1201F890A48A7C
:101C3000120B147B017AA4798A021CFB90A44EE05B
:101C400064036003021D0B90A536E0FCA3E0FDE4F5
:101C500012041CE4FBFA797A784412030190A4532D
:101C6000E0F8A3E0F9A3E0FAA3E0FB12010790A4D7
:101C70005D120B14E4FFFEFD7C4090A44FE0F8A33E
:101C8000E0F9A3E0FAA3E0FB1201F890A45DE0F80C
:101C9000A3E0F9A3E0FAA3E0FB1201F890A472120A
:101CA0000B1490A44FE0FCA3E0FDA3E0FEA3E0FF33
:101CB00090A45DE0F8A3E0F9A3E0FAA3E0FB120131
:101CC000F8C004C005C006C00790A4A8120B2040AD
:101CD000000000D007D006D005D004122CF490A448
:101CE00068E0F8A3E0F9A3E0FAA3E0FB1201F890A2
:101CF000A48A120B147B017AA4798A90A4E6E4F0FA
:101D0000A37404F07F507E281224A27B017AA47968
:101D10008E90A4E6E4F0A37404F07F007E251224E4
:101D2000A27B017AA4797290A4E6E4F0A37404F093
:101D30007F407E280224A278B67CA47D017BFF7AB6
:101D400050798E7E007F061207D07B017AA479AE8F
:101D500090A4E6E4F0A37404F07F007E131226EF53
:101D60007B017AA479B290A4E6E4F0A37404F07F36
:101D7000057E131226EF90A4AFE0FFE4FCFDFE7891
:101D800010120AD5C004C005C006C00790A4AEE07A
:101D9000FFE4FCFDFE7818120AD5D003D002D00172
:101DA000D000EF4BFFEE4AFEED49FDEC48FCC004CD
:101DB000C005C006C00790A4B0E0FFE4FCFDFE78BB
:101DC00008120AD5D003D002D001D000EF4BFBEEB1
:101DD0004AFAED49F9EC48F8A3E0FFEB4FFFEAFEC1
:101DE000E9FDE8FC90A4BC120B1490A4B3E0FFE45E
:101DF000FCFDFE7810120AD5C004C005C006C0075D
:101E000090A4B2E0FFE4FCFDFE7818120AD5D003DE
:101E1000D002D001D000EF4BFFEE4AFEED49FDECC1
:101E200048FCC004C005C006C00790A4B4E0FFE4AD
:101E3000FCFDFE7808120AD5D003D002D001D000F4
:101E4000EF4BFBEE4AFAED49F9EC48F8A3E0FFEB63
:101E50004FFFEAFEE9FDE8FC90A58A120B14E47B33
:101E600064FAF9F890A58AE0FCA3E0FDA3E0FEA3E4
:101E7000E0FF120A2490A4BBEBF0E47B64FAF9F8CB
:101E800090A58AE0FCA3E0FDA3E0FEA3E0FF120A18
:101E900024E47B64FAF9F8120A2490A4BAEBF0E483
:101EA0007B107A27F9F890A58AE0FCA3E0FDA3E077
:101EB000FEA3E0FF120A24E47B64FAF9F8120A2474
:101EC00090A4B9EBF0E47B64FAF9F890A4BCE0FCD0
:101ED000A3E0FDA3E0FEA3E0FF120A2490A4B8EB68
:101EE000F0E47B64FAF9F890A4BCE0FCA3E0FDA365
:101EF000E0FEA3E0FF120A24E47B64FAF9F8120A78
:101F00002490A4B7EBF0E47B107A27F9F890A4BCF6
:101F1000E0FCA3E0FDA3E0FEA3E0FF120A24E47BC3
:101F200064FAF9F8120A2490A4B6EBF0A3E0FFD308
:101F3000940074809480406ED3EF940C74809480ED
:101F40005064A3E0FF941F748094805054EF940079
:101F500074809480404BA3E0D39417748094805095
:101F600039C3748094804032A3E0D3943B7480944E
:101F7000805020C3748094804019A3E0D3943B74B4
:101F80008094805007C3748094805020E490A4BB58
:101F9000F08019E490A4BAF08012E490A4B9F08023
:101FA0000B90A4B8800390A4B77401F07B017AA4CD
:101FB00079B690A4E6E4F0A37406F07F9D7E00124B
:101FC00024A27B017AA5798890A4E6E4F0A37402A8
:101FD000F07F9C7E001224A2022B4490A496EBF08A
:101FE000A3EAF0A3E9F090A441E0FCA3E0FDA3E0A4
:101FF000FEA3E0FFEC4D4E4F700302224590A4413A
:10200000120B200000000090A461E0F8A3E0F9A307
:10201000E0FAA3E0FBC000C001C002C0037B007A6D
:1020200040791C784690A46EE0FCA3E0FDA3E0FE9E
:10203000A3E0FF120301D003D002D001D0001201AF
:102040000790A461120B1490A439E0FCA3E0FDA357
:10205000E0FEA3E02401FFE43EFEE43DFDE43CFCA1
:1020600090A439120B14E47F0AFEFDFC90A439E021
:10207000F8A3E0F9A3E0FAA3E0FBC3120AC44029E5
:1020800090A439120B200000000090A459E0FCA39A
:10209000E0FDA3E0FEA3E02401FFE43EFEE43DFDFD
:1020A000E43CFC90A459120B1490A536E0FEA3E08A
:1020B000FF90A496A3E0FAA3E0F5828A83120B9B1B
:1020C00090A551E0FCA3E0FDA3E0FEA3E0FF120415
:1020D00055AB07AA067C007D3C12088290A49BEEBB
:1020E000F0A3EFF07C007D3CAF03AE0212088290BB
:1020F000A499ECF0A3EDF07B017AA4799B90A4E67F
:10210000E4F0A37402F07F007E281224A27B017AFF
:10211000A4799990A4E6E4F0A37402F07F057E28E8
:102120001224A290A459E0FCA3E0FDA3E0FEA3E0EA
:10213000FFE412041790A551E0F8A3E0F9A3E0FA38
:10214000A3E0FB120107120455AB07AA067C007D31
:102150003C12088290A49BEEF0A3EFF07C007D3C43
:10216000AF03AE0212088290A499ECF0A3EDF07BCD
:10217000017AA4799990A4E6E4F0A37402F07F2593
:102180007E281224A27B017AA4799B90A4E6E4F035
:10219000A37402F07F207E281224A27B017AA47906
:1021A0006190A4E6E4F0A37404F07F007E2712247B
:1021B000A2E4FFFE7D7A7C4490A461E0F8A3E0F9FC
:1021C000A3E0FAA3E0FB1201F890A54DE0F8A3E02C
:1021D000F9A3E0FAA3E0FB12039E501EE4FBFA7998
:1021E0007A784490A54DE0FCA3E0FDA3E0FEA3E0D7
:1021F000FF12030190A461120B147F007E507DC377
:102200007C4790A461E0F8A3E0F9A3E0FAA3E0FB27
:102210001201F890A54DE0F8A3E0F9A3E0FAA3E0DD
:10222000FB12030112045590A488EEF0A3EFF07B9B
:10223000017AA4798890A4E6E4F0A37402F07F30D8
:102240007E281224A22290A496EDF0AB07AA06E401
:10225000A3F0A3120B200000000090A4A0120B20FA
:1022600000000000AE02AF037C007D0A120882ACC1
:1022700006AD07E412041C90A49C120B14E4FFFEAC
:102280007D207C4190A49CE0F8A3E0F9A3E0FAA3B0
:10229000E0FB12039E60025023E4FFFE7DA07C4021
:1022A00090A49CE0F8A3E0F9A3E0FAA3E0FB1203FA
:1022B0009E400990A4977401F0022383E4FFFE7D01
:1022C000A07C4190A49CE0F8A3E0F9A3E0FAA3E08D
:1022D000FB12039E60025025E4FFFE7D207C4190AE
:1022E000A49CE0F8A3E0F9A3E0FAA3E0FB12039EAC
:1022F000600B400990A4977402F0022383E4FFFE70
:102300007DC87C4290A49CE0F8A3E0F9A3E0FAA386
:10231000E0FB12039E60025024E4FFFE7DA07C419E
:1023200090A49CE0F8A3E0F9A3E0FAA3E0FB120379
:102330009E600A400890A4977403F08046E4FFFE74
:102340007D967C4390A49CE0F8A3E0F9A3E0FAA377
:10235000E0FB12039E60025024E4FFFE7DC87C4235
:1023600090A49CE0F8A3E0F9A3E0FAA3E0FB120339
:102370009E600A400890A4977404F0800690A49789
:102380007405F090A497E024FE603914605F147027
:10239000030224182403600302246E90A4A8120BE5
:1023A00020BFCCCCCD90A49CE0FCA3E0FDA3E0FE3C
:1023B000A3E0FF122CF490A4A0120B147FDC7EAFDC
:1023C0007D0E805090A4A8120B20BFECCCCD90A421
:1023D0009CE0FCA3E0FDA3E0FEA3E0FF122CF49040
:1023E000A4A0120B147FB87E287D80802790A4A81B
:1023F000120B20BFE7AE1490A49CE0FCA3E0FDA369
:10240000E0FEA3E0FF122CF490A4A0120B147F4076
:102410007E167D617C47802990A4A8120B20C00005
:10242000000090A49CE0FCA3E0FDA3E0FEA3E0FF7D
:10243000122CF490A4A0120B147F047EF67D077C6E
:102440004890A4A0E0F8A3E0F9A3E0FAA3E0FB120F
:1024500001F890A498120B1490A498E0FCA3E0FD5E
:10246000A3E0FEA3E0FF90A46E120B14800690A4DC
:1024700097740AF090A496E0FF64016005EF64038E
:10248000701F90A46EE0FCA3E0FDA3E0FEA3E0FFBC
:102490007B9A7A997919783F1201F890A46E120B01
:1024A000142290A4E3EBF0A3EAF0A3E9F0AD07ACAB
:1024B0000690A4E3E0FBA3E0FAA3E04A4B7003021A
:1024C00026EEA3E0FEA3E0FF4E70030226EEEEC36D
:1024D00013FEEF132DFFEE3CFED3EF94FEEE94FFC0
:1024E00040030226EEC2AFED5401FBECC313FCED3A
:1024F00013FDAE047810CEC313CE13D8F9F5F1EC6A
:10250000F5F2AF058FF3E4F5F875F401D2FF30FC76
:10251000FDC2FDEB6401707C90A4E6E0FEA3E0FF49
:1025200064014E700AC2FBC2FAD2F9C2F88008C236
:10253000FBC2FAD2F9D2F8EF64014E90A4E3701A0C
:10254000E0FBA3E475F001120923A9F0FA1207F6E3
:10255000F5FC90A4E7E024FF802DE0FBA3E475F0F8
:1025600001120923A9F0FA1207F6F5FC90A4E3E0A2
:10257000FBA3E475F001120923A9F0FA1207F6F59E
:10258000FD90A4E7E024FEF090A4E6E034FFF0D252
:10259000FE20FEFD90A4E6E0FEA3E0FF4E700302E5
:1025A00026E9C3EF9404EE94004003022677EE7010
:1025B00022EF14601614600D147018D2FBD2FAD2F8
:1025C000F9C2F8800ED2FBD2FA8004D2FBC2FAC262
:1025D000F9C2F890A4E6E0FEA3E0FFEE6003022655
:1025E00070EF14607614604714600302267090A4A4
:1025F000E3E0FBA3E475F001120923A9F0FA120746
:10260000F6F5FA90A4E3E0FBA3E475F001120923C8
:10261000A9F0FA1207F6F5FB90A4E3E0FBA3E4753A
:10262000F001120923A9F0FA1207F6F5FC80419097
:10263000A4E3E0FBA3E475F001120923A9F0FA1268
:1026400007F6F5FA90A4E3E0FBA3E475F0011209A4
:1026500023A9F0FA1207F6F5FB801590A4E3E0FB3E
:10266000A3E475F001120923A9F0FA1207F6F5FAAE
:10267000D2FE30FE7480FBD2FBD2FAD2F9D2F890AF
:10268000A4E3E0FBA3E475F001120923A9F0FA1218
:1026900007F6F5FA90A4E3E0FBA3E475F001120954
:1026A00023A9F0FA1207F6F5FB90A4E3E0FBA3E4FC
:1026B00075F001120923A9F0FA1207F6F5FC90A4AF
:1026C000E3E0FBA3E475F001120923A9F0FA120775
:1026D000F6F5FDD2FE20FEFD90A4E7E024FCF0908C
:1026E000A4E6E034FFF0022594E4F5F8D2AF22909E
:1026F000A4E3EBF0A3EAF0A3E9F0AD07AC0690A4E5
:10270000E3E0FBA3E0FAA3E04A4B7003022936A3FF
:10271000E0FEA3E0FF4E7003022936EEC313FEEF86
:10272000132DFFEE3CFED3EF94FEEE94FF40030228
:102730002936C2AFED5401FBECC313FCED13FDAE23
:10274000047810CEC313CE13D8F9F5F1ECF5F2AF3F
:10275000058FF3E4F5F875F401D2FF30FCFDD2FDEE
:10276000EB6401707D90A4E6E07004A3E064017066
:102770000AC2FBC2FAD2F9C2F88008C2FBC2FAD27E
:10278000F9D2F8D2FE20FEFD90A4E6E07004A3E0AA
:10279000640190A4E3701BE0FBA3E475F00112094F
:1027A00023A9F0FAE5FC12083C90A4E7E024FF021C
:1027B0002926E0FBA3E475F001120923A9F0FAE54C
:1027C000FC12083C90A4E3E0FBA3E475F0011209BD
:1027D00023A9F0FAE5FD12083C90A4E7E024FE02EC
:1027E000292690A4E6E0FEA3E0FF4E700302293103
:1027F000C3EF9404EE940040030228BFEE7022EF72
:1028000014601614600D147018D2FBD2FAD2F9C2FB
:10281000F8800ED2FBD2FA8004D2FBC2FAC2F9C20F
:10282000F8D2FE20FEFD90A4E6E0FEA3E0FFEE60FD
:1028300003022931EF14607014604414600302290C
:102840003190A4E3E0FBA3E475F001120923A9F0A1
:10285000FAE5FA12083C90A4E3E0FBA3E475F0016A
:10286000120923A9F0FAE5FB12083C90A4E3E0FB6F
:10287000A3E475F001120923A9F0FAE5FC803B906E
:10288000A4E3E0FBA3E475F001120923A9F0FAE543
:10289000FA12083C90A4E3E0FBA3E475F0011209EE
:1028A00023A9F0FAE5FB801290A4E3E0FBA3E47512
:1028B000F001120923A9F0FAE5FA12083C8072D25D
:1028C000FBD2FAD2F9D2F8D2FE20FEFD90A4E3E0CA
:1028D000FBA3E475F001120923A9F0FAE5FA120846
:1028E0003C90A4E3E0FBA3E475F001120923A9F0F6
:1028F000FAE5FB12083C90A4E3E0FBA3E475F001C9
:10290000120923A9F0FAE5FC12083C90A4E3E0FBCD
:10291000A3E475F001120923A9F0FAE5FD12083CC1
:1029200090A4E7E024FCF090A4E6E034FFF0022756
:10293000E2E4F5F8D2AF2290A4EDE004F0E490A533
:1029400021F0A3F090A51FE07010E004F090A4EE39
:10295000E4F0A3740AF07E00FF2290A4EEE0FEA350
:10296000E0FFC3744E9FFD74029EFCE412041C90B1
:10297000A551E0F8A3E0F9A3E0FAA3E0FB12039E5F
:10298000407D90A4EEE0FEA3E0FF744E9FFD740234
:102990009EFCE412041CA804A905AA06AB0790A596
:1029A00051E0FCA3E0FDA3E0FEA3E0FF120301E47D
:1029B000FBFA7980783F12010712045590A4ECEFDE
:1029C000F0A3E0C39F5003022B2EE4F090A51FE07C
:1029D00004F090A4EFE02402F090A4EEE03400F0C4
:1029E000E0FEA3E0FFD3945AEE94014003022B20B3
:1029F000C3EF94D2EE94014003022B25022B2090CA
:102A0000A4EEE0FEA3E0FFC3744E9FFD74029EFCA3
:102A1000E412041C90A551E0F8A3E0F9A3E0FAA3A6
:102A2000E0FB12039E6002506E90A4EEE0FEA3E075
:102A3000FFC3744E9FFF74029EC313FCEF13FDE4AB
:102A400012041C90A551E0F8A3E0F9A3E0FAA3E07A
:102A5000FB12039E404190A4EC7402F0A3E09402A8
:102A60005003022B2EE4F090A51FE004F090A4EF99
:102A7000E02402F090A4EEE03400F0E0FEA3E0FFDA
:102A8000D3945AEE94015009C3EF94D2EE940150BE
:102A900003022B20022B2590A4EEE0FEA3E0FFC34F
:102AA000744E9FFF74029EC313FCEF13FDE41204E7
:102AB0001C90A551E0F8A3E0F9A3E0FAA3E0FB1213
:102AC000039E6002506890A4EEE0FEA3E0FFC37492
:102AD0004E9FFD74029EFCE412041C90A551E0F888
:102AE000A3E0F9A3E0FAA3E0FB120301120455905E
:102AF000A4ECEFF0E4A3F090A51FE004F090A4EFA5
:102B0000E02FF090A4EEE03400F0E0FEA3E0FFD36D
:102B1000945AEE94015009C3EF94D2EE94015005FB
:102B20007EFF7FFE2290A4EEE0FEA3E0FF2290A5B0
:102B30001FE0D394227480948140057EFF7FFF22A2
:102B4000E4FEFF2278C27CA47D017BFF7A50799C51
:102B50007E007F021207D07B017AA479C090A4E6A0
:102B6000E4F0A37402F07F9C7E001226EF90A4C0D4
:102B7000E0645A7004A3E064A56003022CF390A4FF
:102B8000C4F0A3F0D20078C67CA47D017BFF7A500C
:102B9000799EFE7F071207D07B017AA479CD90A49D
:102BA000E6E4F0A37402F07F9D7E001226EF90A46D
:102BB000CDE0FCA3E0FDEC90A4C4F0E0FF75F00ACA
:102BC00084C454F0FEEF75F00A84EE25F090A4C69C
:102BD000F090A4C4EDF0E0FF75F00A84C454F0FE58
:102BE000EF75F00A84EE25F090A4C7F07B017AA47B
:102BF00079CD90A4E6E4F0A37402F07F9E7E0012EB
:102C000026EF90A4CDE0FCA3E0FDEC90A4C4F0E09E
:102C1000FF75F00A84C454F0FEEF75F00A84EE25C7
:102C2000F090A4C8F090A4C4EDF0E0FF75F00A8421
:102C3000C454F0FEEF75F00A84EE25F090A4CAF0BB
:102C40007B017AA479CD90A4E6E4F0A37402F07F2E
:102C50009F7E001226EF90A4CDE0FCA3E0FDEC9057
:102C6000A4C4F0E0FF75F00A84C454F0FEEF75F0E0
:102C70000A84EE25F090A4CBF090A4C4EDF0E0FF20
:102C800075F00A84C454F0FEEF75F00A84EE25F066
:102C900090A4CCF07B017AA479C290A4E6E4F0A3DE
:102CA00004F07F9C7E001224A230004712454A7F28
:102CB0001012458890A4CCE0FF12458890A4CBE088
:102CC000FF12458890A4CAE0FF12458890A4C9E08D
:102CD000FF12458890A4C8E0FF12458890A4C7E081
:102CE000FF12458890A4C6E0FF12457D124E11C226
:102CF0000080B62290A4A4120B14E4FFFE7D807C19
:102D00003F90A4A4E0F8A3E0F9A3E0FAA3E0FB124B
:102D1000039E700690A4A4022E4E90A4A4E0FCA3EF
:102D2000E0FDA3E0FEA3E0FF1204D6FBA3E0FCA3BA
:102D3000E0FDA3E0FEA3E0FF1204D6FFB40108E427
:102D4000FFFE7D807C3F22EF64046029EB64046019
:102D500024EBB40130E4FFFEFDFC90A4A8E0F8A34E
:102D6000E0F9A3E0FAA3E0FB12039E60084006E44A
:102D7000FFFEFDFC2290A4A8120B20FFFFFFFF9096
:102D8000A4A8022E4EE490A4ACF0A3F0FFFEFDFC3C
:102D900090A4A4E0F8A3E0F9A3E0FAA3E0FB1203F7
:102DA0009E505F90A4A8E0FCA3E0FDA3E0FEA3E09A
:102DB000FF12045590A4ACEEF0A3EFF0FDCCEECCE6
:102DC000EC12041CC8ECC8C9EDC9CAEECACBEFCBE3
:102DD00090A4A8E0FCA3E0FDA3E0FEA3E0FF1201A5
:102DE00003E4FBFAF9F812039E708A90A4A4E0FCB5
:102DF000A3E0FDA3E0FEA3E0FF1204F090A4A41260
:102E00000B1490A4A4E0FCA3E0FDA3E0FEA3E0FF6C
:102E100012326A90A4A8E0F8A3E0F9A3E0FAA3E0D4
:102E2000FB1201F81241C990A4A8120B1490A4AD92
:102E3000E030E01790A4A8E0FCA3E0FDA3E0FEA32F
:102E4000E0FF1204F090A4A8120B1490A4A8E0FCD8
:102E5000A3E0FDA3E0FEA3E0FF2290A4A1EBF0908D
:102E6000A4A0EDF0EF24D0FEE4340790A4A3F0A3D7
:102E7000CEF0EDFF64016005EF6402701590A4A030
:102E8000E0240CF090A4A4E024FFF090A4A3E0348C
:102E9000FFF090A4A3E0FEA3E0FFC394D8EE940655
:102EA0004034BE0610BFD80D90A4A0E0C3940974AE
:102EB000809480402190A4A3E064067004A3E064A1
:102EC000D8706590A4A0E06409705DA3E0C394038A
:102ED00074809480505290A4A0E0FB2401FFE4335E
:102EE000FE7C007D031208707D051208D7AD07EB4C
:102EF00075F002A4FFA3E07A002FFFEA35F0CF2D92
:102F0000CF3EFE90A4A3E0FCA3E0FD2FFBEC3EFA35
:102F1000AE04ED7802CEC313CE13D8F92BFFEA3EF0
:102F2000CF2406CF3400807C90A4A0E02401FFE4ED
:102F300033FE7C007D031208707D051208D7AC06B5
:102F4000AD07A3E02401FBE433FA90A4A0E075F000
:102F500002A42BFFE5F03ACF2DCF3CFE90A4A3E0D6
:102F6000FCA3E0FD2FFBEC3EFAAE04ED7802CEC3ED
:102F700013CE13D8F92BFBEA3EFA90A4A3E0FEA3EC
:102F8000E0FF7C007D64120882C3EB9FFBEA9EFA9F
:102F900090A4A3E0FEA3E0FF7C017D90120882EFE5
:102FA0002BFFEE3AFE7C007D0712088290A4A2ED72
:102FB000F090A4A2E0FF2290A54CE0FF7E00124D0D
:102FC0001C90A496EEF0A3EFF090A54CE024FD60D9
:102FD0005C24FE700302307B240460030231029003
:102FE000A54C7403F090A496E0FCA3E0FDE4120469
:102FF0001C7BDD7AD4790D78411201F8E4FBFA7973
:103000007A78441203017B5C7A8F7982783F1201CF
:10301000F890A540120B147B017AA5794090A4E6A4
:10302000E4F0A37404F07F007E450230FF90A54CCD
:103030007405F090A496E0FCA3E0FDE412041C7B70
:10304000E57A4C79CE783F1201F8E4FBFA797A7888
:10305000441203017BAE7A477981783F1201F890E0
:10306000A53C120B147B017AA5793C90A4E6E4F010
:10307000A37404F07F007E440230FF90A54C7401DD
:10308000F090A496E0FCA3E0FDE412041C7BDD7A42
:10309000D4790D78411201F8E4FBFA797A78441278
:1030A00003017B5C7A8F7982783F1201F890A53812
:1030B000120B1490A538E0F8A3E0F9A3E0FAA3E01E
:1030C000FB90A540E0FCA3E0FDA3E0FEA3E0FF121F
:1030D0000103E4FBFAF9783F1203017B5C7A8F79F4
:1030E00082783F1201F890A544120B147B017AA557
:1030F000794490A4E6E4F0A37404F07F007E4312C8
:1031000024A22278987CA47D017BFF7A5079947E5A
:10311000007F081207D0124583124E1B124F2E7FDC
:10312000651245887C06ECD3940074809480401529
:10313000124D4A74982CF582E434A4F583EFF01212
:1031400000161C80E1124D4A90A498EFF0124FBE79
:10315000124E20E4FCECC3940374809480503074CD
:10316000982CF582E434A4F583E0FFC4540FFE905C
:10317000A496F0EF540FFFA3F0EE75F00AA42FFF12
:1031800074982CF582E434A4F583EFF00C80C67CAF
:1031900004ECC3940774809480503074982CF582AA
:1031A000E434A4F583E0FFC4540FFE90A496F0EF3E
:1031B000540FFFA3F0EE75F00AA42FFF74982CF5BE
:1031C00082E434A4F583EFF00C80C690A498E0FF6D
:1031D000A3E0FDA3E0FB122E5A90A49BEFF07B012D
:1031E0007AA4799890A4E6E4F0A37402F07F107EAC
:1031F000001224A27B017AA4799A90A4E6E4F0A3B9
:103200007402F07F117E001224A27B017AA4799CC3
:1032100090A4E6E4F0A37402F07F127E001224A2D0
:103220007B017AA4799E90A4E6E4F0A37402F07F77
:10323000137E000224A23E9248DA3ECCCCCD3F2A37
:10324000AAAB400000003F8000003F9837F03FB538
:1032500004F33FD744FC3E3172173EB172173F056D
:1032600015913EDE5BD9D2008002C200EDD2E7F8B4
:10327000CD33EC3304700BBD800592D50204CB0234
:1032800004C140FBD31460F2F5F07C3FEE7A00C33A
:103290009496C8948B40230AC89469C8941A401A1B
:1032A0000AC89468C8941F40110AC8945AC8942543
:1032B000400805F07A00CDC2E7CDC0F090A4AE1270
:1032C0000B14EA2323C0E02446F582E43432F5836C
:1032D000120B04120107ECC0E0EDC0E0EEC0E0EF1D
:1032E000C0E0120AE890A4AE120AF8120103D0E07E
:1032F000FBD0E0FAD0E0F9D0E0B2E7F81203019099
:10330000A4AE120B14903236740312064390A4AE8E
:10331000120AF81201F8D0E0600F2452F582E4346A
:1033200032F583120B0412010790A4AE120B14D0D5
:10333000E0C3947FFDE49400FC12041C7B187A72B5
:103340007931783F1201F890A4AE120AF812010701
:1033500030000B7BD97A5B79DE783E1201F8227B54
:10336000017AA4799A90A4E6E4F0A37402F07F00B5
:103370007E511226EF90A49AE0FEA3E0FFEE704C7F
:10338000EF24FE601914602214602B1460342404AE
:10339000703A90A54D120B2043FA0000802E90A5A4
:1033A0004D120B20447A0000802290A54D120B2074
:1033B00044BB8000801690A54D120B20451C400098
:1033C000800A90A54D120B20457A000090A536E0AA
:1033D000FEA3E0FF12381590A551E0FCA3E0FDA389
:1033E000E0FEA3E0FF120455AB07AA067C007D3C7B
:1033F00012088290A498EEF0A3EFF07C007D3CAF21
:1034000003AE0212088290A496ECF0A3EDF07B01CB
:103410007AA4799890A4E6E4F0A37402F07F207E69
:10342000281224A27B017AA4799890A4E6E4F0A360
:103430007402F07F007E281224A27B017AA4799680
:1034400090A4E6E4F0A37402F07F057E281224A283
:103450007B017AA4799690A4E6E4F0A37402F07F4D
:10346000257E280224A2AEAD90A523E0FCA3E0FDBA
:10347000EC704BED146020047044EE64576003025E
:10348000356674262DF58274A53CF583EEF090A583
:1034900023E4F0A304F022EE701C90A523E0FCA32B
:1034A000E02426F58274A53CF583EEF090A523E494
:1034B000F0A37402F022E490A523F0A3F02290A5DB
:1034C00023E0FCA3E02426F58274A53CF583EEF00E
:1034D00090A524E004F0700690A523E004F0D390BA
:1034E000A524E0940F90A523E094004079E4F0A394
:1034F000F090A527E0FF90A526E02FFF90A528E0FB
:103500002FFFA3E02FFFA3E02FFFA3E02FFFA3E0F7
:103510002FFFA3E02FFFA3E02FFFA3E02FFFA3E0E7
:10352000FD2FFFA3E0FE2FFFA3E02FFFA3E02FFF5F
:10353000A3E02FFFA3E0B5072DEE702A90A52FE0A2
:103540007B00FAED7E007810C333CE33CED8F9FF7E
:10355000EE4AFEEF4BFF90A52EE0FDEF4DFF90A54C
:1035600036EEF0A3EFF022C0E0C0F0C083C082C00E
:10357000D075D000C000C001C002C003C004C005A7
:10358000C006C007C2AF758CBC758ACD90A590E00F
:1035900004F0700690A58FE004F090A5AAE0FCA3CB
:1035A000E0FDA3E0FEA3E02401FFE43EFEE43DFDD8
:1035B000E43CFC90A5AA120B14E47F64FEFDFC9091
:1035C000A5AAE0F8A3E0F9A3E0FAA3E0FBC3120A7E
:1035D000C4406490A522E004F0700690A521E004A8
:1035E000F090A441E0FCA3E0FDA3E0FEA3E02401F1
:1035F000FFE43EFEE43DFDE43CFC90A441120B14CC
:1036000090A548E0FCA3E0FDA3E0FEA3E02401FFB9
:10361000E43EFEE43DFDE43CFC90A548120B149012
:10362000A5BEE004F0700690A5BDE004F090A5AA48
:10363000120B2000000000D2AFD007D006D005D07A
:1036400004D003D002D001D000D0D0D082D083D01B
:10365000F0D0E03290A44EE0FF70030237336407ED
:103660007003023733EF64087003023733D2A5903A
:10367000A55EE06403701D20A71A7B017AA5795925
:1036800090A4E6F0A37402F07F007E171224A2D269
:10369000A3C2A12290A55EE06403701D30A71A7B2F
:1036A000017AA5795790A4E6F0A37402F07F007E1A
:1036B000171224A2C2A3D2A12290A55EE0640470D6
:1036C0005730A754C390A5BEE0940590A5BDE094E3
:1036D00000406230091EB2097B017AA5795790A497
:1036E000E6E4F0A37402F07F007E171224A2C2A3C6
:1036F000D2A1801CB2097B017AA5795590A4E6E499
:10370000F0A37402F07F007E171224A2C2A3C2A10C
:10371000E490A5BDF0A3F0227B017AA5795590A491
:10372000E6E4F0A37402F07F007E171224A2C2A385
:10373000C2A122C2A52290A4A5EBF0A3EAF0A3E9BE
:10374000F0E490A4B0F0A3F0A3F0A3F0C390A4AF72
:10375000E0940790A4AEE0940050037F022290A46E
:10376000A5E0FBA3E0FAA3E0F91207F6645A6003B0
:103770007F032290000112080F64A560037F0322DB
:1037800090000212080F2403FFE433FE90A4B0F06F
:10379000A3EFF0C390A4AFE09F90A4AEE09E407270
:1037A000E490A4B2F0A3F090A4B0E0FEA3E0FFA3E5
:1037B000E0FCA3E0FDC39FEC9E503C90A4A5E0FB81
:1037C000A3E0FAA3E0F91207F6FF90A4A8E0FBA398
:1037D000E0FAA3E0F98D828C83EF12084E90A4A644
:1037E000E475F00112090D90A4B3E004F070B890F4
:1037F000A4B2E004F080B090A4B0E0F9A3E0FF90A0
:10380000A4ABE0FBA3E0FAA3E0C98FF012099C7F10
:1038100001227F0222AD07AC06E412041CE4FBFA8D
:103820007920784112030190A49C120B14E4FFFE4E
:103830007DC87C4390A49CE0F8A3E0F9A3E0FAA340
:10384000E0FB12039E5024E4FFFE7DA07C4090A488
:103850009CE0F8A3E0F9A3E0FAA3E0FB12039E606A
:103860000A400890A55D7401F0800690A55D74057E
:10387000F090A55EE06403602590A55DE014706D96
:1038800090A46EE0F8A3E0F9A3E0FAA3E0FB90A512
:103890004DE0FCA3E0FDA3E0FEA3E0FF804690A581
:1038A0005DE0147048E4FFFE7D7A7C4490A461E002
:1038B000F8A3E0F9A3E0FAA3E0FB1201F8A804A939
:1038C00005AA06AB0790A54DE0FCA3E0FDA3E0FE32
:1038D000A3E0FF12010390A46EE0F8A3E0F9A3E0D7
:1038E000FAA3E0FB12030190A551020B1490A55D11
:1038F0007406F02290A44EE0640170077D027F04FC
:103900001248DF7B017AA5795590A4E6E4F0A37410
:1039100002F07F057E511224A290A44EE090A448AC
:10392000F0E4A3F090A476E090A44AF090A457E0CD
:10393000FFA3E090A44BCFF0A3EFF090A466E0FECD
:10394000A3E0FF7B017AA4794590A4E6E4F0A37498
:1039500008F01224A290A466E0FEA3E0FF7B017AA7
:10396000A4797890A4E6E4F0A37402F01226EF9014
:10397000A479E0FF90A478E0B507DA90A449740137
:10398000F090A477E090A44AF090A466E0FEA3E053
:10399000FF7B017AA4794590A4E6E4F0A37408F0D3
:1039A0001224A290A466E0FEA3E0FF7B017AA47932
:1039B0007890A4E6E4F0A37402F01226EF90A479C4
:1039C000E0FF90A478E0B507DA90A47AE4F0A304CD
:1039D000F02290A47AE07004A3E064016003023A4C
:1039E000A990A44EE0640170077D027F0412493D56
:1039F00090A44EE090A448F090A46CE0FFA3E09067
:103A0000A44BCFF0A3EFF090A477E090A44AF090FD
:103A1000A4497401F090A466E0FEA3E0FF7B017A64
:103A2000A4794590A4E6E4F0A37408F01224A290CF
:103A3000A466E0FEA3E0FF7B017AA4797890A4E677
:103A4000E4F0A37402F01226EF90A479E0FF90A4B2
:103A500078E0B507DA90A476E090A44AF0E490A468
:103A600049F090A466E0FEA3E0FF7B017AA47945CB
:103A700090A4E6E4F0A37408F01224A290A466E0F7
:103A8000FEA3E0FF7B017AA4797890A4E6E4F0A39A
:103A90007402F01226EF90A479E0FF90A478E0B5CC
:103AA00007DAE490A47AF0A3F02290A57C74F0F0F9
:103AB00090A58004F090A58404F07B067A007D0038
:103AC0007C387F007E40123E547B017AA5797C9041
:103AD000A564E4F0A37406F07F007E40123C307BC6
:103AE000017AA5799190A564E4F0A37404F07F6055
:103AF0007E51123C3090A591E07004A3E064F67012
:103B0000417B017AA5799390A4E6F0A37402F07F3B
:103B1000007E241224A27B017AA5799590A4E6E484
:103B2000F0A37402F07F107E241224A27B017AA5F8
:103B3000799790A4E6E4F0A37402F07F207E24122B
:103B400024A27B027A007D207C137F007E43123EFC
:103B5000547B027A007D507C147F007E44123E54D8
:103B60007B027A007D107C137F007E41023E5490E0
:103B7000A4D2EEF0A3EFF0A3EBF0A3EAF0A3E9F0F8
:103B800078D97CA47D017BFF7A5079787E007F080C
:103B90001207D0C2AF90A4D4E0FBA3E0FAA3E0F9EF
:103BA000A3E0FFA3E090A4E6CFF0A3EFF07F007EB8
:103BB000F01224A290A4D974A5F090A4D2E0FCA3A2
:103BC000E0FDAE047810CEC313CE13D8F990A4DA7A
:103BD000F0ECA3F090A4D2A3E090A4DCF0A374F0E6
:103BE000F0E4A3F090A4D7E0FCA3E0FDEC90A4DF08
:103BF000F0A3EDF07B017AA479D990A4E6E4F0A3D8
:103C00007404F07F087E001224A27F057E00124E0D
:103C1000327B017AA479D990A4E6E4F0A37402F08F
:103C20007F087E001226EF90A4D9E070DDD2AF228B
:103C300090A55FEEF0A3EFF0A3EBF0A3EAF0A3E909
:103C4000F078667CA57D017BFF7A5079807E007FCD
:103C5000081207D0C2AF90A566745AF090A55FE035
:103C6000FCA3E0FDAE047810CEC313CE13D8F990B8
:103C7000A567F0ECA3F090A55FA3E090A569F0A381
:103C800074F0F0E4A3F090A564E0FCA3E0FDEC90F8
:103C9000A56CF0A3EDF07B017AA5796690A4E6E42B
:103CA000F0A37404F07F087E001224A27F057E003A
:103CB000124E327B017AA5796690A4E6E4F0A374F3
:103CC00002F07F087E001226EF90A566E070DD907E
:103CD000A561E0FBA3E0FAA3E0F9A3E0FFA3E09075
:103CE000A4E6CFF0A3EFF07F007EF01226EFD2AF74
:103CF0002290A49AEFF0E0FFC454F024E6F582E4A9
:103D000034A4F583E4F0A304F0EFC454F024E8F500
:103D100082E434A4F58374FFF0A3F0EFC454F024DC
:103D2000EAF582E434A4F583E4F0A3740BF01244C2
:103D3000D390A49AE0FDC454F024ECF582E434A4BA
:103D4000F583EEF0A3EFF0EDC454F024EEF582E439
:103D500034A4F5837402F0A3744EF0EDC454F0243F
:103D6000ECF582E434A4F583E0FEA3E0FFEDC45457
:103D7000F024F0F582E434A4F583EEF0A3EFF0ED47
:103D80006402701FED75F010A424E4F974A435F0FA
:103D9000FA7B0190A4E6E4F0A37410F07F007E5556
:103DA0001224A22290A59FEBF0A3EAF0A3E9F0A3CE
:103DB000EDF078A37CA57D017BFF7A5079AD7E0084
:103DC0007F021207D090A5A2E0146003023E539038
:103DD000A59FE0FBA3E0FAA3E0F9120086EF607371
:103DE00090A51FE0FF90A5A3E4F0EFA3F090A59F9E
:103DF000E0FBA3E0FAA3E0F9120939FF90A515E56D
:103E0000F0F0A3EFF0900002120964FF90A517E50F
:103E1000F0F0A3EFF07B017AA579A390A4E6E4F09B
:103E2000A37402F07F017EB01224A290A4F0E0FE01
:103E3000A3E0FF7B017AA5791590A4E6E4F0A374D2
:103E400006F01224A290A4F1E02402F090A4F0E085
:103E50003400F02290A56EEEF0A3EFF0A3ECF0A3F7
:103E6000EDF0A3EAF0A3EBF078747CA57D017BFF75
:103E70007A5079687E007F081207D090A574745A32
:103E8000F090A56EE0FCA3E0FDAE047810CEC31365
:103E9000CE13D8F990A575F0ECA3F090A56EA3E031
:103EA00090A577F090A570E0FCA3E0FDEC90A578DC
:103EB000F0A3EDF090A572E0FCA3E0FDEC90A57AF4
:103EC000F0A3EDF07B017AA5797490A4E6E4F0A369
:103ED0007408F0FF7E001224A27F057E00124E328D
:103EE0007B017AA5797490A4E6E4F0A304F07F083E
:103EF0007E001226EF90A574E070DE2290A4D2EE30
:103F0000F0A3EFF0A3ECF0A3EDF0A3EAF0A3EBF045
:103F100078D87CA47D017BFF7A5079707E007F0881
:103F20001207D090A4D874A5F090A4D2E0FCA3E02E
:103F3000FDAE047810CEC313CE13D8F990A4D9F0F7
:103F4000ECA3F090A4D2A3E090A4DBF090A4D4E082
:103F5000FCA3E0FDEC90A4DCF0A3EDF090A4D6E08F
:103F6000FCA3E0FDEC90A4DEF0A3EDF07B017AA4CD
:103F700079D890A4E6E4F0A37408F0FF7E00122440
:103F8000A27F057E00124E327B017AA479D890A4DC
:103F9000E6E4F0A304F07F087E001226EF90A4D898
:103FA000E070DE2290A4B1ECF0A3EDF0A3E0643069
:103FB0007004A3E06410705C124FE8EF640170437A
:103FC00090A55EE064057021120B9790A55E7403C6
:103FD000F01238F47B017AA5795790A4E6E4F0A3B7
:103FE0007402F07F107E30805F90A55EE064027006
:103FF000067403F00238F490A55EE06404704C741B
:1040000003F022124FE8EF90A55E70047404F022D2
:104010007401F02290A4B3E0FEA3E0FFBE300ABF1B
:10402000200790A55E7406F022E4B5071EEEB45199
:104030001A90A4B1E0FEA3E0FF7B017AA579579026
:10404000A4E6E4F0A37402F01224A222E490A4A552
:10405000F0A3F090A22DE0FEA3E0FDEDFF90A4A55B
:10406000EEF0A3EFF090A22CE06482703D7B017A29
:10407000A2792F90A22BE024FDFEE434FF90A4E669
:10408000F0A3CEF090A4A5E0FEA3E0FF1224A2903E
:10409000A22B7403F090A22D744FF0A3744BF07B0D
:1040A000017AA2792990A22B803E90A22CE0648311
:1040B000703D7B017AA2793090A22FE075F002A4C6
:1040C000FF90A4E6E5F0F0A3EFF090A4A5E0FEA336
:1040D000E0FF1226EF90A22FE025E0FF90A22BE058
:1040E0002FF07B017AA27929E02403FD124B832271
:1040F000759401759502758E0075930075C870757D
:10410000C96075F800787FE4F6D8FD758121024119
:104110004C024EA4E493A3F8E493A34003F6800179
:10412000F208DFF48029E493A3F85407240CC8C3F1
:1041300033C4540F4420C8834004F456800146F62B
:10414000DFE4800B010204081020408090171EE479
:104150007E019360BCA3FF543F30E509541FFEE489
:1041600093A360010ECF54C025E060A840B8E4934B
:10417000A3FAE493A3F8E493A3C8C582C8CAC5838D
:10418000CAF0A3C8C582C8CAC583CADFE9DEE78012
:10419000BE33DA929E35B16011377FE5FE39218456
:1041A000893AAEC3FF3C1D955B3D6358473E75FDA4
:1041B000F03F3172183F800000C2D50204CB0204E8
:1041C000C1BD80FA50F30204C8ED33EC330460F152
:1041D0007B3B7AAA79B8783F1201F8ED33EC339241
:1041E000D5247B5011A2D570DB500BED4480240404
:1041F0005004A2D580CEEFFBEEFAEDF9ECF81204F4
:1042000055EFF582F404FC120421120107C08290DC
:1042100041917409120652ED33CC33D0F092D5257A
:10422000F0A2D57001C313CC13FD2290A5A5EFF029
:1042300078A67CA57D017BFF7A50794A7E007F04B9
:104240001207D07B017AA579A690A4E6E4F0A374C6
:1042500004F07F807E001226EF90A5A6745AF0909D
:10426000A5A5E0FD3395E0FCED64014C700990A537
:10427000A9E054F7F0800DED64024C703F90A5A9C1
:10428000E04408F07B017AA579A690A4E6E4F0A3C7
:104290007404F07F807E001224A27F057E00124EFF
:1042A000327B017AA579A690A4E6E4F0A304F07F1E
:1042B000807E001226EF90A5A6E070DE227B017AB8
:1042C000A579B690A564E4F0A37402F07F007E5057
:1042D000123C3090A5B8E0FEA3E0FDEDD394FFEED4
:1042E00094FF5006C3EE9400500090A5B6E0FFC3C3
:1042F00074809480400AD3EF946474809480400664
:1043000090A5B67464F090A5B7E0FFC37480948064
:10431000400AD3EF946474809480400690A5B774EB
:1043200032F07B017AA579B690A4E6E4F0A3740498
:10433000F07F827E001224A27B017AA579B690A438
:10434000E6E4F0A37404F07F407E140224A2789681
:104350007CA47D017BFF7A5079567E007F10120786
:10436000D0E490A4A6F0A3F0A3F0A3F0A3F0A3F0F0
:1043700090A436E0FDFEA3E0FBF582E582FF90A469
:10438000AAEEF0A3EFF090A229745AF0A374A5F05E
:1043900090A438E0FC25E0240390A22BF0A37483C2
:1043A000F0A3EDF0A3EBF07B017AA2792FEC75F08E
:1043B00002A4FF90A4E6E5F0F0A3EFF090A4AAE039
:1043C000FEA3E0FF1226EF90A4AAE0FEA3E0FF0206
:1043D000461FC0E0C0F0C083C082C0D075D000C00E
:1043E00000C001C002C003C004C005C006C007E48D
:1043F000FFC2AFE5AB54016401703B123466AFAD50
:10440000908088E0FCA3E02400F58274803CF58372
:10441000EFF0908089E004F07006908088E004F06E
:1044200053ABFEC3908089E09480908088E0940034
:104430004004E4F0A3F0D2AFD007D006D005D004FA
:10444000D003D002D001D000D0D0D082D083D0F021
:10445000D0E03290A499EDF090A496EBF0A3EAF0AE
:10446000A3E9F0120086EF60697F02123CF17BFF46
:104470007A5079A5120C3490A499E06401704D90A3
:10448000A4F6F0A3F0A37480F0A3E4F0A3F0A37467
:104490000BF090A496E0FBA3E0FAA3E0F9900002F1
:1044A000120964FF90A4FCE5F0F0A3EFF07BFF7A23
:1044B0005079A5120C347B017AA479F490A4E6E437
:1044C000F0A37410F07F007EB01224A290A5207497
:1044D00001F02290A46EE0FCA3E0FDA3E0FEA3E0C7
:1044E000FF12326690A4E8120B14E4FFFEFDFC906C
:1044F000A4E8E0F8A3E0F9A3E0FAA3E0FB12039E2E
:1045000040437FAE7E477DE17CBD90A4E8E0F8A308
:10451000E0F9A3E0FAA3E0FB1201077B3D7A0A79F8
:10452000477840120301E4FBFA79F078421201F86F
:10453000A804A905AA06AB07E4FFFE7DE97C4312A7
:1045400001030204557E017FD222124F2E7F641296
:1045500045887F30124588E4FF124588124E2012AC
:104560004F2E7F641245887F1C1245887F48124574
:1045700088E4FF1245887F401245887F10124588E5
:10458000124E20124F2E7F64AE07124FF4E4FDED61
:10459000C39408748094805019EE30E704D2B3803D
:1045A00002C2B3EE25E0FE124EEFC2B2124EF40D7F
:1045B00080DD024DCB90A496EFF078977CA47D012E
:1045C0007BFF7A5079AF7E007F101207D090A496BF
:1045D000E014601F146031240270437B017AA479D7
:1045E0009790A4E6E4F0A37410F07F007EB012244C
:1045F000A280157B017AA4799790A4E6E4F0A374D5
:1046000010F07F007EB080137B017AA4799790A48C
:10461000E6E4F0A37410F07F007E551224A22290ED
:10462000A4ACEEF0A3EFF090A44EE024F8602024B8
:104630000770547BFF7A49799B90A4ACE0FFA3E01C
:1046400090A4B3CFF0A3EFF07D057C51023FA4907E
:10465000A4ACE0FEA3E0FF64407003EE64146006C7
:10466000BE1406BF4103024B4190A4ACE0B4140851
:10467000A3E0B40003021D3790A4ACE0B41408A377
:10468000E0B410031213F22290A44EE0FF90A46550
:10469000E06F6008EFF090A55E7401F090A55EE019
:1046A000B40700504B9046ACF82828730246C1026C
:1046B00046C70246D00246D30246D80246DD02462D
:1046C000E290A55E7401F090A55E7402F01200F60F
:1046D00002335FD2950246F1C2950200F7C29502FD
:1046E0004F04C29512499B1239D290A55E7401F015
:1046F000227BFF7A387915121FDBE4FFFE7D7A7C7E
:104700004490A461E0F8A3E0F9A3E0FAA3E0FB126F
:1047100001F890A54DE0F8A3E0F9A3E0FAA3E0FBCF
:1047200012039E602B4029E4FFFEFDFC90A551E0A2
:10473000F8A3E0F9A3E0FAA3E0FB12039E601140A6
:104740000FC390A489E0946490A488E0940040068C
:1047500090A55E7405F022C0E0C083C082C0D07511
:10476000D000C004C007C2AF309837AF99908082A4
:10477000E0FCA3E0248AF58274803CF583EFF0909E
:104780008083E004F07006908082E004F0C39080A3
:1047900083E094A0908082E0941F4004E4F0A3F0B2
:1047A000C298309907C299908080E4F0D2AFD007C8
:1047B000D004D0D0D082D083D0E03290A599EEF052
:1047C000A3EFF0789B7CA57D017BFF7A5079527E28
:1047D000007F041207D090A599E0FCA3E0FDEC90C7
:1047E000A59DF0A3EDF07B017AA5799B90A4E6E46A
:1047F000F0A37404F07F847E001224A27F057E0063
:10480000124E327B017AA5799B90A4E6E4F0A304D2
:10481000F07F847E001226EF90A59BE070DE22C020
:10482000E0C083C082C0D075D000C004C007C2AF52
:10483000E59B30E028AF9C908084E0FCA3E0242A34
:10484000F58274A03CF583EFF0908085E004F07071
:1048500006908084E004F0539BFE539BFEE59B3062
:10486000E10B539BFD539BFD908081E4F043C90114
:10487000D2AFD007D004D0D0D082D083D0E032C025
:10488000E0C083C082C0D075D000C004C007C2AFF2
:10489000E597540164017038AF9F908086E0FCA3D7
:1048A000E024AAF58274A03CF583EFF0908087E0C5
:1048B00004F07006908086E004F05397FEC3908069
:1048C00087E09480908086E094004004E4F0A3F0B8
:1048D000D2AFD007D004D0D0D082D083D0E03290F5
:1048E000A44EE090A448F0A3EFF0A3EDF090A457FD
:1048F000E0FFA3E090A44BCFF0A3EFF090A466E01C
:10490000FEA3E0FF7B017AA4794590A4E6E4F0A33E
:104910007408F01224A290A466E0FEA3E0FF7B01DD
:104920007AA4797890A4E6E4F0A37402F01226EF5A
:1049300090A479E0FF90A478E0B507DA2290A44E25
:10494000E090A448F0A3EFF0A3EDF090A46CE0FF9A
:10495000A3E090A44BCFF0A3EFF090A466E0FEA3F9
:10496000E0FF7B017AA4794590A4E6E4F0A3740803
:10497000F01224A290A466E0FEA3E0FF7B017AA4DB
:10498000797890A4E6E4F0A37402F01226EF90A4E4
:1049900079E0FF90A478E0B507DA2290A461120BC9
:1049A00020000000007B017AA4796190A4E6E4F085
:1049B000A37404F07F007E271224A2E490A488F060
:1049C000A3F07B017AA4798890A4E6F0A37402F0A6
:1049D0007F307E281224A290A459120B20000000E0
:1049E000007B017AA5795590A4E6E4F0A37402F067
:1049F0007F107E300224A2124C0590A514E024FE04
:104A0000601224FE601924FE602424057043E490A3
:104A1000A514F0227B017AA5791B7D01024453E4A1
:104A200090A520F090A514F090A51FF08011E490BF
:104A3000A520F090A514F090A51FF0FF1245B590A9
:104A4000A4F074B0F0A37405F0A37455F0A374053A
:104A5000F0221245837F1D124588124E20124F2EE0
:104A60007F65124588124D4AAC07120016124D4A56
:104A7000124FBE124E20EC54026402702E12454AB0
:104A80007F10124588E4FF124588E4FF124588E450
:104A9000FF1245887F011245887F011245887F01FA
:104AA0001245887F1712457D124E112278967CA4FC
:104AB0007D017BFF7A50794E7E007F041207D07B08
:104AC000017AA4793590A4E6E4F0A37404F07F00A1
:104AD0007E0F1226EF90A435E0645A70187B017A9D
:104AE000A4799690A4E6F0A37404F07F007E0F12E0
:104AF00024A27F01227F00227B017AA4794D90A419
:104B0000E6E4F0A37402F07F147E001226EF90A476
:104B10004EE0FF14601A14601F14601E24FB601D19
:104B20002408701C90A465EFF090A55E7401F0223B
:104B30001249F712468880028000021A47124C7E02
:104B4000227B017AA479AE90A4E6E4F0A37404F089
:104B50007F407E141226EF7B017AA479AE90A4E602
:104B6000E4F0A37404F07F827E001224A27B017A19
:104B7000A479AE90A4D7E4F0A37402F07F007E5035
:104B8000023B6F90A4A7EBF0A3EAF0A3E9F090A496
:104B9000A7E0FBA3E0FAA3E04A4B6027ED6024AF57
:104BA000051DEF601E90A4A7E0FBA3E0FAA3E0F9C7
:104BB0001207F6FF124F6390A4A8E475F0011209E2
:104BC0000D80DC2290A5BAEBF0A3EAF0A3E9F09007
:104BD000A5BAE0FBA3E0FAA3E04A4B6027ED60240E
:104BE000AF051DEF601E90A5BAE0FBA3E0FAA3E0BD
:104BF000F91207F6FF124F7190A5BBE475F0011290
:104C0000090D80DC2290A55EE024FC601B14601F6F
:104C10001460282403702A90A520E090A514600455
:104C20007403F0227402F02290A5147405F022E4BB
:104C300090A520F090A5147404F02290A514740699
:104C4000F02290A4F4E4F0A37402F090A50274FFA3
:104C5000F0A3E4F090A4F6F0A304F090A504E4F02F
:104C6000A37402F090A51274FFF0A3E4F090A506DF
:104C7000F0A304F090A51974FFF0A3E4F02290A42F
:104C80004EE0FF90A465E06F6008EFF090A55E74C1
:104C900001F090A55EE014600D1460102402700F06
:104CA00090A55E7401F090A55E7402F0024DA39091
:104CB000A55E7402F0227B017AA579AE90A4E6E4A9
:104CC000F0A37404F07F807E001226EF90A5B1E07F
:104CD0004408F07B017AA579AE90A4E6E4F0A374D1
:104CE00004F07F807E000224A27B017AA579B29035
:104CF000A4E6E4F0A37404F07F807E001226EF9017
:104D0000A5B5E04404F07B017AA579B290A4E6E46D
:104D1000F0A37404F07F807E000224A290A498EE99
:104D2000F0A3EFF0E02432FF90A498E03400FE7B83
:104D3000017AA4799890A4E6E4F0A37402F0122614
:104D4000EF90A498E0FEA3E0FF22120056E4FDEDF0
:104D5000C3940874809480501B124EEFEE25E0FE41
:104D600030B3054401FE8004EE54FEFEC2B2124E82
:104D7000F40D80DBAF0622E490A4ADF0A3F0A3F025
:104D8000A3F0AE04AF05C003C00290A4AAE0FBA349
:104D9000E0FAA3E0F8AC02AD03D002D0031207D0D2
:104DA0007F0122E47F02FEFDFC90A548E0F8A3E02D
:104DB000F9A3E0FAA3E0FBC3120AC4400D122FB717
:104DC00090A548120B200000000022120056124E3F
:104DD000EDE4FEEEC3943274809480500930B30643
:104DE000124EF40E80EDC2B2124EF4024FF4C39094
:104DF000A590E094F490A58FE0940140137BFF7A96
:104E0000507988120C34123103E490A58FF0A3F08E
:104E1000227F1E124588E4FF1245887F10124588C4
:104E2000124FF4C2B3D2B2124EF4D2B3124EF40205
:104E30000056E4FDFCC3ED9FEC9E5015E4FBFA0B1D
:104E4000BB00010ABA1CF8BBE8F50DBD00010C80DF
:104E5000E42243B7C043C920E4908081F09080846D
:104E6000F0A3F0759BD075BB03759DC8759A0122A0
:104E700090A5BFEFF07B017AA579BF90A4E6E4F09E
:104E8000A304F07F827E000224A2E490A55EF07B62
:104E9000017AA5795590A4E6F0A37402F07F107E04
:104EA000300224A2124F42124A52C295124F8D1262
:104EB0004C42124F9B124AF8124DEE80F575F901E3
:104EC00075B7C375BCA375BD2A75BE0CE4F580F536
:104ED00090F5A0F5B022E4908086F0A3F07596805E
:104EE000759780F5D975E7E0D2BAD2BB22D2B3125A
:104EF0004EF4D2B2E4FFEFC3945074809480500318
:104F00000F80F3227B017AA5795590A4E6E4F0A303
:104F10007402F07F107E300224A275C870E4F5CDD3
:104F2000F5CC75CBBC75CACD43A820D2C822124F90
:104F3000F4D2B3D2B2124EF4C2B3124EF4C2B202E1
:104F40004EF4C2AF12005E124EBD124FDC124FE2A1
:104F5000D2AF22C2AF8F9EE596540160FA5396FEFF
:104F6000D2AF22908080E0640160F87401F08F99E4
:104F700022908081E0640160F87401F08F9C2243EC
:104F80008901758CBC758ACDD2A9D28C2290A4459A
:104F9000745AF0A374A5F0E4A3F022124AACEF60B7
:104FA0000312434E02104C124CB6124CE91242BD91
:104FB00002005A7BFF7A4F79FF7D15024B83124F17
:104FC000F4124EEDC2B2024EF47B017AA5791B7D3C
:104FD00001023DA4C2AF5396FED2AF32124ED602AA
:104FE000006E124F7F024F1A90A230E0FF22124E45
:104FF0008A024FFB43BE0822C2C632023AAA225599
:1050000061727432496E697420446F6E652121218A
:10501000313233005561727433496E697420446FC4
:105020006E65212121005561727434496E697420C6
:10503000446F6E65212121005561727435496E6996
:105040007420446F6E6521212100000000000000E3
:1050500000005A01000000000000000000000000F5
:105060000000000000000000000000000000000040
:105070000000000000000000000000000000000030
:10508000000000000000000068656B6B6F0000000E
:105090000000000000000000000000000000000010
:1050A0000000000000B3F5CABCBBAF0A000000005E
:1050B00000000000000000000000000000000000F0
:0B50C0000000000000000000000000E5
:00000001FF
