:10000000022FB7020006C2AFD2AF32022D94C2AFA8
:10001000D2AF3202000E120066C2B31239D2C2B29F
:100020000239D702342C53BEF722320200F31200F9
:1000300026E4FDEDC3940874809480501B1239D2DD
:10004000EE25E0FE30B3054401FE8004EE54FEFED2
:10005000C2B21239D70D80DBAF0622123A7B023AC8
:1000600013222202002A43BE082222023208E49010
:100070008088F0A3F075A78075AB80F5AE75AFE012
:10008000D2BD220234F490A53CEBF0A3EAF0A3E940
:10009000F0121F3E90A53CE0FBA3E0FAA3E0F9EECE
:1000A0008FF01207B290A53CE0FBA3E0FAA3E0F9C1
:1000B000120787FFAEF04E700FBEFF0CBFFF09EFB7
:1000C00064FE7002EEF4602890A462E0FCA3E0FD00
:1000D000A3E0FEA3E0FF1232F490A53CE0FBA3E016
:1000E000FAA3E0F9900002EE8FF01207D17F01220F
:0600F0007F0022C2C632AF
:1000F800FFFF4457494E54350204C1E86480F8E9CB
:1001080033E83360110460F0ED33EC337009E8FC38
:10011800E9FDEAFEEBFF220460DED3EB9FEA9EE9ED
:100128009DE8C2E78CF0C2F795F0400CE8CCF8E9FE
:10013800CDF9EACEFAEBCFFB12048C85D0F0580447
:10014800700320D5B3E80470075002B2D50204CB7F
:1001580092D5EC0460F7E4CCC0E0C398F8603B9417
:10016800186008400DD0E0FB0204A3E4FBFAC9FCC8
:100178008028E830E406E4C9FBE4CAFCE830E3057B
:10018800E4C9CACBFCE854076010F8C3E913F9EADC
:1001980013FAEB13FBEC13FCD8F130F52FC3E49CF6
:1001A800FCEF9BFFEE9AFEED99FDD0E0FBEF4E4D84
:1001B8004C701222DB030204C8EC2CFCEF33FFEE78
:1001C80033FEED33FDED30E7EB0204A3EF2BFFEE3A
:1001D8003AFEED39FDD0E0FB50130BBB00030204DF
:1001E800CBED13FDEE13FEEF13FFEC13FC0204A39B
:1001F800EC4D6011E8497017ED33EC3304600DE401
:10020800FCFFFEFD22E933E8330470F80204C11252
:10021800048C58046009E4CC248150062850090253
:1002280004CB2840030204C8C0E0EB4A7044B980FC
:1002380006D0E0FB0204B7EF4E701CBD8008EBFF50
:10024800EAFEE9FD80EBE98DF0A4FEE5F00202E1AB
:10025800E9CDF9EAFEEBFFEF89F0A4FCE5F0CE89E1
:10026800F0A42EFFE435F0CD89F0A42DFEE435F09E
:100278008067EF4E7005BD80D780C3EF8BF0A4ACCC
:10028800F0EE8BF0A42CFCE435F0F8EF8AF0A42C07
:10029800E5F038FCE433CB8DF0A42CFCE5F03BF81A
:1002A800EE8AF0A42CFCE5F038F8E433CF89F0A40A
:1002B8002CFCE5F038CF3400CE89F0A42FFFE5F010
:1002C8003EFEE433C98DF0A42EFEE5F039CD8AF068
:1002D800A42FFFE5F03EFEE43DFD33D0E0FB5007E0
:1002E8000BBB000F0204CBEC2CFCEF33FFEE33FE0C
:1002F800ED33FD0204A30204CBEC5D046005E8596C
:100308000470030204C112048C580460F6EC4860BF
:10031800F2EC7004FDFEFF22C860DB2481C850099E
:10032800C398600250060204C89850CAF582E929A9
:100338004B4A7005AB820204B775F0007C1A7880CE
:10034800C3EF9BEE9AED99400DC3EF9BFFEE9AFE2B
:10035800ED99FDE842F0DC23ACF0D0E0FFD0E0FE00
:10036800D0E0FDAB8220E7101BEB60BAEC2CFCEF71
:1003780033FFEE33FEED33FD0204A3E803F830E764
:1003880005C0F075F000EF2FFFEE33FEED33FD40B2
:10039800B830E7C280AA74F8CC6480CCC86480C83E
:1003A800F58204604FC3EB9FF5F0EA9E42F0E99DA9
:1003B80042F0E89C45F0603C501DE5825FFFE58215
:1003C800D313CB5BCBF42B5582FB50280ABA0024FD
:1003D80009B9002008801DE5825BFBE582D313CFB5
:1003E8005FCFF4C3132F5582FF50090EBE00050DD1
:1003F800BD00010CC3EB9FF5F0EA9E42F0E99D4277
:10040800F0E89C45F06007CC4820E701B3EC227582
:10041800F020800E75F010800575F0087D007E00D4
:100428007F003392D530D5031208CCEC334010EF5F
:1004380033FFEE33FEED33FDEC33FCD5F0ED22E572
:10044800F0247EA2D513CC92E7CDCEFF22EDD2E7E1
:10045800CD33EC3392D524814006E4FFFEFDFC2227
:10046800FCE4CFCECDCC24E0501174FF80EDC3CC9A
:1004780013CCCD13CDCE13CECF13CF0470F030D51F
:10048800DE0208CCE9D2E7C933E833F892D5EDD2D9
:10049800E7CD33EC33FC5002B2D522EC30E7100F35
:1004A800BF000C0EBE00080DBD00040BEB6014A2CB
:1004B800D5EB13FCED92E7FD2274FFFCFDFEFF2255
:1004C800E480F8A2D574FF13FC7D80E480EFED335F
:1004D800EC33601004700FED547F7005740292E0E5
:1004E800227404220422E422ED33EC33600A0470FF
:1004F80003BD8004ECB2E7FC22C0E0EFFBEEFAEDAE
:10050800F9ECF81201F8D0E0F5F0EFFBEEFAEDF9AE
:10051800ECF81208FEA3A3A3A3E8C0E0E9C0E0EA50
:10052800C0E0EBC0E0C0F01201F812091AA3A3A3BF
:10053800A3120107D0F0D0E0FBD0E0FAD0E0F9D068
:10054800E0F8D5F0D422E709F608DFFA8046E70993
:10055800F208DFFA803E88828C83E709F0A3DFFA8D
:100568008032E309F608DFFA8078E309F208DFFA57
:10057800807088828C83E309F0A3DFFA8064898223
:100588008A83E0A3F608DFFA805889828A83E0A389
:10059800F208DFFA804C80D280FA80C680D4806965
:1005A80080F28033801080A680EA809A80A880DA62
:1005B80080E280CA803389828A83ECFAE493A3C8F4
:1005C800C582C8CCC583CCF0A3C8C582C8CCC583B6
:1005D800CCDFE9DEE7800D89828A83E493A3F608FD
:1005E800DFF9ECFAA9F0EDFB2289828A83ECFAE0C4
:1005F800A3C8C582C8CCC583CCF0A3C8C582C8CC63
:10060800C583CCDFEADEE880DB89828A83E493A3B2
:10061800F208DFF980CC88F0EF60010E4E60C388E5
:10062800F0ED2402B4040050B9F582EB2402B404BE
:100638000050AF232345822390059E73BB01068992
:10064800828A83E0225002E722BBFE02E3228982EB
:100658008A83E49322BB010CE58229F582E5833A7B
:10066800F583E0225006E92582F8E622BBFE06E97A
:100678002582F8E222E58229F582E5833AF583E4CA
:100688009322BB010689828A83F0225002F722BB9B
:10069800FE01F322F8BB010DE58229F582E5833AD4
:1006A800F583E8F0225006E92582C8F622BBFE054C
:1006B800E92582C8F222EF8DF0A4A8F0CF8CF0A42F
:1006C80028CE8DF0A42EFE22BC000BBE0029EF8D93
:1006D800F084FFADF022E4CCF875F008EF2FFFEEC0
:1006E80033FEEC33FCEE9DEC984005FCEE9DFE0FCE
:1006F800D5F0E9E4CEFD22EDF8F5F0EE8420D21C29
:10070800FEADF075F008EF2FFFED33FD4007985070
:1007180006D5F0F222C398FD0FD5F0EA22C2D5EC37
:1007280030E709B2D5E4C39DFDE49CFCEE30E71543
:10073800B2D5E4C39FFFE49EFE1206D0C3E49DFD3C
:10074800E49CFC80031206D030D507C3E49FFFE485
:100758009EFE22C5F0F8A3E028F0C5F0F8E5821562
:100768008270021583E038F022A3F8E0C5F025F086
:10077800F0E582158270021583E0C838F0E822BBE4
:10078800010A89828A83E0F5F0A3E022500687F007
:1007980009E71922BBFE07E3F5F009E3192289826C
:1007A8008A83E493F5F074019322BB010A89828A53
:1007B80083F0E5F0A3F0225006F709A7F01922BB51
:1007C800FE06F3E5F009F31922F8BB0111E58229C9
:1007D800F582E5833AF583E8F0E5F0A3F0225009C5
:1007E800E92582C8F608A6F022BBFE09E92582C8D9
:1007F800F2E5F008F22275F008758200EF2FFFEE9F
:1008080033FECD33CDCC33CCC58233C5829BED9A34
:10081800EC99E58298400CF582EE9BFEED9AFDEC92
:1008280099FC0FD5F0D6E4CEFBE4CDFAE4CCF9A8D8
:100838008222B800C1B90059BA002DEC8BF084CFE0
:10084800CECDFCE5F0CBF97818EF2FFFEE33FEEDB7
:1008580033FDEC33FCEB33FB10D703994004EB99E1
:10086800FB0FD8E5E4F9FA227818EF2FFFEE33FEF4
:10087800ED33FDEC33FCC933C910D7059BE99A4029
:1008880007EC9BFCE99AF90FD8E0E4C9FAE4CCFB41
:100898002275F010EF2FFFEE33FEED33FDCC33CC95
:1008A800C833C810D7079BEC9AE899400AED9BFD1E
:1008B800EC9AFCE899F80FD5F0DAE4CDFBE4CCFA31
:1008C800E4C8F922C3E49FFFE49EFEE49DFDE49C96
:1008D800FC22EB9FF5F0EA9E42F0E99D42F0E89C8D
:1008E80045F022E8600FEFC333FFEE33FEED33FD32
:1008F800EC33FCD8F122E493FC740193FD74029369
:10090800FE740393FF22E0F8A3E0F9A3E0FAA3E062
:10091800FB22E493F8740193F9740293FA74039335
:10092800FB22ECF0A3EDF0A3EEF0A3EFF022A882F7
:100938008583F0D083D08212094D12094D12094DDA
:1009480012094DE473E493A3C583C5F0C583C8C5F4
:1009580082C8F0A3C583C5F0C583C8C582C8228AEA
:10096800838982E473EF4E6012EF60010EEDBB01E4
:100978000B89828A83F0A3DFFCDEFA2289F0500714
:10098800F709DFFCA9F022BBFEFCF309DFFCA9F0A4
:1009980022E490A47EF0A3F0A3F0A3F0A3F0A3F0C8
:1009A800A3F0A3F0A304F0A37480F0A3748AF0E486
:1009B800A3F0A3F0788B7CA47D017BFF7A3B794779
:1009C800FE7F0212061ED3908083E09402908082FC
:1009D800E094007F0040027F0190A484EFF090A48F
:1009E80084E07003020D3E90A4867401F0A3748025
:1009F800F0A3748AF090A486E0FBA3E0FAA3E0F9E0
:100A0800120644645A603A908082E0FEA3E0248A89
:100A1800F974803EFA7B01C003C002C00190A4862D
:100A2800A3E0FAA3E0F9C3D082D083D0E0E99582AD
:100A3800EA9583500C90A487E475F00112075B8057
:100A4800B4908082E0FEA3E0248AF974803EFA7BA9
:100A580001C003C002C00190A486E0FBA3E0FAA392
:100A6800E0F9D082D083D0E06B7008E9658270032A
:100A7800EA65837007908082F0A3F02290A486A391
:100A8800E0FAA3E0C3948AFFEA9480FEC3908083CF
:100A9800E09FFF908082E09E90A482F0A3EFF09008
:100AA800A489E024FE605524026003020B807E00C6
:100AB8007FFF7D007B017AA1792A12096DE490A459
:100AC8008AF090A485F090A47EF0A3F0A3F0A3F0A0
:100AD80090A480E0FEA3E0FFC39403EE9400501CB2
:100AE800748B2FF58274A43EF583E4F090A481E022
:100AF80004F070DC90A480E004F080D490A490749A
:100B080001F0A374A1F0A3742AF0A37401F0A374F4
:100B1800A4F0A3747EF090A482E0FFA3E090A496D2
:100B2800CFF0A3EFF090A486E0FBA3E0FAA3E0F9EE
:100B3800122A3690A48AEFF0A3F06401703A90A4C8
:100B48007EE0FCA3E0FD90A4927401F0A374A2F0EF
:100B5800A37429F07B017AA1792A123896EF7003E1
:100B6800020C1E122F137E017F007D007B017AA2EA
:100B7800792912096D020C1E90A48BE064036003AE
:100B8800020C1E90A487804490A486E0FBA3E0FAA0
:100B9800A3E0F9120644645A603A908082E0FEA30A
:100BA800E0248AF974803EFA7B01C003C002C001C8
:100BB80090A486A3E0FAA3E0F9C3D082D083D0E062
:100BC800E99582EA9583500C90A487E475F00112A8
:100BD800075B80B4908082E0FEA3E0248AF97480E9
:100BE8003EFA7B01C003C002C00190A486E0FBA3CB
:100BF800E0FAA3E0F9D082D083D0E06B7008E96511
:100C0800827003EA65837008908082F0A3F0800602
:100C180090A4857401F090A48AE06401600990A40E
:100C280085E07003020D3690A486A3E0FAA3E0C322
:100C3800948AFFEA9480FEC3908083E09FFF9080AF
:100C480082E09EFE90A47EE0FCA3E0FDC3EF9DFF42
:100C5800EE9CFE90A482F0A3EFF0D39400EE9400F3
:100C68004068E490A480F0A3F090A482E0FEA3E0A2
:100C7800FF90A480E0FCA3E0FDC39FEC9E5043904E
:100C8800A486E0FBA3E0FAA3E0F990A47EE0FEA32B
:100C9800E0FFE92FF9EA3EFAE92DF9EA3CFA1206F3
:100CA80044FF748A2DF58274803CF583EFF0E412DA
:100CB800068A90A481E004F070AF90A480E004F06C
:100CC80080A790A4847401F08052E490A480F0A3DB
:100CD800F090A486A3E0FAA3E0C3948AFFEA948084
:100CE800FE90A47FE02FFF90A47EE03EFE90A480BB
:100CF800E0FCA3E0FDC39FEC9E501C748A2DF58296
:100D080074803CF583E4F090A481E004F070C29014
:100D1800A480E004F080BAE490A484F090A482E077
:100D2800FFA3E0908082CFF0A3EFF00209E6E49001
:100D3800A484F00209E622418080004280820000FB
:100D48004180810042808400004280860000428009
:100D580088000044A5320000000044A429000000D7
:100D68000041A428006100A2290000000000000042
:100D7800000000000000000000000000000000006B
:100D8800000000000000000000000000000000005B
:100D9800000000000000000000000000000000004B
:100DA800000000000000000000000000000000003B
:100DB800000000000000000000000000000000002B
:100DC800000000000000000000000000000000001B
:100DD800000000000000000000000000000000000B
:100DE80000000000000000000000000000000000FB
:100DF80000000000000000000000000000000000EB
:100E080000000000000000000000000000000000DA
:100E180000000000000000000000000000000000CA
:100E280000000000000000000000000000000000BA
:100E380000000000000000000000000000000000AA
:100E4800000000000000000000000000000000009A
:100E5800000000000000000000000000000000008A
:100E680000000000000000000060FFA3290000004F
:100E7800000000000000000000000000000000006A
:100E8800000000000000000000000000000000005A
:100E9800000000000000000000000000000000004A
:100EA800000000000000000000000000000000003A
:100EB800000000000000000000000000000000002A
:100EC800000000000000000000000000000000001A
:100ED800000000000000000000000000000000000A
:100EE80000000000000000000000000000000000FA
:100EF80000000000000000000000000000000000EA
:100F080000000000000000000000000000000000D9
:100F180000000000000000000000000000000000C9
:100F280000000000000000000000000000000000B9
:100F380000000000000000000000000000000000A9
:100F48000000000000000000000000000000000099
:100F58000000000000000000000000000000000089
:100F680000000000000000000000000042A525006D
:100F78000041A5240142A51E5AA542A4F70000423B
:100F8800A4F5000041A4F40041A4C20041A4C30098
:100F980042A4C4000042A4C6B00742A4C8550742F0
:100FA800A441000044A4760000000044A4433EE9A4
:100FB800518344A45C40490E5644A4313D32D5D0F7
:100FC80044A4473ECD37BE44A4510000000044A4C9
:100FD800720000000044A4660000000044A47A00E7
:100FE80000000044A4620000000042A47000004415
:100FF800A4550000000044A4350000000044A44D9E
:101008000000000044A42D0000000042A46C000071
:1010180042A46E000042A44B000042A460000142BA
:10102800A45A00B041A46A0B41A46B0544A5100062
:1010380000000048A514000000010002000344A5B8
:101048000C000000000090A50AE0FEA3E0FF90A4B9
:1010580042E0FD12184D7B017AA4796290A4BCE4A9
:10106800F0A37404F07F007E26121AA990A50AE066
:10107800FCA3E0FDE412041CE4FBFA797A7844123C
:10108800030190A47612092A90A442E06401600347
:1010980002118190A50AE0FCA3E0FDE412041CE41F
:1010A800FBFA797A784412030190A447E0F8A3E0A8
:1010B800F9A3E0FAA3E0FB12010790A45112092A50
:1010C800E4FFFEFD7C4090A443E0F8A3E0F9A3E030
:1010D800FAA3E0FB1201F890A451E0F8A3E0F9A309
:1010E800E0FAA3E0FB1201F890A46612092A90A482
:1010F80043E0FCA3E0FDA3E0FEA3E0FF90A451E0E1
:10110800F8A3E0F9A3E0FAA3E0FB1201F8C004C0D9
:1011180005C006C00790A49012093640000000D010
:1011280007D006D005D00412230F90A45CE0F8A3E2
:10113800E0F9A3E0FAA3E0FB1201F890A472120907
:101148002A90A451E0FCA3E0FDA3E0FEA3E0FF90F9
:10115800A472E0F8A3E0F9A3E0FAA3E0FB1201F817
:10116800E4FBFA7940784012030190A47A12092A24
:101178007B017AA4797A02130290A442E0640260A7
:101188000302124390A50AE0FCA3E0FDE412041C4C
:10119800E4FBFA797A784412030190A447E0F8A3B3
:1011A800E0F9A3E0FAA3E0FB12010790A4511209A9
:1011B8002AE4FFFEFD7C4090A431E0F8A3E0F9A307
:1011C800E0FAA3E0FB1201F890A451E0F8A3E0F9DB
:1011D800A3E0FAA3E0FB1201F890A46612092A9092
:1011E800A431E0FCA3E0FDA3E0FEA3E0FF90A4513E
:1011F800E0F8A3E0F9A3E0FAA3E0FB1201F8C004C9
:10120800C005C006C00790A490120936400000002F
:10121800D007D006D005D00412230F90A45CE0F8C4
:10122800A3E0F9A3E0FAA3E0FB1201F890A472127C
:10123800092A7B017AA4797202130290A442E0641D
:1012480003600302131290A50AE0FCA3E0FDE41278
:10125800041CE4FBFA797A784412030190A447E06D
:10126800F8A3E0F9A3E0FAA3E0FB12010790A45168
:1012780012092AE4FFFEFD7C4090A443E0F8A3E0B5
:10128800F9A3E0FAA3E0FB1201F890A451E0F8A357
:10129800E0F9A3E0FAA3E0FB1201F890A4661209B2
:1012A8002A90A443E0FCA3E0FDA3E0FEA3E0FF90A6
:1012B800A451E0F8A3E0F9A3E0FAA3E0FB1201F8D7
:1012C800C004C005C006C00790A4901209364000AB
:1012D8000000D007D006D005D00412230F90A45CDC
:1012E800E0F8A3E0F9A3E0FAA3E0FB1201F890A468
:1012F8007212092A7B017AA4797290A4BCE4F0A343
:101308007404F07F507E28121AA97B017AA479769A
:1013180090A4BCE4F0A37404F07F007E25121AA9FF
:101328007B017AA4796690A4BCE4F0A37404F07FEE
:10133800407E28021AA9789E7CA47D017BFF7A3B17
:1013480079497E007F0612061E7B017AA479969061
:10135800A4BCE4F0A37404F07F007E13121CF67B97
:10136800017AA4799A90A4BCE4F0A37404F07F05F0
:101378007E13121CF690A497E0FFE4FCFDFE7810A3
:101388001208EBC004C005C006C00790A496E0FF91
:10139800E4FCFDFE78181208EBD003D002D001D08F
:1013A80000EF4BFFEE4AFEED49FDEC48FCC004C0DF
:1013B80005C006C00790A498E0FFE4FCFDFE78088D
:1013C8001208EBD003D002D001D000EF4BFBEE4A5D
:1013D800FAED49F9EC48F8A3E0FFEB4FFFEAFEE924
:1013E800FDE8FC90A4A412092A90A49BE0FFE4FC69
:1013F800FDFE78101208EBC004C005C006C00790B7
:10140800A49AE0FFE4FCFDFE78181208EBD003D0A4
:1014180002D001D000EF4BFFEE4AFEED49FDEC484B
:10142800FCC004C005C006C00790A49CE0FFE4FC13
:10143800FDFE78081208EBD003D002D001D000EFEF
:101448004BFBEE4AFAED49F9EC48F8A3E0FFEB4F05
:10145800FFEAFEE9FDE8FC90A52012092AE47B6476
:10146800FAF9F890A520E0FCA3E0FDA3E0FEA3E0D4
:10147800FF12083A90A4A3EBF0E47B64FAF9F89021
:10148800A520E0FCA3E0FDA3E0FEA3E0FF12083ADC
:10149800E47B64FAF9F812083A90A4A2EBF0E47B32
:1014A800107A27F9F890A520E0FCA3E0FDA3E0FE60
:1014B800A3E0FF12083AE47B64FAF9F812083A90BC
:1014C800A4A1EBF0E47B64FAF9F890A4A4E0FCA3EF
:1014D800E0FDA3E0FEA3E0FF12083A90A4A0EBF021
:1014E800E47B64FAF9F890A4A4E0FCA3E0FDA3E08F
:1014F800FEA3E0FF12083AE47B64FAF9F812083A0E
:1015080090A49FEBF0E47B107A27F9F890A4A4E06C
:10151800FCA3E0FDA3E0FEA3E0FF12083AE47B642D
:10152800FAF9F812083A90A49EEBF0A3E0FFD394DE
:101538000074809480406ED3EF940C748094805033
:1015480064A3E0FF941F748094805054EF94007457
:10155800809480404BA3E0D39417748094805039D2
:10156800C3748094804032A3E0D3943B7480948009
:101578005020C3748094804019A3E0D3943B7480B6
:1015880094805007C3748094805020E490A4A3F002
:101598008019E490A4A2F08012E490A4A1F0800B3A
:1015A80090A4A0800390A49F7401F07B017AA47991
:1015B8009E90A4BCE4F0A37406F07F9D7E00121AEE
:1015C800A97B017AA5791E90A4BCE4F0A37402F06B
:1015D8007F9C7E00121AA902215F90A47EEBF0A3E3
:1015E800EAF0A3E9F090A435E0FCA3E0FDA3E0FE57
:1015F800A3E0FFEC4D4E4F700302184C90A4351237
:1016080009360000000090A455E0F8A3E0F9A3E033
:10161800FAA3E0FBC000C001C002C0037B007A400F
:10162800791C784690A462E0FCA3E0FDA3E0FEA349
:10163800E0FF120301D003D002D001D0001201074D
:1016480090A45512092A90A42DE0FCA3E0FDA3E084
:10165800FEA3E02401FFE43EFEE43DFDE43CFC90F3
:10166800A42D12092AE47F0AFEFDFC90A42DE0F8BF
:10167800A3E0F9A3E0FAA3E0FBC31208DA4029903B
:10168800A42D1209360000000090A44DE0FCA3E050
:10169800FDA3E0FEA3E02401FFE43EFEE43DFDE4FB
:1016A8003CFC90A44D12092A90A50AE0FEA3E0FF95
:1016B80090A47EA3E0FAA3E0F5828A8312096B90D6
:1016C800A510E0FCA3E0FDA3E0FEA3E0FF12045593
:1016D800AB07AA067C007D3C1206D090A483EEF0EE
:1016E800A3EFF07C007D3CAF03AE021206D090A4BD
:1016F80081ECF0A3EDF07B017AA4798390A4BCE49B
:10170800F0A37402F07F007E28121AA97B017AA444
:10171800798190A4BCE4F0A37402F07F057E2812BE
:101728001AA990A44DE0FCA3E0FDA3E0FEA3E0FF0E
:10173800E412041790A510E0F8A3E0F9A3E0FAA3D7
:10174800E0FB120107120455AB07AA067C007D3C9A
:101758001206D090A483EEF0A3EFF07C007D3CAF9E
:1017680003AE021206D090A481ECF0A3EDF07B0149
:101778007AA4798190A4BCE4F0A37402F07F257E5A
:1017880028121AA97B017AA4798390A4BCE4F0A357
:101798007402F07F207E28121AA97B017AA4795559
:1017A80090A4BCE4F0A37404F07F007E27121AA969
:1017B800E4FFFE7D7A7C4490A455E0F8A3E0F9A309
:1017C800E0FAA3E0FB1201F890A50CE0F8A3E0F919
:1017D800A3E0FAA3E0FB12039E501EE4FBFA797A19
:1017E800784490A50CE0FCA3E0FDA3E0FEA3E0FF95
:1017F80012030190A45512092A7F007E507DC37CF4
:101808004790A455E0F8A3E0F9A3E0FAA3E0FB129F
:1018180001F890A50CE0F8A3E0F9A3E0FAA3E0FB37
:1018280012030112045590A470EEF0A3EFF07B01AF
:101838007AA4797090A4BCE4F0A37402F07F307E9F
:1018480028121AA92290A47EEDF0AB07AA06E4A3F9
:10185800F0A31209360000000090A488120936008F
:10186800000000AE02AF037C007D0A1206D0AC0671
:10187800AD07E412041C90A48412092AE4FFFE7D3B
:10188800207C4190A484E0F8A3E0F9A3E0FAA3E067
:10189800FB12039E60025023E4FFFE7DA07C409073
:1018A800A484E0F8A3E0F9A3E0FAA3E0FB12039E06
:1018B800400990A47F7401F002198AE4FFFE7DA01C
:1018C8007C4190A484E0F8A3E0F9A3E0FAA3E0FB4C
:1018D80012039E60025025E4FFFE7D207C4190A407
:1018E80084E0F8A3E0F9A3E0FAA3E0FB12039E600A
:1018F8000B400990A47F7402F002198AE4FFFE7D70
:10190800C87C4290A484E0F8A3E0F9A3E0FAA3E03D
:10191800FB12039E60025024E4FFFE7DA07C4190F0
:10192800A484E0F8A3E0F9A3E0FAA3E0FB12039E85
:10193800600A400890A47F7403F08046E4FFFE7DAF
:10194800967C4390A484E0F8A3E0F9A3E0FAA3E02E
:10195800FB12039E60025024E4FFFE7DC87C429087
:10196800A484E0F8A3E0F9A3E0FAA3E0FB12039E45
:10197800600A400890A47F7404F0800690A47F74E5
:1019880005F090A47FE024FE603914605F147003B2
:10199800021A1F24036003021A7590A490120936D4
:1019A800BFCCCCCD90A484E0FCA3E0FDA3E0FEA3D3
:1019B800E0FF12230F90A48812092A7FDC7EAF7DF6
:1019C8000E805090A490120936BFECCCCD90A48420
:1019D800E0FCA3E0FDA3E0FEA3E0FF12230F90A428
:1019E8008812092A7FB87E287D80802790A49012CB
:1019F8000936BFE7AE1490A484E0FCA3E0FDA3E0A1
:101A0800FEA3E0FF12230F90A48812092A7F407ECC
:101A1800167D617C47802990A490120936C0000089
:101A28000090A484E0FCA3E0FDA3E0FEA3E0FF1285
:101A3800230F90A48812092A7F047EF67D077C482C
:101A480090A488E0F8A3E0F9A3E0FAA3E0FB120170
:101A5800F890A48012092A90A480E0FCA3E0FDA3DA
:101A6800E0FEA3E0FF90A46212092A800690A47FFA
:101A7800740AF090A47EE0FF64016005EF640370CF
:101A88001F90A462E0FCA3E0FDA3E0FEA3E0FF7BBF
:101A98009A7A997919783F1201F890A46212092A62
:101AA8002290A4B9EBF0A3EAF0A3E9F0AD07AC06E5
:101AB80090A4B9E0FBA3E0FAA3E04A4B7003021C30
:101AC800F5A3E0FEA3E0FF4E7003021CF5EEC3137E
:101AD800FEEF132DFFEE3CFED3EF94FEEE94FF4095
:101AE80003021CF5C2AFED5401FBECC313FCED136C
:101AF800FDAE047810CEC313CE13D8F9F5F1ECF58A
:101B0800F2AF058FF3E4F5F875F401D2FF30FCFD70
:101B1800C2FDEB6401707C90A4BCE0FEA3E0FF640E
:101B2800014E700AC2FBC2FAD2F9C2F88008C2FBA1
:101B3800C2FAD2F9D2F8EF64014E90A4B9701AE053
:101B4800FBA3E475F001120771A9F0FA120644F537
:101B5800FC90A4BDE024FF802DE0FBA3E475F00118
:101B6800120771A9F0FA120644F5FC90A4B9E0FB3B
:101B7800A3E475F001120771A9F0FA120644F5FD05
:101B880090A4BDE024FEF090A4BCE034FFF0D2FEA7
:101B980020FEFD90A4BCE0FEA3E0FF4E7003021CF3
:101BA800F0C3EF9404EE94004003021C7EEE702212
:101BB800EF14601614600D147018D2FBD2FAD2F923
:101BC800C2F8800ED2FBD2FA8004D2FBC2FAC2F964
:101BD800C2F890A4BCE0FEA3E0FFEE6003021C770D
:101BE800EF146076146047146003021C7790A4B960
:101BF800E0FBA3E475F001120771A9F0FA1206449C
:101C0800F5FA90A4B9E0FBA3E475F001120771A9F5
:101C1800F0FA120644F5FB90A4B9E0FBA3E475F0D2
:101C280001120771A9F0FA120644F5FC804190A44C
:101C3800B9E0FBA3E475F001120771A9F0FA1206E6
:101C480044F5FA90A4B9E0FBA3E475F0011207711A
:101C5800A9F0FA120644F5FB801590A4B9E0FBA39D
:101C6800E475F001120771A9F0FA120644F5FAD2E8
:101C7800FE30FE7480FBD2FBD2FAD2F9D2F890A4DF
:101C8800B9E0FBA3E475F001120771A9F0FA120696
:101C980044F5FA90A4B9E0FBA3E475F001120771CA
:101CA800A9F0FA120644F5FB90A4B9E0FBA3E47589
:101CB800F001120771A9F0FA120644F5FC90A4B9D4
:101CC800E0FBA3E475F001120771A9F0FA120644CB
:101CD800F5FDD2FE20FEFD90A4BDE024FCF090A40A
:101CE800BCE034FFF0021B9BE4F5F8D2AF2290A4CD
:101CF800B9EBF0A3EAF0A3E9F0AD07AC0690A4B9FC
:101D0800E0FBA3E0FAA3E04A4B7003021F3DA3E007
:101D1800FEA3E0FF4E7003021F3DEEC313FEEF1358
:101D28002DFFEE3CFED3EF94FEEE94FF4003021F1E
:101D38003DC2AFED5401FBECC313FCED13FDAE0443
:101D48007810CEC313CE13D8F9F5F1ECF5F2AF0540
:101D58008FF3E4F5F875F401D2FF30FCFDD2FDEB0A
:101D68006401707D90A4BCE07004A3E06401700A73
:101D7800C2FBC2FAD2F9C2F88008C2FBC2FAD2F991
:101D8800D2F8D2FE20FEFD90A4BCE07004A3E0646B
:101D98000190A4B9701BE0FBA3E475F00112077170
:101DA800A9F0FAE5FC12068A90A4BDE024FF021F00
:101DB8002DE0FBA3E475F001120771A9F0FAE5FC28
:101DC80012068A90A4B9E0FBA3E475F0011207712A
:101DD800A9F0FAE5FD12068A90A4BDE024FE021FD0
:101DE8002D90A4BCE0FEA3E0FF4E7003021F38C391
:101DF800EF9404EE94004003021EC6EE7022EF1426
:101E0800601614600D147018D2FBD2FAD2F9C2F819
:101E1800800ED2FBD2FA8004D2FBC2FAC2F9C2F811
:101E2800D2FE20FEFD90A4BCE0FEA3E0FFEE60031E
:101E3800021F38EF146070146044146003021F38E6
:101E480090A4B9E0FBA3E475F001120771A9F0FAB8
:101E5800E5FA12068A90A4B9E0FBA3E475F0011232
:101E68000771A9F0FAE5FB12068A90A4B9E0FBA372
:101E7800E475F001120771A9F0FAE5FC803B90A423
:101E8800B9E0FBA3E475F001120771A9F0FAE5FACD
:101E980012068A90A4B9E0FBA3E475F00112077159
:101EA800A9F0FAE5FB801290A4B9E0FBA3E475F071
:101EB80001120771A9F0FAE5FA12068A8072D2FBBC
:101EC800D2FAD2F9D2F8D2FE20FEFD90A4B9E0FBF6
:101ED800A3E475F001120771A9F0FAE5FA12068A6F
:101EE80090A4B9E0FBA3E475F001120771A9F0FA18
:101EF800E5FB12068A90A4B9E0FBA3E475F0011291
:101F08000771A9F0FAE5FC12068A90A4B9E0FBA3D0
:101F1800E475F001120771A9F0FAE5FD12068A903E
:101F2800A4BDE024FCF090A4BCE034FFF0021DE95D
:101F3800E4F5F8D2AF22C390A4F6E0940A90A4F591
:101F4800E09400500302214990A4C3E004F0E49017
:101F5800A4F5F0A3F090A4F4E07010E004F090A4CD
:101F6800C4E4F0A3740AF07E00FF2290A4C4E0FE4B
:101F7800A3E0FFC3744E9FFD74029EFCE412041C90
:101F880090A510E0F8A3E0F9A3E0FAA3E0FB1203A0
:101F98009E407D90A4C4E0FEA3E0FF744E9FFD74B4
:101FA800029EFCE412041CA804A905AA06AB07902B
:101FB800A510E0FCA3E0FDA3E0FEA3E0FF120301EF
:101FC800E4FBFA7980783F12010712045590A4C205
:101FD800EFF0A3E0C39F5003022147E4F090A4F47C
:101FE800E004F090A4C5E02402F090A4C4E034001A
:101FF800F0E0FEA3E0FFD3945AEE940140030221DF
:1020080039C3EF94D2EE9401400302213E022139F4
:1020180090A4C4E0FEA3E0FFC3744E9FFD74029E2B
:10202800FCE412041C90A510E0F8A3E0F9A3E0FA80
:10203800A3E0FB12039E6002506E90A4C4E0FEA3CE
:10204800E0FFC3744E9FFF74029EC313FCEF13FDA1
:10205800E412041C90A510E0F8A3E0F9A3E0FAA3A9
:10206800E0FB12039E404190A4C27402F0A3E094E6
:1020780002500302215BE4F090A4F4E004F090A481
:10208800C5E02402F090A4C4E03400F0E0FEA3E030
:10209800FFD3945AEE94015009C3EF94D2EE940101
:1020A800500302213902213E90A4C4E0FEA3E0FFC0
:1020B800C3744E9FFF74029EC313FCEF13FDE4121A
:1020C800041C90A510E0F8A3E0F9A3E0FAA3E0FB54
:1020D80012039E6002506890A4C4E0FEA3E0FFC310
:1020E800744E9FFD74029EFCE412041C90A510E03F
:1020F800F8A3E0F9A3E0FAA3E0FB120301120455E8
:1021080090A4C2EFF0E4A3F090A4F4E004F090A44B
:10211800C5E02FF090A4C4E03400F0E0FEA3E0FF97
:10212800D3945AEE94015009C3EF94D2EE9401501F
:10213800057EFF7FFE2290A4C4E0FEA3E0FF22807C
:102148001290A4F4E0D394227480948140057EFF19
:102158007FFF22E4FEFF2278AA7CA47D017BFF7A20
:102168003B79577E007F0212061E7B017AA479A86C
:1021780090A4BCE4F0A37402F07F9C7E00121CF6CD
:1021880090A4A8E0645A7004A3E064A56003022345
:102198000E90A4ACF0A3F0D20078AE7CA47D017BB5
:1021A800FF7A3B7959FE7F0712061E7B017AA479D4
:1021B800B590A4BCE4F0A37402F07F9D7E00121CCD
:1021C800F690A4B5E0FCA3E0FDEC90A4ACF0E0FF31
:1021D80075F00A84C454F0FEEF75F00A84EE25F019
:1021E80090A4AEF090A4ACEDF0E0FF75F00A84C4C2
:1021F80054F0FEEF75F00A84EE25F090A4AFF07B62
:10220800017AA479B590A4BCE4F0A37402F07F9E8F
:102218007E00121CF690A4B5E0FCA3E0FDEC90A4AF
:10222800ACF0E0FF75F00A84C454F0FEEF75F00AD4
:1022380084EE25F090A4B0F090A4ACEDF0E0FF752A
:10224800F00A84C454F0FEEF75F00A84EE25F0908D
:10225800A4B2F07B017AA479B590A4BCE4F0A3748D
:1022680002F07F9F7E00121CF690A4B5E0FCA3E06C
:10227800FDEC90A4ACF0E0FF75F00A84C454F0FEC5
:10228800EF75F00A84EE25F090A4B3F090A4ACEDBD
:10229800F0E0FF75F00A84C454F0FEEF75F00A848C
:1022A800EE25F090A4B4F07B017AA479AA90A4BC9E
:1022B800E4F0A304F07F9C7E00121AA930004712B4
:1022C80032897F101232C790A4B4E0FF1232C7904F
:1022D800A4B3E0FF1232C790A4B2E0FF1232C79055
:1022E800A4B1E0FF1232C790A4B0E0FF1232C79049
:1022F800A4AFE0FF1232C790A4AEE0FF1232BC12C6
:10230800390AC20080B62290A48C12092AE4FFFE82
:102318007D807C3F90A48CE0F8A3E0F9A3E0FAA3C9
:10232800E0FB12039E700690A48C02246990A48C92
:10233800E0FCA3E0FDA3E0FEA3E0FF1204D6FBA3AC
:10234800E0FCA3E0FDA3E0FEA3E0FF1204D6FFB487
:102358000108E4FFFE7D807C3F22EF64046029EBE6
:1023680064046024EBB40130E4FFFEFDFC90A4900B
:10237800E0F8A3E0F9A3E0FAA3E0FB12039E6008EB
:102388004006E4FFFEFDFC2290A490120936FFFFF0
:10239800FFFF90A490022469E490A494F0A3F0FFB6
:1023A800FEFDFC90A48CE0F8A3E0F9A3E0FAA3E01A
:1023B800FB12039E505F90A490E0FCA3E0FDA3E015
:1023C800FEA3E0FF12045590A494EEF0A3EFF0FDF5
:1023D800CCEECCEC12041CC8ECC8C9EDC9CAEECAD4
:1023E800CBEFCB90A490E0FCA3E0FDA3E0FEA3E03C
:1023F800FF120103E4FBFAF9F812039E708A90A415
:102408008CE0FCA3E0FDA3E0FEA3E0FF1204F09043
:10241800A48C12092A90A48CE0FCA3E0FDA3E0FEA2
:10242800A3E0FF12273990A490E0F8A3E0F9A3E015
:10243800FAA3E0FB1201F812309090A49012092A36
:1024480090A495E030E01790A490E0FCA3E0FDA3F1
:10245800E0FEA3E0FF1204F090A49012092A90A4D1
:1024680090E0FCA3E0FDA3E0FEA3E0FF2290A48996
:10247800EBF090A488EDF0EF24D0FEE4340790A4AC
:102488008BF0A3CEF0EDFF64016005EF64027015D8
:1024980090A488E0240CF090A48CE024FFF090A491
:1024A8008BE034FFF090A48BE0FEA3E0FFC394D848
:1024B800EE94064034BE0610BFD80D90A488E0C341
:1024C800940974809480402190A48BE06406700481
:1024D800A3E064D8706590A488E06409705DA3E007
:1024E800C3940374809480505290A488E0FB240124
:1024F800FFE433FE7C007D031206BE7D051207252E
:10250800AD07EB75F002A4FFA3E07A002FFFEA35D0
:10251800F0CF2DCF3EFE90A48BE0FCA3E0FD2FFB77
:10252800EC3EFAAE04ED7802CEC313CE13D8F92BE5
:10253800FFEA3ECF2406CF3400807C90A488E024B4
:1025480001FFE433FE7C007D031206BE7D05120701
:1025580025AC06AD07A3E02401FBE433FA90A48878
:10256800E075F002A42BFFE5F03ACF2DCF3CFE90AA
:10257800A48BE0FCA3E0FD2FFBEC3EFAAE04ED7863
:1025880002CEC313CE13D8F92BFBEA3EFA90A48BE4
:10259800E0FEA3E0FF7C007D641206D0C3EB9FFB46
:1025A800EA9EFA90A48BE0FEA3E0FF7C017D9012E6
:1025B80006D0EF2BFFEE3AFE7C007D071206D09086
:1025C800A48AEDF090A48AE0FF2278807CA47D01A3
:1025D8007BFF7A3B794F7E007F0812061E1232C2BB
:1025E800123914123A277F651232C77C06ECD3944D
:1025F8000074809480401512002E74802CF582E4BB
:1026080034A4F583EFF01200161C80E112002E901E
:10261800A480EFF0123AC6123919E4FCECC3940313
:1026280074809480503074802CF582E434A4F5834F
:10263800E0FFC4540FFE90A47EF0EF540FFFA3F008
:10264800EE75F00AA42FFF74802CF582E434A4F50B
:1026580083EFF00C80C67C04ECC3940774809480EC
:10266800503074802CF582E434A4F583E0FFC45420
:102678000FFE90A47EF0EF540FFFA3F0EE75F00A62
:10268800A42FFF74802CF582E434A4F583EFF00CBA
:1026980080C690A480E0FFA3E0FDA3E0FB122475B0
:1026A80090A483EFF07B017AA4798090A4BCE4F035
:1026B800A37402F07F107E00121AA97B017AA47914
:1026C8008290A4BCE4F0A37402F07F117E00121A79
:1026D800A97B017AA4798490A4BCE4F0A37402F0E5
:1026E8007F127E00121AA97B017AA4798690A4BC75
:1026F800E4F0A37402F07F137E00021AA93E924808
:10270800DA3ECCCCCD3F2AAAAB400000003F800087
:10271800003F9837F03FB504F33FD744FC3E317291
:10272800173EB172173F0515913EDE5BD9D2008086
:1027380002C200EDD2E7F8CD33EC3304700BBD8054
:102748000592D50204CB0204C140FBD31460F2F514
:10275800F07C3FEE7A00C39496C8948B40230AC855
:102768009469C8941A401A0AC89468C8941F4011FA
:102778000AC8945AC89425400805F07A00CDC2E7E3
:10278800CDC0F090A49612092AEA2323C0E02415AC
:10279800F582E43427F58312091A120107ECC0E028
:1027A800EDC0E0EEC0E0EFC0E01208FE90A4961283
:1027B800090E120103D0E0FBD0E0FAD0E0F9D0E036
:1027C800B2E7F812030190A49612092A902705741B
:1027D8000312050190A49612090E1201F8D0E060C8
:1027E8000F2421F582E43427F58312091A12010710
:1027F80090A49612092AD0E0C3947FFDE49400FCCB
:1028080012041C7B187A727931783F1201F890A46F
:102818009612090E12010730000B7BD97A5B79DE1C
:10282800783E1201F8227B017AA4798290A4BCE454
:10283800F0A37402F07F007E51121CF690A482E08F
:10284800FEA3E0FFEE704CEF24FE60191460221422
:10285800602B1460342404703A90A50C1209364396
:10286800FA0000802E90A50C120936447A000080E8
:102878002290A50C12093644BB8000801690A50C46
:10288800120936451C4000800A90A50C12093645ED
:102898007A000090A50AE0FEA3E0FF122B1590A590
:1028A80010E0FCA3E0FDA3E0FEA3E0FF120455AB9B
:1028B80007AA067C007D3C1206D090A480EEF0A307
:1028C800EFF07C007D3CAF03AE021206D090A47EF0
:1028D800ECF0A3EDF07B017AA4798090A4BCE4F03D
:1028E800A37402F07F207E28121AA97B017AA479AA
:1028F8008090A4BCE4F0A37402F07F007E28121A32
:10290800A97B017AA4797E90A4BCE4F0A37402F0B8
:102918007F057E28121AA97B017AA4797E90A4BC2F
:10292800E4F0A37402F07F257E28021AA9AEAD90C8
:10293800A4F7E0FCA3E0FDEC704BED1460200470FC
:1029480044EE64576003022A3574FA2DF58274A4A4
:102958003CF583EEF090A4F7E4F0A304F022EE70C7
:102968001C90A4F7E0FCA3E024FAF58274A43CF5DB
:1029780083EEF090A4F7E4F0A37402F022E490A4AC
:10298800F7F0A3F02290A4F7E0FCA3E024FAF58284
:1029980074A43CF583EEF090A4F8E004F07006907F
:1029A800A4F7E004F0D390A4F8E0940F90A4F7E023
:1029B80094004079E4F0A3F090A4FBE0FF90A4FA1F
:1029C800E02FFF90A4FCE02FFFA3E02FFFA3E02F50
:1029D800FFA3E02FFFA3E02FFFA3E02FFFA3E02F2B
:1029E800FFA3E02FFFA3E0FD2FFFA3E0FE2FFFA32F
:1029F800E02FFFA3E02FFFA3E02FFFA3E0B5072DF3
:102A0800EE702A90A503E07B00FAED7E007810C3F3
:102A180033CE33CED8F9FFEE4AFEEF4BFF90A50236
:102A2800E0FDEF4DFF90A50AEEF0A3EFF02290A491
:102A38008DEBF0A3EAF0A3E9F0E490A498F0A3F0FA
:102A4800A3F0A3F0C390A497E0940790A496E09411
:102A58000050037F022290A48DE0FBA3E0FAA3E0DC
:102A6800F9120644645A60037F032290000112069B
:102A78005D64A560037F032290000212065D2403B3
:102A8800FFE433FE90A498F0A3EFF0C390A497E07E
:102A98009F90A496E09E4072E490A49AF0A3F090D0
:102AA800A498E0FEA3E0FFA3E0FCA3E0FDC39FEC35
:102AB8009E503C90A48DE0FBA3E0FAA3E0F9120637
:102AC80044FF90A490E0FBA3E0FAA3E0F98D828C88
:102AD80083EF12069C90A48EE475F00112075B90B8
:102AE800A49BE004F070B890A49AE004F080B09041
:102AF800A498E0F9A3E0FF90A493E0FBA3E0FAA375
:102B0800E0C98FF01207B27F01227F0222AD07AC25
:102B180006E412041CE4FBFA7920784112030190C0
:102B2800A48412092AE4FFFE7DC87C4390A484E0B3
:102B3800F8A3E0F9A3E0FAA3E0FB12039E5024E413
:102B4800FFFE7DA07C4090A484E0F8A3E0F9A3E018
:102B5800FAA3E0FB12039E600A400890A51C7401CA
:102B6800F0800690A51C7405F090A51DE064036034
:102B78002590A51CE014706D90A462E0F8A3E0F91C
:102B8800A3E0FAA3E0FB90A50CE0FCA3E0FDA3E022
:102B9800FEA3E0FF804690A51CE0147048E4FFFE09
:102BA8007D7A7C4490A455E0F8A3E0F9A3E0FAA369
:102BB800E0FB1201F8A804A905AA06AB0790A50C2A
:102BC800E0FCA3E0FDA3E0FEA3E0FF12010390A454
:102BD80062E0F8A3E0F9A3E0FAA3E0FB1203019096
:102BE800A51002092A90A51C7406F02290A46EE094
:102BF8007004A3E064016003022CCB90A442E0645B
:102C08000170077D027F041235B290A442E090A4BF
:102C18003CF090A460E0FFA3E090A43FCFF0A3EFC6
:102C2800F090A46BE090A43EF090A43D7401F09065
:102C3800A45AE0FEA3E0FF7B017AA4793990A4BCF2
:102C4800E4F0A37408F0121AA990A45AE0FEA3E0D5
:102C5800FF7B017AA4796C90A4BCE4F0A37402F021
:102C6800121CF690A46DE0FF90A46CE0B507DA9012
:102C7800A46AE090A43EF0E490A43DF090A45AE049
:102C8800FEA3E0FF7B017AA4793990A4BCE4F0A309
:102C98007408F0121AA990A45AE0FEA3E0FF7B0181
:102CA8007AA4796C90A4BCE4F0A37402F0121CF628
:102CB80090A46DE0FF90A46CE0B507DAE490A46EF0
:102CC800F0A3F02290A442E0640170077D027F0423
:102CD80012355490A442E090A43CF0E4A3F090A4F0
:102CE8006AE090A43EF090A44BE0FFA3E090A43FDC
:102CF800CFF0A3EFF090A45AE0FEA3E0FF7B017AA7
:102D0800A4793990A4BCE4F0A37408F0121AA9902D
:102D1800A45AE0FEA3E0FF7B017AA4796C90A4BCDE
:102D2800E4F0A37402F0121CF690A46DE0FF90A4E6
:102D38006CE0B507DA90A43D7401F090A46BE090C4
:102D4800A43EF090A45AE0FEA3E0FF7B017AA479A8
:102D58003990A4BCE4F0A37408F0121AA990A45AFC
:102D6800E0FEA3E0FF7B017AA4796C90A4BCE4F0B8
:102D7800A37402F0121CF690A46DE0FF90A46CE01E
:102D8800B507DA90A46EE4F0A304F022C0E0C0F026
:102D9800C083C082C0D075D000C000C001C002C0CE
:102DA80003C004C005C006C007C2AF758CBC758AD5
:102DB800CD90A526E004F0700690A525E004F090DB
:102DC800A532E0FCA3E0FDA3E0FEA3E02401FFE4BC
:102DD8003EFEE43DFDE43CFC90A53212092AE47F66
:102DE80064FEFDFC90A532E0F8A3E0F9A3E0FAA3A5
:102DF800E0FBC31208DA403790A4F6E004F070064E
:102E080090A4F5E004F090A435E0FCA3E0FDA3E075
:102E1800FEA3E02401FFE43EFEE43DFDE43CFC901B
:102E2800A43512092A90A53212093600000000D2F2
:102E3800AFD007D006D005D004D003D002D001D03F
:102E480000D0D0D082D083D0F0D0E03290A494EEDD
:102E5800F0A3EFF090A442E024F87003022EEC24D3
:102E6800076003022F1290A494E064307004A3E07A
:102E78006410705D123ADAEF6401704490A51DE0A9
:102E88006405702212361090A51D7403F0122CCC24
:102E98007B017AA5791690A4BCE4F0A37402F07FB4
:102EA800107E30021AA990A51DE064027006740312
:102EB800F0022CCC90A51DE06404704E7403F0223F
:102EC800123ADAEF90A51D70047404F0227401F030
:102ED8002290A494E0B43032A3E0B4202D90A51D34
:102EE8007406F02290A494E0FEA3E0FF644070030F
:102EF800EE64146015EF64417003EE6414600BE433
:102F0800B50707EEB4140312133E22E490A48DF023
:102F1800A3F090A22DE0FEA3E0FDEDFF90A48DEEBE
:102F2800F0A3EFF090A22CE06482703D7B017AA2BE
:102F3800792F90A22BE024FDFEE434FF90A4BCF08E
:102F4800A3CEF090A48DE0FEA3E0FF121AA990A2F0
:102F58002B7403F090A22D744FF0A3744BF07B01F7
:102F68007AA2792990A22B803E90A22CE0648370EB
:102F78003D7B017AA2793090A22FE075F002A4FF80
:102F880090A4BCE5F0F0A3EFF090A48DE0FEA3E0E0
:102F9800FF121CF690A22FE025E0FF90A22BE02F55
:102FA800F07B017AA27929E02403FD12375A2275B1
:102FB8009401759502758E0075930075C87075C972
:102FC8006075F800787FE4F6D8FD7581200230132B
:102FD8000239E7E493A3F8E493A34003F68001F2EF
:102FE80008DFF48029E493A3F85407240CC8C333FA
:102FF800C4540F4420C8834004F456800146F6DFC9
:10300800E4800B0102040810204080900D3FE47E0C
:10301800019360BCA3FF543F30E509541FFEE493BD
:10302800A360010ECF54C025E060A840B8E493A384
:10303800FAE493A3F8E493A3C8C582C8CAC583CAAF
:10304800F0A3C8C582C8CAC583CADFE9DEE780BE67
:1030580033DA929E35B16011377FE5FE39218489D4
:103068003AAEC3FF3C1D955B3D6358473E75FDF086
:103078003F3172183F800000C2D50204CB0204C160
:10308800BD80FA50F30204C8ED33EC330460F17BE1
:103098003B7AAA79B8783F1201F8ED33EC3392D530
:1030A800247B5011A2D570DB500BED4480240450D2
:1030B80004A2D580CEEFFBEEFAEDF9ECF812045538
:1030C800EFF582F404FC120421120107C08290304B
:1030D800587409120510ED33CC33D0F092D525F091
:1030E800A2D57001C313CC13FD2290A52DEFF07863
:1030F8002E7CA57D017BFF7A3B792B7E007F041215
:10310800061E7B017AA5792E90A4BCE4F0A3740472
:10311800F07F807E00121CF690A52E745AF090A5C0
:103128002DE0FD3395E0FCED64014C700990A5316C
:10313800E054F7F0800DED64024C703F90A531E04B
:103148004408F07B017AA5792E90A4BCE4F0A3741E
:1031580004F07F807E00121AA97F057E0012392BA9
:103168007B017AA5792E90A4BCE4F0A304F07F80BB
:103178007E00121CF690A52EE070DE22787E7CA4DC
:103188007D017BFF7A3B79377E007F1012061EE4B3
:1031980090A48EF0A3F0A3F0A3F0A3F0A3F090A462
:1031A8002AE0FDFEA3E0FBF582E582FF90A492EE03
:1031B800F0A3EFF090A229745AF0A374A5F090A49C
:1031C8002CE0FC25E0240390A22BF0A37483F0A349
:1031D800EDF0A3EBF07B017AA2792FEC75F002A455
:1031E800FF90A4BCE5F0F0A3EFF090A492E0FEA35A
:1031F800E0FF121CF690A492E0FEA3E0FF022E541A
:10320800C0E0C0F0C083C082C0D075D000C000C08C
:1032180001C002C003C004C005C006C007E4FFC265
:10322800AFE5AB54016401703B122935AFAD908016
:1032380088E0FCA3E02400F58274803CF583EFF07D
:10324800908089E004F07006908088E004F053AB29
:10325800FEC3908089E09480908088E094004004C8
:10326800E4F0A3F0D2AFD007D006D005D004D00345
:10327800D002D001D000D0D0D082D083D0F0D0E01E
:1032880032123A277F641232C77F301232C7E4FF06
:103298001232C7123919123A277F641232C77F1CBB
:1032A8001232C77F481232C7E4FF1232C77F40127A
:1032B80032C77F101232C7123919123A277F64AE0B
:1032C80007120066E4FDEDC39408748094805019D9
:1032D800EE30E704D2B38002C2B3EE25E0FE123925
:1032E800D2C2B21239D70D80DD0238E712273590E5
:1032F800A4BE12092AE4FFFEFDFC90A4BEE0F8A3D8
:10330800E0F9A3E0FAA3E0FB12039E40437FAE7E00
:10331800477DE17CBD90A4BEE0F8A3E0F9A3E0FA04
:10332800A3E0FB1201077B3D7A0A79477840120334
:1033380001E4FBFA79F078421201F8A804A905AA79
:1033480006AB07E4FFFE7DE97C4312010302045546
:103358007E017FD22290A442E0FF90A459E06F60E2
:1033680008EFF090A51D7401F090A51DE0B40700CA
:10337800504B903381F828287302339602339C020D
:1033880033A50233A80233AD0233B20233B790A596
:103398001D7401F090A51D7402F012006202282E1F
:1033A800D2950233C6C29502006AC2950239FDC29F
:1033B80095123610122BF490A51D7401F0227BFF94
:1033C8007A2B79151215E2E4FFFE7D7A7C4490A4ED
:1033D80055E0F8A3E0F9A3E0FAA3E0FB1201F890A6
:1033E800A50CE0F8A3E0F9A3E0FAA3E0FB12039E22
:1033F800602B4029E4FFFEFDFC90A510E0F8A3E057
:10340800F9A3E0FAA3E0FB12039E6011400FC390FA
:10341800A471E0946490A470E09400400690A51D07
:103428007405F022C0E0C083C082C0D075D000C04F
:1034380004C007C2AF309837AF99908082E0FCA3F0
:10344800E0248AF58274803CF583EFF0908083E075
:1034580004F07006908082E004F0C3908083E094CA
:10346800A0908082E0941F4004E4F0A3F0C298305A
:103478009907C299908080E4F0D2AFD007D004D0E9
:10348800D0D082D083D0E03290A527EEF0A3EFF021
:1034980078297CA57D017BFF7A3B79337E007F0408
:1034A80012061E90A527E0FCA3E0FDEC90A52BF0EA
:1034B800A3EDF07B017AA5792990A4BCE4F0A3746C
:1034C80004F07F847E00121AA97F057E0012392B32
:1034D8007B017AA5792990A4BCE4F0A304F07F8449
:1034E8007E00121CF690A529E070DE22C0E0C083A1
:1034F800C082C0D075D000C004C007C2AFE59B3001
:10350800E028AF9C908084E0FCA3E0242AF5827434
:10351800A03CF583EFF0908085E004F07006908081
:1035280084E004F0539BFE539BFEE59B30E10B5374
:103538009BFD539BFD908081E4F043C901D2AFD03D
:1035480007D004D0D0D082D083D0E03290A442E01B
:1035580090A43CF0A3EFF0A3EDF090A44BE0FFA300
:10356800E090A43FCFF0A3EFF090A45AE0FEA3E0D0
:10357800FF7B017AA4793990A4BCE4F0A37408F025
:10358800121AA990A45AE0FEA3E0FF7B017AA4795D
:103598006C90A4BCE4F0A37402F0121CF690A46D25
:1035A800E0FF90A46CE0B507DA2290A442E090A472
:1035B8003CF0A3EFF0A3EDF090A460E0FFA3E0904F
:1035C800A43FCFF0A3EFF090A45AE0FEA3E0FF7B66
:1035D800017AA4793990A4BCE4F0A37408F0121A13
:1035E800A990A45AE0FEA3E0FF7B017AA4796C902D
:1035F800A4BCE4F0A37402F0121CF690A46DE0FFE2
:1036080090A46CE0B507DA2290A4551209360000A0
:1036180000007B017AA4795590A4BCE4F0A374045B
:10362800F07F007E27121AA9E490A470F0A3F07B23
:10363800017AA4797090A4BCF0A37402F07F307E64
:1036480028121AA990A44D120936000000007B0127
:103658007AA5791490A4BCE4F0A37402F07F107EDC
:1036680030021AA91232C27F1D1232C7123919123A
:103678003A277F651232C712002EAC0712001612C5
:10368800002E123AC6123919EC54026402702E1236
:1036980032897F101232C7E4FF1232C7E4FF1232B8
:1036A800C7E4FF1232C77F011232C77F011232C747
:1036B8007F011232C77F171232BC12390A22787E74
:1036C8007CA47D017BFF7A3B792F7E007F04120664
:1036D8001E7B017AA4792990A4BCE4F0A37404F0B9
:1036E8007F007E0F121CF690A429E0645A70187BA4
:1036F800017AA4797E90A4BCF0A37404F07F007EC4
:103708000F121AA97F01227F002290A53FEBF0A398
:10371800EAF0A3E9F0ED703990A53FE0FBA3E0FAE9
:10372800A3E0F9120086EF602890A4C6E0FEA3E0AB
:10373800FF7B017AA5793F90A4BCE4F0A37403F061
:10374800121AA990A4C7E02402F090A4C6E034009D
:10375800F02290A48FEBF0A3EAF0A3E9F090A48FF5
:10376800E0FBA3E0FAA3E04A4B6027ED6024AF0535
:103778001DEF601E90A48FE0FBA3E0FAA3E0F9120E
:103788000644FF123A5F90A490E475F00112075BBB
:1037980080DC2290A536EBF0A3EAF0A3E9F090A52F
:1037A80036E0FBA3E0FAA3E04A4B6027ED6024AFC4
:1037B800051DEF601E90A536E0FBA3E0FAA3E0F933
:1037C800120644FF123A6D90A537E475F00112070E
:1037D8005B80DC2290A539EBF0A3EAF0A3E9F09036
:1037E800A539E0FBA3E0FAA3E04A4B6027ED60248B
:1037F800AF051DEF601E90A539E0FBA3E0FAA3E03A
:10380800F9120644FF123AA390A53AE475F00112A2
:10381800075B80DC227B017AA4794190A4BCE4F0A8
:10382800A37402F07F147E00121CF690A442E0FFFD
:103838001460161460181460152403701490A459A9
:10384800EFF090A51D7401F02212335D8000121074
:103858004E2290A4CAE4F0A37402F090A4D874FF96
:10386800F0A3E4F090A4CCF0A304F090A4DAE4F080
:10387800A37402F090A4E874FFF0A3E4F090A4DC31
:10388800F0A304F090A4EE74FFF0A3E4F022E49017
:10389800A495F0A3F0A3F0A3F0AE04AF05C003C055
:1038A8000290A492E0FBA3E0FAA3E0F8AC02AD0317
:1038B800D002D00312061E7F012243B71043C9402D
:1038C800E4908080F0908082F0A3F075D88075989D
:1038D8005053877F75BA0375AAE4D29CD2AC2212E2
:1038E80000261239D0E4FEEEC394327480948050DE
:1038F8000930B3061239D70E80EDC2B21239D70299
:1039080000667F1E1232C7E4FF1232C77F101232E0
:10391800C7120066C2B3D2B21239D7D2B31239D79E
:10392800020026E4FDFCC3ED9FEC9E5015E4FBFA73
:103938000BBB00010ABA1CF8BBE8F50DBD00010C71
:1039480080E42243B7C043C920E4908081F090808E
:1039580084F0A3F0759BD075BB03759DC8759A015B
:103968002290A542EFF07B017AA5794290A4BCE4AD
:10397800F0A304F07F827E00021AA9C390A526E076
:1039880094F490A525E09401400A1225D2E490A56C
:1039980025F0A3F022E490A51DF07B017AA5791407
:1039A80090A4BCF0A37402F07F107E30021AA975AF
:1039B800F90175B7C375BCA375BD2A75BE0CE4F5CE
:1039C80080F590F5A0F5B022D2B31239D7D2B2E47F
:1039D800FFEFC394507480948050030F80F3221239
:1039E8003A4E12366CC295123A89123AAF12381D05
:1039F80012398380F57B017AA5791490A4BCE4F090
:103A0800A37402F07F107E30021AA975C870E4F51D
:103A1800CDF5CC75CBBC75CACD43A820D2C822122F
:103A28000066D2B3D2B21239D7C2B31239D7C2B2F2
:103A38000239D7E4908086F0A3F075968075978058
:103A4800F5D975E7E022C2AF123A971239B7123AA0
:103A5800D112005BD2AF22908080E0640160F874DC
:103A680001F08F9922908081E0640160F87401F080
:103A78008F9C22438901758CBC758ACDD2A9D28CC2
:103A88002290A439745AF0A374A5F0E4A3F022E4B8
:103A9800F5A8F5B8F59AF5A9F5B9228FACE5A754BC
:103AA8000160FA53A7FE221236C6EF600312318472
:103AB8000209997BFF7A3A79E07D1502375A12009C
:103AC800661239D0C2B20239D71238C2123A3B0252
:103AD800006E90A230E0FF225561727432496E691F
:103AE8007420446F6E652121213132330055617293
:103AF8007433496E697420446F6E65212121005525
:103B080061727434496E697420446F6E6521212195
:103B1800005561727435496E697420446F6E652171
:103B280021210000000000000000005A01000000F0
:103B3800000000000000000000000000000000007D
:103B4800000000000000000000000000000000006D
:083B5800000000000000000065
:00000001FF
