:1000000002810F020006C2AFD2AF32024303C2AF79
:10001000D2AF3202000EE4908613F0A3F075A780F1
:1000200075AB80F5AE75AFE0D2BD22025E4912001D
:100030005E129603E4FEEEC39432748094805009FD
:1000400030B30612960A0E80EDC2B212960A020072
:1000500066322202927CAE070296DB02410F53BE4B
:0A006000F7222202005143BE0822DD
:10006B00028B0178897C847D017BFF7A9D79137EDD
:10007B00007F081207D0C2AF90848974AAF09086D3
:10008B0069E090848AF090849074DDF090876AE048
:10009B00FEA3E0FF7B017A8479899084E2E4F0A3EC
:1000AB007404F0127F2612937390876AE0FEA3E02C
:1000BB00FF7B047A007D107C00127DD1129373E4D8
:1000CB00908793F0A3F090876AE0FFA3E090879569
:1000DB00CFF0A3EFF07B017A8779939084E2E4F081
:1000EB00A37402F0E4FFFE127F26D2AF22FFFF447F
:1000FB0057494E54350204C1E86480F8E933E833BC
:10010B0060110460F0ED33EC337009E8FCE9FDEAB3
:10011B00FEEBFF220460DED3EB9FEA9EE99DE8C273
:10012B00E78CF0C2F795F0400CE8CCF8E9CDF9EA92
:10013B00CEFAEBCFFB12048C85D0F0580470032061
:10014B00D5B3E80470075002B2D50204CB92D5ECBC
:10015B000460F7E4CCC0E0C398F8603B94186008E7
:10016B00400DD0E0FB0204A3E4FBFAC9FC8028E8B5
:10017B0030E406E4C9FBE4CAFCE830E305E4C9CA91
:10018B00CBFCE854076010F8C3E913F9EA13FAEB58
:10019B0013FBEC13FCD8F130F52FC3E49CFCEF9B65
:1001AB00FFEE9AFEED99FDD0E0FBEF4E4D4C701239
:1001BB0022DB030204C8EC2CFCEF33FFEE33FEED25
:1001CB0033FDED30E7EB0204A3EF2BFFEE3AFEED30
:1001DB0039FDD0E0FB50130BBB00030204CBED1336
:1001EB00FDEE13FEEF13FFEC13FC0204A3EC4D60CA
:1001FB0011E8497017ED33EC3304600DE4FCFFFE9E
:10020B00FD22E933E8330470F80204C112048C5860
:10021B00046009E4CC248150062850090204CB2841
:10022B0040030204C8C0E0EB4A7044B98006D0E03A
:10023B00FB0204B7EF4E701CBD8008EBFFEAFEE932
:10024B00FD80EBE98DF0A4FEE5F00202E1E9CDF9CA
:10025B00EAFEEBFFEF89F0A4FCE5F0CE89F0A42ECB
:10026B00FFE435F0CD89F0A42DFEE435F08067EF87
:10027B004E7005BD80D780C3EF8BF0A4ACF0EE8B36
:10028B00F0A42CFCE435F0F8EF8AF0A42CE5F03860
:10029B00FCE433CB8DF0A42CFCE5F03BF8EE8AF0BC
:1002AB00A42CFCE5F038F8E433CF89F0A42CFCE562
:1002BB00F038CF3400CE89F0A42FFFE5F03EFEE4FA
:1002CB0033C98DF0A42EFEE5F039CD8AF0A42FFFB3
:1002DB00E5F03EFEE43DFD33D0E0FB50070BBB00E9
:1002EB000F0204CBEC2CFCEF33FFEE33FEED33FDB2
:1002FB000204A30204CBEC5D046005E8590470030F
:10030B000204C112048C580460F6EC4860F2EC70E5
:10031B0004FDFEFF22C860DB2481C85009C398602E
:10032B000250060204C89850CAF582E9294B4A705C
:10033B0005AB820204B775F0007C1A7880C3EF9B83
:10034B00EE9AED99400DC3EF9BFFEE9AFEED99FDF2
:10035B00E842F0DC23ACF0D0E0FFD0E0FED0E0FDD3
:10036B00AB8220E7101BEB60BAEC2CFCEF33FFEEFB
:10037B0033FEED33FD0204A3E803F830E705C0F0CC
:10038B0075F000EF2FFFEE33FEED33FD40B830E795
:10039B00C280AA74F8CC6480CCC86480C8F582048F
:1003AB00604FC3EB9FF5F0EA9E42F0E99D42F0E807
:1003BB009C45F0603C501DE5825FFFE582D313CB7B
:1003CB005BCBF42B5582FB50280ABA002409B900E9
:1003DB002008801DE5825BFBE582D313CF5FCFF452
:1003EB00C3132F5582FF50090EBE00050DBD000132
:1003FB000CC3EB9FF5F0EA9E42F0E99D42F0E89CBE
:10040B0045F06007CC4820E701B3EC2275F0208063
:10041B000E75F010800575F0087D007E007F0033AF
:10042B0092D530D5031209E5EC334010EF33FFEED4
:10043B0033FEED33FDEC33FCD5F0ED22E5F0247EFD
:10044B00A2D513CC92E7CDCEFF22EDD2E7CD33EC84
:10045B003392D524814006E4FFFEFDFC22FCE4CF61
:10046B00CECDCC24E0501174FF80EDC3CC13CCCD9A
:10047B0013CDCE13CECF13CF0470F030D5DE0209DF
:10048B00E5E9D2E7C933E833F892D5EDD2E7CD33BE
:10049B00EC33FC5002B2D522EC30E7100FBF000C4E
:1004AB000EBE00080DBD00040BEB6014A2D5EB13C0
:1004BB00FCED92E7FD2274FFFCFDFEFF22E480F8C9
:1004CB00A2D574FF13FC7D80E480EFED33EC336039
:1004DB001004700FED547F7005740292E0227404C7
:1004EB00220422E422ED33EC33600A047003BD8056
:1004FB0004ECB2E7FC22F920E73624F95003790724
:10050B00E4F42402FBE582158270021583DBF6E02E
:10051B0024FB501BE96014E4F0E582158270021590
:10052B0083E004F0B40A08E4F0D9EE7401F00A2277
:10053B00C2D522ED33EC3392D5FA602AB4FF33EDFA
:10054B00C2E77BFF60067A057963E4227A05796C52
:10055B0020D5047A057967224E614E002B494E4611
:10056B00002D494E4600E47A08F0A3DAFC7B0074B8
:10057B000722C083C082ECC0E0EDC0E0EEC0E0EF2C
:10058B00C0E0EA75F010A4CAABF075F04DA42BFBDC
:10059B00E435F0FCEA2410FAEB34C5FBEC34D9FC5F
:1005AB00EDC2E7FF75F056A4F42411C5F0F434C581
:1005BB008FF0A42AE5F03BE43CF020E7141206C0D0
:1005CB00D0E0FFD0E0FED0E0FDD0E0FC12030180D4
:1005DB0014F4041206C0D0E0FFD0E0FED0E0FDD052
:1005EB00E0FC1201F8D082D083E0FAEDD2E7CD33F4
:1005FB00EC332482FBE4C3CF33CFCE33CECD33CD1C
:10060B0033DBF37B0775F00A846004F0A31B0AE568
:10061B00F0F0A38FF0740AA4FFACF08EF0740AA470
:10062B002CFEACF050010C8DF0740AA42CFDE435BB
:10063B00F0F0A3DBDE740722C0E0EFFBEEFAEDF97E
:10064B00ECF81201F8D0E0F5F0EFFBEEFAEDF9EC77
:10065B00F8120A06A3A3A3A3E8C0E0E9C0E0EAC02E
:10066B00E0EBC0E0C0F01201F8120A22A3A3A3A38F
:10067B00120107D0F0D0E0FBD0E0FAD0E0F9D0E0E7
:10068B00F8D5F0D4223F8000004120000042C80082
:10069B0000447A0000461C400047C35000497424B4
:1006AB00004B1896804CBEBC205A0E1BCA6753C217
:1006BB001C749DC5AEFB60065407601C23231206F9
:1006CB00EEEB543860091206DA1206E91201F8EC67
:1006DB00F8EDF9EEFAEFCB22EB1206E980F1543884
:1006EB0003241C900690FE93FC0EEE93FD0EEE93EE
:1006FB000ECE93FF22E709F608DFFA8046E709F2F0
:10070B0008DFFA803E88828C83E709F0A3DFFA804A
:10071B0032E309F608DFFA8078E309F208DFFA80A2
:10072B007088828C83E309F0A3DFFA806489828A64
:10073B0083E0A3F608DFFA805889828A83E0A3F26C
:10074B0008DFFA804C80D280FA80C680D480698022
:10075B00F28033801080A680EA809A80A880DA80AD
:10076B00E280CA803389828A83ECFAE493A3C8C5FA
:10077B0082C8CCC583CCF0A3C8C582C8CCC583CCFA
:10078B00DFE9DEE7800D89828A83E493A3F608DF35
:10079B00F9ECFAA9F0EDFB2289828A83ECFAE0A34B
:1007AB00C8C582C8CCC583CCF0A3C8C582C8CCC58C
:1007BB0083CCDFEADEE880DB89828A83E493A3F2D1
:1007CB0008DFF980CC88F0EF60010E4E60C388F033
:1007DB00ED2402B4040050B9F582EB2402B40400FA
:1007EB0050AF232345822390075073BB01068982A8
:1007FB008A83E0225002E722BBFE02E32289828A2F
:10080B0083E49322BB010CE58229F582E5833AF55B
:10081B0083E0225006E92582F8E622BBFE06E92595
:10082B0082F8E222E58229F582E5833AF583E493A7
:10083B0022BB010689828A83F0225002F722BBFE7B
:10084B0001F322EF8DF0A4A8F0CF8CF0A428CE8D6D
:10085B00F0A42EFE22BC000BBE0029EF8DF084FF0E
:10086B00ADF022E4CCF875F008EF2FFFEE33FEEC81
:10087B0033FCEE9DEC984005FCEE9DFE0FD5F0E9A8
:10088B00E4CEFD22EDF8F5F0EE8420D21CFEADF0A7
:10089B0075F008EF2FFFED33FD4007985006D5F0AC
:1008AB00F222C398FD0FD5F0EA22C2D5EC30E7094E
:1008BB00B2D5E4C39DFDE49CFCEE30E715B2D5E464
:1008CB00C39FFFE49EFE120860C3E49DFDE49CFC05
:1008DB00800312086030D507C3E49FFFE49EFE221D
:1008EB00C5F0F8A3E028F0C5F0F8E5821582700298
:1008FB001583E038F022A3F8E0C5F025F0F0E5828F
:10090B00158270021583E0C838F0E82275F008757F
:10091B008200EF2FFFEE33FECD33CDCC33CCC5822F
:10092B0033C5829BED9AEC99E58298400CF582EEEB
:10093B009BFEED9AFDEC99FC0FD5F0D6E4CEFBE4D3
:10094B00CDFAE4CCF9A88222B800C1B90059BA009B
:10095B002DEC8BF084CFCECDFCE5F0CBF97818EFF6
:10096B002FFFEE33FEED33FDEC33FCEB33FB10D7F7
:10097B0003994004EB99FB0FD8E5E4F9FA227818B8
:10098B00EF2FFFEE33FEED33FDEC33FCC933C91013
:10099B00D7059BE99A4007EC9BFCE99AF90FD8E045
:1009AB00E4C9FAE4CCFB2275F010EF2FFFEE33FE17
:1009BB00ED33FDCC33CCC833C810D7079BEC9AE88A
:1009CB0099400AED9BFDEC9AFCE899F80FD5F0DA0B
:1009DB00E4CDFBE4CCFAE4C8F922C3E49FFFE49E28
:1009EB00FEE49DFDE49CFC22E8600FEFC333FFEEB9
:1009FB0033FEED33FDEC33FCD8F122E493FC7401B0
:100A0B0093FD740293FE740393FF22E0F8A3E0F9C5
:100A1B00A3E0FAA3E0FB22E493F8740193F97402C8
:100A2B0093FA740393FB22ECF0A3EDF0A3EEF0A387
:100A3B00EFF022A8828583F0D083D082120A551260
:100A4B000A55120A55120A55E473E493A3C583C5DC
:100A5B00F0C583C8C582C8F0A3C583C5F0C583C8DC
:100A6B00C582C822A42582F582E5F03583F5832261
:100A7B00F8E0FBA3A3E0F925F0F0E5821582700204
:100A8B001583E0FA38F022EBF0A3EAF0A3E9F022A9
:100A9B00BB010DE58229F582E5833AF583020DB0A2
:100AAB005007E92582F8020DA7BBFE07E92582F85E
:100ABB00020DB9E58229F582E5833AF583020DC271
:100ACB00D083D082F8E4937012740193700DA3A3BA
:100ADB0093F8740193F5828883E4737402936860CE
:100AEB00EFA3A3A380DF8A838982E473E3F5F00984
:100AFB00E208B5F06D606B80F3E3F5F009E608B53D
:100B0B00F060605E80F387F009E608B5F054605240
:100B1B0080F487F009E208B5F048604680F48882DB
:100B2B008C8387F009E0A3B5F038603680F48882B7
:100B3B008C8387F009E493A3B5F027602580F388B5
:100B4B00828C83E3F5F009E0A3B5F016601480F313
:100B5B0088828C83E3F5F009E493A3B5F00460027B
:100B6B0080F2020C22808580E7808E80D2803C80D0
:100B7B0015806C807E809B80B5808B80A1804F80A0
:100B8B0070803A020C2E89828A83ECFAE493F5F09A
:100B9B00A3C8C582C8CCC583CCE493A3C8C582C8FF
:100BAB00CCC583CCB5F070606E80E189828A83E41A
:100BBB0093F5F0A3E208B5F05E605C80F289828A5F
:100BCB0083E0F5F0A3E608B5F04D604B80F3898226
:100BDB008A83E0F5F0A3E208B5F03C603A80F38934
:100BEB00828A83E493F5F0A3E608B5F02A602880A7
:100BFB00F2805389828A83ECFAE493F5F0A3C8C59B
:100C0B0082C8CCC583CCE0A3C8C582C8CCC583CC75
:100C1B00B5F004600280E27FFFB5F0020F224002C4
:100C2B007F012289828A83ECFAE0F5F0A3C8C582A2
:100C3B00C8CCC583CCE0A3C8C582C8CCC583CCB512
:100C4B00F0D560D380E389828A83ECFAE0F5F0A3D8
:100C5B00C8C582C8CCC583CCE493A3C8C582C8CC15
:100C6B00C583CCB5F0B160AF80E288F0ED2402B45F
:100C7B00040050A3F582EB2402B404005099232303
:100C8B00458223900B7073E709F60870FA8046E7EC
:100C9B0009F20870FA803E88828C83E709F0A37012
:100CAB00FA807EE309F60870FA8076E309F20870A1
:100CBB00FA806E88828C83E309F0A370FA806289D4
:100CCB00828A83E0A3F60870FA805689828A83E0D1
:100CDB00A3F20870FA804A80D280FA80C680D48052
:100CEB006580F28031801080A680EA809A80A8808F
:100CFB00DA80E280CA803189828A83ECFAE493A39A
:100D0B00C8C582C8CCC583CCF0A3C8C582C8CCC526
:100D1B0083CC70E9800D89828A83E493A3F60870F3
:100D2B00F9ECFAA9F0EDFB2289828A83ECFAE0A3B5
:100D3B00C8C582C8CCC583CCF0A3C8C582C8CCC5F6
:100D4B0083CC70EA80DD89828A83E493A3F20870F6
:100D5B00F980CE88F0ED2402B4040050C4F582EB88
:100D6B002402B4040050BA2323458223900CE2736F
:100D7B00EF4E6012EF60010EEDBB010B89828A838F
:100D8B00F0A3DFFCDEFA2289F05007F709DFFCA99C
:100D9B00F022BBFEFCF309DFFCA9F022E6FB08E620
:100DAB00FA08E6F922E0FBA3E0FAA3E0F922E2FB62
:100DBB0008E2FA08E2F922E493FB740193FA740255
:100DCB0093F92278BD7C837D017BFF7A9E79567ED9
:100DDB00007F041207D0E49083C1F0A3F0C2AF9060
:100DEB0087BDE0FEA3E0FDEDFF9083C1EEF0A3EF26
:100DFB00F064107003EE64306003020EFE7B017A28
:100E0B008779B69084F8F0A37402F07F107E3012CD
:100E1B0038939087B6E07004A3E06401707B9087F1
:100E2B00DBF0A304F09086A4E0FEA3E0FF64014E88
:100E3B00700C908695F0A304F0D2950217DAEF644C
:100E4B00024E70139086A9F0A304F0D2167F0B7E8E
:100E5B0000128D430217DA9086A4E07004A3E064BD
:100E6B0003701D9087A304F07F0A7E00128D4390C0
:100E7B008806E060030217DA9087A904F00217DAFC
:100E8B009086A4E07004A3E0640460030217DAD236
:100E9B0017D21812915C0217DA9087B6E07002A392
:100EAB00E060030217DAC2959087F6F09087DFF0C7
:100EBB00A304F09086A4E0FEA3E0FF64014E70064D
:100ECB00908695020FB0EF64024E70069086A902D1
:100EDB000FB0EF64034E700D9087AA04F0E4908777
:100EEB00A3F00217DAEF64044E60030217DAC2189C
:100EFB000217DA9083C1E064307004A3E0642060D1
:100F0B0003020FB69086A4E07004A3E06401701E88
:100F1B00128E0DE4908767F0908674120A3E0000E3
:100F2B000000908753120A3E00000000806E9086EE
:100F3B00A4E07004A3E06402700D30160312872F37
:100F4B00E4908738F080559086A4E07004A3E064A9
:100F5B0003702B7F04FE128D43E49087A3F07B017B
:100F6B007A8779AB908500F0A37402F07F107E3006
:100F7B00123646E49087A9F0908806F0801E908682
:100F8B00A4E07004A3E064047012301703128FC83E
:100F9B007F067E00128D43E490881DF0C295128966
:100FAB0066E49086E1F0A3F00217DA908669E064BC
:100FBB000560030212F99083C1E064247004A3E07E
:100FCB00640360030210837B017A8779AB90850001
:100FDB00F0A37402F07F257E241236469083C674EC
:100FEB0002F07B07FD7F06126F5A7B017A8779AB84
:100FFB00908500E4F0A37402F07F157E2412364630
:10100B009083C67402F07B05FD7F04126F5A7B013F
:10101B007A8779AB908500E4F0A37402F07F407E71
:10102B00241236467B017A8779AB908500E4F0A3D6
:10103B007402F07F507E241236467B017A8779AB9F
:10104B00908500E4F0A37402F07F607E2412364694
:10105B009087B0E4F0A304F090847204F07B03FD5E
:10106B00FF1274C27B017A8779A6908500E4F0A306
:10107B007402F07F050212059083C1E064247004B2
:10108B00A3E0641360030211457B017A8779AB906F
:10109B008500F0A37402F07F407E241236467B015C
:1010AB007A8779AB908500E4F0A37402F07F507ED1
:1010BB00241236467B017A8779AB908500E4F0A346
:1010CB007402F07F607E241236467B017A8779ABFF
:1010DB00908500E4F0A37402F07F257E241236463F
:1010EB009083C67402F07B07FD7F06126F5A7B015B
:1010FB007A8779AB908500E4F0A37402F07F057ECC
:10110B00241236469083C67402F07B03FDFF126FE8
:10111B005A9087B0E4F0A37402F0908472F07B05D0
:10112B00FD7F041274C27B017A8779A6908500E457
:10113B00F0A37402F07F150212059083C1E06424C2
:10114B007004A3E06423600302120A7B017A87799F
:10115B00AB908500F0A37402F07F407E24123646DC
:10116B007B017A8779AB908500E4F0A37402F07F62
:10117B00507E241236467B017A8779AB908500E44A
:10118B00F0A37402F07F607E241236467B017A87CF
:10119B0079AB908500E4F0A37402F07F057E2412F6
:1011AB0036469083C67402F07B03FDFF126F5A7BA9
:1011BB00017A8779AB908500E4F0A37402F07F1578
:1011CB007E241236469083C67402F07B05FD7F04A5
:1011DB00126F5A9087B0E4F0A37403F090847214EA
:1011EB00F07B07FD7F061274C27B017A8779A6908C
:1011FB008500E4F0A37402F07F257E240216DF90B5
:10120B0083C1E0B4300BA3E0B410061275A3021730
:10121B00DA908669E0640560030217DA9087B0E024
:10122B00FEA3E0FFEE60030212BEEF24FE6030145B
:10123B0060572402707DE49087B0F0A3F07B017AB5
:10124B008779AB908500F0A37402F07F057E2412A2
:10125B0036469083C67402F07B03FDFF126F5AE48F
:10126B009087B0F0A3F07B017A8779AB908500F083
:10127B00A37402F07F157E241236469083C6740247
:10128B00F07B05FD7F04126F5AE49087B0F0A3F05A
:10129B007B017A8779AB908500F0A37402F07F25F0
:1012AB007E241236469083C67402F07B07FD7F06C0
:1012BB00126F5A9083C1E0B4240BA3E0B440061222
:1012CB0072140217DA9083C1E0B4240BA3E0B4507C
:1012DB00061272F90217DA9083C1E064247004A33A
:1012EB00E0646060030217DA1273DE0217DA90868D
:1012FB0069E0640460030214AB9083C1E0FEA3E0D9
:10130B00FFC39410EE9425500302142CD3EF942DAD
:10131B00EE9425400302142CE0C4F8540FC868FF68
:10132B009083C1E0C454F048FEE42FFFEE34F690F6
:10133B008799F0A3EFF0908798E02403FF908797AD
:10134B00E03400FE7B017A8779B8908500E4F0A346
:10135B007402F012364690879AE02403FF90879927
:10136B00E03400FE7B017A8779BA908500E4F0A324
:10137B007402F0123646908799E0FFA3E0908797AE
:10138B00CFF0A3EFF07B017A8779A6908500E4F08C
:10139B00A37402F07F557E251236469083C1A3E0DD
:1013AB0024F09087C0F075F00684AFF09087A8EF1B
:1013BB00F07E006004640270089087B27401F080C4
:1013CB002DEF64014E6006EF64034E70089087B2F8
:1013DB007402F08019EF64044E6006EF64054E70E2
:1013EB00089087B27403F08005E49087B2F0908781
:1013FB00C0E02460FFE43425FE7B017A8379BB9047
:10140B0084F8E4F0A37402F01238937B017A8379A9
:10141B00BB908500E4F0A37402F07F507E2502168A
:10142B00DF9083C1E0FEA3E0FFC3947EEE942540E2
:10143B001FD3EF9482EE942550167B017A8779ABFC
:10144B00908500E4F0A37402F07F557E250216DF31
:10145B009083C1E064257004A3E06450600302171D
:10146B00DA7B017A8379BB9084F8F0A37402F07F66
:10147B00507E251238939083BCE0FF1268829083D4
:10148B00BCEFF09087C0E02460FFE43425FE7B01C5
:10149B007A8379BB908500E4F0A37402F00216DF27
:1014AB00908669E06408600302155A9083C1E0FEE0
:1014BB00A3E0FF64407003EE64146006BE1409BF22
:1014CB004106128F730217DA9083C1E0B4140BA399
:1014DB00E0B40006122EC30217DA9083C1E0B414F5
:1014EB000BA3E0B410061225B50217DA9083C1E006
:1014FB00B4140BA3E0B420061289F20217DA90831E
:10150B00C1E0B4140BA3E0B430061229070217DABA
:10151B009083C1E064127004A3E06480600302173F
:10152B00DA7B017A87790C9084F8F0A37402F07F50
:10153B00807E121238937B017A87790C9084E2E4D7
:10154B00F0A37402F07F007E80127F260217DA90E0
:10155B008669E06406600302178C9083C1E0641512
:10156B007004A3E0640570717B017A8779AB908579
:10157B0000F0A37402F07F657E141236469083C68A
:10158B007402F07B07FD7F06126F5A7B017A877915
:10159B00AB908500E4F0A37402F07F707E141236DA
:1015AB00469083C67402F07B05FD7F04126F5A9040
:1015BB0087AEE4F0A304F090847204F07B03FDFF8C
:1015CB001274C27B017A8779A6908500E4F0A3742C
:1015DB0002F07F607E140216DF9083C1E064157009
:1015EB0004A3E0641070707B017A8779AB9085005F
:1015FB00F0A37402F07F707E141236469083C6748B
:10160B0002F07B07FD7F06126F5A7B017A8779AB5D
:10161B00908500E4F0A37402F07F607E14123646CE
:10162B009083C67402F07B03FDFF126F5A9087AE56
:10163B00E4F0A37402F0908472F07B05FD7F04123A
:10164B0074C27B017A8779A6908500E4F0A37402BB
:10165B00F07F657E14807D9083C1E064157004A3D8
:10166B00E0641570757B017A8779AB908500F0A3E8
:10167B007402F07F657E141236469083C67402F0B6
:10168B007B03FDFF126F5A7B017A8779AB90850044
:10169B00E4F0A37402F07F607E141236469083C68A
:1016AB007402F07B05FD7F04126F5A9087AEE4F055
:1016BB00A37403F090847214F07B07FD7F06127401
:1016CB00C27B017A8779A6908500E4F0A37402F0BF
:1016DB007F707E141236460217DA908669E0640634
:1016EB0060030217DA9087AEE0FEA3E0FFEE600323
:1016FB000217DAEF24FE603314605A2402600302EF
:10170B0017DAE49087AEF0A3F07B017A8779AB9080
:10171B008500F0A37402F07F607E1412364690832E
:10172B00C67402F07B03FDFF126F5AE49087AEF094
:10173B00A3F07B017A8779AB908500F0A37402F05C
:10174B007F657E141236469083C67402F07B05FDCE
:10175B007F04126F5AE49087AEF0A3F07B017A8777
:10176B0079AB908500F0A37402F07F707E14123673
:10177B00469083C67402F07B07FD7F06126F5A807A
:10178B004E908669E0640770469083C1E0644670B2
:10179B0002A3E0703A7B017A8779A49084F8F0A3D6
:1017AB007402F07F007E461238939087A5E0601F8D
:1017BB00125A4CC2AFC2ADC2AAC2A9C2A8C2BDC204
:1017CB00BCC2B9E4F59AD2BBD2BAD2AF126C81D2F9
:1017DB00AF224986C20102030405060708094286A7
:1017EB00DF0000418687004686BA0000000000003B
:1017FB004286A400004A86A70000000000000000FB
:10180B0000004A869300000000000000000000C1A9
:10181B000CC10D4286CB00004286CD00004286B73C
:10182B0000004286B100004186B9014286C000002B
:10183B004A8689000000010002000400084286E18C
:10184B0000004186E800C189C18A4286B349004243
:10185B0086B52500C10B44869E000000004186869C
:10186B00004186E300418688004186A6004287CB73
:10187B0000004287C300004287D700004287D50093
:10188B00004287E100004287C500004287CD00007F
:10189B004287DB00004287DF00024287C90000421B
:1018AB0087C100004287DD00004287D100004287DC
:1018BB00D9000042861300004487BC00000000449E
:1018CB0087B4000000004287B000004287AE0000E2
:1018DB004287A600034287AB00004187B2004187D5
:1018EB00A3004187AA004187A9004187AD00428729
:1018FB00BAF8004287B8FFFF48879B5AA50004003F
:10190B0000000042873600004486FE0000000044C1
:10191B00871A3C9374BC4286F000004486F40000A6
:10192B000000418738004186E90042871E000042D3
:10193B0086F20000428730000042870A000044878D
:10194B002A3F8000004486EC3F8000004287220043
:10195B0000428720000042872600004286EA0000F2
:10196B004286F8000042870C00004287240000C129
:10197B0016C11548875F0000000000000000C1126F
:10198B00C113C11442873D000042875100004287BA
:10199B004B00004487470000000044873F000000D5
:1019AB000044874D3F800000448743000000004205
:1019BB00875900004487530000000041876700549B
:1019CB008530000000000000000000000000000057
:1019DB0000000000000042850E00005485510000FD
:1019EB0000000000000000000000000000000000EC
:1019FB0000005485100000000000000000000000F3
:101A0B000000000000000000004285910000C110A2
:101A1B0044856B0000000048852400000000000096
:101A2B00000042850C0000448573000000004485D3
:101A3B004D0000000044856700000000C111428585
:101A4B008B00004285770000528579000000000072
:101A5B000000000000000000000000000044854969
:101A6B00000000004485440000000044852C000069
:101A7B0000004285654610428506280042858D2868
:101A8B0005428508282042858F282542856F17102F
:101A9B00428571181042850AFF0041854800428536
:101AAB000200024285040001C10E42884D0000C1B4
:101ABB001941882F0141878E00418769F0617E8231
:101ACB003D000000000000000000000000000000CE
:101ADB0000000000000000000000000000000000FB
:101AEB0000000000000000000000000000000000EB
:101AFB0000000000000000000000000000000000DB
:101B0B0000000000000000000000000000000000CA
:101B1B0000000000000000000000000000000000BA
:101B2B0000000000000000000000000000000000AA
:101B3B00000000000000000000000000000000009A
:101B4B00000000000000000000000000000000008A
:101B5B00000000000000000000000000000000007A
:101B6B00000000000000000000000000000000006A
:101B7B00000000000000000000000000000000005A
:101B8B00000000000000000000000000000000004A
:101B9B00000000000000000000000000000000003A
:101BAB00000000000000000000000000000000002A
:101BBB00000000000000000000000000000000001A
:101BCB00000000000000000000000000000000000A
:101BDB0000000000000000000000000000000000FA
:101BEB0000000000000000000000000000000000EA
:101BFB0000000000000000000000000000000000DA
:101C0B0000000000000000000000000000000000C9
:101C1B0000000000000000000000000000000000B9
:101C2B0000000000000000000000000000000000A9
:101C3B000000000000000000000000000000004257
:101C4B00863D000042866C00004486700000000058
:101C5B004486270000000044867400000000448680
:101C6B004F00000000428662000042866500004182
:101C7B00863F0042866800004186480042863B0052
:101C8B0000428660000042866E000042867A0000A9
:101C9B004486313EE9518344864940490E56448679
:101CAB00153D32D5D04486353ECD37BE44862D000A
:101CBB0000000044867C00000000448659000000B0
:101CCB00004486820000000042866A00004286398A
:101CDB00000042864D000142864600B0428640001D
:101CEB00144186640B4186670541865D0342880477
:101CFB000000418806004187F600418814014288A4
:101D0B00085AA5C11A488815000000000000000001
:101D1B0046880E00000000000041882C00428824F9
:101D2B000000448820000000004288280000C117F2
:101D3B00C11841881D005480010000000000000004
:101D4B0000000000000000000000000000418000C7
:101D5B000042823B000000E52E2424F582E434840B
:101D6B00F583E0052E22908421300703908424E430
:101D7B0075F001120A7B0207F62000E97F2ED200D4
:101D8B008018EF540F2490D43440D4FF30040BEF61
:101D9B0024BFB41A0050032461FFE52F6002152FF6
:101DAB000532E5327002053130070E908421E4755F
:101DBB00F001120A7BEF02083C0200567403D207B3
:101DCB008003E4C207F52E908421120A92E4F52FCA
:101DDB00F531F532E52F60077F20121DA580F575D3
:101DEB0030FFC201C200C202C203C205C206C20852
:101DFB00121D71FF700D3007057F00121DB6AF323B
:101E0B00AE3122B4255FC2D5C204121D71FF24D09E
:101E1B00B40A00501A75F00A782F30D50508B6FFB2
:101E2B000106C6A426F620D5047002D20380D9245D
:101E3B00CFB41A00EF5004C2E5D2040220A8D2019D
:101E4B0080C6D20080C0D20280BCD2D580BAD20567
:101E5B0080B47F20121DA52002077401B52F00400E
:101E6B00F1121D62FF121DA5021DDFD208D20680E2
:101E7B0095121D62FB121D62FA121D62F94A4B701C
:101E8B000679A67A217BFF20022EE52F602A7E00A1
:101E9B008E8275830012080F60060EEE653070F0AF
:101EAB00C2D5EBC0E0EAC0E0E9C0E0EE122109D0F8
:101EBB00E0F9D0E0FAD0E0FB1207F6FF60AAEBC026
:101ECB00E0EAC0E0E9C0E0121DA5D0E02401F9D0A2
:101EDB00E03400FAD0E0FBE5300460DCD530D9808B
:101EEB0087D20280A21220EB60F7E530700104125A
:101EFB000501A930600DE530600914F5301221930E
:101F0B00EF60F3EA30E702F404C3995079EAF42561
:101F1B00300430E701E404F530800D1220EB60C192
:101F2B00EA05302530120501EA908450F030E701C4
:101F3B00E4253004D5300420050114122109E4C036
:101F4B00E0122193908450E0601320E70714F01205
:101F5B001D8D802204F0D0E014C0E07F00121D8D97
:101F6B00E5306007121D841530800B300503121D00
:101F7B0084D0E0021DDFD0E00480C41220EB609E11
:101F8B00E53004120501908450EAF0E5302005029B
:101F9B00600104240412210974FF04C0E012219390
:101FAB00121D8DE5302005026003121D84D0E0B5B3
:101FBB0030E87F45121D97908450E07F2B30E7046B
:101FCB007F2DF404C0E0121DA5D0E075F00A84C08B
:101FDB00F0121D8ED0E0121D8E021DDF79108002D3
:101FEB007908C206C2088008D2D5790A8004790A1A
:101FFB00C2D5E530047002F530E4FAFDFEFF121D88
:10200B0062FC7B08200113121D62FD7B1030000A5D
:10201B00121D62FE121D62FF7B20EC3382D592D51E
:10202B005013C3E43000069FFFE49EFEE42001033F
:10203B009DFDE49CFCE4CBF8C201EC700CCFCECD43
:10204B00CCE824F8F870F38017C3EF33FFEE33FEC0
:10205B00ED33FDEC33FCEB33FB994002FB0FD8E97E
:10206B00EB300105F8D0E0C448B201C0E00AEC4DFA
:10207B004E4F78207B0070C2EAB5300040BCC0E008
:10208B0012210BD0F0D0E0200104C4C0E0C4B20197
:10209B00C0F0121D8ED0F0D5F0EB021DDF120ACB73
:1020AB001E7C531FE7581E4D4C1E49421FEB4F1F02
:1020BB00F3441FF3491E62431FF9551F26461F8623
:1020CB00451EF04721C6501E512D1E552E1E782B36
:1020DB001E59231E762021AF2A1E114800001E70A8
:1020EB00E530B4FF03753006121D62FC121D62FD54
:1020FB00121D62FE121D62FF90844902053E790A91
:10210B00A2D5200314300509B910020404B9080143
:10211B0004A2D52006025001042002689202B52FBA
:10212B00005034C0E07F203003197F30A2027206CA
:10213B007205500F122162C202C206C205C2087F8D
:10214B0030800F300503E9C0E0121DA5300503D028
:10215B00E0F9D0E0B52FCC3005177F30B9100C1259
:10216B001DA57F583004077F788003B90803121D23
:10217B00A53002057F2D021DA57F202008F87F2B9F
:10218B002006F322920280CF7F00B40700500B246D
:10219B0049F582E43484F583E0FF22286E756C6C7C
:1021AB002900D201121D623001F8C201782F30D5FF
:1021BB000108F6021E112D50434958121D622403CB
:1021CB00B405004001E49021C193121D96743A129C
:1021DB001D96D203752F04021FE7E49083BBF0A377
:1021EB00F0A3F0A3F0FBFAA3F0A3F0A3F0A3F0A3EA
:1021FB00F0A3F0A3120A3E00000000908662E0FEFE
:10220B00A3E0FF7C007D3C1208609083BBEEF0A343
:10221B00EFF0908662E0FEA3E0FF7C007D3C1208AD
:10222B00609086A4E07004A3E06402700F90870CAA
:10223B00E07002A3E060059086F88003908665E06D
:10224B00FAA3E0FB7C007D3CFFAE0212086090839A
:10225B00BDEEF0A3EFF07C007D3CAF03AE021208A5
:10226B0060A3ECF0A3EDF0C2AF90870AE0FAA3E015
:10227B00FB7C007D3CFFAE021208609086CDEEF039
:10228B00A3EFF07C007D3CAF03AE0212086090869A
:10229B00CBECF0A3EDF090870CE07002A3E06011A3
:1022AB009086A4E07004A3E0640270059086F88029
:1022BB0003908665E0FCA3E0FDE412041CC004C09F
:1022CB0005C006C007908662E0FCA3E0FDE41204A3
:1022DB001CD003D002D001D000120301E4FBFA7929
:1022EB00C878421201F81204559083C3EEF0A3EFA5
:1022FB00F09083C3E0FEA3E0FFD39464EE94005010
:10230B0006EF64634E70099083C3E4F0A37464F02A
:10231B009086A4E07004A3E06402600302241AC355
:10232B009086CEE0943C9086CDE094004053E0FA4A
:10233B00A3E0FB7C007D3CFFAE021208609086B7E9
:10234B00EEF0A3EFF07C007D3CAF03AE0212086011
:10235B009086CDECF0A3EDF07B017A85796F9085BB
:10236B0000E4F0A37402F07F207E171236467B0147
:10237B007A8679B7908500E4F0A37402F07F108021
:10238B00117B017A85790A908500E4F0A37402F041
:10239B007F207E17123646C39083BEE0943C908319
:1023AB00BDE094004053E0FAA3E0FB7C007D3CFFD2
:1023BB00AE021208609083C1EEF0A3EFF07C007DBB
:1023CB003CAF03AE021208609083BDECF0A3EDF0BE
:1023DB007B017A857971908500E4F0A37402F07F1C
:1023EB00207E181236467B017A8379C1908500E4F2
:1023FB00F0A37402F07F1080117B017A85790A902B
:10240B008500E4F0A37402F07F207E181236467B21
:10241B00017A8679CD908500E4F0A37402F07F00F9
:10242B007E281236467B017A8679CB908500E4F0C4
:10243B00A37402F07F057E281236467B017A8379DE
:10244B00C3908500E4F0A37402F07F307E2812362F
:10245B00469086A4E07004A3E0640470157B017AB7
:10246B00887920908500F0A37404F07F007E5012D1
:10247B0036467B017A8379BD908500E4F0A3740224
:10248B00F07F207E281236467B017A8379BF9085B8
:10249B0000E4F0A37402F07F257E28123646908666
:1024AB00A4E07004A3E06401704E7B017A86795935
:1024BB00908500F0A37404F07F407E28123646907E
:1024CB008693E07004A3E0640170179086A4E0701B
:1024DB0004A3E06401700B7B017A867982908500FE
:1024EB00800A7B017A86797C908500E4F0A37404E2
:1024FB00F07F507E28123646908669E06408707B28
:10250B00908834E0F8A3E0F9A3E0FAA3E0FB90880D
:10251B0030E0FCA3E0FDA3E0FEA3E0FF120103E427
:10252B00FBFAF9783F1203017B5C7A8F7982783F53
:10253B001201F89083C5120A327B017A8379C59018
:10254B008500E4F0A37404F07F007E431236467BD3
:10255B00017A887938908500E4F0A37404F07F0049
:10256B007E441236467B017A887930908500E4F000
:10257B00A37404F07F007E451236467B017A857981
:10258B0044908500E4F0A37404F07F007E2612369D
:10259B00467B017A867974908500E4F0A37404F08D
:1025AB007F007E27123646D2AF22783F7C847D0196
:1025BB007BFF7A9E791D7E007F0C1207D090870ED1
:1025CB0074F0F090871204F090871604F07B017A78
:1025DB008479339084F8E4F0A37404F07F107E13B5
:1025EB001238937B017A8479379084F8E4F0A374E2
:1025FB0004F07F507E141238937B017A84793B90E0
:10260B0084F8E4F0A37404F07F207E131238937BDC
:10261B00027A007D207C137F007E43127DD17B02EA
:10262B007A007D507C147F007E44127DD17B027A30
:10263B00007D107C137F007E41127DD1908434E0AD
:10264B00FFE4FCFDFE78101209F3C004C005C006C0
:10265B00C007908433E0FFE4FCFDFE78181209F309
:10266B00D003D002D001D000EF4BFFEE4AFEED4974
:10267B00FDEC48FCC004C005C006C007908435E0E3
:10268B00FFE4FCFDFE78081209F3D003D002D00161
:10269B00D000EF4BFBEE4AFAED49F9EC48F8A3E01A
:1026AB00FFEB4FFFEAFEE9FDE8FC90844B120A3288
:1026BB00908438E0FFE4FCFDFE78101209F3C004AF
:1026CB00C005C006C007908437E0FFE4FCFDFE7830
:1026DB00181209F3D003D002D001D000EF4BFFEE5C
:1026EB004AFEED49FDEC48FCC004C005C006C0071E
:1026FB00908439E0FFE4FCFDFE78081209F3D00367
:10270B00D002D001D000EF4BFBEE4AFAED49F9ECC9
:10271B0048F8A3E0FFEB4FFFEAFEE9FDE8FC9084ED
:10272B0053120A3290843CE0FFE4FCFDFE78101259
:10273B0009F3C004C005C006C00790843BE0FFE46A
:10274B00FCFDFE78181209F3D003D002D001D000A3
:10275B00EF4BFFEE4AFEED49FDEC48FCC004C00513
:10276B00C006C00790843DE0FFE4FCFDFE78081234
:10277B0009F3D003D002D001D000EF4BFBEE4AFAA5
:10278B00ED49F9EC48F8A3E0FFEB4FFFEAFEE9FD5A
:10279B00E8FC90844F120A32E47B107A27F9F89008
:1027AB00844BE0FCA3E0FDA3E0FEA3E0FF12095382
:1027BB00E47BE87A03F9F812095390870FEBF0E406
:1027CB007B64FAF9F890844BE0FCA3E0FDA3E0FEF8
:1027DB00A3E0FF120953E47B64FAF9F81209539052
:1027EB008710EBF0E47B64FAF9F890844BE0FCA3E0
:1027FB00E0FDA3E0FEA3E0FF120953908711EBF07D
:10280B00E47B107A27F9F8908453E0FCA3E0FDA356
:10281B00E0FEA3E0FF120953E47BE87A03F9F81218
:10282B000953908713EBF0E47B64FAF9F890845327
:10283B00E0FCA3E0FDA3E0FEA3E0FF120953E47B61
:10284B0064FAF9F8120953908714EBF0E47B64FAFD
:10285B00F9F8908453E0FCA3E0FDA3E0FEA3E0FFB6
:10286B00120953908715EBF0E47B107A27F9F89057
:10287B00844FE0FCA3E0FDA3E0FEA3E0FF120953AD
:10288B00E47BE87A03F9F8120953908717EBF0E42D
:10289B007B64FAF9F890844FE0FCA3E0FDA3E0FE23
:1028AB00A3E0FF120953E47B64FAF9F81209539081
:1028BB008718EBF0E47B64FAF9F890844FE0FCA303
:1028CB00E0FDA3E0FEA3E0FF120953908719EBF0A4
:1028DB007B017A87790E9084E2E4F0A37406F07F93
:1028EB00007E40127F267B017A87790E908500E46B
:1028FB00F0A3740CF07F007E3202364678C37C83E3
:10290B007D017BFF7A9D79237E007F041207D078AF
:10291B00C77C837D017BFF7A9D79277E007F041224
:10292B0007D078CB7C837D017BFF7A9D792B7E0052
:10293B007F041207D078CF7C837D017BFF7A9D7952
:10294B002F7E007F041207D078D37C837D017BFF21
:10295B007A9D79337E007F041207D078D77C837DF4
:10296B00017BFF7A9D79377E007F021207D078D9E1
:10297B007C837D017BFF7A9D79397E007F0812076E
:10298B00D078E17C837D017BFF7A9D79417E007F4E
:10299B00081207D078E97C837D017BFF7A9D79490A
:1029AB007E007F241207D0780D7C847D017BFF7A1B
:1029BB009D796D7E007F221207D0782F7C847D015C
:1029CB007BFF7A9D798F7E007F041207D0908786DC
:1029DB007464F0A3740FF0E4A3F0A3740FF07B0105
:1029EB007A8379C3908500E4F0A37404F07F007EB2
:1029FB00131236467B017A8379C7908500E4F0A3E6
:102A0B007404F07F057E13123646122EC37B017AB7
:102A1B008379CB908500E4F0A37404F07F107E13D0
:102A2B001236467B017A8379CF908500E4F0A3744C
:102A3B0004F07F507E141236467B017A8379D39053
:102A4B008500E4F0A37404F07F207E131236461247
:102A5B0025B57B017A8379D7908500E4F0A37402C6
:102A6B00F07F257E131236461289F27B017A877925
:102A7B0086908500E4F0A37404F07F407E14123638
:102A8B00467B017A877986908500E4F0A37404F085
:102A9B007F827E001236467B017A8779869084E2AC
:102AAB00E4F0A37402F07F007E50127F269087889B
:102ABB00E0FEA3E0FDEDFF90876CEEF0A3EFF07B63
:102ACB00017A8379DB908500E4F0A37402F07F90A8
:102ADB007E141236467B017A8379DD908500E4F013
:102AEB00A37402F07F957E141236467B017A8379AC
:102AFB00DF908500E4F0A37402F07F007E151236A0
:102B0B00467B017A8379D99084E2E4F0A37404F0D4
:102B1B007F207E45127F267B017A8379E3908500A7
:102B2B00E4F0A37402F07F007E241236467B017A18
:102B3B008379E5908500E4F0A37402F07F107E2486
:102B4B001236467B017A8379E7908500E4F0A37413
:102B5B0002F07F207E241236467B017A8379E19046
:102B6B0084E2E4F0A37404F07F607E51127F267B35
:102B7B00017A8379E9908500E4F0A37424F07F60F7
:102B8B007E251236467B017A84790D908500E4F020
:102B9B00A37422F07F727E251236461294367B0187
:102BAB007A8779AB908500E4F0A37402F07F807E86
:102BBB00121236467B017A87790C9084F8E4F0A3E5
:102BCB007402F07F807E1212389390870CE0FFA383
:102BDB00E090842FCFF0A3EFF07B017A84792F90D4
:102BEB0084E2E4F0A37402F07F007E80027F26ABC8
:102BFB0007AA06E49083BBF0A3F0A3120A3E0000E1
:102C0B0000009083C5120A3E00000000AE02AF0325
:102C1B007C007D0A120860AC06AD07E412041C9020
:102C2B0083C1120A32E4FFFE7D207C419083C1E018
:102C3B00F8A3E0F9A3E0FAA3E0FB12039E600250B5
:102C4B0025E4FFFE7DA07C409083C1E0F8A3E0F972
:102C5B00A3E0FAA3E0FB12039E400B9083BBE4F0CE
:102C6B00A304F0022D44E4FFFE7DA07C419083C1C0
:102C7B00E0F8A3E0F9A3E0FAA3E0FB12039E6002E5
:102C8B005028E4FFFE7D207C419083C1E0F8A3E057
:102C9B00F9A3E0FAA3E0FB12039E600E400C9083B5
:102CAB00BBE4F0A37402F0022D44E4FFFE7DC87C6C
:102CBB00429083C1E0F8A3E0F9A3E0FAA3E0FB1292
:102CCB00039E60025027E4FFFE7DA07C419083C1F0
:102CDB00E0F8A3E0F9A3E0FAA3E0FB12039E600D7A
:102CEB00400B9083BBE4F0A37403F0804CE4FFFE35
:102CFB007D967C439083C1E0F8A3E0F9A3E0FAA3AF
:102D0B00E0FB12039E60025027E4FFFE7DC87C426D
:102D1B009083C1E0F8A3E0F9A3E0FAA3E0FB120370
:102D2B009E600D400B9083BBE4F0A37404F080090C
:102D3B009083BBE4F0A37405F09083BBE0FEA3E0AB
:102D4B00FFEE6003022E3AEF24FE603914605F142D
:102D5B007003022DE424036003022E3A9083CD12FC
:102D6B000A3EBFCCCCCD9083C1E0FCA3E0FDA3E039
:102D7B00FEA3E0FF1254CE9083C5120A327FDC7E95
:102D8B00AF7D0E80509083CD120A3EBFECCCCD9020
:102D9B0083C1E0FCA3E0FDA3E0FEA3E0FF1254CE51
:102DAB009083C5120A327FB87E287D80802790835E
:102DBB00CD120A3EBFE7AE149083C1E0FCA3E0FD49
:102DCB00A3E0FEA3E0FF1254CE9083C5120A327F1C
:102DDB00407E167D617C4780299083CD120A3EC0D0
:102DEB000000009083C1E0FCA3E0FDA3E0FEA3E0A4
:102DFB00FF1254CE9083C5120A327F047EF67D07F4
:102E0B007C489083C5E0F8A3E0F9A3E0FAA3E0FBCC
:102E1B001201F89083BD120A329083BDE0FCA3E04F
:102E2B00FDA3E0FEA3E0FF908544120A32800990D7
:102E3B0083BBE4F0A3740AF0908693E07004A3E0E4
:102E4B006402602B9086A4E07004A3E06401701F01
:102E5B00908544E0FCA3E0FDA3E0FEA3E0FF7B9A9A
:102E6B007A997919783F1201F8908544120A32E465
:102E7B00FBFA797A7844908544E0FCA3E0FDA3E06B
:102E8B00FEA3E0FF12030190852C120A32908544B9
:102E9B00E0FCA3E0FDA3E0FEA3E0FF12610390853D
:102EAB0049120A3290852CE0FCA3E0FDA3E0FEA3BF
:102EBB00E0FF90872A020A32783B7C847D017BFFFE
:102ECB007A9E79377E007F061207D07B017A847950
:102EDB00339084F8E4F0A37404F07F007E1312386F
:102EEB00937B017A8479379084F8E4F0A37404F02F
:102EFB007F057E13123893908434E0FFE4FCFDFED3
:102F0B0078101209F3C004C005C006C007908433C3
:102F1B00E0FFE4FCFDFE78181209F3D003D002D0D9
:102F2B0001D000EF4BFFEE4AFEED49FDEC48FCC033
:102F3B0004C005C006C007908435E0FFE4FCFDFE2D
:102F4B0078081209F3D003D002D001D000EF4BFB6D
:102F5B00EE4AFAED49F9EC48F8A3E0FFEB4FFFEA34
:102F6B00FEE9FDE8FC908441120A32908438E0FFC0
:102F7B00E4FCFDFE78101209F3C004C005C006C0C6
:102F8B0007908437E0FFE4FCFDFE78181209F3D0BC
:102F9B0003D002D001D000EF4BFFEE4AFEED49FD0E
:102FAB00EC48FCC004C005C006C007908439E0FFA4
:102FBB00E4FCFDFE78081209F3D003D002D001D057
:102FCB0000EF4BFBEE4AFAED49F9EC48F8A3E0FFB2
:102FDB00EB4FFFEAFEE9FDE8FC90880A120A32E4A7
:102FEB007B64FAF9F890880AE0FCA3E0FDA3E0FE0D
:102FFB00A3E0FF120953908440EBF0E47B64FAF9F1
:10300B00F890880AE0FCA3E0FDA3E0FEA3E0FF122A
:10301B000953E47B64FAF9F812095390843FEBF0FF
:10302B00E47B107A27F9F890880AE0FCA3E0FDA373
:10303B00E0FEA3E0FF120953E47B64FAF9F81209EE
:10304B005390843EEBF0E47B64FAF9F8908441E012
:10305B00FCA3E0FDA3E0FEA3E0FF12095390843D27
:10306B00EBF0E47B64FAF9F8908441E0FCA3E0FD1B
:10307B00A3E0FEA3E0FF120953E47B64FAF9F81214
:10308B00095390843CEBF0E47B107A27F9F8908499
:10309B0041E0FCA3E0FDA3E0FEA3E0FF120953E433
:1030AB007B64FAF9F812095390843BEBF0A3E0FF31
:1030BB00D3940074809480406ED3EF940C748094FE
:1030CB00805064A3E0FF941F748094805054EF945D
:1030DB000074809480404BA3E0D394177480948049
:1030EB005039C3748094804032A3E0D3943B7480F6
:1030FB0094805020C3748094804019A3E0D3943BF8
:10310B00748094805007C3748094805020E4908422
:10311B0040F08019E490843FF08012E490843EF0FC
:10312B00800B90843D800390843C7401F07B017A8A
:10313B0084793B908500E4F0A37406F07F9D7E00BC
:10314B001236467B017A887908908500E4F0A374E7
:10315B0002F07F9C7E00023646E49083BDF0A3F024
:10316B00FBFAA3120A3E00000000C2AF9083C774A3
:10317B00B0F0A37404F0908660E0FCA3E0FDC37490
:10318B00229DFB74019CFAE412041CA804A905AA55
:10319B0006AB07E4FFFE7D917C43120301E4FBFACF
:1031AB00798078401201F8120455AD07AC06E41291
:1031BB00041C9083BF120A329083BFE0FCA3E0FD96
:1031CB00A3E0FEA3E0FF1204559083BD127A4F904B
:1031DB0086F8E0FCA3E0FDE412041C90864FE0F8B7
:1031EB00A3E0F9A3E0FAA3E0FB12039E704E9083D9
:1031FB00BBF0A3F09083C8E02402F09083C7E034C7
:10320B0000F0E0FEA3E0FF7B017A8679579084F80B
:10321B00E4F0A37402F01238931270489083BCE070
:10322B0004F070069083BBE004F0D39083BCE09471
:10323B00219083BBE0940140BB0233EBE4FFFE7DA6
:10324B00807C3F9083BFE0F8A3E0F9A3E0FAA3E012
:10325B00FB12039E70030232ECE49083BBF0A3F0ED
:10326B009083BDE0FCA3E0FDE412041C9083BFE05F
:10327B00F8A3E0F9A3E0FAA3E0FB12039E6002506F
:10328B002F9083BDE4F0A304F09083C8E02402F0F8
:10329B009083C7E03400F0E0FEA3E0FF7B017A8669
:1032AB0079579084F8E4F0A37402F0123893800EEF
:1032BB009083BEE004F070069083BDE004F01270C2
:1032CB00489083BCE004F070069083BBE004F0D31D
:1032DB009083BCE094219083BBE094014082023345
:1032EB00EB908660E0FEA3E0FFC374229FFD7401A8
:1032FB009EFCE412041C9083C3120A32908660E099
:10330B00FCA3E0FDE412041C9083C3E0F8A3E0F9F6
:10331B00A3E0FAA3E0FB120301E4FBFA79A07840E7
:10332B001201F89083BF120A32E49083BDF0A3F030
:10333B009083BBF0A3F09083BEE004F07006908303
:10334B00BDE004F09083BDE0FCA3E0FDE412041C9F
:10335B009083BFE0F8A3E0F9A3E0FAA3E0FB12032C
:10336B009E600250109083BDE4F0A304F090861A87
:10337B00E0240A80399083BEE004F070069083BD90
:10338B00E004F09083C8E02402F09083C7E034009F
:10339B00F0E0FEA3E0FF7B017A8679579084F8E496
:1033AB00F0A37402F012389390861AE02402127084
:1033BB004EC390861AE0944C908619E094025020EC
:1033CB009083BCE004F070069083BBE004F0D390D4
:1033DB0083BCE094219083BBE09401500302334102
:1033EB00D2AF22C2AF74FF908784F0A3F090876AAC
:1033FB00E0FFA3E09083CCCFF0A3EFF0E49083CB7E
:10340B00F09083CBE0D39409748094804003023610
:10341B00439083CDE094289083CCE094005003023A
:10342B003643A3E024F8F09083CCE034FFF0E0FEC9
:10343B00A3E0FF7B017A8379BB9084EAE4F0A37469
:10344B0008F0127FC99083BBE064AA600302363A8E
:10345B009083C3E090876EF09083C4E090876FF009
:10346B009083C5E0908770F09083C7E0908771F0F0
:10347B009083C8E0908772F09083C9E0908773F0D7
:10348B009083C2E0F9FB7A00F4700D908774120AF6
:10349B003EB9D8BBFA0235F3EB64BB4A700D90878B
:1034AB0074120A3EBFAABBFA0235F3E9FB7A006439
:1034BB00CC60030235E39083BCE014B40B004003F3
:1034CB000236189034DC75F003A4C58325F0C58350
:1034DB00730234FD02351E02353402354A02356A59
:1034EB000235960236180236180236180235B90222
:1034FB003580908774120A3EBFAAC6F49087781263
:10350B000A3EC6F8C8DC90877C120A3EBDBAC4A33B
:10351B000235D7908774120A3EBFAAC6F4908778FB
:10352B00120A3ED6D0D0C48076908774120A3EBF62
:10353B00AAC6F4908778120A3EC7F8D3F28060903F
:10354B008774120A3EBFAAC6F4908778120A3EB35C
:10355B00CCD0F290877C120A3EBBAFC4A3806D9097
:10356B008774120A3EBFAAC6F4908778120A3ED619
:10357B00CEC1C6802A908774120A3EBFAAC6F490A9
:10358B008778120A3ED6CEC1C68014908774120A71
:10359B003EBFAAC6F4908778120A3ECAD6B6AF9041
:1035AB00877C120A3EC4A3CABD908780803D90875A
:1035BB0074120A3EBFAAC6F4908778120A3EB3CCA7
:1035CB00D0F290877C120A3EBBAFC4A390878012C7
:1035DB000A3ECABDFFFF8035EB64EE4A701690873A
:1035EB0074120A3EB8B4CEBB908778120A3EFFFF26
:1035FB00FFFF8019E964DD7014908774120A3ED4C2
:10360B00DDCDA3908778120A3EFFFFFFFF9083CB9F
:10361B00E075F010A42401FFE5F03416FE7B017A6F
:10362B0087796E908500E4F0A37418F012364690FB
:10363B0083CBE004F002340CD2AF229084FDEBF08C
:10364B00A3EAF0A3E9F0AD07AC069084FDE0FBA381
:10365B00E0FAA3E04A4B7003023892A3E0FEA3E02A
:10366B00FF4E7003023892EEC313FEEF132DFFEEE5
:10367B003CFED3EF94FEEE94FF4003023892C2AFB0
:10368B00ED5401FBECC313FCED13FDAE047810CE2F
:10369B00C313CE13D8F9F5F1ECF5F2AF058FF3E4C4
:1036AB00F5F875F401D2FF30FCFDC2FDEB6401703F
:1036BB007C908500E0FEA3E0FF64014E700AC2FB24
:1036CB00C2FAD2F9C2F88008C2FBC2FAD2F9D2F818
:1036DB00EF64014E9084FD701AE0FBA3E475F001DA
:1036EB00120901A9F0FA1207F6F5FC908501E02406
:1036FB00FF802DE0FBA3E475F001120901A9F0FA9C
:10370B001207F6F5FC9084FDE0FBA3E475F00112C3
:10371B000901A9F0FA1207F6F5FD908501E024FEE8
:10372B00F0908500E034FFF0D2FE20FEFD90850086
:10373B00E0FEA3E0FF4E700302388DC3EF9404EE5E
:10374B009400400302381BEE7022EF1460161460D5
:10375B000D147018D2FBD2FAD2F9C2F8800ED2FB3C
:10376B00D2FA8004D2FBC2FAC2F9C2F8908500E00B
:10377B00FEA3E0FFEE6003023814EF1460761460D2
:10378B00471460030238149084FDE0FBA3E475F04A
:10379B0001120901A9F0FA1207F6F5FA9084FDE07F
:1037AB00FBA3E475F001120901A9F0FA1207F6F573
:1037BB00FB9084FDE0FBA3E475F001120901A9F075
:1037CB00FA1207F6F5FC80419084FDE0FBA3E4754B
:1037DB00F001120901A9F0FA1207F6F5FA9084FD2F
:1037EB00E0FBA3E475F001120901A9F0FA1207F648
:1037FB00F5FB80159084FDE0FBA3E475F001120945
:10380B0001A9F0FA1207F6F5FAD2FE30FE7480FB2E
:10381B00D2FBD2FAD2F9D2F89084FDE0FBA3E47587
:10382B00F001120901A9F0FA1207F6F5FA9084FDDE
:10383B00E0FBA3E475F001120901A9F0FA1207F6F7
:10384B00F5FB9084FDE0FBA3E475F001120901A9DF
:10385B00F0FA1207F6F5FC9084FDE0FBA3E475F09B
:10386B0001120901A9F0FA1207F6F5FDD2FE20FEAE
:10387B00FD908501E024FCF0908500E034FFF00220
:10388B003738E4F5F8D2AF229084F5EBF0A3EAF0E9
:10389B00A3E9F0AD07AC069084F5E0FBA3E0FAA337
:1038AB00E04A4B7003023ADAA3E0FEA3E0FF4E704E
:1038BB0003023ADAEEC313FEEF132DFFEE3CFED3F9
:1038CB00EF94FEEE94FF4003023ADAC2AFED5401DF
:1038DB00FBECC313FCED13FDAE047810CEC313CE7B
:1038EB0013D8F9F5F1ECF5F2AF058FF3E4F5F875B4
:1038FB00F401D2FF30FCFDD2FDEB6401707D9084AE
:10390B00F8E07004A3E06401700AC2FBC2FAD2F9BA
:10391B00C2F88008C2FBC2FAD2F9D2F8D2FE20FE5E
:10392B00FD9084F8E07004A3E064019084F5701BB3
:10393B00E0FBA3E475F001120901A9F0FAE5FC1212
:10394B00083C9084F9E024FF023ACAE0FBA3E4753B
:10395B00F001120901A9F0FAE5FC12083C9084F57C
:10396B00E0FBA3E475F001120901A9F0FAE5FD12E1
:10397B00083C9084F9E024FE023ACA9084F8E0FEF9
:10398B00A3E0FF4E7003023AD5C3EF9404EE94000C
:10399B004003023A63EE7022EF14601614600D14AC
:1039AB007018D2FBD2FAD2F9C2F8800ED2FBD2FA3F
:1039BB008004D2FBC2FAC2F9C2F8D2FE20FEFD90FF
:1039CB0084F8E0FEA3E0FFEE6003023AD5EF14604B
:1039DB0070146044146003023AD59084F5E0FBA3A5
:1039EB00E475F001120901A9F0FAE5FA12083C900E
:1039FB0084F5E0FBA3E475F001120901A9F0FAE5E7
:103A0B00FB12083C9084F5E0FBA3E475F00112096E
:103A1B0001A9F0FAE5FC803B9084F5E0FBA3E4758B
:103A2B00F001120901A9F0FAE5FA12083C9084F5AD
:103A3B00E0FBA3E475F001120901A9F0FAE5FB80A4
:103A4B00129084F5E0FBA3E475F001120901A9F0D3
:103A5B00FAE5FA12083C8072D2FBD2FAD2F9D2F80C
:103A6B00D2FE20FEFD9084F5E0FBA3E475F001127D
:103A7B000901A9F0FAE5FA12083C9084F5E0FBA3E2
:103A8B00E475F001120901A9F0FAE5FB12083C906C
:103A9B0084F5E0FBA3E475F001120901A9F0FAE546
:103AAB00FC12083C9084F5E0FBA3E475F0011209CD
:103ABB0001A9F0FAE5FD12083C9084F9E024FCF032
:103ACB009084F8E034FFF0023986E4F5F8D2AF22A7
:103ADB0078097C847D017BFF7A9979277E007F10A2
:103AEB001207D090841DE4F0A37428F07F057E00AC
:103AFB001295AA7F057E001295AA7B017A8479190B
:103B0B009084EAE4F0A37402F0E4FFFE127FC97B19
:103B1B00FF7A97792590841BE0FFA3E0908424CF54
:103B2B00F0A3EFF0121DCD7F057E001295AA9084B5
:103B3B001F743FF0A374D8F0E4908407F0A3F090C7
:103B4B00841FE0FEA3E0FFC3908408E09F908407EE
:103B5B00E09E4003023CF190841DE0FEA3E0FF7B5E
:103B6B00017A8479099084EAE4F0A37408F0127F57
:103B7B00C97F057E001295AA908409E064AA6003B0
:103B8B00023CAE908410E0F470097BFF7A97794188
:103B9B00023C5D908410E064BB70097BFF7A9779DF
:103BAB004E023C5D908410E064CC6003023C3F7B92
:103BBB00FF7A97795B121DCD90840AE014B40B0049
:103BCB004003023C60903BDE75F003A4C58325F0F7
:103BDB00C58373023BFF023C07023C0F023C1702FA
:103BEB003C1F023C27023C60023C60023C60023CF2
:103BFB002F023C377BFF7A97796A80567BFF7A9747
:103C0B00797D804E7BFF7A97799280467BFF7A97FE
:103C1B0079A7803E7BFF7A9779BE80367BFF7A97B8
:103C2B0079CF802E7BFF7A9779A780267BFF7A97B7
:103C3B0079BE801E908410E064EE70087BFF7A974B
:103C4B0079E0800E908410E064DD70097BFF7A9739
:103C5B0079EF121DCD7F057E001295AA7BFF7A9717
:103C6B0079FE90841DE0FFA3E0908424CFF0A3EFB6
:103C7B00F0908411E0908426F0908412E0908427D9
:103C8B00F0908413E0908428F0908415E0908429C0
:103C9B00F0908416E090842AF0908417E090842BA7
:103CAB00F0800D7F057E001295AA7BFF7A987945EF
:103CBB00121DCD7F0F7E001295AA90841DE0FEA3EE
:103CCB00E0FFC3EE9440501EEF2408FFE43E9084C7
:103CDB001DF0A3EFF0908408E004F07006908407C9
:103CEB00E004F0023B4A7BFF7A987969021DCDC252
:103CFB00AF1293A59086A4E07004A3E06401700357
:103D0B0012631890863DE07004A3E0640160030227
:103D1B003F0A90866CE07002A3E06003023ED990EC
:103D2B0086A4E0FEA3E0FF64024E700890863F7409
:103D3B0005F08008908669E090863FF0E4908662FB
:103D4B00F0A3F0EF64014E600C9086A4E07004A326
:103D5B00E064047003125A4C908642E4F0A3740A98
:103D6B00F0E4908660F0A3F090866CF0A304F090E2
:103D7B00852CE0FCA3E0FDA3E0FEA3E0FF908670A2
:103D8B00120A329086E1E07004A3E06401700280B5
:103D9B00289086E1E07004A3E06402701090870C19
:103DAB00E07002A3E06003129300E4801A9086A4F3
:103DBB00E07004A3E064037002800C9086A4E070B2
:103DCB0004A3E064047031FFFE7D807CBF90864FBE
:103DDB00E0F8A3E0F9A3E0FAA3E0FB120107E4FB90
:103DEB00FA79117844120301E4FBFA79FA78441258
:103DFB0001F8908653120A32E4FFFEFDFC908549D0
:103E0B00E0F8A3E0F9A3E0FAA3E0FB12039E40362F
:103E1B00E4FBFA79207840908549E0FCA3E0FDA310
:103E2B00E0FEA3E0FF120301E4FBFA79A078421253
:103E3B0001F8A804A905AA06AB07E4FFFE7DD57C13
:103E4B00431201038025908549E0FCA3E0FDA3E02C
:103E5B00FEA3E0FF1296B6E4FBFA7920784212013A
:103E6B00F8E4FBFA79D578431201071204559086D2
:103E7B0044EEF0A3EFF0908644E0FFA3E090863B86
:103E8B00CFF0A3EFF0908660E4F0A304F09083C131
:103E9B00F0A374AAF07B0A7A00FD7C017F0A7E00F6
:103EAB00127BC2908644E0FCA3E0FD9083C1ECF052
:103EBB00A3EDF07B4C7A027F0A7E001288D99086A4
:103ECB0042E4F0A3740FF0E49087C1F0A3F020A7B5
:103EDB000A908724E07002A3E0600D908724E070C5
:103EEB0002A3E0601A30A717124D7D908753E0FCB8
:103EFB00A3E0FDA3E0FEA3E0FF908674120A32D28A
:103F0B00AF22C2AF908669E0B40C00400302410CB3
:103F1B00903F22F8282873023F46023F60023F7110
:103F2B00023F83023F9A023FB002402D0240BC0287
:103F3B0040EF02410C0240FA024109E4908686F000
:103F4B009086E3F0908688F0C2BAC2BB9086A4F04C
:103F5B00A3F002410C9086A4E4F0A304F09087B484
:103F6B00E4F0A30480229086A4E4F0A304F09087ED
:103F7B00B4E4F0A3740280109086A4E4F0A304F0E0
:103F8B009087B4E4F0A37403F0128A7B02410CE433
:103F9B00908686F09086A4F0A37403F09087A3E03C
:103FAB00640102410C127801908686E0706C04F07B
:103FBB009083C604F07B03FDFF126F5A9083C67487
:103FCB0002F07B05FD7F04126F5A9083C67402F0DA
:103FDB007B07FD7F06126F5A7B017A8779AB908541
:103FEB0000E4F0A37402F07F057E241236467B01B9
:103FFB007A8779AB908500E4F0A37402F07F157E8D
:10400B00241236467B017A8779AB908500E4F0A3C6
:10401B007402F07F257E24123646E49086E3F0028C
:10402B00410CE4908686F0908688F09086A4F0A3ED
:10403B007404F01292389086E3E0600302410CC2E4
:10404B00BAC2BB04F09083C604F07B03FDFF126F72
:10405B005A9083C67402F07B05FD7F04126F5A9051
:10406B0083C67402F07B07FD7F06126F5A7B017AC1
:10407B008779AB908500E4F0A37402F07F607E1427
:10408B001236467B017A8779AB908500E4F0A374F6
:10409B0002F07F657E141236467B017A8779AB90EE
:1040AB008500E4F0A37402F07F707E141236468014
:1040BB0050E49086E3F0908688E0700DD2BAD2BBC4
:1040CB001233EE9086887401F07B017A8779A49085
:1040DB0084F8E4F0A37402F07F007E46123893124A
:1040EB0087BE801DE4908688F0C2BAC2BB8012E402
:1040FB00908686F09086A4F0A37403F08003127868
:10410B0001D2AF22C0E0C083C082C0D075D010E412
:10411B00C2AFAF9FF5338F34AF9F5397FE9087A5F8
:10412B00E0602BEF640D601BEF640A60169080005B
:10413B00E0FE04F074012EF582E43480F583EFF099
:10414B000242F890823BE4F0A304F00242F8D3E57C
:10415B002C94007480948040030242FA752D00E584
:10416B002514605814700302428424026003024237
:10417B00F5E52465347002E53360030242F8908064
:10418B0015E534F07526017525017529FF752AFF94
:10419B00E52A653425E0FFE433FE74952FF5827430
:1041AB00993EF583E493F535740193F536E529FFD4
:1041BB00E535F529E5366FF52A0242F8AE260526D8
:1041CB0074152EF582E43480F583E534F0C3E526CF
:1041DB009407748094805029E52A653425E0FFE428
:1041EB0033FE74952FF58274993EF583E493F53580
:1041FB00740193F536E529FFE535F529E5366FF5BD
:10420B002AE526FD7C006407704B908016E0641055
:10421B007043E52A653425E0FFE433FE74952FF5F2
:10422B008274993EF583E493F535740193F536E585
:10423B0029FFE535F529E5366FF52A90801BE0243B
:10424B0009F527D394FC7480948040030242F575E2
:10425B0025020242F8C3ED9408EC6480948050036D
:10426B000242F890801CE0B5290D90801BE0B52A26
:10427B0006752B00752C028071AE26052674152E43
:10428B00F582E43480F583E534F0E52714FFE52669
:10429B00C39F5029E52A653425E0FFE433FE74956E
:1042AB002FF58274993EF583E493F535740193F5FC
:1042BB0036E529FFE535F529E5366FF52AE526C301
:1042CB009527402974142527F582E43480F583E083
:1042DB00B5291574132527F582E43480F583E0B5F1
:1042EB002A06752B00752C028000752500D2AFD0E5
:1042FB00D0D082D083D0E032C0E0C0F0C083C08287
:10430B00C0D075D000C000C001C002C003C004C043
:10431B0005C006C007C2AF758CBC758ACD9087C42B
:10432B00E004F070069087C3E004F090884EE00440
:10433B00F0700690884DE004F0D39087C4E094F4BD
:10434B009087C3E09401401FE4F0A3F09087CBF07B
:10435B00A304F090878EE0700E9087D2E004F0708B
:10436B00069087D1E004F090873DE0FEA3E0FF903C
:10437B00871EE06EFEA3E06FFF9087A3E0FDEF6D5D
:10438B00FF9087ADE060093018067C007D0180044A
:10439B007C007D00EE6CFEEF6D4E70030244C1900D
:1043AB0087C2E004F070069087C1E004F07B017ACD
:1043BB008679C8908500E4F0A304F07F007E52124A
:1043CB0036469087A3E060389087DEE004F07006F5
:1043DB009087DDE004F0C39087DEE094E89087DD02
:1043EB00E0940350030244AAE4F0A3F09087CAE0E0
:1043FB0004F070069087C9E004F01297120244AAE9
:10440B009087ADE060283018259087E4E004F070C9
:10441B00069087E3E004F0C39087E4E094E890878C
:10442B00E3E094034079126D799087E3806D908778
:10443B001EE07004A3E0640170299087D6E004F0BD
:10444B0070069087D5E004F0128B82D39087D6E06C
:10445B0094E89087D5E094034045E4F0A3F0125321
:10446B0068803C90873DE07004A3E0640170299064
:10447B0087E2E004F070069087E1E004F01290719F
:10448B00D39087E2E094E89087E1E094034010E456
:10449B00F0A3F01281B080079087E1E4F0A3F07BEA
:1044AB00017A8679C9908500E4F0A304F07F007E41
:1044BB005212364680079087D7E4F0A3F0D2AFD0E4
:1044CB0007D006D005D004D003D002D001D000D045
:1044DB00D0D082D083D0F0D0E03278897C847D013B
:1044EB007BFF7A9C79B77E007F081207D078917C8E
:1044FB00847D017BFF7A9C79BF7E007F081207D0F9
:10450B0078997C847D017BFF7A9C79C77E007F4004
:10451B001207D078D97C847D017BFF7A9D79077E49
:10452B00007F041207D0C2AF128DA91282517B01FA
:10453B007A8479D99084EAE4F0A37402F07F007E48
:10454B0080127FC99084D9E0FFA3E090870CCFF055
:10455B00A3EFF07B017A87790C908500E4F0A374CC
:10456B0002F07F807E121236467B017A8779939018
:10457B0084EAE4F0A37402F0E4FFFE127FC9908793
:10458B0095E0FFA3E090876ACFF0A3EFF07F057E65
:10459B00001295AA90876AE0FEA3E0D39428EE94CC
:1045AB00004005EE9440403290876AE4F0A37428F3
:1045BB00F0E4908793F0A3F0A3F0A37428F07B01B1
:1045CB007A8779939084E2E4F0A37402F0E4FFFE1F
:1045DB00127F267F057E001295AA7B047A007D2030
:1045EB007CFF7F047E00127D257F057E001295AA3D
:1045FB0090876AE0FEA3E0FF7B017A84798990843F
:10460B00E2E4F0A37404F0127F267F057E0012957E
:10461B00AA12937390876AE0FEA3E0FF7B047A00F3
:10462B007D207CFF127DD17F057E001295AA12930F
:10463B007390876AE0FEA3E0FF7B017A8479919007
:10464B0084E2E4F0A37404F0127F267F057E00124F
:10465B0095AA12937390876AE0FEA3E0FF7B047A1E
:10466B00007D107C00127DD17F057E001295AA1271
:10467B009373E4908793F0A3F090876AE0FFA3E035
:10468B00908795CFF0A3EFF07B017A877993908495
:10469B00E2E4F0A37402F0E4FFFE127F267F057EB6
:1046AB00001295AAD2AF229087A9E064017004F0A2
:1046BB0012698D7B017A8779F79084F8E4F0A37403
:1046CB0008F07F107E00123893C2AF908806E0642A
:1046DB0001600302477C9087F0E0FF605E9087EEFD
:1046EB00E0FD9087C9E0FAA3E0FBC39DEA9400408C
:1046FB0020908724E07002A3E07016C2959087C9C2
:10470B00F0A3F0908724F0A304F0E49087F6F080F8
:10471B0032908724E07004A3E064017026C3EB9F02
:10472B00EA9400401ED295E49087C9F0A3F09087DD
:10473B0024F0A3F09087F604F080089087F0E070E7
:10474B0002D2959087FBE0FF9087EAE06F6003024F
:10475B0048789087FCE0FF9087ECE06F600302489D
:10476B0078908806F0C2959087F6F0129511024862
:10477B0078908806E0600302487890846DF090840E
:10478B006DE0FFD3940474809480400302487874E6
:10479B00F12FF582E43487F583E06401600302486E
:1047AB006F90846DE075F006A42460FFE5F034256E
:1047BB00FE7B017A8779E59084F8E4F0A37404F02A
:1047CB001238939087FBE0FF9087E6E06F6003025F
:1047DB00486F9087FCE0FF9087E8E06F600302482A
:1047EB006F90846DE075F006A42462FFE5F034252C
:1047FB00FE7B017A8779E99084F8E4F0A37408F0E2
:10480B001238939087E6E0FF7E007C007D3C120817
:10481B004E9087E8E02FFBEC3EFA9087EAE0FF7EB4
:10482B000012084E9087ECE02FFFEC3ECFC39BCFDE
:10483B009AFE12084EAC06AD07E412041C90864F8C
:10484B00120A329088067401F0D2959087F6F0E444
:10485B009087C9F0A3F090863DF0A304F0E4908616
:10486B006CF0A3F090846DE004F0024789D2AF2284
:10487B00E49083C5F0A3F0A3120A3E00000000C22F
:10488B00AF9083BF74B0F0A37404F0A37480F0A353
:10489B007404F0908660E0FEA3E0FF90866FE02F3B
:1048AB00FD90866EE03EFCED24DEFEEC34FE908344
:1048BB00BBF0A3CEF0E412041CC004C005C006C0BC
:1048CB00079083BBE0FCA3E0FDE412041CA804A941
:1048DB0005AA06AB07D007D006D005D004120301FA
:1048EB009083C7120A32E4FFFEFD7C409083C7E041
:1048FB00F8A3E0F9A3E0FAA3E0FB1201F8120455C8
:10490B009083BD127A4F9083BDE07002A3E07003D9
:10491B00024A34E49083C3F09083C3E0D3941D74B4
:10492B008094814003024A34A3E0FF9083BEE09F52
:10493B009083BDE0940050659083C6E004F0700650
:10494B009083C5E004F09083C47401F0908681E0FD
:10495B0024FEFF908680E034FFFED39083C0E09F5F
:10496B009083BFE09E500AA3E02406F09083BF80A3
:10497B0026908626E024FEFF908625E034FFFED3AA
:10498B009083C2E09F9083C1E09E4003024A34A310
:10499B00E02406F09083C1E03400F080069083C4DD
:1049AB00E004F0908681E024FEFF908680E034FFE7
:1049BB00FED39083C0E09F9083BFE09E500AA3E09C
:1049CB002402F09083BF8023908626E024FEFF9084
:1049DB008625E034FFFED39083C2E09F9083C1E035
:1049EB009E5025A3E02402F09083C1E03400F0E058
:1049FB00FEA3E0FF7B017A8679579084F8E4F0A35D
:104A0B007402F012389380077F057E001295AA7FFF
:104A1B000A7E001295AA1270487F0A7E001295AA90
:104A2B009083C3E004F0024923D2AF22E490883C88
:104A3B00F0A3F0A3F0A3F0A3F0A3F0A3120A3E009F
:104A4B00000000908846120A3E0000000020100370
:104A5B00024BE4E490883EF0A3F090856BE0F8A362
:104A6B00E0F9A3E0FAA3E0FBC000C001C002C00361
:104A7B0090883FE025E0FF90883EE033FE74242FC2
:104A8B00F58274853EF583E0FCA3E0FDE412041C83
:104A9B00D003D002D001D00012010790856B120A0F
:104AAB003290883FE004F0700690883EE004F0906E
:104ABB00883EE07004A3E06403709F90850CE4F0E3
:104ACB00A37403F090850CE0FCA3E0FDEC12041C36
:104ADB00A804A905AA06AB0790856BE0FCA3E0FD33
:104AEB00A3E0FEA3E0FF120301908573120A32E4E8
:104AFB00908840F0A3F090854DE0F8A3E0F9A3E097
:104B0B00FAA3E0FBC000C001C002C003908841E0E3
:104B1B0025E0FF908840E033FE74242FF5827485E6
:104B2B003EF583E0FCA3E0FDE412041C908573E0EA
:104B3B00F8A3E0F9A3E0FAA3E0FB120103C004C061
:104B4B0005C006C0079083CD120A3E40000000D07E
:104B5B0007D006D005D0041254CEC004C005C00641
:104B6B00C00790850CE0FCA3E0FDEC12041CA8042C
:104B7B00A905AA06AB07D007D006D005D0041203AF
:104B8B0001D003D002D001D00012010790854D1245
:104B9B000A32908841E004F07006908840E004F0FF
:104BAB00D3908841E09402908840E06480948050D8
:104BBB0003024B01E4FFFE7D407C4090854DE0F805
:104BCB00A3E0F9A3E0FAA3E0FB12039E60025004FA
:104BDB00C2118005D211120062D2AF2212967D1241
:104BEB008E6E7F147E00128D437B017A85790A903D
:104BFB008500E4F0A37402F07F207E461236467BDC
:104C0B00017A8779B8908500E4F0A37402F07F7382
:104C1B007E48123646128F1E1295CA1296F21294C5
:104C2B00637B017A8779A6908500E4F0A37402F088
:104C3B007F057E511236467B017A8779A6908500D7
:104C4B00E4F0A37402F07F067E511236467B017AA4
:104C5B008779A6908500E4F0A37402F07F077E515C
:104C6B00123646D2AF123CFA9087CBE07004A3E029
:104C7B0064016003024D747B017A8679689084F835
:104C8B00F0A37402F07F147E00123893126665E471
:104C9B009087CBF0A3F07B017A8679C2908500F0E8
:104CAB00A304F07F007E52123646908724E07002F8
:104CBB00A3E0600320A728C2AF9086E4E0FEA3E048
:104CCB00FF122BFA9086E4E0FEA3E0FF7C007D0A46
:104CDB001208609086A2EEF0A3EFF0D2AF80239083
:104CEB0086A4E07004A3E06401700330A7149085E0
:104CFB0049120A3EBF800000908544120A3E000014
:104D0B000000123F0D9086A4E07004A3E0640360E2
:104D1B00031221E59087B6E07002A3E07002C29502
:104D2B009086E4E0FCA3E0FDE412041CE4FBFA79BA
:104D3B007A784412030190869E120A327B017A869E
:104D4B00799E908500E4F0A37404F07F007E251219
:104D5B0036467B017A8679C3908500E4F0A304F094
:104D6B007F007E52123646D2AF12953A12933F0213
:104D7B004C70C2AFE4FFFEFDFC908549E0F8A3E068
:104D8B00F9A3E0FAA3E0FB12039E4041E4FBFA799E
:104D9B00207840908549E0FCA3E0FDA3E0FEA3E072
:104DAB00FF120301E4FBFA79A078421201F8A80480
:104DBB00A905AA06AB07E4FFFE7DD57C43120103D0
:104DCB00120455908644EEF0A3EFF080589085497D
:104DDB00E0FCA3E0FDA3E0FEA3E0FF1296B6E4FB2C
:104DEB00FA792078421201F8E4FBFA79D57843126C
:104DFB000107120455908644EEF0A3EFF0E4FFFE9A
:104E0B007D807CBF908549E0F8A3E0F9A3E0FAA38D
:104E1B00E0FB12039E700E908645E024FEF0908618
:104E2B0044E034FFF090863BE0FEA3E0FF90864425
:104E3B00E0B5060FA3E0B5070A04F07006908644B0
:104E4B00E004F09087C1E0FCA3E0FDE412041C90A9
:104E5B008653E0F8A3E0F9A3E0FAA3E0FB12039E6C
:104E6B0060054003024F01E49087C1F0A3F09086E8
:104E7B0042E0FEA3E0FFD3944CEE94025019EF24D2
:104E8B0002FFE43EFE908642F0A3EFF0A3E0FCA30A
:104E9B00E0FD126433805F90870CE07002A3E0604A
:104EAB00559086F8E0FEA3E0FF908665E06E7003F8
:104EBB00A3E06F6041908648E0701D9083C104F0C1
:104ECB00A374AAF07B0A7A00FD7C017F0A7E001294
:104EDB0077389086487401F090862CE02402F0908D
:104EEB00862BE03400F0E0FEA3E0FF908644E0FC6C
:104EFB00A3E0FD12654CD2AF22C2AFC2109086E484
:104F0B00E0FCA3E0FD90850EE0FAA3E0FB25E0FFBB
:104F1B00EA33FE74302FF58274853EF583ECF0A3F3
:104F2B00EDF0C3908592E09402908591E09400504F
:104F3B0003025052EA600302504FEB1460431460BB
:104F4B00731470030250082403600302504F9085C2
:104F5B0034E0FEA3E0FF7C007D0A120860908524FC
:104F6B00EEF0A3EFF0908536E0FEA3E0FF7C007D32
:104F7B000A120860908526EEF0A3EFF09085308042
:104F8B0064908536E0FEA3E0FF7C007D0A1208608A
:104F9B00908524EEF0A3EFF0908530E0FEA3E0FFC8
:104FAB007C007D0A120860908526EEF0A3EFF0904E
:104FBB0085328031908530E0FEA3E0FF7C007D0AD6
:104FCB00120860908524EEF0A3EFF0908532E0FE9E
:104FDB00A3E0FF7C007D0A120860908526EEF0A30B
:104FEB00EFF0908534E0FEA3E0FF7C007D0A120811
:104FFB0060908528EEF0A3EFF0D2108047D210908E
:10500B008532E0FEA3E0FF7C007D0A1208609085EC
:10501B0024EEF0A3EFF0908534E0FEA3E0FF7C00DC
:10502B007D0A120860908526EEF0A3EFF09085368E
:10503B00E0FEA3E0FF7C007D0A120860908528EE5D
:10504B00F0A3EFF0124A37C390850FE094039085DD
:10505B000EE094004005E4F0A3F02290850FE004ED
:10506B00F0700690850EE004F0908592E004F070ED
:10507B0006908591E004F022AFAD9086DFE0FCA3B3
:10508B00E0FDEC704BED146020047044EF6457604E
:10509B00030251FE74CF2DF58274863CF583EFF03D
:1050AB009086DFE4F0A304F022EF701C9086DFE023
:1050BB00FCA3E024CFF58274863CF583EFF0908659
:1050CB00DFE4F0A37402F022E49086DFF0A3F02279
:1050DB009086DFE0FCA3E024CFF58274863CF58359
:1050EB00EFF09086E0E004F070069086DFE004F0CD
:1050FB00D39086E0E0940F9086DFE094005003029B
:10510B0051FEE4F0A3F09086D0E0FF9086CFE02F25
:10511B00FF9086D1E02FFFA3E02FFFA3E02FFFA38B
:10512B00E02FFFA3E02FFFA3E02FFFA3E02FFFA3B0
:10513B00E0FE2FFFA3E0FD2FFFA3E0FC2FFFA3E07A
:10514B002FFFA3E02FFFA3E02FFF908687F0908621
:10515B00DEE06F60030251FEEC7056EE7B00FAED61
:10516B007E007810C333CE33CED8F9FFEE4AFEEF74
:10517B004BFF9086D7E0FDEF4DFF9086E4EEF0A35A
:10518B00EFF0300B6EC20B9086A4E07004A3E064CA
:10519B000170087B017A8779B8802A9086B4E02465
:1051AB0003FF9086B3E03400FE7B017A8779B880E9
:1051BB0036D20B9086A4E07004A3E0640170147BDC
:1051CB00017A8779BA908500F0A37402F07F137E81
:1051DB0049801D9086B4E02403FF9086B3E0340031
:1051EB00FE7B017A8779BA908500E4F0A37402F014
:1051FB00123646227F9C7E001291F0EF64A570035D
:10520B00EE645A60030253679083BBF0A3F0D201A4
:10521B0078BD7C837D017BFF7A9E7945FE7F0712EB
:10522B0007D07F9D7E001291F09083C4EEF0A3EF28
:10523B00F09083C4E0FCA3E0FDEC9083BBF0E0FFB7
:10524B0075F00A84C454F0FEEF75F00A84EE25F075
:10525B009083BDF09083BBEDF0E0FF75F00A84C442
:10526B0054F0FEEF75F00A84EE25F09083BEF07FCC
:10527B009E7E001291F09083C4EEF0A3EFF090832A
:10528B00C4E0FCA3E0FDEC9083BBF0E0FF75F00AFB
:10529B0084C454F0FEEF75F00A84EE25F09083BFC2
:1052AB00F09083BBEDF0E0FF75F00A84C454F0FE80
:1052BB00EF75F00A84EE25F09083C1F07F9F7E009E
:1052CB001291F09083C4EEF0A3EFF09083C4E0FC56
:1052DB00A3E0FDEC9083BBF0E0FF75F00A84C454AF
:1052EB00F0FEEF75F00A84EE25F09083C2F0908308
:1052FB00BBEDF0E0FF75F00A84C454F0FEEF75F0DF
:10530B000A84EE25F09083C3F0E4FDFC7F9CFE1233
:10531B008EC8300147128CD87F10128D169083C324
:10532B00E0FF128D169083C2E0FF128D169083C1A1
:10533B00E0FF128D169083C0E0FF128D169083BF95
:10534B00E0FF128D169083BEE0FF128D169083BD89
:10535B00E0FF128D0B129589C20180B62290870C4B
:10536B00E07002A3E06003126A8C908703E0FF6099
:10537B0059908662E07002A3E0604F908729E0FDB0
:10538B009086EAE0FAA3E0FBC39DEA9400401690F6
:10539B008724E07002A3E0700C908724F0A304F044
:1053AB00C295E4801D908724E07004A3E064017033
:1053BB001BC3EB9FEA94004013E4908724F0A3F007
:1053CB00D2959086EAF0A3F08002D295908724E0E4
:1053DB00FEA3E0FF4E7008908738E07002D2952054
:1053EB00A704EF4E600D908724E07002A3E06048A5
:1053FB0030A745908663E004F07006908662E00467
:10540B00F0908731E004F07006908730E004F0D321
:10541B0090870BE0940090870AE09400400CA3E087
:10542B0024FFF090870AE034FFF09086EBE004F065
:10543B0070069086EAE004F0D390870BE09400901E
:10544B00870AE0940040149086F8E0FEA3E0FF90FA
:10545B008663E09F908662E09E40207F057E00126F
:10546B008D439087387401F090870CE07002A3E0B5
:10547B0060069086E97401F002872FE4FFFEFD7C45
:10548B004090864FE0F8A3E0F9A3E0FAA3E0FB120B
:10549B0001F8C004C005C006C007908662E0FCA3FB
:1054AB00E0FDE412041CA804A905AA06AB07D0076B
:1054BB00D006D005D00412039E4007E490863DF041
:1054CB00A3F0229083C9120A32E4FFFE7D807C3F59
:1054DB009083C9E0F8A3E0F9A3E0FAA3E0FB120381
:1054EB009E70069083C90256289083C9E0FCA3E006
:1054FB00FDA3E0FEA3E0FF1204D6FBA3E0FCA3E0B8
:10550B00FDA3E0FEA3E0FF1204D6FFB40108E4FF05
:10551B00FE7D807C3F22EF64046029EB64046024F1
:10552B00EBB40130E4FFFEFDFC9083CDE0F8A3E08B
:10553B00F9A3E0FAA3E0FB12039E60084006E4FF28
:10554B00FEFDFC229083CD120A3EFFFFFFFF9083EE
:10555B00CD025628E49083D1F0A3F0FFFEFDFC9022
:10556B0083C9E0F8A3E0F9A3E0FAA3E0FB12039EE2
:10557B00505F9083CDE0FCA3E0FDA3E0FEA3E0FF32
:10558B001204559083D1EEF0A3EFF0FDCCEECCECF2
:10559B0012041CC8ECC8C9EDC9CAEECACBEFCB903C
:1055AB0083CDE0FCA3E0FDA3E0FEA3E0FF1201032B
:1055BB00E4FBFAF9F812039E708A9083C9E0FCA30E
:1055CB00E0FDA3E0FEA3E0FF1204F09083C9120AF2
:1055DB00329083C9E0FCA3E0FDA3E0FEA3E0FF1241
:1055EB0061079083CDE0F8A3E0F9A3E0FAA3E0FB19
:1055FB001201F812863B9083CD120A329083D2E0CF
:10560B0030E0179083CDE0FCA3E0FDA3E0FEA3E028
:10561B00FF1204F09083CD120A329083CDE0FCA3ED
:10562B00E0FDA3E0FEA3E0FF22C2AF90866AE0702C
:10563B0004A3E06401600302578F9086A4E070041A
:10564B00A3E06401706B908693E07004A3E06401A7
:10565B0070127B017A8779A6908500F0A37402F013
:10566B007F05803A908693E07004A3E06402701289
:10567B007B017A8779A6908500F0A37402F07F06F0
:10568B00801C908693E07004A3E0640370237B017D
:10569B007A8779A6908500F0A37402F07F077E517C
:1056AB001236469084727402F07B05FD7F041274EF
:1056BB00C2908640E0FEA3E0FF7B017A867978906A
:1056CB0084F8E4F0A37402F0123893908679E0909A
:1056DB008620F090864DE0FFA3E0908623CFF0A3C9
:1056EB00EFF0908667E0908622F09086217401F0AF
:1056FB00908646E0FEA3E0FF7B017A86791D9085BC
:10570B0000E4F0A37408F0123646908646E0FEA340
:10571B00E0FF7B017A84796D9084F8E4F0A3740246
:10572B00F012389390846EE0FF90846DE0B507DA49
:10573B00908664E0908622F0E4908621F090864675
:10574B00E0FEA3E0FF7B017A86791D908500E4F0F3
:10575B00A37408F0123646908646E0FEA3E0FF7B6A
:10576B00017A84796D9084F8E4F0A37402F0123816
:10577B009390846EE0FF90846DE0B507DAE4908639
:10578B006AF0A3F0D2AF229083C6EBF09083C5ED05
:10579B00F0EF24D0FEE434079083C8F0A3CEF0EDF5
:1057AB00FF64016005EF640270159083C5E0240C63
:1057BB00F09083C9E024FFF09083C8E034FFF090B1
:1057CB0083C8E0FEA3E0FFC394D8EE94064034BE3A
:1057DB000610BFD80D9083C5E0C3940974809480E4
:1057EB0040219083C8E064067004A3E064D8706520
:1057FB009083C5E06409705DA3E0C3940374809447
:10580B008050529083C5E0FB2401FFE433FE7C0003
:10581B007D0312084E7D051208B5AD07EB75F0023E
:10582B00A4FFA3E07A002FFFEA35F0CF2DCF3EFE89
:10583B009083C8E0FCA3E0FD2FFBEC3EFAAE04ED39
:10584B007802CEC313CE13D8F92BFFEA3ECF240632
:10585B00CF3400807C9083C5E02401FFE433FE7CD1
:10586B00007D0312084E7D051208B5AC06AD07A3EB
:10587B00E02401FBE433FA9083C5E075F002A42B1E
:10588B00FFE5F03ACF2DCF3CFE9083C8E0FCA3E0C0
:10589B00FD2FFBEC3EFAAE04ED7802CEC313CE1314
:1058AB00D8F92BFBEA3EFA9083C8E0FEA3E0FF7C1D
:1058BB00007D64120860C3EB9FFBEA9EFA9083C8DD
:1058CB00E0FEA3E0FF7C017D90120860EF2BFFEE62
:1058DB003AFE7C007D071208609083C7EDF0908341
:1058EB00C7E0FF2278BD7C837D017BFF7A9E793DEB
:1058FB007E007F081207D07B017A8679C4908500E1
:10590B00E4F0A304F07F007E52123646128D111282
:10591B0095931296577F65128D167C06ECD39400E7
:10592B0074809480401512949074BD2CF582E434ED
:10593B0083F583EFF01296A91C80E112949090836B
:10594B00BDEFF01296E7129598E4FCECC394037448
:10595B00809480503074BD2CF582E43483F583E061
:10596B00FFC4540FFE9083BBF0EF540FFFA3F0EE78
:10597B0075F00AA42FFF74BD2CF582E43483F583F4
:10598B00EFF00C80C67C04ECC394077480948050B9
:10599B003074BD2CF582E43483F583E0FFC4540FDF
:1059AB00FE9083BBF0EF540FFFA3F0EE75F00AA44B
:1059BB002FFF74BD2CF582E43483F583EFF00C805C
:1059CB00C69083BDE0FFA3E0FDA3E0FB12579290CE
:1059DB0083C0EFF09083BDE0FEA3E07C002400FDCC
:1059EB00EC3EFC7F107E00128EC89083BFE0FEA3BE
:1059FB00E07C002400FDEC3EFC7F117E00128EC883
:105A0B009083C1E0FEA3E07C002400FDEC3EFC7F14
:105A1B00127E00128EC89083C3E0FEA3E07C0024AC
:105A2B0000FDEC3EFC7F137E00128EC87B017A8654
:105A3B0079C5908500E4F0A304F07F007E52023616
:105A4B0046C2AF90861D745AF0A374A5F0E4A3F080
:105A5B009086A4E07004A3E06401706B908693E0E1
:105A6B007004A3E0640170127B017A8779AB908597
:105A7B0000F0A37402F07F05803A908693E07004E7
:105A8B00A3E0640270127B017A8779AB908500F0FA
:105A9B00A37402F07F06801C908693E07004A3E051
:105AAB00640370237B017A8779AB908500F0A37434
:105ABB0002F07F077E511236469083C67402F07B4C
:105ACB0005FD7F04126F5A908640E0FEA3E0FF7B3A
